:1000000000800020BD0100008D910000499100009A
:100010004991000049910000499100004991000078
:100020004991000049910000499100008D91000024
:100030008D91000049910000A1860000A586000076
:100040008D9100008D9100008D9100008D91000038
:100050008D9100008D9100008D9100008D91000028
:100060008D9100008D9100008D9100008D91000018
:100070008D9100008D9100008D9100008D91000008
:100080008D9100008D9100008D9100008D910000F8
:100090008D9100008D9100008D9100008D910000E8
:1000A0008D9100008D9100008D9100008D910000D8
:1000B0008D910000D5790000E1790000E57900001C
:1000C000F1790000F5790000F97900008D910000C8
:1000D0008D9100008D9100008D9100008D910000A8
:1000E0008D9100008D9100008D9100008D91000098
:1000F0008D9100008D9100008D910000C59F000042
:100100008D910000EDA600008D9100008D91000002
:100110008D9100008D9100008D9100008D91000067
:100120008D9100008D9100008D9100008D91000057
:100130008D9100008D9100008D9100008D91000047
:100140008D9100008D9100008D9100008D91000037
:100150008D9100008D9100008D9100008D91000027
:100160008D910000EDA900008D9100008D9100009F
:100170008D9100008D9100008D9100008D91000007
:100180008D9100008D9100008D9100008D910000F7
:100190008D9100008D9100008D9100008D910000E7
:1001A0008D9100008D9100008D9100008D910000D7
:1001B0008D9100008D9100008D910000574B4CF205
:1001C000205210B5DA814DF62812DA8100BF00BF47
:1001D00008F0E0FF524B4FF010621A63514A9A63E5
:1001E000514ADA63514A136913F4807303D153619E
:1001F0004FF4A85313614E4B9A78110703D59A78A0
:1002000042F008029A704B4B4B482A221A704B4B13
:10021000DA1C121AC11E22F00302994288BF002282
:10022000474908F0BDFE474B4748DA1C121AC11E69
:1002300022F00302994288BF002200210DF000F84D
:10024000424943484FF4DE7208F0AAFE414B424A4D
:10025000802103F8011B9342FBD14FF0E0233C4A7D
:10026000C3F8082D3D4B8A221A70A3F5805324222F
:100270005A70A0221A709A799207FCD59A79D406FE
:10028000FCD4374B9A7902F00C02082AFAD10322E7
:100290001A7140225A719A799006FCD5304A9379A6
:1002A0005906FCD51E4B2F4959640221996420211F
:1002B0001170917901F00C010C29FAD12A4A5A6087
:1002C0004FF0E023294A5A6100229A6107221A61FD
:1002D000274AC3F8202D62B609F010F8134B5B696A
:1002E000DA0705D5234808F0FDFF234B234ADA61DE
:1002F000234B1B785B0609D51F4C204BE2699A42C1
:1003000004D11C4808F0EEFF0023E36108F048FF29
:100310000DF08CF808F03CFEFEE700BF0020054021
:1003200000800440823F04000100002B00D0034005
:1003300000D0074000E007402087FF1F788FFF1F95
:10034000944A01002CBAFF1F788FFF1F00000000A5
:100350000082FF1F00E400E05FE400E00050064080
:100360000040064000000301C0100500FF760100B8
:1003700000002020851D826400E00340A5C3945A3C
:1003800000F00740FFFFFFFFFFFFFFFFFFFFFFFF42
:10039000FFFFFFFFFFFFFFFFFFFFFFFFFFFFFFFF6D
:1003A000FFFFFFFFFFFFFFFFFFFFFFFFFFFFFFFF5D
:1003B000FFFFFFFFFFFFFFFFFFFFFFFFFFFFFFFF4D
:1003C000FFFFFFFFFFFFFFFFFFFFFFFFFFFFFFFF3D
:1003D000FFFFFFFFFFFFFFFFFFFFFFFFFFFFFFFF2D
:1003E000FFFFFFFFFFFFFFFFFFFFFFFFFFFFFFFF1D
:1003F000FFFFFFFFFFFFFFFFFFFFFFFFFFFFFFFF0D
:10040000FFFFFFFFFFFFFFFFFFFFFFFFDEF9FFFF23
:100410000548064B1B1AD90F01EBA301491002D066
:10042000034B03B118477047788FFF1F788FFF1F6A
:100430000000000008B5054B1BB105490548AFF3A6
:100440000080BDE80840FFF7E3BF00BF00000000E8
:10045000788FFF1F944A010010B5802200210446C6
:100460000CF0EEFE124904F1800304F5807243F8AB
:10047000041F9A42FBD18022002104F584700CF005
:10048000DFFE002200230B490B4884F8D021C4F87A
:10049000A801C4F88C31C4F89031C4F8A411C4F890
:1004A000AC11C4F8B031A4F8B821204610BD00BF8B
:1004B0000000A040000048430000C8C208B5029CEC
:1004C000134422441B7A127A1B0203F4706304461D
:1004D00098180D460BF0DEFD02490BF02FFE44F894
:1004E000250000BF0AD7A33A10B590F8D031023BDF
:1004F000092B82B0044694461ED8E02911D19CF8FD
:100500000E009CF80F3003EB00200BF0C3FD1449E4
:100510000BF014FE13490BF009FDC4F8900102B072
:1005200010BDFCDC602914D07029F8D101230093A0
:1005300005210023FFF7C2FFE029E0D0EFDC6029AE
:1005400007D07029EBD10123009304210023FFF78A
:10055000B5FF01210091002362462046FFF7AEFF60
:10056000DDB504BD00001643D0F8DC01704700BFC4
:1005700090F8C001704700BF90F8BC01704700BF01
:1005800090F8C401704700BF90F8C801704700BFE1
:10059000202994BF50F82100002070472DE9F04138
:1005A0000C4E8046051F00F17C0755F8044F31467C
:1005B00020460BF061FF034620462BB1D8F8B4115A
:1005C0000BF078FF00B12646BD42EED13046BDE8C3
:1005D000F08100BF000020412DE9F843D0F8B4813C
:1005E0000F4F4FF00009051F00F17C0655F8044F2E
:1005F000414620460BF05EFF0346394620464BB18C
:100600000BF03AFF0346494620461BB10BF052FF60
:1006100000B1A146B542E9D14846BDE8F88300BF24
:10062000000070422DE9F04F83B00025D0F8B4915E
:10063000184F0190C0F8DC51041F00F17C0800261F
:10064000AA4654F804BF494658460BF033FF024609
:100650003946584662B10BF00FFF48B13046594653
:100660000BF064FC019B0AF1010AC3F8DC51064659
:10067000444505F10105E4D1019B5046C3F8D4A1DE
:100680000BF008FD014630460BF00CFE03B0BDE850
:10069000F08F00BF00007042D0F8D401704700BF57
:1006A000D0F89001704700BFD0F89001704700BFAC
:1006B000D0F89001704700BF2DE9F0470026D0F830
:1006C000B491104FC0F88C618246051F00F17C0880
:1006D00055F8044F494620460BF0ECFE03463946D8
:1006E000204653B10BF0C8FE03462146304623B1E5
:1006F0000BF01CFC0646CAF88C014545E8D1304693
:10070000BDE8F0870000704202299ABF643150F8BA
:1007100021000020704700BF102998BF80F8D01139
:10072000704700BF90F8B801704700BFC0F8CC1107
:10073000704700BF80F8B811704700BF80F8B9114A
:10074000704700BF10B5C0F8B41182B008460BF076
:10075000D1FA074C0B46022102460091204608F0D0
:1007600087F9204602B0BDE8104008F05DB900BF2F
:100770000C88FF1F70B500F50055064600F13804DF
:100780001835204604F5F074FFF766FEAC42F8D148
:1007900006F50675012428460021FFF7CBFF214608
:1007A00028460134FFF7B8FF112C05F5F075F2D19A
:1007B0000749316206F50053002272620548064976
:1007C000B0620022F162304683F8202070BD00BF85
:1007D00000007A44000048430000C8C2F8B500F5A4
:1007E0000057002300F5F1567B6200F506741836B9
:1007F00003E004F5F074B4420ED02046FFF792FFF8
:100800000028F6D020467D6AFFF746FF04F5F07415
:100810000544B4427D62F0D1786AF8BD70B50E68C7
:100820000D4606F00F0301210B44C3EB031300EB4D
:10083000431438342046FFF77DFF20460121FFF79F
:100840007DFF2A4606F0F0012046BDE87040FFF724
:100850004BBE00BF70B5002300F50056054603618E
:1008600000F50674183603E004F5F074A64223D0B0
:100870002046FFF757FF0028F6D02046FFF71CFF61
:10088000014628690BF052FB28612046FFF708FF5C
:10089000A96A0BF0F1FD20BB2046FFF705FFE96ACE
:1008A0000BF008FE0028DFD02046FFF7FDFE04F520
:1008B000F074A642E862DBD168690BF0EBFB0146FD
:1008C00028690BF0EFFC696A286104460BF0F2FD21
:1008D00000B16C62296A20460BF0CEFD00B12C629B
:1008E00070BD2046FFF7DCFEA862D5E72DE9F04F8A
:1008F00000F1080387B007460822184600219946F0
:10090000059307F5067B0CF09BFC07F5005507F1F6
:10091000110301931835D846CDF810B0029706E0C0
:10092000019B09F101094B4508F5F0784ED040468E
:10093000FFF7F8FE0028F3D0029BDDF810B0CDF8E9
:100940000C900126002703F5005AD946002403E045
:1009500009F5F0794D4510D04846FFF7E3FE002831
:10096000F6D04846FFF75EFE014620460BF0DEFA61
:1009700009F5F0794D450446EED1DAF81C000BF08C
:1009800089FB014620460BF08DFC3146044640466B
:10099000FFF7FEFD21460BF08DFD20B1731E0122F5
:1009A00002FA03F31F430136092ECED1DDF80C9075
:1009B000029BA9EB0303102B0CD0019B89F800705C
:1009C00009F101094B4508F5F078B0D1DDF810B018
:1009D000029F04E03B46029FDDF810B0FB734FF42A
:1009E000407208233A60FB711A2172480AF0C6FC73
:1009F000002310223968704808F02EF804216F484F
:100A00000AF0BCFC6C4808F00FF8FB7923B3002512
:100A1000DFF8AC81684E2C46092140460AF0AEFC56
:100A200000230A22214630463C4408F015F80521EF
:100A300064480AF0A3FC217A00230222304608F021
:100A40000BF820200AF01EFD304607F0EDFF0135BF
:100A5000FB79ECB2A342DFD839465B4806F0DEFDF5
:100A60000598082200210CF0EBFBFB1D07F59758B9
:100A700007F5005501930B23029708F11808183564
:100A80001F4607E0102F4CD0019B013308F5F0788A
:100A9000013701934046FFF745FE0028F2D0029B44
:100AA000039701264FF0000903F5005A5F46002422
:100AB00003E007F5F077BD4210D03846FFF732FE6D
:100AC0000028F6D03846FFF7ADFD014620460BF072
:100AD0002DFA07F5F077BD420446EED1DAF81C0096
:100AE0000BF0D8FA014620460BF0DCFB31460446F9
:100AF0004046FFF74DFD21460BF0DCFC28B1731E8C
:100B0000012202FA03F349EA03090136092ECDD185
:100B1000039F7B1E0B2B019B49D9102F83F800905C
:100B2000B2D13C46029F23484FF4447205231A2158
:100B30003A60FB710AF022FC0023224639681E4805
:100B400007F08AFF04211D480AF018FC1A4807F034
:100B50006BFFFB7923B30025DFF86480164E2C462B
:100B6000092140460AF00AFC00230A2221463046A9
:100B70003C4407F071FF052112480AF0FFFB217A7F
:100B800000230222304607F067FF20200AF07AFC9B
:100B9000304607F049FF0135FB79ECB2A342DFD8BC
:100BA0000948394607B0BDE8F04F06F037BD83F875
:100BB000019069E78C2E01000C88FF1FA82E010010
:100BC000B02E0100BC2E0100ECB2FF1F70B5124B1D
:100BD000836100F50055064600F50674183503E0FC
:100BE00004F5F074AC4214D02046FFF79BFD0028BA
:100BF000F6D02046FFF7D2FCB1690BF03DFC00288F
:100C0000EED02046FFF7CAFC04F5F074AC42B061A8
:100C1000EAD1B06970BD00BF0000A04070B50023EC
:100C200000F500550646C36100F50674183503E06B
:100C300004F5F074AC4214D02046FFF773FD002891
:100C4000F6D02046FFF7C8FCF1690BF033FC002812
:100C5000EED02046FFF7C0FC04F5F074AC42F06122
:100C6000EAD1F06970BD00BF00697047416170470B
:100C70002DE9F041144E8846174600F5067401250B
:100C800004E00135112D04F5F0741BD02046FFF768
:100C900049FD0028F5D02946304607F0BDFE304614
:100CA00007F0C2FE78200AF0EDFB20464146FFF730
:100CB0003DFD013520463946FFF744FD112D04F571
:100CC000F074E3D1BDE8F0810C88FF1F2DE9F843F3
:100CD0002A4B036300F50058294A4263002700238A
:100CE00045460646C8F81C3000F506741835B94666
:100CF00003E004F5F074A54231D02046FFF712FD61
:100D00000028F6D02046FFF7D3FC49460BF0D2FB73
:100D100003462046002BECD0D8F81C300133C8F82D
:100D20001C30FFF7C5FC014638460BF0FFF80746BC
:100D30002046FFF7B9FC316B0BF0BCFBC8B920466D
:100D4000FFF7AEFC716B0BF097FB0028D1D020466B
:100D5000FFF7A6FC04F5F074A5427063CDD1D8F876
:100D60001C000BF097F9014638460BF09BFABDE8E2
:100D7000F8832046FFF798FC3063E0E700C079C4B1
:100D800000C07944006B7047406B7047F8B500F5C0
:100D900000560746002500F50674183603E004F5F2
:100DA000F074B44210D02046FFF7BCFC0028F6D007
:100DB0002046FFF737FC014628460BF0B7F804F54C
:100DC000F074B4420546EED107F50057F8690BF010
:100DD00061F9014628460BF065FAF8BD2DE9F04FA0
:100DE00093B006460E91002A40F00A811446104640
:100DF000A34900F01BFF06F500552046A04900F06E
:100E000015FF20469E4900F011FF06F5F1586C626F
:100E100006F50674D5F81CA008F118082746A14667
:100E200003E007F5F077B8450ED03846FFF77AFCB7
:100E30000028F6D038466C6AFFF72EFC07F5F077ED
:100E40000444B8456C62F0D130690AF053FF4C4657
:100E50007369D5F824B00F9306F50059CDE9100158
:100E600009F118094FF00008274603E007F5F0776D
:100E7000B94510D03846FFF755FC0028F6D0384663
:100E8000FFF7D0FB014640460BF050F807F5F0772E
:100E9000B9458046EED1E8690BF0FCF801464046C2
:100EA0000BF000FA0AF026FF80463046B569F76974
:100EB0008946FFF70BFF0AF01DFFCDE90C0129461B
:100EC00038460BF031F86F490BF038F90AF012FF91
:100ED000CDE90A0138460AF00DFFCDE908012846A0
:100EE0000AF008FFDDE91023CDE906010F99009112
:100EF000CDE902236449654D5B4652460020CDE9A9
:100F0000048900F093FE5E49002000F08FFE4FF050
:100F1000010B002607E00BF1010BBBF1100F04F5EC
:100F2000F07400F025822046FFF7FCFB0028F2D089
:100F30002046FFF71DFB2046FFF71EFB2046FFF76C
:100F40001FFB2046FFF720FB082151480AF016FA44
:100F50005946284607F060FDBBF1090F03DC4D48F8
:100F600001210AF00BFA02214B48DFF828A10AF010
:100F700005FA2046FFF7A0FB0AF0BCFE9DF838708A
:100F8000009702460B46284607F072FD01214348B0
:100F90000AF0F4F92046FFF7E7FA0C2840F34E81F7
:100FA000B1464FF0010821E007213D480AF0E6F97B
:100FB0004946284607F030FD02213A480AF0DEF99A
:100FC00041462046FFF7E4FA0AF094FE00970246F5
:100FD0000B46284607F04CFD08F101082F48012177
:100FE0000AF0CCF9B8F10C0F00F05981B9F1090FF2
:100FF00009F10109D8DC012150460AF0BFF9D3E715
:101000001F49012000F012FE1D49012000F00EFED4
:1010100006F500551A49012000F008FE06F5067491
:10102000002306F5F158D5F81CA06B6208F11808EA
:101030002746A14603E007F5F077B8450ED03846BD
:10104000FFF770FB0028F6D038466C6AFFF724FBE8
:1010500007F5F0770444B8456C62F0D130690AF0C6
:1010600049FE4C467369D5F824B00F9306F5005934
:10107000CDE9100109F118094FF00008274617E0E3
:10108000AC2E010000007A444C3101000C88FF1F97
:10109000EC310100C02E0100A42E0100F831010046
:1010A000FC3101006832010007F5F077B94510D036
:1010B0003846FFF737FB0028F6D03846FFF7B2FA7C
:1010C000014640460AF032FF07F5F077B945804601
:1010D000EED1E8690AF0DEFF014640460BF0E2F887
:1010E0000AF008FE80463046B569F7698946FFF781
:1010F000EDFD0AF0FFFDCDE90C01294638460AF066
:1011000013FFB5490BF01AF80AF0F4FDCDE90A0116
:1011100038460AF0EFFDCDE9080128460AF0EAFD5D
:10112000DDE91023CDE906010F990091CDE90223F5
:10113000AA49AB4D5B4652460120CDE9048900F037
:1011400075FDA849012000F071FD4FF0010B00264C
:1011500007E00BF1010BBBF1100F04F5F07400F088
:1011600007812046FFF7DEFA0028F2D02046FFF77D
:10117000FFF92046FFF700FA2046FFF701FA204664
:10118000FFF702FA9848082108F0CCFD5946284696
:1011900007F042FCBBF1090F03DC9448012108F081
:1011A000C1FD02219248DFF844A208F0BBFD2046B1
:1011B000FFF782FA0AF09EFD9DF83870009702460C
:1011C0000B46284607F054FC8A48012108F0AAFD86
:1011D0002046FFF7C9F90C2840F3CD80B1464FF007
:1011E000010821E08448072108F09CFD4946284673
:1011F00007F012FC8148022108F094FD4146204688
:10120000FFF7C6F90AF076FD009702460B4628461E
:1012100007F02EFC08F101087648012108F082FD54
:10122000B8F10C0F00F0F080B9F1090F09F10109D4
:10123000D8DC0121504608F075FDD3E7DFF8B891FE
:101240004FF001081DE0072148460AF097F83146A3
:10125000284607F0E1FB022168480AF08FF8414672
:101260002046FFF795F90AF045FD009702460B4628
:10127000284607F0FDFB5F4801210AF07FF808F1DE
:1012800001082046FFF770F940454ADB092E06F1B8
:101290000106D8DC012150460AF070F8D3E7204659
:1012A000FFF762F90C2806F10B0905DD2046FFF770
:1012B0005BF9172840F33881DFF840A14FF00D08A3
:1012C00007214D4809F101090AF058F84946284616
:1012D00007F0A2FB022150460AF050F84146204692
:1012E000FFF756F90AF006FD009702460B4628461E
:1012F00007F0BEFB08F101083E4801210AF03EF864
:10130000B8F1180FDCD116360F213D480AF036F837
:10131000284607F089FB2046FFF726F9192800F335
:1013200032810F2136480AF029F8284607F07CFB65
:10133000092134480AF022F800212046FFF7E4F999
:101340000AF0D8FC0B46022102460091284607F01D
:101350008FFB0F212A480AF011F80BF1010B2846E8
:1013600007F062FBBBF1100F04F5F0747FF4DBAD06
:1013700013B0BDE8F08FDFF880904FF001081DE05A
:101380000721484608F0CEFC3146284607F044FBCA
:101390001A48022108F0C6FC41462046FFF7F8F83B
:1013A0000AF0A8FC009702460B46284607F060FBAF
:1013B0001048012108F0B6FC08F101082046FFF7AB
:1013C000D3F8404561DB092E06F10106D8DC504612
:1013D000012108F0A7FCD3E700007A444C3101005A
:1013E000AC87FF1FAC2E0100EC310100C02E0100C4
:1013F000A42E0100F8310100FC3101006832010027
:1014000004320100143201002046FFF7ADF80C2829
:1014100006F10B0904DD2046FFF7A6F8172854DD76
:10142000DFF81CA24FF00D088648072109F10109D9
:1014300008F078FC4946284607F0EEFA02215046AB
:1014400008F070FC41462046FFF7A2F80AF052FC73
:10145000009702460B46284607F00AFB08F10108F0
:101460007948012108F05EFCB8F1180FDCD116367E
:101470000F21764808F056FC284607F0D5FA20469A
:10148000FFF772F8192800F3AC800F216F4808F0BD
:1014900049FC284607F0C8FA6D48092108F042FCCB
:1014A00000212046FFF730F90AF024FC0B46022108
:1014B00002460091284607F0DBFA64480F2108F045
:1014C00031FC284607F0B0FA43E64E46DFF870A13B
:1014D000DFF870914FF00D081CE0013608F022FC97
:1014E0003146284607F098FA0221504608F01AFCC7
:1014F00041462046FFF74CF80AF0FCFB00970246F5
:101500000B46284607F0B4FA4F48012108F00AFCC0
:1015100008F101082046FFF727F8034643454FF03E
:1015200007014846D9DAA3E74E46DFF814A1DFF8F1
:1015300014914FF00D081CE0013609F01FFF3146F1
:10154000284607F069FA0221504609F017FF414684
:101550002046FFF71DF80AF0CDFB009702460B4628
:10156000284607F085FA3848012109F007FF08F1FD
:1015700001082046FEF7F8FF034643454FF00701F8
:101580004846D9DAC0E6DFF8BC90DFF8B4A04FF0E7
:1015900019081CE0013609F0F1FE3146284607F033
:1015A0003BFA0221504609F0E9FE41462046FEF78B
:1015B000EFFF0AF09FFB009702460B46284607F014
:1015C00057FA2148012109F0D9FE08F10108204607
:1015D000FEF7CAFF034643454FF007014846D9DAF4
:1015E0009FE6DFF86090DFF858A04FF019081CE084
:1015F000013608F097FB3146284607F00DFA022124
:10160000504608F08FFB41462046FEF7C1FF0AF026
:1016100071FB009702460B46284607F029FA0A4854
:10162000012108F07FFB08F101082046FEF79CFF2E
:10163000034643454FF007014846D9DA25E700BF86
:1016400068320100FC310100F83101000432010070
:10165000143201002DE9F04F87B000F50675DFF870
:101660002492DFF824A20391049298462E46012783
:101670000595934604E001373F2F06F5F07675D0C7
:101680003046FFF74FF80028F5D000230A220399CF
:10169000484607F0E1F90121504609F06FFE58462F
:1016A0000AF028FB0B46002102460091484607F04D
:1016B000DFF90121504609F061FE4146484607F036
:1016C000ABF90121504609F059FE3946484607F06A
:1016D000A3F90121504609F051FE002402252146BC
:1016E0003046FEF755FF0AF005FB009502460B4613
:1016F000484607F0BDF901340121504609F03EFE8D
:10170000082CECD100213046FEF7FEFF0AF0F2FA79
:10171000009502460B46484607F0AAF901215046BB
:1017200009F02CFE01213046FEF7EEFF0AF0E2FA46
:10173000009502460B46484607F09AF901215046AB
:1017400009F01CFE02213046FEF7DEFF0AF0D2FA55
:10175000009502460B46484607F08AF9013748468D
:1017600007F062F93F2F06F5F07689D1059D474FC6
:10177000DFF8149101264FF0000B04E001363F2EF4
:1017800005F5F0757AD02846FEF7CCFF0028F5D095
:1017900000230A220399384607F05EF901214846E2
:1017A00008F0C0FA04980AF0A5FACDF800B0024695
:1017B0000B46384607F05CF90121484608F0B2FABA
:1017C0004146384607F028F90121484608F0AAFAB0
:1017D0003146384607F020F90121484608F0A2FAC0
:1017E00000244FF0020A21462846FEF7D1FE0AF0F7
:1017F00081FACDF800A002460B46384607F038F9CA
:1018000001340121484608F08DFA082CEBD1002163
:101810002846FEF779FF0AF06DFACDF800A00246DF
:101820000B46384607F024F90121484608F07AFAB9
:1018300001212846FEF768FF0AF05CFACDF800A007
:1018400002460B46384607F013F90121484608F0D6
:1018500069FA02212846FEF757FF0AF04BFACDF845
:1018600000A002460B46384607F002F9013638461A
:1018700007F0DAF83F2E05F5F07584D107B0BDE822
:10188000F08F00BF0C88FF1F20320100AC87FF1FC4
:10189000014B1870704700BF2087FF1F2DE9F047EC
:1018A0008446007882B0164690B1DFF82083DFF8D6
:1018B0002093C84F0D46252819D09CF80000644697
:1018C00096B909F0DFFD607804F1010C0028F2D12F
:1018D000002E40F0CC80C04802B0BDE8F04707F0D1
:1018E000A3B82520002EECD008F0A0F9EBE79CF877
:1018F00001000CF101040028EAD0A0F12503552BCA
:10190000DED801A252F823F0E3180000C11800004D
:10191000C1180000C1180000C1180000C118000063
:10192000C1180000C1180000C1180000C118000053
:10193000C1180000C1180000C1180000C118000043
:10194000C1180000C1180000C1180000C118000033
:10195000C1180000C1180000C1180000C118000023
:10196000C1180000C1180000C1180000C118000013
:10197000C1180000C1180000C1180000531B00006E
:10198000C1180000C1180000C1180000C1180000F3
:10199000C1180000C1180000C1180000C1180000E3
:1019A000C1180000C1180000C1180000C1180000D3
:1019B000C1180000C1180000C1180000C1180000C3
:1019C000C11800003B1B0000C1180000C118000036
:1019D000C11800001F1B0000C1180000C118000042
:1019E000C1180000C1180000C1180000C118000093
:1019F000C1180000C1180000C11800000B1B000036
:101A0000611A0000611A0000C1180000D91A000014
:101A1000C1180000C1180000611A0000C1180000C0
:101A2000C1180000611A0000C1180000C1180000B0
:101A3000C1180000C1180000C1180000C118000042
:101A4000A11A0000871A0000C1180000C118000088
:101A5000C1180000C31A0000C1180000F11A0000EC
:101A60005EB955F8041B5C4806F0D6FF2BE75B48CF
:101A700002B0BDE8F04706F0D7BF55F8041B574841
:101A800006F0CAFF1FE755F8041B002E40F0C28085
:101A900001290EBF52480121384609F06FFC12E7B8
:101AA00055F804AB002E40F0A980BAF1000F3FF4C6
:101AB0000AAF50460BF004FD0146504609F05EFCAB
:101AC00001E7002E40F0928055F8041B424833464F
:101AD000102206F0C1FFF6E6073525F007050321C1
:101AE00066B9F5E802233C48009106F0C1FFEAE63A
:101AF000073525F00705002E61D00021F5E8022307
:101B00003648009106F0B4FFDDE6002E4FD155F8BF
:101B1000041B31483346022206F09EFFD3E6002E16
:101B200039D102212F4809F029FC55F8041B2A4815
:101B30003346102206F090FFC5E655F8043B0EBB75
:101B4000012B07BF042148460521404609F016FC39
:101B5000B9E65EB90221244809F010FC55F8041BCF
:101B60001D483346022206F077FFACE61E480221EC
:101B700008F0D8F855F8041B18480023022206F094
:101B80006BFFA0E6012B07BF042148460521404614
:101B900008F0C8F897E61348022108F0C3F855F892
:101BA000041B0E480023102206F056FF8BE655F862
:101BB000041B0A480023022206F04EFF83E6F5E8E4
:101BC00002230548009606F053FF7CE63C320100F4
:101BD00034320100303201000C88FF1FAC87FF1F38
:101BE0002C320100243201002832010055F8041B78
:101BF0000C480023102206F02FFF64E6BAF1000F14
:101C00003FF461AE50460BF05BFC0146504608F0D5
:101C100089F858E601290EBF03480121384608F02B
:101C200081F850E6AC87FF1F2C3201000EB400B5DE
:101C300082B003A9024651F8040B0191FFF72EFE72
:101C400002B05DF804EB03B0704700BF30B4074D3D
:101C5000074C084900232B702360036530BC4365A3
:101C6000836580F85C300B60704700BF948FFF1F66
:101C7000908FFF1F988FFF1FDDF800C0521AACEB4A
:101C8000030C1CD0401ABCF1000F0CFB00F002EB5F
:101C9000D27109DB00EB610000FB02F1002990FB2F
:101CA000F2F0184410DB7047A0EB610000FB02F17A
:101CB000002990FBF2F01844F5DB013070470CEB83
:101CC000DC7C03EB6C007047013870472DE9F8436A
:101CD0004A494B4F4B4CDFF830810020FFF7A6FFFD
:101CE0004A4B4B48DF6200271F634A4FDC605F634B
:101CF000494C4A4F1C6140F20129494C9F63A3F8AB
:101D00000890484F5C614FF00C09474C5F60C3F886
:101D10005090464F5C6240F61C49454C1F6240F2B1
:101D200012254FF07C57C3F868904FF00A091D80C8
:101D30009C614FF496753F4C5F64C3F86C903E4FC6
:101D4000D86141F204090022012141F288369C62E7
:101D5000D86364243220DD655D669F640225374FB9
:101D6000C3F870904FF05A0983F8402059659A677C
:101D700018669C65DF64A3F8CE60C3F87490DD67D5
:101D8000C3F88020C3F8A020FF22C3F8A8200522B2
:101D9000C3F8B440C3F8980040F20114C3F8A4009B
:101DA000A3F8B8208C204FF49642254FDFF894E03A
:101DB000DFF894C0C3F8AC10A3F8C04083F8C21099
:101DC0004FF4FA74C3F8C82044F620614FF47A72D5
:101DD00083F8CC00C3F88480C3F88870C3F88CE023
:101DE000C3F89460C3F8B050C3F8BCC0A3F8C440B3
:101DF000C3F89010C3F89C20BDE8F883443201007A
:101E0000000020C166668640D606D6060CB2FF1FCB
:101E1000CDCC4C3E00002042000040400000A040DD
:101E20003333834048E80100CDCCCC3D333373409D
:101E3000CDCC4C40000082429A9979400AD7233D8C
:101E40000000684200C020449A99993E70B5454D03
:101E5000454C4648E66800232B70FEF7DFFE01463E
:101E600030460AF009FB08B104232B703F48FEF707
:101E7000ADFE21690AF000FB18B12B7843F0100386
:101E80002B703A48FEF77EFFA16A0AF013FB18B1E7
:101E90002B7843F040032B70002334486B70FEF71F
:101EA00073FFE16A0AF0E8FA08B101236B700023BE
:101EB000EB702E48FEF7B2FE06462C48FEF786FE73
:101EC000014630460AF030F8E16B0AF0F3FA08B147
:101ED0000123EB70264D254800232B70FEF79EFE54
:101EE000616A0646E0680AF01FF8014630460AF0CB
:101EF000E1FA08B104232B701C48FEF767FE616A03
:101F0000064620690AF012F8014630460AF0B4FA93
:101F100018B12B7843F010032B701448FEF732FFF2
:101F2000A16B0646A06A09F0FFFF014630460AF0A1
:101F3000C1FA18B12B7843F040032B7000236B706B
:101F40000A48FEF721FFA16B0346E06A1C4609F030
:101F5000EDFF014620460AF08FFA08B101236B70AD
:101F600070BD00BFD48FFF1F0CB2FF1FE08FFF1F9B
:101F7000E4B2FF1F2DE9F0417F4C2368012B82B0B2
:101F800049D0022B00F0C380032B03D02BB302B047
:101F9000BDE8F081794B7A4E4FF47A721A60D6F828
:101FA000A4000AF077F80546D6F8A8000AF072F8FF
:101FB000294609F0B9FF73490AF0C0F871490AF0DF
:101FC00071F9294609F0B2FF0AF07EFA01460620AF
:101FD00007F0E6F92368002BD9D1694B6A48D3F89A
:101FE000A410D3F8A82003686848521A002A02FBFC
:101FF00003F3C0F2B280323380FB0320DA17C2EB66
:102000006012002B1144C0F2B480062002B0BDE87B
:10201000F04107F0C5B9594F38680A30B0F57A7FFA
:1020200000F3968038600AF035F859490AF086F8CE
:102030008046534ED6F8A4000AF02CF80546D6F890
:10204000A8000AF027F8294609F06EFF41460AF079
:1020500075F84C490AF026F9294609F067FF0AF09D
:1020600033FA0146062007F09BF90221494809F09E
:1020700085F9494806F0D8FC0621484809F07EF960
:1020800038680AF007F842490AF058F809F032FEB9
:102090004FF0020802460B463F48CDF8008006F09C
:1020A000E7FC0D213E4809F069F9D6F8A40009F0D3
:1020B000F1FF0546386809F0EDFF35490AF03EF8B2
:1020C0000346D6F8A8001E4609F0E4FF294609F0A9
:1020D0002BFF014630460AF031F82A490AF0E2F8AF
:1020E000294609F023FF09F005FECDF800800B46D4
:1020F0000246294806F0BCFC4146264809F03EF954
:10210000254806F091FC2368022B7FF43DAF1B4B62
:102110001B4E00221A60D6F8A40009F0BBFF05464A
:10212000D6F8A80009F0B6FF294609F0FDFE002107
:102130000AF004F813490AF0B5F8294609F0F6FE4A
:102140000AF0C2F90146062007F02AF923681BE7C6
:1021500000234FF000083B606BE7323B80FB03201D
:10216000DA17C2EB6012002B1144FFF64EAF0131BB
:102170004BE7013949E700BF18B1FF1FC88FFF1FA8
:102180000CB2FF1F0000C8422487FF1F1F85EB51C0
:10219000CDCCCC3DA42E01000C88FF1F6432010081
:1021A0006C32010070B5B248B24C06F03DFCB0484C
:1021B00006F03AFCAE4806F037FCAF480D2109F0B6
:1021C000DDF8D4F8A030012B11D0AC4CA848217810
:1021D00000230A2206F040FC2378052B4ED8DFE8C6
:1021E00013F0020107010C0111011601F800092189
:1021F000A34809F0C3F8A348FEF7E8FC21690AF0F8
:102200003BF9002840F02A819E48FEF707FDE1686F
:102210000AF050F9002840F067819A48FEF7FEFC6A
:1022200005469848FEF7D2FC0146284609F07CFE98
:10223000E16B0AF03FF9002840F015819148FEF764
:1022400045FDA16A0AF036F9002840F057818D4813
:10225000FEF73CFDE16A0AF00FF9002840F04981E1
:10226000894B88481B68012B00F0E880FEF7AEFC24
:1022700021690AF01FF9002840F0CE80022183482E
:1022800009F07CF8122007F02DFA012800F09C805C
:10229000112007F027FA012800F091807C4B1B6881
:1022A000012B00F08780022178487A4C09F066F80B
:1022B000794B6F48196806F0AFFB6D4806F0B4FB28
:1022C0000421764809F05AF80B2007F00BFA002396
:1022D00001460A22664806F0BFFB0C2007F002FA0E
:1022E000002301460A22624806F0B6FB142007F0DC
:1022F000F9F9002301460A225D4806F0ADFB1520DE
:1023000007F0F0F90A2201460023594806F0A4FB21
:102310000621634809F032F82368D8074BBF012132
:1023200001216048604809F029F8236899074BBFEC
:10233000012101215B485C4809F020F823685A0715
:102340004BBF012101215748574809F017F823686E
:102350001B074BBF012101215248534809F00EF8D9
:102360000421524809F00AF8112007F0BBF90023B4
:1023700001460A223E4806F06FFB102007F0B2F932
:10238000002301460A223A4806F066FB122007F0B5
:10239000A9F9002301460A22354806F05DFB132007
:1023A00007F0A0F9BDE870400146002330480A223A
:1023B00006F052BB11213E4808F0E0FF73E70A2106
:1023C0003C4808F0DBFF69E70E213B4808F0D6FFE8
:1023D0005EE70721394808F0D1FF394B24481968D6
:1023E00006F01AFB4AE70621364808F0C7FF45E722
:1023F0000721354808F0C2FF40E70721334808F0BD
:10240000BDFF3BE70821324808F0B8FF36E70B2153
:10241000304808F0B3FF31E71A48FEF7FFFBE168E8
:102420000AF02AF800283FF429AF144B1B78052B3B
:1024300069D10A21284808F0A1FF1FE7FEF7C6FB73
:10244000216A0AF037F800285DD01621234808F0E9
:1024500095FF0A21204808F091FF0FE70F2120483F
:1024600008F08CFFD0E611211E4808F087FFE5E652
:102470000C88FF1F0CB2FF1F7C32010008B0FF1F49
:102480008C320100E08FFF1FDCB2FF1FA42E010081
:10249000DC8FFF1FECB0FF1F74B0FF1F84330100FF
:1024A0008C33010094330100983301009C33010008
:1024B0007033010064330100543301004C330100D8
:1024C000B08FFF1F1C33010024330100383301009B
:1024D000403301002C33010004330100EC320100D1
:1024E00098320100B83201000E21094808F046FF79
:1024F00093E60D21074808F041FFB1E60C2106489C
:1025000008F03CFFA3E60821044808F037FFB5E6D1
:10251000A8320100DC320100CC320100103301008E
:102520002DE9F047B44CE66F012E8CB000F04381EA
:10253000032E5BD0DFF8C482B14FB24EA36FB24816
:10254000012B09BF3168316801F10041316005F0AC
:10255000D9FE3B68002B40F01481AB4805F0A6FE85
:102560003B68C8F800000546002B40F0FA80E36F96
:10257000012B00F0BA80A549284609F09BFF30B92D
:10258000A349284609F078FF002800F0E081DFF831
:1025900084A2DFF88492DAF800300A930A98D9F816
:1025A00000309E4FC01A09F071FD294609F0C6FDA2
:1025B0009B4909F077FE9A4909F074FE396809F0E1
:1025C000B5FCDAF800300993099B3860C9F800308F
:1025D000D4F8AC0009F05EFD294609F0AFFD0023F8
:1025E000C8F8000033600CB0BDE8F0878D4D8E4F09
:1025F0002A68DFF80882D2F8840001230F213B60AB
:1026000005F03EFD3B687E4F012B3B6800F02C81BE
:10261000002B40F0AF812B68DFF81092D3F88400D4
:10262000436B1E69B6B2C9F8006005F071FAB4F8E0
:10263000862040F6E44306FB03F3B3FBF0F0801A78
:1026400000B209F027FD7A490646D4F8880009F05F
:1026500075FD0146304609F025FED9F80030694E77
:10266000632B306000F37A81002333603B68002BDA
:102670003FF464AF02216F4808F080FE2B68D9F860
:102680000050D3F8840040F6E44303FB05F505F061
:102690003FFAB5FBF0F009F0F9FC0546B4F8860006
:1026A00009F0F8FC0146284609F03EFC09F022FB3F
:1026B000022502460B4600955F4806F0D9F92946E7
:1026C0005C4808F05BFE306809F014FB0095024698
:1026D0000B46594806F0CCF92946584808F04EFEFA
:1026E0002946544808F04AFE28E74F4B1B68012B47
:1026F00000F07581022B7FF46BAFD4F890703846F0
:1027000009F0C8FC294609F0B7FE40B9784209F043
:10271000C1FC294609F0CEFE002800F0CD81DFF88B
:10272000F4A0DFF8F490DAF8003007930798D9F8AE
:1027300000303A4FC01A09F0A9FC294609F0FEFC06
:10274000374909F0AFFD364909F0ACFD396809F0A9
:10275000EDFBDAF800300693069B3860C9F80030CC
:1027600036E709F0C7FA0B460221024600913248CB
:1027700006F07EF93248042108F000FED8F8005037
:10278000F5E6214805F092FD09F0B4FA0B46022166
:1027900002460091284806F06BF90321294808F009
:1027A000EDFDD4F89010244806F036F903212548B1
:1027B00008F0E4FDD1E6DFF84480D4F89070D8F852
:1027C0000050384609F066FC294609F073FE0028DF
:1027D0003AD0784209F05EFC0146284609F06AFECC
:1027E00090B3104D104F2B683E60D3F884000F213A
:1027F00005F046FC06E700BF0CB2FF1FFCB0FF1F50
:1028000000B1FF1FC08FFF1F4CB1FF1F0000FA4334
:102810000000FAC3E0B4FF1F40B1FF1FD88FFF1FB5
:1028200000007A44D08FFF1F6887FF1FE0B2FF1FB0
:102830009175DD36A42E01000C88FF1FE0330100E6
:10284000E8330100E43301009F4FA04D02233B60B9
:102850002B680E21D3F8840005F012FC3B689C4FD6
:10286000012B3B687FF4D4AE002B40F0E5802B6851
:10287000DFF86092D3F88400436B1E69B6B2C9F8E2
:10288000006005F045F9B4F8843040F6E44A0AFBEC
:1028900006F6B6FBF0F6F01A00B209F0FBFB8E4923
:1028A0000646D4F88C0009F049FC0146304609F090
:1028B000F9FC2B68894E0246D3F88400D9F8003021
:1028C00032600AFB03FA05F023F9B4F88420BAFB5E
:1028D000F0F31BB29B1A002BB4F8B820B8BF5B42D0
:1028E0009A42C4BF002333603B68002B3FF426AEFE
:1028F00002217B4808F042FD2B68D9F80050D3F83C
:10290000840040F6E44303FB05F505F001F9B4F853
:102910008410B5FBF0F52DB2691A724806F07CF808
:1029200002216F4808F02AFD306809F0E3F902251A
:1029300002460B4600956B4806F09AF803216A4858
:1029400008F01CFD2946664808F018FDF6E5674BBF
:102950001B680B93664B0B9A1A6039E62B68D3F809
:10296000840005F0D5F8D9F8003064389842FFF4B7
:102970007BAE7BE65B48DFF85C9106F055F80C21F6
:102980005C4808F0FBFC5C480C2108F0F7FC2B6865
:102990003A68D3F88400436B1E69B6B2C9F8006088
:1029A000002A3FF442AE05F0B3F840F6E4420023BB
:1029B00006FB02F2B2FBF0F10A224A4806F04CF89C
:1029C0000221474808F0DAFCB4F88610454806F0C2
:1029D00023F82B68D9F80060D3F8840025E647492E
:1029E000284609F067FD28B94549284609F044FD05
:1029F00000285AD0DFF8F4A0DFF8F490DAF80030BD
:102A000004930498D9F800303E4FC01A09F03EFBF9
:102A1000294609F093FB3C4909F044FC3A4909F086
:102A200041FC396809F082FADAF800300393039B1D
:102A30003860C9F80030CBE52A48DFF8989005F0F7
:102A4000F3FFE36F012B0CBF304831480B2108F036
:102A500095FC29480C2108F091FC2A683B68D2F8C3
:102A60008400426B1669B6B2C9F80060002B3FF4CF
:102A700008AF05F04DF840F6E44306FB03F30A22E5
:102A8000B3FBF0F10023174805F0E6FF01212148D0
:102A900008F074FCB4F88410124805F0BDFF2B68F0
:102AA000D9F80060D3F88400EBE6104B1B6805935F
:102AB0000F4B059A1A608BE50C4B1B6808930C4B67
:102AC000089A1A6084E500BF6887FF1FD08FFF1F38
:102AD00000B1FF1FE0B2FF1F9175DD36C08FFF1FF1
:102AE000A42E01000C88FF1FCC330100E0B4FF1FAF
:102AF00040B1FF1FD0330100BC3301000000FA4396
:102B00000000FAC3D88FFF1F00007A44A4330100ED
:102B1000B0330100C02E01002DE9F0478C4D2B6829
:102B200084B0002B7BD08B4C8B4E8C4FDFF83082E7
:102B3000D4F88030012B00F08C80D7F80090A56D80
:102B4000D4F854A00AFB05F54FF47A7005FB00F0A9
:102B500009F0A0FA83490546484609F0EFFA2946EC
:102B600009F0A0FB804909F0E9FA09F0ADFC6328FF
:102B7000306049DD7B49284609F094FB64233360CB
:102B8000D8F800303860002B46D0E36F012B00F0FE
:102B90008280032B00F08C80022B00F091800221B8
:102BA000724808F0EBFB724B186809F0A3F8022496
:102BB00002460B4600946F4805F05AFF21466E48C6
:102BC00008F0DCFB2146694808F0D8FB3168694809
:102BD00005F022FF0621694808F0D0FB38686149FA
:102BE00009F0ACFA09F086F8009402460B466148F9
:102BF00005F03EFF0321624808F0C0FB5D4804B0C9
:102C0000BDE8F04705F010BF0028BCBF00233360CB
:102C1000D8F80030002BB8D104B0BDE8F087594E89
:102C20004C4C32680292029A42F228339A4200F2E5
:102C3000888033680393039A42F210739A4244D80F
:102C4000D4F88030444E454FDFF81481012B7FF4D7
:102C500074AF4D48FEF79AF84C4909F06FFA09F045
:102C600059FC656FE36E226FA16E009580B2FFF78D
:102C700003F8A56DD4F854A005FB00F00AFB00F0A2
:102C800000EB8000400009F005FA364909F00AFB24
:102C90008146386056E73E4B1B68012B0CBF3D4810
:102CA0003D480A2108F06AFBE36F032B7FF474AF01
:102CB0003A48102108F062FBE36F022B7FF46FAFFC
:102CC0000721374808F05AFB69E72F48DFF8908062
:102CD000FEF75CF82D49266FE76E09F02FFA09F030
:102CE00019FC3246666FA16E00963B4680B2FEF735
:102CF000C3FF194EA36D306003FB00F0636D174FE7
:102D000003FB00F000EB8000400009F0C3F9154917
:102D100009F0C8FAD8F80030386001222A60002B88
:102D20003FF406AF0221114808F028FB114805F0D6
:102D30007BFE59211B4808F021FB0E4805F074FE6C
:102D4000F6E6626C94F840100F48FDF791FF70E7CB
:102D5000C48FFF1F0CB2FF1F2487FF1FD88FFF1FD8
:102D60004487FF1FE4388E3E0000C842A42E0100B5
:102D7000FCB0FF1F0C88FF1FE0330100803401000E
:102D800088340100E0B4FF1FE08FFF1F00007A4489
:102D90006887FF1F4C34010058340100643401007F
:102DA00078340100F033010030B5112083B006F013
:102DB00099FC012804D0122006F094FC012822D1AD
:102DC0000121152006F068FC2A4B2B4A2B4C1B686E
:102DD0002B4D116801930222D4F894302A60019A95
:102DE0000B44934208D8D4F89C0009F053F9254BC2
:102DF000196809F041FBD0B101210C2003B0BDE8F6
:102E0000304006F049BC00210B2006F045FC0021B3
:102E10000C2006F041FC0021152006F03DFC1A496B
:102E2000174B0120002208701A6003B030BD012149
:102E30000B2006F031FC94F8C03003242C604BB119
:102E4000114B02221A7000210C2003B0BDE8304063
:102E500006F022BC122006F045FC012808BF0A4BF0
:102E60004FF0110008BF1C7006F03CFC0128EAD1AD
:102E7000E6E700BFE0B4FF1FB88FFF1F0CB2FF1FD3
:102E8000E8B0FF1FFCB0FF1F08B0FF1FF0B5754E84
:102E9000754C33682568AB4287B02CD013F0010124
:102EA0004AD013F002015ED013F0040150D0DA07CB
:102EB0000FD52268D7070CD46C4D2A68002A00F081
:102EC000AE806B4B1B680193019B934200F29A808A
:102ED00033689D0712D4590720D5226852070BD4B6
:102EE000644F3A68002A5ED0614B1B680593059BCE
:102EF000934276D83568A5B107B0F0BD2268900737
:102F00003DD45D4D2A68002A3CD0594B1B68039381
:102F1000039B9A4258D333685907DED41D46002DCF
:102F2000EAD12946162006F03BFA2946172007B0B9
:102F3000BDE8F04006F034BA162006F031FA2268F7
:102F4000336802F0FE0213F002012260ACD10AE005
:102F5000052006F025FA2268336802F0FB022260A1
:102F6000DA07B6D5A5E7172006F01AFA2268336803
:102F700002F0FD0213F00401226098D1E8E75B073C
:102F8000ACD4B9E73D4B1B68002B55D1FF2117206E
:102F900006F006FA364B3A491A680292029A096814
:102FA0000A442A60B2E7354B1B68002B4FD1FF2142
:102FB000052006F0F5F92E4B31491A680492049A5F
:102FC00009680A443A6090E72E4B1720D3F898100E
:102FD00006F0E6F92368002243F0020323602A602A
:102FE00099E7284B0520D3F8981006F0D9F9236803
:102FF0003568002243F0040323603A60002D7FF41B
:103000007BAF8EE71F4B1620D3F8981006F0C8F957
:103010002368002243F0010323602A6058E7FF2160
:10302000162006F0BDF9124B15491A680092009A55
:1030300009680A442A6045E7134805F0F5FC0C21AD
:10304000124808F09BF9104805F0EEFC9EE70E4888
:1030500005F0EAFC0C210E4808F090F90A4805F04A
:10306000E3FCA4E7E8B0FF1FECB0FF1FF0B0FF1FC8
:10307000E0B4FF1FF8B0FF1FF4B0FF1F4487FF1F2D
:103080006087FF1F0CB2FF1F0C88FF1F8C340100EC
:103090009C3401002DE9F84F534EDFF850A13368FE
:1030A000DFF84C91D3F88400524D0F2104F0E8FF73
:1030B0000123CAF80030504800232221C9F800300B
:1030C00008F05CF9D9F80030132B21DC4B4F40F6A7
:1030D000E4483368B5F884B0D3F88400436B1C69C6
:1030E00004F016FDA4B2012108FB04F4B4FBF0F4D3
:1030F0003846A344A5F884B008F040F9642006F0EF
:103100005BFBD9F800300133132BC9F80030E0DD48
:10311000B5F884303A493B48A1FB03215B1A01EB27
:103120005301C1F30F11A5F8841005F075FC1D21A2
:10313000354808F023F90221344808F01FF93148D6
:1031400005F072FC00220E213068C9F8002004F05E
:1031500089FC02232848CAF80030222108F00EF921
:10316000D9F80030132B22DCDFF8908040F6E447DA
:103170003368B5F886A0D3F88400436B1C6904F06B
:10318000C7FCA4B2012107FB04F4B4FBF0F44046F1
:10319000A244A5F886A008F0F1F8642006F00CFB24
:1031A000D9F800300133132BC9F80030E0DDB5F851
:1031B000863013491348A1FB03215B1A01EB53012D
:1031C000C1F30F11A5F8861005F026FC1D2110484B
:1031D00008F0D4F80D48022108F0D0F8BDE8F84F07
:1031E000084805F021BC00BFD08FFF1F6887FF1F74
:1031F000E8B2FF1F0CB2FF1FAC340100D034010055
:10320000876118860C88FF1FD4340100A42E0100AA
:10321000F43401005D4B70B51B685D4C5D4E40F2AF
:1032200051310822306D2160E271002B40F0AA80FC
:1032300008F030FF7169054608F080FF564908F034
:103240007DFF09F067F9C2B22272544AB169C0F336
:103250000723637213886381514B28461B88A3811F
:1032600008F06CFF4C4908F069FF09F053F9484930
:1032700003464C48E38104F0D1F94B4A49481368AE
:1032800012882281494A03EB830308255B001288D8
:10329000628140F2553143FA05F2216000263C4933
:1032A00062732373E571E68104F0B8F940F2563396
:1032B0003F482360E571FDF7D7FC3E4908F03EFF2B
:1032C00009F028F903463A482372FDF7CDFC394945
:1032D00008F034FF09F01EF9374A3649C0F30723D6
:1032E0001068637208F0DEFF09F0EEF8034630481C
:1032F0006381FDF7EBFC284908F020FF09F0E4F8B2
:1033000003462B482373FDF7E1FC234908F016FF21
:1033100009F0DAF840F307201D4960732148E6817F
:1033200004F07CF9022006F047FA244A244B126884
:103330001B681749A26040F25A3020601948E360C8
:10334000E57104F06BF91F4B1149E571D3E90023D6
:1033500040F25E3020601348A260E36004F05EF942
:10336000022006F029FA184BE571D3E900234FF447
:103370005C712160A260E36005490A48BDE87040C5
:1033800004F04CB908F086FE316A54E7DCB2FF1F46
:1033900074B1FF1F0CB2FF1F0000204178B0FF1F67
:1033A00004B1FF1FECB2FF1F2487FF1F2887FF1FF8
:1033B000E08FFF1F0000C842FCB0FF1FD48FFF1F2B
:1033C000E4B2FF1F3487FF1F2C87FF1F38B5174C4F
:1033D000174B2268181D13F8011F984241EA022278
:1033E000F9D1144B144DDB6F226002F10040022B27
:1033F000286004D0114B1B68012B0AD038BD08F09F
:1034000049FE0F4C2060FFF78BF80C4B1B68012B1B
:10341000F4D10C4805F008FB29680A4805F0FCFACD
:10342000BDE838400848032107F0A8BF30B1FF1FAE
:1034300027B1FF1F0CB2FF1F9C8FFF1F70B0FF1F33
:10344000C08FFF1F0C88FF1F14350100F0B53D4CE5
:103450003D4883B0214604F025F8236840F2C2328B
:10346000934258D0A3F58C621F2A4ED9A3F5FC6372
:103470000F2B45D9354B1B68012B01D003B0F0BD94
:10348000334B1B68012BF9D1324B33481B68019336
:10349000019900230A2205F0DFFA2268E3792F4818
:1034A000002AB6BF2E492F4922F0604209F0E6FDFE
:1034B0002A480AF005F80146284807F05FFF25680A
:1034C00015F080452BD1E379A3B1274F234E2B462E
:1034D000234439461A7A304609F0D0FD304609F0C7
:1034E000EFFF0146304607F049FF0135E279EBB2C4
:1034F0009A42EDD8184803B0BDE8F04005F094BA00
:1035000010491A48FDF78AF9B4E70E491748FDF744
:1035100085F92368AAE7FFF759FF2368A2E7144D4E
:103520000E4C0FCD0FC495E8030044F8040B204661
:1035300020F8141909F0C4FF0146A4F1140007F0A3
:103540001DFFD7E720B1FF1FECB2FF1F4487FF1F0D
:1035500070B0FF1FE0B4FF1F0C88FF1F84B1FF1F76
:1035600018350100403501006C350100E08FFF1F68
:10357000543501002DE9F84F744B1B78052B06D10B
:103580007349744A00230B601360BDE8F88F724CD6
:103590006F4E704D626EE36D704832602B60FDF7C8
:1035A000F3FBE16A08F068FF08B100232B606B4869
:1035B000FDF7E8FBA16A08F07DFF10B1002333603E
:1035C0002B606648FDF72AFBE16808F073FF08B13D
:1035D00000232B606148FDF721FBE16808F06AFFDA
:1035E00008B100232B605D48FDF7F0FA216908F06F
:1035F00043FF002800F0B680002333602B68002BC7
:103600000CDC3368002BB7BF2B682B6800223260BC
:10361000002BBCBF00232B60BDE8F88F4F48FDF79F
:10362000B1FB216B08F028FF00285FD14C4B4B48C1
:103630001B68012B42D0FDF7F1FAE169074660698A
:1036400008F072FC0146384608F034FF0028D8D054
:10365000286808F01FFD81464048FDF7DFFAD4F8DE
:1036600014A08346E169504608F05EFC8046206E57
:1036700008F010FD0746E06D08F00CFD394608F033
:1036800053FC41460446584608F04EFC014620468D
:1036900008F054FD41460446504608F045FC0146FA
:1036A000204608F0FFFD394608F040FC0146484638
:1036B00008F03AFC08F008FF2860A2E7FDF7AEFA30
:1036C000E1690746206A08F02FFC0146384608F0F9
:1036D000F1FE002895D0286808F0DCFC81461F48E0
:1036E000FDF79CFAD4F820A08346BBE7286808F0D1
:1036F000D1FC80461948FDF745FB8146E06DD4F8C2
:103700002CA008F0C7FC51460746484608F00CFCC0
:1037100039468146002008F007FC0146484608F07B
:103720000DFD51468146206B08F0FEFB01464846E0
:1037300008F0B8FD394608F0F9FB0146404608F0AC
:10374000F3FB08F0C1FE286070E700BF08B0FF1F60
:1037500004B1FF1F78B0FF1F0CB2FF1FE08FFF1FE7
:10376000DCB2FF1F4848FDF731FAA16908F084FE7A
:1037700000287FF441AF3368002B7FF73FAF42480A
:10378000FDF702FB616B08F095FE002852D13E4820
:10379000FDF71CFA216908F08DFE40B93A48FDF7A3
:1037A00015FAA16908F086FE00283FF427AF3648D5
:1037B000FDF70CFAD4F8BC100746A06908F0B6FB78
:1037C0000146384608F058FE00283FF417AF30682D
:1037D00008F060FC80462C48FDF7F8F98146606EE1
:1037E000D4F818A008F056FC51460746484608F0A1
:1037F0009BFB39468146002008F096FB014648466F
:1038000008F09CFCD4F8BC108146504608F08EFBB2
:10381000514608F089FB0146484608F043FD394609
:1038200008F084FB0146404608F07EFB08F04CFEA1
:103830003060E3E6306808F02DFC07461248FDF7DB
:10384000A3FA8146606ED4F834A008F023FC5146F8
:103850008046484608F068FB0146404608F06EFC8A
:1038600051468046A06A08F05FFB0146404608F0DA
:1038700019FD002108F05AFB0146384608F054FBB8
:1038800008F022FE306082E7E08FFF1F08B528486D
:1038900005F0CAF82748072107F070FD112005F050
:1038A00021FF00B32448062107F068FD122005F02F
:1038B00019FF08B32148062107F060FD122005F02A
:1038C00011FF10B31E48062107F058FD132005F024
:1038D00009FF18B31B48062107F050FDBDE808405A
:1038E000134805F0A1B81848062107F047FD12203B
:1038F00005F0F8FE0028DDD11448062107F03EFD52
:10390000122005F0EFFE0028DCD11148062107F057
:1039100035FD132005F0E6FE0028DBD10D48062119
:1039200007F02CFDBDE80840014805F07DB800BF58
:103930000C88FF1F783501008035010090350100AB
:10394000A0350100B035010088350100983501002F
:10395000A8350100B835010010B5294C2368042BA7
:1039600026DC01210B2005F097FE01210C2005F03B
:1039700093FE0121142005F08FFE0121152005F092
:103980008BFEFF21162005F00BFDFF21172005F00F
:1039900007FDFF21052005F003FDFF21062005F0AE
:1039A000FFFC236801330A2BC8BF0023236010BD2E
:1039B00000210B2005F070FE00210C2005F06CFEAC
:1039C0000021142005F068FE0021152005F064FE9A
:1039D0000021162005F0E4FC0021172005F0E0FC92
:1039E0000021052005F0DCFC0021062005F0D8FCB4
:1039F000236801330A2BC8BF0023236010BD00BF1A
:103A000008B2FF1F70B5BA4882B0092106F08AF9E2
:103A1000222006F00BF9B74BD3F8A030012BB64BA0
:103A20001B7809D0052B10D8DFE813F048014D01B1
:103A30005201570143010B00002B00F05381052B6D
:103A400003D1AE48072106F06DF9222006F0EEF80A
:103A5000FF2006F0EBF8FF2006F0E8F8A84CFF2066
:103A600006F0E4F8A748082106F05CF92168A648AA
:103A700004F0D2FFFF2006F0D9F8FF2006F0D6F8B8
:103A8000FF2006F0D3F8A148092106F04BF9216880
:103A90009D4804F0C1FFFF2006F0C8F8FF2006F0A3
:103AA000C5F8FF2006F0C2F899480C2106F03AF953
:103AB000984B9949186808F0F5FB08F01BF90024A9
:103AC00002460B460094904804F0D2FFFF2006F017
:103AD000ADF8FF2006F0AAF8FF2006F0A7F80921AC
:103AE0008E4806F01FF98E48FDF7F0F808F002F94D
:103AF000009402460B46844804F0BAFFFF2006F00B
:103B000095F8FF2006F092F8FF2006F08FF80C21C0
:103B1000844806F007F98248FDF736F908F0EAF81C
:103B2000009402460B46784804F0A2FFFF2006F0FE
:103B30007DF8FF2006F07AF8FF2006F077F80D21D7
:103B4000794806F0EFF87648FDF71CF908F0D2F84E
:103B5000009402460B466C4804F08AFFFF2006F0F2
:103B600065F8FF2006F062F8FF2006F05FF80921F3
:103B70006E4806F0D7F86A48FDF776F86C4908F009
:103B8000DDFA08F0B7F8009402460B465E4804F0F0
:103B90006FFFFF2006F04AF8FF2006F047F8FF20ED
:103BA00006F044F80C21634806F0BCF85C48FDF7C9
:103BB0000DF8614908F0C2FA08F09CF8009402463A
:103BC0000B46514804F054FFFF2006F02FF8FF2069
:103BD00006F02CF8FF2006F029F80D21574806F0D2
:103BE000A1F84F48FDF71AF8534908F0A7FA08F072
:103BF00081F8009402460B46434804F039FFFF2049
:103C000006F014F8FF2006F011F8FF2006F00EF879
:103C10000E214B4806F086F84148FCF7FFFF0546A9
:103C20003F48FCF7D3FF44490646284608F086FA89
:103C300041490546304608F081FA0146284608F019
:103C400073F908F057F8009402460B462E4804F02A
:103C50000FFFFF2005F0EAFFFF2005F0E7FFFF2040
:103C600005F0E4FF37480C2106F05CF8364B264897
:103C7000196804F0D1FEFF2005F0D8FFFF2005F001
:103C8000D5FFFF2005F0D2FF3048092106F04AF8A1
:103C90002F4B1D48196804F0BFFEFF2005F0C6FF3A
:103CA000FF2005F0C3FFFF2002B0BDE8704005F023
:103CB000BDBF28480B2106F035F8C6E62648062188
:103CC00006F030F8C1E62548072106F02BF8BCE6DF
:103CD0002348072106F026F8B7E62248082106F017
:103CE00021F8B2E62048082106F01CF8ADE600BF36
:103CF000C03501000CB2FF1F08B0FF1F4C3301009C
:103D00002487FF1FD8350100AC87FF1FE435010071
:103D1000F0350100FCB0FF1F0000C8420036010072
:103D2000E08FFF1F0C3601001C3601002C3601000D
:103D3000000020413836010000007A444836010076
:103D40005836010068360100DC8FFF1F783601000D
:103D50005087FF1F2C3301001C3301002433010066
:103D60003833010040330100CC350100F8B58B4DEC
:103D7000D5F8B030042B07D0032B33D0012B5BD008
:103D8000022B00F0CD80F8BD854C864AE388286D73
:103D9000226003F0FE0343F4006343F00103E38079
:103DA00008F078F9696908F0C9F97F4908F0C6F99F
:103DB00008F0B0FB7D4B7E4A1B68126893FBF2F360
:103DC00040BA5BBA0026208121467A486381E660CA
:103DD00003F024FCA279D5F8B03066F30002032B7F
:103DE000A271CBD16E4C286DA37240F2FF224EF629
:103DF000010322600722E271238108F04BF969690F
:103E000008F09CF9684908F099F908F083FB684AC2
:103E1000664B11681B6893FBF1F380B2020AE072F3
:103E20006373644822731B122146A37303F0F6FBED
:103E3000D5F8B030012BA3D15F4B594C19682160E4
:103E4000072280231020E271237205F04BFC00282A
:103E500000F09680594B1B68544E554F286D03EB6C
:103E600083035A00D2B2C3F3C7136372A2723368DA
:103E70003A6893FBF2F3A3731B12637308F00AF919
:103E8000696908F05BF94E4B196808F04DF846492E
:103E900008F054F908F03EFB2073C0F307204049B6
:103EA000E072444803F0BAFB022005F085FC454B64
:103EB0001B6823600723E37110208023237205F021
:103EC00011FC002868D1404B1B68286D03EB83036D
:103ED0005A00D2B2C3F3C713A272637208F0DAF8C1
:103EE000696908F02BF9394B196808F01DF82E495B
:103EF00008F024F908F00EFB2073C0F307203A689D
:103F00003368E07293FBF2F325492A48A3731A122F
:103F1000627303F083FBD5F8B030022B7FF433AF2C
:103F20001F4C2448237240F20E32226021460122A7
:103F3000E27103F073FB1D4B286D1B685B00FF2BC8
:103F40004FF00402D4BFDBB2FF234FF44171E271A2
:103F5000402221602272637208F09CF8696908F0BF
:103F6000EDF81B49054608F0A5FA58B9012290233F
:103F7000A272E3720A490F48BDE8F84003F04EBB55
:103F8000114B68E72946284607F0D0FF08F0C2FA2F
:103F9000C0F30722C3B2EBE7084B95E70CB2FF1F53
:103FA00074B1FF1FF4E506180000204178B0FF1F30
:103FB0005C87FF1FECB2FF1F3C87FF1F5887FF1F66
:103FC00080B0FF1F4087FF1F5487FF1F7CB0FF1F7B
:103FD0000000484370B5174C174A1848214604F0B2
:103FE000EDF918B1164B1B68012B00D070BD1221E2
:103FF0001448154E07F0C2F921681348134C0023EA
:10400000102204F029FD104804F00EFD04F108050B
:1040100014F8011F00230A22304604F01DFD092078
:1040200007F030FAAC42F3D1BDE87040064804F026
:10403000FBBC00BF1CB1FF1F08B1FF1F0CB0FF1F6E
:10404000A48FFF1F843601000C88FF1F07B1FF1FDC
:10405000FA2810B5044612D0B0F5FA7F1ED11448E4
:10406000102104F07BFA80B10F21124807F086F985
:10407000114804F0D9FC114BA3F8C44010BD0C4802
:104080000F2104F06BFA0028EED10D48112107F042
:1040900075F9BDE81040084804F0C6BC09480F2176
:1040A00007F06CF9BDE81040034804F0BDBC00BF48
:1040B0000CB0FF1F983601000C88FF1F0CB2FF1FC9
:1040C000A8360100BC3601002DE9F043B14B1B7846
:1040D000032B83B014D0B04D2C68022C06D00134D1
:1040E000022C2C6007DC03B0BDE8F083AB4B93F8E7
:1040F000CC00002849D100232B6003B0BDE8F08339
:10410000A64EA54DD6F8B020042A00F01281032A4D
:104110000AD0012A40F092802B68002B4BD0012B53
:1041200000F06D812C68D8E72C68002CFAD19C4FE8
:10413000306DBA704EF601033B8007F0ABFF71693A
:10414000DFF86092DFF8608207F0F8FF974907F028
:10415000F5FF08F0DFF9D8F80020D9F8003093FB1C
:10416000F2F380B27B711B12F870BB71000A072357
:104170003871009322468E480197234640F2FF2172
:1041800004F0F4F8D6F8B020C3E7854EA0233370CE
:1041900007F080FF874907F0D1FF08F0BBF9002343
:1041A000CDE900461A4670704FF4EA71804804F079
:1041B000DDF82C6893E77A4F802310203B7005F0E0
:1041C00091FA002840F05B817B4B1B68DFF8D491AB
:1041D000DFF8D481306D03EB83035A00D2B2C3F30E
:1041E000C7137B70BA70D9F80030D8F8002093FB61
:1041F000F2F3BB711B127B7107F04CFF716907F082
:104200009DFF6E4B196807F08FFE684907F096FF17
:1042100008F080F96A4B0197196838710023C0F3E0
:1042200007200722F870009261481A4604F09EF8B1
:104230002B68012B00F0E880D6F8B020022A35D197
:104240002C68002C00F0CA80012C7FF446AF544F3C
:10425000544B306D1B685B00FF2BD4BFDBB2FF23D8
:1042600040223A707B7007F015FF716907F066FF16
:104270005449044608F01EF9002800F0FD8021464C
:10428000204607F053FE08F045F9C0F30723C0B2FB
:104290000422BB7000230092F870019744481A462C
:1042A0004FF4417104F062F8D6F8B020062A7FF48A
:1042B00039AF454C306D502323600823E3714FF430
:1042C0005C43238107F0E6FE716907F037FF3D4943
:1042D000064608F0EFF8002859D03449304607F078
:1042E0002DFF08F017F9C0F30722C3B2A2722D4ABE
:1042F000E37200211068217307F0CCFE314607F00D
:104300001DFF3249064608F0B7F800283CD0304976
:10431000304607F0C7FF08F0FDF8C0F30723C0B22E
:104320000122A0732849E27363732A4803F076F9E7
:10433000F8E62C68002C7FF4F5AE306DDFF8649061
:10434000DFF86480164F07F0A5FE716907F0F6FEEE
:10435000164907F0F3FE08F0DDF8D8F80010D9F898
:10436000002092FBF1F252BA40BA7A8008223880DB
:10437000009219490E480197012223467C6003F000
:10438000F5FFD6F8B020C2E603469620C8E707221C
:10439000D023ABE708B0FF1F70B1FF1F0CB2FF1FA7
:1043A00008B1FF1F78B0FF1F5C87FF1F000020418E
:1043B0000CB0FF1F5C8FA23F5487FF1F80B0FF1F10
:1043C0003C87FF1F0000484374B1FF1F00404E456B
:1043D00000007043ECB2FF1FF4E506182A4F2B488B
:1043E0003A600423009301972346224640F20E319F
:1043F00003F0BCFF2B68012B7FF456AF28E7224F58
:10440000DFF88C90DFF88C80802310203B7005F063
:1044100069F9002835D1204B1B68306D03EB83030D
:104420005A00D2B2C3F3C713BA707B7007F032FEE2
:10443000716907F083FE194B196807F075FD18497B
:1044400007F07CFE08F066F8D8F80020D9F80030B4
:10445000144993FBF2F3BB711B12019738717B7106
:10446000C0F30720002307220968F870009207486C
:104470001A4603F07BFFDFE60123902008E70A4B92
:10448000A3E6094BC8E700BF08B1FF1F0CB0FF1F30
:1044900078B0FF1F5C87FF1F5487FF1F7CB0FF1F92
:1044A000000020414087FF1F5887FF1F10B504F010
:1044B000A1FC0B48FCF75EF90A48FDF7C7FB0A4A66
:1044C0000A4812680023012103F0D2FE942004F070
:1044D000B5FE044603F098FA054B1C6010BD00BF02
:1044E000E08FFF1F88B0FF1F4C87FF1F4CB1FF1FDD
:1044F000D08FFF1F2DE9F0434FF47A6085B005F0AF
:104500005BF90021112005F0FBF80021102005F0D7
:10451000F7F80021122005F0F3F80021132005F030
:10452000EFF801210B2005F0EBF801210C2005F03C
:10453000E7F80121142005F0E3F80121152005F02A
:10454000DFF80121162005F0DBF80121172005F026
:10455000D7F80121052005F0D3F8B04CB04F012168
:10456000062005F0CDF801210D2005F0C9F82088BE
:1045700007F08CFD0146162005F024F8208807F08E
:1045800085FD0146172005F01DF8208807F07EFD07
:104590000146052005F016F82088A24C07F076FDAC
:1045A00000250146062005F00DF89F4A9F499C48CA
:1045B00000952B4602F068FEEEB2324621463846A0
:1045C00002F00AFE237932466FF300032146384693
:1045D0000135237102F0BEFD082DEDD1DFF84482D4
:1045E0008F4F0925EEB232464146384602F0F4FDBF
:1045F0002379324643F001034146384601352371A1
:1046000002F0A8FD0D2DEDD1894C8A4F23688A4E0A
:10461000D3F88400DFF82492102103F0CDFC236846
:104620001021D3F8840003F08DFB23680221D3F816
:10463000840003F06FFA23680221D3F8840003F0AA
:1046400067FC23687E4CD3F884000F2103F018FD2B
:104650003D6840F2EE2806F097FF2378002B00F02B
:10466000B6803378D80740F1B2803B68D9F8002093
:104670009B1A0E2B40F2AB800C21724806F07EFE96
:10468000714804F0D1F91621704806F077FE6E48A3
:1046900004F0CAF94FF4E1316D4804F00BF86A48B0
:1046A00004F0C2F917216B4806F068FE664804F072
:1046B000BBF9694B5B78990600F11A81664B5B7810
:1046C0001A0700F10D81644B5B785B0700F10081F4
:1046D000614B5B789E0700F1E7805F4B1B781D06FE
:1046E00000F1EE805C4B1B785C0600F1D5805A4BE4
:1046F0001B78980600F1C880574B1B78590700F1CA
:104700008480554B1B781A0777D4534B1B789B0733
:104710006BD44D4804F088F972B6504B4CF22050DF
:104720004DF62811D8812022D981013AFDD10022ED
:104730004FF480519980DA80DA821A8892B242F07E
:10474000D3021A8062B618214548DFF8188106F0B6
:1047500015FE3D4804F068F908F1FF3408F1CF0672
:10476000C8F10105281904F07BFB04F8010FB442DD
:10477000F8D198F80030122B01D0FDF7A7FAD8F83D
:10478000C810394804F04EF80420FDF781F8374B83
:10479000002201210D201A6004F07EFFD8F8541089
:1047A0003348FCF763FAD8F8442098F840103048B2
:1047B000FCF75EFA3B68039303983A6802922D492E
:1047C0002D4B029A08601A6005B0BDE8F0833B6883
:1047D00022785B1B32B1B3F5FA6F3FF64DAF06F0AE
:1047E000D3FE38E74345FAD946E71821234806F0B7
:1047F000C5FD154804F018F98BE71921204806F08B
:10480000BDFD114804F010F97FE71C211D4806F09A
:10481000B5FD0D4804F008F973E700BF6487FF1F7A
:10482000ECB2FF1F10B1FF1F88B4FF1F48E8010062
:10483000D08FFF1FE0B4FF1FFCB6FF1F00B7FF1FA4
:10484000D8B6FF1FCC3601000C88FF1FDC360100F4
:10485000AC87FF1FF436010000F007400020054040
:10486000F83701000CB2FF1FC087FF1F3CB1FF1FCC
:10487000E08FFF1FB88FFF1FBC8FFF1FDC370100C9
:10488000C0370100A037010013211D4806F076FD56
:104890001C4804F0C9F82FE712211B4806F06EFDF2
:1048A000184804F0C1F822E71721184806F066FD01
:1048B000144804F0B9F8164B1B781D067FF512AFAB
:1048C0000E21144806F05AFD0E4804F0ADF809E731
:1048D0000E21114806F052FD0A4804F0A5F8F7E64B
:1048E0000C210E4806F04AFD064804F09DF8EAE661
:1048F00021210B4806F042FD024804F095F8DDE660
:104900008C3701000C88FF1F7837010050370100F9
:1049100000F00740683701004037010030370100E0
:104920000C37010010B5044600230A2221461A481C
:1049300004F092F8184804F077F8B4F5164F1ED03A
:1049400018D8B4F5165F25D0B4F5964F08BF0121ED
:1049500017D1124803F0D8FD114BC3F8C84005F039
:104960000FFE1048214603F05DFFBDE810400B48E4
:1049700003F022BEB4F5E13F03D10421E9E70221AF
:10498000E7E709480F2106F0F9FCBDE810400248AE
:1049900004F04AB80021DCE70C88FF1F0CB0FF1FB1
:1049A0000CB2FF1FC087FF1F14380100F0B5B74CD1
:1049B000B74E83B006F074FC23683060042B5CD0E3
:1049C000022B40F05381A0F13102422A4AD8DFE89D
:1049D00012F0640670067D069A06B706C606490000
:1049E00009074900490049004900490049004900B8
:1049F000490049004900490049004900490049006F
:104A0000490049004900490049004900490049005E
:104A1000490049004900490049004900490049004E
:104A2000490049004900490049004900490049003E
:104A3000490049004900490149004900490049002D
:104A4000490049004900490049004900490049001E
:104A50004900450049008E06712803D100237320C8
:104A600023603060732808BF002B0CBF0123002394
:104A7000002B40F08D8003B0F0BDA0F13002412A40
:104A8000F0D801A151F822F0235300002556000070
:104A90003B5600003F5600005B5600005F5600008A
:104AA000795600008F56000093560000ED5200002A
:104AB000654A0000654A0000654A0000654A00003A
:104AC000654A0000654A0000654A0000654A00002A
:104AD000654A0000654A0000654A0000654A00001A
:104AE000654A0000654A0000654A0000654A00000A
:104AF000654A0000654A0000654A0000654A0000FA
:104B0000654A0000654A0000654A0000654A0000E9
:104B1000654A0000654A0000654A0000654A0000D9
:104B2000654A0000654A0000654A0000654A0000C9
:104B3000654A0000654A0000654A0000654A0000B9
:104B4000654A0000654A0000654A0000975600006B
:104B5000654A0000654A0000654A0000654A000099
:104B6000654A0000654A0000654A0000654A000089
:104B7000654A0000654A0000654A0000654A000079
:104B8000654A0000654A0000654A00005D4A000071
:104B9000404D414803F048FF0421404806F0EEFB39
:104BA0003D4803F041FF10213D4806F0E7FB3A483D
:104BB00003F03AFF13213B4806F0E0FB3A4B36483E
:104BC000196803F029FF344803F02EFF14213748F9
:104BD00006F0D4FB304803F027FF1E21344806F0CE
:104BE000CDFB2D4803F020FF1521324806F0C6FB0F
:104BF000294803F019FF1E212F4806F0BFFB264865
:104C000003F012FF20212D4806F0B8FB224803F0E4
:104C10000BFF19212A4806F0B1FB1F4803F004FFDF
:104C20001621284806F0AAFB1B4803F0FDFE1221BE
:104C3000254806F0A3FB184803F0F6FE0F21234891
:104C400006F09CFB144803F0EFFE0D21204806F00F
:104C500095FB114803F0E8FE002201232A6023603F
:104C600003B0F0BDFEF716FA23683068092B38D17F
:104C700034283FF7F1AE30287FF7F4AE32380228FF
:104C800001F21084DFE800F038264D006CB1FF1F00
:104C900034B1FF1F4487FF1F0C88FF1F4C410100E8
:104CA00054410100684101005087FF1F7C41010011
:104CB00094410100B4410100CC410100EC410100EC
:104CC000104201002C420100444201005842010000
:104CD0006842010006F020FB002800F3958223685B
:104CE0003068082B33D132282AD071283FF4B6AE71
:104CF00031283CD00823B5E60123236006F00CFBE5
:104D0000002800F37B8223687820072B30603FF473
:104D1000A9AE062B3FF4A6AE052B41F084830523F4
:104D2000A0E60123236006F0F7FA0028EBDD7248C5
:104D300003F0DAFF642303FB00F0FFF7F3FDE2E783
:104D400006F0EAFA002800F3C48123683068072BD4
:104D500076D134283FF780AE30287FF783AE3238E3
:104D6000022801F28A83DFE800F07F64920006F0F7
:104D7000D3FA002800F3BB81604D95F840106A6CAF
:104D8000022984BF002185F840105D48FBF770FFC1
:104D9000012269232260336001E006F081FA06F007
:104DA000BBFA06460028F8D1534803F03DFE5248AE
:104DB00003F03AFE504803F037FE4F4803F034FE4C
:104DC0004D4803F031FE15214E4806F0D7FA4A4807
:104DD00003F02AFE18214C4806F0D0FA33460A2286
:104DE00095F84010444803F037FE434803F01CFE9A
:104DF0002821464806F0C2FA686C454907F09EF93A
:104E000006F078FF00960B4602463B4803F030FE62
:104E10000221404806F0B2FA374803F005FE13219C
:104E20003D4806F0ABFA344803F0FEFD082323604A
:104E300021E606F071FA002800F3618123683068EA
:104E4000062B3AD137283FF707AE30287FF70AAE56
:104E50003238052801F2FC82DFE810F01501290143
:104E6000F8003F0028000A0106F056FA0028E5DDA8
:104E70002148224D03F038FF07F00CF9274907F0CD
:104E80005DF9012323606123E863336045E106F0A7
:104E900043FA0028D2DD1848184D03F025FF0123FE
:104EA00023606123A5F8CE00336036E106F034FAC2
:104EB000002801F3928123683068052B40F0478772
:104EC000352840F3308771287FF429AF144A002336
:104ED0007320136023603060C4E5084DD5F8B0300E
:104EE00001221344072B2260A8BF00236522C5F8C6
:104EF000B030326018E000BF0C88FF1F0CB2FF1FFB
:104F0000E08FFF1F14420100E8380100043901005E
:104F100000007A4430390100D43801006F12833A1E
:104F200018B1FF1F06F0BCF906F0F6F90646002896
:104F3000F8D1BB4803F078FDB94803F075FDB848D7
:104F400003F072FDB64803F06FFDB54803F06CFD49
:104F50001121B44806F012FAB14803F065FD28218A
:104F6000B14806F00BFA6869B04907F0E7F806F0B7
:104F7000C1FE009602460B46A94803F079FD0221C6
:104F8000AB4806F0FBF9A64803F04EFD1621A948F0
:104F900006F0F4F9E869A54907F0D0F806F0AAFE92
:104FA00000960B4602469E4803F062FD0221A0488F
:104FB00006F0E4F99A4803F037FDD5F8B030002B3D
:104FC00032DD1D219C4806F0D9F9E86D07F062F842
:104FD0009A4907F0B3F806F08DFE022602460B460A
:104FE0008F48009603F044FD0121954806F0C6F96C
:104FF0008B4803F019FD1F21924806F0BFF9286E77
:1050000007F048F88D4907F099F806F073FE00960E
:1050100002460B46824803F02BFD8948012106F029
:10502000ADF97F4803F000FD8748112106F0A6F98D
:10503000D5F8B030062B00F2E783DFE813F02E043A
:105040003304290424041F041A04E10306F064F95C
:1050500000287FF730AF72487C4D03F045FE00EB2F
:1050600080004000012265232866226033605BE7F0
:10507000764D95F8C030012253402260652285F8B4
:10508000C030326050E706F047F900287FF713AFD1
:1050900063486E4D03F028FE06F0FCFF634907F0FD
:1050A00001F9012323606523E86133603CE706F0E2
:1050B00033F900287FF7FFAE5948644D03F014FE22
:1050C00000EB8000400001226523E8652260336028
:1050D0002AE753485D4D03F007FE06F0DBFF5C490D
:1050E00007F02CF895F84010686402464DE64C48ED
:1050F000564D03F0F9FDC1B285F840103FE648482F
:10510000524D03F0F1FD06F0C5FF0123236061233A
:10511000A863336001E006F0C3F806F0FDF8064628
:105120000028F8D13E4803F07FFC3D4803F07CFCAA
:105130003B4803F079FC3A4803F076FC384803F02A
:1051400073FC1F21434806F019F9354803F06CFC45
:105150001C21414806F012F9686A344906F0EEFF56
:1051600006F0C8FD009602460B462D4803F080FC71
:1051700002212F4806F002F9294803F055FC2321AB
:10518000364806F0FBF8E86B284906F0D7FF06F032
:10519000B1FD009602460B46214803F069FC02214E
:1051A000234806F0EBF81E4803F03EFC19212C487A
:1051B00006F0E4F8A86B06F09DFD02260B460246B9
:1051C0000096174803F054FC3146264806F0D6F8FE
:1051D000134803F029FC2221234806F0CFF8B5F844
:1051E000CE100F4803F018FC0321204806F0C6F843
:1051F0000B4803F019FC072323603CE4084803F044
:1052000073FDFEF725FF7EE50548104D03F06CFDAC
:1052100001232360782385F8CC0033602AE000BFA7
:105220000C88FF1FB84101003439010000007A44A6
:10523000303901006039010078390100CDCCCC3D16
:105240007C3E010098390100B83901000CB2FF1F03
:105250006F12833A983A0100B83A0100D83A010037
:10526000FC3A0100183B01001C3B0100403B0100DF
:1052700006F016F806F050F806460028F8D17B48EC
:1052800003F0D2FB794803F0CFFB784803F0CCFB66
:10529000764803F0C9FB754803F0C6FB1221744839
:1052A00006F06CF8714803F0BFFB704803F0BCFBDC
:1052B0006E4803F0B9FB6F48192106F05FF895F8C6
:1052C000C230002B40F0B2876B48042106F056F83C
:1052D000664803F0A9FB1321684806F04FF86348BD
:1052E00003F0A2FB09232360FFF7C5BB0123236062
:1052F00006F012F8002801F35280614B1868042868
:10530000C4BF02221A60642223683260092B05D0D0
:10531000082B01F04B80072B41F07E806420FFF7C3
:10532000A1BB584D95F8C130012264205340226042
:1053300085F8C1303060A0F15203262B00F269815C
:10534000DFE813F0B50267016701670167016701D4
:10535000670167016701670167016701670167010D
:105360006701CC02CE022900B2007E086701670106
:1053700067018308670181086701670167016701A9
:105380006701BC0267016701670167016701670187
:10539000770805F085FF05F0BFFF0028F9D13348F5
:1053A000384D03F041FB314803F03EFB2F4803F03A
:1053B0003BFB2E4803F038FB2C4803F035FB1F2144
:1053C000314805F0DBFF294803F02EFB1E212F4852
:1053D00005F0D4FF254803F027FB2D481A2105F0DE
:1053E000CDFFEB6F022B01F00E80032B01F002804A
:1053F000012B00F0F6872748092105F0BFFF1B4865
:1054000003F012FB1421244805F0B8FFA96F1748D8
:1054100003F002FB154803F007FB1C211F4805F0B1
:10542000ADFFD5F88010114803F0F6FA0F4803F0ED
:10543000FBFA1C211A4805F0A1FFD5F8AC100B4867
:1054400003F0EAFA094803F0EFFAEE6F26F00206DD
:10545000012E00F03A871321084805F08FFF03481A
:1054600003F0E2FA02232360FFF705BB0C88FF1F5D
:10547000304201004838010064380100D43801008E
:105480004887FF1F0CB2FF1F3C3D01005C3D01003F
:105490007C3D0100F43D0100003E0100183E01008A
:1054A000383E010005F0FCFE05F036FF0028F9D17A
:1054B000B148B24D03F0B8FAAF4803F0B5FAAE48C0
:1054C00003F0B2FAAC4803F0AFFAAB4803F0ACFA21
:1054D0001321AB4805F052FFA74803F0A5FA0D21B0
:1054E000A84805F04BFFA44803F09EFA0F21A648F8
:1054F00005F044FFA54BA048196803F08DFA9E48BB
:1055000003F092FA1321A24805F038FFA14B9A4804
:10551000196803F081FA984803F086FA12219E4830
:1055200005F02CFF9D4B9448196803F075FA9248DA
:1055300003F07AFA11219A4805F020FF994B8E4822
:10554000196803F069FA8C4803F06EFA0E21964848
:1055500005F014FFD5F8A010874803F05DFA8648DF
:1055600003F062FA1921914805F008FF904B824838
:10557000196803F051FA804803F056FA11218D485A
:1055800005F0FCFE8C4B7C48196803F045FA7A481C
:1055900003F04AFA1021894805F0F0FE884B76485E
:1055A000196803F039FA744803F03EFA1C21854863
:1055B00005F0E4FE844B7048196803F02DFA6E483C
:1055C00003F032FA81481E2105F0D8FE95F8C1306B
:1055D000002B00F071867E480D2105F0CFFE664855
:1055E00003F022FA15217B4805F0C8FE7A4B624889
:1055F000196803F011FA604803F016FA132177488E
:1056000005F0BCFE5C4803F00FFA04232360FFF7AB
:1056100032BA2368002B08BF73280CBF0123002374
:10562000FFF726BA594A1368B3FA83F364200121BD
:105630005B092160136030607DE6564AF3E7574B03
:105640001A680121002A0CBF0A46002221601A6054
:1056500040F0AF86642030606DE6524AE3E7474D84
:10566000D5F8A030B3FA83F3642001225B092260ED
:10567000C5F8A03030605EE6012359482360FBF78F
:10568000ADF84B4B64221860326023683EE64A4A0C
:10569000C9E74B4AC7E7504AC5E7384DAB6FB3FA85
:1056A00083F35B090122AB676323226033606320CD
:1056B00041E6324DD5F88030B3FA83F35B0901221D
:1056C000C5F88030632322603360F0E70123236054
:1056D00005F022FE002805DD2748284D03F004FBD5
:1056E000C5F8AC000122632322603360DFE7234D5D
:1056F000EB6F01221344042B2260A8BF0023632216
:10570000EB673260D3E70123236005F005FE002834
:1057100007DD1948194D03F0E7FA06F0BBFCC5F8A0
:105720008C0023686320082B30603FF49BA9072B73
:105730003FF498A9062B40F07F860623FFF792B925
:105740000123236005F0E8FD0028EADD0A480B4D3F
:1057500003F0CAFA06F09EFCC5F88800E1E70123D1
:10576000236005F0D9FD0028DBDD0348034D03F07D
:10577000BBFAA5F8B800D4E70C88FF1F0CB2FF1FD6
:10578000003C0100143C0100243C010070B0FF1FEC
:10579000343C010000B1FF1F483C010004B2FF1F70
:1057A0005C3C010038B1FF1F703C0100803C0100EF
:1057B00074B0FF1F9C3C010018B1FF1FB03C0100FA
:1057C000A08FFF1FC43C01004887FF1FE43C01007D
:1057D000043D0100243D0100A48FFF1FD4380100C7
:1057E000E08FFF1F0123236005F096FD00287FF75F
:1057F00079AF3C483C4D03F077FAC5F8900071E76B
:105800003A48042105F0BAFD364803F00DF9D5F801
:10581000B030002B12DD1821354805F0AFFDD5F86A
:10582000B410304803F0F8F80221324805F0A6FD24
:105830002C4803F0F9F82B4803F0F6F82E481B210A
:1058400005F09CFD95F8C030002B40F0D2842B4829
:10585000122105F093FD234803F0E6F813212848B0
:1058600005F08CFD1F4803F0DFF806232360FFF7E7
:1058700002B90B21234805F081FDC5E70D2122481F
:1058800005F07CFDC0E70D21204805F077FDBBE762
:105890000C211F4805F072FDB6E70D211D4805F0EB
:1058A0006DFDB1E70C211C4805F068FDACE74FF039
:1058B000E0231A4AC3F80C2DFFF7DDB8D0220021EF
:1058C0000948174D03F0E6FA336800210122732BD3
:1058D00021602A607FF4CFA8FFF75BB9024D1CE47A
:1058E000014D21E00C88FF1F0CB2FF1F283A010078
:1058F000303A01004C3A0100503A01006C3A010084
:10590000D43801001C3A01000C3A0100FC390100B6
:10591000EC390100CC390100DC3901000400FA0542
:105920004487FF1F05F0BCFC05F0F6FC0646002886
:10593000F8D1C24803F078F8C04803F075F8BF48C2
:1059400003F072F8BD4803F06FF8BC4803F06CF840
:105950001521BB4805F012FDB84803F065F8142185
:10596000B84805F00BFDB54803F05EF81B21B648BA
:1059700005F004FDB14803F057F81321B34805F0D2
:10598000FDFCAE4803F050F8AC4803F04DF8AB48CE
:1059900003F04AF82021AE4805F0F0FCE868AD4974
:1059A00006F0CCFB06F0A6F9009602460B46A3488B
:1059B00003F05EF80221A84805F0E0FC0221A748A8
:1059C00005F0DCFC9D4803F02FF82121A44805F0E8
:1059D000D5FC28699F4906F0B1FB06F08BF90096CB
:1059E00002460B46954803F043F802219A4805F019
:1059F000C5FC0221994805F0C1FC904803F014F859
:105A00001F21984805F0BAFCA86A06F073F902272E
:105A100002460B468948009703F02AF80121924874
:105A200005F0ACFC39468D4805F0A8FC834802F02F
:105A3000FBFF20218D4805F0A1FCE86A06F05AF929
:105A4000009702460B467D4803F012F80121864874
:105A500005F094FC3946814805F090FC774802F047
:105A6000E3FF2321824805F089FCA86C794906F000
:105A700065FB06F03FF9009602460B466F4802F0C0
:105A8000F7FF3946744805F079FC3946734805F04C
:105A900075FC6A4802F0C8FF1F21764805F06EFCCD
:105AA000E86C6C4906F04AFB06F024F900960246C1
:105AB0000B46624802F0DCFF3946674805F05EFCA1
:105AC0003946664805F05AFC5C4802F0ADFF1921E2
:105AD000694805F053FCA96D584802F09DFF39460E
