:1000000000800020BD010000F9890000B1890000D6
:10001000B1890000B1890000B1890000B1890000F8
:10002000B1890000B1890000B1890000F9890000A0
:10003000F9890000B189000091AE000095AE000082
:10004000F9890000F9890000F9890000F9890000A8
:10005000F9890000F9890000F9890000F989000098
:10006000F9890000F9890000F9890000F989000088
:10007000F9890000F9890000F9890000F989000078
:10008000F9890000F9890000F9890000F989000068
:10009000F9890000F9890000F9890000F989000058
:1000A000F9890000F9890000F9890000F989000048
:1000B000F9890000E17A0000ED7A0000F17A000091
:1000C000FD7A0000017B0000057B0000F98900003B
:1000D000F9890000F9890000F9890000F989000018
:1000E000F9890000F9890000F9890000F989000008
:1000F000F9890000F9890000F9890000C197000022
:10010000F9890000D59E0000F9890000F9890000F6
:10011000F9890000F9890000F9890000F9890000D7
:10012000F9890000F9890000F9890000F9890000C7
:10013000F9890000F9890000F9890000F9890000B7
:10014000F9890000F9890000F9890000F9890000A7
:10015000F9890000F9890000F9890000F989000097
:10016000F9890000C5A10000F9890000F9890000A3
:10017000F9890000F9890000F9890000F989000077
:10018000F9890000F9890000F9890000F989000067
:10019000F9890000F9890000F9890000F989000057
:1001A000F9890000F9890000F9890000F989000047
:1001B000F9890000F9890000F9890000564B4CF2DA
:1001C000205210B51A804DF628121A8000BF00BFC9
:1001D00008F016FC514B4FF010621A60504A9A60BA
:1001E000504ADA60504A136813F4807304D14F49BF
:1001F0000B604FF4A85313604D4B1A78110703D5C9
:100200001A7842F008021A704A4B4B492A221A7097
:100210004A4A4B4B8B4204D252F8040F43F8040B6A
:10022000F8E7484B484900228B4202D243F8042B9E
:10023000FAE74649464A002352F8230041F82300D2
:1002400001336F2BF8D1434B434A802103F8011B44
:100250009342FBD1414B3D4A1A60414B8A221A70AE
:10026000A3F5805324225A70A0221A709A7992071B
:10027000FCD59A79D406FCD43A4A937903F00C035E
:10028000082B384BF9D103221A7140225A719A79FE
:100290009006FCD5334A9179324B4906FBD5324A58
:1002A000324911600221516020221A709A7902F0BD
:1002B0000C020C2AFAD12E4B2E4A1A602E4B2F4AD2
:1002C0001A6000225A60072243F8042C2C4AC3F813
:1002D0000C2D62B608F04CFE144B1B68DA0705D5EE
:1002E000284808F027FC284B284A1A60284B1B781E
:1002F0005B0609D5244C254B22689A4204D121483B
:1003000008F018FC0023236008F080FB0CF0AAFD25
:100310000BF0D4F8FEE700BF0E200540308004400B
:10032000823F04000100002B10D0034014D0034092
:1003300002D0074000E007407892FF1F38290100F3
:100340002087FF1F7892FF1F0CBAFF1F0082FF1F3C
:100350000000000000E400E05FE400E008ED00E0E1
:100360000050064000400640448004400000030165
:1003700004800440C010050014E000E0FF76010096
:1003800000002020B16726621CE00340A5C3945AF8
:1003900000F00740FFFFFFFFFFFFFFFFFFFFFFFF32
:1003A000FFFFFFFFFFFFFFFFFFFFFFFFFFFFFFFF5D
:1003B000FFFFFFFFFFFFFFFFFFFFFFFFFFFFFFFF4D
:1003C000FFFFFFFFFFFFFFFFFFFFFFFFFFFFFFFF3D
:1003D000FFFFFFFFFFFFFFFFFFFFFFFFFFFFFFFF2D
:1003E000FFFFFFFFFFFFFFFFFFFFFFFFFFFFFFFF1D
:1003F000FFFFFFFFFFFFFFFFFFFFFFFFFFFFFFFF0D
:10040000FFFFFFFFFFFFFFFFFFFFFFFFDEF9FFFF23
:1004100010B5054C237833B9044B13B10448AFF33E
:1004200000800123237010BD7892FF1F00000000A0
:1004300034290100084B10B51BB108490848AFF337
:1004400000800848036803B910BD074B002BFBD0A0
:10045000BDE81040184700BF000000007C92FF1F5D
:10046000342901007892FF1F00000000F0B4154FFE
:100470000024031F00F1800100F5827200F17C0668
:1004800043F8044FB34241F8047F4FF0000542F8AF
:10049000044FF5D100230C4A0C49C0F88C51C0F828
:1004A0009051C0F8B051C0F8A421C0F8AC21C0F8F8
:1004B000A81180F8B83180F8B93180F8D031F0BC9B
:1004C000704700BF0000A040000048430000C8C2C1
:1004D00038B590F8D031023B092B0546144607D8B1
:1004E00070296AD0E02931D0602900F09C8038BDA5
:1004F00070293AD0E02929D06029F8D1137A507AAE
:100500001B0203F47063181805D00CF0B9F86149A8
:100510000CF00AF96860A37AE07A1B0203F47063B6
:10052000181805D00CF0ACF85A490CF0FDF8A8608A
:10053000237B607B1B0203F470631818D7D00CF088
:100540009FF854490CF0F0F8E86038BDE37BA07BDD
:1005500003EB00200CF094F84F490CF0E5F84F49FC
:100560000BF0DAFFC5F8900138BD137A507A1B0200
:1005700003F47063181805D00CF082F845490CF0AC
:10058000D3F82861A37AE07A1B0203F47063181889
:1005900005D00CF075F83F490CF0C6F86861237B74
:1005A000607B1B0203F470631818A0D00CF068F88D
:1005B00038490CF0B9F8A86138BD137A507A1B029B
:1005C00003F47063181805D00CF05AF831490CF098
:1005D000ABF86861A37AE07A1B0203F47063181821
:1005E00005D00CF04DF82B490CF09EF8A861237B48
:1005F000607B1B0203F47063181805D00CF040F800
:1006000024490CF091F8E861A37BE07B1B0203F422
:10061000706318183FF46BAF0CF032F81D490CF002
:1006200083F8286238BD137A507A1B0203F4706392
:10063000181805D00CF024F816490CF075F868600D
:10064000A37AE07A1B0203F47063181805D00CF04B
:1006500017F810490CF068F8A860237B607B1B0238
:1006600003F47063181805D00CF00AF809490CF06F
:100670005BF8E860A37BE07B1B0203F4706318184F
:100680003FF435AF0BF0FCFF02490CF04DF8286148
:1006900038BD00BF0AD7A33ADDB504BD000016433C
:1006A000D0F8DC01704700BF90F8C001704700BF70
:1006B00090F8BC01704700BF90F8C401704700BFBC
:1006C00090F8C801704700BF202994BF50F821005E
:1006D000002070472DE9F0410B4E8046041F00F1C9
:1006E0007C0754F8045F314628460CF0BBF930B162
:1006F000D8F8B41128460CF0D3F900B12E46BC420C
:10070000EFD13046BDE8F081000020412DE9F041F5
:10071000D0F8B4714FF00008041F00F17C0654F8C3
:10072000045F394628460CF0BBF9084948B1284611
:100730000CF098F9414620B128460CF0B1F900B10F
:10074000A846B442EBD14046BDE8F08100007042BB
:100750002DE9F0470023D0F8B471C0F8DC318246AF
:100760001C464FF000099846061F56F8045F3846AD
:1007700029460CF077F90E4960B128460CF072F961
:1007800040B1484629460BF0C7FE08F101088146F2
:10079000CAF8DC410134202CE7D1CAF8D4814046A4
:1007A0000BF06EFF014648460CF072F8BDE8F0878A
:1007B00000007042D0F8D401704700BFD0F890011B
:1007C000704700BFD0F89001704700BFD0F890018B
:1007D000704700BF2DE9F8434FF00008D0F8B4711E
:1007E000C0F88C818146041F00F17C0654F8045F38
:1007F000394628460CF054F9084950B128460CF007
:1008000031F930B1404629460BF086FE8046C9F8E2
:100810008C01B442EAD14046BDE8F8830000704242
:1008200002299ABF643150F821000020704700BFB0
:10083000102998BF80F8D011704700BF90F8B80118
:10084000704700BFC0F8CC11704700BF80F8B811E6
:10085000704700BF80F8B911704700BF30B5C0F8CD
:10086000B41183B008460BF0B5FA074C02250246D6
:100870000B46009520460AF0E3FC204603B0BDE895
:1008800030400AF07FBC00BF1488FF1F70B500F530
:1008900000550646183500F13804204604F5F0747A
:1008A000FFF7E4FDAC42F8D106F5067501242846B1
:1008B0000021FFF7CBFF214628460134FFF7B8FFA0
:1008C000112C05F5F075F2D142F2200400250548FF
:1008D000054A064B3555002130627162B262F362FF
:1008E000304670BD00007A44000048430000C8C292
:1008F00042F224032DE9F041002200F5F15500F504
:1009000000578046C2501835243700F5067403E0BE
:1009100004F5F074AC420ED02046FFF78FFF00289C
:10092000F6D020463E68FFF745FF04F5F0743044EA
:10093000AC423860F0D142F2240358F80300BDE81D
:10094000F08100BF70B50E460121356805F00F0437
:100950000C44C4EB041400EB441000F138042046AE
:10096000FFF774FF20460121FFF774FF324620464F
:1009700005F0F001BDE87040FFF7AABD70B5002397
:1009800000F5005605460361183600F5067403E0CD
:1009900004F5F074A64223D02046FFF74FFF00284D
:1009A000F6D02046FFF716FF014628690BF0B4FD8C
:1009B00028612046FFF702FFA96A0CF053F820BB1C
:1009C0002046FFF7FFFEE96A0CF06AF80028DFD046
:1009D0002046FFF7F7FE04F5F074A642E862DBD18B
:1009E00068690BF04DFE014628690BF051FF696AFA
:1009F000286104460CF054F800B16C62296A204664
:100A00000CF030F800B12C6270BD2046FFF7D6FE26
:100A1000A862D5E770B5124B836100F50055064614
:100A2000183500F5067403E004F5F074AC4214D0F8
:100A30002046FFF703FF0028F6D02046FFF74AFEC6
:100A4000B1690CF00FF80028EED02046FFF742FE07
:100A500004F5F074AC42B061EAD1B06970BD00BF7A
:100A60000000A04070B5002300F500550646C361A4
:100A7000183500F5067403E004F5F074AC4214D0A8
:100A80002046FFF7DBFE0028F6D02046FFF73EFEAB
:100A9000F1690CF005F80028EED02046FFF736FE8D
:100AA00004F5F074AC42F061EAD1F06970BD00BFAA
:100AB0000069704741617047F8B50F46164600F56A
:100AC0000674012504E00135112D04F5F0741BD0E6
:100AD0002046FFF7B3FE0028F5D029460B480AF060
:100AE000A5FB0A480AF04EFB78200AF02FF92046B1
:100AF0003946FFF7A7FE013520463146FFF7AEFE27
:100B0000112D04F5F074E3D1F8BD00BF1488FF1F68
:100B100042F21C032DE9F041002200F50055C250BD
:100B20002F46274A274B426306464FF000080363CF
:100B300018351C3700F5067403E004F5F074AC4278
:100B40002ED02046FFF77AFE0028F6D02046FFF789
:100B50003DFE00210BF0A4FF0028EED03B680133DE
:100B60003B602046FFF732FE014640460BF0D4FCC6
:100B700080462046FFF726FE316B0BF091FFD0B97F
:100B80002046FFF71BFE716B0BF06CFF0028D4D0E2
:100B90002046FFF713FE04F5F074AC427063D0D129
:100BA00042F21C03F0580BF06BFD014640460BF07F
:100BB0006FFEBDE8F0812046FFF704FE3063DFE7FB
:100BC00000C0794400C079C4006B7047406B704727
:100BD000F8B500F5005507460026183500F50674EF
:100BE00003E004F5F074AC4210D02046FFF726FE77
:100BF0000028F6D02046FFF7ABFD014630460BF04B
:100C00008BFC04F5F074AC420646EED142F21C03B4
:100C1000F8580BF035FD014630460BF039FEF8BDB3
:100C20002DE9F04F83B000F10F02C31D009204467E
:100C30000193002203F8012F00999942FAD101276C
:100C4000B94604F5067504F108082846FFF7F6FDD5
:100C5000F0B14FF0010B00262046FFF7B9FF5946CF
:100C600082462846FFF730FD014650460BF0FAFE5B
:100C700020B10BF1FF3209FA02F216430BF1010B1E
:100C8000BBF1090FE8D1092F00F0BE8088F80060A1
:100C900001370A2F05F5F07508F10108D5D14FF499
:100CA000407208232260E3711A21584809F0CAFFF4
:100CB00000231022216856480AF078FA042155488A
:100CC00009F0C0FF52480AF05DFAE3790025FBB154
:100CD0000921514809F0B6FF00230A2229464C4851
:100CE0000AF064FA05214D4809F0ACFF62190023AF
:100CF000117A474802220AF059FA20200AF026F811
:100D000043480AF03FFA0135E379EDB2AB42DFD850
:100D10002146434806F084FD019B002203F8012F81
:100D200000998B42FAD104F5975618364FF00A080D
:100D30004FF001093046FFF781FDD8B101250027AA
:100D40002046FFF745FF294683463046FFF7BCFCA7
:100D5000014658460BF086FE18B16B1E09FA03F3E4
:100D60001F430135092DEBD1019BB8F10B0FCCBF0F
:100D70001F705F70019B08F101080133B8F1100F7B
:100D800006F5F0760193D5D14FF444720523226025
:100D9000E3711A211D4809F055FF002342462168DE
:100DA0001B480AF003FA04211A4809F04BFF1848BF
:100DB0000AF0E8F9E3790025FBB10921164809F0AA
:100DC00041FF00230A22294611480AF0EFF90521C4
:100DD000124809F037FF62190023117A0C480222E9
:100DE0000AF0E4F9202009F0B1FF09480AF0CAF935
:100DF0000135E379EDB2AB42DFD80948214603B0B3
:100E0000BDE8F04F06F00CBDE67348E7000D0100A9
:100E10001488FF1F1C0D0100240D0100300D01007E
:100E2000ECB5FF1F2DE9F04F93B004460F91002A57
:100E300040F0D08115461046C54900F0D7FDC449A1
:100E4000284600F0D3FDC249284600F0CFFD42F20B
:100E50001C03204654F803B0FFF74AFD8146206981
:100E600066690AF0B7FFCDE910012046FFF7B0FE32
:100E700082462046A769D4F81C80FFF749FE0AF095
:100E8000A9FFCDE90C01394640460BF043FBB149BF
:100E90000BF04AFC0AF09EFFCDE90A0140460AF039
:100EA00099FFCDE9080138460AF094FFCDE9060123
:100EB00050460AF08FFFDDE91023CDE90401CDE9AA
:100EC0000223A54900964B465A46284600F08EFD5F
:100ED0009F49284600F08AFD04F506744FF0010A88
:100EE000DDF83C9007E00AF1010ABAF1100F04F5B1
:100EF000F07400F0F2802046FFF7A0FC0028F2D04A
:100F00002046FFF7D1FB2046FFF7D2FB2046FFF734
:100F1000D3FB2046FFF7D4FB0821904809F092FE4E
:100F200051468F480AF082F9BAF1090F03DC01211A
:100F30008C4809F087FE02218B4809F083FE204689
:100F4000FFF748FC0AF046FF5FFA89F802460B46B5
:100F5000CDF8008082480AF073F90121834809F036
:100F600071FE2046FFF79CFB0C2800F3B980012698
:100F70001DE007217E4809F065FE294678480AF001
:100F800055F902217B4809F05DFE31462046FFF706
:100F90009BFB0AF01FFFCDF8008002460B4670480D
:100FA0000AF04EF9012171480E4409F04BFE20462B
:100FB000FFF776FB864269DC092D05F10105D8DCD7
:100FC0000121684809F03EFED3E72046FFF768FBA1
:100FD000172800F3B98035460D261CE0013509F0CD
:100FE00031FE29465E480AF021F90221614809F0E4
:100FF00029FE31462046FFF767FB0AF0EBFECDF8ED
:10100000008002460B4656480AF01AF9012157485B
:101010000E4409F017FE2046FFF742FB86424FF0D0
:1010200007015348DADD0F21534809F00BFE4C4805
:101030000AF0A8F82046FFF733FB192826DD192609
:101040001CE0013509F0FEFD294645480AF0EEF89E
:101050000221484809F0F6FD31462046FFF734FBEF
:101060000AF0B8FECDF8008002460B463C480AF074
:10107000E7F801213D480E4409F0E4FD2046FFF762
:101080000FFB86424FF007013948DADD0F213A485D
:1010900009F0D8FD32480AF075F80921374809F0FF
:1010A000D1FD00212046FFF7BBFB0AF093FE02268C
:1010B00002460B4600962A480AF0C2F80F212E4835
:1010C00009F0C0FD0AF1010A25480AF05BF8BAF1FF
:1010D000100F04F5F0747FF40EAF13B0BDE8F08F7D
:1010E0002F4601261FE00721214809F0ABFD3946B4
:1010F0001B480AF09BF802211E4809F0A3FD314667
:101100002046FFF7E1FA0AF065FECDF800800246BE
:101110000B4613480AF094F801360121134809F0F0
:1011200091FD0C2E08D0092F07F10107DBDC01210E
:101130000C4809F087FDD6E72046FFF7B1FA0C28E6
:1011400005F10B063FF741AF16350D2739E000BF1B
:10115000E822010000007A44C00F01006010010085
:101160001488FF1F340D0100180D01006C100100E0
:1011700070100100001101007810010088100100BA
:101180000721BA4809F05EFD3146B9480AF04EF829
:101190000221B84809F056FD39462046FFF794FA77
:1011A0000AF018FECDF8008002460B46B0480AF05F
:1011B00047F80121B0480F4409F044FDB5423FF41F
:1011C00032AF092E06F10106DADC0121AB4809F045
:1011D00039FDD5E7AA49012000F008FCA849012003
:1011E00000F004FCA649012000F000FC42F21C03C0
:1011F0002046E2581092FFF77BFB82462069666921
:101200000AF0E8FD804620468946FFF7E1FC834668
:101210002046A569E769FFF77BFC0AF0DBFDCDE915
:101220000C01294638460BF075F996490BF07CFA0B
:101230000AF0D0FDCDE90A0138460AF0CBFDCDE930
:10124000080128460AF0C6FDCDE9060158460AF015
:10125000C1FD5346CDE90401CDE90289109A8A49BE
:101260000096012000F0C2FB8549012000F0BEFB82
:1012700004F506744FF0010A0025DDF83C9007E004
:101280000AF1010ABAF1100F04F5F0743FF425AF2A
:101290002046FFF7D3FA0028F2D02046FFF704FAE1
:1012A0002046FFF705FA2046FFF706FA2046FFF72B
:1012B00007FA0821754808F02FF95146744809F0DB
:1012C000B5FFBAF1090F03DC01216C4808F024F9DD
:1012D0000221704808F020F92046FFF77BFA0AF057
:1012E00079FD5FFA89F802460B46CDF80080684820
:1012F00009F0A6FF0121604808F00EF92046FFF72B
:10130000CFF90C2800F3AF8001261DE007215748D4
:1013100008F002F929465E4809F088FF0221554885
:1013200008F0FAF831462046FFF7CEF90AF052FDF0
:10133000CDF8008002460B46554809F081FF012197
:101340004D480E4408F0E8F82046FFF7A9F9864218
:1013500069DC092D05F10105D8DC0121474808F0B9
:10136000DBF8D3E72046FFF79BF9172800F3C98085
:1013700035460D261CE0013508F0CEF829464448D4
:1013800009F054FF02213B4808F0C6F831462046D8
:10139000FFF79AF90AF01EFDCDF8008002460B46D1
:1013A0003B4809F04DFF012133480E4408F0B4F8E2
:1013B0002046FFF775F986424FF007012B48DADD2A
:1013C0000F21354808F0A8F8314809F0DBFE204627
:1013D000FFF766F9192826DD19261CE0013508F00B
:1013E0009BF829462A4809F021FF0221214808F0EC
:1013F00093F831462046FFF767F90AF0EBFCCDF889
:10140000008002460B46224809F01AFF01211A48C3
:101410000E4408F081F82046FFF742F986424FF06B
:1014200007011248DADD0F211B4808F075F818484B
:1014300009F0A8FE0921194808F06EF8002120469D
:10144000FFF7EEF90AF0C6FC022602460B460096AC
:101450000F4809F0F5FE0F210F4808F05DF80C4821
:1014600009F090FE0CE72F46012639E070100100CC
:101470001488FF1F001101006C100100340D0100E1
:10148000E822010000007A44C00F01006010010052
:10149000E887FF1F180D0100781001008810010077
:1014A00007212E4808F038F839462D4809F0BEFECD
:1014B00002212C4808F030F831462046FFF704F9A5
:1014C0000AF088FCCDF8008002460B46244809F05B
:1014D000B7FE01360121244808F01EF80C2E08D072
:1014E000092F07F10107DBDC0121204808F014F87F
:1014F000D6E72046FFF7D4F80C2805F10B063FF796
:1015000031AF16350D2720E00721144808F004F804
:101510003146134809F08AFE0221124807F0FCFF09
:1015200039462046FFF7D0F80AF054FCCDF8008089
:1015300002460B460A4809F083FE01210A480F447F
:1015400007F0EAFFB5423FF43BAF092E06F1010672
:10155000DADC0121054807F0DFFFD5E77010010054
:10156000E887FF1F001101006C100100340D01001D
:101570002DE9F04F85B000F506758A4603929B462B
:101580002E464FF0010806E008F10108B8F13F0FC0
:1015900006F5F0767BD03046FFF750F90028F3D0FF
:1015A00000230A2251467D4809F000FE01217C48B3
:1015B00009F048FB03980AF00DFC00230246009353
:1015C00076480B4609F03CFE0121754809F03AFBCC
:1015D0005946724809F02AFE0121714809F032FB90
:1015E00041466E4809F022FE01216D4809F02AFBB0
:1015F00000244FF0020921463046FFF765F80AF053
:10160000E9FBCDF8009002460B46644809F018FE4D
:1016100001340121624809F015FB082C4FF0020744
:10162000E9D100213046FFF7FBF80AF0D3FB009721
:1016300002460B46594809F003FE0121584809F0BB
:1016400001FB01213046FFF7EBF80AF0C3FB0097DE
:1016500002460B46514809F0F3FD0121504809F0BC
:10166000F1FA39463046FFF7DBF80AF0B3FB009792
:1016700002460B46494809F0E3FD08F101084748D6
:1016800009F080FDB8F13F0F06F5F07683D1012710
:101690004FF0000904E001373F2F05F5F07579D0D0
:1016A0002846FFF7CBF80028F5D000230A22514640
:1016B0003C4809F07BFD0121394807F02DFF0398D4
:1016C0000AF088FBCDF8009002460B46354809F039
:1016D000B7FD0121324807F01FFF5946314809F094
:1016E000A5FD01212E4807F017FF39462D4809F0C6
:1016F0009DFD01212A4807F00FFF00244FF002084A
:1017000021462846FEF7E0FF0AF064FBCDF8008092
:1017100002460B46234809F093FD0134012120487D
:1017200007F0FAFE082C4FF00206E9D10021284606
:10173000FFF776F80AF04EFB009602460B46194872
:1017400009F07EFD0121164807F0E6FE012128463A
:10175000FFF766F80AF03EFB009602460B4611487A
:1017600009F06EFD01210E4807F0D6FE31462846ED
:10177000FFF756F80AF02EFB009602460B46094882
:1017800009F05EFD0137074809F0FCFC3F2F05F525
:10179000F07585D105B0BDE8F08F00BF1488FF1F3C
:1017A00094100100E887FF1F70B5044608460D46F7
:1017B0000CF046F923680246294620465B68BDE8DE
:1017C00070401847014B1870704700BF2087FF1FFB
:1017D000F0B51546027883B062B103460E46252A5D
:1017E00016D018781C4685B909F0B0FA6278631CE7
:1017F000002AF4D1002D5CD0744803B0BDE8F0405D
:1018000009F0C0BC1046002DEED007F013FEEDE746
:1018100058785C1C0028EDD02528F3D073282FD0F1
:10182000642825D0692823D0662848D07A2853D048
:1018300078285ED0582800F08580622800F09180DA
:10184000422866D06C2813D0632811D0742800F089
:1018500098805428C7D133680436002D40F0A48006
:10186000012B00F0A8800521594809F0EBF9BDE7EC
:10187000331D316885B957481E4609F0D7FCB5E7D6
:10188000371D3668304665B90CF0DAF80146304647
:101890003E4609F0D7F9A9E74C481E4609F0C6FCB8
:1018A000A4E70CF0CDF8014630463E4607F034FE82
:1018B0009CE7484803B0BDE8F04009F063BC073638
:1018C00026F007060321D6E90023009165B94148B7
:1018D000083609F0B5FC89E7073626F00706D6E991
:1018E000002385B1002100913848083609F0A8FC92
:1018F0007CE7371D3168F5B90023102235483E4694
:1019000009F054FC72E700953248083609F098FC5B
:101910006CE7022130487DBB09F094F93168371D2E
:101920002B4602222B483E4609F040FC5EE707F0BA
:10193000F3FD3168371D0023102224483E4609F08C
:1019400035FC53E702212548002DF0D109F07AF942
:10195000371D31681F482B4610223E4609F026FCF1
:1019600044E7371D3168002DDAD0002302221748E2
:101970003E4609F01BFC39E707F0CEFD371D316804
:10198000F3E7316804363DB901290EBF1448154804
:10199000012109F057F929E701290EBF1048114824
:1019A000012107F0B9FD21E7012B09D005210848E5
:1019B00007F0B2FD1AE70C490648FFF7F5FE15E7F8
:1019C00009490248FFF7F0FE10E700BFE887FF1F54
:1019D000D41001001488FF1FC0100100BC100100CA
:1019E000C4100100C8100100CC1001000EB400B5F5
:1019F00082B003A9024651F8040B0191FFF7E8FEFB
:101A000002B05DF804EB03B0704700BF30B4074D7F
:101A1000074C084900232B702360036543658365E9
:101A200080F85C300B6030BC704700BF9C92FF1F99
:101A30009892FF1F9492FF1F0A4A0B49906D536DB5
:101A400003FB00F34FF47A7000FB03F0642310B53E
:101A50000B600AF015FE0549054C0AF019FF2060DD
:101A600010BD00BF1093FF1F3487FF1FE4388E3E68
:101A7000E092FF1F10B4019C521AA4EB030412D091
:101A8000401A002C04FB00F002EBD27111DB00EBDA
:101A9000610101FB02F0002891FBF2F10B4414DB21
:101AA000184610BC704704EBD47003EB600010BC08
:101AB0007047A0EB610000FB02F1002990FBF2F0FF
:101AC0001844EEDB013010BC7047581E10BC704744
:101AD0002DE9F8434649474F474D484E484CDFF8FB
:101AE00054810020FFF782FF464B474A47485A601F
:101AF000DF601222002746491A701861454A46489D
:101B00005D615E62454D9C614FF07C56444C1F63A5
:101B1000444F9962DA62444958630C2243489D63FA
:101B20005E6440F61C450A269C641F6241F2040470
:101B30003F4FD9641A6502210122C3F8BC009D669B
:101B400000206425DE661C674FF496763224DF6140
:101B5000DF635A27597059721A725A6583F8400028
:101B60009D655E66DE651C665F67C3F89840C3F8D6
:101B7000A4408C244FF47A799867D967C3F8800021
:101B8000DFF8B4C0C3F8A00044F6206EC3F8AC2060
:101B9000C3F8B010FF2741F28831C3F8B4500526CE
:101BA00083F8C02083F8C12083F8C2204FF4FA756F
:101BB00040F2D6624FF4964083F8CC40C3F89C9034
:101BC000C3F88880C3F88CC0C3F890E0C3F8A8704D
:101BD000A3F8BA60A3F8C450C3F8C800C3F89410BF
:101BE000A3F8B810A3F88420A3F88620BDE8F883F2
:101BF000DC1001006666864033338340CDCCCC3D9B
:101C0000CDCC4C401093FF1F48E80100000040403D
:101C100000008242000020C1000020420000A040DD
:101C20009A997940333373400AD7233D9A99993E64
:101C3000CDCC4C3E0000684200C0204470B5464CFC
:101C4000464D4748E66800232B70FEF70BFF014620
:101C500030460AF007FF08B104232B704048FEF716
:101C6000D9FE21690AF0FEFE18B12B7843F010036B
:101C70002B703B48FEF7A8FFA16A0AF011FF18B1CC
:101C80002B7843F040032B70002335486B70FEF730
:101C90009DFFE16A314E0AF0E5FE08B10123737041
:101CA00000232F48EB70FEF7DDFE05462C482B4E37
:101CB000FEF7B0FE014628460AF02CFCE16B0AF064
:101CC000EFFE08B10123F370264D254800232B7049
:101CD000FEF7C8FE616A0646E0680AF01BFC014692
:101CE00030460AF0DDFE08B104232B701C48FEF7D5
:101CF00091FE616A064620690AF00EFC01463046F4
:101D00000AF0B0FE18B12B7843F010032B70144882
:101D1000FEF75AFFA16B0646A06A0AF0FBFB0146DC
:101D200030460AF0BDFE18B12B7843F040032B700B
:101D300000230B486B70FEF749FFA16B0546E06A74
:101D4000084C0AF0E9FB014628460AF08BFE08B170
:101D50000123637070BD00BF1093FF1F0C93FF1F22
:101D6000C495FF1FE893FF1F2DE9F041844C2368C1
:101D7000012B82B027D0022B00F09E80032B00F0B5
:101D8000BE80EBB97F4B8048D3F8A420D3F8A810CD
:101D90000368891A002903FB01F37C49C0F2D18052
:101DA000323381FB0301D817C0EB6111002B1144C2
:101DB000C0F2DC80062002B0BDE8F04106F0CEBEE5
:101DC00002B0BDE8F081724E33680A33B3F57A7F12
:101DD00000F3C780184633600AF052FC6D490AF0E0
:101DE000A3FC8046674DD5F8A4000AF049FC0746DD
:101DF000D5F8A8000AF044FC39460AF08BFB4146AE
:101E00000AF092FC64490AF043FD39460AF084FB6B
:101E10000AF050FE0146062006F0A0FE02215F48AF
:101E200008F010FF5E4809F0ADF906215D4808F0A2
:101E300009FF30680AF024FC56490AF075FC09F0E5
:101E4000C9FF022702460B460097554809F0F8F9EA
:101E50000D21554808F0F6FED5F8A4000AF010FC54
:101E6000804630680AF00CFC4A490AF05DFC0646E0
:101E7000D5F8A8000AF004FC41460AF04BFB0146E5
:101E800030460AF051FC44490AF002FD41460AF08E
:101E900043FB09F09FFF00970B460246404809F0BC
:101EA000CFF939463D4808F0CDFE3D4809F06AF9C2
:101EB0002368022B7FF462AF354B324E00221A604A
:101EC000D6F8A4000AF0DCFB0546D6F8A8000AF014
:101ED000D7FB29460AF01EFB00210AF025FC2E49FB
:101EE0000AF0D6FC29460AF017FB0AF0E3FD01468A
:101EF000062006F033FE2368032B7FF442AF244B09
:101F0000204E4FF47A721A60D6F8A4000AF0B8FB9B
:101F10000546D6F8A8000AF0B3FB29460AF0FAFAFB
:101F20001D490AF001FC1C490AF0B2FC29460AF0DE
:101F3000F3FA0AF0BFFD0146062006F00FFE236803
:101F40001FE7323B81FB0310D917C1EB6011002B57
:101F50000A4412DB511C062002B0BDE8F04106F035
:101F6000FDBD00234FF0000833603BE70139062038
:101F700002B0BDE8F04106F0F1BD11461AE700BF1E
:101F8000E492FF1F1093FF1F3487FF1F1F85EB5143
:101F9000B492FF1FCDCCCC3D0000C842180D01000B
:101FA0001488FF1FFC1001000411010070B5B8482F
:101FB000B84C09F0E7F8B64809F0E4F8B44809F07D
:101FC000E1F80D21B44808F03DFED4F8A030012B13
:101FD00011D0B24CAE48217800230A2209F0E6F86D
:101FE0002378052B67D8DFE813F00B0110011501EA
:101FF0001A011F0101010921A94808F023FEA9487F
:10200000FEF708FD21690AF02DFD18B10F21A64841
:1020100008F018FEA348FEF725FDE1680AF040FD30
:1020200018B10E21A14808F00DFE9E48FEF71AFDDA
:1020300005469C48FEF7EEFC014628460AF06AFA7F
:10204000E16B0AF02DFD18B11121994808F0FAFD55
:102050009448FEF75DFDA16A0AF022FD18B10C213B
:10206000944808F0EFFD8F48FEF752FDE16A0AF050
:10207000F9FC18B10D21904808F0E4FD8F4B894818
:102080001B68012B00F0ED80FEF7C4FC2169814D37
:102090000AF006FD78B18348FEF7E4FCE9680AF02F
:1020A000E1FC40B17D4B1B78052B00F0EB80082153
:1020B000834808F0C7FD0221824808F0C3FD1220C2
:1020C00006F0D2FE012800F0B480112006F0CCFE0C
:1020D000012800F0B8807C4B1B68012B00F0BC800D
:1020E00002217848794C08F0ADFD794B68481968B1
:1020F00009F09CF8664809F045F80421754808F095
:10210000A1FD0B2006F0B0FE002301460A22604824
:1021100009F04CF80C2006F0A7FE002301460A2225
:102120005B4809F043F8142006F09EFE00230146A8
:102130000A22574809F03AF8152006F095FE0A22BF
:1021400000230146524809F031F80621624808F0A0
:1021500079FD2368DD074FF001014CBF5F486048FF
:1021600008F070FD236898074FF001014CBF5B48F1
:102170005B4808F067FD23685A074FF001014CBF28
:102180005648574808F05EFD23681B074CBF53486C
:102190005348012108F056FD0421524808F052FD31
:1021A000112006F061FE002301460A22384808F09B
:1021B000FDFF102006F058FE002301460A22344895
:1021C00008F0F4FF122006F04FFE002301460A2219
:1021D0002F4808F0EBFF132006F046FE00230146CF
:1021E0000A222B48BDE8704008F0E0BF07213E48B6
:1021F00008F028FD3D4B2648196809F017F85AE702
:1022000006213B4808F01EFD55E70721394808F034
:1022100019FD50E70721384808F014FD4BE7082165
:10222000364808F00FFD46E70B21354808F00AFD57
:1022300041E70E21334808F005FD112006F014FE99
:1022400001287FF448AF0A212F4808F0FBFC1E4B01
:102250001B68012B7FF444AF11212C4808F0F2FCDD
:102260003EE7FEF7D7FB216A0AF01AFC00283FF48C
:102270001EAF1621264808F0E5FC0A21254808F083
:10228000E1FC18E70A21234808F0DCFC13E700BF53
:102290001488FF1F1093FF1F141101009894FF1F53
:1022A00024110100C495FF1F3011010040110100ED
:1022B000501101006411010074110100C092FF1F50
:1022C000A8110100180D01003495FF1FE093FF1FB6
:1022D0008494FF1F1C120100241201002C12010023
:1022E000C421010030120100E41101003895FF1FE4
:1022F000B4110100BC110100D0110100D81101007E
:10230000C4110100EC110100FC11010008120100D0
:10231000841101009C1101002DE9F04FA94CE66FDA
:10232000012E8DB000F07681032E00F0CA80DFF818
:10233000D882A54FA54EA36FA548012B09BF3168D0
:10234000316801F10041316005F088FF3B68002BE6
:1023500040F09D809E48DFF8B09205F055FF3B6845
:10236000C8F800000546002B43D1E36F954A012BC6
:1023700052D0984928460AF093FBC0B9964928469E
:102380000AF070FB98B9954A954B12680B920B9A1C
:102390001A60D4F8AC000AF073F929460AF0C4F9BF
:1023A0000023C8F8000033600DB0BDE8F08FDFF8FF
:1023B0002CA28B4FDAF800300A930A983B68DFF8BA
:1023C0004C92C01A0AF058F929460AF0ADF985492D
:1023D0000AF05EFA83490AF05BFAD9F800100AF0B5
:1023E0009BF8DAF800300993099BC9F800003B60BC
:1023F000CFE709F0EFFC022502460B4600957A482C
:1024000008F01EFF0421794808F01CFCE36FD9F89E
:1024100000506C4A012BACD1754B1B68012B00F0AE
:10242000D981022BB5D1D2F8907038460AF028F93C
:1024300029460AF017FB40B978420AF021F92946EB
:102440000AF02EFB002800F0F881DFF890A1644F1D
:10245000DAF80030079307983B68DFF8B091C01AAC
:102460000AF00AF929460AF05FF95E490AF010FA03
:102470005C490AF00DFAD9F800100AF04DF8DAF8C4
:1024800000300693069BC9F800003B6081E7504886
:1024900005F0BAFE09F09EFC022502460B460095A7
:1024A000514808F0CDFE0321524808F0CBFBD4F888
:1024B00090104D4808F0BAFE03214E4808F0C2FBC8
:1024C00048E74D4D4A4F2B68DFF83C81D3F8840034
:1024D0000F2101233B6005F04FFE3B683A4F012B73
:1024E0003B6800F0BE80002B40F03C812B68DFF899
:1024F0002091D3F88400436B19698EB2C9F800604B
:1025000005F0BCFBB4F8862040F6E44303FB06F17B
:10251000B1FBF0F0801A00B20AF0B2F837492B4E46
:102520008246D4F888000AF0FFF8014650460AF0C7
:10253000AFF9D9F800303060632BDFF8D4A000F396
:102540000581002333603B68002B3FF4F4AE022189
:102550002B4808F077FB2B68D9F80050D3F884009B
:1025600040F6E44303FB05F505F088FBB5FBF0F00E
:102570000AF082F80546B4F886000AF081F80146B0
:10258000284609F0C7FF09F025FC022502460B4644
:102590000095154808F054FE2946194808F052FBEA
:1025A000306809F017FC009502460B460E4808F00B
:1025B00047FE2946134808F045FB2946104808F015
:1025C00041FBB8E61093FF1F5495FF1FBC92FF1FFD
:1025D000E892FF1F0000FA430000FAC394B7FF1F00
:1025E0002895FF1F00007A441488FF1F7C12010009
:1025F0005087FF1F781201002C95FF1F9175DD3663
:10260000180D010074120100D092FF1FE092FF1F0D
:102610000893FF1FDFF80483D4F89070D8F80050B7
:1026200038460AF02DF829460AF03AFA48B17842BD
:102630000AF026F8014628460AF032FA002840F04F
:102640000381A44DA44F2A680223D2F884003B6082
:102650000E2105F091FD3B68A04F012B3B687FF4F4
:1026600042AF002B40F0FA802B68DFF8B492D3F829
:102670008400436B19691FFA81FBC9F800B005F0AB
:10268000FDFAB4F88430964E40F6E44A0AFB0BFBA0
:10269000BBFBF0F0C01A00B209F0F2FF914983468B
:1026A000D4F88C000AF040F8014658460AF0F0F8D9
:1026B0002A68D9F800303060D2F884000AFB03FAA7
:1026C00005F0DCFAB4F88430BAFBF0F00FFA80FAC7
:1026D000C3EB0A03002BB4F8BA20B8BF5B429342A5
:1026E000BCBF002333603B68002B3FF424AE0221C3
:1026F0007D4808F0A7FA2B68D9F80050D3F8840079
:1027000040F6E44303FB05F505F0B8FAB4F884108D
:10271000B5FBF0F000B2411A744808F087FD0221C1
:10272000714808F08FFA306809F054FB0225024620
:102730000B4600956D4808F083FD03216C4808F0B6
:1027400081FA2946684808F07DFAF4E52B68D3F849
:10275000840005F093FADAF8003064389842FFF408
:10276000F0AEF0E66148DFF8B891DFF868A108F054
:1027700009FD0C215F4808F065FA0C215E4808F05D
:1027800061FA2A683B68D2F88400426B11698EB204
:10279000C9F80060002B3FF4B3AE05F06FFA40F6C5
:1027A000E44100230A2201FB06F1B1FBF0F14F489E
:1027B00008F0FCFC02214C4808F044FAB4F88610FA
:1027C0004A4808F033FDDAF80030D9F80060D3F851
:1027D000840095E6494928460AF062F958B9484903
:1027E00028460AF03FF930B9464A474B126805922D
:1027F000059A1A60CDE5DFF80CA1434FDAF80030F6
:10280000049304983B68DFF81C91C01A09F034FF68
:10281000294609F089FF3D490AF03AF83B490AF098
:1028200037F8D9F8001009F077FEDAF80030039392
:10283000039BC9F800003B60ABE5324A324B12689B
:102840000892089A1A60A4E5224D234F2B683E6037
:10285000D3F884000F2105F08FFC3EE62348DFF813
:10286000C0901C4E08F08EFCE36F012B4FF00B0163
:102870000CBF2748274808F0E5F90C211E4808F04E
:10288000E1F92A683B68D2F88400426B11691FFAAB
:1028900081FBC9F800B0002B3FF4F1AE05F0EEF972
:1028A00040F6E44100230A2201FB0BF1B1FBF0F1F9
:1028B0000E4808F07BFC0121174808F0C3F9B4F872
:1028C00084100A4808F0B2FC3368D9F800B0D3F895
:1028D0008400D4E62C95FF1F5087FF1F5495FF1FDF
:1028E000BC92FF1F9175DD36180D01001488FF1F83
:1028F0006012010064120100501201000000FA434E
:102900000000FAC394B7FF1F2895FF1F00007A4408
:102910003812010044120100340D0100D092FF1F53
:102920000893FF1FE092FF1F2DE9F04F8F4C2368A3
:1029300085B0002B7AD08E4DDFF840828D4FDFF8C6
:102940008092D5F880308A4E012B00F08A80B46DD9
:10295000D7F800A0766D04FB06F44FF47A7000FB04
:1029600004F009F08DFE8449844E0446504609F077
:10297000DBFE214609F08CFF814909F0D5FE0AF003
:1029800099F86328C8F800004BDD20467A4909F021
:102990007FFF642338603360D9F80030002B3DD0CE
:1029A000EB6F734C012B00F08280032B00F0D28080
:1029B000022B00F0D5800221724808F043F9724BD7
:1029C000186809F007FA022402460B4600946F4883
:1029D00008F036FC21466E4808F034F92146694873
:1029E00008F030F9D8F80010684808F01FFC0621FC
:1029F000684808F027F938685F4909F095FE09F042
:102A0000E9F9009402460B46604808F019FC0321DE
:102A1000614808F017F95D4808F0B4FB05B0BDE85F
:102A2000F08F0028BCBF00233360B5E75B4E504DEC
:102A300033680293029A42F228339A4243D83368A9
:102A40000393039A42F210739A4243D8D5F8803028
:102A5000DFF82881474FDFF86891454E012B7FF45E
:102A600076AF4F48FEF7B4F84E49D6F870A0B46E72
:102A7000D6F86CB009F058FE0AF042F8736F009374
:102A8000524621465B4680B2FEF7F4FFB46D766D88
:102A900004FB00F006FB00F000EB8000400009F0B2
:102AA000EFFD354909F0F4FE8246386053E73E4BAE
:102AB0001B68012B4FF00A010CBF3C483C4808F052
:102AC000C1F8E36F71E736486A6C95F84010FDF77E
:102AD000F3FFB4E73248DFF8A480FEF779F8314914
:102AE000D5F86C902F6FAE6E09F01EFE0AF008F854
:102AF0006B6F00933A464B46314680B2FEF7BAFF01
:102B0000AA6D6B6DC8F8000002FB00F003FB00F03B
:102B100000EB8000400009F0B3FDDFF8A4901649F7
:102B2000144F09F0B5FED9F8003038600122226058
:102B3000002B3FF406AF0221124808F083F8134837
:102B400008F020FB59211B4808F07CF80F4808F0DA
:102B500019FBF6E61021184808F074F8EB6F27E728
:102B60000721164808F06EF825E700BFB892FF1F4E
:102B70001093FF1FE092FF1FE4388E3E3487FF1F43
:102B80000000C842180D0100D092FF1F1488FF1FDB
:102B900074120100141301001C13010094B7FF1FED
:102BA000C495FF1F00007A445087FF1FE012010008
:102BB000EC12010084120100F81201000C13010054
:102BC0004887FF1F30B5112083B006F04DF901286A
:102BD00018D0122006F048F9012813D000210B204C
:102BE00006F03CF900210C2006F038F900211520F0
:102BF00006F034F92649274B0120002208701A609C
:102C000003B030BD0121152006F028F9224A234CDB
:102C1000234B1268D4F8941001921B68019A1D4D41
:102C20000B4493424FF00201296005D901210C2089
:102C300006F014F903B030BDD4F89C0009F020FD73
:102C4000184B196809F00EFF0028EFD101210B2065
:102C500006F004F994F8C03003242C6043B10C4B07
:102C600002221A7000210C2006F0F8F803B030BDE3
:102C7000122006F0F9F8012808BF054B4FF01100AB
:102C800008BF1C7006F0F0F80128EBD1E7E700BFA1
:102C90009894FF1F5095FF1F94B7FF1F1093FF1FBD
:102CA0005895FF1FD092FF1FF0B56D4E6D4D3468E3
:102CB0002B689C4287B03AD014F0010156D014F032
:102CC00002014AD014F004013ED0E3070FD52B686F
:102CD000DF070CD4644F3A68002A00F09E80634BF3
:102CE0001B680193019B934200F289803468A0071E
:102CF0000DD52B6899070AD45D4F3A68002A3ED05B
:102D00005A4B1B680393039B93425AD8346862075B
:102D10000DD52B685B070BD4564F3A68002A3FD07D
:102D2000524B1B680593059B934258D834680CB1ED
:102D300007B0F0BD2146162005F010FF21461720F0
:102D400005F00CFF07B0F0BD052005F007FF2B686C
:102D5000346803F0FB032B60B7E7172005F0FEFE95
:102D60002B68346803F0FD032B60ABE7162005F0F9
:102D7000F5FE2B68346803F0FE032B609FE73E4BA3
:102D80001B68002B56D1FF21172005F0E7FE374BBB
:102D90003A4A19680291029912680A443A60B0E707
:102DA000354B1B68002B50D1FF21052005F0D6FEC6
:102DB0002E4B324A19680491049912680A443A6009
:102DC000AFE72F4B1720D3F8981005F0C7FE2B68FC
:102DD000346843F0020300222B603A6097E7284BE7
:102DE0000520D3F8981005F0B9FE2B68346843F03D
:102DF000040300222B603A60002C99D19AE7204B03
:102E00001620D3F8981005F0A9FE2B68346843F01B
:102E1000010300222B603A6069E7FF21162005F0CC
:102E20009DFE124B154A19680091009912680A44D8
:102E30003A6055E7134808F0A5F90C21124807F04D
:102E400001FF104808F09EF99DE70E4808F09AF936
:102E50000C210E4807F0F6FE0A4808F093F9A3E7A4
:102E60005095FF1FE093FF1F6494FF1F94B7FF1F4F
:102E70006894FF1F6C94FF1F4887FF1F6887FF1F20
:102E80001093FF1F1488FF1F20130100301301004F
:102E90002DE9F047534EDFF870813368DFF86C910D
:102EA000D3F88400504D0F2105F066F9002301226C
:102EB00022214E48C8F80030C9F8002007F0C2FEB1
:102EC000D8F80030132B20DC40F6E4473368B5F81F
:102ED00084A0D3F88400436B1C6904F0CFFEA4B235
:102EE000012107FB04F4B4FBF0F441485444A5F875
:102EF000844007F0A7FE642005F0ECFFD8F800300E
:102F00000133132BC8F80030E0DDB5F88430394ABE
:102F10003948A2FB03129B1A02EB5303C3F30F13AE
:102F20001946A5F8843008F081F91D21334807F0CF
:102F300089FE0221324807F085FE2F4808F022F969
:102F400000231A460E213068C8F8003004F010FE45
:102F5000022322212548C9F8003007F073FED8F873
:102F60000030132B20DC40F6E4473368B5F8869038
:102F7000D3F88400436B1C6904F080FEA4B20121E5
:102F800007FB04F4B4FBF0F419484C44A5F8864060
:102F900007F058FE642005F09DFFD8F8003001339B
:102FA000132BC8F80030E0DDB5F88630114A12481E
:102FB000A2FB03129B1A02EB5303C3F30F13194630
:102FC000A5F8863008F032F91D210E4807F03AFEC8
:102FD00002210B4807F036FE0748BDE8F04708F02D
:102FE000D1B800BF2C95FF1F1093FF1F40130100A5
:102FF00084130100876118861488FF1F6413010081
:10300000180D010088130100CC92FF1F5087FF1F8D
:10301000F8B57A4B7A4C7B4D1B68286D40F25131E4
:1030200008222160E271002B00F0E28009F028FB09
:10303000296A064609F078FB734909F075FB09F027
:103040005FFD80B203126372704A714B12681B6895
:10305000A96920721512A37230461B12E372227303
:10306000657309F061FB684909F05EFB09F048FDF2
:1030700083B21A1262496748A373E27304F0D0FB6B
:10308000654B664A1B6812885D49A272DFB207EB86
:10309000870503EB83066D0046F3D71612121B1249
:1030A0002772257366730825002640F25537594864
:1030B000E27263722760E571A673E67304F0B0FBF9
:1030C00040F2563356482360E571FDF7F1FC55494F
:1030D00009F02AFB09F014FD20725148FDF7E8FCC5
:1030E000504909F021FB09F00BFD4F4A4D49C0F34F
:1030F00007231068637209F0CBFB09F0DBFC40FA90
:1031000005F203464648E272A372FDF701FD3E490F
:1031100009F00AFB09F0CEFC20734148FDF7F8FCEA
:10312000394909F001FB09F0C5FC3549A67340F3A4
:10313000072338486373E67304F072FB022005F03E
:10314000C9FE3A4A3A4B17785678D178187892F8EF
:1031500002E02772DA785F786672E1729E782073F7
:1031600040F25A3326492B48E57184F80AE0677328
:10317000A673E273236004F053FB2E4B20491878AA
:103180005E789A782072187993F803E05F79667216
:10319000A2729E79DA79207340F25E331D4884F87A
:1031A0000BE0E2732360E5716773A67304F038FBEC
:1031B000022005F08FFE204BE5711E785A7893F8B7
:1031C00002E0D8781F799D79267262725E79DA7989
:1031D000E0724FF45C7384F80AE027736673A5739A
:1031E000E273236006490B48BDE8F84004F018BBC1
:1031F00009F046FA696906461CE700BFC092FF1F46
:103200004095FF1F1093FF1F000020412495FF1FD2
:10321000A492FF1FECB5FF1F3487FF1F3887FF1FE5
:10322000C495FF1F0000C842D092FF1F0C93FF1FE0
:10323000E893FF1F2C87FF1F5487FF1F38B5164CDC
:10324000164A2368101D12F8011F904241EA032319
:10325000F9D12360124C03F100432360114BDB6F63
:10326000022B11D0104B1B68012B00D038BD0F482A
:1032700007F088FF21680D4807F0D8FF03210C48AC
:10328000BDE8384007F0DEBC20680A4D09F0F8F9C7
:103290002860FFF741F8E5E78094FF1F7794FF1F50
:1032A0002095FF1F1093FF1F6094FF1F1488FF1FBE
:1032B000B4130100BC92FF1F30B53C4C3C4883B0B6
:1032C000214604F0ABF9236840F2C232934252D057
:1032D000A3F58C621F2A48D9A3F5FC630F2B3FD9B5
:1032E000344B1B68012B01D003B030BD324B1B683F
:1032F000012BF9D1314B32481B6801930A2200237C
:10330000019907F053FF2268284B002ADB7945DB3F
:103310002C492D480AF05CFB2B480AF091FB014632
:10332000294807F08FFC2568204B15F0804526D1F1
:10333000DB798BB1631925491A7A23480AF048FBD7
:1033400021480AF07DFB01461F4807F07BFC013550
:10335000E379EDB2AB42EDD8194807F013FFC3E7AC
:1033600012491B48FDF7EEFABAE710491848FDF775
:10337000E9FA2368B0E7FFF761FF2368A8E7154D76
:10338000114C0FCD0FC495E8030044F8040B204600
:1033900020F81419152107F055FCDDE70E490A48FD
:1033A00022F060420AF014FBB6E700BF7094FF1FE2
:1033B000ECB5FF1F4887FF1F6094FF1F94B7FF1FE6
:1033C0001488FF1FE01301009C94FF1F0C140100E0
:1033D000C495FF1FF4130100B8130100A24B1B7822
:1033E000052B00F0A1802DE9F04FA04CA04EA14D7F
:1033F000626EE36DA048326083B02B60FDF7E6FBA0
:10340000E16A09F02FFB08B100232B609A48FDF711
:10341000DBFBA16A09F044FB10B1002333602B6091
:103420009548FDF71FFBE16809F03AFB08B100235E
:103430002B609148FDF716FBE16809F031FB08B1FC
:1034400000232B608C48894FFDF7E4FA216909F0CD
:1034500009FB00286ED0002333602B68854F002BBA
:1034600053DD8548DFF80482FDF7AEFB216B09F0E0
:10347000F9FA002840F0C480804B7F481B687B4FDE
:10348000012B00F0FD80FDF7EDFAE16980466069EF
:1034900009F040F80146404609F002FB002834D00C
:1034A000286809F0EDF882467348FDF7DBFAD7F893
:1034B00014808346F969404609F02CF88146386E3D
:1034C00009F0DEF80446F86D09F0DAF8214609F053
:1034D00021F849460746584609F01CF80146384687
:1034E00009F022F949460746404609F013F801461B
:1034F000384609F0CDF9214609F00EF8014650464C
:1035000009F008F809F0D6FA28603368584A002B09
:10351000AFBF2B682B6800211160002B01DA00235C
:103520002B6003B0BDE8F08F5149524A00230B6075
:10353000136070475048FDF76DFAB96909F092FAC7
:10354000002888D13368DFF82891002B85DD4A48B0
:10355000FDF73CFB796B09F0A3FA002840F0B3803B
:103560004548424FFDF756FA216909F099FA0028BB
:1035700000F09F804048DFF8F480FDF74BFAD4F864
:10358000BC100746A06908F0C7FF0146384609F09D
:1035900069FA00283FF461AF306809F071F882469B
:1035A0003548FDF737FA8346D8F86400D8F8187024
:1035B00009F066F839468146584608F0ABFF49469F
:1035C0008346002008F0A6FF0146584609F0ACF8F3
:1035D000D8F8BC108346384608F09EFF394608F0FC
:1035E00099FF0146584609F053F9494608F094FFFF
:1035F0000146504608F08EFF09F05CFA30602CE777
:10360000386809F03DF883461B48FDF7DDFA019064
:10361000D8F85C00D8F82CA009F032F8019B81465C
:103620005146184608F076FF49460190002008F000
:1036300071FF019B0146184609F076F8514601904A
:10364000D8F8300008F066FF019B0146184609F0E3
:103650001FF9494608F060FF0146584608F05AFF36
:1036600009F028FA386007E79894FF1F1093FF1FAE
:103670002495FF1FA492FF1FC495FF1FC092FF1F38
:10368000FDF7F0F9E1698046206A08F043FF014642
:10369000404609F005FA00283FF437AF286808F0E3
:1036A000EFFF82461E48FDF7DDF9D7F820808346FC
:1036B00000E71B48FDF7AEF9B96909F0F1F90028F8
:1036C0007FF458AFC9E6D9F8000008F0D9FF824668
:1036D0001348FDF77BFA0190786ED7F8348008F034
:1036E000CFFF019B83464146184608F013FF014671
:1036F000584609F019F841468346B86A08F00AFFAF
:103700000146584609F0C4F8002108F005FF0146BB
:10371000504608F0FFFE09F0CDF9C9F800001FE798
:10372000C495FF1F08B5274807F02CFD0721264840
:1037300007F088FA112005F097FB0621F8B123481D
:1037400007F080FA122005F08FFB062100B3204815
:1037500007F078FA122005F087FB062108B31D4810
:1037600007F070FA132005F07FFB062110BB1A4802
:1037700007F068FA1348BDE8084007F003BD174892
:1037800007F060FA122005F06FFB06210028DED159
:10379000134807F057FA122005F066FB06210028AF
:1037A000DDD1104807F04EFA132005F05DFB06212D
:1037B0000028DCD00C4807F045FA0248BDE8084074
:1037C00007F0E0BC1488FF1F18140100201401004A
:1037D00030140100401401005814010028140100A5
:1037E00038140100481401005014010010B5254C94
:1037F0002368042B27DC01210B2005F02FFB01217E
:103800000C2005F02BFB0121142005F027FB0121E2
:10381000152005F023FBFF21162005F09FF9FF215D
:10382000172005F09BF9FF21052005F097F9FF21EE
:10383000062005F093F9236801330A2B2360C4BFE7
:103840000023236010BD00210B2005F007FB0021A1
:103850000C2005F003FB0021142005F0FFFA0021E5
:10386000152005F0FBFA0021162005F077F900215C
:10387000172005F073F90021052005F06FF90021EC
:10388000D6E700BF3C95FF1F70B5092182B0B9484B
:1038900005F042FE222005F0CDFDB74BD3F8A03055
:1038A000012BB64B1B7809D0052B10D8DFE813F09D
:1038B00043014801520157014D010B00002B00F05C
:1038C0005381052B03D10721AD4805F025FE2220A9
:1038D00005F0B0FDFF2005F0ADFDFF2005F0AAFDCD
:1038E000A84CFF2005F0A6FD0821A74805F014FE0E
:1038F0002168A64807F09AFCFF2005F09BFDFF20F9
:1039000005F098FDFF2005F095FD0921A04805F080
:1039100003FE21689D4807F089FCFF2005F08AFD21
:10392000FF2005F087FDFF2005F084FD0C2199485C
:1039300005F0F2FD984B9949186808F0A9FF08F0C6
:1039400049FA002402460B460094904807F078FCA0
:10395000FF2005F06FFDFF2005F06CFDFF2005F056
:1039600069FD09218E4805F0D7FD8E48FDF7D0F896
:1039700008F030FA009402460B46844807F060FCD9
:10398000FF2005F057FDFF2005F054FDFF2005F056
:1039900051FD0C21844805F0BFFD8248FDF716F962
:1039A00008F018FA009402460B46784807F048FCE5
:1039B000FF2005F03FFDFF2005F03CFDFF2005F056
:1039C00039FD0D21794805F0A7FD7648FDF7FCF893
:1039D00008F000FA009402460B466C4807F030FCF1
:1039E000FF2005F027FDFF2005F024FDFF2005F056
:1039F00021FD09216E4805F08FFD6A48FDF758F852
:103A00006C4908F091FE08F0E5F9009402460B4677
:103A10005E4807F015FCFF2005F00CFDFF2005F0C7
:103A200009FDFF2005F006FD0C21634805F074FD3B
:103A30005C48FCF7EFFF614908F076FE08F0CAF930
:103A4000009402460B46514807F0FAFBFF2005F0B0
:103A5000F1FCFF2005F0EEFCFF2005F0EBFC0D2152
:103A6000574805F059FD4F48FCF7FCFF534908F053
:103A70005BFE08F0AFF9009402460B46434807F09E
:103A8000DFFBFF2005F0D6FCFF2005F0D3FCFF2074
:103A900005F0D0FC0E214B4805F03EFD4148FCF7F7
:103AA000E1FF05463F48FCF7B5FF44490646284676
:103AB00008F03AFE41490546304608F035FE014619
:103AC000284608F027FD08F085F9009402460B46C9
:103AD0002E4807F0B5FBFF2005F0ACFCFF2005F0F9
:103AE000A9FCFF2005F0A6FC0C21374805F014FDC9
:103AF000364B2648196807F099FBFF2005F09AFC21
:103B0000FF2005F097FCFF2005F094FC09213048C8
:103B100005F002FD2F4B1D48196807F087FBFF20B9
:103B200005F088FCFF2005F085FCFF2002B0BDE811
:103B3000704005F07FBC0621274805F0EDFCC6E685
:103B40000721264805F0E8FCC1E60B21244805F0D2
:103B5000E3FCBCE60721234805F0DEFCB7E60821BC
:103B6000214805F0D9FCB2E60821204805F0D4FC34
:103B7000ADE600BF601401001093FF1F9894FF1F73
:103B8000E41101003487FF1F78140100E887FF1F4C
:103B90008414010090140100D092FF1F0000C8425D
:103BA000A0140100C495FF1FAC140100BC14010057
:103BB000CC14010000002041D814010000007A4418
:103BC000E8140100F8140100081501003495FF1FE6
:103BD000181501002487FF1FB4110100BC1101005A
:103BE000C4110100D0110100D81101006C140100B2
:103BF0002DE9F0418D4DD5F8B030042B3ED0032B8C
:103C00006ED0012B00F09880022B01D0BDE8F0812E
:103C1000874C8848237240F20E32012321462260ED
:103C2000E37103F0FDFD844B1B685B00FF2BC8BFF5
:103C3000FF23042140224FF441702060E171227281
:103C40006372286D08F01CFD696908F06DFD7B4901
:103C5000054608F025FF002800F0DE8029462846AA
:103C600008F05AFC08F04CFF80B20312E072A37215
:103C70006F497048BDE8F04103F0D2BD6C4C704A0A
:103C8000A379226043F001030822E271A371286D39
:103C900008F0F6FC696908F047FD6A4908F044FD40
:103CA00008F02EFF644B684A1B68126893FBF2F31E
:103CB00080B200261A120712607221465D48E37234
:103CC000A272277226736673A673E67303F0A8FDCB
:103CD000A279D5F8B03066F30002032BA27190D11F
:103CE000534C286DA3720122E823072140F2FF26DE
:103CF000227263722660E17108F0C2FC696908F003
:103D000013FD504908F010FD08F0FAFE4A4B4E4AE8
:103D10001B68126893FBF2F382B21E12171221463F
:103D200044486373E2722773A67303F079FDD5F8F4
:103D3000B030012B7FF468AF444B3D4C1B682360CF
:103D4000072280231020E271237205F08DF80028ED
:103D500069D13F4B1B68DFF8E0803B4F286D344E44
:103D600003EB83035B001A12A3726272D8F800306F
:103D70003A6893FBF2F31A126273A37308F080FCA3
:103D8000696908F0D1FC334B196808F0C3FB2D4971
:103D900008F0CAFC08F0B4FE80B20312314620736A
:103DA0002448E37203F03CFD022005F093F82A4B0F
:103DB0001B682360072280231020E271237205F024
:103DC00053F870BB224B1B68286D03EB83035B0029
:103DD0001A127272B37208F053FC696908F0A4FCFD
:103DE0001E4B196808F096FB164908F09DFC08F078
:103DF00087FE82B216123868D8F80030227393FB1F
:103E0000F0F30B490B48A3731A12E672627303F0C6
:103E100007FDD5F8B030F7E601229023A272E372D5
:103E200026E70F4BCFE70E4B94E700BF1093FF1F21
:103E30004095FF1FECB5FF1FA492FF1F00004843F1
:103E4000F4E50618000020414C87FF1F6087FF1F24
:103E50004087FF1FEC93FF1F6487FF1FE493FF1F42
:103E60004487FF1F38B5164D164A1748294604F0F7
:103E700061FA18B1154B1B68012B00D038BD122117
:103E80001348144C06F0DEFE296813480023102264
:103E900007F08CF9104807F075F904F1080514F8DB
:103EA000011F0D4800230A2207F080F9092006F0BF
:103EB0004DFFA542F3D10848BDE8384007F062B98C
:103EC000C892FF1FD892FF1F6095FF1F5C95FF1FD0
:103ED00024150100D792FF1F1488FF1FFA2810B580
:103EE00004461BD0B0F5FA7F0FD11021134804F01F
:103EF000E7FAC8B10F21124806F0A4FE114807F0F6
:103F000041F9114BA3F8C44010BD0F210F4806F032
:103F100099FE0C48BDE8104007F034B90F2107485E
:103F200004F0CEFA0028E5D11121094806F08AFEF6
:103F30000448BDE8104007F025B900BF6095FF1F99
:103F4000381501001488FF1F1093FF1F5C15010036
:103F5000481501002DE9F043C24B1B78032B83B0B9
:103F60000DD0C14D2C68022C00F090800134022C41
:103F70002C6001DD00232B6003B0BDE8F083BB4F54
:103F8000B94DD7F8B060042E00F0A280032E00F0E7
:103F90009980012E00F0D580022E39D12C68DFF8EF
:103FA000C892002C00F08281012CDCD1DFF8C482A1
:103FB000AF4BB04A1B68386D5B00FF2BC8BFFF23B7
:103FC0004021537088F8001008F05AFB796908F016
:103FD000ABFBA949044608F063FD002800F0CD8141
:103FE0002146204608F098FA08F08AFD80B20312B4
:103FF00088F8030088F80230042200238DE80401C9
:104000004FF441711A469D4804F060F9D7F8B0604A
:10401000062E5BD19A4C386D08210022DC235026F5
:10402000E17122726372266008F02AFB796908F058
:104030007BFB9149074608F033FD002840F0CB8018
:104040000722D023A272E372894B8D4E1868002399
:10405000237308F015FB394608F066FB89490746CB
:1040600008F000FD002800F0C1808749384608F0BC
:104070000FFC08F045FD80B20312B0737373012387
:104080007F498248E37303F0CBFB1FE0774B93F843
:10409000CC0000283FF46EAF764EA023337008F0BA
:1040A000EFFA7B4908F040FB08F02AFD002370700E
:1040B0001A468DE850004FF4EA71704804F006F992
:1040C0002C6853E72C68002C00F094802C684AE799
:1040D0002C68002CFAD1386DDFF89881DFF89091C8
:1040E0006C4E08F0CDFA796908F01EFB6A4908F0B9
:1040F0001BFB08F005FDCDF8048080B2D9F8003034
:10410000366893FBF6F6021208234FEA262E009338
:1041100088F8002088F80100234601225F495748AB
:1041200088F8036088F8044088F8054088F806405D
:1041300088F8074088F802E004F0C8F8D7F8B060C3
:1041400024E72B68002B00F0CC80012BBED1DFF8D8
:104150002481DFF81C914F4E464C8023102088F8B4
:10416000003004F081FE002840F00E814C4B1B68AB
:10417000386D03EB83035B001A126270A37008F0C2
:104180007FFA796908F0D0FA464B196808F0C2F94D
:10419000414908F0C9FA08F0B3FC434AD9F80030A5
:1041A0001168346893FBF4F480B207220023009274
:1041B000021288F80400261288F80320CDF8048043
:1041C0001A462E4888F8056088F8064004F07EF804
:1041D000D7F8B060E0E63049384608F0A5FA08F0B4
:1041E0008FFC80B20312E072A3722DE796237073E6
:1041F000B37344E7DFF87C80386D88F802600122F1
:10420000E82388F8002088F8013008F039FA796945
:10421000DFF85C901F4E08F087FA1F4908F084FA17
:1042200008F06EFC80B2CDF8048001120722D9F8A4
:104230000030366888F8030093FBF6F600924FEAE8
:10424000262E88F804102346224640F2FF210B4810
:1042500088F8056088F806E004F038F8D7F8B06010
:1042600097E600BF9894FF1FF093FF1F1093FF1F66
:10427000A492FF1FD892FF1F000048436095FF1FC4
:104280004095FF1F00404E4500007043ECB5FF1FF6
:104290005C8FA23F4C87FF1F00002041F4E5061809
:1042A0004087FF1FE493FF1F6487FF1FDFF8FC8038
:1042B000CDF80480042300932246234640F20E31B9
:1042C000324888F8006088F8014088F8024088F891
:1042D000034003F0FBFFD9F80030012B7FF496AECA
:1042E00066E6DFF8C8808023102088F8003004F0EC
:1042F000BBFD00283FD1264B1B68DFF8B490254E4C
:10430000386D254C03EB83035B001A1288F80230EA
:1043100088F80120D9F80030326893FBF2F31A12C2
:1043200088F8052088F8063008F0AAF9796908F0BD
:10433000FBF91A4B196808F0EDF8194908F0F4F97F
:1043400008F0DEFB174BCDF80480196880B200231B
:1043500007224FEA202E009288F804001A460B48E4
:1043600088F803E003F0B2FF2B68012B3FF4F4AEB2
:10437000D4F8B06010E60C4BBEE70122902388F819
:10438000022088F8033037E6074BF0E66095FF1F00
:104390004087FF1F4C87FF1F1093FF1FEC93FF1FE9
:1043A000000020416087FF1F4487FF1FD892FF1F36
:1043B000A492FF1F10B504F017FA0B48FCF766FA39
:1043C0000A48FDF723FB0A4A0A4812680023012124
:1043D00003F0FCFE942007F079F8044603F09AFB02
:1043E000054B1C6010BD00BFC495FF1F0094FF1F4C
:1043F0003C87FF1FE892FF1F2C95FF1F2DE9F0411E
:104400004FF47A6084B004F065FD0021112004F0BF
:1044100039FD0021102004F035FD0021122004F0A8
:1044200031FD0021132004F02DFD01210B2004F0AB
:1044300029FD01210C2004F025FD0121142004F0A8
:1044400021FD0121152004F01DFD0121162004F09D
:1044500019FD0121172004F015FD0121052004F0AC
:1044600011FD9F4C9F4D0121062004F00BFD012101
:104470000D2004F007FD208808F0FEF80146162004
:1044800004F06AFC208808F0F7F80146172004F0D1
:1044900063FC208808F0F0F80146052004F05CFC7D
:1044A000208808F0E9F800240146062004F054FCB6
:1044B000009423468C4A8D498D4802F0BFFFE6B236
:1044C000324688498A4802F067FF2B798549884837
:1044D0006FF30003013432462B7102F053FF082CB6
:1044E000EDD10924E6B232467E49814802F054FFFC
:1044F0002B797C497E4843F00103013432462B710D
:1045000002F040FF0D2CEDD17A4C7B4F23687B4E9F
:10451000D3F88400102103F05DFC23681021D3F848
:10452000840003F0EBFC23680221D3F8840003F03D
:10453000A7FB23680221D3F8840003F02FFD236832
:104540006F4CD3F884000F2103F016FE38686D4AD3
:1045500040F2EE2513783BB12378DB0704D53B68A6
:1045600031685B1A0E2B08D83B6811781B1A00299A
:1045700000F0B280B3F5FA6FECD90C21624806F076
:1045800061FB624806F0FEFD1621614806F05AFB09
:104590005E4806F0F7FD4FF4E1315E4806F082FC1C
:1045A0005A4806F0EFFD17215B4806F04BFB5748D1
:1045B00006F0E8FD594B1B78990600F1C980574B6E
:1045C0001B781A0700F1D080544B1B785B0700F171
:1045D000D780524B1B789E0700F1DE80504B1B7832
:1045E0001D0600F1E5804E4B1B785C0600F1EC8067
:1045F0004B4B1B78980600F1F380494B1B78590709
:1046000000F1FA80464B1B781A0700F10181444BF8
:104610001B789B0700F108813C4806F0B3FD72B699
:10462000404A4CF220504DF6281110802023118072
:10463000013BFDD13C4C3D483D4900234FF48055A2
:10464000258003800B8032F80E3C9BB243F0D303ED
:1046500022F80E3C62B618213648374D06F0F2FAC1
:104660002A4806F08FFD05F1D006A8462C46601BAF
:1046700004F000F904F8010BB442F8D198F80030C6
:10468000122B01D0FDF724FAD8F8C8102B4806F0F9
:10469000C1FC0420FDF796F8294B002201210D20D2
:1046A0001A6004F0DBFBD8F854102648FCF702FA35
:1046B000D8F8442098F840102248FCF7FDF93B68F0
:1046C000039303983B6802931F49204B029A0860AA
:1046D0001A6004B0BDE8F081AB427FF63BAF4CE717
:1046E0002887FF1FF493FF1F88B7FF1F48E80100CA
:1046F000ECB5FF1F2C95FF1F94B7FF1F04BAFF1FD7
:1047000098B9FF1F80B9FF1F6C1501001488FF1FA7
:104710007C150100E887FF1F9415010001F0074098
:1047200000F007400E20054004200540062005400B
:1047300016200540981601001093FF1FFC87FF1FED
:10474000B092FF1FC495FF1F5895FF1FFC93FF1FDA
:104750002121394806F076FA384806F013FD384B27
:104760001B781A077FF530AF0C21364806F06AFA3D
:10477000324806F007FD324B1B785B077FF529AF07
:104780000E21314806F05EFA2C4806F0FBFC2C4B5B
:104790001B789E077FF522AF17212C4806F052FAAE
:1047A000264806F0EFFC2A4B1B781D067FF51BAF51
:1047B0000E21284806F046FA204806F0E3FC244B78
:1047C0001B785C067FF514AF1221234806F03AFAF5
:1047D0001A4806F0D7FC1E4B1B7898067FF50DAFE4
:1047E00013211E4806F02EFA144806F0CBFC184B95
:1047F0001B7859077FF506AF1C21194806F022FAED
:104800000E4806F0BFFC124B1B781A077FF5FFAE6F
:104810001921144806F016FA084806F0B3FC0C4BB0
:104820001B789B077FF5F8AE18210F4806F00AFAAF
:10483000024806F0A7FCEFE6AC1501001488FF1F44
:1048400001F00740D0150100E0150100F01501004E
:1048500000F0074008160100181601002C16010090
:1048600040160100601601007C16010010B50146DB
:10487000044600230A221A4806F098FC184806F05D
:1048800081FCB4F5964F28D019D9B4F5164F14D041
:10489000B4F5E13F18D10421124803F02DFE124B6C
:1048A000C3F8C84005F066FA2146104806F0B2FB8E
:1048B0000C48BDE8104003F0F3BD0221ECE7B4F56D
:1048C000165F01D10021E7E70F21094806F0BAF988
:1048D0000348BDE8104006F055BC0121DCE700BFED
:1048E0001488FF1F6095FF1F1093FF1FFC87FF1F99
:1048F000B4160100F0B5954C954D83B006F03CF927
:1049000023682860042B00F09E82022B29D0092BFB
:1049100070D0082B40F09680322800F0EC8371288C
:1049200000F09D80312840F09E8006F061F900285B
:1049300040F311878748884E06F0BCFDC0B286F868
:104940004000022894BF01460021726C834888BF52
:1049500086F84010FCF7B0F8012369202360286036
:1049600018E3A0F13102422A7DD8DFE812F07F0778
:104970008B079907AB07F50704087C0011087C003A
:104980007C007C007C007C007C007C007C007C0047
:104990007C007C007C007C007C007C007C007C0037
:1049A0007C007C007C007C007C007C007C007C0027
:1049B0007C007C007C007C007C007C007C007C0017
:1049C0007C007C007C007C007C007C007C007C0007
:1049D0007C0079077C007C007C007C007C007C00F3
:1049E0007C007C007C007C007C007C007C007800EB
:1049F0007C001E08332801F04C8410DC312801F0C3
:104A00007A8432282FD10123236006F0F1F80028A0
:104A100015DD504806F04EFDFFF760FA0FE0342830
:104A20001BD10123236006F0E3F8002807DD494885
:104A300006F040FD642303FB00F0FFF717FF78202A
:104A400023682860072B40F0AB80332801F02A84CC
:104A500040F38682342801F05C84712803D100235E
:104A6000732023602860732808BF002B0CBF01202F
:104A70000020002867D0374806F084FB042138481E
:104A800006F0E0F8334806F07DFB1021354806F0CB
:104A9000D9F8304806F076FB1321334806F0D2F8F7
:104AA000324B2C48196806F0C1FB2A4806F06AFB15
:104AB00014212F4806F0C6F8264806F063FB1E2195
:104AC0002C4806F0BFF8234806F05CFB15212A4865
:104AD00006F0B8F81F4806F055FB1E21274806F0DF
:104AE000B1F81C4806F04EFB2021254806F0AAF834
:104AF000184806F047FB1921224806F0A3F815488C
:104B000006F040FB1621204806F09CF8114806F0FC
:104B100039FB12211D4806F095F80E4806F032FBCD
:104B20000F211B4806F08EF80A4806F02BFB0D21DA
:104B3000184806F087F8074806F024FB164A0021BB
:104B400001231160236003B0F0BD00BF8894FF1FF4
:104B5000A092FF1F1488FF1F1093FF1FC495FF1F13
:104B6000E41F0100EC1F0100002001002487FF1F4B
:104B7000142001002C2001004C20010064200100C1
:104B800084200100A8200100C4200100DC200100D5
:104B9000F0200100002101004887FF1F23682868DA
:104BA000062B40F08D80A0F13102402A3FF65BAF2A
:104BB00001A151F822F000BFFD5700006957000025
:104BC00093570000B9570000DF5700002958000034
:104BD0004D580000674A0000674A0000674A00001D
:104BE000674A0000674A0000674A0000674A000001
:104BF000674A0000674A0000674A0000674A0000F1
:104C0000674A0000674A0000674A0000674A0000E0
:104C1000674A0000674A0000674A0000674A0000D0
:104C2000674A0000674A0000674A0000674A0000C0
:104C3000674A0000674A0000674A0000674A0000B0
:104C4000674A0000674A0000674A0000674A0000A0
:104C5000674A0000674A0000674A0000674A000090
:104C6000674A0000674A0000674A0000674A000080
:104C7000674A0000674A0000674A0000674A000070
:104C8000674A0000674A0000674A0000674A000060
:104C9000674A0000674A0000674A0000674A000050
:104CA000674A0000674A0000674A0000674A000040
:104CB000674A0000674A00005F4A000023682868CE
:104CC000052B15D1332801F04C8340F39181352811
:104CD00001F03183C1F2568371287FF4C4AECF4A0C
:104CE00000237320136023602860BCE623682868D3
:104CF000032B40F0A480A0F13002422A3FF6B3AE6D
:104D000001A151F822F000BF154E00000F61000014
:104D1000376100007B6000009D600000BF60000004
:104D2000E7600000995F0000B75F0000DB5F0000F4
:104D3000674A0000674A0000674A0000674A0000AF
:104D4000674A0000674A0000674A0000674A00009F
:104D5000674A0000674A0000674A0000674A00008F
:104D6000674A0000674A0000674A0000674A00007F
:104D7000674A0000674A0000674A0000674A00006F
:104D8000674A0000674A0000674A0000674A00005F
:104D9000674A0000674A0000674A0000674A00004F
:104DA000674A0000674A0000674A0000674A00003F
:104DB000674A0000674A0000674A0000674A00002F
:104DC000674A0000674A0000674A0000036000006D
:104DD000BF5A00005D600000216000003F600000DD
:104DE000175F0000755A0000995A0000674A0000DA
:104DF000674A0000674A0000674A0000674A0000EF
:104E0000674A0000674A0000674A00008D5F0000A3
:104E10006D5F000005F0ECFE002841F3338280480E
:104E2000804E06F047FB01270346014662227E487A
:104E3000736527602A60FBF73DFE23682868012B15
:104E40007FF411AEA6E0A0F13002412A3FF60BAE8E
:104E500001A151F822F000BF595A0000715A000018
:104E6000BB590000D3590000F95900003D5A000019
:104E7000015A0000135A0000175A00001B5A000084
:104E8000674A0000674A0000674A0000674A00005E
:104E9000674A0000674A0000674A0000674A00004E
:104EA000674A0000674A0000674A0000674A00003E
:104EB000674A0000674A0000674A0000674A00002E
:104EC000674A0000674A0000674A0000674A00001E
:104ED000674A0000674A0000674A0000674A00000E
:104EE000674A0000674A0000674A0000674A0000FE
:104EF000674A0000674A0000674A0000674A0000EE
:104F0000674A0000674A0000674A0000674A0000DD
:104F1000674A0000674A0000674A0000FD59000028
:104F2000674A0000674A0000674A0000674A0000BD
:104F3000674A0000674A0000674A0000674A0000AD
:104F4000674A0000674A0000674A0000674A00009D
:104F5000674A0000674A0000674A00005F4A000095
:104F6000312801F0B28132287FF47DAD05F040FE9A
:104F700000287FF713AE2A482A4E06F09BFA07F066
:104F80007FFB2A4907F0D0FB61230122F0632260F6
:104F90002B601846A0F15203262B01F26A81DFE84C
:104FA00013F0DE0868096809680968096809680972
:104FB0006809680968096809680968096809680969
:104FC000C1004C0B88022503A5016809680968091E
:104FD0003A026809490B680968096809680968099B
:104FE000E3086809680968096809680968093501FA
:104FF000312801F0D58132287FF435AD05F0F8FD78
:1050000000287FF773AE0648064E06F053FA0122D9
:105010006B23C6F89C0022602B600BE0E492FF1F1C
:105020001488FF1F1093FF1FC495FF1F6F12833A50
:1050300005F0A2FD05F0DCFD0028F9D1914806F04D
:10504000A1F8904806F09EF88E4806F09BF88D482F
:1050500006F098F88B4806F095F821218A4805F06B
:10506000F1FD884806F08EF81521884805F0EAFD24
:10507000D6F89410834806F0D9F80221844805F048
:10508000E1FD804806F07EF81E21824805F0DAFD39
:10509000D6F89C107B4806F0C9F803217E4805F03D
:1050A000D1FD784806F06EF81E217C4805F0CAFD57
:1050B000D6F89810734806F0B9F8724806F062F80E
:1050C0001D21774805F0BEFDD6F8A4106D4806F006
:1050D000ADF86C4806F056F81E21724805F0B2FD96
:1050E000D6F8A810674806F0A1F8664806F04AF816
:1050F0000523236027E505F07BFD002840F330837E
:105100006048694E06F0D6F907F0BAFA674907F029
:105110000BFB0346024696F840106548736419E499
:1051200005F02AFD05F064FD05460028F8D1554834
:105130005D4E06F027F8534806F024F8514806F073
:1051400021F8504806F01EF84E4806F01BF81F21C3
:10515000584805F077FD4B4806F014F81C215648D6
:1051600005F070FD706A554907F0DEFA06F032FE70
:10517000009502460B46434806F062F8022150486B
:1051800005F060FD3F4805F0FDFF23214D4805F087
:1051900059FDF06B494907F0C7FA06F01BFE009570
:1051A00002460B46374806F04BF80221444805F00A
:1051B00049FD344805F0E6FF1921434805F042FD5A
:1051C000B06B06F007FE02250B46024600952D48FF
:1051D00006F036F829463D4805F034FD294805F02B
:1051E000D1FF19213A4805F02DFDB6F8B810254831
:1051F00006F01CF80321374805F024FD214805F08E
:10520000C1FF072323609EE405F0B6FC05F0F0FC27
:1052100005460028F8D11B48234E05F0B3FF194876
:1052200005F0B0FF174805F0ADFF164805F0AAFFDE
:10523000144805F0A7FF1221274805F003FD114887
:1052400005F0A0FF0F4805F09DFF0E4805F09AFFFE
:105250001921224805F0F6FC96F8C230002B41F0E7
:10526000C28004211E4805F0EDFC064805F08AFFC7
:1052700013211C4805F0E6FC024805F083FF0923D2
:10528000236060E41488FF1FDC190100001A01008C
:10529000EC180100181A010060120100381A010010
:1052A000581A0100781A01001093FF1F6F12833AF9
:1052B000C495FF1F381901005819010000007A44F5
:1052C000D0170100781901009C190100B8190100DC
:1052D000BC190100D8190100C8200100E81601001E
:1052E000041701007417010005F046FC05F080FC6E
:1052F00005460028F8D1A548A54E05F043FFA34870
:1053000005F040FFA14805F03DFFA04805F03AFF39
:105310009E4805F037FF11219E4805F093FC9B48FD
:1053200005F030FF28219C4805F08CFC70699B49F2
:1053300007F0FAF906F04EFD009502460B46934839
:1053400005F07EFF0221964805F07CFC8F4805F0B1
:1053500019FF1621934805F075FCF0698F4907F095
:10536000E3F906F037FD00950B460246874805F045
:1053700067FF02218A4805F065FC844805F002FFBA
:10538000D6F8B030002B32DD1D21874805F05AFCDD
:10539000F06D07F075F9854907F0C6F906F01AFDBA
:1053A000022502460B460095784805F049FF012189
:1053B0007F4805F047FC754805F0E4FE1F217D4855
:1053C00005F040FC306E07F05BF9784907F0ACF966
:1053D00006F000FD009502460B466C4805F030FFD4
:1053E0000121734805F02EFC684805F0CBFE112121
:1053F000714805F027FCD6F8B030062B00F2E486A1
:10540000DFE813F02D073207280723071E071907C7
:10541000DE0605F0B1FB05F0EBFB05460028F8D1F0
:105420005A485B4E05F0AEFE584805F0ABFE5748B3
:1054300005F0A8FE554805F0A5FE544805F0A2FE6B
:1054400015215E4805F0FEFB504805F09BFE182133
:105450005B4805F0F7FB2B460A2296F840104B48B4
:1054600005F0A4FE494805F08DFE2821554805F0B9
:10547000E9FB706C494907F057F906F0ABFC009561
:105480000B460246414805F0DBFE0221444805F088
:10549000D9FB3E4805F076FE13214B4805F0D2FBC0
:1054A0003A4805F06FFE08232360FFF74CBB05F078
:1054B00063FB05F09DFB0028F9D13448344E05F01C
:1054C00061FE324805F05EFE304805F05BFE2F4875
:1054D00005F058FE2D4805F055FE1F213B4805F00C
:1054E000B1FB2A4805F04EFE1E21394805F0AAFB03
:1054F000264805F047FE1A21364805F0A3FBF36F56
:10550000022B01F07880032B01F06C80012B01F05D
:1055100060800921304805F095FB1C4805F032FEFB
:1055200014212E481A4F05F08DFBB16F174805F076
:105530007DFE164805F026FE1C21294805F082FB59
:10554000D6F88010114805F071FE104805F01AFEDB
:105550001C21244805F076FBD6F8AC100B4805F06A
:1055600065FE0A4805F00EFEF56F25F00205012DD7
:1055700000F0C4871321144805F064FB034805F0CC
:1055800001FE02232360FFF7DEBA00BF1488FF1F6D
:105590001093FF1F50200100D417010000007A442F
:1055A000D01701000018010018180100CDCCCC3D27
:1055B000141D01003818010058180100AC2001002A
:1055C00088170100A417010074170100D41B010003
:1055D000F41B0100141C01008C1C0100981C01002C
:1055E000B01C0100D01C010005F0C6FA05F000FB5C
:1055F0000028F9D1BD48BE4D05F0C4FDBB4805F0FB
:10560000C1FDBA4805F0BEFDB84805F0BBFDB7487E
:1056100005F0B8FD1321B74805F014FBB34805F0B9
:10562000B1FD0D21B44805F00DFBB04805F0AAFD11
:105630000F21B24805F006FBB14BAC48196805F0E4
:10564000F5FDAA4805F09EFD1321AE4805F0FAFAD3
:10565000AD4BA648196805F0E9FDA44805F092FD98
:105660001221AA4805F0EEFAA94BA048196805F0E6
:10567000DDFD9E4805F086FD1121A64805F0E2FA01
:10568000A54B9A48196805F0D1FD984805F07AFDB8
:105690000E21A24805F0D6FAD5F8A010934805F0DF
:1056A000C5FD924805F06EFD19219D4805F0CAFA26
:1056B0009C4B8E48196805F0B9FD8C4805F062FDD9
:1056C0001121994805F0BEFA984B8848196805F0F1
:1056D000ADFD864805F056FD1021954805F0B2FA5B
:1056E000944B8248196805F0A1FD804805F04AFDF9
:1056F0001C21914805F0A6FA904B7C48196805F0EA
:1057000095FD7A4805F03EFD1E218D4805F09AFA78
:1057100095F8C130002B00F0AC860D21894805F0CA
:1057200091FA724805F02EFD1521874805F08AFA96
:10573000864B6E48196805F079FD6C4805F022FD2E
:105740001321834805F07EFA684805F01BFD042309
:105750002360FFF7F8B9664E96F84000FFF7F1B8FE
:1057600023682868FFF76EB905F042FA00287FF732
:10577000A5AA5E485E4E05F09DFE06F081FF7549C4
:1057800007F086F865230122F06122602B6018463D
:1057900000E405F02DFA00287FF790AA5348544EF4
:1057A00005F088FE00EB8000430001226520F365D0
:1057B00022602860FFF7EEBB05F01AFA00287FF799
:1057C0007DAA4A484A4E05F075FE00EB8000430072
:1057D00001226520336622602860FFF7DBBB444A64
:1057E000D2F8B0300133062BC8BF0023C2F8B03066
:1057F0000123652023602860FFF7CCBB05F0F8F992
:1058000000287FF75BAA3948394E05F053FE06F0B1
:1058100037FF504907F03CF8652301227061226090
:105820002B601846FFF7B6BB05F0E2F900287FF7BA
:1058300045AA2E482E4E05F03DFE65230122C6F8EE
:10584000B40022602B601846FFF7A4BB284B93F8E6
:10585000C020002A00F0C285002283F8C020C7E7DC
:10586000FDF716FB23682868FFF751B8204EB36F89
:10587000B3FA83F35B0901226320B36722602860D7
:10588000FFF788BB1A4ED6F88030B3FA83F35B0972
:1058900001226320C6F8803022602860FFF77ABBBF
:1058A0000123236005F0A4F9002805DD0F48104E00
:1058B00005F000FEC6F8AC000123632023602860D9
:1058C000FFF768BB0123236005F092F9002807DD8C
:1058D0000648074E05F0EEFD06F0D2FEC6F88C0035
:1058E000632028602368FFF714B800BF1488FF1FE7
:1058F0001093FF1F981A0100AC1A0100BC1A010096
:105900006094FF1FCC1A01005495FF1FE01A01009C
:105910009494FF1FF41A01003095FF1F081B01002B
:10592000181B01008494FF1F341B0100E492FF1F29
:10593000481B0100C492FF1F5C1B01005C87FF1F16
:105940007C1B01009C1B0100BC1B01005C95FF1F20
:105950007417010000007A440123236005F048F920
:105960000028BDDD5D485E4E05F0A4FD06F088FE12
:10597000C6F88800B4E70123236005F039F9002850
:10598000AEDD5648564E05F095FDA6F8BA00A7E7DD
:105990000123236005F02CF900288DDD4F48504E7F
:1059A00005F088FDC6F8900086E74D4AD36F0133B5
:1059B000032BC8BF0023D3677EE74A4A1368B3FAB4
:1059C00083F35B0901216420136021602860FFF7E5
:1059D000E1BA454A454F1368002B0CBF0123002351
:1059E0004FF001001360206040F00E8603466422F1
:1059F0002A606420FEF78BBF3D4ADFE73D4ADDE7C2
:105A000001233D482360FAF773FF3C4A2368106086
:105A1000EDE73B4AD2E73B4AD0E70123236005F09C
:105A2000E7F8002800F32E85374B1A68042AC4BF14
:105A300002221A6064232B602368DAE7284ED6F826
:105A4000A030B3FA83F35B0901226420C6F8A030CA
:105A500022602860FFF79EBA214E96F8C1300122DD
:105A60005340642086F8C13022602860FFF792BA64
:105A7000264AA3E705F0BCF800280DDD1748184EAC
:105A800005F018FD06F0FCFD214906F001FF01229A
:105A90006223306222602B6005F0AAF800280EDD38
:105AA0000E480F4E05F006FD06F0EAFD184906F017
:105AB000EFFE01226223C6F8BC0022602B6005F0D5
:105AC00097F8002840F3DE830448054E05F0F2FC09
:105AD00001226223B06622602B601DE01488FF1F44
