:1000000000800020BD010000597800001178000038
:1000100011780000117800001178000011780000BC
:100020001178000011780000117800005978000064
:1000300059780000117800004196000045970000B3
:10004000597800005978000059780000597800006C
:10005000597800005978000059780000597800005C
:10006000597800005978000059780000597800004C
:10007000597800005978000059780000597800003C
:10008000597800005978000059780000597800002C
:10009000597800005978000059780000597800001C
:1000A000597800005978000059780000597800000C
:1000B000597800002D6C0000396C00003D6C000088
:1000C000496C00004D6C0000516C00005978000034
:1000D00059780000597800005978000059780000DC
:1000E00059780000597800005978000059780000CC
:1000F000597800004D9E000059780000F5840000FA
:1001000059780000C1860000597800005978000035
:10011000597800005978000059780000597800009B
:10012000597800005978000059780000597800008B
:10013000597800005978000059780000597800007B
:10014000597800005978000059780000597800006B
:10015000597800005978000059780000597800005B
:10016000597800000D890000597800005978000086
:10017000597800005978000059780000597800003B
:10018000597800005978000059780000597800002B
:10019000597800005978000059780000597800001B
:1001A000597800005978000059780000597800000B
:1001B000597800005978000059780000564B4CF2ED
:1001C000205210B51A804DF628121A8000BF00BFC9
:1001D00007F046FB514B4FF010621A60504A9A608C
:1001E000504ADA60504A136813F4807304D14F49BF
:1001F0000B604FF4A85313604D4B1A78110703D5C9
:100200001A7842F008021A704A4B4B492A221A7097
:100210004A4A4B4B8B4204D252F8040F43F8040B6A
:10022000F8E7484B484900228B4202D243F8042B9E
:10023000FAE74649464A002352F8230041F82300D2
:1002400001336F2BF8D1434B434A802103F8011B44
:100250009342FBD1414B3D4A1A60414B8A221A70AE
:10026000A3F5805324225A70A0221A709A7992071B
:10027000FCD59A79D406FCD43A4A937903F00C035E
:10028000082B384BF9D103221A7140225A719A79FE
:100290009006FCD5334A9179324B4906FBD5324A58
:1002A000324911600221516020221A709A7902F0BD
:1002B0000C020C2AFAD12E4B2E4A1A602E4B2F4AD2
:1002C0001A6000225A60072243F8042C2C4AC3F813
:1002D0000C2D62B607F07AFD144B1B68DA0705D5C2
:1002E000284807F057FB284B284A1A60284B1B78F0
:1002F0005B0609D5244C254B22689A4204D121483B
:1003000007F048FB002323600BF088F807F0AEFAF3
:1003100009F05CFCFEE700BF0E2005403080044081
:10032000823F04000100002B10D0034014D0034092
:1003300002D0074000E007402892FF1F8C0E01000A
:100340002087FF1F2892FF1F60B9FF1F0082FF1F39
:100350000000000000E400E05FE400E008ED00E0E1
:100360000050064000400640448004400000030165
:1003700004800440C010050014E000E0FF76010096
:100380000000202048237B5C1CE00340A5C3945A56
:1003900000F00740FFFFFFFFFFFFFFFFFFFFFFFF32
:1003A000FFFFFFFFFFFFFFFFFFFFFFFFFFFFFFFF5D
:1003B000FFFFFFFFFFFFFFFFFFFFFFFFFFFFFFFF4D
:1003C000FFFFFFFFFFFFFFFFFFFFFFFFFFFFFFFF3D
:1003D000FFFFFFFFFFFFFFFFFFFFFFFFFFFFFFFF2D
:1003E000FFFFFFFFFFFFFFFFFFFFFFFFFFFFFFFF1D
:1003F000FFFFFFFFFFFFFFFFFFFFFFFFFFFFFFFF0D
:10040000FFFFFFFFFFFFFFFFFFFFFFFFDEF9FFFF23
:1004100010B5054C237833B9044B13B10448AFF33E
:1004200000800123237010BD2892FF1F00000000F0
:10043000880E0100084B10B51BB108490848AFF3FE
:1004400000800848036803B910BD074B002BFBD0A0
:10045000BDE81040184700BF000000002C92FF1FAD
:10046000880E01002892FF1F000000002DE9F041D6
:10047000002600F5C67400F5D0774FF0000854F858
:10048000045F0E4928460AF073FF0D4950B1284613
:100490000AF050FF30B1304629460AF0A5FC08F1B9
:1004A0000108064640460AF053FD014630460AF070
:1004B00057FEBC420646E2D1BDE8F0810000A0C173
:1004C00000001643F0B4194F0024031F00F180010F
:1004D00000F5827200F17C0643F8044FB34241F804
:1004E000047F4FF0000542F8044FF5D10023104A75
:1004F0001049C0F88C51C0F89051C0F89451C0F820
:100500009851C0F89C51C0F8A051C0F8B051C0F843
:10051000A421C0F8AC21C0F8A81180F8B83180F847
:10052000B93180F8D031F0BC704700BF0000A04066
:10053000000048430000C8C2013938B505461446DA
:100540000D291FD8DFE811F01F00480071009A0044
:10055000C300EC0015013E011E001E006801800171
:10056000A1010E00107A537A00F00300083398407E
:100570000AF0EEFCB1490AF03FFDB1490AF032FC45
:10058000C5F8A40138BD537A107A03EB00200AF0B5
:10059000DFFCAC490AF030FD6860E37AA07A03EB37
:1005A00000200AF0D5FCA7490AF026FDA860637B6D
:1005B000207B03EB00200AF0CBFCA2490AF01CFDD3
:1005C000E860E37BA07B03EB00200AF0C1FC9D49BF
:1005D0000AF012FD286138BD537A107A03EB00202F
:1005E0000AF0B6FC97490AF007FD6861E37AA07A41
:1005F00003EB00200AF0ACFC92490AF0FDFCA86174
:10060000637B207B03EB00200AF0A2FC8D490AF0FB
:10061000F3FCE861E37BA07B03EB00200AF098FC8D
:1006200088490AF0E9FC286238BD537A107A03EB56
:1006300000200AF08DFC83490AF0DEFC6862E37A50
:10064000A07A03EB00200AF083FC7E490AF0D4FC78
:10065000A862637B207B03EB00200AF079FC7949D8
:100660000AF0CAFCE862E37BA07B03EB00200AF0FF
:100670006FFC74490AF0C0FC286338BD537A107AC5
:1006800003EB00200AF064FC6E490AF0B5FC6863D5
:10069000E37AA07A03EB00200AF05AFC69490AF0D9
:1006A000ABFCA863637B207B03EB00200AF050FCCB
:1006B00064490AF0A1FCE863E37BA07B03EB002024
:1006C0000AF046FC5F490AF097FC286438BD537A6B
:1006D000107A03EB00200AF03BFC5A490AF08CFC2C
:1006E0006864E37AA07A03EB00200AF031FC5549F4
:1006F0000AF082FCA864637B207B03EB00200AF0F5
:1007000027FC50490AF078FCE864E37BA07B03EB0C
:1007100000200AF01DFC4B490AF06EFC286538BD2C
:10072000537A107A03EB00200AF012FC45490AF0D4
:1007300063FC6865E37AA07A03EB00200AF008FC0A
:1007400040490AF059FCA865637B207B03EB00203D
:100750000AF0FEFB3B490AF04FFCE865E37BA07B17
:1007600003EB00200AF0F4FB36490AF045FC28664A
:1007700038BD537A107A03EB00200AF0E9FB3149C7
:100780000AF03AFC6866E37AA07A03EB00200AF0EC
:10079000DFFB2C490AF030FCA866637B207B03EB6F
:1007A00000200AF0D5FB27490AF026FCE866E37B27
:1007B000A07B03EB00200AF0CBFB22490AF01CFCD3
:1007C000286738BD537A107A03EB00200AF0C0FB8B
:1007D0001C490AF011FC6867E37AA07A03EB002059
:1007E0000AF0B6FB17490AF007FCA867637B207B79
:1007F00003EB00200AF0ACFB12490AF0FDFBE867AE
:10080000E37BA07B03EB00200AF0A2FB0D490AF07A
:10081000F3FBC5F8800038BD107A537A00F003006E
:10082000083398400AF094FB04490AF0E5FB0449B8
:100830000AF0D8FAC5F8900138BD00BFD3BC633DBB
:100840005839DE410AD7A33A107A537A00F00300F0
:10085000083398400AF07CFB14490AF0CDFB144998
:100860000AF0C0FAC5F89401207A637A00F0030018
:10087000083398400AF06CFB0C490AF0BDFB0C49A8
:100880000AF0B0FAC5F8980138BD107A537A00F032
:100890000300083398400AF05BFB04490AF0ACFB04
:1008A00003490AF09FFAC5F89C0138BDD3BC633DEB
:1008B0005839DE4190F8C001704700BF90F8BC0184
:1008C000704700BF90F8C401704700BF90F8C8019E
:1008D000704700BF202994BF50F8210000207047C6
:1008E0002DE9F0410B4E8046041F00F17C0754F8BF
:1008F000045F314628460AF01DFD30B1D8F8B41126
:1009000028460AF035FD00B12E46BC42EFD13046F4
:10091000BDE8F081000020412DE9F041D0F8B4712C
:100920004FF00008041F00F17C0654F8045F3946BC
:1009300028460AF01DFD084948B128460AF0FAFC8D
:10094000414620B128460AF013FD00B1A846B44242
:10095000EBD14046BDE8F0810000A0402DE9F04712
:10096000D0F8B47182464FF00009041F00F17C06F4
:100970004FF0000854F8045F394628460AF0F8FCA6
:100980000C4950B128460AF0D5FC30B148462946FA
:100990000AF02AFA08F101088146B442EAD1CAF8FD
:1009A000D48140460AF0D4FA014648460AF0D8FB02
:1009B000BDE8F08700007042D0F8D401704700BF56
:1009C000D0F8CC3170B5044683BBFFF74FFD4FF034
:1009D0007C510AF0CDFC40B3D4F890614FF07C51CB
:1009E00030460AF0C5FCD4F8945118BBD4F89841AD
:1009F0004FF07C5128460AF0BBFC58B129463046DE
:100A00000AF0B6FC30B1214628460AF093FC08B142
:100A10002C4625E04FF07C5120460AF0A9FC20B17D
:100A2000284621460AF0A4FCA0B970BD633350F8F3
:100A30002300CCE7304629460AF07CFCD4F89841E4
:100A40000028D5D0304621460AF074FC0028CFD0CB
:100A5000344605E0304621460AF08AFC0028E4D0FE
:100A6000204670BD38B5D0F89441D0F89051214659
:100A700028460AF05FFC00B92C46204638BD00BF6E
:100A8000D0F8CC310BB9FFF7F1BC633350F8230039
:100A9000704700BF2DE9F8434FF00008D0F8B4715B
:100AA000C0F88C818146041F00F17C0654F8045F75
:100AB000394628460AF05CFC084950B128460AF03D
:100AC00039FC30B1404629460AF08EF98046C9F813
:100AD0008C01B442EAD14046BDE8F8830000704280
:100AE00002299ABF643150F821000020704700BFEE
:100AF000102998BF80F8D011704700BF90F8B80156
:100B0000704700BF90F8B901704700BFC0F8CC1122
:100B1000704700BF80F8B811704700BF80F8B91166
:100B2000704700BF30B5C0F8B41183B0084609F073
:100B3000B9FD074C022502460B460095204608F0F9
:100B400007FF204603B0BDE8304008F0A9BE00BF53
:100B5000CC87FF1F70B500F5FE550646043500F141
:100B60002804204604F5EE74FFF7ACFCAC42F8D143
:100B700006F50175012428460021FFF7CBFF214629
:100B800028460134FFF7B4FF112C05F5EE75F2D1BC
:100B900041F6CC7400250548054A064B3555002121
:100BA00030617161B261F361304670BD00007A441A
:100BB000000048430000C8C270B500F5EA464C3654
:100BC00000F50174002508E001252046002104F508
:100BD000EE74FFF7A3FFB4420AD02046FFF78EFF62
:100BE0000028F2D02046FFF78DFF0028ECD170BD21
:100BF000284670BD41F6D0732DE9F041002200F582
:100C0000EF5500F5FE578046C2500835103700F505
:100C1000017403E004F5EE74AC420ED02046FFF7F9
:100C20006DFF0028F6D020463E68FFF7C5FE04F5AC
:100C3000EE743044AC423860F0D141F6D07358F8CD
:100C40000300BDE8F08100BF70B50D46096840F2B1
:100C50007643994200F00B811ED940F2E37399422A
:100C600000F0178150D840F27D43994200F0F680A1
:100C700062D9B1F5FC6F00F0068140F2D58040F2F8
:100C8000E173994200F0BB8040F2E273994240F078
:100C9000C98001230C2692E040F26A43994200F099
:100CA000048118D840F26443994200F0018154D97C
:100CB00040F26643994200F0F580C0F0ED80B1F556
:100CC0008D6F00F0908040F26943994240F0AA8015
:100CD00003231E4673E040F27143994200F0C18045
:100CE0005CD940F27343994200F0C780C0F0C280E3
:100CF00040F2744399427FD040F27543994240F0EC
:100D00009180022304265AE040F2E973994200F0F0
:100D1000AB8033D940F2EC73994200F09C8040F2F2
:100D2000908040F2ED73994260D040F2EE739942A8
:100D300078D104230D2642E040F27943994200F035
:100D4000A58065D940F27A4399425ED040F27C4357
:100D5000994267D10423012631E040F26143994270
:100D600000F08E8067D940F2624399424AD040F247
:100D70006343994256D10123072620E040F2E573F0
:100D800099421AD0C0F08B8040F2E673994214D099
:100D9000B1F5FD6F46D103230B2610E040F26D4301
:100DA000994255D03AD940F26E43994221D0B1F5DB
:100DB0008E6F37D10123022601E002230C264FF467
:100DC000EE7404FB0304283420460121FFF7A2FE41
:100DD00020460121FFF7A2FE2A4631462046BDE803
:100DE0007040FFF7A9BB03230126E8E704230C2684
:100DF000E5E704231E46E2E702231E46DFE7012360
:100E00000D26DCE701230526D9E703230626D6E7CE
:100E1000B1F58F6F06D103230226D0E740F26C4371
:100E2000994297D00023CAE740F27E439942F9D114
:100E300004230526C3E7B1F58C6FF3D101231E46C9
:100E4000BDE740F2EA739942ECD103230D26B6E7E1
:100E500004230226B3E704230B26B0E7042303266A
:100E6000ADE701230426AAE703230C26A7E7022304
:100E70000626A4E701230626A1E7012308269EE70C
:100E8000012303269BE701230B2698E7032304266F
:100E900095E701230E2692E7022303268FE702231C
:100EA0000B268CE70223052689E70323052686E720
:100EB0000223012683E700BF70B5002300F5FE562C
:100EC00005460360043600F5017403E004F5EE7492
:100ED000A64223D02046FFF711FE0028F6D0204678
:100EE000FFF7D8FD0146286809F07EFF28602046FC
:100EF000FFF766FDA9690AF01DFA20BB2046FFF73F
:100F0000B1FDE9690AF034FA0028DFD02046FFF786
:100F1000A9FD04F5EE74A642E861DBD168680AF029
:100F200017F8014628680AF01BF969692860044629
:100F30000AF01EFA00B16C61296920460AF0FAF93C
:100F400000B12C6170BD2046FFF73AFDA861D5E7DE
:100F500070B5124B836000F5FE550646043500F56A
:100F6000017403E004F5EE74AC4214D02046FFF7A0
:100F7000C5FD0028F6D02046FFF7B2FCB1680AF0A4
:100F8000D9F90028EED02046FFF7AAFC04F5EE744C
:100F9000AC42B060EAD1B06870BD00BF0000A040B4
:100FA00070B5002300F5FE550646C360043500F514
:100FB000017403E004F5EE74AC4214D02046FFF750
:100FC0009DFD0028F6D02046FFF7A6FCF1680AF048
:100FD000CFF90028EED02046FFF79EFC04F5EE7412
:100FE000AC42F060EAD1F06870BD00BF00687047A5
:100FF00041607047F8B50F46164600F501740125AB
:1010000004E00135112D04F5EE741BD02046FFF7E6
:1010100075FD0028F5D029460B4808F091FC0A48D8
:1010200008F03EFC782008F029FA20463946FFF700
:101030006DFD013520463146FFF774FD112D04F595
:10104000EE74E3D1F8BD00BFCC87FF1F2DE9F84354
:1010500000F5FE5541F6C8732E4600278046C7505E
:101060004FF000090435083600F5017403E004F57B
:10107000EE74A54214D02046FFF740FD0028F6D0BC
:101080003368013333602046FFF7FAFC1D490AF04C
:101090006FF990B904F5EE74A54207F10107EAD1A2
:1010A00041F6C87358F80300C01B09F051FF014610
:1010B00048460AF055F8BDE8F8832046FFF7E0FC03
:1010C0000146484609F090FE81462046FFF7D8FCCD
:1010D000D8F820100AF04CF970B92046FFF7D0FC80
:1010E000D8F824100AF026F90028C0D02046FFF7CF
:1010F000C7FCC8F82400BAE72046FFF7C1FCC8F8CF
:101100002000EAE700008CC2006A7047406A70471E
:10111000F8B500F5FE5507460026043500F50174C4
:1011200003E004F5EE74AC4210D02046FFF7E6FC75
:101130000028F6D02046FFF711FC0146304609F0A2
:1011400053FE04F5EE74AC420646EED141F6C87388
:10115000F85809F0FDFE014630460AF001F8F8BDE6
:101160002DE9F04F8FB00446C4480C9100F070FB9D
:10117000C24800F06DFBC14800F06AFB41F6C8733D
:10118000204654F803A0FFF735FD63680D938146B0
:10119000206809F087FA064620460F46FFF7B8FF99
:1011A00083462046D4F80C80A568FFF74FFF09F06E
:1011B00079FACDE90A012946404609F013FEB04903
:1011C00009F01AFF09F06EFACDE90801404609F06E
:1011D00069FACDE90601284609F064FACDE904016F
:1011E000584609F05FFA4A46CDE902010D9BA54831
:1011F0005146CDE9006700F02BFBA04800F028FB2A
:1012000004F501744FF001094FF0000807E009F1FF
:101210000109B9F1100F04F5EE7400F02C8120469D
:10122000FFF76CFC0028F2D02046FFF743FB204676
:10123000FFF744FB2046FFF745FB2046FFF746FB40
:101240000821914808F096F84946904808F078FB44
:10125000B9F1090F03DC01218D4808F08BF8022158
:101260008C4808F087F82046FFF714FC09F01AFABA
:101270009DF83070009702460B46844808F068FBE2
:101280000121854808F076F8464601251FE0062131
:10129000824808F06FF831467C4808F051FB022183
:1012A0007F4808F067F829462046FFF713FB09F04E
:1012B000F9F9009702460B46744808F049FB0135DE
:1012C0000121754808F056F80C2D09D05E46092E0C
:1012D00006F1010BDBDC01216D4808F04BF8D6E785
:1012E0000F21704808F046F8684808F0D9FA08F16C
:1012F0000B0A08F116050D261FE00621674808F0C5
:1013000039F85146614808F01BFB0221644808F097
:1013100031F831462046FFF7DDFA09F0C3F90097AE
:1013200002460B46594808F013FB01215A480E4467
:1013300008F020F85D450AD0DA46BAF1090F0AF143
:10134000010BDADC0121524808F014F8D5E70F212F
:10135000544808F00FF84D4808F11D0808F0A0FAAD
:1013600019261FE006214D4808F004F82946474891
:1013700008F0E6FA02214A4807F0FCFF3146204611
:10138000FFF7A8FA09F08EF9009702460B463F488E
:1013900008F0DEFA012140480E4407F0EBFFD84583
:1013A00009D05D46092D05F1010BDBDC0121384830
:1013B00007F0E0FFD6E709213B4807F0DBFF0021FB
:1013C0002046FFF78DFB09F06DF9022502460B461A
:1013D00000952E4808F0BCFA0A21344807F0CAFFED
:1013E00001212046FFF77CFB09F05CF900950246DD
:1013F0000B46264808F0ACFA0A212D4807F0BAFF40
:1014000029462046FFF76CFB09F04CF9009502468F
:101410000B461E4808F09CFA0A21264807F0AAFF4E
:1014200003212046FFF75CFB09F03CF900950246DA
:101430000B46164808F08CFA0A211F4807F09AFF5D
:1014400004212046FFF74CFB09F02CF900950246D9
:101450000B460E4808F07CFA0121184807F08AFF75
:1014600009F10109094808F01BFAB9F1100F04F558
:10147000EE747FF4D4AE0FB0BDE8F08FC8F6000074
:1014800000007A4460F8000000F90000CC87FF1FDC
:1014900034FB0000440701000CF9000010F90000C3
:1014A00024FB000018F9000028F9000034F90000BE
:1014B00040F900004CF9000058F9000064F9000000
:1014C0002DE9F04F85B000F501758A4603929B46E1
:1014D0002E464FF0010806E008F10108B8F13F0F71
:1014E00006F5EE767BD03046FFF708FB0028F3D0F8
:1014F00000230A2251467D4808F0E2F901217C4888
:1015000007F038FF039809F0CDF800230246009356
:1015100076480B4608F01CFA0121754807F02AFFAF
:101520005946724808F00CFA0121714807F022FF71
:1015300041466E4808F004FA01216D4807F01AFF91
:1015400000244FF0020921463046FFF7C3F909F0A5
:10155000A9F8CDF8009002460B46644808F0F8F967
:1015600001340121624807F005FF082C4FF0020703
:10157000E9D100213046FFF7B3FA09F093F800975C
:1015800002460B46594808F0E3F90121584807F094
:10159000F1FE01213046FFF7A3FA09F083F8009726
:1015A00002460B46514808F0D3F90121504807F094
:1015B000E1FE39463046FFF793FA09F073F80097D9
:1015C00002460B46494808F0C3F908F101084748AC
:1015D00008F066F9B8F13F0F06F5EE7683D10127E2
:1015E0004FF0000904E001373F2F05F5EE7579D083
:1015F0002846FFF783FA0028F5D000230A22514637
:101600003C4808F05DF90121394806F06FFE039867
:1016100009F048F8CDF8009002460B46354808F02E
:1016200097F90121324806F061FE5946314808F029
:1016300087F901212E4806F059FE39462D4808F059
:101640007FF901212A4806F051FE00244FF00208DC
:1016500021462846FFF73EF909F024F8CDF800802E
:1016600002460B46234808F073F901340121204853
:1016700006F03CFE082C4FF00206E9D10021284676
:10168000FFF72EFA09F00EF8009602460B461948AD
:1016900008F05EF90121164806F028FE01212846CF
:1016A000FFF71EFA08F0FEFF009602460B461148AF
:1016B00008F04EF901210E4806F018FE3146284682
:1016C000FFF70EFA08F0EEFF009602460B460948B7
:1016D00008F03EF90137074808F0E2F83F2F05F51A
:1016E000EE7585D105B0BDE8F08F00BFCC87FF1F38
:1016F00068F90000BC87FF1F014B1870704700BFDE
:101700002087FF1F0278002A00F0908070B5034602
:1017100082B00D46252A2AD158785C1C08B32528AA
:101720002FD0732831D0642824D0692822D066288D
:101730004FD07A2859D0782835D058282FD0622811
:101740003ED0422838D06C2814D0632812D0742898
:1017500057D054285FD007F091FE6278631C002AAE
:10176000D8D1344802B0BDE8704008F099B8187874
:101770001C46F0E72B1D29682E481D4608F0E0F8AE
:10178000EBE7104607F07AFEE7E72E6830460AF0EE
:1017900037FC01463046043507F0ECFDDDE7022159
:1017A000254807F0E7FD2E1D296822480023102256
:1017B000354608F085F8D0E70221204807F0DAFD29
:1017C0002E1D29681B4800230222354608F078F8B0
:1017D000C3E7073525F007050321D5E900231548A0
:1017E0000091083508F0B4F8B7E7073525F007058C
:1017F0000021D5E900230F480091083508F0A8F82A
:10180000ABE7296801290EBF0D480E4801210435B8
:1018100007F0B0FDA1E72B68012B07BF04210A48A0
:101820000A480521043507F0A5FD96E7014808F0B0
:1018300037B800BFCC87FF1F6CF9000070F90000BB
:1018400074F9000078F900007CF9000084F90000C8
:101850000FB400B583B004A951F8040B0191FFF750
:1018600051FF03B05DF804EB04B0704730B4074D8E
:10187000074C084900232B7023600365436583658B
:1018800080F85C300B6030BC704700BF4C92FF1F8B
:101890004892FF1F4492FF1FF8B53A483A4F3B4D1C
:1018A0003B4E3C4CFFF7D4FF3B4B3C493C4A3D4848
:1018B0005960DA603C491F6100223C4F58615D620B
:1018C0003B489E614FF07C553A4E9C623A4CD9623F
:1018D0001A630C21394A5F639863394F5D6440F69F
:1018E0001C400A259E64DC6441F204065A241965F2
:1018F0001A6202210122C3F8B8709866314FDD6682
:10190000002064251E675C674FF496763224597078
:1019100059721A725A65DF61DF6383F840005E66B0
:10192000DE651C664FF47A7E9D65274F9867274ECB
:10193000D967C3F88000C3F89440C3F8A040C3F847
:101940009C00FF24C3F8A820C3F8AC10052041F286
:10195000883183F8BC2040F2D662C3F8B050C3F897
:1019600098E0C3F88870C3F88C60C3F8A440A3F86B
:10197000B600C3F89010A3F8B410A3F88420A3F81D
:101980008620F8BDB0F9000000004040CDCCCC3D31
:10199000CDCC4C40000082423C93FF1F48E8010040
:1019A0006666864033338340000020C10000204239
:1019B0000000A0409A9979400AD7233D3333734001
:1019C0009A99993ECDCC4C3E0000684200C020441C
:1019D000F0B54FF47A6085B006F0AAF900210F2027
:1019E00006F07EF900210E2006F07AF90021112080
:1019F00006F076F90021102006F072F9002112207D
:101A000006F06EF90021132006F06AF901210B207F
:101A100006F066F901210C2006F062F9012114207C
:101A200006F05EF90121152006F05AF90121162071
:101A300006F056F90121172006F052F90121052080
:101A400006F04EF98B4C8C4D0121062006F048F92A
:101A500001210D2006F044F9208809F075FA0146AD
:101A6000162006F0A7F8208809F06EFA0146172024
:101A700006F0A0F8208809F067FA0146052006F074
:101A800099F8208809F060FA00240146062006F043
:101A900091F800942346794A79497A4804F06EFD1A
:101AA000E6B232467449774804F016FD2B79724944
:101AB00074486FF30003013432462B7104F002FDC9
:101AC000082CEDD10924E6B232466B496D4804F08A
:101AD00003FD2B7968496B4843F00103013432461A
:101AE0002B7104F0EFFC0D2CEDD1674C4FF0FF3261
:101AF0002068102105F00EF920684FF0FF32102108
:101B000005F0E0F820684FF0FF32022105F0EEF812
:101B100020684FF0FF32022105F0F2F800220F2179
:101B2000206805F001F90C21584807F023FC5848BB
:101B300007F0B6FE1421574807F01CFC544807F084
:101B4000AFFE534807F0ACFE1721534807F012FCD4
:101B50004F4807F0A5FE514B1B789A0600F1B8805C
:101B60004E4B1B781B0700F1BF804C4B1B785F0767
:101B700000F1C680494B1B789E0700F1CD80484B91
:101B80001B781D0600F1D480454B1B785C0600F1E4
:101B9000DB80434B1B78980600F1E280404B1B78BA
:101BA000590700F1E9803E4B1B781A0700F1F080DD
:101BB0003B4B1B789B0700F1F780354807F070FE20
:101BC00072B6384A4CF220534DF628112024138067
:101BD00023461180013BFDD1334D34483449002365
:101BE0004FF480562E8003800B8032F80E3C9BB25F
:101BF00043F0D30322F80E3C62B69D2006F000FDB0
:101C000021462C482C4D07F0B5FB214807F048FE33
:101C100005F1C0062F462C46601B05F067FD04F851
:101C2000010BB442F8D13B78102B01D0FFF734FE02
:101C30000420FFF761FD214B002201210D201A60D5
:101C400006F03AF8796D1E48FFF7D2F97A6C97F8EA
:101C500040101B48FFF7CEF91A4B1B491A68039234
:101C600003981B680293029A184B08601A6005B02B
:101C7000F0BD00BF2887FF1F0894FF1F5CB6FF1F41
:101C800048E80100C0B4FF1FB894FF1FD0F900005E
:101C9000CC87FF1FE0F90000F8F9000001F00740D1
:101CA00000F007400E2005400420054006200540B6
:101CB00016200540FCFA00003C93FF1F6492FF1FB2
:101CC000EC94FF1F68B6FF1FE894FF1F1094FF1FDE
:101CD0002121394807F04EFB384807F0E1FD384B29
:101CE0001B781B077FF541AF0C21364807F042FBFC
:101CF000324807F0D5FD324B1B785F077FF53AAFCE
:101D00000E21314807F036FB2C4807F0C9FD2C4B5B
:101D10001B789E077FF533AF17212C4807F02AFB6D
:101D2000264807F0BDFD2A4B1B781D067FF52CAF1A
:101D30000E21284807F01EFB204807F0B1FD244B78
:101D40001B785C067FF525AF1221234807F012FBB4
:101D50001A4807F0A5FD1E4B1B7898067FF51EAFAD
:101D600013211E4807F006FB144807F099FD184B95
:101D70001B7859077FF517AF1C21194807F0FAFAAD
:101D80000E4807F08DFD124B1B781A077FF510AF38
:101D90001921144807F0EEFA084807F081FD0C4BB2
:101DA0001B789B077FF509AF18210F4807F0E2FA6F
:101DB000024807F075FD00E710FA0000CC87FF1F0E
:101DC00001F0074034FA000044FA000054FA000021
:101DD00000F007406CFA00007CFA000090FA000066
:101DE000A4FA0000C4FA0000E0FA000070B5464C06
:101DF000464D4748E66800232B70FFF7D1F80146AF
:101E0000304609F097FA08B104232B704048FFF7D9
:101E10009FF8216909F08EFA18B12B7843F010036E
:101E20002B703B48FFF712F9A16A09F0A1FA18B12B
:101E30002B7843F040032B70002335486B70FFF77D
:101E400005F9E16A314E09F075FA08B101237370A2
:101E500000232F48EB70FFF7A3F805462C482B4EC4
:101E6000FFF776F80146284608F0BCFFE16B09F061
:101E70007FFA08B10123F370264D254800232B700B
:101E8000FFF78EF8616A0646E06808F0ABFF01468E
:101E9000304609F06DFA08B104232B701C48FFF797
:101EA00057F8616A0646206908F09EFF01463046F1
:101EB00009F040FA18B12B7843F010032B70144846
:101EC000FFF7C4F8A16B0646A06A08F08BFF014635
:101ED000304609F04DFA18B12B7843F040032B70CF
:101EE00000230B486B70FFF7B1F8A16B0546E06A61
:101EF000084C08F079FF0146284609F01BFA08B1A2
:101F00000123637070BD00BF3C93FF1F3893FF1F18
:101F1000EC94FF1FA894FF1F2DE9F0417C4C23682F
:101F2000012B82B031D0022B00F0A880032B00F0EF
:101F3000C8803BBB774B784AD3F8A010D3F8A430C5
:101F400012685B1A632B0EDD744803FB02F380FBFF
:101F50000302DB17C3EB62131944062002B0BDE88D
:101F6000F04105F029BD6E4803FB022380FB03020C
:101F7000DB17C3EB22121144062002B0BDE8F0418A
:101F800005F01ABD02B0BDE8F081664E33680A3331
:101F9000B3F57A7F00F3B7801846336008F0D8FFB6
:101FA000614909F029F880465A4DD5F8A00008F09B
:101FB000CFFF0746D5F8A40008F0CAFF394608F05D
:101FC00011FF414609F018F8584909F0C9F8394697
:101FD00008F00AFF09F0D6F90146062005F0ECFCEE
:101FE0000221534807F0C6F9524807F059FC062170
:101FF000514807F0BFF9306808F0AAFF4A4908F0D5
:10200000FBFF08F04FFB022702460B4600974948AA
:1020100007F09EFC0D21494807F0ACF9D5F8A00067
:1020200008F096FF8046306808F092FF3E4908F0BD
:10203000E3FF0646D5F8A40008F08AFF414608F001
:10204000D1FE0146304608F0D7FF384909F088F83C
:10205000414608F0C9FE08F025FB00970B460246F2
:10206000344807F075FC3946314807F083F93148A8
:1020700007F016FC2368022B7FF458AF294B254E3E
:1020800000221A60D6F8A00008F062FF0546D6F8D4
:10209000A40008F05DFF294608F0A4FE002108F026
:1020A000ABFF224909F05CF8294608F09DFE09F0D3
:1020B00069F90146062005F07FFC2368032B7FF4B5
:1020C00038AF184B134E4FF47A721A60D6F8A0004E
:1020D00008F03EFF0546D6F8A40008F039FF29466F
:1020E00008F080FE114908F087FF104909F038F820
:1020F000294608F079FE09F045F90146062005F069
:102100005BFC236815E700234FF0000833604BE7C2
:102110009494FF1F3C93FF1F3487FF1F1F85EB51D3
:10212000CBF08D286892FF1FCDCCCC3D0000C8427B
:1021300044070100CC87FF1F20FB000028FB0000A4
:1021400070B59D489D4C07F0ABFB9B4807F0A8FB82
:10215000994807F0A5FB0D21994807F00BF9D4F831
:102160009C30012B11D0974C9348217800230A22F0
:1021700007F0A6FB2378052B67D8DFE813F0E4000F
:10218000E900EE00F300F800DF0009218E4807F0B7
:10219000F1F88E48FEF7DCFE216909F0CBF818B1A2
:1021A0000F218B4807F0E6F88848FEF7F9FEE16852
:1021B00009F0DEF818B10E21864807F0DBF88348F5
:1021C000FEF7EEFE05468148FEF7C2FE01462846B0
:1021D00008F008FEE16B09F0CBF818B111217E4838
:1021E00007F0C8F87948FEF731FFA16A09F0C0F896
:1021F00018B10C21794807F0BDF87448FEF726FFA6
:10220000E16A09F097F818B10D21754807F0B2F8A6
:10221000744B6E481B68012B00F0B880FEF798FEE7
:102220002169664D09F0A4F878B16848FEF7B8FE58
:10223000E96809F07FF840B1624B1B78052B00F08C
:10224000B6800821684807F095F80221674807F032
:1022500091F8122005F036FD012800F0928011203F
:1022600005F030FD012800F0878002215F4807F06B
:1022700081F85F4B5048196807F062FB4E4807F041
:102280000FFB04215B4807F075F80B2005F01AFDE1
:10229000002301460A22484807F012FB0C2005F0F3
:1022A00011FD002301460A22434807F009FB1420D0
:1022B00005F008FD002301460A223F4807F000FB15
:1022C000152005F0FFFC002301460A223A4807F0DA
:1022D000F7FA0621484807F04DF8484B3648196888
:1022E0000222002307F0ECFA0421454807F042F8E7
:1022F000112005F0E7FC002301460A222E4807F0D2
:10230000DFFA102005F0DEFC002301460A222A48ED
:1023100007F0D6FA122005F0D5FC002301460A2268
:10232000254807F0CDFA132005F0CCFC0023014628
:102330000A222148BDE8704007F0C2BA072131489F
:1023400007F018F881E706212F4807F013F87CE71B
:1023500007212E4807F00EF877E707212C4807F0F1
:1023600009F872E708212B4807F004F86DE70B2104
:10237000294806F0FFFF68E70A21284806F0FAFF1F
:1023800073E70E21264806F0F5FF68E7FEF7E0FD4B
:10239000216A08F0EDFF00283FF453AF16212148D1
:1023A00006F0E8FF0A21204806F0E4FF4DE70A2185
:1023B0001D4806F0DFFF48E7CC87FF1F3C93FF1F57
:1023C00038FB0000A494FF1F48FB0000EC94FF1FA3
:1023D00054FB000064FB000074FB000088FB00005D
:1023E00098FB00007492FF1FCCFB00004407010023
:1023F0009894FF1F2CFC000034FC0000FC93FF1F8E
:102400003CFC000008FC0000D8FB0000E0FB0000E2
:10241000F4FB0000FCFB0000E8FB000020FC0000D7
:1024200010FC0000A8FB0000C0FB00002DE9F04FED
:10243000934C944FE36F012B8DB000F04981032B37
:1024400050D0914E914DA36F9148012B09BF29683F
:10245000296801F10041296005F03AF83368002B42
:1024600040F0CE808A4805F009F8E36F3860012B10
:10247000064600F0D280874908F07AFF78B986498D
:10248000304608F057FF50B9844A854B12680B92CA
:102490000B9A1A6000232B600DB0BDE8F08FDFF8B7
:1024A000FC817F4CD8F800300A930A9823687D4F4E
:1024B000C01A08F049FD314608F09EFD7A4908F03F
:1024C0004FFE794908F04CFE396808F08DFCD8F8C9
:1024D00000300993099B2360002338602B600DB006
:1024E000BDE8F08FDFF8C881704DD8F80000664E67
:1024F000012300220F212B6004F016FC2B68012B16
:10250000336800F00381002B40F0A6810021D8F849
:102510000000DFF8B891664D04F058FC33681FFAEC
:1025200080FBC9F800B0002B40F07B810021D8F877
:102530000000564DDFF878A104F0CEFBB4F88630E9
:1025400040F6E44101FB0BF1B1FBF0F0C01A00B220
:1025500008F0FEFC57498346D4F8880008F04CFD8B
:102560000146584608F0FCFDD9F800302860632B7E
:10257000DFF858B100F3498100232B603368002B4A
:102580003FF461AF02214C4806F0F4FED9F8002078
:10259000D8F8000040F6E443002103FB02F804F001
:1025A0009BFBB8FBF0F008F0CFFC8046B4F8860047
:1025B00008F0CEFC0146404608F014FC08F072F822
:1025C0004FF0020802460B46CDF800803B4807F06A
:1025D000BFF94146384806F0CDFE286808F062F899
:1025E000CDF8008002460B46344807F0B1F9414669
:1025F000334806F0BFFE41462F4806F0BBFE22E7F7
:10260000234804F03BFF08F04DF8022602460B4633
:1026100000962A4807F09CF924E7244B1B68012BFD
:1026200000F02681022B7FF435AF264908F0A0FE8A
:1026300030B92549304608F07DFE002800F047817A
:10264000DFF85880164CD8F80030079307982368B5
:10265000144FC01A08F078FC314608F0CDFC12493E
:1026600008F07EFD104908F07BFD396808F0BCFBDE
:10267000D8F800300693069B386023600AE700BF55
:102680003C93FF1F8092FF1FE494FF1F7092FF1F77
:102690001493FF1F0000FA430000FAC368B6FF1F3F
:1026A000B494FF1F8C92FF1F00007A445087FF1FD5
:1026B000B894FF1F17B7D13844070100CC87FF1F1C
:1026C00080FC000000C82F4800A08CC63493FF1F78
:1026D0003D689849284608F02DFE30B128469649B5
:1026E00008F046FE00287FF4FDAEDFF85882934DD7
:1026F000D8F80000924E022300220E212B6004F035
:1027000013FB2B68012B33687FF4FDAE002B40F0E8
:1027100000810021D8F80000DFF86C92894D04F0A8
:1027200055FB33681FFA80FBC9F800B0002B40F05E
:10273000D5800021D8F80000834D04F0CDFAB4F81C
:10274000843040F6E44A0AFB0BFBBBFBF0F0C01AF6
:1027500000B208F0FDFB7D498346D4F88C0008F0F8
:102760004BFC0146584608F0FBFCD9F800302860C5
:102770000021D8F800000AFB03FA04F0ADFAB4F81F
:102780008430BAFBF0F00FFA80FAC3EB0A03002B97
:10279000B4F8B620B8BF5B429342BCBF00232B60A5
:1027A0003368002B3FF44FAE0221694806F0E2FD8A
:1027B000D9F80020D8F8000040F6E443002103FBDC
:1027C00002F804F089FAB4F88410B8FBF0F000B213
:1027D000411A604807F0B4F802215D4806F0CAFDCE
:1027E000286807F05FFF4FF0020802460B46CDF85D
:1027F0000080584807F0ACF80321574806F0BAFDAE
:102800004146534806F0B6FD1DE6DAF80000002107
:1028100004F062FADBF8003064389842FFF4ACAEA2
:10282000ACE60021286804F057FA40F6E4410023A2
:102830000A2201FB0BF1B1FBF0F1464807F040F82A
:102840000221434806F096FDB4F88610414807F08F
:1028500077F8D9F800B069E63E4807F021F80C2176
:102860003E4806F087FD0C213D4806F083FD4DE60D
:102870003C4908F07DFD58B93B49304608F05AFD07
:1028800030B93A4A3A4B12680592059A1A6001E645
:10289000DFF8D880364CD8F80030049304982368C9
:1028A000344FC01A08F050FB314608F0A5FB3249FE
:1028B00008F056FC304908F053FC396808F094FAE7
:1028C000D8F800300393039B38602360E2E5274A81
:1028D000274B12680892089A1A60DBE500212868E5
:1028E00004F0FAF940F6E44100230A2201FB0BF15F
:1028F000B1FBF0F1174806F0E3FF01211F4806F095
:1029000039FDB4F88410134807F01AF8D9F800B06C
:102910000FE7104806F0C4FFE36F012B4FF00B01E7
:102920000CBF1748174806F025FD0C210C4806F08F
:1029300021FDEEE600709446007094C65087FF1F9C
:10294000E494FF1FB894FF1F7092FF1F17B7D13890
:1029500044070100CC87FF1F6CFC000070FC0000E6
:102960005CFC00000000FA430000FAC368B6FF1FD9
:10297000B494FF1F8C92FF1F00007A4434FB0000C8
:1029800044FC000050FC00003493FF1F2DE9F04789
:10299000B24D2B6884B0002B7ED0B14CDFF8C882DA
:1029A000B04EE36FAE4D012B00F08F80D4F8803035
:1029B000AB4F012B00F0BC80D6F80090D7F858A0A0
:1029C0007D6DA94F05FB0AF54FF47A7000FB05F009
:1029D00008F0BEFAA5490546484608F00DFB294611
:1029E00008F0BEFBA24908F007FB08F0CBFC632807
:1029F000C8F800004BDD28469C4908F0B1FB642371
:102A000030603B609B4B1B68002B3DD0E36F944DC7
:102A1000012B00F0BB80032B00F00981022B00F09A
:102A20000C810221944806F0A5FC944B186807F02D
:102A300039FE022402460B460094914806F088FFB6
:102A40002146904806F096FC21468B4806F092FC01
:102A5000D8F800108A4806F073FF06218A4806F06D
:102A600089FC3068814908F0C7FA07F01BFE009422
:102A700002460B46824806F06BFF0321834806F0AE
:102A800079FC7F4806F00CFF04B0BDE8F087002811
:102A9000BCBF00233B60B5E77D4E714C33680293A9
:102AA000029A42F228339A4200F2BA8033680393C2
:102AB000039A42F210739A4274D8E36FDFF8A88148
:102AC000684E674D012B7FF471AF7248FEF720FB13
:102AD0007149D5F86890EF6E08F08EFA08F078FC2E
:102AE0002A6F6B6FC9EB0202DB1B80B29A42C9EB03
:102AF000000040F3AD8003FB0000531C90FBF3F398
:102B00001F44A06D636DC8F8007000FB07F003FB65
:102B100000F000EB8000400008F01AFA5349504FD3
:102B200008F01EFBD4F880303060012B7FF444AFF6
:102B30005848FEF7EDFA5849D7F86890FD6E08F04E
:102B40005BFA08F045FC3A6F7B6FD4F858A0C9EBEC
:102B500002025B1B80B29A42C9EB0000C6BF03FBB6
:102B600000000132584390FBF2F02844656D00FBF1
:102B70000AF005FB00F000EB8000400008F0E8F9E7
:102B80003A4908F0EDFA814630601AE7434B1B687A
:102B9000012B4FF00A010CBF4148424806F0EAFB06
:102BA000EB6F38E73B48FEF7B3FA3B49A76EE66E9A
:102BB00008F022FA08F00CFC226F636FD21B9B1BFB
:102BC00080B29A42A0EB07003CDD03FB0000531CDF
:102BD00090FBF3F39819A26DDFF88C80636DC8F851
:102BE000000002FB00F003FB00F000EB800040005F
:102BF00008F0AEF91D491B4E08F0B2FA012330600F
:102C000002211D482B6006F0B5FB1D4806F048FE6A
:102C10005921254806F0AEFB194806F041FEC0E6F2
:102C20001C48626C94F84010FEF7E4F93EE710216E
:102C30001E4806F09FFBE36FF0E607211C4806F0F4
:102C400099FBEEE603FB00F393FBF2F39819C2E75E
:102C500003FB00F393FBF2F31F4452E76C92FF1F58
:102C60003C93FF1F8C92FF1F3487FF1FE4388E3E7A
:102C70000000C8423C87FF1F440701008092FF1FED
:102C8000CC87FF1F80FC000014FD00001CFD00002D
:102C900068B6FF1FEC94FF1F00007A445087FF1FA7
:102CA000E0FC0000ECFC000084FC0000F8FC0000EC
:102CB0000CFD0000F0B5112083B005F003F80128E9
:102CC00013D000210B2004F0F7FF00210C2004F0AA
:102CD000F3FF0021152004F0EFFF1D491D4B0120DB
:102CE000002208701A6003B0F0BD014604461520AA
:102CF00004F0E2FF1849194A194B09680191D2F80A
:102D000090001B680199134D034402268B422E60EC
:102D100017D8D2F8980008F01BF9124B196808F080
:102D200009FB074668B921460B2004F0C5FF084A95
:102D3000032339460C2016702B6004F0BDFF03B04E
:102D4000F0BD01210C2004F0B7FF03B0F0BD00BFBF
:102D5000A494FF1FE094FF1F68B6FF1F3C93FF1F62
:102D6000E894FF1F8092FF1FF0B5684E684D3468ED
:102D70002B689C4287B039D014F0010155D014F073
:102D8000020149D014F004013DD0E3070ED52B68B1
:102D9000DF070BD45F4F3A68002A00F082805E4B59
:102DA0001B680193019B93426DD83468A0070DD531
:102DB0002B6899070AD4594F3A68002A4CD0564BD1
:102DC0001B680393039B934238D8346862070DD580
:102DD0002B685B070BD4524F3A68002A7ED04E4BCB
:102DE0001B680593059B934268D834680CB107B003
:102DF000F0BD2146162004F0DFFD2146172004F027
:102E0000DBFD07B0F0BD052004F0D6FD2B6834686B
:102E100003F0FB032B60B8E7172004F0CDFD2B680F
:102E2000346803F0FD032B60ACE7162004F0C4FD0A
:102E30002B68346803F0FE032B60A0E7394B1720A2
:102E4000D3F8941004F0B8FD2B68346843F0020303
:102E500000222B603A60B9E7334806F021FD0C21CF
:102E6000324806F087FA304806F01AFDFF21172095
:102E700004F0A2FD284B2E4A1968029102991268AB
:102E80000A443A609CE7274B1620D3F8941004F0CC
:102E900093FD2B68346843F0010300222B603A60F5
:102EA00084E7FF21162004F087FD1B4B204A196898
:102EB0000091009912680A443A6071E7194B0520A5
:102EC000D3F8941004F078FD2B68346843F00403C1
:102ED00000222B603A60002C89D18AE7124806F064
:102EE000DFFC0C21134806F045FA0F4806F0D8FC29
:102EF000FF21052004F060FD074B0D4A196804917D
:102F0000049912680A443A606AE700BFE094FF1F20
:102F1000FC93FF1F7894FF1F68B6FF1F7C94FF1F70
:102F20008094FF1F3C93FF1FCC87FF1F20FD0000F4
:102F30006887FF1F30FD00002DE9F047544EDFF891
:102F40007481DFF874913068524D00220F2103F034
:102F5000EBFE0023012222214F48C8F80030C9F8B7
:102F6000002006F007FAD8F80030132B22DC40F6D8
:102F7000E44700213068B5F884A003F027FF002162
:102F80000446306803F0A8FEA4B2012107FB04F454
:102F9000B4FBF0F441485444A5F8844006F0EAF943
:102FA000642004F0C5FED8F800300133132BC8F8B4
:102FB0000030DEDDB5F88430394A3A48A2FB03120E
:102FC0009B1A02EB5303C3F30F131946A5F8843081
:102FD00006F0B6FC1D21344806F0CCF90221334836
:102FE00006F0C8F92F4806F05BFC00231A460E21B4
:102FF0003068C8F8003003F097FE022322212648EB
:10300000C9F8003006F0B6F9D8F80030132B22DCEE
:1030100040F6E44700213068B5F8869003F0D6FE0C
:1030200000210446306803F057FEA4B2012107FBDB
:1030300004F4B4FBF0F419484C44A5F8864006F0BB
:1030400099F9642004F074FED8F800300133132B92
:10305000C8F80030DEDDB5F88630114A1148A2FB11
:1030600003129B1A02EB5303C3F30F131946A5F87F
:10307000863006F065FC1D210D4806F07BF9022123
:103080000A4806F077F90748BDE8F04706F008BCA3
:10309000B894FF1F3C93FF1F40FD000084FD00001B
:1030A00087611886CC87FF1F64FD0000440701007C
:1030B00088FD00009C94FF1F5087FF1FA24B2DE945
:1030C000F0411B68A14CA24D40F251310822216011
:1030D000E271286D002B40F0E48007F039FF696948
:1030E000064607F089FF9B49994F07F085FF08F0D6
:1030F0006FF980B203126372974A984B12681B688B
:10310000A969A37215121B12E372227320726573F0
:10311000304607F071FF8F498C4E07F06DFF08F0C5
:1031200057F983B21A1231468D48A373E27303F044
:103130001DFC8C4B8C4A1B681288A272DDB205EB19
:103140008501257203EB8305490045F3D71540F24D
:10315000553E12124FF008081B1221736573314659
:1031600000257F48C4F800E0E2726372A573E5733E
:1031700084F8078003F0FAFB40F256337B48236063
:1031800084F80780FDF732FF794907F035FF08F032
:103190001FF920727548FDF729FF754907F02CFFCC
:1031A00008F016F9734A7249C0F307236372106876
:1031B00007F0D6FF08F0E6F840FA08F203466B483D
:1031C000E272A372FDF742FF624907F015FF08F0B3
:1031D000FFF820736548FDF739FF5E4907F00CFFE3
:1031E00008F0F6F83146C0F307235D486373A57312
:1031F000E57303F0BBFB022004F09AFD5E4B2573E0
:103200001A7859786573A573E57322729D78DA7818
:10321000617240F25A3331465148A572E27223601E
:1032200084F8078003F0A2FB544B4D481A78597874
:10323000227261729A78D978A272E1721A795979F8
:103240009D7922736173DA79E27340F25E3331461D
:103250002360A57384F8078003F088FB022004F044
:1032600067FD474B3E481A785978227261729A7806
:10327000D978A272E1721A7959799D7922736173B2
:10328000DA7984F807804FF45C7331462360A573C4
:10329000E27303F06BFB3B4B1B68012B06D0BDE8D0
:1032A000F08107F055FE296A06461AE72F48FDF718
:1032B0004FFEF96C07F098FD05462C48FDF770FEAF
:1032C0000146284608F036F80028E8D040F2C3331B
:1032D000264886F807803360FDF73AFEBD6C294624
:1032E00008F028F8D0B12849284607F085FE08F0F4
:1032F0006FF880B240FA08F370723372002301262F
:1033000004250322A672E57222736373A373E37329
:103310000E491348BDE8F04103F028BB1348FDF700
:1033200017FE194907F068FE08F052F8C0F30723AA
:103330000E483372FDF70CFE134907F05DFE08F0EE
:1033400047F87072DAE700BF7492FF1FD094FF1F36
:103350003C93FF1F00002041B094FF1F5892FF1FB5
:10336000C0B4FF1F3487FF1F3887FF1FEC94FF1F77
:103370000000C8428092FF1F3893FF1F2C87FF1F59
:103380005487FF1FC094FF1F00007A44F0B59C4C87
:103390009C4D83B005F088FF23682860042B00F063
:1033A000AC82022B4BD0082B00F09280072B40F010
:1033B0005181332801F0F28300F3AD80312801F010
:1033C0000084322840F0B08005F0AAFF002840F3C6
:1033D0003F818D488D4E06F0F5FB07F0B9FD8C4915
:1033E00007F00AFE61230122F06322602B60184679
:1033F000A0F152031F2B01F2AF83DFE813F02E0B75
:10340000AD0BAD0BAD0BAD0BAD0BAD0BAD0BAD0BFC
:10341000AD0BAD0BAD0BAD0BAD0BAD0BB203CB0CD0
:103420003905A7057304AD0BAD0BAD0B2604AD0B31
:10343000CE0CAD0BAD0BAD0BAD0BAD0B300BA0F14E
:103440003102422A70D8DFE812F0F006FC060A07C3
:1034500017072A0739076F006F006F006F006F00B2
:103460006F006F006F006F006F006F006F006F00E4
:103470006F006F006F006F006F006F006F006F00D4
:103480006F006F006F006F006F006F006F006F00C4
:103490006F006F006F006F006F006F006F006F00B4
:1034A0006F006F006F006F006F006F006F00DD0630
:1034B0006F006F006F006F006F006F006F006F0094
:1034C0006F006F006F006F006F006B006F00E3060E
:1034D000322800F02F83712822D0312824D105F022
:1034E0001FFF002840F3CF854748484E06F06AFB8F
:1034F000C0B286F84000022894BF01460021726CD9
:10350000444888BF86F84010FDF774FD0123692008
:10351000236028606CE7342801F02E83712803D1E2
:103520000023732023602860002B08BF73280CBF82
:1035300001200020002860D0334806F0B1F90421B2
:10354000354805F017FF304806F0AAF91021334836
:1035500005F010FF2C4806F0A3F91321304805F0C0
:1035600009FF304B2848196806F0EAF9264806F0AA
:1035700097F914212C4805F0FDFE234806F090F938
:103580001E212A4805F0F6FE1F4806F089F915218C
:10359000274805F0EFFE1C4806F082F91E21254859
:1035A00005F0E8FE184806F07BF92021224805F0D6
:1035B000E1FE154806F074F91921204805F0DAFEFD
:1035C000114806F06DF912211D4805F0D3FE0E4892
:1035D00006F066F90F211B4805F0CCFE0A4806F0FC
:1035E0005FF90D21184805F0C5FE074806F058F9A7
:1035F000164A002101231160236003B0F0BD00BF13
:103600009092FF1F7C92FF1FCC87FF1F3C93FF1FF0
:103610006F12833AEC94FF1FC0050100C80501003A
:10362000DC0501002487FF1FF005010008060100EA
:103630002806010040060100600601008406010022
:10364000A0060100B4060100C40601003C87FF1F6C
:1036500023682868062B40F08D80A0F13102402AB3
:103660003FF662AF01A151F822F000BF9140000087
:10367000BD400000E94000000F410000354100005E
:1036800053410000F14100002935000029350000B8
:1036900029350000293500002935000029350000B2
:1036A00029350000293500002935000029350000A2
:1036B0002935000029350000293500002935000092
:1036C0002935000029350000293500002935000082
:1036D0002935000029350000293500002935000072
:1036E0002935000029350000293500002935000062
:1036F0002935000029350000293500002935000052
:103700002935000029350000293500002935000041
:103710002935000029350000293500002935000031
:103720002935000029350000293500002935000021
:103730002935000029350000293500002935000011
:103740002935000029350000293500002935000001
:1037500029350000293500002935000029350000F1
:1037600029350000293500002935000021350000E9
:1037700023682868052B15D1332801F0498240F3CE
:103780004781352801F06B82C1F2538271287FF4A2
:10379000CBAEDC4A00237320136023602860C3E6AD
:1037A00023682868032B40F0A480A0F13002422A4D
:1037B0003FF6BAAE01A151F822F000BFC9380000AF
:1037C00065490000134800003B4800005D480000C8
:1037D0007F4800008D490000B5490000D349000032
:1037E000F74900002935000029350000293500007F
:1037F0002935000029350000293500002935000051
:103800002935000029350000293500002935000040
:103810002935000029350000293500002935000030
:103820002935000029350000293500002935000020
:103830002935000029350000293500002935000010
:103840002935000029350000293500002935000000
:1038500029350000293500002935000029350000F0
:1038600029350000293500002935000029350000E0
:1038700029350000293500002935000029350000D0
:10388000A7480000BF4300001F4A00003D4A000057
:1038900007490000254900007543000099430000D6
:1038A00029350000293500002935000029350000A0
:1038B0002935000029350000293500002935000090
:1038C000C5480000D148000005F02AFD002841F35A
:1038D0004C818D488D4E06F075F90127034601464F
:1038E00062228B48736527602A60FDF781FB23689D
:1038F0002868012B7FF418AE7AE5A0F13102402A46
:103900003FF612AE01A151F822F000BFD7420000ED
:10391000EF420000F3420000194300005943000049
:103920001D4300002F4300003343000037430000D5
:10393000293500002935000029350000293500000F
:1039400029350000293500002935000029350000FF
:1039500029350000293500002935000029350000EF
:1039600029350000293500002935000029350000DF
:1039700029350000293500002935000029350000CF
:1039800029350000293500002935000029350000BF
:1039900029350000293500002935000029350000AF
:1039A000293500002935000029350000293500009F
:1039B000293500002935000029350000293500008F
:1039C000293500002935000029350000293500007F
:1039D000293500002935000029350000293500006F
:1039E000293500002935000029350000293500005F
:1039F000293500002935000029350000293500004F
:103A00002935000029350000293500002135000046
:103A1000312801F0EC8032287FF486AD05F080FC7F
:103A200000287FF7BDAE3848384E06F0CBF80122AB
:103A30006B23C6F8980022602B6001E005F034FC8F
:103A400005F06EFC0028F9D12F4805F029FF2E481B
:103A500005F026FF2C4805F023FF2B4805F020FF3A
:103A6000294805F01DFF21212A4805F083FC26483E
:103A700005F016FF1521284805F07CFCD6F89010BB
:103A8000214805F05DFF0221244805F073FC1E4823
:103A900005F006FF1E21224805F06CFCD6F89810B0
:103AA000194805F04DFF03211E4805F063FC164838
:103AB00005F0F6FE1E211C4805F05CFCD6F89410BB
:103AC000114805F03DFF104805F0EAFE1D2117489A
:103AD00005F050FCD6F8A0100B4805F031FF0A485D
:103AE00005F0DEFE1E21124805F044FCD6F8A410B5
:103AF000054805F025FF044805F0D2FE05232360A4
:103B00007BE500BF9494FF1FCC87FF1F3C93FF1FF2
:103B1000EC94FF1F380001005C00010048FF00002A
:103B2000740001006CFC000094000100B40001006E
:103B3000D400010005F0F4FB002840F3A082B24855
:103B4000B24E06F03FF807F003FAB14907F054FA15
:103B50000346024696F84010AE487364D4E405F07C
:103B6000A3FB05F0DDFB05460028F8D1A648A74ECB
:103B700005F096FEA44805F093FEA34805F090FEDC
:103B8000A14805F08DFEA04805F08AFE1F21A2483D
:103B900005F0F0FB9C4805F083FE1C219F4805F0D2
:103BA000E9FB706A9E4907F027FA06F07BFD009555
:103BB00002460B46944805F0CBFE0221994805F0D9
:103BC000D9FB914805F06CFE2321974805F0D2FB04
:103BD000F06B934907F010FA06F064FD0095024679
:103BE0000B46894805F0B4FE02218E4805F0C2FB61
:103BF000854805F055FE19218C4805F0BBFBB06BDC
:103C000006F050FD02250B46024600957E4805F061
:103C10009FFE2946864805F0ADFB7B4805F040FE37
:103C20001921844805F0A6FBB6F8B410764805F0D3
:103C300087FE0321804805F09DFB734805F030FEA8
:103C400007232360D9E405F02FFB05F069FB054647
:103C50000028F8D16C486D4E05F022FE6A4805F048
:103C60001FFE694805F01CFE674805F019FE66480E
:103C700005F016FE1521714805F07CFB624805F041
:103C80000FFE18216E4805F075FB2B460A2296F8A8
:103C900040105D4805F014FE5B4805F001FE282148
:103CA000684805F067FB706C5D4907F0A5F906F000
:103CB000F9FC00950B460246534805F049FE0221E7
:103CC000584805F057FB504805F0EAFD13215E48BF
:103CD00005F050FB4C4805F0E3FD082323608CE41D
:103CE00005F0E2FA05F01CFB05460028F8D146482D
:103CF000464E05F0D5FD444805F0D2FD424805F09A
:103D0000CFFD414805F0CCFD3F4805F0C9FD11212C
:103D10004E4805F02FFB3C4805F0C2FD28214C48D9
:103D200005F028FB70693E4907F066F906F0BAFC19
:103D3000009502460B46344805F00AFE0221394838
:103D400005F018FB304805F0ABFD1621414805F0A1
:103D500011FBF069324907F04FF906F0A3FC00951A
:103D60000B460246284805F0F3FD02212D4805F0D8
:103D700001FB254805F094FDD6F8AC30002B32DD70
:103D80001D21354805F0F6FAF06D07F0E1F83349EA
:103D900007F032F906F086FC022502460B46009534
:103DA000194805F0D5FD01212D4805F0E3FA164824
:103DB00005F076FD1F212B4805F0DCFA306E07F088
:103DC000C7F8264907F018F906F06CFC0095024682
:103DD0000B460D4805F0BCFD0121214805F0CAFA4B
:103DE000094805F05DFD11211F4805F0C3FAD6F81A
:103DF000AC30052B00F26086DFE813F095069A06DA
:103E00005A06A906A4069F06CC87FF1F3C93FF1FF6
:103E10006F12833AEC94FF1F94FF0000B4FF000080
:103E200000007A4420FE0000D4FF0000F8FF0000EC
:103E30001400010018000100340001008806010090
:103E4000D8FD0000F4FD000024FE00002C06010057
:103E500038FE000064FE00007CFE0000CDCCCC3DAE
:103E6000180301009CFE0000BCFE000005F01CFAD7
:103E700005F056FA0028F9D1BF48C04E05F010FDF4
:103E8000BD4805F00DFDBC4805F00AFDBA4805F037
:103E900007FDB94805F004FD1F21B94805F06AFA8D
:103EA000B54805F0FDFC1E21B64805F063FAB2489E
:103EB00005F0F6FC1A21B44805F05CFAF36F022B0A
:103EC00000F03787032B00F02B87012B00F03A8797
:103ED0000921AE4805F04EFAA74805F0E1FC14218F
:103EE000AB48A64F05F046FAB16FA34805F028FD90
:103EF000A14805F0D5FC1C21A64805F03BFAD6F8F0
:103F000080109D4805F01CFD9B4805F0C9FC1C2154
:103F1000A14805F02FFAD6F8A810974805F010FD33
:103F2000954805F0BDFCF56F25F00205012D00F068
:103F3000B1861321994805F01DFA8F4805F0B0FCB1
:103F400002232360FFF759BB05F0AEF905F0E8F94D
:103F50000028F9D1884805F0A3FC874805F0A0FCAB
:103F6000854805F09DFC844805F09AFC824805F0E0
:103F700097FC13218A4805F0FDF97F4805F090FC75
:103F80000D21884805F0F6F97B4805F089FC0F21E2
:103F9000854805F0EFF9854B7748196805F0D0FCA6
:103FA000754805F07DFC1321814805F0E3F9814B4C
:103FB0007148196805F0C4FC6F4805F071FC1221C6
:103FC0007D4805F0D7F97D4B6B48196805F0B8FCC2
:103FD000694805F065FC1121794805F0CBF9794B6A
:103FE0006548196805F0ACFC634805F059FC0E21E2
:103FF000754805F0BFF9614B5F48D3F89C1005F098
:104000009FFC5D4805F04CFC1921704805F0B2F9A1
:104010006F4B5948196805F093FC574805F040FC70
:1040200011216C4805F0A6F96B4B5348196805F04F
:1040300087FC514805F034FC1021684805F09AF9D6
:10404000674B4D48196805F07BFC4B4805F028FC90
:104050001C21644805F08EF9634B4748196805F048
:104060006FFC454805F01CFC13214C4805F082F913
:10407000414805F015FC04232360FFF7BEBA23680E
:104080002868FFF793B93D4E96F84000FFF733BA22
:1040900005F046F900287FF76BAB3748374E05F03F
:1040A00091FD06F055FF514907F05AF865230122AA
:1040B000706122602B601846FFF79AB905F030F95D
:1040C00000287FF755AB2C482C4E05F07BFD06F001
:1040D0003FFF464907F044F865230122F061226062
:1040E0002B601846FFF784B905F01AF900287FF70E
:1040F0003FAB2148214E05F065FD00EB80004300F9
:1041000001226520F36522602860FFF771B905F090
:1041100007F900287FF72CAB1748184E05F052FD21
:1041200000EB800043000122652033662260286096
:10413000FFF75EB9114AD2F8AC300133052BC8BF86
:104140000023C2F8AC300123652023602860FFF70C
:104150004FB905F0E5F800287FF70AAB0648074E8F
:1041600005F030FD65230122C6F8B00022602B6007
:104170001846FFF73DB900BFCC87FF1F3C93FF1FD8
:10418000D8010100F80101001802010090020100AD
:104190009C020100B4020100D402010024FE0000D0
:1041A000F400010008010100180101007494FF1FD0
:1041B00028010100E494FF1F3C010100C894FF1F87
:1041C00050010100CC94FF1F640101007401010043
:1041D0009894FF1F900101009494FF1FA401010017
:1041E0007892FF1FB80101005C87FF1F00007A442E
:1041F0007A4B93F8BC20002A00F03F85002283F818
:10420000BC20A0E7FEF798FE23682868FFF7CBB82C
:10421000724AD36F0133032BC8BF0023D367012336
:10422000632023602860FFF7E3B86C4EB36FB3FAE6
:1042300083F35B0901226320B36722602860FFF7E4
:10424000D7B8664ED6F88030B3FA83F35B09012203
:104250006320C6F8803022602860FFF7C9B80123C8
:10426000236005F05DF80028D9DD5D485B4E05F060
:10427000A9FCC6F8A800D2E70123236005F050F896
:10428000002807DD5648554E05F09CFC06F060FE00
:10429000C6F88C00632028602368FFF787B80123E5
:1042A000236005F03DF80028F4DD4D484B4E05F045
:1042B00089FC06F04DFEC6F88800EBE70123236079
:1042C00005F02EF80028E5DD4548444E05F07AFC5F
:1042D000A6F8B600DEE7434A1368B3FA83F35B0936
:1042E00001216420136021602860FFF781B83E4AF5
:1042F000F2E73E4A3E4F1368002B0CBF0123002318
:104300004FF001001360206040F0F4840346642203
:104310002A606420FFF747B8364ADDE701233648B4
:104320002360FCF767FC354A23681060EFE7344AE6
:10433000D2E7344AD0E70123236004F0F1FF0028DC
:1043400000F3A084304B1A68042AC4BF02221A600A
:1043500064232B602368DCE7204ED6F89C30B3FA48
:1043600083F35B0901226420C6F89C302260286038
:10437000FFF73EB804F0D4FF00280DDD1848174EB3
:1043800005F020FC06F0E4FD204906F0E9FE0122DC
:104390006223306222602B6004F0C2FF00280EDD31
:1043A0000F480E4E05F00EFC06F0D2FD174906F040
:1043B000D7FE01226223C6F8B80022602B6004F009
:1043C000AFFF002840F3D1830548044E05F0FAFB07
:1043D00001226223B06622602B601BE03C93FF1F2A
:1043E000CC87FF1F7494FF1FE494FF1FC894FF1F26
:1043F0009092FF1FCC94FF1FEC94FF1F9894FF1F17
:104400009494FF1F7892FF1F5C87FF1F00007A447F
:1044100004F04AFF04F084FF05460028F8D1C248A2
:1044200005F03EFAC04805F03BFABF4805F038FAFF
:10443000BD4805F035FABC4805F032FA1521BB48F5
:1044400004F098FFB84805F02BFA1421B84804F09E
:1044500091FFB54805F024FA1B21B64804F08AFF05
:10446000B14805F01DFA1321B34804F083FFAE48AC
:1044700005F016FAAC4805F013FAAB4805F010FA4F
:104480002021AE4804F076FFF068AD4906F0B4FD97
:1044900006F008F9009502460B46A34805F058FAC5
:1044A0000221A84804F066FF0221A74804F062FF39
:1044B0009D4805F0F5F92121A44804F05BFF30691F
:1044C0009F4906F099FD06F0EDF8009502460B466F
:1044D000954805F03DFA02219A4804F04BFF02216D
:1044E000994804F047FF904805F0DAF91F219848F1
:1044F00004F040FFB06A06F0D5F8022702460B46EA
:104500000097894805F024FA0121924804F032FF0F
:1045100039468D4804F02EFF834805F0C1F920216B
:104520008D4804F027FFF06A06F0BCF800970246B9
:104530000B467D4805F00CFA0121864804F01AFF6D
:104540003946814804F016FF774805F0A9F9232180
:10455000824804F00FFFB06C794906F04DFD06F07B
:10456000A1F8009502460B466F4805F0F1F939466F
:10457000744804F0FFFE3946734804F0FBFE6A48B5
:1045800005F08EF91F21764804F0F4FEF06C6C49BA
:1045900006F032FD06F086F8009502460B466248AA
:1045A00005F0D6F93946674804F0E4FE3946664816
:1045B00004F0E0FE5C4805F073F91921694804F045
:1045C000D9FEB16D584805F0BBF93946664804F08C
:1045D000D1FE39465C4804F0CDFE534805F060F941
:1045E0001821624804F0C6FE706E06F0B1FC604906
:1045F00006F002FD06F056F8009702460B464A48C0
:1046000005F0A6F901215B4804F0B4FE39464E4896
:1046100004F0B0FE444805F043F92B21564804F05D
:10462000A9FEB069464906F0E7FC06F03BF80095A4
:1046300002460B463C4805F08BF93946414804F0E8
:1046400099FE3946404804F095FE374805F028F9B0
:104650001F214A4804F08EFE716D334805F070F951
:104660003946394804F086FE2F4805F019F9202113
:10467000434804F07FFE316D2B4805F061F939465F
:10468000314804F077FE284805F00AF910213D482A
:1046900004F070FEB16E244805F052F939462948FD
:1046A00004F068FE3946284804F064FE1E4805F010
:1046B000F7F81321344804F05DFEF16E1A4805F056
:1046C0003FF90121314804F055FE39461E4804F0F7
:1046D00051FE154805F0E4F810212D4804F04AFE7B
:1046E000316F114805F02CF93946164804F042FEA6
:1046F0003946154804F03EFE0B4805F0D1F8142168
:10470000244804F037FE716F074805F019F90121BC
:104710001E4804F02FFE39460B4804F02BFE0248D9
:1047200005F0BEF8162137E0CC87FF1F60030100BB
:10473000780301009003010024FE0000AC03010097
:1047400000007A4420FE000044070100D00301006D
:10475000F403010064F900001404010038040100AE
:104760005C0401007C040100980401009C04010029
:10477000CDCCCC3D18030100B8040100E4040100D5
:1047800004050100280501003C0501005005010059
:104790005405010068050100BA4804F0EBFD306AD9
:1047A000B94906F029FC05F07DFF009502460B464D
:1047B000B64805F0CDF83946B54804F0DBFD39467A
:1047C000B44804F0D7FDB14805F06AF82421B24896
:1047D00004F0D0FDD6F8B800AB4906F00DFC05F0AA
:1047E00061FF00950B460246A84805F0B1F839462E
:1047F000A74804F0BFFD3946A64804F0BBFDA34816
:1048000005F04EF8A14805F04BF803232360FEF7AE
:10481000F4BE04F085FD002840F3A7819B489F4E1D
:1048200005F0D0F906F094FB974906F099FC0122B7
:104830006223306122602B60ECE504F071FD0028FA
:1048400040F393819148954E05F0BCF906F080FB4A
:1048500001226223B06222602B60DBE504F060FD80
:10486000002840F3828189488C4E05F0ABF906F0B0
:104870006FFB01226223F06222602B60CAE504F024
:104880004FFD002840F371818048844E05F09AF96D
:1048900006F05EFB7C4906F063FC01226223B064F3
:1048A00022602B60B6E504F03BFD002840F35D81FB
:1048B00076487A4E05F086F901226223306522603F
:1048C0002B60A7E50022732322602B60FEF734BE25
:1048D000734B7048714E002202211A6004F04AFDA9
:1048E0006A4804F0DDFF0B216E4804F043FD02210D
:1048F000684804F03FFD654804F0D2FF01226223BE
:1049000022602B6086E504F00BFD002840F32D812A
:104910005E48624E05F056F90122622370672260FC
:104920002B6077E5FCF7B8FF02215A485B4E04F094
:1049300021FD564804F0B4FF0221564804F01AFD48
:10494000524804F0ADFF0221524804F013FD4F48D5
:1049500004F0A6FF1721544804F00CFD4B4804F066
:104960009FFFC4E704F0DCFC002840F3FE804748CA
:104970004A4E05F027F906F0EBFA434906F0F0FB42
:1049800001226223F06022602B6043E504F0C8FC42
:10499000002840F3EA803D48404E05F013F906F048
:1049A000D7FA394906F0DCFB01226223F064226069
:1049B0002B602FE504F0B4FC002840F3D680334888
:1049C000364E05F0FFF801226223B06522602B60AD
:1049D00020E504F0A5FC002840F3C7802B482F4EAB
:1049E00005F0F0F800EB80004300012162227366BD
:1049F00021602A600EE504F093FC002840F3B580A6
:104A00002248264E05F0DEF806F0A2FA1E4906F00E
:104A1000A7FB01226223B06122602B60FAE404F05C
:104A20007FFC002840F3A18018481C4E05F0CAF80E
:104A300001226223F06622602B60EBE404F070FC3C
:104A4000002840F392801148144E05F0BBF8012273
:104A50006223306722602B60DCE403F055FFC02244
:104A600000210E4802F05CFE2868104AA0F1730095
:104A700001210023B0FA80F0400911602360FEF7A5
:104A800059BD00BF8005010000007A44CC87FF1F9C
:104A900020FE000044070100980501003C93FF1F21
:104AA0006C92FF1FCCFD0000B4FD00003C87FF1F8F
:104AB0000C21BB4804F05EFCBA48BB4D04F0F0FE8C
:104AC000D6F8AC30002B12DD1821B84804F052FCA7
:104AD000D5F8B010B34804F033FF0221B44804F015
:104AE00049FCB04804F0DCFEAE4804F0D9FE1B21BE
:104AF000B04804F03FFC96F8BC30012B15BF1221E2
:104B00001421AD48AD4804F035FCA64804F0C8FEB9
:104B10001321AB4804F02EFCA24804F0C1FE06238A
:104B20002360FEF76ABD0D21A64804F023FCC3E70D
:104B30000C21A54804F01EFCBEE70B21A34804F09D
:104B400019FCB9E70D21A24804F014FCB4E70D21CB
:104B5000A04804F00FFCAFE72368002B08BF7328C0
:104B60000CBF01200020FEF7E5BC23682868012B5C
:104B70007EF4DAACFEF73CBC04F0D2FB00287EF7F2
:104B800067AD8848884E05F01DF861230122A6F81C
:104B9000B40022602B601846FEF72ABC04F0C0FB6C
:104BA00000287EF755AD7F487F4E05F00BF806F0E4
:104BB000CFF961230122B06322602B601846FEF713
:104BC00017BC04F0ADFB00287EF742AD7548764E69
:104BD00004F0F8FF06F0BCF97F4906F00DFA6123F6
:104BE0000122706222602B601846FEF701BC04F0BF
:104BF00097FB00287EF7D4AD6A486B4E04F0E2FFC5
:104C000001226B23C6F8900022602B60FEF718BFCC
:104C100004F086FB00287EF7C3AD6248624E04F0C4
:104C2000D1FF01226B23C6F8940022602B60FEF7AF
:104C300007BF04F075FB00287EF7B2AD59485A4E05
:104C400004F0C0FF654BC6F8A00002221A60FDF711
:104C500063F901226B2322602B60FEF7F1BE04F0A2
:104C60005FFB00287EF79CAD4E484F4E04F0AAFF34
:104C70005A4BC6F8A4000322E8E7012283F8BC20BF
:104C8000FFF761BA474804F09DFF554B0246186094
:104C9000FFF75ABB1C21534804F06CFBD7F88C007B
:104CA000514906F0A9F905F0FDFC009502460B46B6
:104CB0003C4804F04DFE05214C4804F05BFB3948AC
:104CC00004F0EEFDFD6F012D45D0032D7FF431A9D9
:104CD0001C21474804F04EFBB6F8B610314804F0EA
:104CE0002FFE0321434804F045FB2E4804F0D8FD75
:104CF000FFF71FB9404B002631460B201E6002F023
:104D0000DBFF31460C2002F0D7FF3146142002F0C1
:104D1000D3FF3146152002F0CFFF3B68FFF7F7BA0B
:104D20002021364804F026FB1E4804F0B9FDFFF7A9
:104D3000D6B81721324804F01DFB1A4804F0B0FD24
:104D4000FFF7CDB81E212F4804F014FB154804F0DE
:104D5000A7FDFFF7C4B81D212B4804F00BFBD7F8C3
:104D60008800214906F048F905F09CFC00950B46A7
:104D700002460C4804F0ECFD05211C4804F0FAFA48
:104D8000084804F08DFDFB6F23F00203012B9FD038
:104D9000FFF7CFB8044EFFF73DBB034EFEF750BE02
:104DA000F0FE0000CC87FF1F3C93FF1F2CFF00008C
:104DB00048FF00004CFF000068FF00007CFF00007F
:104DC00024FE0000D0FE0000E0FE000020FF0000F6
:104DD00010FF000000FF00006F12833A9494FF1F41
:104DE0005C87FF1FF4020100CDCCCC3D1403010011
:104DF0003C0301005C030100E094FF1F540201002A
:104E000078020100340201001C03010038B5164C81
:104E1000164A2368101D12F8011F904241EA03232D
:104E2000F9D12360124C03F100432360114BDB6F77
:104E3000022B11D0104B1B68012B00D038BD0F483E
:104E400004F02EFD21680D4804F07AFD03210C4882
:104E5000BDE8384004F08EBA20680A4D06F078F8B4
:104E60002860FDF7E3FAE5E75092FF1F8B94FF1FE0
:104E7000AC94FF1F3C93FF1F7494FF1FCC87FF1F50
:104E8000D40601007092FF1F30B53B4C3B482146D1
:104E900083B001F063FC216840F2C233994251D0E3
:104EA0006FF48C63CB181E2B3FD9354B1B68012B3D
:104EB00001D003B030BD334B1B68012BF9D1324B0D
:104EC00032481B6801930A220023019904F0F8FC80
:104ED0002268294B002ADB7947DB2D492D4807F052
:104EE00053F82C4807F08CF801462A4804F042FA9F
:104EF0002568214B15F0804528D1DB798BB16319EA
:104F000025491A7A234807F03FF8224807F078F835
:104F10000146204804F02EFA0135E379EDB2AB42A8
:104F2000EDD81A4804F0BCFCC3E700231022174850
:104F300004F0C6FC154804F0B3FC0F491748FBF712
:104F400083FEB2E7FFF762FF2168A9E7144D114C19
:104F50000FCD0FC495E8030044F8040B204620F859
:104F60001419152104F006FADBE70E49094822F06E
:104F7000604207F009F8B4E78494FF1FC0B4FF1F34
:104F80003C87FF1F7494FF1F68B6FF1FCC87FF1F6D
:104F9000000701009492FF1F2C070100EC94FF1FF3
:104FA00014070100D80601002DE9F84F9A4B9B4CDD
:104FB0001B78052B08D09A48FCF748F8E16A06F000
:104FC000B9F9002800F09380964E974D0023336086
:104FD0002B60964B92481B68904F012B45D0FBF7F6
:104FE000DFFFE1698046606905F0FCFE014640464E
:104FF00006F0BEF900284CD18948FBF7D1FFE168E3
:1050000006F0B6F908B100232B608548834FFBF703
:105010009FFF216906F08EF958B1002333602B6899
:10502000814A002B01DBBDE8F88F00231360BDE847
:10503000F88F7B48FBF78CFFB96906F07BF90028F5
:10504000EBD17748FBF784FFD7F8B8100446B8696E
:1050500005F0CAFE0146204606F08AF9002873D002
:10506000786E30600028D8DBD9E7FBF799FFE1695B
:105070008046206A05F0B6FE0146404606F078F903
:105080000028B9D06648FBF78BFFD7F820908346FD
:1050900005E06348FBF784FFD7F814908346F9696D
:1050A000484605F09FFE8246F86D05F051FF8046A8
:1050B000386E05F04DFF414605F094FE5146074617
:1050C000584605F08FFE0146384605F095FF5146DB
:1050D0000746484605F086FE0146384606F040F889
:1050E000414605F081FE06F04DF9286084E74C4802
:1050F000FBF7ACFF216B06F01DF9002849D0494EA3
:10510000636E47483360FBF7A1FF8146E06DE76AB5
:10511000454D05F01DFF39468046484605F062FEC4
:105120000146404605F068FF39468046206B05F091
:1051300059FE0146404606F013F8002105F054FEE2
:1051400006F020F9286044E73548FBF701FF814667
:10515000F86DBC6905F0FCFE21468046484605F026
:1051600041FE0146404605F047FFD7F8B81080469B
:10517000204605F039FE214605F034FE0146404642
:1051800005F0EEFF002105F02FFE06F0FBF8306081
:1051900068E72348FBF75AFF616B06F0CBF830B1A4
:1051A000204E214D626EE36D32602B6011E71C488A
:1051B000FBF74CFFA16A06F0BDF800283FF404AFEE
:1051C0001748184E184DFBF741FF8146606ED4F822
:1051D000348005F0BDFE41460746484605F002FE14
:1051E00039468146002005F0FDFD0146484605F0A0
:1051F00003FF41468146A06A05F0F4FD014648469A
:1052000005F0AEFF394605F0EFFD06F0BBF8E36DA3
:1052100030602B60DDE600BFA494FF1F3C93FF1FAE
:10522000EC94FF1FB094FF1F5892FF1F7492FF1F52
:1052300008B5274804F034FB0721264804F09AF803
:10524000112002F03FFD0621F8B1234804F092F846
:10525000122002F037FD062100B3204804F08AF83E
:10526000122002F02FFD062108B31D4804F082F839
:10527000132002F027FD062110BB1A4804F07AF82B
:105280001348BDE8084004F00BBB174804F072F85F
:10529000122002F017FD06210028DED1134804F089
:1052A00069F8122002F00EFD06210028DDD1104819
:1052B00004F060F8132002F005FD06210028DCD080
:1052C0000C4804F057F80248BDE8084004F0E8BA7A
:1052D000CC87FF1F3807010040070100500701007D
:1052E0006007010078070100480701005807010026
:1052F000680701007007010010B5254C2368042BD6
:1053000027DC01210B2002F0D7FC01210C2002F048
:10531000D3FC0121142002F0CFFC0121152002F062
:10532000CBFCFF21162002F047FBFF21172002F0E3
:1053300043FBFF21052002F03FFBFF21062002F086
:105340003BFB236801330A2B2360C4BF0023236087
:1053500010BD00210B2002F0AFFC00210C2002F058
:10536000ABFC0021142002F0A7FC0021152002F064
:10537000A3FC0021162002F01FFB0021172002F0E1
:105380001BFB0021052002F017FB0021D6E700BF20
:10539000C494FF1F10B5092182B0974802F0A6FF00
:1053A000222002F04BFF954B1B78052B0BD8DFE832
:1053B00013F00A010F01140119011E010600072153
:1053C0008F4802F093FF222002F038FFFF2002F006
:1053D00035FFFF2002F032FF8A4CFF2002F02EFF43
:1053E0000821894802F082FF2168884804F0A8FA61
:1053F000FF2002F023FFFF2002F020FFFF2002F039
:105400001DFF0921824802F071FF21687F4804F0E6
:1054100097FAFF2002F012FFFF2002F00FFFFF209B
:1054200002F00CFF0C217B4802F060FF7A4B1C68F5
:105430000021204605F09CFF002800F0C180204696
:10544000764905F08DFE05F02DF9002402460B4645
:1054500000946E4804F07CFAFF2002F0EFFEFF207B
:1054600002F0ECFEFF2002F0E9FE09216C4802F098
:105470003DFF6C48FBF7EAFD05F014F90094024685
:105480000B46624804F064FAFF2002F0D7FEFF20CA
:1054900002F0D4FEFF2002F0D1FE0C21624802F09F
:1054A00025FF6048FBF732FE05F0FCF80094024649
:1054B0000B46564804F04CFAFF2002F0BFFEFF20D6
:1054C00002F0BCFEFF2002F0B9FE0D21574802F0A9
:1054D0000DFF5448FBF718FE05F0E4F8009402466F
:1054E0000B464A4804F034FAFF2002F0A7FEFF20E2
:1054F00002F0A4FEFF2002F0A1FE09214C4802F0B8
:10550000F5FE4848FBF772FD05F0CCF80094024622
:105510000B463E4804F01CFAFF2002F08FFEFF20ED
:1055200002F08CFEFF2002F089FE0C21414802F0BF
:10553000DDFE3C48FBF70CFD384905F05DFD05F04C
:10554000B1F8009402460B46304804F001FAFF20FF
:1055500002F074FEFF2002F071FEFF2002F06EFEEA
:105560000D21354802F0C2FE2E48FBF719FD2B49EC
:1055700005F042FD05F096F8009402460B462348DC
:1055800004F0E6F9FF2002F059FEFF2002F056FE7B
:10559000FF2002F053FE0921284802F0A7FE284B05
:1055A0001A48196804F0CCF9FF2002F047FEFF20EA
:1055B00002F044FEFF2002B0BDE8104002F03EBE03
:1055C00004F100403CE706211E4802F08FFEFAE697
:1055D00007211D4802F08AFEF5E607211B4802F06C
:1055E00085FEF0E608211A4802F080FEEBE60B216A
:1055F000184802F07BFEE6E680070100A494FF1F36
:1056000008FC00003487FF1F8C070100BC87FF1FC8
:1056100098070100A40701008092FF1F00007A4450
:10562000B4070100EC94FF1FC0070100D007010080
:10563000E0070100EC070100FC0701000C08010075
:105640002487FF1FD8FB0000E0FB0000F4FB0000F4
:10565000FCFB0000E8FB00002DE9F0418D4DD5F882
:10566000AC30042B3ED0032B6ED0012B00F0988081
:10567000022B01D0BDE8F081874C8848237240F2AC
:105680000E32012321462260E37101F06FF9844B51
:105690001B685B00FF2BC8BFFF23042140224FF48F
:1056A00041702060E17122726372286D05F050FC38
:1056B000696905F0A1FC7B49054605F059FE002803
:1056C00000F0DE802946284605F08EFB05F080FEBE
:1056D00080B20312E072A3726F497048BDE8F041D6
:1056E00001F044B96C4C704AA379226043F0010385
:1056F0000822E271A371286D05F02AFC696905F0A2
:105700007BFC6A4905F078FC05F062FE644B684A50
:105710001B68126893FBF2F380B200261A1207127C
:10572000607221465D48E372A27227722673667327
:10573000A673E67301F01AF9A279D5F8AC3066F3D6
:105740000002032BA27190D1534C286DA372012249
:10575000E823072140F2FF26227263722660E1717E
:1057600005F0F6FB696905F047FC504905F044FC7B
:1057700005F02EFE4A4B4E4A1B68126893FBF2F36B
:1057800082B21E121712214644486373E2722773D5
:10579000A67301F0EBF8D5F8AC30012B7FF468AFBD
:1057A000444B3D4C1B682360072280231020E2718C
:1057B000237202F087FA002869D13F4B1B68DFF89B
:1057C000E0803B4F286D344E03EB83035B001A12DD
:1057D000A3726272D8F800303A6893FBF2F31A129F
:1057E0006273A37305F0B4FB696905F005FC334BE4
:1057F000196805F0F7FA2D4905F0FEFB05F0E8FD04
:1058000080B20312314620732448E37201F0AEF8EF
:10581000022002F08DFA2A4B1B68236007228023A6
:105820001020E271237202F04DFA70BB224B1B680C
:10583000286D03EB83035B001A127272B37205F0DA
:1058400087FB696905F0D8FB1E4B196805F0CAFA99
:10585000164905F0D1FB05F0BBFD82B2161238687F
:10586000D8F80030227393FBF0F30B490B48A37375
:105870001A12E672627301F079F8D5F8AC30F7E6E7
:1058800001229023A272E37226E70F4BCFE70E4B63
:1058900094E700BF3C93FF1FD094FF1FC0B4FF1FCD
:1058A0005892FF1F00004843F4E50618000020410D
:1058B0004C87FF1F6087FF1F4487FF1F0494FF1F53
:1058C0006487FF1F8892FF1F4887FF1F2DE9F04F55
:1058D00093B001E0FFF7D8FAA34800F009FF0028D1
:1058E000F8D103F01DFD002801DDFDF74FFD9F4EAF
:1058F0009F4D3368012B13D0FDF736FAD5F89C4045
:10590000012C00F0AF819B4F3B78052B00F2D68035
:10591000DFE813F08C0154010A01E500D600B9005C
:10592000954C2368954A0993099B1168924F5B1A1D
:10593000B3F5FA7F36D82368914E0E930E9B3168EB
:1059400041F288325B1A93421CD823688D4A109327
:10595000109B1068D5F8B010854C874D1B1A8B42F0
:105960000DD92B681193D4F89C3011991160012B3B
:1059700000F0E6817F4B1B78032B00F0E18113B030
:10598000BDE8F08F8048FBF717F9002800F002828D
:10599000784B1A78052A00F0D08123680F930F9B6B
:1059A0003360D2E73B680A930A9B77481360FBF7A2
:1059B00083FAD5F89C30DFF8B881012B17D07248F4
:1059C000FBF7C6FAD8F8101005F0B4FC002800F078
:1059D000408223686D4A0B930B9B12689A420BD945
:1059E00064496B4B0520022208701A6004E0694B81
:1059F0001B68002B40F06882674B1B68002B40F04F
:105A0000ED81664F3B68002B40F0DD81644B1B68E5
:105A1000002B40F0BC813368002B00F09681FFF72B
:105A20006BFCFCF7B3FFFFF7BFFAFDF747FB5D4BDD
:105A30005D4E4D4820221A724FF4007E0022194616
:105A40004FF00308C3F800E083F807805A729A7297
:105A500000F08CFF33684C48002B40F07981FBF755
:105A6000C9F83060FCF7C2F93B68012B01D0FFF7A1
:105A700091FC72B64D4B4AF202614BF280421980A2
:105A80001A8062B657E74A4B0024214615201C6055
:105A900002F012F92146142002F00EF921460C20E2
:105AA00002F00AF90B20214602F006F9414B1120C1
:105AB0001C6002F007F9002800F0B7812E4C05E0C9
:105AC0003B4B2D4C00221A60FDF7F4F8EB6F23F0EE
:105AD0000203012B7FF425AFFCF7A8FC21E7344B30
