:1000000000800020BD0100007985000031850000DE
:100010003185000031850000318500003185000008
:1000200031850000318500003185000079850000B0
:100030007985000031850000917B0000957C0000EF
:1000400079850000798500007985000079850000B8
:1000500079850000798500007985000079850000A8
:100060007985000079850000798500007985000098
:100070007985000079850000798500007985000088
:100080007985000079850000798500007985000078
:100090007985000079850000798500007985000068
:1000A0007985000079850000798500007985000058
:1000B000798500007D710000897100008D7100005C
:1000C000997100009D710000A17100007985000008
:1000D0007985000079850000798500007985000028
:1000E0007985000079850000798500007985000018
:1000F00079850000C1A60000798500006D9200009E
:100100007985000039940000798500007985000028
:1001100079850000798500007985000079850000E7
:1001200079850000798500007985000079850000D7
:1001300079850000798500007985000079850000C7
:1001400079850000798500007985000079850000B7
:1001500079850000798500007985000079850000A7
:1001600079850000C9960000798500007985000036
:100170007985000079850000798500007985000087
:100180007985000079850000798500007985000077
:100190007985000079850000798500007985000067
:1001A0007985000079850000798500007985000057
:1001B000798500007985000079850000564B4CF266
:1001C000205210B51A804DF628121A8000BF00BFC9
:1001D00008F0D6F9514B4FF010621A60504A9A60FD
:1001E000504ADA60504A136813F4807304D14F49BF
:1001F0000B604FF4A85313604D4B1A78110703D5C9
:100200001A7842F008021A704A4B4B492A221A7097
:100210004A4A4B4B8B4204D252F8040F43F8040B6A
:10022000F8E7484B484900228B4202D243F8042B9E
:10023000FAE74649464A002352F8230041F82300D2
:1002400001336F2BF8D1434B434A802103F8011B44
:100250009342FBD1414B3D4A1A60414B8A221A70AE
:10026000A3F5805324225A70A0221A709A7992071B
:10027000FCD59A79D406FCD43A4A937903F00C035E
:10028000082B384BF9D103221A7140225A719A79FE
:100290009006FCD5334A9179324B4906FBD5324A58
:1002A000324911600221516020221A709A7902F0BD
:1002B0000C020C2AFAD12E4B2E4A1A602E4B2F4AD2
:1002C0001A6000225A60072243F8042C2C4AC3F813
:1002D0000C2D62B608F034FC144B1B68DA0705D508
:1002E000284808F011FA284B284A1A60284B1B7836
:1002F0005B0609D5244C254B22689A4204D121483B
:1003000008F002FA002323600BF0BCFC08F03EF971
:1003100008F06CF8FEE700BF0E2005403080044076
:10032000823F04000100002B10D0034014D0034092
:1003300002D0074000E007402892FF1FB4160100DA
:100340002087FF1F2892FF1FB0B9FF1F0082FF1FE9
:100350000000000000E400E05FE400E008ED00E0E1
:100360000050064000400640448004400000030165
:1003700004800440C010050014E000E0FF76010096
:10038000000020209DAD175D1CE00340A5C3945ADA
:1003900000F00740FFFFFFFFFFFFFFFFFFFFFFFF32
:1003A000FFFFFFFFFFFFFFFFFFFFFFFFFFFFFFFF5D
:1003B000FFFFFFFFFFFFFFFFFFFFFFFFFFFFFFFF4D
:1003C000FFFFFFFFFFFFFFFFFFFFFFFFFFFFFFFF3D
:1003D000FFFFFFFFFFFFFFFFFFFFFFFFFFFFFFFF2D
:1003E000FFFFFFFFFFFFFFFFFFFFFFFFFFFFFFFF1D
:1003F000FFFFFFFFFFFFFFFFFFFFFFFFFFFFFFFF0D
:10040000FFFFFFFFFFFFFFFFFFFFFFFFDEF9FFFF23
:1004100010B5054C237833B9044B13B10448AFF33E
:1004200000800123237010BD2892FF1F00000000F0
:10043000B0160100084B10B51BB108490848AFF3CE
:1004400000800848036803B910BD074B002BFBD0A0
:10045000BDE81040184700BF000000002C92FF1FAD
:10046000B01601002892FF1F000000002DE9F041A6
:10047000002600F5C67400F5D0774FF0000854F858
:10048000045F0E4928460BF0A7FB0D4950B12846E2
:100490000BF084FB30B1304629460BF0D9F808F157
:1004A0000108064640460BF087F9014630460BF03E
:1004B0008BFABC420646E2D1BDE8F0810000A0C143
:1004C00000001643F0B4194F0024031F00F180010F
:1004D00000F5827200F17C0643F8044FB34241F804
:1004E000047F4FF0000542F8044FF5D10023104A75
:1004F0001049C0F88C51C0F89051C0F89451C0F820
:100500009851C0F89C51C0F8A051C0F8B051C0F843
:10051000A421C0F8AC21C0F8A81180F8B83180F847
:10052000B93180F8D031F0BC704700BF0000A04066
:10053000000048430000C8C238B590F8D0310B2BFA
:100540000546144607D8702966D0E02931D06029C5
:1005500000F09B8038BD70293AD0E02929D060296D
:10056000F8D1137A507A1B0203F47063181805D07F
:100570000BF022F963490BF073F96860A37AE07A13
:100580001B0203F47063181805D00BF015F95D49D0
:100590000BF066F9A860237B607B1B0203F4706399
:1005A0001818D7D00BF008F956490BF059F9E86044
:1005B00038BDE37BA07B03EB00200BF0FDF8524934
:1005C0000BF04EF951490BF043F8C5F8900138BDD6
:1005D000137A507A1B0203F4FE43181805D00BF06F
:1005E000EBF848490BF03CF96861A07AE37A13EB29
:1005F000002005D00BF0E0F842490BF031F9A8617A
:10060000207B637B13EB0020A4D00BF0D5F83D4991
:100610000BF026F9E86138BD137A507A1B0203F417
:100620007063181805D00BF0C7F836490BF018F9AD
:100630006861A37AE07A1B02C34208D003F47063B6
:1006400018440BF0B9F82F490BF00AF9A861237B85
:10065000607B1B02C34208D003F4706318440BF0A4
:10066000ABF828490BF0FCF8E861A37BE07B1B02A8
:10067000C3423FF46FAF03F4706318440BF09CF86F
:1006800020490BF0EDF8286238BD137A507A1B022E
:1006900003F4FE42C24208D003F4706318440BF026
:1006A0008BF818490BF0DCF86860A37AE07A1B023B
:1006B000C34208D003F4706318440BF07DF811496D
:1006C0000BF0CEF8A860237B607B1B02C34208D0EE
:1006D00003F4706318440BF06FF80A490BF0C0F88C
:1006E000E860A37BE07B1B02C3423FF433AF03F41B
:1006F000706318440BF060F802490BF0B1F8286100
:1007000038BD00BF0AD7A33ADDB504BD00001643CB
:10071000D0F8DC01704700BF90F8C001704700BFFF
:1007200090F8BC01704700BF90F8C401704700BF4B
:1007300090F8C801704700BF202994BF50F82100ED
:10074000002070472DE9F0410B4E8046041F00F158
:100750007C0754F8045F314628460BF01FFA30B18D
:10076000D8F8B41128460BF037FA00B12E46BC4237
:10077000EFD13046BDE8F081000020412DE9F04185
:10078000D0F8B4714FF00008041F00F17C0654F853
:10079000045F394628460BF01FFA084948B128463D
:1007A0000BF0FCF9414620B128460BF015FA00B1D8
:1007B000A846B442EBD14046BDE8F0810000A0401D
:1007C0002DE9F0470023D0F8B471C0F8DC3182463F
:1007D0001C464FF000099846061F56F8045F38463D
:1007E00029460BF0DBF90E4960B128460BF0D6F92B
:1007F00040B1484629460AF02BFF08F1010881461E
:10080000CAF8DC410134202CE7D1CAF8D481404633
:100810000AF0D2FF014648460BF0D6F8BDE8F08753
:1008200000007042D0F8D401704700BFD0F8CC313E
:1008300070B5044683BBFFF719FE4FF07C510BF0F7
:10084000CBF940B3D4F890614FF07C5130460BF0B7
:10085000C3F9D4F8945118BBD4F898414FF07C51A7
:1008600028460BF0B9F958B1294630460BF0B4F9D7
:1008700030B1214628460BF091F908B12C4625E00D
:100880004FF07C5120460BF0A7F920B128462146B5
:100890000BF0A2F9A0B970BD633350F82300CCE788
:1008A000304629460BF07AF9D4F898410028D5D083
:1008B000304621460BF072F90028CFD0344605E0CF
:1008C000304621460BF088F90028E4D0204670BD60
:1008D00038B5D0F89441D0F89051214628460BF015
:1008E0005DF900B92C46204638BD00BFD0F8CC31A8
:1008F0000BB9FFF7BBBD633350F82300704700BF4F
:100900002DE9F8434FF00008D0F8B471C0F88C819D
:100910008146041F00F17C0654F8045F39462846DE
:100920000BF05AF9084950B128460BF037F930B1AD
:10093000404629460AF08CFE8046C9F88C01B44234
:10094000EAD14046BDE8F8830000704202299ABF10
:10095000643150F821000020704700BF102998BF73
:1009600080F8D011704700BF90F8D001704700BFE9
:1009700090F8B801704700BFC0F8CC11704700BFB5
:1009800080F8B811704700BF80F8B911704700BFF8
:1009900030B5C0F8B41183B008460AF0B7FA074C76
:1009A000022502460B460095204607F079FA2046BC
:1009B00003B0BDE8304007F01BBA00BFC887FF1F77
:1009C00070B500F500550646183500F1380420468C
:1009D00004F5F074FFF776FDAC42F8D106F5067524
:1009E000012428460021FFF7CBFF21462846013489
:1009F000FFF7B4FF112C05F5F075F2D142F2200497
:100A000000250548054A064B3555002130627162C4
:100A1000B262F362304670BD00007A440000484381
:100A20000000C8C242F224032DE9F041002200F583
:100A3000F15500F500578046C2501835243700F5AF
:100A4000067403E004F5F074AC420ED02046FFF7C4
:100A50008FFF0028F6D020463E68FFF7E3FE04F53E
:100A6000F0743044AC423860F0D142F2240358F8BC
:100A70000300BDE8F08100BFF8B50F46096801F03A
:100A80000F050135C5EB051400EB441000F13804E7
:100A9000204601F0F006FFF767FF854203D02946A4
:100AA0002046FFF75BFF20460121FFF769FF204644
:100AB0000121FFF769FF3A4631462046BDE8F8407C
:100AC000FFF73ABD70B5002300F5005605460361F7
:100AD000183600F5067403E004F5F074A64223D03E
:100AE0002046FFF745FF0028F6D02046FFF708FF15
:100AF000014628690AF0ACFD28612046FFF796FE02
:100B0000A96A0BF04BF820BB2046FFF7E1FEE96A2B
:100B10000BF062F80028DFD02046FFF7D9FE04F57D
:100B2000F074A642E862DBD168690AF045FE01462E
:100B300028690AF049FF696A286104460BF04CF8FD
:100B400000B16C62296A20460BF028F800B12C62D3
:100B500070BD2046FFF76AFEA862D5E770B5124B5C
:100B6000836100F500550646183500F5067403E06C
:100B700004F5F074AC4214D02046FFF7F9FE0028CB
:100B8000F6D02046FFF7DEFDB1690BF007F800282C
:100B9000EED02046FFF7D6FD04F5F074AC42B0610C
:100BA000EAD1B06970BD00BF0000A0402DE9F04F50
:100BB00083B000F10F0200F10709114600920446CC
:100BC0004B46002203F8012F9942FBD104F506752C
:100BD00004F110032E4604F108089B4601953046A7
:100BE000FFF7C6FEC0B101274FF0000A2046FFF70D
:100BF000B5FF394605463046FFF79EFD01462846BB
:100C00000AF0CCFF18B10123BB404AEA030A0137BE
:100C1000092FEBD188F800A008F10108C34506F5BB
:100C2000F076DCD14FF4407208232260E371214654
:100C30002048019D06F042F9009A002309F8013F7F
:100C40004A45FBD104F5885B0BF1180B04F101094F
:100C50004FF0010A2846FFF78BFEC0B101264FF086
:100C600000082046FFF77AFF314607462846FFF77F
:100C700063FD014638460AF091FF18B10AFA06F3FF
:100C800048EA03080136092EEBD189F8008005F502
:100C9000F0755D4509F10109DCD106484FF4447255
:100CA000052321462260E37103B0BDE8F04F06F052
:100CB00005B900BF14B5FF1F70B5002300F500553E
:100CC0000646C361183500F5067403E004F5F074B8
:100CD000AC4214D02046FFF74BFE0028F6D0204649
:100CE000FFF74CFDF1690AF077FF0028EED02046AF
:100CF000FFF744FD04F5F074AC42F061EAD1F0690D
:100D000070BD00BF0069704741617047F8B50F467C
:100D1000164600F50674012504E00135112D04F591
:100D2000F0741BD02046FFF723FE0028F5D029469B
:100D30000B4807F0ADF80A4807F05AF8782009F098
:100D4000DDFB20463946FFF717FE013520463146C8
:100D5000FFF71EFE112D04F5F074E3D1F8BD00BFBE
:100D6000C887FF1F2DE9F84300F5005542F21C0328
:100D70002E4600278046C7504FF0000918351C3614
:100D800000F5067403E004F5F074A54214D0204683
:100D9000FFF7EEFD0028F6D03368013333602046BC
:100DA000FFF7A4FD1D490AF017FF90B904F5F07490
:100DB000A54207F10107EAD142F21C0358F80300EB
:100DC000C01B0AF0F9FC014648460AF0FDFDBDE8EB
:100DD000F8832046FFF78AFD014648460AF038FCB2
:100DE00081462046FFF782FDD8F830100AF0F4FE65
:100DF00070B92046FFF77AFDD8F834100AF0CEFE1D
:100E00000028C0D02046FFF771FDC8F83400BAE7CB
:100E10002046FFF76BFDC8F83000EAE700008CC2FF
:100E2000006B7047406B7047F8B500F500550746FA
:100E30000026183500F5067403E004F5F074AC42A2
:100E400010D02046FFF794FD0028F6D02046FFF78B
:100E5000B7FC014630460AF0FBFB04F5F074AC42E7
:100E60000646EED142F21C03F8580AF0A5FC0146F2
:100E700030460AF0A9FDF8BD2DE9F04F93B00446C5
:100E80000F91002A40F0D78115461046C84900F05E
:100E9000E5FDC749284600F0E1FDC549284600F0B8
:100EA000DDFD42F21C03204654F803B0FFF7BAFD03
:100EB0008146206966690AF029F8CDE910012046CB
:100EC000FFF7B2FF82462046A769D4F81C80FFF7DF
:100ED00049FF0AF01BF8CDE90C01394640460AF0FB
:100EE000B5FBB4490AF0BCFC0AF010F8CDE90A01E0
:100EF00040460AF00BF8CDE9080138460AF006F83A
:100F0000CDE9060150460AF001F8DDE91023CDE9EC
:100F10000401CDE90223A84900964B465A462846CB
:100F200000F09CFDA249284600F098FD04F50674E7
:100F30004FF0010ADDF83C9007E00AF1010ABAF12E
:100F4000100F04F5F07400F0F7802046FFF710FD55
:100F50000028F2D02046FFF7DFFB2046FFF7E0FB3A
:100F60002046FFF7E1FB2046FFF7E2FB082193480C
:100F700009F040FA5146924806F08AFFBAF1090F8B
:100F800003DC01218F4809F035FA02218E4809F06F
:100F900031FA2046FFF7B4FC09F0B8FF5FFA89F890
:100FA00002460B46CDF80080854806F079FF012106
:100FB000864809F01FFA2046FFF7AAFB0C2800F329
:100FC000BE8001261EE00621814809F013FA294659
:100FD0007B4806F05DFF02217E4809F00BFA31469E
:100FE0002046FFF7A9FB09F091FFCDF800800246EB
:100FF0000B46734806F054FF012174483D460E44E9
:1010000009F0F8F92046FFF783FB864205F1010756
:101010006BDC092DD7DC01216A4809F0EBF9D2E736
:101020002046FFF775FB172800F3BE8035460D26D6
:101030001CE009F0DFF92946614806F029FF02218A
:10104000644809F0D7F931462046FFF775FB09F0EF
:101050005DFFCDF8008002460B46594806F020FFA0
:1010600001215A483D460E4409F0C4F92046FFF7D5
:101070004FFB86424FF00601554805F10107D8DDC8
:101080000F21554809F0B6F94D4806F0B1FE20464B
:10109000FFF73EFB192828DD19261CE009F0AAF904
:1010A0002946474806F0F4FE02214A4809F0A2F911
:1010B00031462046FFF740FB09F028FFCDF80080BD
:1010C00002460B463E4806F0EBFE01213F483D46F6
:1010D0000E4409F08FF92046FFF71AFB86424FF0C5
:1010E00006013B4805F10107D8DD0F213A4809F018
:1010F00081F9334806F07CFE0921384809F07AF975
:1011000000212046FFF722FC09F000FF02260246DC
:101110000B4600962A4806F0C3FE0F212E4809F020
:1011200069F90AF1010A264806F062FEBAF1100FC9
:1011300004F5F0747FF409AF13B0BDE8F08F2F46CB
:10114000012620E00621224809F054F939461C48BE
:1011500006F09EFE02211F4809F04CF93146204658
:10116000FFF7EAFA09F0D2FECDF8008002460B46FE
:10117000134806F095FE01360121144809F03AF9AA
:101180000C2E09D05F46092F07F1010BDADC012193
:101190000C4809F02FF9D5E72046FFF7B9FA0C28DB
:1011A00005F10B063FF73CAF16350D273AE000BFBF
:1011B00008FF000000007A44A00001004001010087
:1011C000C887FF1F40030100AC0F01004C01010064
:1011D00050010100300301005801010068010100C5
:1011E0000621BD4809F006F93146BC4806F050FE1C
:1011F0000221BB4809F0FEF839462046FFF79CFA69
:1012000009F084FECDF8008002460B46B34806F094
:1012100047FE0121B3480F4409F0ECF85D453FF467
:101220002FAF5E46092E06F1010BD9DC0121AE4835
:1012300009F0E0F8D4E7AD49012000F00FFCAB491C
:10124000012000F00BFCA949012000F007FC42F24C
:101250001C032046E2581092FFF7E4FB8246206907
:10126000666909F053FE804620468946FFF7DCFD9B
:1012700083462046A569E769FFF774FD09F046FE3D
:10128000CDE90C01294638460AF0E0F998490AF000
:10129000E7FA09F03BFECDE90A01384609F036FECF
:1012A000CDE90801284609F031FECDE9060158468E
:1012B00009F02CFE5346CDE90401CDE90289109ACC
:1012C0008C490096012000F0C9FB8849012000F0FC
:1012D000C5FB04F506744FF0010A0025DDF83C90CB
:1012E00007E00AF1010ABAF1100F04F5F0743FF4B7
:1012F00023AF2046FFF73CFB0028F2D02046FFF743
:101300000BFA2046FFF70CFA2046FFF70DFA2046AD
:10131000FFF70EFA0821784807F0A4FE51467748F7
:1013200006F0B6FDBAF1090F03DC01216E4807F0A3
:1013300099FE0221724807F095FE2046FFF7E0FA79
:1013400009F0E4FD5FFA89F802460B46CDF800800B
:101350006A4806F0A5FD0121624807F083FE204699
:10136000FFF7D6F90C2800F3B48001261EE0062111
:10137000594807F077FE2946604806F089FD0221AA
:10138000574807F06FFE31462046FFF7D5F909F0C0
:10139000BDFDCDF8008002460B46584806F080FDA2
:1013A000012150483D460E4407F05CFE2046FFF701
:1013B000AFF9864205F101076BDC092DD7DC01216D
:1013C000494807F04FFED2E72046FFF7A1F917285A
:1013D00000F3CE8035460D261CE007F043FE29467B
:1013E000464806F055FD02213D4807F03BFE3146D8
:1013F0002046FFF7A1F909F089FDCDF800800246EB
:101400000B463E4806F04CFD012136483D460E4451
:1014100007F028FE2046FFF77BF986424FF00601D1
:101420002D4805F10107D8DD0F21364807F01AFED7
:10143000324806F0DDFC2046FFF76AF9192828DD5E
:1014400019261CE007F00EFE29462C4806F020FD68
:101450000221234807F006FE31462046FFF76CF9CB
:1014600009F054FDCDF8008002460B46234806F0F3
:1014700017FD01211B483D460E4407F0F3FD2046B1
:10148000FFF746F986424FF00601134805F10107C0
:10149000D8DD0F211B4807F0E5FD184806F0A8FC31
:1014A0000921194807F0DEFD00212046FFF74EFA1A
:1014B00009F02CFD022602460B4600960F4806F066
:1014C000EFFC0F210F4807F0CDFD0C4806F090FC13
:1014D00007E72F4601263AE050010100C887FF1FA9
:1014E000300301004C0101004003010008FF00002F
:1014F00000007A44A000010040010100AC87FF1FFA
:10150000AC0F0100580101006801010006212F48BD
:1015100007F0A8FD39462E4806F0BAFC02212D48F6
:1015200007F0A0FD31462046FFF706F909F0EEFC72
:10153000CDF8008002460B46254806F0B1FC013686
:101540000121254807F08EFD0C2E09D05F46092F9A
:1015500007F1010BDADC0121204807F083FDD5E714
:101560002046FFF7D5F80C2805F10B063FF72CAF06
:1015700016350D2721E00621144807F073FD31468A
:10158000134806F085FC0221124807F06BFD39462E
:101590002046FFF7D1F809F0B9FCCDF800800246EB
:1015A0000B460B4806F07CFC01210B480F4407F06A
:1015B00059FD5D453FF438AF5E46092E06F1010B3B
:1015C000D9DC0121054807F04DFDD4E750010100A9
:1015D000AC87FF1F300301004C01010040030100F4
:1015E0002DE9F04F85B000F506758A4603929B46BB
:1015F0002E464FF0010806E008F10108B8F13F0F50
:1016000006F5F0767BD03046FFF7B2F90028F3D02C
:1016100000230A2251467D4806F0FAFB01217C484E
:1016200008F0E8FE039809F071FC002302460093DD
:1016300076480B4606F034FC0121754808F0DAFEC6
:101640005946724806F024FC0121714808F0D2FE88
:1016500041466E4806F01CFC01216D4808F0CAFEA8
:1016600000244FF0020921463046FFF765F809F0E3
:101670004DFCCDF8009002460B46644806F010FC85
:1016800001340121624808F0B5FE082C4FF0020732
:10169000E9D100213046FFF759F909F037FC0097EE
:1016A00002460B46594806F0FBFB0121584808F05A
:1016B000A1FE01213046FFF749F909F027FC009708
:1016C00002460B46514806F0EBFB0121504808F05A
:1016D00091FE39463046FFF739F909F017FC0097BB
:1016E00002460B46494806F0DBFB08F10108474873
:1016F00006F07EFBB8F13F0F06F5F07683D10127A7
:101700004FF0000904E001373F2F05F5F07579D05F
:101710002846FFF72DF90028F5D000230A2251466C
:101720003C4806F075FB0121394807F09BFC039803
:1017300009F0ECFBCDF8009002460B46354806F068
:10174000AFFB0121324807F08DFC5946314806F0C5
:101750009FFB01212E4807F085FC39462D4806F0F5
:1017600097FB01212A4807F07DFC00244FF0020876
:1017700021462846FEF7E0FF09F0C8FBCDF80080BF
:1017800002460B46234806F08BFB0134012120481A
:1017900007F068FC082C4FF00206E9D1002128462A
:1017A000FFF7D4F809F0B2FB009602460B46194841
:1017B00006F076FB0121164807F054FC012128466B
:1017C000FFF7C4F809F0A2FB009602460B46114849
:1017D00006F066FB01210E4807F044FC314628461E
:1017E000FFF7B4F809F092FB009602460B46094851
:1017F00006F056FB0137074806F0FAFA3F2F05F5C9
:10180000F07585D105B0BDE8F08F00BFC887FF1F18
:1018100074010100AC87FF1F70B5044608460D46F1
:101820000BF00EF823680246294620465B68BDE8A7
:1018300070401847014B1870704700BF2087FF1F8A
:10184000F0B51546027883B062B103460E46252AEC
:1018500016D018781C4685B908F050FE6278631CD3
:10186000002AF4D1002D5CD0744803B0BDE8F040EC
:1018700006F0BEBA1046002DEED007F09BFBEDE758
:1018800058785C1C0028EDD02528F3D073282FD081
:10189000642825D0692823D0662848D07A2853D0D8
:1018A00078285ED0582800F08580622800F091806A
:1018B000422866D06C2813D0632811D0742800F019
:1018C00098805428C7D133680436002D40F0A48096
:1018D000012B00F0A8800521594808F08BFDBDE7D9
:1018E000331D316885B957481E4606F0D1FAB5E771
:1018F000371D3668304665B90AF0A2FF014630460A
:101900003E4608F077FDA9E74C481E4606F0C0FAAF
:10191000A4E70AF095FF014630463E4607F0A2FBD9
:101920009CE7484803B0BDE8F04006F061BA0736CE
:1019300026F007060321D6E90023009165B9414846
:10194000083606F0ADFA89E7073626F00706D6E92D
:10195000002385B1002100913848083606F0A0FA2E
:101960007CE7371D3168F5B90023102235483E4623
:1019700006F04EFA72E700953248083606F090FA03
:101980006CE7022130487DBB08F034FD3168371D1B
:101990002B4602222B483E4606F03AFA5EE707F055
:1019A00061FB3168371D0023102224483E4606F0B3
:1019B0002FFA53E702212548002DF0D108F01AFD37
:1019C000371D31681F482B4610223E4606F020FA8C
:1019D00044E7371D3168002DDAD000230222174872
:1019E0003E4606F015FA39E707F03CFB371D316833
:1019F000F3E7316804363DB901290EBF1448154894
:101A0000012108F0F7FC29E701290EBF1048114811
:101A1000012107F027FB21E7012B09D00521084808
:101A200007F020FB1AE70C490648FFF7F5FE15E71B
:101A300009490248FFF7F0FE10E700BFAC87FF1F1F
:101A4000B4010100C887FF1FA00101009C01010033
:101A5000A4010100A8010100AC0101000EB400B511
:101A600082B003A9024651F8040B0191FFF7E8FE8A
:101A700002B05DF804EB03B0704700BF30B4074D0F
:101A8000074C084900232B70236003654365836579
:101A900080F85C300B6030BC704700BF4C92FF1F79
:101AA0004892FF1F4492FF1FF8B53C493C4F3D4D03
:101AB0003D4E3E4C0020FFF7D1FF3D4B3D483E4997
:101AC0003E4A5860D9603E481F6100213D4F5A612F
:101AD0005D623D4A9E614FF07C553C4E9C623C4CA1
:101AE000D86219630C203B495F639A633A4F5D6487
:101AF00040F61C420A259E64DC6441F204065A2426
:101B00001865196202200121C3F8B8709A66334F34
:101B1000DD66002264251E675C674FF496763224EA
:101B20005870587219725965DF61DF6383F840207D
:101B30005E66DE651C664FF47A7E9D65284F9A6767
:101B4000284ED867C3F88020C3F89440C3F8A0405B
:101B5000C3F89C20C3F8A810C3F8AC00FF240520EC
:101B600083F8BC1083F8BD2041F2883140F2D66280
:101B7000C3F8B050C3F898E0C3F88870C3F88C601D
:101B8000C3F8A440A3F8B600C3F89010A3F8B410AB
:101B9000A3F88420A3F88620F8BD00BFBC01010093
:101BA00000004040CDCCCC3DCDCC4C40000082422A
:101BB0003C93FF1F48E8010066668640333383404C
:101BC000000020C1000020420000A0409A99794006
:101BD0000AD7233D333373409A99993ECDCC4C3E7E
:101BE0000000684200C02044F0B54FF47A6085B030
:101BF00006F058FF00210F2006F02CFF00210E20D8
:101C000006F028FF0021112006F024FF00211020FB
:101C100006F020FF0021122006F01CFF00211320F7
:101C200006F018FF01210B2006F014FF01210C2003
:101C300006F010FF0121142006F00CFF01211520F1
:101C400006F008FF0121162006F004FF01211720ED
:101C500006F000FF0121052006F0FCFE8D4C8E4DA4
:101C60000121062006F0F6FE01210D2006F0F2FE0D
:101C7000208809F09DFD0146162006F055FE2088BB
:101C800009F096FD0146172006F04EFE208809F067
:101C90008FFD0146052006F047FE208809F088FDEB
:101CA00000240146062006F03FFE009423467B4AAE
:101CB0007B497C4804F00AFFE6B23246764979480F
:101CC00004F0B2FE2B79744976486FF300030134B7
:101CD00032462B7104F09EFE082CEDD10924E6B2A9
:101CE00032466D496F4804F09FFE2B796A496D4872
:101CF00043F00103013432462B7104F08BFE0D2CAE
:101D0000EDD1694C4FF0FF322068102105F0AAFA9E
:101D100020684FF0FF32102105F07CFA20684FF068
:101D2000FF32022105F08AFA20684FF0FF320221CB
:101D300005F08EFA00220F21206805F09DFA0C2193
:101D40005A4808F057FB5A4806F052F814215948EF
:101D500008F050FB564806F04BF840F2836006F05E
:101D60005FFF534806F044F81721534808F042FB40
:101D70004F4806F03DF8514B1B789A0600F1B880A9
:101D80004E4B1B781B0700F1BF804C4B1B785F0745
:101D900000F1C680494B1B789E0700F1CD80484B6F
:101DA0001B781D0600F1D480454B1B785C0600F1C2
:101DB000DB80434B1B78980600F1E280404B1B7898
:101DC000590700F1E9803E4B1B781A0700F1F080BB
:101DD0003B4B1B789B0700F1F780354806F008F86D
:101DE00072B6384A4CF220534DF628112024138045
:101DF00023461180013BFDD1334D34483449002343
:101E00004FF480562E8003800B8032F80E3C9BB23C
:101E100043F0D30322F80E3C62B69D2007F0ACFAE3
:101E200021462C482C4D08F0E5FA214805F0E0FF4A
:101E300005F1C0062F462C46601B06F045FA04F853
:101E4000010BB442F8D13B78102B01D0FFF72CFEE8
:101E50000420FFF7EFFC214B002201210D201A6026
:101E600006F0E4FD796D1E48FEF74EFF7A6C97F898
:101E700040101B48FEF74AFF1A4B1B491A68039291
:101E800003981B680293029A184B08601A6005B009
:101E9000F0BD00BF2887FF1F0494FF1FB0B6FF1FCF
:101EA00048E8010014B5FF1FB494FF1FDC010100D6
:101EB000C887FF1FEC0101000402010001F0074088
:101EC00000F007400E200540042005400620054094
:101ED00016200540080301003C93FF1F6492FF1F7A
:101EE000EC94FF1FD8B6FF1FE894FF1F0C94FF1F50
:101EF0002121394808F07EFA384805F079FF384B3F
:101F00001B781B077FF541AF0C21364808F072FAA9
:101F1000324805F06DFF324B1B785F077FF53AAF13
:101F20000E21314808F066FA2C4805F061FF2C4B71
:101F30001B789E077FF533AF17212C4808F05AFA1B
:101F4000264805F055FF2A4B1B781D067FF52CAF60
:101F50000E21284808F04EFA204805F049FF244B8E
:101F60001B785C067FF525AF1221234808F042FA62
:101F70001A4805F03DFF1E4B1B7898067FF51EAFF3
:101F800013211E4808F036FA144805F031FF184BAB
:101F90001B7859077FF517AF1C21194808F02AFA5A
:101FA0000E4805F025FF124B1B781A077FF510AF7E
:101FB0001921144808F01EFA084805F019FF0C4BC7
:101FC0001B789B077FF509AF18210F4808F012FA1C
:101FD000024805F00DFF00E71C020100C887FF1F43
:101FE00001F00740400201005002010060020100C0
:101FF00000F0074078020100880201009C02010005
:10200000B0020100D0020100EC02010070B5464CA4
:10201000464D4748E66800232B70FEF74DFE01460B
:10202000304609F0BBFD08B104232B704048FEF791
:1020300095FD216909F0B2FD18B12B7843F010032A
:102040002B703B48FEF78EFEA16A09F0C5FD18B162
:102050002B7843F040032B70002335486B70FEF75C
:1020600081FEE16A314E09F099FD08B101237370D8
:1020700000232F48EB70FEF71FFE05462C482B4E21
:10208000FEF76CFD0146284609F0E0FAE16B09F025
:10209000A3FD08B10123F370264D254800232B70C2
:1020A000FEF70AFE616A0646E06809F0CFFA0146CB
:1020B000304609F091FD08B104232B701C48FEF74F
:1020C0004DFD616A0646206909F0C2FA01463046B4
:1020D00009F064FD18B12B7843F010032B701448FD
:1020E000FEF740FEA16B0646A06A09F0AFFA014672
:1020F000304609F071FD18B12B7843F040032B7086
:1021000000230B486B70FEF72DFEA16B0546E06ABD
:10211000084C09F09DFA0146284609F03FFD08B138
:102120000123637070BD00BF3C93FF1F3893FF1FF6
:10213000EC94FF1FA494FF1F2DE9F0417C4C236811
:10214000012B82B031D0022B00F0A880032B00F0CD
:10215000C8803BBB774B784AD3F8A010D3F8A430A3
:1021600012685B1A632B0EDD744803FB02F380FBDD
:102170000302DB17C3EB62131944062002B0BDE86B
:10218000F04106F0D3BA6E4803FB022380FB030242
:10219000DB17C3EB22121144062002B0BDE8F04168
:1021A00006F0C4BA02B0BDE8F081664E33680A3367
:1021B000B3F57A7F00F3B7801846336009F0FCFA74
:1021C000614909F04DFB80465A4DD5F8A00009F051
:1021D000F3FA0746D5F8A40009F0EEFA394609F0FB
:1021E00035FA414609F03CFB584909F0EDFB394608
:1021F00009F02EFA09F0FAFC0146062006F096FADC
:102200000221534808F0F6F8524805F0F1FD062186
:10221000514808F0EFF8306809F0CEFA4A4909F061
:102220001FFB08F073FE022702460B460097494841
:1022300005F036FE0D21494808F0DCF8D5F8A0007D
:1022400009F0BAFA8046306809F0B6FA3E4909F05A
:1022500007FB0646D5F8A40009F0AEFA414609F09E
:10226000F5F90146304609F0FBFA384909F0ACFBB4
:10227000414609F0EDF908F049FE00970B46024689
:10228000344805F00DFE3946314808F0B3F83148BE
:1022900005F0AEFD2368022B7FF458AF294B254E85
:1022A00000221A60D6F8A00009F086FA0546D6F892
:1022B000A40009F081FA294609F0C8F9002109F0C3
:1022C000CFFA224909F080FB294609F0C1F909F04B
:1022D0008DFC0146062006F029FA2368032B7FF4C3
:1022E00038AF184B134E4FF47A721A60D6F8A0002C
:1022F00009F062FA0546D6F8A40009F05DFA29460D
:1023000009F0A4F9114909F0ABFA104909F05CFB96
:10231000294609F09DF909F069FC0146062006F0FE
:1023200005FA236815E700234FF0000833604BE7F8
:102330009094FF1F3C93FF1F3487FF1F1F85EB51B5
:10234000CBF08D286892FF1FCDCCCC3D0000C84259
:10235000AC0F0100C887FF1F2C03010034030100EC
:1023600070B5B848B84C05F043FDB64805F040FDDF
:10237000B44805F03DFD0D21B44808F03BF8D4F811
:102380009C30012B11D0B24CAE48217800230A2298
:1023900005F03EFD2378052B67D8DFE813F00B012D
:1023A000100115011A011F0101010921A94808F0B6
:1023B00021F8A948FEF7D2FB216909F0EFFB18B11B
:1023C0000F21A64808F016F8A348FEF775FCE1684F
:1023D00009F002FC18B10E21A14808F00BF89E4844
:1023E000FEF76AFC05469C48FEF7B8FB0146284606
:1023F00009F02CF9E16B09F0EFFB18B111219948B4
:1024000007F0F8FF9448FEF7ADFCA16A09F0E4FB81
:1024100018B10C21944807F0EDFF8F48FEF7A2FC9D
:10242000E16A09F0BBFB18B10D21904807F0E2FF0B
:102430008F4B89481B68012B00F0ED80FEF78EFB67
:102440002169814D09F0C8FB78B18348FEF734FC5F
:10245000E96809F0A3FB40B17D4B1B78052B00F028
:10246000EB800821834807F0C5FF0221824807F06E
:10247000C1FF122006F0E0FA012800F0B48011201C
:1024800006F0DAFA012800F0B8807C4B1B68012BBB
:1024900000F0BC8002217848794C07F0ABFF794B03
:1024A0006848196805F0F4FC664805F0A1FC0421B1
:1024B000754807F09FFF0B2006F0BEFA0023014687
:1024C0000A22604805F0A4FC0C2006F0B5FA0023AF
:1024D00001460A225B4805F09BFC142006F0ACFA8A
:1024E000002301460A22574805F092FC152006F009
:1024F000A3FA0A2200230146524805F089FC06216E
:10250000624807F077FF2368DD074FF001014CBFF9
:102510005F48604807F06EFF236898074FF001019D
:102520004CBF5B485B4807F065FF23685A074FF0D4
:1025300001014CBF5648574807F05CFF23681B0752
:102540004CBF53485348012107F054FF042152481F
:1025500007F050FF112006F06FFA002301460A220F
:10256000384805F055FC102006F066FA00230146B5
:102570000A22344805F04CFC122006F05DFA0023D4
:1025800001460A222F4805F043FC132006F054FAB6
:10259000002301460A222B48BDE8704005F038BCF4
:1025A00007213E4807F026FF3D4B2648196805F0F5
:1025B0006FFC5AE706213B4807F01CFF55E707214F
:1025C000394807F017FF50E70721384807F012FF96
:1025D0004BE70821364807F00DFF46E70B21354849
:1025E00007F008FF41E70E21334807F003FF1120F1
:1025F00006F022FA01287FF448AF0A212F4807F09D
:10260000F9FE1E4B1B68012B7FF444AF11212C48AF
:1026100007F0F0FE3EE7FEF7A1FA216A09F0DCFAC6
:1026200000283FF41EAF1621264807F0E3FE0A21DA
:10263000254807F0DFFE18E70A21234807F0DAFEF5
:1026400013E700BFC887FF1F3C93FF1F440301002F
:10265000A094FF1F54030100EC94FF1F60030100CE
:10266000700301008003010094030100A403010032
:102670007492FF1FD8030100AC0F0100BC94FF1F30
:10268000FC93FF1F9494FF1F4C04010054040100AD
:102690005C04010014110100600401001404010035
:1026A000C094FF1FE4030100EC03010000040100DB
:1026B00008040100F40301001C0401002C040100C3
:1026C00038040100B4030100CC0301002DE9F04FF0
:1026D0009B4C9C4FE36F012B8DB000F05981032B75
:1026E0005AD0994E994DA36F9948012B09BF29687B
:1026F000296801F10041296005F0B0F93368002B29
:1027000040F0D880924805F07FF9E36F3860012BE4
:10271000064600F0DC808F4909F05EFAB8B98E49B0
:10272000304609F03BFA90B98C4A8D4B12680B92F7
:102730000B9A1A60D4F8A80009F03EF8314609F067
:102740008FF8002338602B600DB0BDE8F08FDFF804
:102750000CA2DFF80C82DAF800300A930A98D8F855
:102760000030DFF82492C01A09F022F8314609F04F
:1027700077F87C4909F028F97A4909F025F9D9F860
:10278000001008F065FFDAF800300993099BC9F8DA
:102790000000C8F80030CDE7DFF8D081724DD8F8DE
:1027A0000000694E012300220F212B6004F064FD1C
:1027B0002B68012B336800F00981002B40F0AC81BD
:1027C0000021D8F80000DFF8C491684D04F0A6FDA0
:1027D00033681FFA80FBC9F800B0002B40F08181FC
:1027E0000021D8F80000594DDFF880A104F01CFD4D
:1027F000B4F8863040F6E44101FB0BF1B1FBF0F098
:10280000C01A00B208F0D8FF59498346D4F88800AE
:1028100009F026F80146584609F0D6F8D9F80030F4
:102820002860632BDFF864B100F34F8100232B6035
:102830003368002B3FF457AF02214E4807F0DAFD12
:10284000D9F80020D8F8000040F6E443002103FB4B
:1028500002F804F0E9FCB8FBF0F008F0A9FF8046AC
:10286000B4F8860008F0A8FF0146404608F0EEFEE6
:1028700008F04CFB4FF0020802460B46CDF80080F2
:102880003D4805F00DFB41463A4807F0B3FD286886
:1028900008F03CFBCDF8008002460B46364805F0B8
:1028A000FFFA4146354807F0A5FD4146314807F09B
:1028B000A1FD18E7264805F0A7F808F027FB022637
:1028C00002460B4600962C4805F0EAFA1AE7264B1A
:1028D0001B68012B00F02C81022B7FF42BAF2849C1
:1028E00009F07AF930B92749304609F057F900283C
:1028F00000F05381DFF864A0DFF86480DAF800307C
:1029000007930798D8F80030DFF87C90C01A08F0D9
:102910004FFF314608F0A4FF124909F055F811495C
:1029200009F052F8D9F8001008F092FEDAF80030F9
:102930000693069BC9F80000C8F80030FAE600BF0D
:102940003C93FF1F8092FF1FE094FF1F7092FF1FB8
:102950001493FF1F0000FA430000FAC3D8B6FF1F0C
:10296000B094FF1F00007A445087FF1FB494FF1FEC
:1029700017B7D138AC0F0100C887FF1FA4040100AE
:1029800000C82F4800A08CC68C92FF1F3493FF1FF5
:102990003D689B49284609F001F930B1284699491C
:1029A00009F01AF900287FF4F7AEDFF86482964D3B
:1029B000D8F80000954E022300220E212B6004F06F
:1029C0005BFC2B68012B33687FF4F7AE002B40F0E3
:1029D00006810021D8F80000DFF874928C4D04F0D5
:1029E0009DFC33681FFA80FBC9F800B0002B40F053
:1029F000DB800021D8F80000864D04F015FCB4F807
:102A0000843040F6E44A0AFB0BFBBBFBF0F0C01A33
:102A100000B208F0D1FE80498346D4F88C0008F05B
:102A20001FFF0146584608F0CFFFD9F80030286054
:102A30000021D8F800000AFB03FA04F0F5FBB4F813
:102A40008430BAFBF0F00FFA80FAC3EB0A03002BD4
:102A5000B4F8B620B8BF5B429342BCBF00232B60E2
:102A60003368002B3FF43FAE02216C4807F0C2FCF4
:102A7000D9F80020D8F8000040F6E443002103FB19
:102A800002F804F0D1FBB4F88410B8FBF0F000B207
:102A9000411A634805F0FCF90221604807F0AAFCDE
:102AA000286808F033FA4FF0020802460B46CDF8CA
:102AB00000805B4805F0F4F903215A4807F09AFCBE
:102AC0004146564807F096FC0DE6DAF80000002172
:102AD00004F0AAFBDBF8003064389842FFF4A6AE9D
:102AE000A6E60021286804F09FFB40F6E44100239D
:102AF0000A2201FB0BF1B1FBF0F1494805F088F91E
:102B00000221464807F076FCB4F88610444805F0E8
:102B1000BFF9D9F800B063E6414805F069F90C2126
:102B2000414807F067FC0C21404807F063FC47E68A
:102B30003F4909F051F858B93E49304609F02EF89E
:102B400030B93D4A3D4B12680592059A1A60F1E58D
:102B5000DFF8E4A0DFF8E480DAF8003004930498AA
:102B6000D8F80030DFF8EC90C01A08F021FE3146AA
:102B700008F076FE324908F027FF314908F024FFBB
:102B8000D9F8001008F064FDDAF800300393039BD5
:102B9000C9F80000C8F80030CCE5274A274B126876
:102BA0000892089A1A60C5E50021286804F03CFBE9
:102BB00040F6E44100230A2201FB0BF1B1FBF0F1E6
:102BC000174805F025F901211E4807F013FCB4F859
:102BD0008410134805F05CF9D9F800B009E71048F3
:102BE00005F006F9E36F012B4FF00B010CBF1648FF
:102BF000164807F0FFFB0C210C4807F0FBFBE8E64A
:102C000000709446007094C65087FF1FE094FF1F29
:102C1000B494FF1F7092FF1F17B7D138AC0F01009B
:102C2000C887FF1F90040100940401008004010084
:102C30000000FA430000FAC3D8B6FF1FB094FF1F8C
:102C400000007A444003010068040100740401009C
:102C50003493FF1F8C92FF1F2DE9F047934C23689C
:102C600084B0002B79D0924DDFF84C82914FD5F88B
:102C700080308F4E012B00F08980D7F80090D6F875
:102C800058A0746D8C4E04FB0AF44FF47A7000FB6C
:102C900004F008F091FD89490446484608F0E0FD3B
:102CA000214608F091FE864908F0DAFD08F09EFF03
:102CB0006328C8F800004BDD2046804908F084FEF8
:102CC0006423386033607F4B1B68002B3DD0EB6F73
:102CD000774C012B00F08880032B00F0D680022B6C
:102CE00000F0D9800221784807F084FB774B186800
:102CF00008F00CF9022402460B460094744805F0D3
:102D0000CFF82146734807F075FB21466E4807F05F
:102D100071FBD8F800106E4805F0BAF806216E482D
:102D200007F068FB3868654908F09AFD08F0EEF88E
:102D3000009402460B46664805F0B2F80321674846
:102D400007F058FB624805F053F804B0BDE8F0877F
:102D50000028BCBF00233360B5E7614E544D336893
:102D60000293029A42F228339A4249D83368039375
:102D7000039A42F210739A4249D8D5F88030DFF8AE
:102D800038814C4F4A4E012B7FF477AF5548FEF700
:102D90004BF85549D6F86890F46E08F061FD08F0DC
:102DA0004BFF326F736FD5F858A0C9EB02021B1BA3
:102DB00080B29A42C9EB0000C6BF03FB000001329B
:102DC000584390FBF2F020446C6D00FB0AF004FBCA
:102DD00000F000EB8000400008F0EEFC374908F0FE
:102DE000F3FD814638604DE7404B1B68012B4FF0E7
:102DF0000A010CBF3E483F4807F0FCFAE36F6BE75F
:102E000038486A6C95F84010FDF780FFAEE735480A
:102E1000FEF70AF83449AF6EEE6E08F021FD08F0B7
:102E20000BFF2A6F6B6FD21B9B1B80B29A42A0EBE9
:102E3000070035DD03FB0000531C90FBF3F31E4439
:102E4000A86D6B6DDFF870801A4FC8F8006000FB4A
:102E500006F003FB00F000EB8000400008F0ACFC43
:102E6000164908F0B1FD012338600221164823609D
:102E700007F0C0FA164804F0BBFF59211E4807F0BE
:102E8000B9FA134804F0B4FFF1E610211B4807F02B
:102E9000B1FAEB6F23E70721194807F0ABFA21E7F6
:102EA00003FB00F393FBF2F31E44C9E76C92FF1F90
:102EB0003C93FF1F8C92FF1F3487FF1FE4388E3E28
:102EC0000000C8423C87FF1FAC0F01008092FF1F2B
:102ED000C887FF1FA4040100380501004005010058
:102EE000D8B6FF1FEC94FF1F00007A445087FF1FE5
:102EF0000405010010050100A80401001C050100E3
:102F000030050100F0B5112083B005F095FD0128D2
:102F100013D000210B2005F089FD00210C2005F0C5
:102F200085FD0021152005F081FD1D491D4B012067
:102F3000002208701A6003B0F0BD01460446152057
:102F400005F074FD1849194A194B09680191D2F826
:102F500090001B680199134D034402268B422E609A
:102F600017D8D2F8980008F027FC124B196808F01F
:102F700015FE074668B921460B2005F057FD084AA3
:102F8000032339460C2016702B6005F04FFD03B06B
:102F9000F0BD01210C2005F049FD03B0F0BD00BFDC
:102FA000A094FF1FDC94FF1FD8B6FF1F3C93FF1FA8
:102FB000E894FF1F8092FF1FF0B5684E684D34689B
:102FC0002B689C4287B039D014F0010155D014F021
:102FD000020149D014F004013DD0E3070ED52B685F
:102FE000DF070BD45F4F3A68002A00F082805E4B07
:102FF0001B680193019B93426DD83468A0070DD5DF
:103000002B6899070AD4594F3A68002A4CD0564B7E
:103010001B680393039B934238D8346862070DD52D
:103020002B685B070BD4524F3A68002A7ED04E4B78
:103030001B680593059B934268D834680CB107B0B0
:10304000F0BD2146162005F071FB2146172005F042
:103050006DFB07B0F0BD052005F068FB2B683468F8
:1030600003F0FB032B60B8E7172005F05FFB2B682C
:10307000346803F0FD032B60ACE7162005F056FB27
:103080002B68346803F0FE032B60A0E7394B172050
:10309000D3F8941005F04AFB2B68346843F0020320
:1030A00000222B603A60B9E7334804F0A1FE0C21FE
:1030B000324807F09FF9304804F09AFEFF211720AC
:1030C00005F034FB284B2E4A1968029102991268C8
:1030D0000A443A609CE7274B1620D3F8941005F079
:1030E00025FB2B68346843F0010300222B603A6013
:1030F00084E7FF21162005F019FB1B4B204A1968B5
:103100000091009912680A443A6071E7194B052052
:10311000D3F8941005F00AFB2B68346843F00403DD
:1031200000222B603A60002C89D18AE7124804F013
:103130005FFE0C21134807F05DF90F4804F058FEBC
:10314000FF21052005F0F2FA074B0D4A196804919A
:10315000049912680A443A606AE700BFDC94FF1FD2
:10316000FC93FF1F7494FF1FD8B6FF1F7894FF1FB6
:103170007C94FF1F3C93FF1FC887FF1F440501007D
:103180006887FF1F540501002DE9F047544EDFF812
:103190007481DFF874913068524D00220F2104F0E1
:1031A0006BF80023012222214F48C8F80030C9F8EB
:1031B000002007F01FF9D8F80030132B22DC40F66E
:1031C000E44700213068B5F884A004F0A7F8002196
:1031D0000446306804F028F8A4B2012107FB04F487
:1031E000B4FBF0F441485444A5F8844007F002F9D8
:1031F000642005F057FCD8F800300133132BC8F8D1
:103200000030DEDDB5F88430394A3A48A2FB0312BB
:103210009B1A02EB5303C3F30F131946A5F884302E
:1032200004F036FE1D21344807F0E4F8022133484B
:1032300007F0E0F82F4804F0DBFD00231A460E21CA
:103240003068C8F8003004F017F80223222126481D
:10325000C9F8003007F0CEF8D8F80030132B22DC84
:1032600040F6E44700213068B5F8869004F056F83F
:1032700000210446306803F0D7FFA4B2012107FB08
:1032800004F4B4FBF0F419484C44A5F8864007F068
:10329000B1F8642005F006FCD8F800300133132B98
:1032A000C8F80030DEDDB5F88630114A1148A2FBBF
:1032B00003129B1A02EB5303C3F30F131946A5F82D
:1032C000863004F0E5FD1D210D4807F093F802213A
:1032D0000A4807F08FF80748BDE8F04704F088BDBA
:1032E000B494FF1F3C93FF1F64050100A805010073
:1032F00087611886C887FF1F88050100AC0F010091
:10330000AC0501009894FF1F5087FF1FF8B57B4B59
:103310007B4C7C4D1B68286D40F2513108222160A6
:10332000E271002B40F0E08008F046FA6969064639
:1033300008F096FA744908F093FA08F07DFC80B220
:1033400003126372714A724B12681B68A969A372F7
:1033500015121B12E372227320726573304608F057
:103360007FFA694908F07CFA08F066FC83B21A1209
:1033700063496848A373E27303F0A0FD664B674A94
:103380001B6812885E49A272DFB207EB870603EB67
:103390008305760045F3D71512121B122772267388
:1033A00040F25537082665735A48E2720025637269
:1033B0002760E671A573E57303F080FD40F2563394
:1033C00057482360E671FDF79DFC564908F048FA1E
:1033D00008F032FC20725248FDF794FC514908F085
:1033E0003FFA08F029FC504A4E49C0F307236372A4
:1033F000106808F0E9FA08F0F9FB40FA06F2034613
:103400004748E272A372FDF7ADFC3F4908F028FA85
:1034100008F012FC20734248FDF7A4FC3A4908F07A
:103420001FFA08F009FC3649A573C0F30723394891
:103430006373E57303F042FD022005F033FB3B4B61
:103440002F49187893F801E09F78DA78207240F2DB
:103450005A333048E67125736573A573E57384F8B4
:1034600009E0A772E272236003F028FD304B244983
:1034700018785D789A782072187993F803E05F796C
:103480006572A2729D79DA79207340F25E33214829
:1034900084F80BE0E2732360E6716773A57303F0B1
:1034A0000DFD022005F0FEFA224BE6711D785A78D8
:1034B000D87893F802E01F795E79257262729D795F
:1034C000DA79E0724FF45C730D491248236084F896
:1034D0000AE027736673A573E27303F0EFFC164BE3
:1034E0001B68012B05D0F8BD08F066F9296A06466D
:1034F0001EE70B48BDE8F840FDF758BB7492FF1F6C
:10350000CC94FF1F3C93FF1F00002041AC94FF1F91
:103510005892FF1F14B5FF1F3487FF1F3887FF1F06
:10352000EC94FF1F0000C8428092FF1F3893FF1FDA
:103530002C87FF1F5487FF1FBC94FF1FF0B58A4CD8
:103540008A4D83B006F0F0FE23682860042B00F05B
:103550008682022B4BD0082B00F09280072B40F084
:103560002B81332801F0348400F30683312801F0E5
:103570000784322840F08D8006F012FF002840F3C7
:1035800019817B487B4E04F0C5FD08F015F97A4996
:1035900008F066F961230122F06322602B6018466F
:1035A000A0F152031F2B01F2DB83DFE813F06C0B59
:1035B000D90BD90BD90BD90BD90BD90BD90BD90BEB
:1035C000D90BD90BD90BD90BD90BD90BA403030DEC
:1035D0002B05C1059704D90BD90BD90B1804D90BAE
:1035E000000DD90BD90BD90BD90BD90B5A0BA0F164
:1035F0003102422A4DD8DFE812F0DA06E606F40678
:1036000006075507C9064C004C004C004C004C0006
:103610004C004C004C004C004C004C004C004C004A
:103620004C004C004C004C004C004C004C004C003A
:103630004C004C004C004C004C004C004C004C002A
:103640004C004C004C004C004C004C004C004C001A
:103650004C004C004C004C004C004C004C004F0700
:103660004C004C004C004C004C004C004C004C00FA
:103670004C004C004C004C004C00C5024C0047076D
:10368000322800F00683712800F07C82312800F097
:103690001B83002B08BF73280CBF012000200028CB
:1036A00060D0334804F0A4FB0421344806F0A2FEA5
:1036B0002F4804F09DFB1021314806F09BFE2C485A
:1036C00004F096FB13212F4806F094FE2E4B284859
:1036D000196804F0DDFB264804F08AFB14212B480E
:1036E00006F088FE224804F083FB1E21284806F0DD
:1036F00081FE1F4804F07CFB1521264806F07AFE67
:103700001B4804F075FB1E21234806F073FE184881
:1037100004F06EFB2021214806F06CFE144804F0F2
:1037200067FB19211E4806F065FE114804F060FB96
:1037300012211C4806F05EFE0D4804F059FB0F21D3
:10374000194806F057FE0A4804F052FB0D211748AD
:1037500006F050FE064804F04BFB154A00210123F9
:103760001160236003B0F0BD9092FF1F7C92FF1F99
:10377000C887FF1F3C93FF1F6F12833A280E01007A
:10378000300E0100440E01002487FF1F580E010077
:10379000700E0100900E0100A80E0100C80E01007D
:1037A000EC0E0100080F01001C0F01002C0F01009E
:1037B0003C87FF1F23682868062B40F08D80A0F10E
:1037C0003102402A3FF665AF01A151F822F000BF57
:1037D00093420000BF42000067430000EB4200003C
:1037E000114300002F4300005343000093360000B4
:1037F00093360000933600009336000093360000A5
:103800009336000093360000933600009336000094
:103810009336000093360000933600009336000084
:103820009336000093360000933600009336000074
:103830009336000093360000933600009336000064
:103840009336000093360000933600009336000054
:103850009336000093360000933600009336000044
:103860009336000093360000933600009336000034
:103870009336000093360000933600009336000024
:103880009336000093360000933600009336000014
:103890009336000093360000933600009336000004
:1038A00093360000933600009336000093360000F4
:1038B00093360000933600009336000093360000E4
:1038C00093360000933600009336000093360000D4
:1038D000853B000023682868052B15D1332801F0AB
:1038E000A08240F35481352801F08582C1F2BB8269
:1038F00071287FF4CEAEB14A002373201360236099
:103900002860C6E623682868032B40F0A480A0F155
:103910003002422A3FF6BDAE01A151F822F000BFAD
:103920002D3A0000EB4A0000614A0000894A00007D
:10393000AB4A00001B4A0000B34B0000DB4B000009
:10394000F94B00001D4C0000933600009336000038
:103950009336000093360000933600009336000043
:103960009336000093360000933600009336000033
:103970009336000093360000933600009336000023
:103980009336000093360000933600009336000013
:103990009336000093360000933600009336000003
:1039A00093360000933600009336000093360000F3
:1039B00093360000933600009336000093360000E3
:1039C00093360000933600009336000093360000D3
:1039D00093360000933600009336000093360000C3
:1039E00093360000434A0000C5450000454C0000E6
:1039F000CD4A0000554B0000734B00007B45000092
:103A00009F45000093360000933600009336000077
:103A10009336000093360000933600009336000082
:103A200093360000134B00001F4B000006F0B8FC5B
:103A3000002841F39E816248624E04F06BFB01272F
:103A40000346014662226048736527602A60FDF7DD
:103A50005BF923682868012B7FF41BAEA0E5A0F179
:103A60003002412A3FF615AE01A151F822F000BF05
:103A700063450000C5440000DD440000E14400004F
:103A8000074500002D450000514500004945000054
:103A90004D4500000B4500009336000093360000B2
:103AA00093360000933600009336000093360000F2
:103AB00093360000933600009336000093360000E2
:103AC00093360000933600009336000093360000D2
:103AD00093360000933600009336000093360000C2
:103AE00093360000933600009336000093360000B2
:103AF00093360000933600009336000093360000A2
:103B00009336000093360000933600009336000091
:103B10009336000093360000933600009336000081
:103B20009336000093360000933600009336000071
:103B30009336000093360000933600009336000061
:103B40009336000093360000933600009336000051
:103B50009336000093360000933600009336000041
:103B60009336000093360000933600009336000031
:103B700093360000853B0000342801F0178171283E
:103B80007FF487AD002373202360286081E531280E
:103B900001F0588132287FF47CAD06F001FC00284A
:103BA0007FF7B0AE0648074E04F0B4FA01226B234B
:103BB000C6F8980022602B600AE000BF9094FF1FB7
:103BC000C887FF1F3C93FF1FEC94FF1F06F0ACFB60
:103BD00006F0E6FB0028F9D1A64804F009F9A5484B
:103BE00004F006F9A34804F003F9A24804F000F930
:103BF000A04804F0FDF821219F4806F0FBFB9D48FA
:103C000004F0F6F815219D4806F0F4FBD6F8901064
:103C1000984804F03DF90221994806F0EBFB9548DD
:103C200004F0E6F81E21974806F0E4FBD6F8981059
:103C3000904804F02DF90321934806F0DBFB8D48F2
:103C400004F0D6F81E21914806F0D4FBD6F8941063
:103C5000884804F01DF9874804F0CAF81D218C48F3
:103C600006F0C8FBD6F8A010824804F011F981488C
:103C700004F0BEF81E21874806F0BCFBD6F8A4105D
:103C80007C4804F005F97B4804F0B2F80523236072
:103C900068E506F085FB002840F3F38275487E4E08
:103CA00004F038FA07F088FD7C4907F0D9FD96F852
:103CB0004010034602467A487364FDF727F8012353
:103CC0006920236028606BE406F06AFB002840F35B
:103CD000DC826848704E04F01DFAC0B286F84000DD
:103CE00002288ABF0021014686F84010726C6C4899
:103CF000E3E706F019FB06F053FB05460028F8D170
:103D00005C48654E04F074F85A4804F071F859485C
:103D100004F06EF8574804F06BF8564804F068F861
:103D20001F21604806F066FB524804F061F81C2130
:103D30005D4806F05FFB706A5C4907F091FD07F093
:103D4000E5F8009502460B464A4804F0A9F802211E
:103D5000574806F04FFB474804F04AF823215548DE
:103D600006F048FBF06B514907F07AFD07F0CEF8FA
:103D7000009502460B463F4804F092F802214C4859
:103D800006F038FB3B4804F033F819214A4806F0A6
:103D900031FBB06B07F0BAF802250B4602460095DE
:103DA000344804F07DF82946444806F023FB3148A6
:103DB00004F01EF81921424806F01CFBB6F8B410B6
:103DC0002C4804F065F803213E4806F013FB29480F
:103DD00004F00EF807232360C4E406F0A5FA06F009
:103DE000DFFA05460028F8D122482B4E04F000F8EF
:103DF000204803F0FDFF1F4803F0FAFF1D4803F0C1
:103E0000F7FF1C4803F0F4FF15212F4806F0F2FAE3
:103E1000184803F0EDFF18212C4806F0EBFA2B466A
:103E20000A2296F84010134803F0F2FF114803F0FD
:103E3000DFFF2821264806F0DDFA706C1B4907F0E9
:103E40000FFD07F063F800950B460246094804F0A1
:103E500027F80221164806F0CDFA064803F0C8FFFD
:103E600013211C4806F0C6FA024803F0C1FF0823DC
:103E7000236077E4C887FF1F5C0801008008010009
:103E80006C0701009808010090040100B8080100C7
:103E9000D8080100F80801003C93FF1F6F12833A15
:103EA000EC94FF1FB8070100D807010000007A4416
:103EB00044060100F80701001C0801003808010051
:103EC0003C08010058080100F00E0100FC0501004B
:103ED000180601004806010006F026FA06F060FA0E
:103EE00005460028F8D17D487D4E03F081FF7B48D0
:103EF00003F07EFF794803F07BFF784803F078FFFA
:103F0000764803F075FF1121764806F073FA73487E
:103F100003F06EFF2821744806F06CFA706973494B
:103F200007F09EFC06F0F2FF009502460B466B4838
:103F300003F0B6FF02216E4806F05CFA674803F012
:103F400057FF16216B4806F055FAF069674907F0EC
:103F500087FC06F0DBFF00950B4602465F4803F046
:103F60009FFF0221624806F045FA5C4803F040FFDB
:103F7000D6F8AC30002B32DD1D215F4806F03AFA4E
:103F8000F06D07F019FC5D4907F06AFC06F0BEFF12
:103F9000022502460B460095504803F081FF01219F
:103FA000574806F027FA4D4803F022FF1F215548D5
:103FB00006F020FA306E07F0FFFB504907F050FC86
:103FC00006F0A4FF009502460B46444803F068FF44
:103FD00001214B4806F00EFA404803F009FF112179
:103FE000494806F007FAD6F8AC30052B00F268868F
:103FF000DFE813F0AC06B106A706A2069D0662062E
:1040000006F092F906F0CCF90028F9D13348344E85
:1040100003F0EEFE314803F0EBFE304803F0E8FE1B
:104020002E4803F0E5FE2D4803F0E2FE1F2137483D
:1040300006F0E0F9294803F0DBFE1E21344806F0C3
:10404000D9F9264803F0D4FE1A21324806F0D2F9F5
:10405000F36F022B00F06D87032B00F06187012BBB
:1040600000F0558709212C4806F0C4F91B4803F0DD
:10407000BFFE142129481A4F06F0BCF9B16F17484A
:1040800003F006FF154803F0B3FE1C21244806F098
:10409000B1F9D6F88010114803F0FAFE0F4803F08A
:1040A000A7FE1C211F4806F0A5F9D6F8A8100B485A
:1040B00003F0EEFE094803F09BFEF56F25F00205C4
:1040C000012D00F0F4861321174806F093F90348F8
:1040D00003F08EFE02232360FFF744BBC887FF1F57
:1040E0003C93FF1F940E01005C06010000007A441F
:1040F0004406010088060100A0060100CDCCCC3D9D
:104100007C0B0100C0060100E00601003C0A010032
:104110005C0A01007C0A0100F40A0100000B0100A6
:10412000180B0100380B01004806010006F0FCF8EE
:1041300006F036F90028F9D1BA48BB4D03F058FE15
:10414000B84803F055FEB74803F052FEB54803F0F7
:104150004FFEB44803F04CFE1321B44806F04AF970
:10416000B04803F045FE0D21B14806F043F9AD48D3
:1041700003F03EFE0F21AF4806F03CF9AE4BA948D4
:10418000196803F085FEA74803F032FE1321AB48FF
:1041900006F030F9AA4BA348196803F079FEA1484C
:1041A00003F026FE1221A74806F024F9A64B9D48ED
:1041B000196803F06DFE9B4803F01AFE1121A34815
:1041C00006F018F9A24B9748196803F061FE95486C
:1041D00003F00EFE0E219F4806F00CF9D5F89C1056
:1041E000904803F055FE8F4803F002FE19219A48CB
:1041F00006F000F9994B8B48196803F049FE89488D
:1042000003F0F6FD1121964806F0F4F8954B854829
:10421000196803F03DFE834803F0EAFD102192483F
:1042200006F0E8F8914B7F48196803F031FE7D48AD
:1042300003F0DEFD1C218E4806F0DCF88D4B79483A
:10424000196803F025FE774803F0D2FD1E218A4845
:1042500006F0D0F895F8BD30002B00F017860D2140
:10426000864806F0C7F86F4803F0C2FD1321844862
:1042700006F0C0F86B4803F0BBFD04232360FFF792
:1042800071BA23682868FFF769B9674E96F840004D
:1042900026E506F085F800287FF71CAB6148624EE2
:1042A00003F038FF07F088FA764907F08DFB6523A5
:1042B0000122706122602B601846FFF771B906F089
:1042C0006FF800287FF706AB5648574E03F022FFE1
:1042D00007F072FA6B4907F077FB65230122F06162
:1042E00022602B601846FFF75BB906F059F80028EA
:1042F0007FF7F0AA4B484C4E03F00CFF00EB800018
:10430000430001226520336622602860FFF748B928
:10431000454AD2F8AC300133052BC8BF0023C2F8A0
:10432000AC300123652023602860FFF739B906F01F
:1043300037F800287FF7CEAA3A483B4E03F0EAFE52
:1043400065230122C6F8B00022602B601846FFF7F3
:1043500027B9354B93F8BC20002A00F09285002243
:1043600083F8BC20DDE706F01BF800287FF7B2AA2F
:104370002C482D4E03F0CEFE00EB800043000122BE
:104380006520F36522602860FFF70AB901232360E6
:1043900006F006F8002805DD2248234E03F0BAFE99
:1043A000A6F8B600632028602368FFF7D7B81E4E32
:1043B000B36FB3FA83F35B0901226320B367226012
:1043C0002860FFF7EDB8184ED6F88030B3FA83F3C3
:1043D0005B0901226320C6F8803022602860FFF765
:1043E000DFB80123236005F0DBFF002805DD0D4861
:1043F0000D4E03F08FFEC6F8A80001236320236052
:104400002860FFF7CDB80123236005F0C9FF00281D
:10441000C8DD0448044E03F07DFE07F0CDF9C6F870
:104420008C00BFE7C887FF1F3C93FF1F18090100DE
:104430002C0901003C0901007094FF1F4C09010088
:10444000E094FF1F60090100C494FF1F740901007C
:10445000C894FF1F88090100980901009494FF1F68
:10446000B40901009094FF1FC80901007892FF1F52
:10447000DC0901005C87FF1FFC0901001C0A010028
:104480004806010000007A44564AD36F0133032BDB
:10449000C8BF0023D367B0E7FEF776FE236828681D
:1044A000FFF759B80123236005F07AFF00287FF752
:1044B00079AF4D484B4E03F02DFE07F07DF9C6F85D
:1044C00088006FE7494A1368B3FA83F35B09012157
:1044D0006420136021602860FFF762B8444AF2E765
:1044E000444A454F1368002B0CBF012300234FF0B3
:1044F00001001360206040F02585034664222A6095
:104500006420FFF728B83D4ADDE70123236005F06A
:1045100047FF002800F3C384394B1A68042AC4BF3C
:1045200002221A6064232B602368E9E72D4ED6F837
:104530009C30B3FA83F35B0901226420C6F89C30F7
:1045400022602860FFF72CB82E4ABCE72E4ABAE753
:1045500001232E482360FCF765FA2D4A236810607A
:10456000CCE7204E96F8BD3001225340642086F8F7
:10457000BD3022602860FFF713B805F011FF002856
:104580000DDD1948174E03F0C5FD07F015F9214957
:1045900007F01AFA01226223306222602B6005F0D4
:1045A000FFFE00280EDD10480E4E03F0B3FD07F0AD
:1045B00003F9184907F008FA01226223C6F8B80087
:1045C00022602B6005F0ECFE002840F3D283064801
:1045D000044E03F09FFD01226223B06622602B602F
:1045E0001CE000BF3C93FF1FC887FF1F7094FF1F94
:1045F000E094FF1FC494FF1F9092FF1FC894FF1FF9
:104600005C87FF1F9094FF1F7892FF1FEC94FF1FA1
:104610009494FF1F00007A4405F086FE05F0C0FE6A
:1046200005460028F8D1C24803F0E2FBC04803F079
:10463000DFFBBF4803F0DCFBBD4803F0D9FBBC48FF
:1046400003F0D6FB1521BB4805F0D4FEB84803F0B3
:10465000CFFB1421B84805F0CDFEB54803F0C8FBE8
:104660001B21B64805F0C6FEB14803F0C1FB13217B
:10467000B34805F0BFFEAE4803F0BAFBAC4803F008
:10468000B7FBAB4803F0B4FB2021AE4805F0B2FE07
:10469000F068AD4907F0E4F806F038FC00950246F2
:1046A0000B46A34803F0FCFB0221A84805F0A2FE3C
:1046B0000221A74805F09EFE9D4803F099FB2121A9
:1046C000A44805F097FE30699F4907F0C9F806F045
:1046D0001DFC009502460B46954803F0E1FB0221C4
:1046E0009A4805F087FE0221994805F083FE90481C
:1046F00003F07EFB1F21984805F07CFEB06A06F0AF
:1047000005FC022702460B460097894803F0C8FBC8
:104710000121924805F06EFE39468D4805F06AFE8B
:10472000834803F065FB20218D4805F063FEF06AA5
:1047300006F0ECFB009702460B467D4803F0B0FB09
:104740000121864805F056FE3946814805F052FEA3
:10475000774803F04DFB2321824805F04BFEB06CF7
:10476000794907F07DF806F0D1FB009502460B462B
:104770006F4803F095FB3946744805F03BFE394617
:10478000734805F037FE6A4803F032FB1F21764874
:1047900005F030FEF06C6C4907F062F806F0B6FBED
:1047A000009502460B46624803F07AFB394667489B
:1047B00005F020FE3946664805F01CFE5C4803F013
:1047C00017FB1921694805F015FEB16D584803F033
:1047D0005FFB3946664805F00DFE39465C4805F03A
:1047E00009FE534803F004FB1821624805F002FE5D
:1047F000706E06F0E1FF604907F032F806F086FBC4
:10480000009702460B464A4803F04AFB01215B48E9
:1048100005F0F0FD39464E4805F0ECFD444803F044
:10482000E7FA2B21564805F0E5FDB069464907F047
:1048300017F806F06BFB009502460B463C4803F068
:104840002FFB3946414805F0D5FD3946404805F073
:10485000D1FD374803F0CCFA1F214A4805F0CAFDC4
:10486000716D334803F014FB3946394805F0C2FD39
:104870002F4803F0BDFA2021434805F0BBFD316D00
:104880002B4803F005FB3946314805F0B3FD2848B5
:1048900003F0AEFA10213D4805F0ACFDB16E24489E
:1048A00003F0F6FA3946294805F0A4FD39462848B0
:1048B00005F0A0FD1E4803F09BFA1321344805F0D3
:1048C00099FDF16E1A4803F0E3FA0121314805F031
:1048D00091FD39461E4805F08DFD154803F088FA14
:1048E00010212D4805F086FD316F114803F0D0FAF4
:1048F0003946164805F07EFD3946154805F07AFD23
:104900000B4803F075FA1421244805F073FD716F0C
:10491000074803F0BDFA01211E4805F06BFD39463A
:104920000B4805F067FD024803F062FA162137E0F4
:10493000C887FF1FC40B0100DC0B0100F40B010052
:1049400048060100100C010000007A4444060100F2
:10495000AC0F0100340C0100580C0100780C010070
:104960007C0C0100A00C0100C40C0100E40C01004F
:10497000000D0100040D0100CDCCCC3D7C0B0100ED
:10498000200D01004C0D01006C0D0100900D010087
:10499000A40D0100B80D0100BC0D0100D00D0100F7
:1049A000BA4805F027FD306AB94906F059FF06F00C
:1049B000ADFA009502460B46B64803F071FA394647
:1049C000B54805F017FD3946B44805F013FDB14868
:1049D00003F00EFA2421B24805F00CFDD6F8B80019
:1049E000AB4906F03DFF06F091FA00950B460246F2
:1049F000A84803F055FA3946A74805F0FBFC3946AC
:104A0000A64805F0F7FCA34803F0F2F9A14803F02B
:104A1000EFF903232360FEF7A5BE05F0C1FC0028D3
:104A200040F3A7819B489F4E03F074FB06F0C4FE41
:104A3000974906F0C9FF01226223B06422602B600F
:104A4000ECE505F0ADFC002840F393819148954ECC
:104A500003F060FB01226223306522602B60DDE5FC
:104A600005F09EFC002840F384818A488D4E03F0B7
:104A700051FB06F0A1FE864906F0A6FF0122622343
:104A8000306122602B60C9E505F08AFC002840F304
:104A900070818048834E03F03DFB06F08DFE0122BD
:104AA0006223B06222602B60B8E505F079FC002833
:104AB00040F35F8177487B4E03F02CFB06F07CFED1
:104AC00001226223F06222602B60A7E505F068FCFA
:104AD000002840F34E816F48724E03F01BFB012209
:104AE0006223306722602B6098E505F059FC0028AE
:104AF00040F33F8167486B4E03F00CFB06F05CFE11
:104B0000634906F061FF01226223F06022602B609E
:104B100084E50022732322602B60FEF7C2BD624B46
:104B20005E48604E002202211A6005F063FC59487D
:104B300003F05EF90B215D4805F05CFC022157484B
:104B400005F058FC534803F053F901226223226018
:104B50002B6063E505F024FC002840F30A814D48F2
:104B6000504E03F0D7FA01226223706722602B6057
:104B700054E5FCF799FF022148484A4E05F03AFCFB
:104B8000444803F035F90221444805F033FC41481C
:104B900003F02EF90221414805F02CFC3D4803F0BA
:104BA00027F91721424805F025FC3A4803F020F97F
:104BB000C4E705F0F5FB002840F3DB803548394EAB
:104BC00003F0A8FA06F0F8FD314906F0FDFE0122D7
:104BD0006223F06422602B6020E505F0E1FB0028F1
:104BE00040F3C7802B482F4E03F094FA0122622332
:104BF000B06522602B6011E505F0D2FB002840F380
:104C0000B8802448274E03F085FA00EB800043006B
:104C100001216222736621602A60FFE405F0C0FB77
:104C2000002840F3A6801B481E4E03F073FA06F0DE
:104C3000C3FD174906F0C8FE01226223B06122605D
:104C40002B60EBE405F0ACFB002840F392801148A8
:104C5000144E03F05FFA01226223F06622602B609B
:104C6000DCE4C02200210F4803F048FB2868114A09
:104C7000A0F1730001210023B0FA80F04009116017
:104C80002360FEF70CBD04F01DFD00BFE80D010020
:104C900000007A44C887FF1F44060100AC0F0100E2
:104CA000000E01003C93FF1F6C92FF1FF0050100F6
:104CB000D80501003C87FF1F0B21C04805F09AFB77
:104CC000BF48C04D03F094F8D6F8AC30002B12DD8D
:104CD0001821BD4805F08EFBD5F8B010B84803F098
:104CE000D7F80221B94805F085FBB54803F080F8F4
:104CF000B34803F07DF81B21B54805F07BFB96F81F
:104D0000BC30012B15BF12211421B248B24805F066
:104D100071FBAB4803F06CF81321B04805F06AFB57
:104D2000A74803F065F806232360FEF71BBD0D219D
:104D3000AB4805F05FFBC3E70D21AA4805F05AFB1D
:104D4000BEE70C21A84805F055FBB9E70D21A7489F
:104D500005F050FBB4E70C21A54805F04BFBAFE78D
:104D60002368002B08BF73280CBF01200020FEF72A
:104D700096BC23682868012B7EF48BACFEF710BC30
:104D800005F00EFB00287EF715AD8D488D4E03F023
:104D9000C1F906F011FD974906F062FD6123012279
:104DA000706222602B601846FEF7FABB05F0F8FA35
:104DB00000287EF7FFAC8248824E03F0ABF96123F6
:104DC0000122A6F8B40022602B601846FEF7E8BB6B
:104DD00005F0E6FA00287EF7EDAC7948794E03F04D
:104DE00099F906F0E9FC61230122B06322602B608F
:104DF0001846FEF7D5BB05F0D3FA00287EF782AD42
:104E00006F48704E03F086F97B4BC6F8A40003226E
:104E10001A60FDF791F901226B2322602B60FEF7E7
:104E2000D7BE05F0BDFA00287EF76CAD6448654E2C
:104E300003F070F901226B23C6F8940022602B6006
:104E4000FEF7C6BE05F0ACFA00287EF75BAD5C4805
:104E50005C4E03F05FF901226B23C6F890002260DC
:104E60002B60FEF7B5BE05F09BFA00287EF74AAD31
:104E70005348544E03F04EF95F4BC6F8A00002228F
:104E8000C6E7012283F8BC20FFF74BBA0E215B482E
:104E900005F0B0FA4A4802F0ABFFFFF7E7B948481F
:104EA00003F038F9564B02461860FFF737BB1C2158
:104EB000544805F09FFAD7F88C00534906F0D0FC0F
:104EC00006F024F8009502460B463D4802F0E8FF44
:104ED00005214E4805F08EFA394802F089FFFD6F32
:104EE000012D45D0032D7FF4EEA81C21484805F084
:104EF00081FAB6F8B610324802F0CAFF03214548DD
:104F000005F078FA2E4802F073FFFFF7DCB81E2197
:104F1000414805F06FFA2A4802F06AFFFFF7A9B886
:104F200020213E4805F066FA254802F061FFFFF7B0
:104F3000A0B817213A4805F05DFA214802F058FF61
:104F4000FFF797B8374B002631460B201E6003F061
:104F50006DFD31460C2003F069FD3146142003F04D
:104F600065FD3146152003F061FD3B68FFF7C6BAC9
:104F70001D212D4805F03EFAD7F88800224906F099
:104F80006FFC05F0C3FF00950B4602460C4802F08B
:104F900087FF05211D4805F02DFA094802F028FF7A
:104FA000FB6F23F00203012B9FD0FFF78CB8054E57
:104FB000FEF70EBE034EFFF731BB00BF44070100F2
:104FC000C887FF1F3C93FF1F500701006C070100BB
:104FD000700701008C070100A007010048060100CE
:104FE000340701002407010014070100F406010042
:104FF000040701006F12833A9094FF1F2C0A0100EE
:105000005C87FF1F580B0100CDCCCC3D780B010015
:10501000A00B0100C00B0100980A0100B80A0100B2
:10502000DC0A0100DC94FF1F800B010038B5164C30
:10503000164A2368101D12F8011F904241EA03230B
:10504000F9D12360124C03F100432360114BDB6F55
:10505000022B11D0104B1B68012B00D038BD0F481C
:1050600002F0C6FE21680D4802F012FF03210C4831
:10507000BDE8384005F0BEB920680A4D06F09CFB3B
:105080002860FDF723FBE5E75092FF1F8794FF1F81
:10509000A894FF1F3C93FF1F7094FF1FC887FF1F3A
:1050A0003C0F01007092FF1F30B53C4C3C4883B070
:1050B000214601F0FBFD236840F2C232934252D0F8
:1050C000A3F58C621F2A48D9A3F5FC630F2B3FD9A7
:1050D000344B1B68012B01D003B030BD324B1B6831
:1050E000012BF9D1314B32481B6801930A2200236E
:1050F000019902F08DFE2268284B002ADB7945DBFE
:105100002C492D4807F074FB2B4807F099FB01460A
:10511000294805F06FF92568204B15F0804526D108
:10512000DB798BB1631925491A7A234807F060FBB4
:10513000214807F085FB01461F4805F05BF9013562
:10514000E379EDB2AB42EDD8194802F051FEC3E766
:1051500012491B48FBF790FCBAE710491848FBF7C7
:105160008BFC2368B0E7FFF761FF2368A8E7154DC4
:10517000114C0FCD0FC495E8030044F8040B2046F2
:1051800020F81419152105F035F9DDE70E490A4814
:1051900022F0604207F02CFBB6E700BF8094FF1FAF
:1051A00014B5FF1F3C87FF1F7094FF1FD8B6FF1F69
:1051B000C887FF1F680F01009492FF1F940F010022
:1051C000EC94FF1F7C0F0100400F01002DE9F84F08
:1051D0009A4B9B4C1B78052B08D09A48FBF7C2FDD5
:1051E000E16A06F0DBFC002800F09380964E974DB4
:1051F000002333602B60964B92481B68904F012B25
:1052000045D0FBF759FDE1698046606906F01EFA5A
:105210000146404606F0E0FC00284CD18948FBF7E7
:105220004BFDE16806F0D8FC08B100232B608548EF
:10523000834FFBF793FC216906F0B0FC58B10023C3
:1052400033602B68814A002B01DBBDE8F88F002317
:105250001360BDE8F88F7B48FBF780FCB96906F066
:105260009DFC0028EBD17748FBF778FCD7F8B81005
:105270000446B86906F0ECF90146204606F0ACFC9D
:10528000002873D0786E30600028D8DBD9E7FBF7B0
:1052900013FDE1698046206A06F0D8F901464046D0
:1052A00006F09AFC0028B9D06648FBF705FDD7F850
:1052B0002090834605E06348FBF7FEFCD7F8149086
:1052C0008346F969484606F0C1F98246F86D06F052
:1052D00073FA8046386E06F06FFA414606F0B6F96A
:1052E00051460746584606F0B1F90146384606F0E1
:1052F000B7FA51460746484606F0A8F9014638462F
:1053000006F062FB414606F0A3F906F06FFC286048
:1053100084E74C48FBF726FD216B06F03FFC002894
:1053200049D0494E636E47483360FBF71BFD814609
:10533000E06DE76A454D06F03FFA3946804648463B
:1053400006F084F90146404606F08AFA394680465E
:10535000206B06F07BF90146404606F035FB002144
:1053600006F076F906F042FC286044E73548FBF782
:10537000F5FB8146F86DBC6906F01EFA21468046B1
:10538000484606F063F90146404606F069FAD7F848
:10539000B8108046204606F05BF9214606F056F923
:1053A0000146404606F010FB002106F051F906F0D8
:1053B0001DFC306068E72348FBF7D4FC616B06F006
:1053C000EDFB30B1204E214D626EE36D32602B60FB
:1053D00011E71C48FBF7C6FCA16A06F0DFFB0028BA
:1053E0003FF404AF1748184E184DFBF7BBFC81463D
:1053F000606ED4F8348006F0DFF94146074648462F
:1054000006F024F939468146002006F01FF90146CE
:10541000484606F025FA41468146A06A06F016F98C
:105420000146484606F0D0FA394606F011F906F072
:10543000DDFBE36D30602B60DDE600BFA094FF1F55
:105440003C93FF1FEC94FF1FAC94FF1F5892FF1F6B
:105450007492FF1F08B5274802F0CAFC07212648AE
:1054600004F0C8FF112003F0E7FA0621F8B1234841
:1054700004F0C0FF122003F0DFFA062100B3204839
:1054800004F0B8FF122003F0D7FA062108B31D4834
:1054900004F0B0FF132003F0CFFA062110BB1A4826
:1054A00004F0A8FF1348BDE8084002F0A1BC17486B
:1054B00004F0A0FF122003F0BFFA06210028DED17D
:1054C000134804F097FF122003F0B6FA06210028D3
:1054D000DDD1104804F08EFF132003F0ADFA062151
:1054E0000028DCD00C4804F085FF0248BDE80840E5
:1054F00002F07EBCC887FF1FA00F0100A80F0100AB
:10550000B80F0100C80F0100E00F0100B00F01004B
:10551000C00F0100D00F0100D80F010010B5254CBD
:105520002368042B27DC01210B2003F07FFA0121E3
:105530000C2003F07BFA0121142003F077FA0121FB
:10554000152003F073FAFF21162003F0EFF8FF2176
:10555000172003F0EBF8FF21052003F0E7F8FF2107
:10556000062003F0E3F8236801330A2B2360C4BF4D
:105570000023236010BD00210B2003F057FA002107
:105580000C2003F053FA0021142003F04FFA0021FD
:10559000152003F04BFA0021162003F0C7F8002174
:1055A000172003F0C3F80021052003F0BFF8002105
:1055B000D6E700BFE494FF1F30B59F4C94F8BD5070
:1055C00083B0002D00F0148109219C4803F04AFDAE
:1055D000222003F0EFFC9A4B1B78052B0BD8DFE859
:1055E00013F057025C0261024D02520206000721CD
:1055F000944803F037FD222003F0DCFCFF2003F089
:10560000D9FCFF2003F0D6FC8F4CFF2003F0D2FC26
:1056100008218E4803F026FD21688D4802F038FCF1
:10562000FF2003F0C7FCFF2003F0C4FCFF2003F0C1
:10563000C1FC0921874803F015FD2168844802F068
:1056400027FCFF2003F0B6FCFF2003F0B3FCFF2093
:1056500003F0B0FC0C21804803F004FD7F4B1C6874
:105660000021204606F0B8FA002800F00482204607
:105670007B4906F0A9F905F049FC002402460B46D7
:105680000094734802F00CFCFF2003F093FCFF2011
:1056900003F090FCFF2003F08DFC0921714803F01A
:1056A000E1FC7148FBF75EFB05F030FC009402461C
:1056B0000B46674802F0F4FBFF2003F07BFCFF2061
:1056C00003F078FCFF2003F075FC0C21674803F021
:1056D000C9FC6548FBF7A6FB05F018FC00940246E0
:1056E0000B465B4802F0DCFBFF2003F063FCFF206D
:1056F00003F060FCFF2003F05DFC0D215C4803F02B
:10570000B1FC5948FBF78CFB05F000FC0094024605
:105710000B464F4802F0C4FBFF2003F04BFCFF2078
:1057200003F048FCFF2003F045FC0921514803F039
:1057300099FC4D48FBF7E6FA05F0E8FB00940246B9
:105740000B46434802F0ACFBFF2003F033FCFF2084
:1057500003F030FCFF2003F02DFC0C21464803F041
:1057600081FC4148FBF7FAF93D4906F079F805F06C
:10577000CDFB009402460B46354802F091FBFF201A
:1057800003F018FCFF2003F015FCFF2003F012FCCF
:105790000D213A4803F066FC3348FBF78DFA304997
:1057A00006F05EF805F0B2FB009402460B4628486E
:1057B00002F076FBFF2003F0FDFBFF2003F0FAFB75
:1057C000FF2003F0F7FB09212D4803F04BFC2D4B84
:1057D0001F48196802F05CFBFF2003F0EBFBFF2081
:1057E00003F0E8FBFF2003B0BDE8304003F0E2BB6C
:1057F000174802F0FDFA164802F0FAFA144802F0CF
:10580000F7FA0D21204803F02DFCD4F89C30012B31
:105810003CD00B4C0E4821782B460A2202F0F8FAB5
:105820002378052B00F28880DFE813F05A01550138
:1058300050014B01460141013C93FF1FE80F01005D
:10584000A094FF1F140401003487FF1FF40F010010
:10585000AC87FF1F001001000C1001008092FF1F99
:1058600000007A441C100100EC94FF1F2810010076
:1058700038100100481001005410010064100100AC
:10588000741001002487FF1F440301000921B6485A
:1058900003F0E8FBB548FBF761F9216906F07EF9F2
:1058A000002840F04581B148FBF706FAE16806F0B0
:1058B00093F9002840F03781AC48FBF7FDF9054625
:1058C000AA48FBF74BF90146284605F0BFFEE16BFD
:1058D00006F082F9002840F02181A448FBF742FA43
:1058E000A16A06F079F9002840F013819F48FBF780
:1058F00039FAE16A06F052F9002840F005819C4B24
:105900009A481B68012B00F01881FBF727F92169E1
:10591000984D06F061F978B19448FBF7CDF9E96844
:1059200006F03CF940B1944B1B78052B00F0168132
:105930000821924803F096FB0221914803F092FB64
:10594000122003F079F8012800F0CF80112003F035
:1059500073F8012800F0D3808A4B1B68012B00F0FC
:10596000C98002218648884C03F07CFB874B88481D
:10597000196802F08DFA864802F03AFA0421854847
:1059800003F070FB0B2003F057F8002301460A22B6
:105990007F4802F03DFA0C2003F04EF80023014648
:1059A0000A227B4802F034FA142003F045F8002361
:1059B00001460A22764802F02BFA152003F03CF843
:1059C0000A2200230146724802F022FA7248062198
:1059D00003F048FB2368DD074CBF70487048012185
:1059E00003F040FB236898074CBF6C486C480121CA
:1059F00003F038FB23685A074CBF68486848012108
:105A000003F030FB23681B074CBF64486448012146
:105A100003F028FB0421634803F024FB112003F06A
:105A20000BF8002301460A22594802F0F1F9102030
:105A300003F002F8002301460A22554802F0E8F973
:105A4000122002F0F9FF002301460A22504802F01A
:105A5000DFF9132002F0F0FF002301460A224C4830
:105A600002F0D6F9504B41481968012203B0BDE855
:105A70003040FBF701BA04F10040F9E508214B483A
:105A800003F0F0FAB7E50B21494803F0EBFAB2E571
:105A90000621484803F0E6FAADE50721464803F041
:105AA000E1FAA8E50721454803F0DCFAA3E5072160
:105AB000434803F0D7FA3FE70B213D4803F0D2FA01
:105AC0003AE70821394803F0CDFA35E707213B488A
:105AD00003F0C8FA30E70721374803F0C3FA2BE791
