:1000000000800020BD0100008186000039860000CC
:1000100039860000398600003986000039860000E4
:10002000398600003986000039860000818600008C
:100030008186000039860000957C0000997D0000D3
:100040008186000081860000818600008186000094
:100050008186000081860000818600008186000084
:100060008186000081860000818600008186000074
:100070008186000081860000818600008186000064
:100080008186000081860000818600008186000054
:100090008186000081860000818600008186000044
:1000A0008186000081860000818600008186000034
:1000B00081860000817200008D7200009172000044
:1000C0009D720000A1720000A572000081860000F0
:1000D0008186000081860000818600008186000004
:1000E00081860000818600008186000081860000F4
:1000F00081860000C9A7000081860000759300007A
:100100008186000041950000818600008186000004
:1001100081860000818600008186000081860000C3
:1001200081860000818600008186000081860000B3
:1001300081860000818600008186000081860000A3
:100140008186000081860000818600008186000093
:100150008186000081860000818600008186000083
:1001600081860000D1970000818600008186000012
:100170008186000081860000818600008186000063
:100180008186000081860000818600008186000053
:100190008186000081860000818600008186000043
:1001A0008186000081860000818600008186000033
:1001B000818600008186000081860000564B4CF24B
:1001C000205210B51A804DF628121A8000BF00BFC9
:1001D00008F05AFA514B4FF010621A60504A9A6078
:1001E000504ADA60504A136813F4807304D14F49BF
:1001F0000B604FF4A85313604D4B1A78110703D5C9
:100200001A7842F008021A704A4B4B492A221A7097
:100210004A4A4B4B8B4204D252F8040F43F8040B6A
:10022000F8E7484B484900228B4202D243F8042B9E
:10023000FAE74649464A002352F8230041F82300D2
:1002400001336F2BF8D1434B434A802103F8011B44
:100250009342FBD1414B3D4A1A60414B8A221A70AE
:10026000A3F5805324225A70A0221A709A7992071B
:10027000FCD59A79D406FCD43A4A937903F00C035E
:10028000082B384BF9D103221A7140225A719A79FE
:100290009006FCD5334A9179324B4906FBD5324A58
:1002A000324911600221516020221A709A7902F0BD
:1002B0000C020C2AFAD12E4B2E4A1A602E4B2F4AD2
:1002C0001A6000225A60072243F8042C2C4AC3F813
:1002D0000C2D62B608F0B8FC144B1B68DA0705D584
:1002E000284808F095FA284B284A1A60284B1B78B2
:1002F0005B0609D5244C254B22689A4204D121483B
:1003000008F086FA002323600BF040FD08F0C2F9E4
:1003100008F0F0F8FEE700BF0E20054030800440F2
:10032000823F04000100002B10D0034014D0034092
:1003300002D0074000E007402892FF1FF417010099
:100340002087FF1F2892FF1FB0B9FF1F0082FF1FE9
:100350000000000000E400E05FE400E008ED00E0E1
:100360000050064000400640448004400000030165
:1003700004800440C010050014E000E0FF76010096
:1003800000002020CCA4E65D1CE00340A5C3945AE5
:1003900000F00740FFFFFFFFFFFFFFFFFFFFFFFF32
:1003A000FFFFFFFFFFFFFFFFFFFFFFFFFFFFFFFF5D
:1003B000FFFFFFFFFFFFFFFFFFFFFFFFFFFFFFFF4D
:1003C000FFFFFFFFFFFFFFFFFFFFFFFFFFFFFFFF3D
:1003D000FFFFFFFFFFFFFFFFFFFFFFFFFFFFFFFF2D
:1003E000FFFFFFFFFFFFFFFFFFFFFFFFFFFFFFFF1D
:1003F000FFFFFFFFFFFFFFFFFFFFFFFFFFFFFFFF0D
:10040000FFFFFFFFFFFFFFFFFFFFFFFFDEF9FFFF23
:1004100010B5054C237833B9044B13B10448AFF33E
:1004200000800123237010BD2892FF1F00000000F0
:10043000F0170100084B10B51BB108490848AFF38D
:1004400000800848036803B910BD074B002BFBD0A0
:10045000BDE81040184700BF000000002C92FF1FAD
:10046000F01701002892FF1F000000002DE9F04165
:10047000002600F5C67400F5D0774FF0000854F858
:10048000045F0E4928460BF02BFC0D4950B128465D
:100490000BF008FC30B1304629460BF05DF908F14D
:1004A0000108064640460BF00BFA014630460BF0B9
:1004B0000FFBBC420646E2D1BDE8F0810000A0C1BE
:1004C00000001643F0B4194F0024031F00F180010F
:1004D00000F5827200F17C0643F8044FB34241F804
:1004E000047F4FF0000542F8044FF5D10023104A75
:1004F0001049C0F88C51C0F89051C0F89451C0F820
:100500009851C0F89C51C0F8A051C0F8B051C0F843
:10051000A421C0F8AC21C0F8A81180F8B83180F847
:10052000B93180F8D031F0BC704700BF0000A04066
:10053000000048430000C8C238B590F8D0310B2BFA
:100540000546144607D8702966D0E02931D06029C5
:1005500000F09B8038BD70293AD0E02929D060296D
:10056000F8D1137A507A1B0203F47063181805D07F
:100570000BF0A6F963490BF0F7F96860A37AE07A0B
:100580001B0203F47063181805D00BF099F95D494C
:100590000BF0EAF9A860237B607B1B0203F4706315
:1005A0001818D7D00BF08CF956490BF0DDF9E8603C
:1005B00038BDE37BA07B03EB00200BF081F95249AF
:1005C0000BF0D2F951490BF0C7F8C5F8900138BDCE
:1005D000137A507A1B0203F4FE43181805D00BF06F
:1005E0006FF948490BF0C0F96861A07AE37A13EB20
:1005F000002005D00BF064F942490BF0B5F9A86171
:10060000207B637B13EB0020A4D00BF059F93D490C
:100610000BF0AAF9E86138BD137A507A1B0203F493
:100620007063181805D00BF04BF936490BF09CF9A4
:100630006861A37AE07A1B02C34208D003F47063B6
:1006400018440BF03DF92F490BF08EF9A861237B7C
:10065000607B1B02C34208D003F4706318440BF0A4
:100660002FF928490BF080F9E861A37BE07B1B029E
:10067000C3423FF46FAF03F4706318440BF020F9EA
:1006800020490BF071F9286238BD137A507A1B02A9
:1006900003F4FE42C24208D003F4706318440BF026
:1006A0000FF918490BF060F96860A37AE07A1B0231
:1006B000C34208D003F4706318440BF001F91149E8
:1006C0000BF052F9A860237B607B1B02C34208D069
:1006D00003F4706318440BF0F3F80A490BF044F983
:1006E000E860A37BE07B1B02C3423FF433AF03F41B
:1006F000706318440BF0E4F802490BF035F92861F7
:1007000038BD00BF0AD7A33ADDB504BD00001643CB
:10071000D0F8DC01704700BF90F8C001704700BFFF
:1007200090F8BC01704700BF90F8C401704700BF4B
:1007300090F8C801704700BF202994BF50F82100ED
:10074000002070472DE9F0410B4E8046041F00F158
:100750007C0754F8045F314628460BF0A3FA30B109
:10076000D8F8B41128460BF0BBFA00B12E46BC42B3
:10077000EFD13046BDE8F081000020412DE9F04185
:10078000D0F8B4714FF00008041F00F17C0654F853
:10079000045F394628460BF0A3FA084948B12846B9
:1007A0000BF080FA414620B128460BF099FA00B1CF
:1007B000A846B442EBD14046BDE8F0810000A0401D
:1007C0002DE9F0470023D0F8B471C0F8DC3182463F
:1007D0001C464FF000099846061F56F8045F38463D
:1007E00029460BF05FFA0E4960B128460BF05AFA21
:1007F00040B1484629460AF0AFFF08F1010881469A
:10080000CAF8DC410134202CE7D1CAF8D481404633
:100810000BF056F8014648460BF05AF9BDE8F08750
:1008200000007042D0F8D401704700BFD0F8CC313E
:1008300070B5044683BBFFF719FE4FF07C510BF0F7
:100840004FFA40B3D4F890614FF07C5130460BF032
:1008500047FAD4F8945118BBD4F898414FF07C5122
:1008600028460BF03DFA58B1294630460BF038FACD
:1008700030B1214628460BF015FA08B12C4625E088
:100880004FF07C5120460BF02BFA20B12846214630
:100890000BF026FAA0B970BD633350F82300CCE703
:1008A000304629460BF0FEF9D4F898410028D5D0FF
:1008B000304621460BF0F6F90028CFD0344605E04B
:1008C000304621460BF00CFA0028E4D0204670BDDB
:1008D00038B5D0F89441D0F89051214628460BF015
:1008E000E1F900B92C46204638BD00BFD0F8CC3124
:1008F0000BB9FFF7BBBD633350F82300704700BF4F
:100900002DE9F8434FF00008D0F8B471C0F88C819D
:100910008146041F00F17C0654F8045F39462846DE
:100920000BF0DEF9084950B128460BF0BBF930B1A5
:10093000404629460AF010FF8046C9F88C01B442AF
:10094000EAD14046BDE8F8830000704202299ABF10
:10095000643150F821000020704700BF102998BF73
:1009600080F8D011704700BF90F8D001704700BFE9
:1009700090F8B801704700BFC0F8CC11704700BFB5
:1009800080F8B811704700BF80F8B911704700BFF8
:1009900030B5C0F8B41183B008460AF03BFB074CF1
:1009A000022502460B460095204607F0FDFA204638
:1009B00003B0BDE8304007F09DBA00BFC887FF1FF5
:1009C00070B500F500550646183500F1380420468C
:1009D00004F5F074FFF776FDAC42F8D106F5067524
:1009E000012428460021FFF7CBFF21462846013489
:1009F000FFF7B4FF112C05F5F075F2D142F2200497
:100A000000250548054A064B3555002130627162C4
:100A1000B262F362304670BD00007A440000484381
:100A20000000C8C242F224032DE9F041002200F583
:100A3000F15500F500578046C2501835243700F5AF
:100A4000067403E004F5F074AC420ED02046FFF7C4
:100A50008FFF0028F6D020463E68FFF7E3FE04F53E
:100A6000F0743044AC423860F0D142F2240358F8BC
:100A70000300BDE8F08100BFF8B50F46096801F03A
:100A80000F050135C5EB051400EB441000F13804E7
:100A9000204601F0F006FFF767FF854203D02946A4
:100AA0002046FFF75BFF20460121FFF769FF204644
:100AB0000121FFF769FF3A4631462046BDE8F8407C
:100AC000FFF73ABD70B5002300F5005605460361F7
:100AD000183600F5067403E004F5F074A64223D03E
:100AE0002046FFF745FF0028F6D02046FFF708FF15
:100AF000014628690AF030FE28612046FFF796FE7D
:100B0000A96A0BF0CFF820BB2046FFF7E1FEE96AA7
:100B10000BF0E6F80028DFD02046FFF7D9FE04F5F9
:100B2000F074A642E862DBD168690AF0C9FE0146AA
:100B300028690AF0CDFF696A286104460BF0D0F8F5
:100B400000B16C62296A20460BF0ACF800B12C624F
:100B500070BD2046FFF76AFEA862D5E770B5124B5C
:100B6000836100F500550646183500F5067403E06C
:100B700004F5F074AC4214D02046FFF7F9FE0028CB
:100B8000F6D02046FFF7DEFDB1690BF08BF80028A8
:100B9000EED02046FFF7D6FD04F5F074AC42B0610C
:100BA000EAD1B06970BD00BF0000A04070B500235D
:100BB00000F500550646C361183500F5067403E0DC
:100BC00004F5F074AC4214D02046FFF7D1FE0028A3
:100BD000F6D02046FFF7D2FDF1690BF081F800282E
:100BE000EED02046FFF7CAFD04F5F074AC42F06188
:100BF000EAD1F06970BD00BF00697047416170477C
:100C0000F8B50F46164600F50674012504E00135D7
:100C1000112D04F5F0741BD02046FFF7A9FE002823
:100C2000F5D029460B4807F0B5F90A4807F062F9F4
:100C3000782009F0E7FC20463946FFF79DFE013594
:100C400020463146FFF7A4FE112D04F5F074E3D1E0
:100C5000F8BD00BFC887FF1F2DE9F84342F21C030F
:100C600000F500550027C7502E462B4A2B4B4263F8
:100C700080464FF00009036318351C3600F50674F2
:100C800003E004F5F074A54214D02046FFF770FE8F
:100C90000028F6D03368013333602046FFF726FE84
:100CA0001F490BF01DF890B904F5F074A54207F147
:100CB0000107EAD142F21C0358F80300C01B0AF0F6
:100CC000FFFD014648460AF003FFBDE8F8832046D1
:100CD000FFF70CFE014648460AF03EFD81462046DD
:100CE000FFF7F6FDD8F830100AF0FAFF70B9204689
:100CF000FFF79CFDD8F834100AF0D4FF0028C0D0CC
:100D00002046FFF793FDC8F83400BAE72046FFF706
:100D1000DFFDC8F83000EAE700C0794400C079C4BC
:100D200000008CC2006B7047406B7047F8B500F54F
:100D3000005507460026183500F5067403E004F553
:100D4000F074AC4210D02046FFF712FE0028F6D017
:100D50002046FFF735FD014630460AF0FDFC04F55C
:100D6000F074AC420646EED142F21C03F8580AF089
:100D7000A7FD014630460AF0ABFEF8BD2DE9F04F65
:100D800093B004460F91002A40F0D78115461046D3
:100D9000C84900F0E5FDC749284600F0E1FDC54916
:100DA000284600F0DDFD42F21C03204654F803B053
:100DB000FFF738FE8146206966690AF02BF9CDE914
:100DC00010012046FFF7B2FF82462046A769D4F8FB
:100DD0001C80FFF741FF0AF01DF9CDE90C013946EF
:100DE00040460AF0B7FCB4490AF0BEFD0AF012F919
:100DF000CDE90A0140460AF00DF9CDE9080138466F
:100E00000AF008F9CDE9060150460AF003F9DDE9D8
:100E10001023CDE90401CDE90223A84900964B46F1
:100E20005A46284600F09CFDA249284600F098FD4D
:100E300004F506744FF0010ADDF83C9007E00AF172
:100E4000010ABAF1100F04F5F07400F0F7802046A3
:100E5000FFF78EFD0028F2D02046FFF75DFC20460C
:100E6000FFF75EFC2046FFF75FFC2046FFF760FCC3
:100E70000821934809F042FB5146924807F08AF84E
:100E8000BAF1090F03DC01218F4809F037FB022179
:100E90008E4809F033FB2046FFF732FD0AF0BAF81E
:100EA0005FFA89F802460B46CDF80080854807F0C6
:100EB0007BF80121864809F021FB2046FFF728FC3A
:100EC0000C2800F3BE8001261EE00621814809F0AF
:100ED00015FB29467B4807F05DF802217E4809F0A2
:100EE0000DFB31462046FFF727FC0AF093F8CDF8BA
:100EF000008002460B46734807F056F801217448FB
:100F00003D460E4409F0FAFA2046FFF701FC8642FE
:100F100005F101076BDC092DD7DC01216A4809F0D6
:100F2000EDFAD2E72046FFF7F3FB172800F3BE8067
:100F300035460D261CE009F0E1FA2946614807F024
:100F400029F80221644809F0D9FA31462046FFF712
:100F5000F3FB0AF05FF8CDF8008002460B465948D3
:100F600007F022F801215A483D460E4409F0C6FA1E
:100F70002046FFF7CDFB86424FF00601554805F1AC
:100F80000107D8DD0F21554809F0B8FA4D4806F0A1
:100F9000B1FF2046FFF7BCFB192828DD19261CE00D
:100FA00009F0ACFA2946474806F0F4FF02214A4806
:100FB00009F0A4FA31462046FFF7BEFB0AF02AF8F2
:100FC000CDF8008002460B463E4806F0EDFF0121B9
:100FD0003F483D460E4409F091FA2046FFF798FB42
:100FE00086424FF006013B4805F10107D8DD0F218D
:100FF0003A4809F083FA334806F07CFF0921384863
:1010000009F07CFA00212046FFF7A0FC0AF002F864
:10101000022602460B4600962A4806F0C5FF0F211D
:101020002E4809F06BFA0AF1010A264806F062FF21
:10103000BAF1100F04F5F0747FF409AF13B0BDE8F6
:10104000F08F2F46012620E00621224809F056FAAB
:1010500039461C4806F09EFF02211F4809F04EFA4F
:1010600031462046FFF768FB09F0D4FFCDF8008039
:1010700002460B46134806F097FF0136012114483B
:1010800009F03CFA0C2E09D05F46092F07F1010B3D
:10109000DADC01210C4809F031FAD5E72046FFF7E8
:1010A00037FB0C2805F10B063FF73CAF16350D2733
:1010B0003AE000BF4800010000007A44E00101006E
:1010C00080020100C887FF1F80040100EC100100AE
:1010D0008C020100900201007004010098020100DE
:1010E000A80201000621BD4809F008FA3146BC48B3
:1010F00006F050FF0221BB4809F000FA39462046AD
:10110000FFF71AFB09F086FFCDF8008002460B4678
:10111000B34806F049FF0121B3480F4409F0EEF946
:101120005D453FF42FAF5E46092E06F1010BD9DC79
:101130000121AE4809F0E2F9D4E7AD49012000F001
:101140000FFCAB49012000F00BFCA949012000F085
:1011500007FC42F21C032046E2581092FFF762FCA3
:1011600082462069666909F055FF80462046894617
:10117000FFF7DCFD83462046A569E769FFF76CFDB4
:1011800009F048FFCDE90C01294638460AF0E2FA99
:1011900098490AF0E9FB09F03DFFCDE90A0138461C
:1011A00009F038FFCDE90801284609F033FFCDE901
:1011B0000601584609F02EFF5346CDE90401CDE95A
:1011C0000289109A8C490096012000F0C9FB8849D9
:1011D000012000F0C5FB04F506744FF0010A00255C
:1011E000DDF83C9007E00AF1010ABAF1100F04F5AE
:1011F000F0743FF423AF2046FFF7BAFB0028F2D08B
:101200002046FFF789FA2046FFF78AFA2046FFF7C3
:101210008BFA2046FFF78CFA0821784807F0A6FFE2
:101220005146774806F0B6FEBAF1090F03DC0121FA
:101230006E4807F09BFF0221724807F097FF204697
:10124000FFF75EFB09F0E6FE5FFA89F802460B46FF
:10125000CDF800806A4806F0A7FE0121624807F039
:1012600085FF2046FFF754FA0C2800F3B4800126CE
:101270001EE00621594807F079FF2946604806F02C
:1012800089FE0221574807F071FF31462046FFF7DB
:1012900053FA09F0BFFECDF8008002460B465848CD
:1012A00006F082FE012150483D460E4407F05EFFE5
:1012B0002046FFF72DFA864205F101076BDC092D68
:1012C000D7DC0121494807F051FFD2E72046FFF75C
:1012D0001FFA172800F3CE8035460D261CE007F0D4
:1012E00045FF2946464806F055FE02213D4807F0D5
:1012F0003DFF31462046FFF71FFA09F08BFECDF87F
:10130000008002460B463E4806F04EFE012136485C
:101310003D460E4407F02AFF2046FFF7F9F98642C2
:101320004FF006012D4805F10107D8DD0F213648A1
:1013300007F01CFF324806F0DDFD2046FFF7E8F914
:10134000192828DD19261CE007F010FF29462C4833
:1013500006F020FE0221234807F008FF3146204610
:10136000FFF7EAF909F056FECDF8008002460B4679
:10137000234806F019FE01211B483D460E4407F0A4
:10138000F5FE2046FFF7C4F986424FF006011348E8
:1013900005F10107D8DD0F211B4807F0E7FE1848CB
:1013A00006F0A8FD0921194807F0E0FE00212046BB
:1013B000FFF7CCFA09F02EFE022602460B460096F5
:1013C0000F4806F0F1FD0F210F4807F0CFFE0C4843
:1013D00006F090FD07E72F4601263AE09002010053
:1013E000C887FF1F700401008C0201008004010007
:1013F0004800010000007A44E00101008002010081
:10140000AC87FF1FEC10010098020100A802010048
:1014100006212F4807F0AAFE39462E4806F0BAFDED
:1014200002212D4807F0A2FE31462046FFF784F93D
:1014300009F0F0FDCDF8008002460B46254806F085
:10144000B3FD01360121254807F090FE0C2E09D08E
:101450005F46092F07F1010BDADC0121204807F074
:1014600085FED5E72046FFF753F90C2805F10B065A
:101470003FF72CAF16350D2721E00621144807F061
:1014800075FE3146134806F085FD0221124807F02B
:101490006DFE39462046FFF74FF909F0BBFDCDF848
:1014A000008002460B460B4806F07EFD01210B48EA
:1014B0000F4407F05BFE5D453FF438AF5E46092EF2
:1014C00006F1010BD9DC0121054807F04FFED4E7F6
:1014D00090020100AC87FF1F700401008C02010024
:1014E000800401002DE9F04F85B000F506758A46AD
:1014F00003929B462E464FF0010806E008F10108D2
:10150000B8F13F0F06F5F0767BD03046FFF730FAA2
:101510000028F3D000230A2251467D4806F0FAFC49
:1015200001217C4808F0EAFF039809F073FD0023CD
:101530000246009376480B4606F036FD01217548B9
:1015400008F0DCFF5946724806F024FD012171487D
:1015500008F0D4FF41466E4806F01CFD01216D489D
:1015600008F0CCFF00244FF0020921463046FFF777
:10157000E3F809F04FFDCDF8009002460B466448B1
:1015800006F012FD01340121624808F0B7FF082C73
:101590004FF00207E9D100213046FFF7D7F909F0F3
:1015A00039FD009702460B46594806F0FDFC012123
:1015B000584808F0A3FF01213046FFF7C7F909F0AA
:1015C00029FD009702460B46514806F0EDFC01212B
:1015D000504808F093FF39463046FFF7B7F909F055
:1015E00019FD009702460B46494806F0DDFC08F15C
:1015F0000108474806F07EFCB8F13F0F06F5F0768B
:1016000083D101274FF0000904E001373F2F05F592
:10161000F07579D02846FFF7ABF90028F5D0002304
:101620000A2251463C4806F075FC0121394807F072
:101630009DFD039809F0EEFCCDF8009002460B46A4
:10164000354806F0B1FC0121324807F08FFD5946BC
:10165000314806F09FFC01212E4807F087FD3946EE
:101660002D4806F097FC01212A4807F07FFD002451
:101670004FF0020821462846FFF75EF809F0CAFC41
:10168000CDF8008002460B46234806F08DFC01345D
:101690000121204807F06AFD082C4FF00206E9D12D
:1016A00000212846FFF752F909F0B4FC00960246E3
:1016B0000B46194806F078FC0121164807F056FD44
:1016C00001212846FFF742F909F0A4FC00960246E2
:1016D0000B46114806F068FC01210E4807F046FD54
:1016E00031462846FFF732F909F094FC009602468D
:1016F0000B46094806F058FC0137074806F0FAFB8C
:101700003F2F05F5F07585D105B0BDE8F08F00BF1E
:10171000C887FF1FB4020100AC87FF1F70B50446E5
:1017200008460D460BF02CF9236802462946204650
:101730005B68BDE870401847014B1870704700BFE8
:101740002087FF1FF0B51546027883B062B10346CB
:101750000E46252A16D018781C4685B908F052FF87
:101760006278631C002AF4D1002D5CD0744803B069
:10177000BDE8F04006F0BEBB1046002DEED007F0ED
:101780009DFCEDE758785C1C0028EDD02528F3D0AF
:1017900073282FD0642825D0692823D0662848D004
:1017A0007A2853D078285ED0582800F085806228A7
:1017B00000F09180422866D06C2813D0632811D0A5
:1017C000742800F098805428C7D133680436002D5F
:1017D00040F0A480012B00F0A8800521594808F0B2
:1017E0008DFEBDE7331D316885B957481E4606F0AA
:1017F000D1FBB5E7371D3668304665B90BF0C0F848
:10180000014630463E4608F079FEA9E74C481E46A0
:1018100006F0C0FBA4E70BF0B3F8014630463E46A5
:1018200007F0A4FC9CE7484803B0BDE8F04006F090
:1018300061BB073626F007060321D6E90023009195
:1018400065B94148083606F0AFFB89E7073626F050
:101850000706D6E9002385B10021009138480836F3
:1018600006F0A2FB7CE7371D3168F5B90023102292
:1018700035483E4606F04EFB72E700953248083682
:1018800006F092FB6CE7022130487DBB08F036FE83
:101890003168371D2B4602222B483E4606F03AFBA4
:1018A0005EE707F063FC3168371D002310222448EF
:1018B0003E4606F02FFB53E702212548002DF0D1CC
:1018C00008F01CFE371D31681F482B4610223E468B
:1018D00006F020FB44E7371D3168002DDAD00023E5
:1018E000022217483E4606F015FB39E707F03EFC9A
:1018F000371D3168F3E7316804363DB901290EBF61
:1019000014481548012108F0F9FD29E701290EBF07
:1019100010481148012107F029FC21E7012B09D0CB
:101920000521084807F022FC1AE70C490648FFF792
:10193000F5FE15E709490248FFF7F0FE10E700BF82
:10194000AC87FF1FF4020100C887FF1FE0020100FF
:10195000DC020100E4020100E8020100EC020100E7
:101960000EB400B582B003A9024651F8040B0191F0
:10197000FFF7E8FE02B05DF804EB03B0704700BF6C
:1019800030B4074D074C084900232B7023600365D2
:101990004365836580F85C300B6030BC704700BFE6
:1019A0004C92FF1F4892FF1F4492FF1F0A4A0B49A7
:1019B000906D536D03FB00F34FF47A7000FB03F05E
:1019C000642310B50B6009F07BFF0549054C0AF054
:1019D0007FF8206010BD00BF3C93FF1F3487FF1FBE
:1019E000E4388E3E8C92FF1FF8B53C493C4F3D4D8C
:1019F0003D4E3E4C0020FFF7B3FF3D4B3D483E4976
:101A00003E4A5860D9603E481F6100213D4F5A61EF
:101A10005D623D4A9E614FF07C553C4E9C623C4C61
:101A2000D86219630C203B495F639A633A4F5D6447
:101A300040F61C420A259E64DC6441F204065A24E6
:101A40001865196202200121C3F8B8709A66334FF5
:101A5000DD66002264251E675C674FF496763224AB
:101A60005870587219725965DF61DF6383F840203E
:101A70005E66DE651C664FF47A7E9D65284F9A6728
:101A8000284ED867C3F88020C3F89440C3F8A0401C
:101A9000C3F89C20C3F8A810C3F8AC00FF240520AD
:101AA00083F8BC1083F8BD2041F2883140F2D66241
:101AB000C3F8B050C3F898E0C3F88870C3F88C60DE
:101AC000C3F8A440A3F8B600C3F89010A3F8B4106C
:101AD000A3F88420A3F88620F8BD00BFFC02010013
:101AE00000004040CDCCCC3DCDCC4C4000008242EB
:101AF0003C93FF1F48E8010066668640333383400D
:101B0000000020C1000020420000A0409A997940C6
:101B10000AD7233D333373409A99993ECDCC4C3E3E
:101B20000000684200C02044F0B54FF47A6085B0F0
:101B300007F03CF800210F2007F010F800210E20DC
:101B400007F00CF80021112007F008F80021102000
:101B500007F004F80021122007F000F800211320FC
:101B600006F0FCFF01210B2006F0F8FF01210C20FC
:101B700006F0F4FF0121142006F0F0FF01211520EA
:101B800006F0ECFF0121162006F0E8FF01211720E6
:101B900006F0E4FF0121052006F0E0FF8D4C8E4D9C
:101BA0000121062006F0DAFF01210D2006F0D6FF04
:101BB000208809F081FE0146162006F039FF2088B2
:101BC00009F07AFE0146172006F032FF208809F05E
:101BD00073FE0146052006F02BFF208809F06CFEFD
:101BE00000240146062006F023FF009423467B4A8A
:101BF0007B497C4804F0ECFFE6B2324676497948EE
:101C000004F094FF2B79744976486FF30003013494
:101C100032462B7104F080FF082CEDD10924E6B286
:101C200032466D496F4804F081FF2B796A496D484F
:101C300043F00103013432462B7104F06DFF0D2C8B
:101C4000EDD1694C4FF0FF322068102105F08CFB7C
:101C500020684FF0FF32102105F05EFB20684FF046
:101C6000FF32022105F06CFB20684FF0FF320221A9
:101C700005F070FB00220F21206805F07FFB0C218E
:101C80005A4808F03BFC5A4806F034F916215948E6
:101C900008F034FC564806F02DF940F2836007F056
:101CA00043F8534806F026F91721534808F026FC5C
:101CB0004F4806F01FF9514B1B789A0600F1B88087
:101CC0004E4B1B781B0700F1BF804C4B1B785F0706
:101CD00000F1C680494B1B789E0700F1CD80484B30
:101CE0001B781D0600F1D480454B1B785C0600F183
:101CF000DB80434B1B78980600F1E280404B1B7859
:101D0000590700F1E9803E4B1B781A0700F1F0807B
:101D10003B4B1B789B0700F1F780354806F0EAF84B
:101D200072B6384A4CF220534DF628112024138005
:101D300023461180013BFDD1334D34483449002303
:101D40004FF480562E8003800B8032F80E3C9BB2FD
:101D500043F0D30322F80E3C62B69D2007F090FBBF
:101D600021462C482C4D08F0C9FB214806F0C2F84A
:101D700005F1C0062F462C46601B06F029FB04F82F
:101D8000010BB442F8D13B78102B01D0FFF72CFEA9
:101D90000420FFF7D1FC214B002201210D201A6005
:101DA00006F0C8FE796D1E48FEF728FF7A6C97F89A
:101DB00040101B48FEF724FF1A4B1B491A68039278
:101DC00003981B680293029A184B08601A6005B0CA
:101DD000F0BD00BF2887FF1F0494FF1FB0B6FF1F90
:101DE00048E8010014B5FF1FB494FF1F1C03010055
:101DF000C887FF1F2C0301004403010001F00740C6
:101E000000F007400E200540042005400620054054
:101E100016200540480401003C93FF1F6492FF1FF9
:101E2000EC94FF1FD8B6FF1FE894FF1F0C94FF1F10
:101E30002121394808F062FB384806F05BF8384B3E
:101E40001B781B077FF541AF0C21364808F056FB85
:101E5000324806F04FF8324B1B785F077FF53AAFF8
:101E60000E21314808F04AFB2C4806F043F82C4B71
:101E70001B789E077FF533AF17212C4808F03EFBF7
:101E8000264806F037F82A4B1B781D067FF52CAF45
:101E90000E21284808F032FB204806F02BF8244B8E
:101EA0001B785C067FF525AF1221234808F026FB3E
:101EB0001A4806F01FF81E4B1B7898067FF51EAFD8
:101EC00013211E4808F01AFB144806F013F8184BAB
:101ED0001B7859077FF517AF1C21194808F00EFB36
:101EE0000E4806F007F8124B1B781A077FF510AF63
:101EF0001921144808F002FB084805F0FBFF0C4BC1
:101F00001B789B077FF509AF18210F4808F0F6FAF8
:101F1000024805F0EFFF00E75C030100C887FF1FE0
:101F200001F007408003010090030100A0030100BD
:101F300000F00740B8030100C8030100DC03010002
:101F4000F0030100100401002C04010070B5464CA0
:101F5000464D4748E66800232B70FEF727FE0146F2
:101F6000304609F09FFE08B104232B704048FEF76D
:101F7000F5FD216909F096FE18B12B7843F01003A6
:101F80002B703B48FEF7CEFEA16A09F0A9FE18B1FE
:101F90002B7843F040032B70002335486B70FEF71D
:101FA000C3FEE16A314E09F07DFE08B10123737072
:101FB00000232F48EB70FEF7F9FD05462C482B4E09
:101FC000FEF7CCFD0146284609F0C4FBE16B09F0A1
:101FD00087FE08B10123F370264D254800232B709E
:101FE000FEF7E4FD616A0646E06809F0B3FB0146CE
:101FF000304609F075FE08B104232B701C48FEF72B
:10200000ADFD616A0646206909F0A6FB014630462F
:1020100009F048FE18B12B7843F010032B701448D8
:10202000FEF780FEA16B0646A06A09F093FB01460D
:10203000304609F055FE18B12B7843F040032B7061
:1020400000230B486B70FEF76FFEA16B0546E06A3C
:10205000084C09F081FB0146284609F023FE08B12F
:102060000123637070BD00BF3C93FF1F3893FF1FB7
:10207000EC94FF1FA494FF1F2DE9F0417C4C2368D2
:10208000012B82B031D0022B00F0A880032B00F08E
:10209000C8803BBB774B784AD3F8A010D3F8A43064
:1020A00012685B1A632B0EDD744803FB02F380FB9E
:1020B0000302DB17C3EB62131944062002B0BDE82C
:1020C000F04106F0B7BB6E4803FB022380FB03021E
:1020D000DB17C3EB22121144062002B0BDE8F04129
:1020E00006F0A8BB02B0BDE8F081664E33680A3343
:1020F000B3F57A7F00F3B7801846336009F0E0FB50
:10210000614909F031FC80465A4DD5F8A00009F02C
:10211000D7FB0746D5F8A40009F0D2FB394609F0F1
:1021200019FB414609F020FC584909F0D1FC394619
:1021300009F012FB09F0DEFD0146062006F07AFBED
:102140000221534808F0DAF9524805F0D3FE06217F
:10215000514808F0D3F9306809F0B2FB4A4909F058
:1021600003FC08F057FF022702460B460097494838
:1021700005F01AFF0D21494808F0C0F9D5F8A00074
:1021800009F09EFB8046306809F09AFB3E4909F051
:10219000EBFB0646D5F8A40009F092FB414609F096
:1021A000D9FA0146304609F0DFFB384909F090FCC6
:1021B000414609F0D1FA08F02DFF00970B46024680
:1021C000344805F0F1FE3946314808F097F93148B6
:1021D00005F090FE2368022B7FF458AF294B254E63
:1021E00000221A60D6F8A00009F06AFB0546D6F86E
:1021F000A40009F065FB294609F0ACFA002109F0BA
:10220000B3FB224909F064FC294609F0A5FA09F05C
:1022100071FD0146062006F00DFB2368032B7FF4B9
:1022200038AF184B134E4FF47A721A60D6F8A000EC
:1022300009F046FB0546D6F8A40009F041FB294603
:1022400009F088FA114909F08FFB104909F040FCA8
:10225000294609F081FA09F04DFD0146062006F0F5
:10226000E9FA236815E700234FF0000833604BE7D5
:102270009094FF1F3C93FF1F3487FF1F1F85EB5176
:10228000CBF08D286892FF1FCDCCCC3D0000C8421A
:10229000EC100100C887FF1F6C04010074040100EA
:1022A00070B5B848B84C05F025FEB64805F022FEDA
:1022B000B44805F01FFE0D21B44808F01FF9D4F80A
:1022C0009C30012B11D0B24CAE48217800230A2259
:1022D00005F020FE2378052B67D8DFE813F00B010B
:1022E000100115011A011F0101010921A94808F077
:1022F00005F9A948FEF732FC216909F0D3FC18B1B1
:102300000F21A64808F0FAF8A348FEF74FFCE16851
:1023100009F0E6FC18B10E21A14808F0EFF89E483C
:10232000FEF744FC05469C48FEF718FC014628468B
:1023300009F010FAE16B09F0D3FC18B111219948AA
:1023400008F0DCF89448FEF787FCA16A09F0C8FCA5
:1023500018B10C21944808F0D1F88F48FEF77CFCA6
:10236000E16A09F09FFC18B10D21904808F0C6F809
:102370008F4B89481B68012B00F0ED80FEF7EEFBC8
:102380002169814D09F0ACFC78B18348FEF70EFC61
:10239000E96809F087FC40B17D4B1B78052B00F004
:1023A000EB800821834808F0A9F80221824808F050
:1023B000A5F8122006F0C4FB012800F0B48011201B
:1023C00006F0BEFB012800F0B8807C4B1B68012B97
:1023D00000F0BC8002217848794C08F08FF8794BE6
:1023E0006848196805F0D6FD664805F083FD0421AC
:1023F000754808F083F80B2006F0A2FB0023014685
:102400000A22604805F086FD0C2006F099FB0023A7
:1024100001460A225B4805F07DFD142006F090FB82
:10242000002301460A22574805F074FD152006F0E6
:1024300087FB0A2200230146524805F06BFD062166
:10244000624808F05BF82368DD074FF001014CBFDC
:102450005F48604808F052F8236898074FF0010180
:102460004CBF5B485B4808F049F823685A074FF0B7
:1024700001014CBF5648574808F040F823681B0735
:102480004CBF53485348012108F038F80421524802
:1024900008F034F8112006F053FB002301460A220D
:1024A000384805F037FD102006F04AFB00230146AE
:1024B0000A22344805F02EFD122006F041FB0023CD
:1024C00001460A222F4805F025FD132006F038FBAF
:1024D000002301460A222B48BDE8704005F01ABDD2
:1024E00007213E4808F00AF83D4B2648196805F0D8
:1024F00051FD5AE706213B4808F000F855E707214F
:10250000394807F0FBFF50E70721384807F0F6FF8E
:102510004BE70821364807F0F1FF46E70B21354825
:1025200007F0ECFF41E70E21334807F0E7FF1120E9
:1025300006F006FB01287FF448AF0A212F4807F078
:10254000DDFF1E4B1B68012B7FF444AF11212C488B
:1025500007F0D4FF3EE7FEF701FB216A09F0C0FB5C
:1025600000283FF41EAF1621264807F0C7FF0A21B6
:10257000254807F0C3FF18E70A21234807F0BEFFEC
:1025800013E700BFC887FF1F3C93FF1F84040100AF
:10259000A094FF1F94040100EC94FF1FA00401000D
:1025A000B0040100C0040100D4040100E4040100EF
:1025B0007492FF1F18050100EC100100BC94FF1F6E
:1025C000FC93FF1F9494FF1F8C05010094050100EC
:1025D0009C05010054120100A005010054050100F2
:1025E000C094FF1F240501002C05010040050100D7
:1025F00048050100340501005C0501006C0501007F
:1026000078050100F40401000C0501002DE9F04FEC
:102610009B4C9C4FE36F012B8DB000F05981032B35
:102620005AD0994E994DA36F9948012B09BF29683B
:10263000296801F10041296005F092FA3368002B06
:1026400040F0D880924805F061FAE36F3860012BC2
:10265000064600F0DC808F4909F042FBB8B98E498C
:10266000304609F01FFB90B98C4A8D4B12680B92D3
:102670000B9A1A60D4F8A80009F022F9314609F043
:1026800073F9002338602B600DB0BDE8F08FDFF8E0
:102690000CA2DFF80C82DAF800300A930A98D8F816
:1026A0000030DFF82492C01A09F006F9314609F02B
:1026B0005BF97C4909F00CFA7A4909F009FAD9F872
:1026C000001009F049F8DAF800300993099BC9F8BD
:1026D0000000C8F80030CDE7DFF8D081724DD8F89F
:1026E0000000694E012300220F212B6004F046FEFA
:1026F0002B68012B336800F00981002B40F0AC817E
:102700000021D8F80000DFF8C491684D04F088FE7D
:1027100033681FFA80FBC9F800B0002B40F08181BC
:102720000021D8F80000594DDFF880A104F0FEFD2B
:10273000B4F8863040F6E44101FB0BF1B1FBF0F058
:10274000C01A00B209F0BCF859498346D4F8880091
:1027500009F00AF90146584609F0BAF9D9F80030EB
:102760002860632BDFF864B100F34F8100232B60F6
:102770003368002B3FF457AF02214E4807F0BEFEEE
:10278000D9F80020D8F8000040F6E443002103FB0C
:1027900002F804F0CBFDB8FBF0F009F08DF88046AC
:1027A000B4F8860009F08CF80146404608F0D2FFE4
:1027B00008F030FC4FF0020802460B46CDF80080CE
:1027C0003D4805F0F1FB41463A4807F097FE28687E
:1027D00008F020FCCDF8008002460B46364805F094
:1027E000E3FB4146354807F089FE4146314807F092
:1027F00085FE18E7264805F089F908F00BFC02264B
:1028000002460B4600962C4805F0CEFB1AE7264BF5
:102810001B68012B00F02C81022B7FF42BAF284981
:1028200009F05EFA30B92749304609F03BFA002832
:1028300000F05381DFF864A0DFF86480DAF800303C
:1028400007930798D8F80030DFF87C90C01A09F099
:1028500033F8314609F088F8124909F039F911497D
:1028600009F036F9D9F8001008F076FFDAF80030F0
:102870000693069BC9F80000C8F80030FAE600BFCE
:102880003C93FF1F8092FF1FE094FF1F7092FF1F79
:102890001493FF1F0000FA430000FAC3D8B6FF1FCD
:1028A000B094FF1F00007A445087FF1FB494FF1FAD
:1028B00017B7D138EC100100C887FF1FE4050100ED
:1028C00000C82F4800A08CC68C92FF1F3493FF1FB6
:1028D0003D689B49284609F0E5F930B128469949F9
:1028E00009F0FEF900287FF4F7AEDFF86482964D18
:1028F000D8F80000954E022300220E212B6004F030
:102900003DFD2B68012B33687FF4F7AE002B40F0C0
:1029100006810021D8F80000DFF874928C4D04F095
:102920007FFD33681FFA80FBC9F800B0002B40F030
:10293000DB800021D8F80000864D04F0F7FCB4F8E5
:10294000843040F6E44A0AFB0BFBBBFBF0F0C01AF4
:1029500000B208F0B5FF80498346D4F88C0009F036
:1029600003F80146584609F0B3F8D9F8003028605A
:102970000021D8F800000AFB03FA04F0D7FCB4F8F1
:102980008430BAFBF0F00FFA80FAC3EB0A03002B95
:10299000B4F8B620B8BF5B429342BCBF00232B60A3
:1029A0003368002B3FF43FAE02216C4807F0A6FDD0
:1029B000D9F80020D8F8000040F6E443002103FBDA
:1029C00002F804F0B3FCB4F88410B8FBF0F000B2E5
:1029D000411A634805F0DEFA0221604807F08EFDD7
:1029E000286808F017FB4FF0020802460B46CDF8A6
:1029F00000805B4805F0D8FA03215A4807F07EFDB5
:102A00004146564807F07AFD0DE6DAF8000000214D
:102A100004F08CFCDBF8003064389842FFF4A6AE7A
:102A2000A6E60021286804F081FC40F6E44100237A
:102A30000A2201FB0BF1B1FBF0F1494805F06AFAFB
:102A40000221464807F05AFDB4F88610444805F0C4
:102A5000A1FAD9F800B063E6414805F04BFA0C2121
:102A6000414807F04BFD0C21404807F047FD47E681
:102A70003F4909F035F958B93E49304609F012F995
:102A800030B93D4A3D4B12680592059A1A60F1E54E
:102A9000DFF8E4A0DFF8E480DAF80030049304986B
:102AA000D8F80030DFF8EC90C01A08F005FF314686
:102AB00008F05AFF324909F00BF8314909F008F8DB
:102AC000D9F8001008F048FEDAF800300393039BB1
:102AD000C9F80000C8F80030CCE5274A274B126837
:102AE0000892089A1A60C5E50021286804F01EFCC7
:102AF00040F6E44100230A2201FB0BF1B1FBF0F1A7
:102B0000174805F007FA01211E4807F0F7FCB4F852
:102B10008410134805F03EFAD9F800B009E71048D0
:102B200005F0E8F9E36F012B4FF00B010CBF1648DD
:102B3000164807F0E3FC0C210C4807F0DFFCE8E640
:102B400000709446007094C65087FF1FE094FF1FEA
:102B5000B494FF1F7092FF1F17B7D138EC1001001B
:102B6000C887FF1FD0050100D4050100C005010082
:102B70000000FA430000FAC3D8B6FF1FB094FF1F4D
:102B800000007A4480040100A8050100B40501009A
:102B90003493FF1F8C92FF1F2DE9F047934C23685D
:102BA00084B0002B79D0924DDFF84C82914FD5F84C
:102BB00080308F4E012B00F08980D7F80090D6F836
:102BC00058A0746D8C4E04FB0AF44FF47A7000FB2D
:102BD00004F008F075FE89490446484608F0C4FE32
:102BE000214608F075FF864908F0BEFE09F082F81C
:102BF0006328C8F800004BDD2046804908F068FFD4
:102C00006423386033607F4B1B68002B3DD0EB6F33
:102C1000774C012B00F08880032B00F0D680022B2C
:102C200000F0D9800221784807F068FC774B1868DB
:102C300008F0F0F9022402460B460094744805F0AF
:102C4000B3F92146734807F059FC21466E4807F056
:102C500055FCD8F800106E4805F09CF906216E4826
:102C600007F04CFC3868654908F07EFE08F0D2F9A0
:102C7000009402460B46664805F096F90321674822
:102C800007F03CFC624805F035F904B0BDE8F08778
:102C90000028BCBF00233360B5E7614E544D336854
:102CA0000293029A42F228339A4249D83368039336
:102CB000039A42F210739A4249D8D5F88030DFF86F
:102CC00038814C4F4A4E012B7FF477AF5548FEF7C1
:102CD0002DF85549D6F86890F46E08F045FE09F0D5
:102CE0002FF8326F736FD5F858A0C9EB02021B1B87
:102CF00080B29A42C9EB0000C6BF03FB000001325C
:102D0000584390FBF2F020446C6D00FB0AF004FB8A
:102D100000F000EB8000400008F0D2FD374908F0D9
:102D2000D7FE814638604DE7404B1B68012B4FF0C2
:102D30000A010CBF3E483F4807F0E0FBE36F6BE73A
:102D400038486A6C95F84010FDF75AFFAEE73548F1
:102D5000FDF7ECFF3449AF6EEE6E08F005FE08F0AB
:102D6000EFFF2A6F6B6FD21B9B1B80B29A42A0EBC6
:102D7000070035DD03FB0000531C90FBF3F31E44FA
:102D8000A86D6B6DDFF870801A4FC8F8006000FB0B
:102D900006F003FB00F000EB8000400008F090FD1F
:102DA000164908F095FE0123386002211648236079
:102DB00007F0A4FB164805F09DF859211E4807F0BE
:102DC0009DFB134805F096F8F1E610211B4807F02B
:102DD00095FBEB6F23E70721194807F08FFB21E7ED
:102DE00003FB00F393FBF2F31E44C9E76C92FF1F51
:102DF0003C93FF1F8C92FF1F3487FF1FE4388E3EE9
:102E00000000C8423C87FF1FEC1001008092FF1FAA
:102E1000C887FF1FE4050100780601008006010055
:102E2000D8B6FF1FEC94FF1F00007A445087FF1FA5
:102E30004406010050060100E80501005C0601009F
:102E400070060100F0B5112083B005F079FE01286D
:102E500013D000210B2005F06DFE00210C2005F0A1
:102E600069FE0021152005F065FE1D491D4B01205E
:102E7000002208701A6003B0F0BD01460446152018
:102E800005F058FE1849194A194B09680191D2F802
:102E900090001B680199134D034402268B422E605B
:102EA00017D8D2F8980008F00BFD124B196808F0FB
:102EB000F9FE074668B921460B2005F03BFE084A9B
:102EC000032339460C2016702B6005F033FE03B047
:102ED000F0BD01210C2005F02DFE03B0F0BD00BFB8
:102EE000A094FF1FDC94FF1FD8B6FF1F3C93FF1F69
:102EF000E894FF1F8092FF1FF0B5684E684D34685C
:102F00002B689C4287B039D014F0010155D014F0E1
:102F1000020149D014F004013DD0E3070ED52B681F
:102F2000DF070BD45F4F3A68002A00F082805E4BC7
:102F30001B680193019B93426DD83468A0070DD59F
:102F40002B6899070AD4594F3A68002A4CD0564B3F
:102F50001B680393039B934238D8346862070DD5EE
:102F60002B685B070BD4524F3A68002A7ED04E4B39
:102F70001B680593059B934268D834680CB107B071
:102F8000F0BD2146162005F055FC2146172005F01E
:102F900051FC07B0F0BD052005F04CFC2B683468EF
:102FA00003F0FB032B60B8E7172005F043FC2B6808
:102FB000346803F0FD032B60ACE7162005F03AFC03
:102FC0002B68346803F0FE032B60A0E7394B172011
:102FD000D3F8941005F02EFC2B68346843F00203FC
:102FE00000222B603A60B9E7334804F083FF0C21DC
:102FF000324807F083FA304804F07CFFFF211720A5
:1030000005F018FC284B2E4A1968029102991268A3
:103010000A443A609CE7274B1620D3F8941005F039
:1030200009FC2B68346843F0010300222B603A60EE
:1030300084E7FF21162005F0FDFB1B4B204A196891
:103040000091009912680A443A6071E7194B052013
:10305000D3F8941005F0EEFB2B68346843F00403BA
:1030600000222B603A60002C89D18AE7124804F0D4
:1030700041FF0C21134807F041FA0F4804F03AFFD2
:10308000FF21052005F0D6FB074B0D4A1968049176
:10309000049912680A443A606AE700BFDC94FF1F93
:1030A000FC93FF1F7494FF1FD8B6FF1F7894FF1F77
:1030B0007C94FF1F3C93FF1FC887FF1F84060100FD
:1030C0006887FF1F940601002DE9F047544EDFF892
:1030D0007481DFF874913068524D00220F2104F0A2
:1030E0004DF90023012222214F48C8F80030C9F8C9
:1030F000002007F003FAD8F80030132B22DC40F64A
:10310000E44700213068B5F884A004F089F9002173
:103110000446306804F00AF9A4B2012107FB04F464
:10312000B4FBF0F441485444A5F8844007F0E6F9B4
:10313000642005F03BFDD8F800300133132BC8F8AC
:103140000030DEDDB5F88430394A3A48A2FB03127C
:103150009B1A02EB5303C3F30F131946A5F88430EF
:1031600004F018FF1D21344807F0C8F90221334844
:1031700007F0C4F92F4804F0BDFE00231A460E21C3
:103180003068C8F8003004F0F9F8022322212648FC
:10319000C9F8003007F0B2F9D8F80030132B22DC60
:1031A00040F6E44700213068B5F8869004F038F91D
:1031B00000210446306804F0B9F8A4B2012107FBED
:1031C00004F4B4FBF0F419484C44A5F8864007F029
:1031D00095F9642005F0EAFCD8F800300133132B90
:1031E000C8F80030DEDDB5F88630114A1148A2FB80
:1031F00003129B1A02EB5303C3F30F131946A5F8EE
:10320000863004F0C7FE1D210D4807F077F9022132
:103210000A4807F073F90748BDE8F04704F06ABEB2
:10322000B494FF1F3C93FF1FA4060100E8060100B1
:1032300087611886C887FF1FC8060100EC100100CF
:10324000EC0601009894FF1F5087FF1FA64B2DE945
:10325000F0411B68A54CA64D40F251310822216077
:10326000E271286D002B40F0EE8008F029FB6969BF
:10327000064608F079FB9F499D4F08F075FB08F062
:103280005FFD80B2031263729B4A9C4B12681B68FD
:10329000A969A37215121B12E3722273207265735F
:1032A000304608F061FB9349904D08F05DFB08F053
:1032B00047FD83B21A1229469148A373E27303F0C3
:1032C0007FFE904B904A1B681288A272DEB206EB1A
:1032D0008601267203EB8306490046F3D71640F2B7
:1032E000553E12124FF000081B12217366732946D7
:1032F00008268348C4F800E0E2726372E67184F83D
:103300000E8084F80F8003F05BFE40F256337F4856
:103310002360E671FDF770FC7D4908F025FB08F09D
:103320000FFD20727948FDF767FC794908F01CFB16
:1033300008F006FD774A7649C0F3072363721068E8
:1033400008F0C6FB08F0D6FC40FA06F203466F48C8
:10335000E272A372FDF780FC664908F005FB08F0F5
:10336000C9FC20736948FDF777FC624908F0FCFA54
:1033700008F0C0FC294640F307236148637384F8D2
:103380000E8084F80F8003F01BFE022005F00EFC77
:10339000614A624B10785178207290786172D278CD
:1033A0001978A072987893F801E0E2722173DA78C4
:1033B000A07340F25A332946514884F80DE0E27375
:1033C0002360E67103F0FCFD554B4D481A7859789F
:1033D000227261729A78D978A272E1721A79597957
:1033E00093F806E022736173DA7984F80EE040F214
:1033F0005E332946E2732360E67103F0E1FD0220AB
:1034000005F0D4FB474B3E481A7859782272617216
:103410009A78D978A272E1721A79597993F806E00C
:1034200022736173DA79E6714FF45C732946236085
:1034300084F80EE0E27303F0C3FD3B4B1B68012BE5
:1034400006D0BDE8F08108F03BFA296A064610E78D
:103450002E48FDF783FBF96C08F07EF980462B4877
:10346000FDF7A4FB0146404608F01CFC0028E8D00C
:1034700040F2C3332548EE712B60FDF76FFBBE6C45
:10348000314608F00FFCC8B12849304608F06CFA04
:1034900008F056FC80B2031268722B7200230126DA
:1034A00004250322A672E57222736373A373E37388
:1034B0000E491348BDE8F04103F082BD1348FDF703
:1034C0004DFB1A4908F050FA08F03AFCC0F3072304
:1034D0000E482B72FDF742FB144908F045FA08F03C
:1034E0002FFC6872DAE700BF7492FF1FCC94FF1FB5
:1034F0003C93FF1F00002041AC94FF1F5892FF1F18
:1035000014B5FF1F3487FF1F3887FF1FEC94FF1F80
:103510000000C8428092FF1F3893FF1FA494FF1F32
:103520002C87FF1F5487FF1FBC94FF1F00007A44A5
:10353000F0B58A4C8A4D83B006F07AFF2368286084
:10354000042B00F08682022B4BD0082B00F09280D7
:10355000072B40F02B81332801F0348400F30683DD
:10356000312801F00784322840F08D8006F09CFF5E
:10357000002840F319817B487B4E04F04FFE08F091
:103580009FF97A4908F0F0F961230122F063226083
:103590002B601846A0F152031F2B01F2DB83DFE8FA
:1035A00013F06C0BD90BD90BD90BD90BD90BD90B49
:1035B000D90BD90BD90BD90BD90BD90BD90BD90BEB
:1035C000A403030D2B05C1059704D90BD90BD90B07
:1035D0001804D90B000DD90BD90BD90BD90BD90B6A
:1035E0005A0BA0F13102422A4DD8DFE812F0DA0678
:1035F000E606F40606075507C9064C004C004C00C9
:103600004C004C004C004C004C004C004C004C005A
:103610004C004C004C004C004C004C004C004C004A
:103620004C004C004C004C004C004C004C004C003A
:103630004C004C004C004C004C004C004C004C002A
:103640004C004C004C004C004C004C004C004C001A
:103650004C004F074C004C004C004C004C004C0000
:103660004C004C004C004C004C004C004C00C5027F
:103670004C004707322800F00683712800F07C8256
:10368000312800F01B83002B08BF73280CBF0120DA
:103690000020002860D0334804F02CFC042134487A
:1036A00006F02CFF2F4804F025FC1021314806F0CD
:1036B00025FF2C4804F01EFC13212F4806F01EFFA6
:1036C0002E4B2848196804F065FC264804F012FCCB
:1036D00014212B4806F012FF224804F00BFC1E2197
:1036E000284806F00BFF1F4804F004FC152126486B
:1036F00006F004FF1B4804F0FDFB1E21234806F0E2
:10370000FDFE184804F0F6FB2021214806F0F6FEE5
:10371000144804F0EFFB19211E4806F0EFFE114893
:1037200004F0E8FB12211C4806F0E8FE0D4804F006
:10373000E1FB0F21194806F0E1FE0A4804F0DAFB2C
:103740000D21174806F0DAFE064804F0D3FB154AAF
:10375000002101231160236003B0F0BD9092FF1F90
:103760007C92FF1FC887FF1F3C93FF1F6F12833A95
:10377000680F0100700F0100840F01002487FF1FF4
:10378000980F0100B00F0100D00F0100E80F0100F9
:10379000081001002C100100481001005C1001000D
:1037A0006C1001003C87FF1F23682868062B40F03F
:1037B0008D80A0F13102402A3FF665AF01A151F89A
:1037C00022F000BF87420000B34200005B430000CC
:1037D000DF42000005430000234300004743000090
:1037E00087360000873600008736000087360000E5
:1037F00087360000873600008736000087360000D5
:1038000087360000873600008736000087360000C4
:1038100087360000873600008736000087360000B4
:1038200087360000873600008736000087360000A4
:103830008736000087360000873600008736000094
:103840008736000087360000873600008736000084
:103850008736000087360000873600008736000074
:103860008736000087360000873600008736000064
:103870008736000087360000873600008736000054
:103880008736000087360000873600008736000044
:103890008736000087360000873600008736000034
:1038A0008736000087360000873600008736000024
:1038B0008736000087360000873600008736000014
:1038C00087360000793B000023682868052B15D156
:1038D000332801F0A08240F35481352801F085821D
:1038E000C1F2BB8271287FF4CEAEB14A00237320AF
:1038F000136023602860C6E623682868032B40F025
:10390000A480A0F13002422A3FF6BDAE01A151F8D9
:1039100022F000BF213A0000DF4A0000554A0000B3
:103920007D4A00009F4A00000F4A0000A74B00009C
:10393000CF4B0000ED4B0000114C0000873600001B
:103940008736000087360000873600008736000083
:103950008736000087360000873600008736000073
:103960008736000087360000873600008736000063
:103970008736000087360000873600008736000053
:103980008736000087360000873600008736000043
:103990008736000087360000873600008736000033
:1039A0008736000087360000873600008736000023
:1039B0008736000087360000873600008736000013
:1039C0008736000087360000873600008736000003
:1039D0008736000087360000374A0000B9450000EE
:1039E000394C0000C14A0000494B0000674B000001
:1039F0006F450000934500008736000087360000C1
:103A000087360000873600008736000087360000C2
:103A10008736000087360000074B0000134B00007C
:103A200006F042FD002841F39E816248624E04F098
:103A3000F5FB012703460146622260487365276053
:103A40002A60FDF7DBF823682868012B7FF41BAEA2
:103A5000A0E5A0F13002412A3FF615AE01A151F8D0
:103A600022F000BF57450000B9440000D1440000D7
:103A7000D5440000FB4400002145000045450000FE
:103A80003D45000041450000FF440000873600002E
:103A90008736000087360000873600008736000032
:103AA0008736000087360000873600008736000022
:103AB0008736000087360000873600008736000012
:103AC0008736000087360000873600008736000002
:103AD00087360000873600008736000087360000F2
:103AE00087360000873600008736000087360000E2
:103AF00087360000873600008736000087360000D2
:103B000087360000873600008736000087360000C1
:103B100087360000873600008736000087360000B1
:103B200087360000873600008736000087360000A1
:103B30008736000087360000873600008736000091
:103B40008736000087360000873600008736000081
:103B50008736000087360000873600008736000071
:103B60008736000087360000793B0000342801F0DA
:103B7000178171287FF487AD0023732023602860AC
:103B800081E5312801F0588132287FF47CAD06F0C0
:103B90008BFC00287FF7B0AE0648074E04F03EFBD2
:103BA00001226B23C6F8980022602B600AE000BF58
:103BB0009094FF1FC887FF1F3C93FF1FEC94FF1FCB
:103BC00006F036FC06F070FC0028F9D1A64804F097
:103BD00091F9A54804F08EF9A34804F08BF9A248A6
:103BE00004F088F9A04804F085F921219F4806F0E7
:103BF00085FC9D4804F07EF915219D4806F07EFC69
:103C0000D6F89010984804F0C5F90221994806F0BA
:103C100075FC954804F06EF91E21974806F06EFC7D
:103C2000D6F89810904804F0B5F90321934806F0AF
:103C300065FC8D4804F05EF91E21914806F05EFC9B
:103C4000D6F89410884804F0A5F9874804F052F992
:103C50001D218C4806F052FCD6F8A010824804F0D2
:103C600099F9814804F046F91E21874806F046FC80
:103C7000D6F8A4107C4804F08DF97B4804F03AF99A
:103C80000523236068E506F00FFC002840F3F3826B
:103C900075487E4E04F0C2FA07F012FE7C4907F028
:103CA00063FE96F84010034602467A487364FCF7B8
:103CB000A7FF01236920236028606BE406F0F4FB72
:103CC000002840F3DC826848704E04F0A7FAC0B2C6
:103CD00086F8400002288ABF0021014686F840107D
:103CE000726C6C48E3E706F0A3FB06F0DDFB0546CB
:103CF0000028F8D15C48654E04F0FCF85A4804F0FE
:103D0000F9F8594804F0F6F8574804F0F3F8564823
:103D100004F0F0F81F21604806F0F0FB524804F070
:103D2000E9F81C215D4806F0E9FB706A5C4907F080
:103D30001BFE07F06FF9009502460B464A4804F057
:103D400033F90221574806F0D9FB474804F0D2F86E
:103D50002321554806F0D2FBF06B514907F004FED1
:103D600007F058F9009502460B463F4804F01CF94D
:103D700002214C4806F0C2FB3B4804F0BBF8192175
:103D80004A4806F0BBFBB06B07F044F902250B462E
:103D900002460095344804F007F92946444806F0E5
:103DA000ADFB314804F0A6F81921424806F0A6FB05
:103DB000B6F8B4102C4804F0EDF803213E4806F0A4
:103DC0009DFB294804F096F807232360C4E406F01D
:103DD0002FFB06F069FB05460028F8D122482B4E40
:103DE00004F088F8204804F085F81F4804F082F8B1
:103DF0001D4804F07FF81C4804F07CF815212F487A
:103E000006F07CFB184804F075F818212C4806F0E1
:103E100075FB2B460A2296F84010134804F07AF8F6
:103E2000114804F067F82821264806F067FB706CFB
:103E30001B4907F099FD07F0EDF800950B46024687
:103E4000094804F0B1F80221164806F057FB06486D
:103E500004F050F813211C4806F050FB024804F00F
:103E600049F80823236077E4C887FF1F9C090100F5
:103E7000C0090100AC080100D8090100D00501000B
:103E8000F8090100180A0100380A01003C93FF1FDD
:103E90006F12833AEC94FF1FF80801001809010023
:103EA00000007A4484070100380901005C09010020
:103EB000780901007C090100980901003010010017
:103EC0003C070100580701008807010006F0B0FA1E
:103ED00006F0EAFA05460028F8D17D487D4E04F048
:103EE00009F87B4804F006F8794804F003F87848AC
:103EF00004F000F8764803F0FDFF1121764806F043
:103F0000FDFA734803F0F6FF2821744806F0F6FA2C
:103F10007069734907F028FD07F07CF800950246A8
:103F20000B466B4804F040F802216E4806F0E6FAB2
:103F3000674803F0DFFF16216B4806F0DFFAF069EF
:103F4000674907F011FD07F065F800950B4602463A
:103F50005F4804F029F80221624806F0CFFA5C4875
:103F600003F0C8FFD6F8AC30002B32DD1D215F48CE
:103F700006F0C4FAF06D07F0A3FC5D4907F0F4FC0D
:103F800007F048F8022502460B460095504804F019
:103F90000BF80121574806F0B1FA4D4803F0AAFF8B
:103FA0001F21554806F0AAFA306E07F089FC5049E7
:103FB00007F0DAFC07F02EF8009502460B4644485D
:103FC00003F0F2FF01214B4806F098FA404803F055
:103FD00091FF1121494806F091FAD6F8AC30052B33
:103FE00000F26886DFE813F0AC06B106A706A20669
:103FF0009D06620606F01CFA06F056FA0028F9D172
:104000003348344E03F076FF314803F073FF3048F5
:1040100003F070FF2E4803F06DFF2D4803F06AFF98
:104020001F21374806F06AFA294803F063FF1E2172
:10403000344806F063FA264803F05CFF1A21324840
:1040400006F05CFAF36F022B00F06D87032B00F093
:104050006187012B00F0558709212C4806F04EFAA4
:104060001B4803F047FF142129481A4F06F046FA6F
:10407000B16F174803F08EFF154803F03BFF1C217A
:10408000244806F03BFAD6F88010114803F082FF6E
:104090000F4803F02FFF1C211F4806F02FFAD6F817
:1040A000A8100B4803F076FF094803F023FFF56FD3
:1040B00025F00205012D00F0F4861321174806F0C3
:1040C0001DFA034803F016FF02232360FFF744BBE9
:1040D000C887FF1F3C93FF1FD40F01009C070100FE
:1040E00000007A4484070100C8070100E0070100CE
:1040F000CDCCCC3DBC0C0100000801002008010023
:104100007C0B01009C0B0100BC0B0100340C010076
:10411000400C0100580C0100780C010088070100D8
:1041200006F086F906F0C0F90028F9D1BA48BB4D6F
:1041300003F0E0FEB84803F0DDFEB74803F0DAFE16
:10414000B54803F0D7FEB44803F0D4FE1321B448B9
:1041500006F0D4F9B04803F0CDFE0D21B14806F0C9
:10416000CDF9AD4803F0C6FE0F21AF4806F0C6F901
:10417000AE4BA948196803F00DFFA74803F0BAFE3B
:104180001321AB4806F0BAF9AA4BA348196803F00B
:1041900001FFA14803F0AEFE1221A74806F0AEF9D8
:1041A000A64B9D48196803F0F5FE9B4803F0A2FE5C
:1041B0001121A34806F0A2F9A24B9748196803F011
:1041C000E9FE954803F096FE0E219F4806F096F909
:1041D000D5F89C10904803F0DDFE8F4803F08AFE6E
:1041E00019219A4806F08AF9994B8B48196803F00F
:1041F000D1FE894803F07EFE1121964806F07EF933
:10420000954B8548196803F0C5FE834803F072FE9C
:104210001021924806F072F9914B7F48196803F01B
:10422000B9FE7D4803F066FE1C218E4806F066F953
:104230008D4B7948196803F0ADFE774803F05AFEBC
:104240001E218A4806F05AF995F8BD30002B00F07F
:1042500017860D21864806F051F96F4803F04AFE93
:104260001321844806F04AF96B4803F043FE042307
:104270002360FFF771BA23682868FFF769B9674EB2
:1042800096F8400026E506F00FF900287FF71CABF2
:104290006148624E03F0C2FF07F012FB764907F057
:1042A00017FC65230122706122602B601846FFF71E
:1042B00071B906F0F9F800287FF706AB5648574E5B
:1042C00003F0ACFF07F0FCFA6B4907F001FC652333
:1042D0000122F06122602B601846FFF75BB906F0FF
:1042E000E3F800287FF7F0AA4B484C4E03F096FF06
:1042F00000EB8000430001226520336622602860C5
:10430000FFF748B9454AD2F8AC300133052BC8BF96
:104310000023C2F8AC300123652023602860FFF73A
:1043200039B906F0C1F800287FF7CEAA3A483B4ECB
:1043300003F074FF65230122C6F8B00022602B60F1
:104340001846FFF727B9354B93F8BC20002A00F038
:104350009285002283F8BC20DDE706F0A5F800284E
:104360007FF7B2AA2C482D4E03F058FF00EB8000D7
:10437000430001226520F36522602860FFF70AB937
:104380000123236006F090F8002805DD2248234E23
:1043900003F044FFA6F8B600632028602368FFF707
:1043A000D7B81E4EB36FB3FA83F35B0901226320C3
:1043B000B36722602860FFF7EDB8184ED6F880305A
:1043C000B3FA83F35B0901226320C6F880302260D0
:1043D0002860FFF7DFB80123236006F065F80028A6
:1043E00005DD0D480D4E03F019FFC6F8A8000123A6
:1043F000632023602860FFF7CDB80123236006F017
:1044000053F80028C8DD0448044E03F007FF07F006
:1044100057FAC6F88C00BFE7C887FF1F3C93FF1F01
:10442000580A01006C0A01007C0A01007094FF1F09
:104430008C0A0100E094FF1FA00A0100C494FF1F32
:10444000B40A0100C894FF1FC80A0100D80A01007D
:104450009494FF1FF40A01009094FF1F080B0100C1
:104460007892FF1F1C0B01005C87FF1F3C0B0100B3
:104470005C0B01008807010000007A44564AD36FA4
:104480000133032BC8BF0023D367B0E7FEF71CFE40
:1044900023682868FFF759B80123236006F004F861
:1044A00000287FF779AF4D484B4E03F0B7FE07F079
:1044B00007FAC6F888006FE7494A1368B3FA83F32E
:1044C0005B0901216420136021602860FFF762B856
:1044D000444AF2E7444A454F1368002B0CBF0123BE
:1044E00000234FF001001360206040F02585034653
:1044F00064222A606420FFF728B83D4ADDE70123E3
:10450000236005F0D1FF002800F3C384394B1A68FB
:10451000042AC4BF02221A6064232B602368E9E7DF
:104520002D4ED6F89C30B3FA83F35B090122642048
:10453000C6F89C3022602860FFF72CB82E4ABCE7F2
:104540002E4ABAE701232E482360FCF76BFA2D4A66
:1045500023681060CCE7204E96F8BD30012253400E
:10456000642086F8BD3022602860FFF713B805F09C
:104570009BFF00280DDD1948174E03F04FFE07F092
:104580009FF9214907F0A4FA0122622330622260D8
:104590002B6005F089FF00280EDD10480E4E03F059
:1045A0003DFE07F08DF9184907F092FA01226223C7
:1045B000C6F8B80022602B6005F076FF002840F3B3
:1045C000D2830648044E03F029FE01226223B0661E
:1045D00022602B601CE000BF3C93FF1FC887FF1FB9
:1045E0007094FF1FE094FF1FC494FF1F9092FF1F61
:1045F000C894FF1F5C87FF1F9094FF1F7892FF1FD6
:10460000EC94FF1F9494FF1F00007A4405F010FF04
:1046100005F04AFF05460028F8D1C24803F06AFCBD
:10462000C04803F067FCBF4803F064FCBD4803F0DA
:1046300061FCBC4803F05EFC1521BB4805F05EFF41
:10464000B84803F057FC1421B84805F057FFB548A7
:1046500003F050FC1B21B64805F050FFB14803F0B1
:1046600049FC1321B34805F049FFAE4803F042FC72
:10467000AC4803F03FFCAB4803F03CFC2021AE48C3
:1046800005F03CFFF068AD4907F06EF906F0C2FC9A
:10469000009502460B46A34803F086FC0221A84879
:1046A00005F02CFF0221A74805F028FF9D4803F0E4
:1046B00021FC2121A44805F021FF30699F4907F022
:1046C00053F906F0A7FC009502460B46954803F007
:1046D0006BFC02219A4805F011FF0221994805F070
:1046E0000DFF904803F006FC1F21984805F006FFD7
:1046F000B06A06F08FFC022702460B4600978948F5
:1047000003F052FC0121924805F0F8FE39468D482D
:1047100005F0F4FE834803F0EDFB20218D4805F001
:10472000EDFEF06A06F076FC009702460B467D48E7
:1047300003F03AFC0121864805F0E0FE3946814845
:1047400005F0DCFE774803F0D5FB2321824805F015
:10475000D5FEB06C794907F007F906F05BFC0095CF
:1047600002460B466F4803F01FFC3946744805F0BB
:10477000C5FE3946734805F0C1FE6A4803F0BAFB2E
:104780001F21764805F0BAFEF06C6C4907F0ECF892
:1047900006F040FC009502460B46624803F004FC1C
:1047A0003946674805F0AAFE3946664805F0A6FE78
:1047B0005C4803F09FFB1921694805F09FFEB16D2D
:1047C000584803F0E7FB3946664805F097FE39463E
:1047D0005C4805F093FE534803F08CFB18216248B7
:1047E00005F08CFE706E07F06BF8604907F0BCF8BE
:1047F00006F010FC009702460B464A4803F0D4FB33
:1048000001215B4805F07AFE39464E4805F076FEF8
:10481000444803F06FFB2B21564805F06FFEB0694A
:10482000464907F0A1F806F0F5FB009502460B4655
:104830003C4803F0B9FB3946414805F05FFE394674
:10484000404805F05BFE374803F054FB1F214A48FF
:1048500005F054FE716D334803F09CFB394639482E
:1048600005F04CFE2F4803F045FB2021434805F09E
:1048700045FE316D2B4803F08DFB3946314805F07C
:104880003DFE284803F036FB10213D4805F036FE7A
:10489000B16E244803F07EFB3946294805F02EFE10
:1048A0003946284805F02AFE1E4803F023FB132151
:1048B000344805F023FEF16E1A4803F06BFB01212A
:1048C000314805F01BFE39461E4805F017FE154815
:1048D00003F010FB10212D4805F010FE316F114838
:1048E00003F058FB3946164805F008FE39461548CE
:1048F00005F004FE0B4803F0FDFA1421244805F0EE
:10490000FDFD716F074803F045FB01211E4805F0CE
:10491000F5FD39460B4805F0F1FD024803F0EAFACF
:10492000162137E0C887FF1F040D01001C0D010090
:10493000340D010088070100500D010000007A4489
:1049400084070100EC100100740D0100980D0100B6
:10495000B80D0100BC0D0100E00D0100040E0100C6
:10496000240E0100400E0100440E0100CDCCCC3DD0
:10497000BC0C0100600E01008C0E0100AC0E0100A9
:10498000D00E0100E40E0100F80E0100FC0E010043
:10499000100F0100BA4805F0B1FD306AB94906F0C0
:1049A000E3FF06F037FB009502460B46B64803F0DE
:1049B000FBFA3946B54805F0A1FD3946B44805F083
:1049C0009DFDB14803F096FA2421B24805F096FD0A
:1049D000D6F8B800AB4906F0C7FF06F01BFB009500
:1049E0000B460246A84803F0DFFA3946A74805F00F
:1049F00085FD3946A64805F081FDA34803F07AFA03
:104A0000A14803F077FA03232360FEF7A5BE05F063
:104A10004BFD002840F3A7819B489F4E03F0FEFB0F
:104A200006F04EFF974907F053F801226223B06465
:104A300022602B60ECE505F037FD002840F3938100
:104A40009148954E03F0EAFB012262233065226013
:104A50002B60DDE505F028FD002840F384818A48BD
:104A60008D4E03F0DBFB06F02BFF864907F030F894
:104A700001226223306122602B60C9E505F014FD3C
:104A8000002840F370818048834E03F0C7FB06F096
:104A900017FF01226223B06222602B60B8E505F0A7
:104AA00003FD002840F35F8177487B4E03F0B6FB9F
:104AB00006F006FF01226223F06222602B60A7E568
:104AC00005F0F2FC002840F34E816F48724E03F06F
:104AD000A5FB01226223306722602B6098E505F078
:104AE000E3FC002840F33F8167486B4E03F096FBE0
:104AF00006F0E6FE634906F0EBFF01226223F06058
:104B000022602B6084E50022732322602B60FEF775
:104B1000C2BD624B5E48604E002202211A6005F061
:104B2000EDFC594803F0E6F90B215D4805F0E6FC81
:104B30000221574805F0E2FC534803F0DBF901225B
:104B4000622322602B6063E505F0AEFC002840F391
:104B50000A814D48504E03F061FB012262237067C9
:104B600022602B6054E5FCF73FFF022148484A4E83
:104B700005F0C4FC444803F0BDF90221444805F0A7
:104B8000BDFC414803F0B6F90221414805F0B6FCEE
:104B90003D4803F0AFF91721424805F0AFFC3A4811
:104BA00003F0A8F9C4E705F07FFC002840F3DB80A0
:104BB0003548394E03F032FB06F082FE314906F0EB
:104BC00087FF01226223F06422602B6020E505F05C
:104BD0006BFC002840F3C7802B482F4E03F01EFBD0
:104BE00001226223B06522602B6011E505F05CFCB8
:104BF000002840F3B8802448274E03F00FFB00EB59
:104C00008000430001216222736621602A60FFE474
:104C100005F04AFC002840F3A6801B481E4E03F016
:104C2000FDFA06F04DFE174906F052FF01226223FD
:104C3000B06122602B60EBE405F036FC002840F305
:104C400092801148144E03F0E9FA01226223F066C3
:104C500022602B60DCE4C02200210F4803F0D2FB6D
:104C60002868114AA0F1730001210023B0FA80F0F6
:104C7000400911602360FEF70CBD04F0A7FD00BFE2
:104C8000280F010000007A44C887FF1F8407010035
:104C9000EC100100400F01003C93FF1F6C92FF1FBE
:104CA00030070100180701003C87FF1F0B21C04897
:104CB00005F024FCBF48C04D03F01CF9D6F8AC3019
:104CC000002B12DD1821BD4805F018FCD5F8B010F6
:104CD000B84803F05FF90221B94805F00FFCB54868
:104CE00003F008F9B34803F005F91B21B54805F0B6
:104CF00005FC96F8BC30012B15BF12211421B248D7
:104D0000B24805F0FBFBAB4803F0F4F81321B048C0
:104D100005F0F4FBA74803F0EDF806232360FEF747
:104D20001BBD0D21AB4805F0E9FBC3E70D21AA48E7
:104D300005F0E4FBBEE70C21A84805F0DFFBB9E76E
:104D40000D21A74805F0DAFBB4E70C21A54805F0D2
:104D5000D5FBAFE72368002B08BF73280CBF0120E9
:104D60000020FEF796BC23682868012B7EF48BACEC
:104D7000FEF710BC05F098FB00287EF715AD8D48B6
:104D80008D4E03F04BFA06F09BFD974906F0ECFDC3
:104D900061230122706222602B601846FEF7FABB85
:104DA00005F082FB00287EF7FFAC8248824E03F0BC
:104DB00035FA61230122A6F8B40022602B60184660
:104DC000FEF7E8BB05F070FB00287EF7EDAC7948F4
:104DD000794E03F023FA06F073FD61230122B063DC
:104DE00022602B601846FEF7D5BB05F05DFB00285E
:104DF0007EF782AD6F48704E03F010FA7B4BC6F819
:104E0000A40003221A60FDF737F901226B23226008
:104E10002B60FEF7D7BE05F047FB00287EF76CAD90
:104E20006448654E03F0FAF901226B23C6F894003A
:104E300022602B60FEF7C6BE05F036FB00287EF729
:104E40005BAD5C485C4E03F0E9F901226B23C6F8C8
:104E5000900022602B60FEF7B5BE05F025FB002810
:104E60007EF74AAD5348544E03F0D8F95F4BC6F86D
:104E7000A0000222C6E7012283F8BC20FFF74BBA4C
:104E80000E215B4805F03AFB4A4803F033F8FFF780
:104E9000E7B9484803F0C2F9564B02461860FFF7DD
:104EA00037BB1C21544805F029FBD7F88C00534927
:104EB00006F05AFD06F0AEF8009502460B463D4856
:104EC00003F072F805214E4805F018FB394803F04D
:104ED00011F8FD6F012D45D0032D7FF4EEA81C21A4
:104EE000484805F00BFBB6F8B610324803F052F80C
:104EF0000321454805F002FB2E4802F0FBFFFFF7B7
:104F0000DCB81E21414805F0F9FA2A4802F0F2FF08
:104F1000FFF7A9B820213E4805F0F0FA254802F035
:104F2000E9FFFFF7A0B817213A4805F0E7FA214852
:104F300002F0E0FFFFF797B8374B002631460B2011
:104F40001E6003F0F7FD31460C2003F0F3FD3146FF
:104F5000142003F0EFFD3146152003F0EBFD3B6814
:104F6000FFF7C6BA1D212D4805F0C8FAD7F888000A
:104F7000224906F0F9FC06F04DF800950B46024672
:104F80000C4803F011F805211D4805F0B7FA09484F
:104F900002F0B0FFFB6F23F00203012B9FD0FFF75D
:104FA0008CB8054EFEF70EBE034EFFF731BB00BFB7
:104FB00084080100C887FF1F3C93FF1F9008010071
:104FC000AC080100B0080100CC080100E0080100B5
:104FD00088070100740801006408010054080100FA
:104FE00034080100440801006F12833A9094FF1FB7
:104FF0006C0B01005C87FF1F980C0100CDCCCC3DF1
:10500000B80C0100E00C0100000D0100D80B0100FC
:10501000F80B01001C0C0100DC94FF1FC00C010008
:1050200038B5164C164A2368101D12F8011F90421D
:1050300041EA0323F9D12360124C03F100432360BA
:10504000114BDB6F022B11D0104B1B68012B00D0D2
:1050500038BD0F4802F04EFF21680D4802F09AFF5C
:1050600003210C48BDE8384005F048BA20680A4DD5
:1050700006F026FC2860FDF7C9FAE5E75092FF1F0D
:105080008794FF1FA894FF1F3C93FF1F7094FF1F7E
:10509000C887FF1F7C1001007092FF1F30B53C4C89
:1050A0003C4883B0214601F083FE236840F2C232BF
:1050B000934252D0A3F58C621F2A48D9A3F5FC6312
:1050C0000F2B3FD9344B1B68012B01D003B030BDEF
:1050D000324B1B68012BF9D1314B32481B680193CD
:1050E0000A220023019902F015FF2268284B002AAA
:1050F000DB7945DB2C492D4807F0FEFB2B4807F0F8
:105100003FFC0146294805F0F9F92568204B15F0C8
:10511000804526D1DB798BB1631925491A7A23485A
:1051200007F0EAFB214807F02BFC01461F4805F079
:10513000E5F90135E379EDB2AB42EDD8194802F05B
:10514000D9FEC3E712491B48FBF796FCBAE71049A2
:105150001848FBF791FC2368B0E7FFF761FF23686D
:10516000A8E7154D114C0FCD0FC495E8030044F886
:10517000040B204620F81419152105F0BFF9DDE7CE
:105180000E490A4822F0604207F0B6FBB6E700BFBE
:105190008094FF1F14B5FF1F3C87FF1F7094FF1FF3
:1051A000D8B6FF1FC887FF1FA81001009492FF1FE9
:1051B000D4100100EC94FF1FBC100100801001000E
:1051C000A24B1B78052B00F0A1802DE9F04FA04CDD
:1051D000A04EA14D626EE36DA048326083B02B609B
:1051E000FBF7A2FDE16A06F05DFD08B100232B602C
:1051F0009A48FBF797FDA16A06F072FD10B10023F3
:1052000033602B609548FBF7D1FCE16806F068FD40
:1052100008B100232B609148FBF7C8FCE16806F059
:105220005FFD08B100232B608C48894FFBF796FC8B
:10523000216906F037FD00286ED0002333602B680B
:10524000854F002B53DD8548DFF80482FBF76AFDAC
:10525000216B06F027FD002840F0C480804B7F487A
:105260001B687B4F012B00F0FD80FBF79FFCE16981
:105270008046606906F06EFA0146404606F030FD51
:10528000002834D0286806F01BFB82467348FBF7E1
:105290008DFCD7F814808346F969404606F05AFA27
:1052A0008146386E06F00CFB0446F86D06F008FBEC
:1052B000214606F04FFA49460746584606F04AFA94
:1052C0000146384606F050FB49460746404606F080
:1052D00041FA0146384606F0FBFB214606F03CFA4F
:1052E0000146504606F036FA06F004FD28603368A1
:1052F000584A002BAFBF2B682B6800211160002B90
:1053000001DA00232B6003B0BDE8F08F5149524A07
:1053100000230B60136070475048FBF71FFCB9690E
:1053200006F0C0FC002888D13368DFF82891002BF4
:1053300085DD4A48FBF7F8FC796B06F0D1FC0028C4
:1053400040F0B3804548424FFBF708FC216906F066
:10535000C7FC002800F09F804048DFF8F480FBF78E
:10536000FDFBD4F8B8100746A06906F0F5F9014630
:10537000384606F097FC00283FF461AF306806F02D
:105380009FFA82463548FBF7E9FB8346D8F85C0074
:10539000D8F8187006F094FA39468146584606F057
:1053A000D9F949468346002006F0D4F9014658460B
:1053B00006F0DAFAD8F8B8108346384606F0CCF989
:1053C000394606F0C7F90146584606F081FB4946C2
:1053D00006F0C2F90146504606F0BCF906F08AFC18
:1053E00030602CE7386806F06BFA83461B48FBF701
:1053F00099FC0190D8F85C00D8F82CA006F060FA6F
:10540000019B81465146184606F0A4F94946019091
:10541000002006F09FF9019B0146184606F0A4FA09
:1054200051460190D8F8300006F094F9019B0146EE
:10543000184606F04DFB494606F08EF901465846DF
:1054400006F088F906F056FC386007E7A094FF1FC5
:105450003C93FF1FAC94FF1F5892FF1FEC94FF1F5B
:105460007492FF1FFBF7A2FBE1698046206A06F0F9
:1054700071F90146404606F033FC00283FF437AF8F
:10548000286806F01DFA82461E48FBF78FFBD7F806
:105490002080834600E71B48FBF760FBB96906F0F4
:1054A0001FFC00287FF458AFC9E6D9F8000006F0C9
:1054B00007FA82461348FBF737FC0190786ED7F85D
:1054C000348006F0FDF9019B83464146184606F0FC
:1054D00041F90146584606F047FA41468346B86A04
:1054E00006F038F90146584606F0F2FA002106F0B7
:1054F00033F90146504606F02DF906F0FBFBC9F8DA
:1055000000001FE7EC94FF1F08B5274802F0F2FCEB
:105510000721264804F0F2FF112003F011FB0621B9
:10552000F8B1234804F0EAFF122003F009FB06213A
:1055300000B3204804F0E2FF122003F001FB062133
:1055400008B31D4804F0DAFF132003F0F9FA06212E
:1055500010BB1A4804F0D2FF1348BDE8084002F01F
:10556000C9BC174804F0CAFF122003F0E9FA06216B
:105570000028DED1134804F0C1FF122003F0E0FA46
:1055800006210028DDD1104804F0B8FF132003F0F5
:10559000D7FA06210028DCD00C4804F0AFFF0248FF
:1055A000BDE8084002F0A6BCC887FF1FE01001005C
:1055B000E8100100F810010008110100201101009D
:1055C000F01001000011010010110100181101007C
:1055D00010B5254C2368042B27DC01210B2003F098
:1055E000A9FA01210C2003F0A5FA0121142003F0EF
:1055F000A1FA0121152003F09DFAFF21162003F0E6
:1056000019F9FF21172003F015F9FF21052003F0F8
:1056100011F9FF21062003F00DF9236801330A2B4D
:105620002360C4BF0023236010BD00210B2003F0C2
:1056300081FA00210C2003F07DFA0021142003F0F0
:1056400079FA0021152003F075FA0021162003F0E5
:10565000F1F80021172003F0EDF80021052003F0F8
:10566000E9F80021D6E700BFE494FF1F30B59F4C56
:1056700094F8BD5083B0002D00F0148109219C489E
:1056800003F074FD222003F019FD9A4B1B78052BC3
:105690000BD8DFE813F057025C0261024D025202A0
:1056A00006000721944803F061FD222003F006FD67
:1056B000FF2003F003FDFF2003F000FD8F4CFF20CF
:1056C00003F0FCFC08218E4803F050FD21688D4852
:1056D00002F060FCFF2003F0F1FCFF2003F0EEFC81
:1056E000FF2003F0EBFC0921874803F03FFD216810
:1056F000844802F04FFCFF2003F0E0FCFF2003F0A1
:10570000DDFCFF2003F0DAFC0C21804803F02EFDC5
:105710007F4B1C680021204606F0E2FA002800F0CA
:10572000048220467B4906F0D3F905F073FC00247F
:1057300002460B460094734802F036FCFF2003F04B
:10574000BDFCFF2003F0BAFCFF2003F0B7FC0921E9
:10575000714803F00BFD7148FBF77EFA05F05AFC27
:10576000009402460B46674802F01EFCFF2003F03F
:10577000A5FCFF2003F0A2FCFF2003F09FFC0C21FE
:10578000674803F0F3FC6548FBF7CEFA05F042FCEE
:10579000009402460B465B4802F006FCFF2003F033
:1057A0008DFCFF2003F08AFCFF2003F087FC0D2115
:1057B0005C4803F0DBFC5948FBF7B4FA05F02AFC1F
:1057C000009402460B464F4802F0EEFBFF2003F028
:1057D00075FCFF2003F072FCFF2003F06FFC092131
:1057E000514803F0C3FC4D48FBF706FA05F012FCE4
:1057F000009402460B46434802F0D6FBFF2003F01C
:105800005DFCFF2003F05AFCFF2003F057FC0C2145
:10581000464803F0ABFC4148FBF7A0F93D4906F0D0
:10582000A3F805F0F7FB009402460B46354802F05A
:10583000BBFBFF2003F042FCFF2003F03FFCFF20F6
:1058400003F03CFC0D213A4803F090FC3348FBF791
:10585000ADF9304906F088F805F0DCFB009402460B
:105860000B46284802F0A0FBFF2003F027FCFF2096
:1058700003F024FCFF2003F021FC09212D4803F054
:1058800075FC2D4B1F48196802F084FBFF2003F0C4
:1058900015FCFF2003F012FCFF2003B0BDE83040F0
:1058A00003F00CBC174802F025FB164802F022FB5F
:1058B000144802F01FFB0D21204803F057FCD4F8D8
:1058C0009C30012B3CD00B4C0E4821782B460A22F1
:1058D00002F020FB2378052B00F28880DFE813F02C
:1058E0005A01550150014B01460141013C93FF1FF4
:1058F00028110100A094FF1F540501003487FF1FE9
:1059000034110100AC87FF1F401101004C11010050
:105910008092FF1F00007A445C110100EC94FF1F8D
:105920006811010078110100881101009411010033
:10593000A4110100B41101002487FF1F8404010099
:105940000921B64803F012FCB548FBF707F92169B5
:1059500006F0A8F9002840F04581B148FBF726F988
:10596000E16806F0BDF9002840F03781AC48FBF74C
:105970001DF90546AA48FBF7F1F80146284605F04F
:10598000E9FEE16B06F0ACF9002840F02181A44863
:10599000FBF762F9A16A06F0A3F9002840F0138131
:1059A0009F48FBF759F9E16A06F07CF9002840F0BE
:1059B00005819C4B9A481B68012B00F01881FBF76E
:1059C000CDF82169984D06F08BF978B19448FBF732
:1059D000EDF8E96806F066F940B1944B1B78052BA9
:1059E00000F016810821924803F0C0FB0221914883
:1059F00003F0BCFB122003F0A3F8012800F0CF80D5
:105A0000112003F09DF8012800F0D3808A4B1B6819
:105A1000012B00F0C98002218648884C03F0A6FBC8
:105A2000874B8848196802F0B5FA864802F062FA96
:105A30000421854803F09AFB0B2003F081F8002332
:105A400001460A227F4802F065FA0C2003F078F83C
:105A5000002301460A227B4802F05CFA142003F07E
:105A60006FF8002301460A22764802F053FA152007
:105A700003F066F80A2200230146724802F04AFA4F
:105A80007248062103F072FB2368DD074CBF7048A3
:105A90007048012103F06AFB236898074CBF6C48EB
:105AA0006C48012103F062FB23685A074CBF684829
:105AB0006848012103F05AFB23681B074CBF644868
:105AC0006448012103F052FB0421634803F04EFBBC
:105AD000112003F035F8002301460A22594802F04C
