:1000000000800020BD010000E98E0000A18E0000EC
:10001000A18E0000A18E0000A18E0000A18E000024
:10002000A18E0000A18E0000A18E0000E98E0000CC
:10003000E98E0000A18E0000B1830000B5840000AD
:10004000E98E0000E98E0000E98E0000E98E0000D4
:10005000E98E0000E98E0000E98E0000E98E0000C4
:10006000E98E0000E98E0000E98E0000E98E0000B4
:10007000E98E0000E98E0000E98E0000E98E0000A4
:10008000E98E0000E98E0000E98E0000E98E000094
:10009000E98E0000E98E0000E98E0000E98E000084
:1000A000E98E0000E98E0000E98E0000E98E000074
:1000B000E98E0000857700009177000095770000B9
:1000C000A1770000A5770000A9770000E98E000065
:1000D000E98E0000E98E0000E98E0000E98E000044
:1000E000E98E0000E98E0000E98E0000E98E000034
:1000F000E98E0000E1B30000E98E0000DD9B000006
:10010000E98E000061A10000E98E0000E98E000088
:10011000E98E0000E98E0000E98E0000E98E000003
:10012000E98E0000E98E0000E98E0000E98E0000F3
:10013000E98E0000E98E0000E98E0000E98E0000E3
:10014000E98E0000E98E0000E98E0000E98E0000D3
:10015000E98E0000E98E0000E98E0000E98E0000C3
:10016000E98E0000EDA30000E98E0000E98E00009A
:10017000E98E0000E98E0000E98E0000E98E0000A3
:10018000E98E0000E98E0000E98E0000E98E000093
:10019000E98E0000E98E0000E98E0000E98E000083
:1001A000E98E0000E98E0000E98E0000E98E000073
:1001B000E98E0000E98E0000E98E0000564B4CF2FB
:1001C000205210B51A804DF628121A8000BF00BFC9
:1001D00008F08EFE514B4FF010621A60504A9A6040
:1001E000504ADA60504A136813F4807304D14F49BF
:1001F0000B604FF4A85313604D4B1A78110703D5C9
:100200001A7842F008021A704A4B4B492A221A7097
:100210004A4A4B4B8B4204D252F8040F43F8040B6A
:10022000F8E7484B484900228B4202D243F8042B9E
:10023000FAE74649464A002352F8230041F82300D2
:1002400001336F2BF8D1434B434A802103F8011B44
:100250009342FBD1414B3D4A1A60414B8A221A70AE
:10026000A3F5805324225A70A0221A709A7992071B
:10027000FCD59A79D406FCD43A4A937903F00C035E
:10028000082B384BF9D103221A7140225A719A79FE
:100290009006FCD5334A9179324B4906FBD5324A58
:1002A000324911600221516020221A709A7902F0BD
:1002B0000C020C2AFAD12E4B2E4A1A602E4B2F4AD2
:1002C0001A6000225A60072243F8042C2C4AC3F813
:1002D0000C2D62B609F0ECF8144B1B68DA0705D553
:1002E000284808F0C9FE284B284A1A60284B1B787A
:1002F0005B0609D5244C254B22689A4204D121483B
:1003000008F0BAFE002323600CF04CFB08F0F6FD69
:1003100008F024FDFEE700BF0E20054030800440B9
:10032000823F04000100002B10D0034014D0034092
:1003300002D0074000E007403892FF1F0427010069
:100340002087FF1F3892FF1F38BAFF1F0082FF1F50
:100350000000000000E400E05FE400E008ED00E0E1
:100360000050064000400640448004400000030165
:1003700004800440C010050014E000E0FF76010096
:1003800000002020754D865E1CE00340A5C3945AF2
:1003900000F00740FFFFFFFFFFFFFFFFFFFFFFFF32
:1003A000FFFFFFFFFFFFFFFFFFFFFFFFFFFFFFFF5D
:1003B000FFFFFFFFFFFFFFFFFFFFFFFFFFFFFFFF4D
:1003C000FFFFFFFFFFFFFFFFFFFFFFFFFFFFFFFF3D
:1003D000FFFFFFFFFFFFFFFFFFFFFFFFFFFFFFFF2D
:1003E000FFFFFFFFFFFFFFFFFFFFFFFFFFFFFFFF1D
:1003F000FFFFFFFFFFFFFFFFFFFFFFFFFFFFFFFF0D
:10040000FFFFFFFFFFFFFFFFFFFFFFFFDEF9FFFF23
:1004100010B5054C237833B9044B13B10448AFF33E
:1004200000800123237010BD3892FF1F00000000E0
:1004300000270100084B10B51BB108490848AFF36D
:1004400000800848036803B910BD074B002BFBD0A0
:10045000BDE81040184700BF000000003C92FF1F9D
:10046000002701003892FF1F00000000F0B4154F74
:100470000024031F00F1800100F5827200F17C0668
:1004800043F8044FB34241F8047F4FF0000542F8AF
:10049000044FF5D100230C4A0C49C0F88C51C0F828
:1004A0009051C0F8B051C0F8A421C0F8AC21C0F8F8
:1004B000A81180F8B83180F8B93180F8D031F0BC9B
:1004C000704700BF0000A040000048430000C8C2C1
:1004D00038B590F8D0310B2B0546144607D8702953
:1004E00066D0E02931D0602900F09B8038BD7029AA
:1004F0003AD0E02929D06029F8D1137A507A1B022A
:1005000003F47063181805D00BF0E6FF63490CF094
:1005100037F86860A37AE07A1B0203F47063181856
:1005200005D00BF0D9FF5D490CF02AF8A860237BB9
:10053000607B1B0203F470631818D7D00BF0CCFF5C
:1005400056490CF01DF8E86038BDE37BA07B03EB57
:1005500000200BF0C1FF52490CF012F851490BF08A
:1005600007FFC5F8900138BD137A507A1B0203F4D7
:10057000FE43181805D00BF0AFFF48490CF000F807
:100580006861A07AE37A13EB002005D00BF0A4FF9A
:1005900042490BF0F5FFA861207B637B13EB002041
:1005A000A4D00BF099FF3D490BF0EAFFE86138BD9C
:1005B000137A507A1B0203F47063181805D00BF0FD
:1005C0008BFF36490BF0DCFF6861A37AE07A1B02EF
:1005D000C34208D003F4706318440BF07DFF2F4929
:1005E0000BF0CEFFA861237B607B1B02C34208D0C7
:1005F00003F4706318440BF06FFF28490BF0C0FF41
:10060000E861A37BE07B1B02C3423FF46FAF03F4BE
:10061000706318440BF060FF20490BF0B1FF2862B3
:1006200038BD137A507A1B0203F4FE42C24208D04E
:1006300003F4706318440BF04FFF18490BF0A0FF50
:100640006860A37AE07A1B02C34208D003F47063A7
:1006500018440BF041FF11490BF092FFA860237B77
:10066000607B1B02C34208D003F4706318440BF094
:1006700033FF0A490BF084FFE860A37BE07B1B0299
:10068000C3423FF433AF03F4706318440BF024FF0C
:1006900002490BF075FF286138BD00BF0AD7A33AA5
:1006A000DDB504BD00001643D0F8DC01704700BF83
:1006B00090F8C001704700BF90F8BC01704700BFC0
:1006C00090F8C401704700BF90F8C801704700BFA0
:1006D000202994BF50F82100002070472DE9F041F7
:1006E0000B4E8046041F00F17C0754F8045F31462E
:1006F00028460CF0E3F830B1D8F8B41128460CF0D5
:10070000FBF800B12E46BC42EFD13046BDE8F08187
:10071000000020412DE9F041D0F8B4714FF00008FD
:10072000041F00F17C0654F8045F394628460CF09B
:10073000E3F8084948B128460CF0C0F8414620B11A
:1007400028460CF0D9F800B1A846B442EBD1404697
:10075000BDE8F0810000A0402DE9F0470023D0F86B
:10076000B471C0F8DC3182461C464FF0000998464F
:10077000061F56F8045F384629460CF09FF80E49CC
:1007800060B128460CF09AF840B1484629460BF073
:10079000EFFD08F101088146CAF8DC410134202C44
:1007A000E7D1CAF8D48140460BF096FE0146484690
:1007B0000BF09AFFBDE8F08700007042D0F8D4013A
:1007C000704700BFD0F89001704700BFD0F890018B
:1007D000704700BFD0F89001704700BF2DE9F84383
:1007E0004FF00008D0F8B471C0F88C818146041F26
:1007F00000F17C0654F8045F394628460CF07CF87A
:10080000084950B128460CF059F830B14046294605
:100810000BF0AEFD8046C9F88C01B442EAD14046E7
:10082000BDE8F8830000704202299ABF643150F895
:1008300021000020704700BF102998BF80F8D01118
:10084000704700BF90F8B801704700BF90F8B90139
:10085000704700BFC0F8CC11704700BF80F8B811D6
:10086000704700BF80F8B911704700BF30B5C0F8BD
:10087000B41183B008460BF0D9F9074C02250246A3
:100880000B460095204607F0C3FF204603B0BDE8A5
:10089000304007F063BF00BFD887FF1F70B500F579
:1008A00000550646183500F13804204604F5F0746A
:1008B000FFF7DCFDAC42F8D106F5067501242846A9
:1008C0000021FFF7CBFF214628460134FFF7B4FF94
:1008D000112C05F5F075F2D142F2200400250548EF
:1008E000054A064B3555002130627162B262F362EF
:1008F000304670BD00007A44000048430000C8C282
:1009000070B500F5EC46583600F50674002508E091
:1009100001252046002104F5F074FFF7A3FFB4423F
:100920000AD02046FFF78EFF0028F2D02046FFF7BE
:100930008DFF0028ECD170BD284670BD42F2240323
:100940002DE9F041002200F5F15500F500578046F1
:10095000C2501835243700F5067403E004F5F0742E
:10096000AC420ED02046FFF76DFF0028F6D020469F
:100970003E68FFF723FF04F5F0743044AC42386062
:10098000F0D142F2240358F80300BDE8F08100BF23
:1009900070B50E460121356805F00F040C44C4EB18
:1009A000041400EB441000F138042046FFF756FF12
:1009B00020460121FFF756FF3246204605F0F001A0
:1009C000BDE87040FFF784BD70B5002300F5005608
:1009D00005460361183600F5067403E004F5F0746B
:1009E000A64223D02046FFF72DFF0028F6D0204650
:1009F000FFF7F4FE014628690BF0BAFC2861204697
:100A0000FFF7E0FEA96A0BF059FF20BB2046FFF775
:100A1000DDFEE96A0BF070FF0028DFD02046FFF70B
:100A2000D5FE04F5F074A642E862DBD168690BF0EC
:100A300053FD014628690BF057FE696A2861044698
:100A40000BF05AFF00B16C62296A20460BF036FFAA
:100A500000B12C6270BD2046FFF7B4FEA862D5E756
:100A600070B5124B836100F500550646183500F548
:100A7000067403E004F5F074AC4214D02046FFF78E
:100A8000E1FE0028F6D02046FFF728FEB1690BF002
:100A900015FF0028EED02046FFF720FE04F5F07485
:100AA000AC42B061EAD1B06970BD00BF0000A040A7
:100AB00070B5002300F500550646C361183500F5F2
:100AC000067403E004F5F074AC4214D02046FFF73E
:100AD000B9FE0028F6D02046FFF71CFEF1690BF0A6
:100AE0000BFF0028EED02046FFF714FE04F5F0744B
:100AF000AC42F061EAD1F06970BD00BF0069704797
:100B000041617047F8B50F46164600F50674012599
:100B100004E00135112D04F5F0741BD02046FFF7D9
:100B200091FE0028F5D029460B4807F067FE0A48D9
:100B300007F014FE78200AF073FB20463946FFF7D1
:100B400089FE013520463146FFF790FE112D04F550
:100B5000F074E3D1F8BD00BFD887FF1F42F21C0339
:100B60002DE9F041002200F50055C2502F46274ADA
:100B7000274B426306464FF00008036318351C37C5
:100B800000F5067403E004F5F074AC422ED0204664
:100B9000FFF758FE0028F6D02046FFF71BFE002185
:100BA0000BF0AAFE0028EED03B6801333B602046E4
:100BB000FFF710FE014640460BF0DAFB8046204668
:100BC000FFF704FE316B0BF097FED0B92046FFF71C
:100BD000F9FD716B0BF072FE0028D4D02046FFF7B0
:100BE000F1FD04F5F074AC427063D0D142F21C0305
:100BF000F0580BF071FC014640460BF075FDBDE866
:100C0000F0812046FFF7E2FD3063DFE700C0794462
:100C100000C079C4006B7047406B7047F8B500F5B1
:100C2000005507460026183500F5067403E004F564
:100C3000F074AC4210D02046FFF704FE0028F6D036
:100C40002046FFF789FD014630460BF091FB04F585
:100C5000F074AC420646EED142F21C03F8580BF099
:100C60003BFC014630460BF03FFDF8BD2DE9F04F4F
:100C700093B004460F91002A40F0D78115461046E4
:100C8000C84900F0E5FDC749284600F0E1FDC54927
:100C9000284600F0DDFD42F21C03204654F803B064
:100CA000FFF74CFE8146206966690AF0BFFFCDE977
:100CB00010012046FFF7B2FF82462046A769D4F80C
:100CC0001C80FFF74BFF0AF0B1FFCDE90C0139465C
:100CD00040460BF04BFBB4490BF052FC0AF0A6FF68
:100CE000CDE90A0140460AF0A1FFCDE908013846E6
:100CF0000AF09CFFCDE9060150460AF097FFDDE9B6
:100D00001023CDE90401CDE90223A84900964B4602
:100D10005A46284600F09CFDA249284600F098FD5E
:100D200004F506744FF0010ADDF83C9007E00AF183
:100D3000010ABAF1100F04F5F07400F0F7802046B4
:100D4000FFF780FD0028F2D02046FFF7B1FC2046D7
:100D5000FFF7B2FC2046FFF7B3FC2046FFF7B4FCD8
:100D6000082193480AF0D8F95146924807F046FD09
:100D7000BAF1090F03DC01218F480AF0CDF90221F5
:100D80008E480AF0C9F92046FFF728FD0AF04EFF09
:100D90005FFA89F802460B46CDF80080854807F0D7
:100DA00037FD012186480AF0B7F92046FFF77CFCA1
:100DB0000C2800F3BE8001261EE0062181480AF0BF
:100DC000ABF929467B4807F019FD02217E480AF05D
:100DD000A3F931462046FFF77BFC0AF027FFCDF848
:100DE000008002460B46734807F012FD012174484B
:100DF0003D460E440AF090F92046FFF755FC864226
:100E000005F101076BDC092DD7DC01216A480AF0E6
:100E100083F9D2E72046FFF747FC172800F3BE808E
:100E200035460D261CE00AF077F92946614807F09F
:100E3000E5FC022164480AF06FF931462046FFF7CD
:100E400047FC0AF0F3FECDF8008002460B465948F5
:100E500007F0DEFC01215A483D460E440AF05CF9D9
:100E60002046FFF721FC86424FF00601554805F168
:100E70000107D8DD0F2155480AF04EF94D4807F01B
:100E80006DFC2046FFF710FC192828DD19261CE010
:100E90000AF042F92946474807F0B0FC02214A48C7
:100EA0000AF03AF931462046FFF712FC0AF0BEFE7E
:100EB000CDF8008002460B463E4807F0A9FC012110
:100EC0003F483D460E440AF027F92046FFF7ECFB69
:100ED00086424FF006013B4805F10107D8DD0F219E
:100EE0003A480AF019F9334807F038FC0921384824
:100EF0000AF012F900212046FFF796FC0AF096FE50
:100F0000022602460B4600962A4807F081FC0F2174
:100F10002E480AF001F90AF1010A264807F01EFCE2
:100F2000BAF1100F04F5F0747FF409AF13B0BDE807
:100F3000F08F2F46012620E0062122480AF0ECF827
:100F400039461C4807F05AFC02211F480AF0E4F811
:100F500031462046FFF7BCFB0AF068FECDF8008062
:100F600002460B46134807F053FC01360121144892
:100F70000AF0D2F80C2E09D05F46092F07F1010BB9
:100F8000DADC01210C480AF0C7F8D5E72046FFF764
:100F90008BFB0C2805F10B063FF73CAF16350D27F0
:100FA0003AE000BFC420010000007A44E00D0100D7
:100FB000800E0100D887FF1FEC1E01008013010086
:100FC0008C0E0100900E010068100100980E0100C7
:100FD000A80E01000621BD480AF09EF83146BC4823
:100FE00007F00CFC0221BB480AF096F8394620466F
:100FF000FFF76EFB0AF01AFECDF8008002460B46A2
:10100000B34807F005FC0121B3480F440AF084F807
:101010005D453FF42FAF5E46092E06F1010BD9DC8A
:101020000121AE480AF078F8D4E7AD49012000F07C
:101030000FFCAB49012000F00BFCA949012000F096
:1010400007FC42F21C032046E2581092FFF776FCA0
:101050008246206966690AF0E9FD80462046894695
:10106000FFF7DCFD83462046A569E769FFF776FDBB
:101070000AF0DCFDCDE90C01294638460BF076F983
:1010800098490BF07DFA0AF0D1FDCDE90A01384606
:101090000AF0CCFDCDE9080128460AF0C7FDCDE9EC
:1010A000060158460AF0C2FD5346CDE90401CDE9D8
:1010B0000289109A8C490096012000F0C9FB8849EA
:1010C000012000F0C5FB04F506744FF0010A00256D
:1010D000DDF83C9007E00AF1010ABAF1100F04F5BF
:1010E000F0743FF423AF2046FFF7ACFB0028F2D0AA
:1010F0002046FFF7DDFA2046FFF7DEFA2046FFF72D
:10110000DFFA2046FFF7E0FA0821784808F062FC91
:101110005146774807F072FBBAF1090F03DC012151
:101120006E4808F057FC0221724808F053FC204634
:10113000FFF754FB0AF07AFD5FFA89F802460B4686
:10114000CDF800806A4807F063FB0121624808F08F
:1011500041FC2046FFF7A8FA0C2800F3B4800126D2
:101160001EE00621594808F035FC2946604807F082
:1011700045FB0221574808F02DFC31462046FFF779
:10118000A7FA0AF053FDCDF8008002460B465848F6
:1011900007F03EFB012150483D460E4408F01AFC82
:1011A0002046FFF781FA864205F101076BDC092D25
:1011B000D7DC0121494808F00DFCD2E72046FFF7B3
:1011C00073FA172800F3CE8035460D261CE008F090
:1011D00001FC2946464807F011FB02213D4808F072
:1011E000F9FB31462046FFF773FA0AF01FFDCDF8F0
:1011F000008002460B463E4807F00AFB01213648B4
:101200003D460E4408F0E6FB2046FFF74DFA8642C5
:101210004FF006012D4805F10107D8DD0F213648B2
:1012200008F0D8FB324807F099FA2046FFF73CFA5D
:10123000192828DD19261CE008F0CCFB29462C488B
:1012400007F0DCFA0221234808F0C4FB31462046AF
:10125000FFF73EFA0AF0EAFCCDF8008002460B46A2
:10126000234807F0D5FA01211B483D460E4408F0FB
:10127000B1FB2046FFF718FA86424FF006011348EB
:1012800005F10107D8DD0F211B4808F0A3FB184822
:1012900007F064FA0921194808F09CFB0021204658
:1012A000FFF7C2FA0AF0C2FC022602460B4600967D
:1012B0000F4807F0ADFA0F210F4808F08BFB0C48E0
:1012C00007F04CFA07E72F4601263AE0900E01009E
:1012D000D887FF1F681001008C0E0100EC1E010072
:1012E000C420010000007A44E00D0100800E0100DE
:1012F000AC87FF1F80130100980E0100A80E0100AB
:1013000006212F4808F066FB39462E4807F076FA8A
:1013100002212D4808F05EFB31462046FFF7D8F940
:101320000AF084FCCDF8008002460B46254807F001
:101330006FFA01360121254808F04CFB0C2E09D02C
:101340005F46092F07F1010BDADC0121204808F084
:1013500041FBD5E72046FFF7A7F90C2805F10B065E
:101360003FF72CAF16350D2721E00621144808F071
:1013700031FB3146134807F041FA0221124808F0C8
:1013800029FB39462046FFF7A3F90AF04FFCCDF8B8
:10139000008002460B460B4807F03AFA01210B4841
:1013A0000F4408F017FB5D453FF438AF5E46092E49
:1013B00006F1010BD9DC0121054808F00BFBD4E74D
:1013C000900E0100AC87FF1F681001008C0E010019
:1013D000EC1E01002DE9F04F85B000F506758A4638
:1013E00003929B462E464FF0010806E008F10108E3
:1013F000B8F13F0F06F5F0767BD03046FFF722FAC2
:101400000028F3D000230A2251467D4807F0B6F9A0
:1014100001217C4809F080FE03980AF007FC0023B4
:101420000246009376480B4607F0F2F90121754811
:1014300009F072FE5946724807F0E0F9012171483F
:1014400009F06AFE41466E4807F0D8F901216D485F
:1014500009F062FE00244FF0020921463046FFF7F2
:1014600037F90AF0E3FBCDF8009002460B466448DA
:1014700007F0CEF901340121624809F04DFE082C35
:101480004FF00207E9D100213046FFF7CDF90AF00D
:10149000CDFB009702460B46594807F0B9F90121E8
:1014A000584809F039FE01213046FFF7BDF90AF02E
:1014B000BDFB009702460B46514807F0A9F90121F0
:1014C000504809F029FE39463046FFF7ADF90AF0D9
:1014D000ADFB009702460B46494807F099F908F121
:1014E0000108474807F03AF9B8F13F0F06F5F076E2
:1014F00083D101274FF0000904E001373F2F05F5A4
:10150000F07579D02846FFF79DF90028F5D0002323
:101510000A2251463C4807F031F90121394808F0C8
:1015200059FA03980AF082FBCDF8009002460B4668
:10153000354807F06DF90121324808F04BFA594659
:10154000314807F05BF901212E4808F043FA39468B
:101550002D4807F053F901212A4808F03BFA0024EE
:101560004FF0020821462846FFF7B2F80AF05EFB6A
:10157000CDF8008002460B46234807F049F90134B4
:101580000121204808F026FA082C4FF00206E9D184
:1015900000212846FFF748F90AF048FB009602466A
:1015A0000B46194807F034F90121164808F012FAE1
:1015B00001212846FFF738F90AF038FB0096024669
:1015C0000B46114807F024F901210E4808F002FAF1
:1015D00031462846FFF728F90AF028FB0096024614
:1015E0000B46094807F014F90137074807F0B6F829
:1015F0003F2F05F5F07585D105B0BDE8F08F00BF30
:10160000D887FF1FB40E0100AC87FF1F70B50446DA
:1016100008460D460BF0B4FF2368024629462046D3
:101620005B68BDE870401847014B1870704700BFF9
:101630002087FF1FF0B51546027883B062B10346DC
:101640000E46252A16D018781C4685B909F0E8FD03
:101650006278631C002AF4D1002D5CD0744803B07A
:10166000BDE8F04007F07AB81046002DEED008F043
:1016700059F9EDE758785C1C0028EDD02528F3D007
:1016800073282FD0642825D0692823D0662848D015
:101690007A2853D078285ED0582800F085806228B8
:1016A00000F09180422866D06C2813D0632811D0B6
:1016B000742800F098805428C7D133680436002D70
:1016C00040F0A480012B00F0A8800521594809F0C2
:1016D00023FDBDE7331D316885B957481E4607F025
:1016E0008DF8B5E7371D3668304665B90BF048FF11
:1016F000014630463E4609F00FFDA9E74C481E461C
:1017000007F07CF8A4E70BF03BFF014630463E466D
:1017100008F060F99CE7484803B0BDE8F04007F0E6
:101720001DB8073626F007060321D6E900230091ED
:1017300065B94148083607F06BF889E7073626F0A7
:101740000706D6E9002385B1002100913848083604
:1017500007F05EF87CE7371D3168F5B900231022E9
:1017600035483E4607F00AF872E7009532480836D9
:1017700007F04EF86CE7022130487DBB09F0CCFC45
:101780003168371D2B4602222B483E4606F0F6FFF5
:101790005EE708F01FF93168371D00231022244846
:1017A0003E4606F0EBFF53E702212548002DF0D11D
:1017B00009F0B2FC371D31681F482B4610223E4607
:1017C00006F0DCFF44E7371D3168002DDAD0002336
:1017D000022217483E4606F0D1FF39E708F0FAF832
:1017E000371D3168F3E7316804363DB901290EBF72
:1017F00014481548012109F08FFC29E701290EBF83
:1018000010481148012108F0E5F821E7012B09D023
:101810000521084808F0DEF81AE70C490648FFF7EA
:10182000F5FE15E709490248FFF7F0FE10E700BF93
:10183000AC87FF1FF40E0100D887FF1FE00E0100E8
:10184000DC0E0100E40E0100E80E0100EC0E0100C8
:101850000EB400B582B003A9024651F8040B019101
:10186000FFF7E8FE02B05DF804EB03B0704700BF7D
:1018700030B4074D074C084900232B7023600365E3
:101880004365836580F85C300B6030BC704700BFF7
:101890005C92FF1F5892FF1F5492FF1F0A4A0B4988
:1018A000906D536D03FB00F34FF47A7000FB03F06F
:1018B000642310B50B600AF00FFE0549054C0AF0D1
:1018C00013FF206010BD00BF6093FF1F3487FF1F10
:1018D000E4388E3E2093FF1F2DE9F0414249434FEB
:1018E000434D444E444C0020FFF7B2FF434B444A63
:1018F00044485A60DF601222002743491A70186179
:10190000424A43485D615E62424D9C614FF07C56A5
:10191000414C1F63414F9962DA62414958630C227E
:1019200040489D635E6440F61C450A269C641F6225
:1019300041F204043C4FD9641A6502210122C3F824
:10194000B8009D6600206425DE661C674FF496761D
:101950003224DF61DF635A27597059721A725A654F
:1019600083F840005E66DE651C669D655F6798676C
:10197000C3F88000C3F89C008C204FF47A78DFF81D
:10198000ACC0D967C3F89440C3F8A040DFF8A0E02A
:10199000C3F8A820FF27C3F8AC10052641F2883110
:1019A0004FF4FA7483F8BC2083F8BD2083F8BE207E
:1019B00083F8C20040F2D662C3F8B050C3F89880F2
:1019C000C3F888C0C3F88CE0C3F8A470A3F8B6606D
:1019D000A3F8C040C3F89010A3F8B410A3F8842073
:1019E000A3F88620BDE8F081FC0E01006666864003
:1019F00033338340CDCCCC3DCDCC4C406093FF1FE6
:101A000048E801000000404000008242000020C180
:101A1000000020420000A0409A997940333373407F
:101A20000AD7233D9A99993ECDCC4C3E000068429E
:101A300000C02044F0B54FF47A6085B007F0EAFCAE
:101A400000210F2007F0BEFC00210E2007F0BAFC99
:101A50000021112007F0B6FC0021102007F0B2FC95
:101A60000021122007F0AEFC0021132007F0AAFC91
:101A700001210B2007F0A6FC01210C2007F0A2FC9D
:101A80000121142007F09EFC0121152007F09AFC8B
:101A90000121162007F096FC0121172007F092FC87
:101AA0000121052007F08EFC8D4C8E4D0121062072
:101AB00007F088FC01210D2007F084FC20880AF043
:101AC00007FD0146162007F0E7FB20880AF000FD1D
:101AD0000146172007F0E0FB20880AF0F9FC0146D8
:101AE000052007F0D9FB20880AF0F2FC002401460B
:101AF000062007F0D1FB009423467B4A7B497C48B3
:101B000005F0E8FAE6B232467649794805F090FAEF
:101B10002B79744976486FF30003013432462B71F8
:101B200005F07CFA082CEDD10924E6B232466D4965
:101B30006F4805F07DFA2B796A496D4843F001033F
:101B4000013432462B7105F069FA0D2CEDD1694C48
:101B50004FF0FF322068102105F088FE20684FF01A
:101B6000FF32102105F05AFE20684FF0FF320221AB
:101B700005F068FE20684FF0FF32022105F06CFE90
:101B800000220F21206805F07BFE0C215A4809F045
:101B9000C3FA5A4806F0E2FD1621594809F0BCFA8A
:101BA000564806F0DBFD40F2836007F0F1FC40F29E
:101BB000413008F0EBF8514806F0D0FD17215148AC
:101BC00009F0AAFA4D4806F0C9FD4F4B1B789A065A
:101BD00000F1B4804C4B1B781B0700F1BB804A4BD3
:101BE0001B785F0700F1C280474B1B789E0700F10E
:101BF000C980464B1B781D0600F1D080434B1B78F3
:101C00005C0600F1D780414B1B78980600F1DE801E
:101C10003E4B1B78590700F1E5803C4B1B781A07B7
:101C200000F1EC80394B1B789B0700F1F3803348BF
:101C300006F094FD72B6364A4CF220504DF628114B
:101C4000108020231180013BFDD1324C32483349B2
:101C500000234FF48055258003800B8032F80E3C22
:101C60009BB243F0D30322F80E3C62B618212C48F5
:101C70002C4D09F051FA214806F070FD05F1C4061B
:101C80002F462C46601B06F0D7FF04F8010BB44228
:101C9000F8D13B78122B01D0FFF71EFE0420FFF78E
:101CA000C3FC214B002201210D201A6007F076FBB6
:101CB000796D1E48FEF724FF7A6C97F840101B4898
:101CC000FEF720FF1A4B1B491A68039203981B6802
:101CD0000293029A184B08601A6005B0F0BD00BF6D
:101CE0002887FF1F2C94FF1F38B7FF1F48E801000B
:101CF0009CB5FF1FD894FF1F1C0F0100D887FF1F42
:101D00002C0F0100440F010001F0074000F00740D4
:101D10000E20054004200540062005401620054001
:101D2000481001006093FF1F7092FF1F7495FF1F02
:101D300060B7FF1F0895FF1F3494FF1F212139480A
:101D400009F0EAF9384806F009FD384B1B781B0703
:101D50007FF545AF0C21364809F0DEF9324806F030
:101D6000FDFC324B1B785F077FF53EAF0E213148FB
:101D700009F0D2F92C4806F0F1FC2C4B1B789E0799
:101D80007FF537AF17212C4809F0C6F9264806F031
:101D9000E5FC2A4B1B781D067FF530AF0E21284845
:101DA00009F0BAF9204806F0D9FC244B1B785C06F0
:101DB0007FF529AF1221234809F0AEF91A4806F041
:101DC000CDFC1E4B1B7898067FF522AF13211E48D1
:101DD00009F0A2F9144806F0C1FC184B1B7859070A
:101DE0007FF51BAF1C21194809F096F90E4806F043
:101DF000B5FC124B1B781A077FF514AF1921144854
:101E000009F08AF9084806F0A9FC0C4B1B789B07DF
:101E10007FF50DAF18210F4809F07EF9024806F052
:101E20009DFC04E75C0F0100D887FF1F01F007400D
:101E3000800F0100900F0100A00F010000F007408B
:101E4000B80F0100C80F0100DC0F0100F00F010006
:101E5000101001002C10010070B5464C464D47484B
:101E6000E66800232B70FEF723FE014630460AF099
:101E700025FD08B104232B704048FEF7F1FD2169D0
:101E80000AF01CFD18B12B7843F010032B703B486F
:101E9000FEF7C0FEA16A0AF02FFD18B12B7843F0BF
:101EA00040032B70002335486B70FEF7B5FEE16AE6
:101EB000314E0AF003FD08B10123737000232F484F
:101EC000EB70FEF7F5FD05462C482B4EFEF7C8FDDE
:101ED000014628460AF04AFAE16B0AF00DFD08B106
:101EE0000123F370264D254800232B70FEF7E0FDFB
:101EF000616A0646E0680AF039FA014630460AF09F
:101F0000FBFC08B104232B701C48FEF7A9FD616A95
:101F1000064620690AF02CFA014630460AF0CEFC4B
:101F200018B12B7843F010032B701448FEF772FEA3
:101F3000A16B0646A06A0AF019FA014630460AF07B
:101F4000DBFC18B12B7843F040032B7000230B48C7
:101F50006B70FEF761FEA16B0546E06A084C0AF063
:101F600007FA014628460AF0A9FC08B1012363706C
:101F700070BD00BF6093FF1F5C93FF1F7495FF1F30
:101F8000C894FF1F2DE9F0417C4C2368012B82B0DF
:101F900031D0022B00F0A880032B00F0C8803BBB9F
:101FA000774B784AD3F8A010D3F8A43012685B1AA4
:101FB000632B0EDD744803FB02F380FB0302DB1787
:101FC000C3EB62131944062002B0BDE8F04107F0EC
:101FD00065B86E4803FB022380FB0302DB17C3EBEB
:101FE00022121144062002B0BDE8F04107F056B8B5
:101FF00002B0BDE8F081664E33680A33B3F57A7FEC
:1020000000F3B780184633600AF066FA61490AF0B7
:10201000B7FA80465A4DD5F8A0000AF05DFA074697
:10202000D5F8A4000AF058FA39460AF09FF941465B
:102030000AF0A6FA58490AF057FB39460AF098F90F
:102040000AF064FC0146062007F028F802215348F4
:1020500009F062F8524806F081FB0621514809F068
:102060005BF830680AF038FA4A490AF089FA09F050
:10207000DDFD022702460B460097494806F0C8FBE3
:102080000D21494809F048F8D5F8A0000AF024FAD3
:10209000804630680AF020FA3E490AF071FA064696
:1020A000D5F8A4000AF018FA41460AF05FF9014693
:1020B00030460AF065FA38490AF016FB41460AF044
:1020C00057F909F0B3FD00970B460246344806F075
:1020D0009FFB3946314809F01FF8314806F03EFBB6
:1020E0002368022B7FF458AF294B254E00221A603B
:1020F000D6F8A0000AF0F0F90546D6F8A4000AF0D8
:10210000EBF929460AF032F900210AF039FA22499E
:102110000AF0EAFA29460AF02BF90AF0F7FB014621
:10212000062006F0BBFF2368032B7FF438AF184B63
:10213000134E4FF47A721A60D6F8A0000AF0CCF968
:102140000546D6F8A4000AF0C7F929460AF00EF9A8
:1021500011490AF015FA10490AF0C6FA29460AF0A0
:1021600007F90AF0D3FB0146062006F097FF236823
:1021700015E700234FF0000833604BE73493FF1F4F
:102180006093FF1F3487FF1F1F85EB51CBF08D2815
:102190007492FF1FCDCCCC3D0000C84280130100DB
:1021A000D887FF1F641001006C10010070B5B8489B
:1021B000B84C06F0D3FAB64806F0D0FAB44806F0A8
:1021C000CDFA0D21B44808F0A7FFD4F89C30012BBC
:1021D00011D0B24CAE48217800230A2206F0CEFA84
:1021E0002378052B67D8DFE813F00B0110011501E8
:1021F0001A011F0101010921A94808F08DFFA94812
:10220000FEF72EFC21690AF059FB18B10F21A648F0
:1022100008F082FFA348FEF74BFCE1680AF06CFB74
:1022200018B10E21A14808F077FF9E48FEF740FC48
:1022300005469C48FEF714FC014628460AF096F82D
:10224000E16B0AF059FB18B11121994808F064FFBD
:102250009448FEF783FCA16A0AF04EFB18B10C21EA
:10226000944808F059FF8F48FEF778FCE16A0AF0BD
:1022700025FB18B10D21904808F04EFF8F4B89487F
:102280001B68012B00F0ED80FEF7EAFB2169814D10
:102290000AF032FB78B18348FEF70AFCE9680AF0DD
:1022A0000DFB40B17D4B1B78052B00F0EB80082126
:1022B000834808F031FF0221824808F02DFF1220E8
:1022C00007F072F8012800F0B480112007F06CF8D4
:1022D000012800F0B8807C4B1B68012B00F0BC800B
:1022E00002217848794C08F017FF794B6848196843
:1022F00006F084FA664806F031FA0421754808F0C1
:102300000BFF0B2007F050F8002301460A2260481B
:1023100006F034FA0C2007F047F8002301460A22A1
:102320005B4806F02BFA142007F03EF80023014624
:102330000A22574806F022FA152007F035F80A223B
:1023400000230146524806F019FA0621624808F0B7
:10235000E3FE2368DD074FF001014CBF5F48604892
:1023600008F0DAFE236898074FF001014CBF5B4884
:102370005B4808F0D1FE23685A074FF001014CBFBB
:102380005648574808F0C8FE23681B074CBF5348FF
:102390005348012108F0C0FE0421524808F0BCFE59
:1023A000112007F001F8002301460A22384806F000
:1023B000E5F9102006F0F8FF002301460A22344810
:1023C00006F0DCF9122006F0EFFF002301460A2296
:1023D0002F4806F0D3F9132006F0E6FF002301464C
:1023E0000A222B48BDE8704006F0C8B907213E48D4
:1023F00008F092FE3D4B2648196806F0FFF95AE7AF
:1024000006213B4808F088FE55E70721394808F0C7
:1024100083FE50E70721384808F07EFE4BE708218D
:10242000364808F079FE46E70B21354808F074FE7F
:1024300041E70E21334808F06FFE112006F0B4FF8B
:1024400001287FF448AF0A212F4808F065FE1E4B93
:102450001B68012B7FF444AF11212C4808F05CFE6F
:102460003EE7FEF7FDFA216A0AF046FA00283FF43B
:102470001EAF1621264808F04FFE0A21254808F015
:102480004BFE18E70A21234808F046FE13E700BF79
:10249000D887FF1F6093FF1F7C100100C494FF1FAB
:1024A0008C1001007495FF1F98100100A810010006
:1024B000B8100100CC100100DC1001000093FF1FD8
:1024C0001011010080130100E094FF1F2494FF1FEE
:1024D000AC94FF1F841101008C11010094110100C4
:1024E000A01F0100981101004C110100E494FF1F8E
:1024F0001C110100241101003811010040110100DC
:102500002C1101005411010064110100701101002F
:10251000EC100100041101002DE9F04F9B4C9C4F81
:10252000E36F012B8DB000F05981032B5AD0994EE7
:10253000994DA36F9948012B09BF2968296801F1BA
:102540000041296005F08EFD3368002B40F0D880F3
:10255000924805F05DFDE36F3860012B064600F000
:10256000DC808F490AF0C8F9B8B98E4930460AF0C4
:10257000A5F990B98C4A8D4B12680B920B9A1A6090
:10258000D4F8A80009F0A8FF314609F0F9FF0023AC
:1025900038602B600DB0BDE8F08FDFF80CA2DFF8DB
:1025A0000C82DAF800300A930A98D8F80030DFF885
:1025B0002492C01A09F08CFF314609F0E1FF7C49F2
:1025C0000AF092F87A490AF08FF8D9F8001009F069
:1025D000CFFEDAF800300993099BC9F80000C8F86B
:1025E0000030CDE7DFF8D081724DD8F80000694E99
:1025F000012300220F212B6005F042F92B68012BEB
:10260000336800F00981002B40F0AC810021D8F83C
:102610000000DFF8C491684D05F084F933681FFAB3
:1026200080FBC9F800B0002B40F081810021D8F870
:102630000000594DDFF880A105F0FAF8B4F88630B3
:1026400040F6E44101FB0BF1B1FBF0F0C01A00B21F
:1026500009F042FF59498346D4F8880009F090FFF9
:10266000014658460AF040F8D9F800302860632B3C
:10267000DFF864B100F34F8100232B603368002B37
:102680003FF457AF02214E4808F046FDD9F800202C
:10269000D8F8000040F6E443002103FB02F805F0FF
:1026A000C7F8B8FBF0F009F013FF8046B4F88600D5
:1026B00009F012FF0146404609F058FE09F0B6FA4B
:1026C0004FF0020802460B46CDF800803D4806F068
:1026D0009FF841463A4808F01FFD286809F0A6FA1D
:1026E000CDF8008002460B46364806F091F8414688
:1026F000354808F011FD4146314808F00DFD18E756
:10270000264805F085FC09F091FA022602460B46A0
:1027100000962C4806F07CF81AE7264B1B68012B24
:1027200000F02C81022B7FF42BAF28490AF0E4F84B
:1027300030B9274930460AF0C1F8002800F053812B
:10274000DFF864A0DFF86480DAF8003007930798B8
:10275000D8F80030DFF87C90C01A09F0B9FE314695
:1027600009F00EFF124909F0BFFF114909F0BCFF43
:10277000D9F8001009F0FCFDDAF800300693069B4A
:10278000C9F80000C8F80030FAE600BF6093FF1FE8
:102790001493FF1F0495FF1F7C92FF1F3893FF1FA8
:1027A0000000FA430000FAC360B7FF1FD494FF1F74
:1027B00000007A445087FF1FD894FF1F17B7D13805
:1027C00080130100D887FF1FDC11010000C82F48CB
:1027D00000A08CC62093FF1F5893FF1F3D689B49A4
:1027E00028460AF06BF830B1284699490AF084F877
:1027F00000287FF4F7AEDFF86482964DD8F8000029
:10280000954E022300220E212B6005F039F82B682B
:10281000012B33687FF4F7AE002B40F006810021D6
:10282000D8F80000DFF874928C4D05F07BF833681F
:102830001FFA80FBC9F800B0002B40F0DB800021BC
:10284000D8F80000864D04F0F3FFB4F8843040F669
:10285000E44A0AFB0BFBBBFBF0F0C01A00B209F024
:102860003BFE80498346D4F88C0009F089FE01467E
:10287000584609F039FFD9F8003028600021D8F80F
:1028800000000AFB03FA04F0D3FFB4F88430BAFB6B
:10289000F0F00FFA80FAC3EB0A03002BB4F8B6206D
:1028A000B8BF5B429342BCBF00232B603368002B50
:1028B0003FF43FAE02216C4808F02EFCD9F800200E
:1028C000D8F8000040F6E443002103FB02F804F0CE
:1028D000AFFFB4F88410B8FBF0F000B2411A6348BF
:1028E00005F08CFF0221604808F016FC286809F00A
:1028F0009DF94FF0020802460B46CDF800805B4878
:1029000005F086FF03215A4808F006FC4146564868
:1029100008F002FC0DE6DAF80000002104F088FF60
:10292000DBF8003064389842FFF4A6AEA6E600213A
:10293000286804F07DFF40F6E44100230A2201FBF1
:102940000BF1B1FBF0F1494805F018FF02214648B0
:1029500008F0E2FBB4F88610444805F04FFFD9F8C0
:1029600000B063E6414805F0F9FE0C21414808F04B
:10297000D3FB0C21404808F0CFFB47E63F4909F064
:10298000BBFF58B93E49304609F098FF30B93D4A7F
:102990003D4B12680592059A1A60F1E5DFF8E4A054
:1029A000DFF8E480DAF8003004930498D8F80030B7
:1029B000DFF8EC90C01A09F08BFD314609F0E0FD1C
:1029C000324909F091FE314909F08EFED9F8001024
:1029D00009F0CEFCDAF800300393039BC9F800003D
:1029E000C8F80030CCE5274A274B12680892089AAD
:1029F0001A60C5E50021286804F01AFF40F6E4419A
:102A000000230A2201FB0BF1B1FBF0F1174805F09E
:102A1000B5FE01211E4808F07FFBB4F8841013486E
:102A200005F0ECFED9F800B009E7104805F096FE75
:102A3000E36F012B4FF00B010CBF1648164808F04E
:102A40006BFB0C210C4808F067FBE8E6007094462D
:102A5000007094C65087FF1F0495FF1FD894FF1F76
:102A60007C92FF1F17B7D13880130100D887FF1F52
:102A7000C8110100CC110100B81101000000FA4397
:102A80000000FAC360B7FF1FD494FF1F00007A4410
:102A9000EC1E0100A0110100AC1101005893FF1FB2
:102AA0002093FF1F2DE9F04F994C236885B0002B30
:102AB0007BD0984DDFF86482974FDFF8A892D5F865
:102AC0008030944E012B00F08B80D7F800A0D6F810
:102AD00058B0746D914E04FB0BF44FF47A7000FB08
:102AE00004F009F0F9FC8E490446504609F048FD0F
:102AF000214609F0F9FD8B4909F042FD09F006FF76
:102B00006328C8F800004BDD2046854909F0ECFD3C
:102B1000642338603360D9F80030002B3DD0EB6F70
:102B20007C4C012B00F08A80032B00F0DF80022B0D
:102B300000F0E28002217C4808F0EEFA7B4B186836
:102B400009F074F8022402460B460094784805F018
:102B50005FFE2146774808F0DFFA2146724808F008
:102B6000DBFAD8F80010724805F048FE06217248DA
:102B700008F0D2FA38686A4909F002FD09F056F8FF
:102B8000009402460B466A4805F042FE03216B485A
:102B900008F0C2FA664805F0E1FD05B0BDE8F08F27
:102BA0000028BCBF00233360B5E7654E594D33683C
:102BB0000293029A42F228339A424BD83368039325
:102BC000039A42F210739A424BD8D5F88030DFF85E
:102BD0004C81514FDFF88C914E4E012B7FF475AF35
:102BE0005848FEF71BF85849D6F868A0F46E09F06B
:102BF000C7FC09F0B1FE326F736FD5F858B0CAEB5D
:102C000002021B1B80B29A42CAEB0000C6BF03FB44
:102C100000000132584390FBF2F020446C6D00FB41
:102C20000BF004FB00F000EB8000400009F054FCC6
:102C30003B4909F059FD824638604BE7434B1B681E
:102C4000012B4FF00A010CBF4148424808F064FADA
:102C5000E36F69E73B486A6C95F84010FDF752FF57
:102C6000ACE73848FDF7DAFF3749AF6EEE6E09F092
:102C700087FC09F071FE2A6F6B6FD21B9B1B80B221
:102C80009A42A0EB07003CDD03FB0000531C90FBC5
:102C9000F3F31E44A86D6B6DDFF88080DFF8C490FD
:102CA000C8F8006000FB06F003FB00F000EB8000BA
:102CB000400009F011FC1A49174F09F015FDD9F829
:102CC0000030386001222260002B3FF4F8AE022170
:102CD000154808F021FA164805F040FD59211E4814
:102CE00008F01AFA124805F039FDE8E610211B48F1
:102CF00008F012FAEB6F1AE70721194808F00CFAEE
:102D000018E703FB00F393FBF2F31E44C2E700BF96
:102D10007892FF1F6093FF1F2093FF1F3487FF1FD0
:102D2000E4388E3E0000C842801301001493FF1F58
:102D3000D887FF1FDC11010070120100781201001A
:102D400060B7FF1F7495FF1F00007A445087FF1F74
:102D50003C12010048120100E01101005412010070
:102D6000681201003C87FF1FF0B5112083B006F008
:102D70001BFB012813D000210B2006F00FFB0021C4
:102D80000C2006F00BFB0021152006F007FB1D4967
:102D90001D4B0120002208701A6003B0F0BD0146EF
:102DA0000446152006F0FAFA1849194A194B096821
:102DB0000191D2F890001B680199134D034402263B
:102DC0008B422E6017D8D2F8980009F085FB124B81
:102DD000196809F073FD074668B921460B2006F013
:102DE000DDFA084A032339460C2016702B6006F0E2
:102DF000D5FA03B0F0BD01210C2006F0CFFA03B0E4
:102E0000F0BD00BFC494FF1F0095FF1F60B7FF1FF8
:102E10006093FF1F0895FF1F1493FF1FF0B56D4EC1
:102E20006D4D34682B689C4287B03AD014F0010194
:102E300056D014F002014AD014F004013ED0E3074A
:102E40000FD52B68DF070CD4644F3A68002A00F0D6
:102E50009E80634B1B680193019B934200F2898023
:102E60003468A0070DD52B6899070AD45D4F3A68DE
:102E7000002A3ED05A4B1B680393039B93425AD8B7
:102E8000346862070DD52B685B070BD4564F3A6840
:102E9000002A3FD0524B1B680593059B934258D89C
:102EA00034680CB107B0F0BD2146162006F0F6F8E4
:102EB0002146172006F0F2F807B0F0BD052006F015
:102EC000EDF82B68346803F0FB032B60B7E717209D
:102ED00006F0E4F82B68346803F0FD032B60ABE7E1
:102EE000162006F0DBF82B68346803F0FE032B6035
:102EF0009FE73E4B1B68002B56D1FF21172006F0A1
:102F0000CDF8374B3A4A19680291029912680A447F
:102F10003A60B0E7354B1B68002B50D1FF210520EC
:102F200006F0BCF82E4B324A1968049104991268D5
:102F30000A443A60AFE72F4B1720D3F8941006F0FD
:102F4000ADF82B68346843F0020300222B603A602E
:102F500097E7284B0520D3F8941006F09FF82B68CC
:102F6000346843F0040300222B603A60002C99D1AE
:102F70009AE7204B1620D3F8941006F08FF82B68B0
:102F8000346843F0010300222B603A6069E7FF21B7
:102F9000162006F083F8124B154A19680091009923
:102FA00012680A443A6055E7134805F0D7FB0C2134
:102FB000124808F0B1F8104805F0D0FB9DE70E4824
:102FC00005F0CCFB0C210E4808F0A6F80A4805F0E5
:102FD000C5FBA3E70095FF1F2494FF1F9C94FF1FD0
:102FE00060B7FF1FA094FF1FA494FF1F3C87FF1F23
:102FF0006887FF1F6093FF1FD887FF1F7C120100A7
:103000008C1201002DE9F047544EDFF87481DFF88F
:1030100074913068524D00220F2104F031FC0023DE
:10302000012222214F48C8F80030C9F8002008F0DA
:1030300073F8D8F80030132B22DC40F6E447002167
:103040003068B5F884A004F06DFC002104463068B7
:1030500004F0EEFBA4B2012107FB04F4B4FBF0F48E
:1030600041485444A5F8844008F056F8642006F01E
:10307000D1F9D8F800300133132BC8F80030DEDD69
:10308000B5F88430394A3A48A2FB03129B1A02EB86
:103090005303C3F30F131946A5F8843005F0AEFBB4
:1030A0001D21344808F038F80221334808F034F87C
:1030B0002F4805F053FB00231A460E213068C8F84C
:1030C000003004F0DDFB022322212648C9F800303D
:1030D00008F022F8D8F80030132B22DC40F6E44741
:1030E00000213068B5F8869004F01CFC00210446ED
:1030F000306804F09DFBA4B2012107FB04F4B4FB8B
:10310000F0F419484C44A5F8864008F005F864200E
:1031100006F080F9D8F800300133132BC8F80030DE
:10312000DEDDB5F88630114A1148A2FB03129B1A66
:1031300002EB5303C3F30F131946A5F8863005F0CD
:103140005DFB1D210D4807F0E7FF02210A4807F04B
:10315000E3FF0748BDE8F04705F000BBD894FF1F28
:103160006093FF1F9C120100E01201008761188626
:10317000D887FF1FC012010080130100E412010074
:10318000B094FF1F5087FF1FA64B2DE9F0411B682D
:10319000A54CA64D40F2513108222160E271286D04
:1031A000002B40F0EE8009F097F96969064609F0B6
:1031B000E7F99F499D4F09F0E3F909F0CDFB80B293
:1031C000031263729B4A9C4B12681B68A969A37225
:1031D00015121B12E372227320726573304609F0D8
:1031E000CFF99349904D09F0CBF909F0B5FB83B2C3
:1031F0001A1229469148A373E27304F063F9904BC5
:10320000904A1B681288A272DEB206EB8601267213
:1032100003EB8306490046F3D71640F2553E1212DF
:103220004FF000081B122173667329460826834855
:10323000C4F800E0E2726372E67184F80E8084F8EC
:103240000F8004F03FF940F256337F482360E67167
:10325000FDF754FC7D4909F093F909F07DFB2072DC
:103260007948FDF74BFC794909F08AF909F074FBBC
:10327000774A7649C0F307236372106809F034FA7D
:1032800009F044FB40FA06F203466F48E272A3726B
:10329000FDF764FC664909F073F909F037FB207308
:1032A0006948FDF75BFC624909F06AF909F02EFBF9
:1032B000294640F307236148637384F80E8084F83D
:1032C0000F8004F0FFF8022006F0A4F8614A624B78
:1032D00010785178207290786172D2781978A07243
:1032E000987893F801E0E2722173DA78A07340F2E3
:1032F0005A332946514884F80DE0E2732360E671A1
:1033000004F0E0F8554B4D481A78597822726172F2
:103310009A78D978A272E1721A79597993F806E00D
:1033200022736173DA7984F80EE040F25E33294645
:10333000E2732360E67104F0C5F8022006F06AF833
:10334000474B3E481A785978227261729A78D97838
:10335000A272E1721A79597993F806E022736173C7
:10336000DA79E6714FF45C732946236084F80EE045
:10337000E27304F0A7F83B4B1B68012B06D0BDE8B5
:10338000F08109F0A9F8296A064610E72E48FDF7F2
:1033900067FBF96C08F0ECFF80462B48FDF788FBD3
:1033A0000146404609F08AFA0028E8D040F2C333CB
:1033B0002548EE712B60FDF753FBBE6C314609F0DA
:1033C0007DFAC8B12849304609F0DAF809F0C4FAA4
:1033D00080B2031268722B72002301260425032297
:1033E000A672E57222736373A373E3730E491348E5
:1033F000BDE8F04104F066B81348FDF731FB1A4907
:1034000009F0BEF809F0A8FAC0F307230E482B72A2
:10341000FDF726FB144909F0B3F809F09DFA68722C
:10342000DAE700BF0093FF1FF094FF1F6093FF1FB8
:1034300000002041D094FF1F6492FF1F9CB5FF1F26
:103440003487FF1F3887FF1F7495FF1F0000C84295
:103450001493FF1F5C93FF1FC894FF1F2C87FF1F4F
:103460005487FF1FE094FF1F00007A4438B5164CC4
:10347000164A2368101D12F8011F904241EA0323E7
:10348000F9D12360124C03F100432360114BDB6F31
:10349000022B11D0104B1B68012B00D038BD0F48F8
:1034A00005F05CF921680D4805F0A8F903210C48E6
:1034B000BDE8384007F030BE20680A4D09F00CF82E
:1034C0002860FFF729F8E5E7A894FF1F2B93FF1F5B
:1034D000CC94FF1F6093FF1F9894FF1FD887FF1F96
:1034E000101301007C92FF1F30B53C4C3C4883B068
:1034F000214603F0DFFE236840F2C232934252D0ED
:10350000A3F58C621F2A48D9A3F5FC630F2B3FD982
:10351000344B1B68012B01D003B030BD324B1B680C
:10352000012BF9D1314B32481B6801930A22002349
:10353000019905F023F92268284B002ADB7945DB45
:103540002C492D4809F0E4FF2B480AF019F80146F0
:10355000294807F0E1FD2568204B15F0804526D16C
:10356000DB798BB1631925491A7A234809F0D0FF1A
:1035700021480AF005F801461F4807F0CDFD013546
:10358000E379EDB2AB42EDD8194805F0E7F8C3E7AF
:1035900012491B48FDF7FCF9BAE710491848FDF736
:1035A000F7F92368B0E7FFF761FF2368A8E7154D37
:1035B000114C0FCD0FC495E8030044F8040B2046CE
:1035C00020F81419152107F0A7FDDDE70E490A4878
:1035D00022F0604209F09CFFB6E700BF2493FF1F72
:1035E0009CB5FF1F3C87FF1F9894FF1F60B7FF1F0C
:1035F000D887FF1F3C1301008092FF1F6813010052
:103600007495FF1F5013010014130100A24B1B7887
:10361000052B00F0A1802DE9F04FA04CA04EA14D4C
:10362000626EE36DA048326083B02B60FDF7F4FA60
:10363000E16A09F043F908B100232B609A48FDF7CD
:10364000E9FAA16A09F058F910B1002333602B6040
:103650009548FDF72DFAE16809F04EF908B100230D
:103660002B609148FDF724FAE16809F045F908B1AB
:1036700000232B608C48894FFDF7F2F9216909F08E
:103680001DF900286ED0002333602B68854F002B76
:1036900053DD8548DFF80482FDF7BCFA216B09F0A1
:1036A0000DF9002840F0C480804B7F481B687B4F99
:1036B000012B00F0FD80FDF7FBF9E16980466069B0
:1036C00008F054FE0146404609F016F9002834D0AF
:1036D000286808F001FF82467348FDF7E9F9D7F83A
:1036E00014808346F969404608F040FE8146386EF2
:1036F00008F0F2FE0446F86D08F0EEFE214608F0F0
:1037000035FE49460746584608F030FE0146384621
:1037100008F036FF49460746404608F027FE0146B6
:10372000384608F0E1FF214608F022FE01465046E7
:1037300008F01CFE09F0EAF828603368584A002BAC
:10374000AFBF2B682B6800211160002B01DA00232A
:103750002B6003B0BDE8F08F5149524A00230B6043
:10376000136070475048FDF77BF9B96909F0A6F876
:10377000002888D13368DFF82891002B85DD4A487E
:10378000FDF74AFA796B09F0B7F8002840F0B380EA
:103790004548424FFDF764F9216909F0ADF800286A
:1037A00000F09F804048DFF8F480FDF759F9D4F825
:1037B000B8100746A06908F0DBFD0146384609F05D
:1037C0007DF800283FF461AF306808F085FE82463E
:1037D0003548FDF745F98346D8F86400D8F81870E5
:1037E00008F07AFE39468146584608F0BFFD494642
:1037F0008346002008F0BAFD0146584608F0C0FE96
:10380000D8F8B8108346384608F0B2FD394608F0BB
:10381000ADFD0146584608F067FF494608F0A8FD8F
:103820000146504608F0A2FD09F070F830602CE720
:10383000386808F051FE83461B48FDF7EBF901900C
:10384000D8F85C00D8F82CA008F046FE019B814611
:103850005146184608F08AFD49460190002008F0BC
:1038600085FD019B0146184608F08AFE51460190ED
:10387000D8F8300008F07AFD019B0146184608F0A0
:1038800033FF494608F074FD0146584608F06EFDC6
:1038900009F03CF8386007E7C494FF1F6093FF1FEE
:1038A000D094FF1F6492FF1F7495FF1F0093FF1FAA
:1038B000FDF7FEF8E1698046206A08F057FD0146F1
:1038C000404609F019F800283FF437AF286808F09F
:1038D00003FE82461E48FDF7EBF8D7F820808346AA
:1038E00000E71B48FDF7BCF8B96909F005F80028A6
:1038F0007FF458AFC9E6D9F8000008F0EDFD824624
:103900001348FDF789F90190786ED7F8348008F0F4
:10391000E3FD019B83464146184608F027FD01461A
:10392000584608F02DFE41468346B86A08F01EFD51
:103930000146584608F0D8FE002108F019FD01465E
:10394000504608F013FD08F0E1FFC9F800001FE73A
:103950007495FF1F08B5274804F000FF072126488B
:1039600007F0DAFB112005F01FFD0621F8B123480E
:1039700007F0D2FB122005F017FD062100B3204806
:1039800007F0CAFB122005F00FFD062108B31D4801
:1039900007F0C2FB132005F007FD062110BB1A48F3
:1039A00007F0BAFB1348BDE8084004F0D7BE17483B
:1039B00007F0B2FB122005F0F7FC06210028DED14B
:1039C000134807F0A9FB122005F0EEFC06210028A1
:1039D000DDD1104807F0A0FB132005F0E5FC06211F
:1039E0000028DCD00C4807F097FB0248BDE80840EF
:1039F00004F0B4BED887FF1F741301007C130100CC
:103A00008C1301009C130100B41301008413010006
:103A100094130100A4130100AC13010010B5254C50
:103A20002368042B27DC01210B2005F0B7FC0121C2
:103A30000C2005F0B3FC0121142005F0AFFC01219E
:103A4000152005F0ABFCFF21162005F027FBFF2118
:103A5000172005F023FBFF21052005F01FFBFF21A8
:103A6000062005F01BFB236801330A2B2360C4BF2B
:103A70000023236010BD00210B2005F08FFC0021E6
:103A80000C2005F08BFC0021142005F087FC0021A0
:103A9000152005F083FC0021162005F0FFFA002117
:103AA000172005F0FBFA0021052005F0F7FA0021A8
:103AB000D6E700BFE894FF1F10B5092182B09B48EC
:103AC00005F088FF222005F02DFF994BD3F89C309C
:103AD000012B984B1B7809D0052B10D8DFE813F089
:103AE00007010C0116011B0111010B00002B00F056
:103AF0001781052B03D107218F4805F06BFF22208A
:103B000005F010FFFF2005F00DFFFF2005F00AFF74
:103B10008A4CFF2005F006FF0821894805F05AFF6E
:103B20002168884804F06AFEFF2005F0FBFEFF20B4
:103B300005F0F8FEFF2005F0F5FE0921824805F0AA
:103B400049FF21687F4804F059FEFF2005F0EAFE96
:103B5000FF2005F0E7FEFF2005F0E4FE0C217B4886
:103B600005F038FF7A4B7B49186808F0BDFD08F076
:103B70005DF8002402460B460094724804F048FEAB
:103B8000FF2005F0CFFEFF2005F0CCFEFF2005F062
:103B9000C9FE0921704805F01DFF7048FCF7DEFFE3
:103BA00008F044F8009402460B46664804F030FEE4
:103BB000FF2005F0B7FEFF2005F0B4FEFF2005F062
:103BC000B1FE0C21664805F005FF6448FDF724F8B6
:103BD00008F02CF8009402460B465A4804F018FEF0
:103BE000FF2005F09FFEFF2005F09CFEFF2005F062
:103BF00099FE0D215B4805F0EDFE5848FDF70AF8E7
:103C000008F014F8009402460B464E4804F000FEFB
:103C1000FF2005F087FEFF2005F084FEFF2005F061
:103C200081FE0921504805F0D5FE4C48FCF766FF9F
:103C30004E4908F0A5FC07F0F9FF009402460B4638
:103C4000404804F0E5FDFF2005F06CFEFF2005F084
:103C500069FEFF2005F066FE0C21454805F0BAFE1E
:103C60003E48FCF7FDFE434908F08AFC07F0DEFF02
:103C7000009402460B46334804F0CAFDFF2005F0CD
:103C800051FEFF2005F04EFEFF2005F04BFE0D21FA
:103C9000394805F09FFE3148FCF70AFF354908F026
:103CA0006FFC07F0C3FF009402460B46254804F062
:103CB000AFFDFF2005F036FEFF2005F033FEFF20AC
:103CC00005F030FE09212D4805F084FE2C4B1D48DF
:103CD000196804F093FDFF2005F024FEFF2005F095
:103CE00021FEFF2002B0BDE8104005F01BBE0621FA
:103CF000244805F06FFE02E70721234805F06AFE1D
:103D0000FDE60B21214805F065FEF8E60721204875
:103D100005F060FEF3E608211E4805F05BFEEEE6C6
:103D200008211D4805F056FEE9E600BFBC1301005E
:103D30006093FF1FC494FF1F4C1101003487FF1FC5
:103D4000D4130100AC87FF1FE0130100EC13010046
:103D50001493FF1F0000C842FC1301007495FF1F5D
:103D6000081401001814010028140100000020416B
:103D70003414010000007A4444140100541401007A
:103D80002487FF1F1C110100241101002C110100C8
:103D90003811010040110100C81301002DE9F04164
:103DA0008D4DD5F8AC30042B3ED0032B6ED0012BBB
:103DB00000F09880022B01D0BDE8F081874C884844
:103DC000237240F20E32012321462260E37103F098
:103DD00079FB844B1B685B00FF2BC8BFFF230421CA
:103DE00040224FF441702060E17122726372286DAD
:103DF00008F072FB696908F0C3FB7B49054608F0CF
:103E00007BFD002800F0DE802946284608F0B0FA45
:103E100008F0A2FD80B20312E072A3726F497048ED
:103E2000BDE8F04103F04EBB6C4C704AA3792260B0
:103E300043F001030822E271A371286D08F04CFBE6
:103E4000696908F09DFB6A4908F09AFB08F084FD57
:103E5000644B684A1B68126893FBF2F380B2002639
:103E60001A120712607221465D48E372A27227722D
:103E700026736673A673E67303F024FBA279D5F864
:103E8000AC3066F30002032BA27190D1534C286D25
:103E9000A3720122E823072140F2FF2622726372F7
:103EA0002660E17108F018FB696908F069FB504968
:103EB00008F066FB08F050FD4A4B4E4A1B6812683A
:103EC00093FBF2F382B21E12171221464448637329
:103ED000E2722773A67303F0F5FAD5F8AC30012B24
:103EE0007FF468AF444B3D4C1B682360072280235E
:103EF0001020E271237205F057FA002869D13F4B78
:103F00001B68DFF8E0803B4F286D344E03EB8303E2
:103F10005B001A12A3726272D8F800303A6893FB01
:103F2000F2F31A126273A37308F0D6FA696908F003
:103F300027FB334B196808F019FA2D4908F020FBCC
:103F400008F00AFD80B20312314620732448E37260
:103F500003F0B8FA022005F05DFA2A4B1B682360D3
:103F6000072280231020E271237205F01DFA70BB36
:103F7000224B1B68286D03EB83035B001A127272DD
:103F8000B37208F0A9FA696908F0FAFA1E4B1968C9
:103F900008F0ECF9164908F0F3FA08F0DDFC82B2FB
:103FA00016123868D8F80030227393FBF0F30B49EF
:103FB0000B48A3731A12E672627303F083FAD5F802
:103FC000AC30F7E601229023A272E37226E70F4B92
:103FD000CFE70E4B94E700BF6093FF1FF094FF1FE5
:103FE0009CB5FF1F6492FF1F00004843F4E50618CC
:103FF000000020414C87FF1F6087FF1F4487FF1F81
:104000002894FF1F6487FF1F1C93FF1F4887FF1F13
:104010002DE9F041974ED6F8AC40042C82B04BD03D
:10402000032C77D0012C00F0A480022C02D002B027
:10403000BDE8F081904D019500274FF00408CDF8C0
:10404000008040F20E313B463A462C708B486F7030
:10405000AF70EF7004F03EF8404605F0DBF9884B96
:10406000306D1B685B00FF2BC8BFFF2340222A7006
:104070006B7008F031FA716908F082FA81490446E0
:1040800008F03AFC002800F0EB802146204608F0BA
:104090006FF908F061FC80B20312E870AB70002386
:1040A00004228DE824004FF441711A46734804F04D
:1040B00011F802B0BDE8F081306D6F4C724F08F01E
:1040C0000BFA716908F05CFA704908F059FA08F0C7
:1040D00043FC6B4B0194082180B2002540FA01F2A9
:1040E0001B683F6893FBF7F747FA01FE00912B46E8
:1040F00022706070E77084F802E025716571A57127
:10410000E571012262495D4803F0E4FFD6F8AC4056
:10411000032C87D1584D306DAC700122E8232A70F2
:104120006B7008F0D9F97169574C08F029FA5749B2
:1041300008F026FA08F010FC514A019580B2126886
:10414000246892FBF4F44FEA202E07210023271263
:1041500000911A46E8706C7140F2FF2185F804E086
:104160004648AF7103F0B6FFD6F8AC40012C7FF49F
:104170005CAF414D802310202B7005F015F900280D
:1041800075D1444B1B683E4F3F4C306DDFF8E880E3
:1041900003EB83035B001A12AB706A703B68226802
:1041A00093FBF2F31A126A71AB7108F095F9716919
:1041B00008F0E6F9384B196808F0D8F8334908F0E8
:1041C000DFF908F0C9FB354B019580B219684FEA59
:1041D000202E0023072200921A46287185F803E05A
:1041E000264803F077FF042005F014F980231020FF
:1041F0002B7005F0D9F8002837D1264B1B68306D9D
:1042000003EB83035B001A1288F8012088F8023060
:1042100008F062F9716908F0B3F9214B196808F0E8
:10422000A5F81A4908F0ACF908F096FB1D4B3A685E
:104230001968246892FBF4F480B2072700974FEACC
:10424000202E0023271201951A462871AC7185F89B
:1042500003E00A486F7103F03DFFD6F8AC40E4E696
:1042600001229023AA70EB7019E70F4BC6E70E4BA3
:1042700088E700BF6093FF1F0C93FF1F1095FF1F7F
:104280006492FF1F000048434C87FF1F000020413D
:10429000F4E506184487FF1F2894FF1F6087FF1F5F
:1042A0001C93FF1F6487FF1F4887FF1F38B5164DFB
:1042B000164A1748294603F041FF18B1154B1B68F1
:1042C000012B00D038BD12211348144C06F024FFF6
:1042D000296813480023102204F050FA104804F013
:1042E0003DFA04F1080514F8011F0D4800230A22C5
:1042F00004F044FA092006F093FFA542F3D10848E0
:10430000BDE8384004F02ABA0893FF1F0C93FF1F42
:104310001095FF1F0C95FF1F601401000B93FF1FEA
:10432000D887FF1FFA2810B504461BD0B0F5FA7FD6
:104330000FD11021134803F0B7FFC8B10F21124865
:1043400006F0EAFE114804F009FA114BA3F8C04048
:1043500010BD0F210F4806F0DFFE0C48BDE81040ED
:1043600004F0FCB90F21074803F09EFF0028E5D1B7
:104370001121094806F0D0FE0448BDE8104004F0C1
:10438000EDB900BF1095FF1F74140100D887FF1FFF
:104390006093FF1F9814010084140100F0B5924C43
:1043A000924D83B006F052FE23682860042B00F083
:1043B0009A82022B20D0092B67D0082B40F0F28084
:1043C000322800F0B283712868D031286AD106F013
:1043D00079FE002840F31C878548864E04F052FB86
:1043E000C0B286F8400002288ABF0021014686F844
:1043F0004010726C8048ACE3A0F13102422A51D8DF
:10440000DFE812F0CC07D807E607F8070B081A0810
:10441000500050005000500050005000500050001C
:10442000500050005000500050005000500050000C
:1044300050005000500050005000500050005000FC
:1044400050005000500050005000500050005000EC
:1044500050005000500050005000500050005000DC
:1044600050005000500050002708500050005000ED
:1044700050005000500050005000500050005000BC
:10448000500050004C0050002D0832287CD040F3E2
:104490006783332800F0AB86712803D10023732093
:1044A00023602860732808BF002B0CBF0120002068
:1044B000002867D04E4804F051F904214F4806F017
:1044C0002BFE4B4804F04AF910214D4806F024FE1B
:1044D000474804F043F913214A4806F01DFE4A4BB1
:1044E0004348196804F08AF9414804F037F9142167
:1044F000464806F011FE3E4804F030F91E214448BB
:1045000006F00AFE3A4804F029F91521414806F060
:1045100003FE374804F022F91E213F4806F0FCFD57
:10452000334804F01BF920213C4806F0F5FD3048E3
:1045300004F014F919213A4806F0EEFD2C4804F075
:104540000DF91621374806F0E7FD294804F006F971
:104550001221354806F0E0FD254804F0FFF80F2150
:10456000324806F0D9FD224804F0F8F80D21304811
:1045700006F0D2FD1E4804F0F1F82E4A0021012376
:104580001160236003B0F0BD0123236006F09AFDA3
:10459000002804DD164804F075FAFFF7C3FE782002
:1045A00023682860072B4BD1332801F0CB8300F31D
:1045B0002782312801F0D98332287FF473AF06F0C7
:1045C00081FD00283ADD0A480A4E04F05BFA07F044
:1045D00083FF194907F0D4FF61230122F0632260B1
:1045E0002B601846CBE200BFB494FF1F6092FF1F00
:1045F000D887FF1F6093FF1F7495FF1F841D010064
:104600008C1D0100A01D01002487FF1FB41D0100A7
:10461000CC1D0100EC1D0100041E0100241E010040
:10462000481E0100641E01007C1E0100901E010056
:10463000A01E01003C87FF1F6F12833A2368286881
:10464000062B40F08D80A0F13102402A3FF62AAFC0
:1046500001A151F822F000BF155300006152000083
:10466000775300003F5300006353000023520000C3
:1046700045520000A5440000A5440000A5440000E8
:10468000A5440000A5440000A5440000A544000086
:10469000A5440000A5440000A5440000A544000076
:1046A000A5440000A5440000A5440000A544000066
:1046B000A5440000A5440000A5440000A544000056
:1046C000A5440000A5440000A5440000A544000046
:1046D000A5440000A5440000A5440000A544000036
:1046E000A5440000A5440000A5440000A544000026
:1046F000A5440000A5440000A5440000A544000016
:10470000A5440000A5440000A5440000A544000005
:10471000A5440000A5440000A5440000A5440000F5
:10472000A5440000A5440000A5440000A5440000E5
:10473000A5440000A5440000A5440000A5440000D5
:10474000A5440000A5440000A5440000A5440000C5
:10475000A5440000A54400009D440000236828688B
:10476000052B15D1332801F0168340F35D813528E0
:1047700001F04983C1F2318371287FF493AEB54AC9
:10478000002373201360236028608BE62368286869
:10479000032B40F0A480A0F13002422A3FF682AE03
:1047A00001A151F822F000BFB5480000555B0000A0
:1047B0007D5B0000395A00005B5A00007D5A000002
:1047C000A55A0000CD5A0000EB5A00000F5B000014
:1047D000A5440000A5440000A5440000A544000035
:1047E000A5440000A5440000A5440000A544000025
:1047F000A5440000A5440000A5440000A544000015
:10480000A5440000A5440000A5440000A544000004
:10481000A5440000A5440000A5440000A5440000F4
:10482000A5440000A5440000A5440000A5440000E4
:10483000A5440000A5440000A5440000A5440000D4
:10484000A5440000A5440000A5440000A5440000C4
:10485000A5440000A5440000A5440000A5440000B4
:10486000A5440000A5440000A5440000375B0000FB
:104870007B550000DF590000FD5900001B5A000065
:10488000DB5B00003155000055550000A5440000D9
:10489000A5440000A5440000A5440000A544000074
:1048A000A5440000A5440000A5440000D359000021
:1048B000A55B000006F006FC002841F33C82664838
:1048C000664E04F0DFF80127034601466222644881
:1048D000736527602A60FCF713F923682868012BA9
:1048E0007FF4E0AD4BE1A0F13002412A3FF6DAADB2
:1048F00001A151F822F000BFF75400002D5500002F
:10490000CB5400000F550000D3540000D7540000D2
:1049100077540000CF54000091540000A9540000C7
:10492000A5440000A5440000A5440000A5440000E3
:10493000A5440000A5440000A5440000A5440000D3
:10494000A5440000A5440000A5440000A5440000C3
:10495000A5440000A5440000A5440000A5440000B3
:10496000A5440000A5440000A5440000A5440000A3
:10497000A5440000A5440000A5440000A544000093
:10498000A5440000A5440000A5440000A544000083
:10499000A5440000A5440000A5440000A544000073
:1049A000A5440000A5440000A5440000A544000063
:1049B000A5440000A5440000A5440000F3540000F5
:1049C000A5440000A5440000A5440000A544000043
:1049D000A5440000A5440000A5440000A544000033
:1049E000A5440000A5440000A5440000A544000023
:1049F000A5440000A5440000A54400009D4400001B
:104A000034287FF449AD06F05DFB00287FF716AE31
:104A10001148124E04F036F861230122A6F8B400C2
:104A200022602B601846AAE0312801F0C5813228A7
:104A30007FF438AD06F046FB00287FF7A7AE0648A6
:104A4000064E04F01FF801226B23C6F8980022607E
:104A50002B6009E03493FF1FD887FF1F6093FF1F6F
:104A60007495FF1F06F0F2FA06F02CFB0028F9D12E
:104A7000B24803F073FEB14803F070FEAF4803F094
:104A80006DFEAE4803F06AFEAC4803F067FE2121DC
:104A9000AB4806F041FBA94803F060FE1521A94888
:104AA00006F03AFBD6F89010A44803F0A7FE0221C6
:104AB000A54806F031FBA14803F050FE1E21A34893
:104AC00006F02AFBD6F898109C4803F097FE0321C5
:104AD0009F4806F021FB994803F040FE1E219D48A7
:104AE00006F01AFBD6F89410944803F087FE93481A
:104AF00003F034FE1D21984806F00EFBD6F8A010F6
:104B00008E4803F07BFE8D4803F028FE1E2193485B
:104B100006F002FBD6F8A410884803F06FFE874821
:104B200003F01CFE052323602CE506F0CBFA0028D9
:104B300040F3738381488A4E03F0A4FF07F0CCFC56
:104B4000884907F01DFD96F8401003460246864846
:104B50007364FBF7D7FF01236920236028600EE010
:104B600031287FF49FAC7E4E96F8BE30B3FA83F3C3
:104B70005B090122782086F8BE3022602860A0F10F
:104B80005203262B01F2CE80DFE813F04708CC0851
:104B9000CC08CC08CC08CC08CC08CC08CC08CC0875
:104BA000CC08CC08CC08CC08CC0829005B0AC5028C
:104BB0000E025A01CC08CC08CC080C01CC08580ACB
:104BC000CC08CC08CC08CC08CC084C08CC08CC08C5
:104BD000CC08CC08CC08CC089D0006F037FA06F0CB
:104BE00071FA05460028F8D154485D4E03F0B6FD31
:104BF000524803F0B3FD514803F0B0FD4F4803F0B5
:104C0000ADFD4E4803F0AAFD1F21584806F084FA76
:104C10004A4803F0A3FD1C21554806F07DFA706A4E
:104C2000544907F0ADFC07F001F8009502460B4629
:104C3000424803F0EDFD02214F4806F06DFA3F486F
:104C400003F08CFD23214D4806F066FAF06B4949CC
:104C500007F096FC06F0EAFF009502460B4637483F
:104C600003F0D6FD0221444806F056FA334803F01B
:104C700075FD1921424806F04FFAB06B06F0D6FFD9
:104C800002250B46024600952C4803F0C1FD29463B
:104C90003C4806F041FA294803F060FD19213A48E2
:104CA00006F03AFAB6F8B410244803F0A7FD032141
:104CB000364806F031FA214803F050FD07232360FF
:104CC00060E406F0C3F906F0FDF90028F9D11B48AD
:104CD000234D03F043FD194803F040FD174803F04E
:104CE0003DFD164803F03AFD144803F037FD12214C
:104CF000274806F011FA114803F030FD0F4803F081
:104D00002DFD0E4803F02AFD1921224806F004FA71
:104D100095F8BE30002B41F0928004211E4806F029
:104D2000FBF9064803F01AFD13211C4806F0F4F9BC
:104D3000024803F013FD0923236023E4D887FF1FF3
:104D4000A0170100C4170100B0160100DC17010014
:104D5000C8110100FC1701001C1801003C180100DB
:104D60006093FF1F6F12833A7495FF1FFC160100BA
:104D70001C17010000007A449C1501003C1701003B
:104D8000601701007C170100801701009C170100CB
:104D9000681E0100CC140100E81401004015010058
:104DA00006F054F906F08EF905460028F8D16D4852
:104DB0006D4E03F0D3FC6B4803F0D0FC694803F060
:104DC000CDFC684803F0CAFC664803F0C7FC152117
:104DD000664806F0A1F9634803F0C0FC1821644856
:104DE00006F09AF92B460A2296F840105D4803F027
:104DF000C5FC5C4803F0B2FC28215E4806F08CF943
:104E0000706C5D4907F0BCFB06F010FF00950B4687
:104E10000246544803F0FCFC0221584806F07CF995
:104E2000504803F09BFC1321554806F075F94D4896
:104E300003F094FC08232360FFF7A4BB06F006F9F7
:104E400006F040F905460028F8D14648464E03F0E2
:104E500085FC444803F082FC424803F07FFC414853
:104E600003F07CFC3F4803F079FC1121454806F033
:104E700053F93C4803F072FC2821434806F04CF9F2
:104E800070693D4907F07CFB06F0D0FE00950246B4
:104E90000B46344803F0BCFC0221384806F03CF9CC
:104EA000304803F05BFC1621384806F035F9F0690C
:104EB000314907F065FB06F0B9FE00950B46024646
:104EC000284803F0A5FC02212C4806F025F92548C6
:104ED00003F044FCD6F8AC30002B32DD1D212C4809
:104EE00006F01AF9F06D07F0F7FA2A4907F048FBC7
:104EF00006F09CFE022502460B460095194803F079
:104F000087FC0121244806F007F9164803F026FC27
:104F10001F21224806F000F9306E07F0DDFA1D4926
:104F200007F02EFB06F082FE009502460B460D4868
:104F300003F06EFC0121184806F0EEF8094803F072
:104F40000DFC1121164806F0E7F8D6F8AC30052B19
:104F500000F29886DFE813F0DC06E106D706D206F9
:104F6000CD069206D887FF1F6093FF1F4C1E0100DD
:104F7000541501007015010000007A449C150100D1
:104F800040150100F01D0100A0150100CC15010025
:104F9000E4150100CDCCCC3DD81A01000416010067
:104FA0002416010006F052F806F08CF80028F9D11A
:104FB000B648B74D03F0D2FBB44803F0CFFBB3487B
:104FC00003F0CCFBB14803F0C9FBB04803F0C6FBCB
:104FD0001321B04806F0A0F8AC4803F0BFFB0D2148
:104FE000AD4806F099F8A94803F0B8FB0F21AB488B
:104FF00006F092F8AA4BA548196803F0FFFBA348F6
:1050000003F0ACFB1321A74806F086F8A64B9F4897
:10501000196803F0F3FB9D4803F0A0FB1221A3489D
:1050200006F07AF8A24B9948196803F0E7FB974815
:1050300003F094FB11219F4806F06EF89E4B9348B5
:10504000196803F0DBFB914803F088FB0E219B48B5
:1050500006F062F8D5F89C108C4803F0CFFB8B4823
:1050600003F07CFB1921964806F056F8954B8748CB
:10507000196803F0C3FB854803F070FB11219248C7
:1050800006F04AF8914B8148196803F0B7FB7F4856
:1050900003F064FB10218E4806F03EF88D4B7B48F0
:1050A000196803F0ABFB794803F058FB1C218A48D0
:1050B00006F032F8894B7548196803F09FFB734876
:1050C00003F04CFB1E21864806F026F895F8BD300B
:1050D000002B00F0AB860D21824806F01DF86B48CE
:1050E00003F03CFB1521804806F016F87F4B67481B
:1050F000196803F083FB654803F030FB13217C48FB
:1051000006F00AF8614803F029FB04232360FFF747
:1051100039BA05F09BFF05F0D5FF0028F9D15B48AF
:105120005B4E03F01BFB594803F018FB574803F094
:1051300015FB564803F012FB544803F00FFB1F21E8
:105140006C4805F0E9FF514803F008FB1E216A484E
:1051500005F0E2FF4D4803F001FB1A21674805F016
:10516000DBFFF36F022B00F0E986032B00F0DD86F6
:10517000012B00F0D1860921614805F0CDFF43489D
:1051800003F0ECFA14215F48414F05F0C5FFB16F01
:105190003E4803F033FB3D4803F0E0FA1C215A4837
:1051A00005F0BAFFD6F88010384803F027FB3748DF
:1051B00003F0D4FA1C21554805F0AEFFD6F8A8102C
:1051C000324803F01BFB314803F0C8FAF56F25F0B5
:1051D0000205012D00F06F861321454805F09CFF64
:1051E0002A4803F0BBFA02232360FFF7CBB905F08E
:1051F00069FF002840F33B812448254E03F042FC20
:105200007823012286F8C20022602B601846B6E49B
:105210001F4E96F84000FFF7E6B823682868FFF7AE
:10522000C1B905F04FFF00287FF798AA1748184E1C
:1052300003F028FC65230122C6F8B00022602B6031
:1052400018469CE4124B93F8BC20002A00F0E98534
:10525000002283F8BC2001236520236028608EE4AF
:1052600005F030FF00287FF779AA0848084E03F0C0
:1052700009FC07F031F9264907F036FA65230122C7
:10528000F06122602B60184679E400BFD887FF1FC9
:105290006093FF1F5C180100701801008018010066
:1052A0009894FF1F901801000495FF1FA418010097
:1052B000C094FF1FB8180100EC94FF1FCC18010028
:1052C000DC180100AC94FF1FF81801003493FF1F95
:1052D0000C1901000493FF1F201901005C87FF1FB8
:1052E0004019010060190100801901000C95FF1F91
:1052F0004015010098190100B8190100D8190100E2
:10530000501A01005C1A0100741A0100941A01007D
:1053100000007A4405F0D6FE00287FF71FAA9E48B9
:105320009E4E03F0AFFB07F0D7F89D4907F0DCF97C
:1053300065230122706122602B6018461FE405F08E
:10534000C1FE00287FF70AAA9348944E03F09AFB07
:1053500000EB800043000122652033662260286054
:105360000DE48E4AD2F8AC300133052BC8BF0023C0
:10537000C2F8AC306FE705F0A5FE00287FF7EEA974
:105380008548864E03F07EFB00EB8000430001223F
:105390006520F36522602860FFF7F1BB7F4EB36F95
:1053A000B3FA83F35B0901226320B36722602860AC
:1053B000FFF7E5BB794ED6F88030B3FA83F35B098B
:1053C00001226320C6F8803022602860FFF7D7BB37
:1053D0000123236005F076FE002805DD6E486F4E40
:1053E00003F050FBC6F8A800012363202360286067
:1053F000FFF7C5BB0123236005F064FE002807DD2D
:105400006548664E03F03EFB07F066F8C6F88C0070
:10541000632028602368FEF7D0BF0123236005F0D6
:1054200051FE0028F4DD5C485C4E03F02BFB07F0D6
:1054300053F8C6F88800EBE70123236005F042FE2D
:105440000028E5DD5448554E03F01CFBA6F8B600D5
:10545000DEE7FDF7D7FD23682868FEF7ACBF4F4AAB
:10546000D36F0133032BC8BF0023D367BCE7236886
:105470002868FEF7A2BF01234A482360FBF75EFAC3
:10548000494A2368106064222A606420FEF793BFB3
:10549000464A1368B3FA83F35B0901216420136061
:1054A00021602860FFF76BBB0123236005F00AFE33
:1054B000002800F3F8843E4B1A68042AC4BF022275
:1054C0001A6064232B602368DFE73A4AE1E73A4A2F
:1054D000DFE73A4ADDE7314ED6F89C30B3FA83F382
:1054E0005B0901226420C6F89C3022602860FFF727
:1054F00046BB334ACDE7294E96F8BD3001225340D2
:10550000642086F8BD3022602860FFF738BB2D4A42
:105510002D4F1368002B0CBF012300234FF0010017
:105520001360206040F013850346ACE7274AB0E7DC
:1055300005F0C8FD00280DDD1748184E03F0A2FA4B
:1055400006F0CAFF164907F0CFF801226223306245
:1055500022602B6005F0B6FD00280EDD0E480F4ED0
:1055600003F090FA06F0B8FF0D4907F0BDF80122EC
:105570006223C6F8B80022602B6005F0A3FD002866
:1055800040F3D9830448054E03F07CFA01226223DC
:10559000B06622602B601DE0D887FF1F6093FF1F5D
:1055A00000007A447495FF1FAC94FF1F0493FF1F03
:1055B0005C87FF1F0495FF1F3493FF1FEC94FF1FB0
:1055C0000C95FF1FC094FF1FB494FF1F9894FF1FFA
:1055D00005F03CFD05F076FD05460028F8D1C248EF
:1055E00003F0BCF8C04803F0B9F8BF4803F0B6F8C0
:1055F000BD4803F0B3F8BC4803F0B0F81521BB4830
:1056000005F08AFDB84803F0A9F81421B84805F060
:1056100083FDB54803F0A2F81B21B64805F07CFDD8
:10562000B14803F09BF81321B34805F075FDAE486F
:1056300003F094F8AC4803F091F8AB4803F08EF80F
:105640002021AE4805F068FDF068AD4906F098FFEE
:1056500006F0ECFA009502460B46A34803F0D8F892
:105660000221A84805F058FD0221A74805F054FD85
:105670009D4803F073F82121A44805F04DFD3069E1
:105680009F4906F07DFF06F0D1FA009502460B46D1
:10569000954803F0BDF802219A4805F03DFD02212E
:1056A000994805F039FD904803F058F81F219848B3
:1056B00005F032FDB06A06F0B9FA022702460B4641
:1056C0000097894803F0A4F80121924805F024FDD1
:1056D00039468D4805F020FD834803F03FF820212E
:1056E0008D4805F019FDF06A06F0A0FA0097024611
:1056F0000B467D4803F08CF80121864805F00CFD2F
:105700003946814805F008FD774803F027F8232142
:10571000824805F001FDB06C794906F031FF06F0D2
:1057200085FA009502460B466F4803F071F839463A
:10573000744805F0F1FC3946734805F0EDFC6A4801
:1057400003F00CF81F21764805F0E6FCF06C6C497C
:1057500006F016FF06F06AFA009502460B4662480C
:1057600003F056F83946674805F0D6FC39466648D6
:1057700005F0D2FC5C4802F0F1FF1921694805F000
:10578000CBFCB16D584803F039F83946664805F04E
:10579000C3FC39465C4805F0BFFC534802F0DEFF0D
:1057A0001821624805F0B8FC706E06F095FE60495D
:1057B00006F0E6FE06F03AFA009702460B464A4823
:1057C00003F026F801215B4805F0A6FC39464E4857
:1057D00005F0A2FC444802F0C1FF2B21564805F019
:1057E0009BFCB069464906F0CBFE06F01FFA009517
:1057F00002460B463C4803F00BF83946414805F099
:105800008BFC3946404805F087FC374802F0A6FF7C
:105810001F214A4805F080FC716D334802F0EEFF0D
:105820003946394805F078FC2F4802F097FF2021CF
:10583000434805F071FC316D2B4802F0DFFF39461B
:10584000314805F069FC284802F088FF10213D48E6
:1058500005F062FCB16E244802F0D0FF39462948B9
:1058600005F05AFC3946284805F056FC1E4802F05F
:1058700075FF1321344805F04FFCF16E1A4802F011
:10588000BDFF0121314805F047FC39461E4805F0AF
:1058900043FC154802F062FF10212D4805F03CFC46
:1058A000316F114802F0AAFF3946164805F034FC62
:1058B0003946154805F030FC0B4802F04FFF142123
:1058C000244805F029FC716F074802F097FF012179
:1058D0001E4805F021FC39460B4805F01DFC024826
:1058E00002F03CFF162137E0D887FF1F201B010084
:1058F000381B0100501B0100401501006C1B01000A
:1059000000007A449C15010080130100901B0100E7
:10591000B41B0100D41B0100D81B0100FC1B0100BB
:10592000201C0100401C01005C1C0100601C0100E7
:10593000CDCCCC3DD81A01007C1C0100A81C010074
:10594000C81C0100EC1C0100001D0100141D010019
:10595000181D01002C1D0100BB4805F0DDFB306A5D
:10596000BA4906F00DFE06F061F9009502460B46B5
:10597000B74802F04DFF3946B64805F0CDFB394631
:10598000B54805F0C9FBB24802F0E8FE2421B3484F
:1059900005F0C2FBD6F8B800AC4906F0F1FD06F000
:1059A00045F900950B460246A94802F031FF3946F9
:1059B000A84805F0B1FB3946A74805F0ADFBA4485F
:1059C00002F0CCFEA24802F0C9FE03232360FEF7DA
:1059D000D9BD0022732322602B60FEF76BBD05F05A
:1059E00071FB002840F3A78199489D4E03F04AF8C7
:1059F00001226223F06622602B60EBE505F062FB7A
:105A0000002840F398819248954E03F03BF801221C
:105A10006223306722602B60DCE505F053FB002831
:105A200040F389818A488E4E03F02CF801226223CC
:105A3000706722602B60CDE505F044FB002840F341
:105A40007A818348864E03F01DF806F045FD012259
:105A50006223B06222602B60BCE505F033FB0028B6
:105A600040F369817A487E4E03F00CF806F034FD6D
:105A700001226223F06222602B60ABE505F022FB7D
:105A8000002840F358817248754E02F0FBFF06F083
:105A900023FD6E4906F028FE01226223B0642260D5
:105AA0002B6097E505F00EFB002840F34481684821
:105AB0006B4E02F0E7FF06F00FFD644906F014FE9E
:105AC00001226223F06422602B6083E505F0FAFA7C
:105AD000002840F330815E48614E02F0D3FF01227E
