:1000000000800020BD010000999400005194000080
:10001000519400005194000051940000519400004C
:1000200051940000519400005194000099940000F4
:10003000999400005194000061890000658A0000D5
:1000400099940000999400009994000099940000FC
:1000500099940000999400009994000099940000EC
:1000600099940000999400009994000099940000DC
:1000700099940000999400009994000099940000CC
:1000800099940000999400009994000099940000BC
:1000900099940000999400009994000099940000AC
:1000A000999400009994000099940000999400009C
:1000B00099940000357D0000417D0000457D0000E1
:1000C000517D0000557D0000597D0000999400008D
:1000D000999400009994000099940000999400006C
:1000E000999400009994000099940000999400005C
:1000F0009994000095B90000999400008DA100002A
:100100009994000011A700009994000099940000B0
:10011000999400009994000099940000999400002B
:10012000999400009994000099940000999400001B
:10013000999400009994000099940000999400000B
:1001400099940000999400009994000099940000FB
:1001500099940000999400009994000099940000EB
:1001600099940000A1A900009994000099940000BE
:1001700099940000999400009994000099940000CB
:1001800099940000999400009994000099940000BB
:1001900099940000999400009994000099940000AB
:1001A000999400009994000099940000999400009B
:1001B000999400009994000099940000564B4CF2D9
:1001C000205210B51A804DF628121A8000BF00BFC9
:1001D00009F066F9514B4FF010621A60504A9A606C
:1001E000504ADA60504A136813F4807304D14F49BF
:1001F0000B604FF4A85313604D4B1A78110703D5C9
:100200001A7842F008021A704A4B4B492A221A7097
:100210004A4A4B4B8B4204D252F8040F43F8040B6A
:10022000F8E7484B484900228B4202D243F8042B9E
:10023000FAE74649464A002352F8230041F82300D2
:1002400001336F2BF8D1434B434A802103F8011B44
:100250009342FBD1414B3D4A1A60414B8A221A70AE
:10026000A3F5805324225A70A0221A709A7992071B
:10027000FCD59A79D406FCD43A4A937903F00C035E
:10028000082B384BF9D103221A7140225A719A79FE
:100290009006FCD5334A9179324B4906FBD5324A58
:1002A000324911600221516020221A709A7902F0BD
:1002B0000C020C2AFAD12E4B2E4A1A602E4B2F4AD2
:1002C0001A6000225A60072243F8042C2C4AC3F813
:1002D0000C2D62B609F0C4FB144B1B68DA0705D578
:1002E000284809F0A1F9284B284A1A60284B1B78A6
:1002F0005B0609D5244C254B22689A4204D121483B
:1003000009F092F9002323600CF028FE09F0CEF8E2
:1003100008F0FCFFFEE700BF0E20054030800440DF
:10032000823F04000100002B10D0034014D0034092
:1003300002D0074000E007403892FF1FCC2C01009C
:100340002087FF1F3892FF1F38BAFF1F0082FF1F50
:100350000000000000E400E05FE400E008ED00E0E1
:100360000050064000400640448004400000030165
:1003700004800440C010050014E000E0FF76010096
:1003800000002020882C545E1CE00340A5C3945A32
:1003900000F00740FFFFFFFFFFFFFFFFFFFFFFFF32
:1003A000FFFFFFFFFFFFFFFFFFFFFFFFFFFFFFFF5D
:1003B000FFFFFFFFFFFFFFFFFFFFFFFFFFFFFFFF4D
:1003C000FFFFFFFFFFFFFFFFFFFFFFFFFFFFFFFF3D
:1003D000FFFFFFFFFFFFFFFFFFFFFFFFFFFFFFFF2D
:1003E000FFFFFFFFFFFFFFFFFFFFFFFFFFFFFFFF1D
:1003F000FFFFFFFFFFFFFFFFFFFFFFFFFFFFFFFF0D
:10040000FFFFFFFFFFFFFFFFFFFFFFFFDEF9FFFF23
:1004100010B5054C237833B9044B13B10448AFF33E
:1004200000800123237010BD3892FF1F00000000E0
:10043000C82C0100084B10B51BB108490848AFF3A0
:1004400000800848036803B910BD074B002BFBD0A0
:10045000BDE81040184700BF000000003C92FF1F9D
:10046000C82C01003892FF1F000000002DE9F04168
:10047000002600F5C67400F5D0774FF0000854F858
:10048000045F0E4928460CF013FD0D4950B1284673
:100490000CF0F0FC30B1304629460CF045FA08F17A
:1004A0000108064640460CF0F3FA014630460CF0CF
:1004B000F7FBBC420646E2D1BDE8F0810000A0C1D6
:1004C00000001643F0B4194F0024031F00F180010F
:1004D00000F5827200F17C0643F8044FB34241F804
:1004E000047F4FF0000542F8044FF5D10023104A75
:1004F0001049C0F88C51C0F89051C0F89451C0F820
:100500009851C0F89C51C0F8A051C0F8B051C0F843
:10051000A421C0F8AC21C0F8A81180F8B83180F847
:10052000B93180F8D031F0BC704700BF0000A04066
:10053000000048430000C8C238B590F8D0310B2BFA
:100540000546144607D8702966D0E02931D06029C5
:1005500000F09B8038BD70293AD0E02929D060296D
:10056000F8D1137A507A1B0203F47063181805D07F
:100570000CF08EFA63490CF0DFFA6860A37AE07A37
:100580001B0203F47063181805D00CF081FA5D4962
:100590000CF0D2FAA860237B607B1B0203F470632B
:1005A0001818D7D00CF074FA56490CF0C5FAE86068
:1005B00038BDE37BA07B03EB00200CF069FA5249C5
:1005C0000CF0BAFA51490CF0AFF9C5F8900138BDFA
:1005D000137A507A1B0203F4FE43181805D00CF06E
:1005E00057FA48490CF0A8FA6861A07AE37A13EB4D
:1005F000002005D00CF04CFA42490CF09DFAA8619D
:10060000207B637B13EB0020A4D00CF041FA3D4922
:100610000CF092FAE86138BD137A507A1B0203F4A9
:100620007063181805D00CF033FA36490CF084FAD0
:100630006861A37AE07A1B02C34208D003F47063B6
:1006400018440CF025FA2F490CF076FAA861237BA8
:10065000607B1B02C34208D003F4706318440CF0A3
:1006600017FA28490CF068FAE861A37BE07B1B02CB
:10067000C3423FF46FAF03F4706318440CF008FA00
:1006800020490CF059FA286238BD137A507A1B02BF
:1006900003F4FE42C24208D003F4706318440CF025
:1006A000F7F918490CF048FA6860A37AE07A1B025F
:1006B000C34208D003F4706318440CF0E9F91149FF
:1006C0000CF03AFAA860237B607B1B02C34208D07F
:1006D00003F4706318440CF0DBF90A490CF02CFAAF
:1006E000E860A37BE07B1B02C3423FF433AF03F41B
:1006F000706318440CF0CCF902490CF01DFA286123
:1007000038BD00BF0AD7A33ADDB504BD00001643CB
:10071000D0F8DC01704700BF90F8C001704700BFFF
:1007200090F8BC01704700BF90F8C401704700BF4B
:1007300090F8C801704700BF202994BF50F82100ED
:10074000002070472DE9F0410B4E8046041F00F158
:100750007C0754F8045F314628460CF08BFB30B11F
:10076000D8F8B41128460CF0A3FB00B12E46BC42C9
:10077000EFD13046BDE8F081000020412DE9F04185
:10078000D0F8B4714FF00008041F00F17C0654F853
:10079000045F394628460CF08BFB084948B12846CF
:1007A0000CF068FB414620B128460CF081FB00B1FB
:1007B000A846B442EBD14046BDE8F0810000A0401D
:1007C0002DE9F0470023D0F8B471C0F8DC3182463F
:1007D0001C464FF000099846061F56F8045F38463D
:1007E00029460CF047FB0E4960B128460CF042FB4D
:1007F00040B1484629460CF097F808F101088146B7
:10080000CAF8DC410134202CE7D1CAF8D481404633
:100810000CF03EF9014648460CF042FABDE8F0877C
:1008200000007042D0F8D401704700BFD0F8CC313E
:1008300070B5044683BBFFF719FE4FF07C510CF0F6
:1008400037FB40B3D4F890614FF07C5130460CF048
:100850002FFBD4F8945118BBD4F898414FF07C5139
:1008600028460CF025FB58B1294630460CF020FBF9
:1008700030B1214628460CF0FDFA08B12C4625E09F
:100880004FF07C5120460CF013FB20B12846214646
:100890000CF00EFBA0B970BD633350F82300CCE719
:1008A000304629460CF0E6FAD4F898410028D5D015
:1008B000304621460CF0DEFA0028CFD0344605E061
:1008C000304621460CF0F4FA0028E4D0204670BDF2
:1008D000D0F8CC3170B5044683BBFFF7C7FD4FF0AD
:1008E0007C510CF0E5FA40B3D4F890614FF07C51A4
:1008F00030460CF0DDFAD4F8945118BBD4F8984186
:100900004FF07C5128460CF0D3FA58B129463046B6
:100910000CF0B0FA30B1214628460CF0C9FA08B103
:100920002C4625E04FF07C5120460CF0C1FA20B156
:10093000284621460CF09EFAA0B970BD633350F8EA
:100940002300CCE7304629460CF0B2FAD4F898419F
:100950000028D5D0304621460CF0AAFA0028CFD086
:10096000344605E0304621460CF084FA0028E4D0F5
:10097000204670BDD0F8CC310BB9FFF777BD63339B
:1009800050F82300704700BF2DE9F8434FF00008EE
:10099000D0F8B471C0F88C818146041F00F17C0648
:1009A00054F8045F394628460CF082FA084950B1E1
:1009B00028460CF05FFA30B1404629460BF0B4FFF0
:1009C0008046C9F88C01B442EAD14046BDE8F883BC
:1009D0000000704202299ABF643150F821000020C3
:1009E000704700BF102998BF80F8D011704700BF32
:1009F00090F8D001704700BF90F8B801704700BF71
:100A000090F8B901704700BFC0F8CC11704700BF23
:100A100080F8B811704700BF80F8B911704700BF67
:100A200030B5C0F8B41183B008460BF0DBFB074CBF
:100A3000022502460B460095204608F0C1F92046E3
:100A400003B0BDE8304008F061B900BFD887FF1F90
:100A500070B500F500550646183500F138042046FB
:100A600004F5F074FFF72EFDAC42F8D106F50675DB
:100A7000012428460021FFF7CBFF214628460134F8
:100A8000FFF7B0FF112C05F5F075F2D142F220040A
:100A900000250548054A064B355500213062716234
:100AA000B262F362304670BD00007A4400004843F1
:100AB0000000C8C270B500F5EC46583600F5067463
:100AC000002508E001252046002104F5F074FFF719
:100AD000A3FFB4420AD02046FFF78EFF0028F2D0D1
:100AE0002046FFF78DFF0028ECD170BD284670BD71
:100AF00042F224032DE9F041002200F5F15500F502
:100B000000578046C2501835243700F5067403E0BC
:100B100004F5F074AC420ED02046FFF76DFF0028BC
:100B2000F6D020463E68FFF77DFE04F5F0743044B1
:100B3000AC423860F0D142F2240358F80300BDE81B
:100B4000F08100BFF8B50F46096801F00F050135C7
:100B5000C5EB051400EB441000F13804204601F009
:100B6000F006FFF745FF854203D029462046FFF7F0
:100B700039FF20460121FFF74BFF20460121FFF7F7
:100B80004BFF3A4631462046BDE8F840FFF7D4BC5B
:100B900070B5002300F5005605460361183600F5D0
:100BA000067403E004F5F074A64223D02046FFF754
:100BB00023FF0028F6D02046FFF7E6FE014628690D
:100BC0000BF0B2FE28612046FFF730FEA96A0CF058
:100BD00051F920BB2046FFF77BFEE96A0CF068F96B
:100BE0000028DFD02046FFF773FE04F5F074A6421C
:100BF000E862DBD168690BF04BFF014628690CF015
:100C00004FF8696A286104460CF052F900B16C6231
:100C1000296A20460CF02EF900B12C6270BD2046E6
:100C2000FFF704FEA862D5E770B5124B836100F5AB
:100C300000550646183500F5067403E004F5F07417
:100C4000AC4214D02046FFF7D7FE0028F6D020464D
:100C5000FFF778FDB1690CF00DF90028EED02046C1
:100C6000FFF770FD04F5F074AC42B061EAD1B069F1
:100C700070BD00BF0000A04070B5002300F5005516
:100C80000646C361183500F5067403E004F5F074F8
:100C9000AC4214D02046FFF7AFFE0028F6D0204625
:100CA000FFF76CFDF1690CF003F90028EED0204647
:100CB000FFF764FD04F5F074AC42F061EAD1F0692D
:100CC00070BD00BF0069704741617047F8B50F46BD
:100CD000164600F50674012504E00135112D04F5D2
:100CE000F0741BD02046FFF787FE0028F5D0294678
:100CF0000B4808F05BF80A4808F008F878200AF07A
:100D000069FD20463946FFF77FFE01352046314612
:100D1000FFF786FE112D04F5F074E3D1F8BD00BF96
:100D2000D887FF1F2DE9F84342F21C0300F5005558
:100D30000027C7502E462B4A2B4B426380464FF06C
:100D40000009036318351C3600F5067403E004F54A
:100D5000F074A54214D02046FFF74EFE0028F6D0CE
:100D60003368013333602046FFF704FE1F490CF05F
:100D70009FF890B904F5F074A54207F10107EAD194
:100D800042F21C0358F80300C01B0BF081FE014621
:100D900048460BF085FFBDE8F8832046FFF7EAFDE3
:100DA000014648460BF0C0FD81462046FFF790FD06
:100DB000D8F830100CF07CF870B92046FFF736FDFB
:100DC000D8F834100CF056F80028C0D02046FFF7B1
:100DD0002DFDC8F83400BAE72046FFF779FDC8F8C2
:100DE0003000EAE700C0794400C079C400008CC23A
:100DF000006B7047406B7047F8B500F5005507462B
:100E00000026183500F5067403E004F5F074AC42D2
:100E100010D02046FFF7F0FD0028F6D02046FFF75F
:100E2000CFFC014630460BF07FFD04F5F074AC4278
:100E30000646EED142F21C03F8580BF029FE01469B
:100E400030460BF02DFFF8BD2DE9F04F93B004466E
:100E50000F91002A40F0D78115461046C84900F08E
:100E6000E5FDC749284600F0E1FDC549284600F0E8
:100E7000DDFD42F21C03204654F803B0FFF738FEB4
:100E80008146206966690BF0ADF9CDE91001204675
:100E9000FFF7B2FF82462046A769D4F81C80FFF70F
:100EA00041FF0BF09FF9CDE90C01394640460BF0AC
:100EB00039FDB4490BF040FE0BF094F9CDE90A017D
:100EC00040460BF08FF9CDE9080138460BF08AF95E
:100ED000CDE9060150460BF085F9DDE91023CDE997
:100EE0000401CDE90223A84900964B465A462846FC
:100EF00000F09CFDA249284600F098FD04F5067418
:100F00004FF0010ADDF83C9007E00AF1010ABAF15E
:100F1000100F04F5F07400F0F7802046FFF76CFD29
:100F20000028F2D02046FFF7F7FB2046FFF7F8FB3A
:100F30002046FFF7F9FB2046FFF7FAFB082193480C
:100F40000AF0C4FB5146924807F030FFBAF1090F8E
:100F500003DC01218F480AF0B9FB02218E480AF018
:100F6000B5FB2046FFF710FD0BF03CF95FFA89F85E
:100F700002460B46CDF80080854807F021FF01218D
:100F800086480AF0A3FB2046FFF7C2FB0C2800F3BB
:100F9000BE8001261EE0062181480AF097FB294603
:100FA0007B4807F003FF02217E480AF08FFB3146A1
:100FB0002046FFF7C1FB0BF015F9CDF80080024683
:100FC0000B46734807F0FCFE012174483D460E4471
:100FD0000AF07CFB2046FFF79BFB864205F10107E8
:100FE0006BDC092DD7DC01216A480AF06FFBD2E7E0
:100FF0002046FFF78DFB172800F3BE8035460D26EF
:101000001CE00AF063FB2946614807F0CFFE02218D
:1010100064480AF05BFB31462046FFF78DFB0BF07E
:10102000E1F8CDF8008002460B46594807F0C8FEAB
:1010300001215A483D460E440AF048FB2046FFF77E
:1010400067FB86424FF00601554805F10107D8DDE0
:101050000F2155480AF03AFB4D4807F057FE20464D
:10106000FFF756FB192828DD19261CE00AF02EFB95
:101070002946474807F09AFE02214A480AF026FB13
:1010800031462046FFF758FB0BF0ACF8CDF8008056
:1010900002460B463E4807F093FE01213F483D467D
:1010A0000E440AF013FB2046FFF732FB86424FF056
:1010B00006013B4805F10107D8DD0F213A480AF047
:1010C00005FB334807F022FE092138480AF0FEFAF2
:1010D00000212046FFF77EFC0BF084F80226024632
:1010E0000B4600962A4807F06BFE0F212E480AF0A7
:1010F000EDFA0AF1010A264807F008FEBAF1100FCE
:1011000004F5F0747FF409AF13B0BDE8F08F2F46FB
:10111000012620E0062122480AF0D8FA39461C4868
:1011200007F044FE02211F480AF0D0FA314620465B
:10113000FFF702FB0BF056F8CDF8008002460B4695
:10114000134807F03DFE0136012114480AF0BEFAAB
:101150000C2E09D05F46092F07F1010BDADC0121C3
:101160000C480AF0B3FAD5E72046FFF7D1FA0C286D
:1011700005F10B063FF73CAF16350D273AE000BFEF
:101180009026010000007A44A013010040140100E1
:10119000D887FF1FB8240100401901004C1401003A
:1011A00050140100281601005814010068140100B1
:1011B0000621BD480AF08AFA3146BC4807F0F6FD20
:1011C0000221BB480AF082FA39462046FFF7B4FAFA
:1011D0000BF008F8CDF8008002460B46B34807F044
:1011E000EFFD0121B3480F440AF070FA5D453FF46A
:1011F0002FAF5E46092E06F1010BD9DC0121AE4866
:101200000AF064FAD4E7AD49012000F00FFCAB49C5
:10121000012000F00BFCA949012000F007FC42F27C
:101220001C032046E2581092FFF762FC82462069B8
:1012300066690AF0D7FF804620468946FFF7DCFD45
:1012400083462046A569E769FFF76CFD0AF0CAFFEF
:10125000CDE90C01294638460BF064FB98490BF0A8
:101260006BFC0AF0BFFFCDE90A0138460AF0BAFF6D
:10127000CDE9080128460AF0B5FFCDE90601584638
:101280000AF0B0FF5346CDE90401CDE90289109A76
:101290008C490096012000F0C9FB8849012000F02C
:1012A000C5FB04F506744FF0010A0025DDF83C90FB
:1012B00007E00AF1010ABAF1100F04F5F0743FF4E7
:1012C00023AF2046FFF798FB0028F2D02046FFF717
:1012D00023FA2046FFF724FA2046FFF725FA204696
:1012E000FFF726FA0821784808F04CFE5146774867
:1012F00007F05CFDBAF1090F03DC01216E4808F02C
:1013000041FE0221724808F03DFE2046FFF73CFBFB
:101310000AF068FF5FFA89F802460B46CDF80080B4
:101320006A4807F04DFD0121624808F02BFE204677
:10133000FFF7EEF90C2800F3B48001261EE0062129
:10134000594808F01FFE2946604807F02FFD02218A
:10135000574808F017FE31462046FFF7EDF90AF02E
:1013600041FFCDF8008002460B46584807F028FDA3
:10137000012150483D460E4408F004FE2046FFF788
:10138000C7F9864205F101076BDC092DD7DC012185
:10139000494808F0F7FDD2E72046FFF7B9F91728CA
:1013A00000F3CE8035460D261CE008F0EBFD294603
:1013B000464807F0FBFC02213D4808F0E3FD3146BA
:1013C0002046FFF7B9F90AF00DFFCDF8008002467C
:1013D0000B463E4807F0F4FC012136483D460E44DA
:1013E00008F0D0FD2046FFF793F986424FF0060142
:1013F0002D4805F10107D8DD0F21364808F0C2FD60
:10140000324807F083FC2046FFF782F9192828DDCF
:1014100019261CE008F0B6FD29462C4807F0C6FC4A
:101420000221234808F0AEFD31462046FFF784F93B
:101430000AF0D8FECDF8008002460B46234807F09C
:10144000BFFC01211B483D460E4408F09BFD204691
:10145000FFF75EF986424FF00601134805F10107D8
:10146000D8DD0F211B4808F08DFD184807F04EFC11
:101470000921194808F086FD00212046FFF7AAFA45
:101480000AF0B0FE022602460B4600960F4807F00F
:1014900097FC0F210F4808F075FD0C4807F036FC4B
:1014A00007E72F4601263AE050140100D887FF1FB6
:1014B000281601004C140100B824010090260100F8
:1014C00000007A44A013010040140100AC87FF1F04
:1014D00040190100581401006814010006212F482A
:1014E00008F050FD39462E4807F060FC02212D48D7
:1014F00008F048FD31462046FFF71EF90AF072FE5B
:10150000CDF8008002460B46254807F059FC01360D
:101510000121254808F036FD0C2E09D05F46092F21
:1015200007F1010BDADC0121204808F02BFDD5E79B
:101530002046FFF7EDF80C2805F10B063FF72CAF1E
:1015400016350D2721E00621144808F01BFD314611
:10155000134807F02BFC0221124808F013FD39460E
:101560002046FFF7E9F80AF03DFECDF8008002467C
:101570000B460B4807F024FC01210B480F4408F0F0
:1015800001FD5D453FF438AF5E46092E06F1010BC3
:10159000D9DC0121054808F0F5FCD4E7501401001E
:1015A000AC87FF1F281601004C140100B82401006D
:1015B0002DE9F04F85B000F506758A4603929B46EB
:1015C0002E464FF0010806E008F10108B8F13F0F80
:1015D00006F5F0767BD03046FFF70EFA0028F3D000
:1015E00000230A2251467D4807F0A0FB01217C48D8
:1015F0000AF06CF803980AF0F5FD00230246009308
:1016000076480B4607F0DCFB012175480AF05EF8CE
:101610005946724807F0CAFB012171480AF056F892
:1016200041466E4807F0C2FB01216D480AF04EF8B2
:1016300000244FF0020921463046FFF77DF80AF0FA
:10164000D1FDCDF8009002460B46644807F0B8FB88
:101650000134012162480AF039F8082C4FF00207E2
:10166000E9D100213046FFF7B5F90AF0BBFD00973C
:1016700002460B46594807F0A3FB012158480AF0DF
:1016800025F801213046FFF7A5F90AF0ABFD0097D8
:1016900002460B46514807F093FB012150480AF0DF
:1016A00015F839463046FFF795F90AF09BFD00978B
:1016B00002460B46494807F083FB08F101084748FA
:1016C00007F024FBB8F13F0F06F5F07683D1012730
:1016D0004FF0000904E001373F2F05F5F07579D090
:1016E0002846FFF789F90028F5D000230A22514641
:1016F0003C4807F01BFB0121394808F043FC0398E4
:101700000AF070FDCDF8009002460B46354807F010
:1017100057FB0121324808F035FC5946314807F0A3
:1017200045FB01212E4808F02DFC39462D4807F0D5
:101730003DFB01212A4808F025FC00244FF0020857
:1017400021462846FEF7F8FF0AF04CFDCDF8008050
:1017500002460B46234807F033FB013401212048A1
:1017600008F010FC082C4FF00206E9D100212846B1
:10177000FFF730F90AF036FD009602460B4619488D
:1017800007F01EFB0121164808F0FCFB012128464A
:10179000FFF720F90AF026FD009602460B46114895
:1017A00007F00EFB01210E4808F0ECFB31462846FD
:1017B000FFF710F90AF016FD009602460B4609489D
:1017C00007F0FEFA0137074807F0A0FA3F2F05F5AA
:1017D000F07585D105B0BDE8F08F00BFD887FF1F39
:1017E00074140100AC87FF1F70B5044608460D460F
:1017F0000CF0A6F923680246294620465B68BDE83E
:1018000070401847014B1870704700BF2087FF1FBA
:10181000F0B51546027883B062B103460E46252A1C
:1018200016D018781C4685B909F0D4FF6278631C7D
:10183000002AF4D1002D5CD0744803B0BDE8F0401C
:1018400007F064BA1046002DEED008F043FBEDE738
:1018500058785C1C0028EDD02528F3D073282FD0B1
:10186000642825D0692823D0662848D07A2853D008
:1018700078285ED0582800F08580622800F091809A
:10188000422866D06C2813D0632811D0742800F049
:1018900098805428C7D133680436002D40F0A480C6
:1018A000012B00F0A8800521594809F00FFFBDE782
:1018B000331D316885B957481E4607F077FAB5E7FA
:1018C000371D3668304665B90CF03AF901463046A6
:1018D0003E4609F0FBFEA9E74C481E4607F066FAB3
:1018E000A4E70CF02DF9014630463E4608F04AFBCD
:1018F0009CE7484803B0BDE8F04007F007BA073658
:1019000026F007060321D6E90023009165B9414876
:10191000083607F055FA89E7073626F00706D6E9B4
:10192000002385B1002100913848083607F048FAB5
:101930007CE7371D3168F5B90023102235483E4653
:1019400007F0F4F972E700953248083607F038FAE4
:101950006CE7022130487DBB09F0B8FE3168371DC5
:101960002B4602222B483E4607F0E0F95EE708F0DE
:1019700009FB3168371D0023102224483E4607F03A
:10198000D5F953E702212548002DF0D109F09EFE3C
:10199000371D31681F482B4610223E4607F0C6F916
:1019A00044E7371D3168002DDAD0002302221748A2
:1019B0003E4607F0BBF939E708F0E4FA371D316815
:1019C000F3E7316804363DB901290EBF14481548C4
:1019D000012109F07BFE29E701290EBF10481148BB
:1019E000012108F0CFFA21E7012B09D00521084891
:1019F00008F0C8FA1AE70C490648FFF7F5FE15E7A4
:101A000009490248FFF7F0FE10E700BFAC87FF1F4F
:101A1000B4140100D887FF1FA01401009C1401001A
:101A2000A4140100A8140100AC1401000EB400B508
:101A300082B003A9024651F8040B0191FFF7E8FEBA
:101A400002B05DF804EB03B0704700BF30B4074D3F
:101A5000074C084900232B702360036543658365A9
:101A600080F85C300B6030BC704700BF5C92FF1F99
:101A70005892FF1F5492FF1F0A4A0B49906D536DF5
:101A800003FB00F34FF47A7000FB03F0642310B5FE
:101A90000B600AF0FDFF0549054C0BF001F92060D1
:101AA00010BD00BF6093FF1F3487FF1FE4388E3ED8
:101AB0002093FF1F2DE9F0414249434F434D444ECF
:101AC000444C0020FFF7B2FF434B444A44485A605D
:101AD000DF601222002743491A701861424A4348C6
:101AE0005D615E62424D9C614FF07C56414C1F63CC
:101AF000414F9962DA62414958630C2240489D6324
:101B00005E6440F61C450A269C641F6241F2040490
:101B10003C4FD9641A6502210122C3F8B8009D66C2
:101B200000206425DE661C674FF496763224DF6160
:101B3000DF635A27597059721A725A6583F8400048
:101B40005E66DE651C669D655F679867C3F880000A
:101B5000C3F89C008C204FF47A78DFF8ACC0D967CA
:101B6000C3F89440C3F8A040DFF8A0E0C3F8A82071
:101B7000FF27C3F8AC10052641F288314FF4FA7400
:101B800083F8BC2083F8BD2083F8BE2083F8C20010
:101B900040F2D662C3F8B050C3F89880C3F888C04A
:101BA000C3F88CE0C3F8A470A3F8B660A3F8C040F3
:101BB000C3F89010A3F8B410A3F88420A3F88620EB
:101BC000BDE8F081BC140100666686403333834073
:101BD000CDCCCC3DCDCC4C406093FF1F48E80100FC
:101BE0000000404000008242000020C1000020426E
:101BF0000000A0409A997940333373400AD7233DBF
:101C00009A99993ECDCC4C3E0000684200C02044D9
:101C1000F0B54FF47A6085B007F0D4FE00210F20B4
:101C200007F0A8FE00210E2007F0A4FE00211120DD
:101C300007F0A0FE0021102007F09CFE00211220DA
:101C400007F098FE0021132007F094FE01210B20DD
:101C500007F090FE01210C2007F08CFE01211420DA
:101C600007F088FE0121152007F084FE01211620CF
:101C700007F080FE0121172007F07CFE01210520DE
:101C800007F078FE8D4C8E4D0121062007F072FE84
:101C900001210D2007F06EFE20880AF0F5FE0146B6
:101CA000162007F0D1FD20880AF0EEFE014617202D
:101CB00007F0CAFD20880AF0E7FE0146052007F07C
:101CC000C3FD20880AF0E0FE00240146062007F04C
:101CD000BBFD009423467B4A7B497C4805F0D2FC3F
:101CE000E6B232467649794805F07AFC2B79744998
:101CF00076486FF30003013432462B7105F066FC21
:101D0000082CEDD10924E6B232466D496F4805F042
:101D100067FC2B796A496D4843F001030134324670
:101D20002B7105F053FC0D2CEDD1694C4FF0FF32B7
:101D30002068102106F072F820684FF0FF32102161
:101D400006F044F820684FF0FF32022106F052F806
:101D500020684FF0FF32022106F056F800220F21D2
:101D6000206806F065F80C215A4809F0AFFC5A4883
:101D700006F0CCFF1621594809F0A8FC564806F099
:101D8000C5FF40F2836007F0DBFE40F2413008F00F
:101D9000D5FA514806F0BAFF1721514809F096FCD0
:101DA0004D4806F0B3FF4F4B1B789A0600F1B48004
:101DB0004C4B1B781B0700F1BB804A4B1B785F071D
:101DC00000F1C280474B1B789E0700F1C980464B4B
:101DD0001B781D0600F1D080434B1B785C0600F198
:101DE000D780414B1B78980600F1DE803E4B1B7874
:101DF000590700F1E5803C4B1B781A0700F1EC8095
:101E0000394B1B789B0700F1F380334806F07EFFC7
:101E100072B6364A4CF220504DF62811108020231D
:101E20001180013BFDD1324C3248334900234FF43D
:101E30008055258003800B8032F80E3C9BB243F026
:101E4000D30322F80E3C62B618212C482C4D09F021
:101E50003DFC214806F05AFF05F1C4062F462C46EA
:101E6000601B07F0C1F904F8010BB442F8D13B78CC
:101E7000122B01D0FFF71EFE0420FFF7C3FC214BFD
:101E8000002201210D201A6007F060FD796D1E48C7
:101E9000FEF71AFF7A6C97F840101B48FEF716FF02
:101EA0001A4B1B491A68039203981B680293029A03
:101EB000184B08601A6005B0F0BD00BF2887FF1FEF
:101EC0002C94FF1F38B7FF1F48E801009CB5FF1F87
:101ED000D894FF1FDC140100D887FF1FEC14010009
:101EE0000415010001F0074000F007400E200540F6
:101EF0000420054006200540162005400816010074
:101F00006093FF1F7092FF1F7495FF1F60B7FF1F44
:101F10000895FF1F3494FF1F2121394809F0D6FB93
:101F2000384806F0F3FE384B1B781B077FF545AFAA
:101F30000C21364809F0CAFB324806F0E7FE324B66
:101F40001B785F077FF53EAF0E21314809F0BEFBDD
:101F50002C4806F0DBFE2C4B1B789E077FF537AF35
:101F600017212C4809F0B2FB264806F0CFFE2A4B79
:101F70001B781D067FF530AF0E21284809F0A6FB1F
:101F8000204806F0C3FE244B1B785C067FF529AF82
:101F90001221234809F09AFB1A4806F0B7FE1E4B9F
:101FA0001B7898067FF522AF13211E4809F08EFB9F
:101FB000144806F0ABFE184B1B7859077FF51BAF92
:101FC0001C21194809F082FB0E4806F09FFE124BB7
:101FD0001B781A077FF514AF1921144809F076FB16
:101FE000084806F093FE0C4B1B789B077FF50DAF5E
:101FF00018210F4809F06AFB024806F087FE04E743
:102000001C150100D887FF1F01F007404015010093
:10201000501501006015010000F00740781501001F
:10202000881501009C150100B0150100D0150100B4
:10203000EC15010070B5464C464D4748E668002354
:102040002B70FEF719FE014630460AF013FF08B167
:1020500004232B704048FEF7E7FD21690AF00AFFD0
:1020600018B12B7843F010032B703B48FEF7C0FEED
:10207000A16A0AF01DFF18B12B7843F040032B70C2
:10208000002335486B70FEF7B5FEE16A314E0AF069
:10209000F1FE08B10123737000232F48EB70FEF7A7
:1020A000EBFD05462C482B4EFEF7BEFD01462846AB
:1020B0000AF038FCE16B0AF0FBFE08B10123F37073
:1020C000264D254800232B70FEF7D6FD616A064693
:1020D000E0680AF027FC014630460AF0E9FE08B144
:1020E00004232B701C48FEF79FFD616A0646206999
:1020F0000AF01AFC014630460AF0BCFE18B12B78F3
:1021000043F010032B701448FEF772FEA16B0646D5
:10211000A06A0AF007FC014630460AF0C9FE18B171
:102120002B7843F040032B7000230B486B70FEF7B5
:1021300061FEA16B0546E06A084C0AF0F5FB01461A
:1021400028460AF097FE08B10123637070BD00BFF6
:102150006093FF1F5C93FF1F7495FF1FC894FF1FC0
:102160002DE9F0417C4C2368012B82B031D0022B49
:1021700000F0A880032B00F0C8803BBB774B784A67
:10218000D3F8A010D3F8A43012685B1A632B0EDDCD
:10219000744803FB02F380FB0302DB17C3EB6213FB
:1021A0001944062002B0BDE8F04107F04FBA6E486E
:1021B00003FB022380FB0302DB17C3EB2212114453
:1021C000062002B0BDE8F04107F040BA02B0BDE819
:1021D000F081664E33680A33B3F57A7F00F3B78037
:1021E000184633600AF054FC61490AF0A5FC8046A9
:1021F0005A4DD5F8A0000AF04BFC0746D5F8A400CC
:102200000AF046FC39460AF08DFB41460AF094FC80
:1022100058490AF045FD39460AF086FB0AF052FE9D
:102220000146062007F012FA0221534809F04EFA3F
:10223000524806F06BFD0621514809F047FA306814
:102240000AF026FC4A490AF077FC09F0CBFF022786
:1022500002460B460097494806F0B2FD0D21494859
:1022600009F034FAD5F8A0000AF012FC8046306874
:102270000AF00EFC3E490AF05FFC0646D5F8A400C1
:102280000AF006FC41460AF04DFB014630460AF0D2
:1022900053FC38490AF004FD41460AF045FB09F0B9
:1022A000A1FF00970B460246344806F089FD3946E7
:1022B000314809F00BFA314806F028FD2368022B5B
:1022C0007FF458AF294B254E00221A60D6F8A000A3
:1022D0000AF0DEFB0546D6F8A4000AF0D9FB294631
:1022E0000AF020FB00210AF027FC22490AF0D8FC62
:1022F00029460AF019FB0AF0E5FD0146062007F021
:10230000A5F92368032B7FF438AF184B134E4FF415
:102310007A721A60D6F8A0000AF0BAFB0546D6F821
:10232000A4000AF0B5FB29460AF0FCFA11490AF0AC
:1023300003FC10490AF0B4FC29460AF0F5FA0AF049
:10234000C1FD0146062007F081F9236815E7002347
:102350004FF0000833604BE73493FF1F6093FF1F7B
:102360003487FF1F1F85EB51CBF08D287492FF1F20
:10237000CDCCCC3D0000C84240190100D887FF1FDA
:10238000241601002C16010070B5B848B84C06F0B0
:10239000BDFCB64806F0BAFCB44806F0B7FC0D2107
:1023A000B44809F093F9D4F89C30012B11D0B24C09
:1023B000AE48217800230A2206F0B8FC2378052BCA
:1023C00067D8DFE813F00B01100115011A011F0196
:1023D00001010921A94809F079F9A948FEF724FC6F
:1023E00021690AF047FD18B10F21A64809F06EF9DE
:1023F000A348FEF741FCE1680AF05AFD18B10E212E
:10240000A14809F063F99E48FEF736FC05469C4852
:10241000FEF70AFC014628460AF084FAE16B0AF04E
:1024200047FD18B11121994809F050F99448FEF779
:1024300079FCA16A0AF03CFD18B10C21944809F01E
:1024400045F98F48FEF76EFCE16A0AF013FD18B1FA
:102450000D21904809F03AF98F4B89481B68012BF0
:1024600000F0ED80FEF7E0FB2169814D0AF020FDD0
:1024700078B18348FEF700FCE9680AF0FBFC40B144
:102480007D4B1B78052B00F0EB800821834809F079
:102490001DF90221824809F019F9122007F05CFAAF
:1024A000012800F0B480112007F056FA012800F04E
:1024B000B8807C4B1B68012B00F0BC80022178485F
:1024C000794C09F003F9794B6848196806F06EFCFD
:1024D000664806F01BFC0421754809F0F7F80B204C
:1024E00007F03AFA002301460A22604806F01EFC73
:1024F0000C2007F031FA002301460A225B4806F05F
:1025000015FC142007F028FA002301460A22574838
:1025100006F00CFC152007F01FFA0A2200230146E2
:10252000524806F003FC0621624809F0CFF8236800
:10253000DD074FF001014CBF5F48604809F0C6F865
:10254000236898074FF001014CBF5B485B4809F0D6
:10255000BDF823685A074FF001014CBF5648574851
:1025600009F0B4F823681B074CBF534853480121B6
:1025700009F0ACF80421524809F0A8F8112007F03E
:10258000EBF9002301460A22384806F0CFFB102061
:1025900007F0E2F9002301460A22344806F0C6FBA0
:1025A000122007F0D9F9002301460A222F4806F02D
:1025B000BDFB132007F0D0F9002301460A222B4867
:1025C000BDE8704006F0B2BB07213E4809F07EF836
:1025D0003D4B2648196806F0E9FB5AE706213B48BF
:1025E00009F074F855E70721394809F06FF850E70A
:1025F0000721384809F06AF84BE70821364809F006
:1026000065F846E70B21354809F060F841E70E21EF
:10261000334809F05BF8112007F09EF901287FF498
:1026200048AF0A212F4809F051F81E4B1B68012BB7
:102630007FF444AF11212C4809F048F83EE7FEF73B
:10264000F3FA216A0AF034FC00283FF41EAF162189
:10265000264809F03BF80A21254809F037F818E721
:102660000A21234809F032F813E700BFD887FF1F7B
:102670006093FF1F3C160100C494FF1F4C1601001D
:102680007495FF1F581601006816010078160100A6
:102690008C1601009C1601000093FF1FD01601004C
:1026A00040190100E094FF1F2494FF1FAC94FF1F0A
:1026B000441701004C170100541701006C2501005C
:1026C000581701000C170100E494FF1FDC160100ED
:1026D000E4160100F816010000170100EC160100D5
:1026E000141701002417010030170100AC16010077
:1026F000C41601002DE9F04F9B4C9C4FE36F012B5A
:102700008DB000F05981032B5AD0994E994DA36F8B
:102710009948012B09BF2968296801F10041296006
:1027200005F078FF3368002B40F0D880924805F020
:1027300047FFE36F3860012B064600F0DC808F49CD
:102740000AF0B6FBB8B98E4930460AF093FB90B94F
:102750008C4A8D4B12680B920B9A1A60D4F8A80021
:102760000AF096F931460AF0E7F9002338602B6049
:102770000DB0BDE8F08FDFF80CA2DFF80C82DAF8BC
:1027800000300A930A98D8F80030DFF82492C01A73
:102790000AF07AF931460AF0CFF97C490AF080FA5A
:1027A0007A490AF07DFAD9F800100AF0BDF8DAF893
:1027B00000300993099BC9F80000C8F80030CDE744
:1027C000DFF8D081724DD8F80000694E0123002255
:1027D0000F212B6005F02CFB2B68012B336800F0D8
:1027E0000981002B40F0AC810021D8F80000DFF80F
:1027F000C491684D05F06EFB33681FFA80FBC9F881
:1028000000B0002B40F081810021D8F80000594D24
:10281000DFF880A105F0E4FAB4F8863040F6E44130
:1028200001FB0BF1B1FBF0F0C01A00B20AF030F975
:1028300059498346D4F888000AF07EF90146584683
:102840000AF02EFAD9F800302860632BDFF864B163
:1028500000F34F8100232B603368002B3FF457AF08
:1028600002214E4808F032FFD9F80020D8F80000C5
:1028700040F6E443002103FB02F805F0B1FAB8FB8F
:10288000F0F00AF001F98046B4F886000AF000F989
:10289000014640460AF046F809F0A4FC4FF0020851
:1028A00002460B46CDF800803D4806F089FA4146C5
:1028B0003A4808F00BFF286809F094FCCDF8008036
:1028C00002460B46364806F07BFA4146354808F08A
:1028D000FDFE4146314808F0F9FE18E7264805F0AC
:1028E0006FFE09F07FFC022602460B4600962C483C
:1028F00006F066FA1AE7264B1B68012B00F02C81C4
:10290000022B7FF42BAF28490AF0D2FA30B92749BD
:1029100030460AF0AFFA002800F05381DFF864A0D7
:10292000DFF86480DAF8003007930798D8F80030B1
:10293000DFF87C90C01A0AF0A7F831460AF0FCF8DC
:1029400012490AF0ADF911490AF0AAF9D9F80010B4
:1029500009F0EAFFDAF800300693069BC9F8000098
:10296000C8F80030FAE600BF6093FF1F1493FF1F02
:102970000495FF1F7C92FF1F3893FF1F0000FA434E
:102980000000FAC360B7FF1FD494FF1F00007A4411
:102990005087FF1FD894FF1F17B7D1384019010087
:1029A000D887FF1F9C17010000C82F4800A08CC6C5
:1029B0002093FF1F5893FF1F3D689B4928460AF04C
:1029C00059FA30B1284699490AF072FA00287FF482
:1029D000F7AEDFF86482964DD8F80000954E0223DA
:1029E00000220E212B6005F023FA2B68012B33689F
:1029F0007FF4F7AE002B40F006810021D8F80000EC
:102A0000DFF874928C4D05F065FA33681FFA80FB8D
:102A1000C9F800B0002B40F0DB800021D8F800009E
:102A2000864D05F0DDF9B4F8843040F6E44A0AFB3F
:102A30000BFBBBFBF0F0C01A00B20AF029F880498A
:102A40008346D4F88C000AF077F8014658460AF01D
:102A500027F9D9F8003028600021D8F800000AFBD7
:102A600003FA05F0BDF9B4F88430BAFBF0F00FFAC0
:102A700080FAC3EB0A03002BB4F8B620B8BF5B4260
:102A80009342BCBF00232B603368002B3FF43FAE62
:102A900002216C4808F01AFED9F80020D8F800008E
:102AA00040F6E443002103FB02F805F099F9B4F87D
:102AB0008410B8FBF0F000B2411A634806F076F9D2
:102AC0000221604808F002FE286809F08BFB4FF0F5
:102AD000020802460B46CDF800805B4806F070F90C
:102AE00003215A4808F0F2FD4146564808F0EEFD31
:102AF0000DE6DAF80000002105F072F9DBF800308D
:102B000064389842FFF4A6AEA6E60021286805F0D6
:102B100067F940F6E44100230A2201FB0BF1B1FB07
:102B2000F0F1494806F002F90221464808F0CEFDCE
:102B3000B4F88610444806F039F9D9F800B063E6D5
:102B4000414806F0E3F80C21414808F0BFFD0C2194
:102B5000404808F0BBFD47E63F490AF0A9F958B9DB
:102B60003E4930460AF086F930B93D4A3D4B12687D
:102B70000592059A1A60F1E5DFF8E4A0DFF8E48039
:102B8000DAF8003004930498D8F80030DFF8EC90BD
:102B9000C01A09F079FF314609F0CEFF32490AF038
:102BA0007FF831490AF07CF8D9F8001009F0BCFE32
:102BB000DAF800300393039BC9F80000C8F800302E
:102BC000CCE5274A274B12680892089A1A60C5E597
:102BD0000021286805F004F940F6E44100230A22A8
:102BE00001FB0BF1B1FBF0F1174806F09FF8012152
:102BF0001E4808F06BFDB4F88410134806F0D6F8B0
:102C0000D9F800B009E7104806F080F8E36F012B0F
:102C10004FF00B010CBF1648164808F057FD0C2169
:102C20000C4808F053FDE8E600709446007094C626
:102C30005087FF1F0495FF1FD894FF1F7C92FF1F32
:102C400017B7D13840190100D887FF1F8817010036
:102C50008C170100781701000000FA430000FAC346
:102C600060B7FF1FD494FF1F00007A44B82401000E
:102C7000601701006C1701005893FF1F2093FF1F7E
:102C80002DE9F04F994C236885B0002B7BD0984DEF
:102C9000DFF86482974FDFF8A892D5F88030944E21
:102CA000012B00F08B80D7F800A0D6F858B0746DD7
:102CB000914E04FB0BF44FF47A7000FB04F009F022
:102CC000E7FE8E490446504609F036FF214609F0DA
:102CD000E7FF8B4909F030FF0AF0F4F86328C8F8E1
:102CE00000004BDD2046854909F0DAFF6423386097
:102CF0003360D9F80030002B3DD0EB6F7C4C012BBA
:102D000000F08A80032B00F0DF80022B00F0E280CD
:102D100002217C4808F0DAFC7B4B186809F062FA63
:102D2000022402460B460094784806F049F82146F2
:102D3000774808F0CBFC2146724808F0C7FCD8F869
:102D40000010724806F032F80621724808F0BEFC06
:102D500038686A4909F0F0FE09F044FA0094024626
:102D60000B466A4806F02CF803216B4808F0AEFCCD
:102D7000664805F0CBFF05B0BDE8F08F0028BCBF6A
:102D800000233360B5E7654E594D33680293029ACC
:102D900042F228339A424BD833680393039A42F2A3
:102DA00010739A424BD8D5F88030DFF84C81514FE0
:102DB000DFF88C914E4E012B7FF475AF5848FEF72B
:102DC0001BF85849D6F868A0F46E09F0B5FE0AF071
:102DD0009FF8326F736FD5F858B0CAEB02021B1B15
:102DE00080B29A42CAEB0000C6BF03FB000001326A
:102DF000584390FBF2F020446C6D00FB0BF004FB99
:102E000000F000EB8000400009F042FE3B4909F071
:102E100047FF824638604BE7434B1B68012B4FF05E
:102E20000A010CBF4148424808F050FCE36F69E7D3
:102E30003B486A6C95F84010FDF748FFACE738480E
:102E4000FDF7DAFF3749AF6EEE6E09F075FE0AF056
:102E50005FF82A6F6B6FD21B9B1B80B29A42A0EB6C
:102E600007003CDD03FB0000531C90FBF3F31E4402
:102E7000A86D6B6DDFF88080DFF8C490C8F8006043
:102E800000FB06F003FB00F000EB8000400009F0BF
:102E9000FFFD1A49174F09F003FFD9F800303860D9
:102EA00001222260002B3FF4F8AE0221154808F001
:102EB0000DFC164805F02AFF59211E4808F006FCB3
:102EC000124805F023FFE8E610211B4808F0FEFB3E
:102ED000EB6F1AE70721194808F0F8FB18E703FB26
:102EE00000F393FBF2F31E44C2E700BF7892FF1F8A
:102EF0006093FF1F2093FF1F3487FF1FE4388E3E2F
:102F00000000C842401901001493FF1FD887FF1F1B
:102F10009C170100301801003818010060B7FF1F2E
:102F20007495FF1F00007A445087FF1FFC170100B3
:102F300008180100A017010014180100281801004A
:102F40003C87FF1FF0B5112083B006F005FD012876
:102F500013D000210B2006F0F9FC00210C2006F014
:102F6000F5FC0021152006F0F1FC1D491D4B012048
:102F7000002208701A6003B0F0BD01460446152017
:102F800006F0E4FC1849194A194B09680191D2F876
:102F900090001B680199134D034402268B422E605A
:102FA00017D8D2F8980009F073FD124B196809F090
:102FB00061FF074668B921460B2006F0C7FC084AA6
:102FC000032339460C2016702B6006F0BFFC03B0BB
:102FD000F0BD01210C2006F0B9FC03B0F0BD00BF2C
:102FE000C494FF1F0095FF1F60B7FF1F6093FF1F72
:102FF0000895FF1F1493FF1FF0B56D4E6D4D34689B
:103000002B689C4287B03AD014F0010156D014F0DE
:1030100002014AD014F004013ED0E3070FD52B681B
:10302000DF070CD4644F3A68002A00F09E80634B9F
:103030001B680193019B934200F289803468A007CA
:103040000DD52B6899070AD45D4F3A68002A3ED007
:103050005A4B1B680393039B93425AD83468620708
:103060000DD52B685B070BD4564F3A68002A3FD02A
:10307000524B1B680593059B934258D834680CB19A
:1030800007B0F0BD2146162006F0E0FA21461720D1
:1030900006F0DCFA07B0F0BD052006F0D7FA2B6881
:1030A000346803F0FB032B60B7E7172006F0CEFA75
:1030B0002B68346803F0FD032B60ABE7162006F0A5
:1030C000C5FA2B68346803F0FE032B609FE73E4B84
:1030D0001B68002B56D1FF21172006F0B7FA374B9B
:1030E0003A4A19680291029912680A443A60B0E7B4
:1030F000354B1B68002B50D1FF21052006F0A6FAA6
:103100002E4B324A19680491049912680A443A60B5
:10311000AFE72F4B1720D3F8941006F097FA2B68DF
:10312000346843F0020300222B603A6097E7284B93
:103130000520D3F8941006F089FA2B68346843F020
:10314000040300222B603A60002C99D19AE7204BAF
:103150001620D3F8941006F079FA2B68346843F0FF
:10316000010300222B603A6069E7FF21162006F078
:103170006DFA124B154A19680091009912680A44B9
:103180003A6055E7134805F0C1FD0C21124808F0DC
:103190009DFA104805F0BAFD9DE70E4805F0B6FD12
:1031A0000C210E4808F092FA0A4805F0AFFDA3E79B
:1031B0000095FF1F2494FF1F9C94FF1F60B7FF1F03
:1031C000A094FF1FA494FF1F3C87FF1F6887FF1F69
:1031D0006093FF1FD887FF1F3C1801004C180100A7
:1031E0002DE9F047544EDFF87481DFF874913068B0
:1031F000524D00220F2104F01BFE00230122222148
:103200004F48C8F80030C9F8002008F05FFAD8F835
:103210000030132B22DC40F6E44700213068B5F87B
:1032200084A004F057FE00210446306804F0D8FD65
:10323000A4B2012107FB04F4B4FBF0F44148544468
:10324000A5F8844008F042FA642006F0BBFBD8F8E9
:1032500000300133132BC8F80030DEDDB5F88430C0
:10326000394A3A48A2FB03129B1A02EB5303C3F3F9
:103270000F131946A5F8843005F098FD1D21344838
:1032800008F024FA0221334808F020FA2F4805F00C
:103290003DFD00231A460E213068C8F8003004F0C6
:1032A000C7FD022322212648C9F8003008F00EFA93
:1032B000D8F80030132B22DC40F6E44700213068B8
:1032C000B5F8869004F006FE00210446306804F04C
:1032D00087FDA4B2012107FB04F4B4FBF0F4194804
:1032E0004C44A5F8864008F0F1F9642006F06AFB2A
:1032F000D8F800300133132BC8F80030DEDDB5F804
:103300008630114A1148A2FB03129B1A02EB5303A9
:10331000C3F30F131946A5F8863005F047FD1D21AC
:103320000D4808F0D3F902210A4808F0CFF9074800
:10333000BDE8F04705F0EABCD894FF1F6093FF1F7B
:103340005C180100A018010087611886D887FF1F4C
:103350008018010040190100A4180100B094FF1F5B
:103360005087FF1FA64B2DE9F0411B68A54CA64DC9
:1033700040F2513108222160E271286D002B40F0AB
:10338000EE8009F085FB6969064609F0D5FB9F4987
:103390009D4F09F0D1FB09F0BBFD80B203126372AF
:1033A0009B4A9C4B12681B68A969A37215121B12D9
:1033B000E372227320726573304609F0BDFB9349B6
:1033C000904D09F0B9FB09F0A3FD83B21A1229460A
:1033D0009148A373E27304F04DFB904B904A1B6835
:1033E0001288A272DEB206EB8601267203EB830618
:1033F000490046F3D71640F2553E12124FF000082E
:103400001B1221736673294608268348C4F800E01E
:10341000E2726372E67184F80E8084F80F8004F023
:1034200029FB40F256337F482360E671FDF74AFCE2
:103430007D4909F081FB09F06BFD20727948FDF7A9
:1034400041FC794909F078FB09F062FD774A764939
:10345000C0F307236372106809F022FC09F032FD03
:1034600040FA06F203466F48E272A372FDF75AFC77
:10347000664909F061FB09F025FD20736948FDF7F5
:1034800051FC624909F058FB09F01CFD294640F344
:1034900007236148637384F80E8084F80F8004F07A
:1034A000E9FA022006F08EFA614A624B10785178F0
:1034B000207290786172D2781978A072987893F817
:1034C00001E0E2722173DA78A07340F25A332946A0
:1034D000514884F80DE0E2732360E67104F0CAFA03
:1034E000554B4D481A785978227261729A78D9787A
:1034F000A272E1721A79597993F806E02273617326
:10350000DA7984F80EE040F25E332946E2732360F4
:10351000E67104F0AFFA022006F054FA474B3E4839
:103520001A785978227261729A78D978A272E17207
:103530001A79597993F806E022736173DA79E671A2
:103540004FF45C732946236084F80EE0E27304F0C4
:1035500091FA3B4B1B68012B06D0BDE8F08109F0C6
:1035600097FA296A064610E72E48FDF75DFBF96CCD
:1035700009F0DAF980462B48FDF77EFB014640460C
:1035800009F078FC0028E8D040F2C3332548EE71FA
:103590002B60FDF749FBBE6C314609F06BFCC8B1EE
:1035A0002849304609F0C8FA09F0B2FC80B203128B
:1035B00068722B720023012604250322A672E5728D
:1035C00022736373A373E3730E491348BDE8F0419C
:1035D00004F050BA1348FDF727FB1A4909F0ACFA7A
:1035E00009F096FCC0F307230E482B72FDF71CFB75
:1035F000144909F0A1FA09F08BFC6872DAE700BF00
:103600000093FF1FF094FF1F6093FF1F00002041F5
:10361000D094FF1F6492FF1F9CB5FF1F3487FF1FCC
:103620003887FF1F7495FF1F0000C8421493FF1FC7
:103630005C93FF1FC894FF1F2C87FF1F5487FF1F39
:10364000E094FF1F00007A4438B5164C164A2368F0
:10365000101D12F8011F904241EA0323F9D12360A3
:10366000124C03F100432360114BDB6F022B11D08E
:10367000104B1B68012B00D038BD0F4805F046FBEE
:1036800021680D4805F092FB03210C48BDE8384045
:1036900008F01CB820680A4D09F0FAF92860FFF715
:1036A00029F8E5E7A894FF1F2B93FF1FCC94FF1F79
:1036B0006093FF1F9894FF1FD887FF1FD018010049
:1036C0007C92FF1F30B53C4C3C4883B0214604F04F
:1036D000C9F8236840F2C232934252D0A3F58C62FB
:1036E0001F2A48D9A3F5FC630F2B3FD9344B1B6825
:1036F000012B01D003B030BD324B1B68012BF9D137
:10370000314B32481B6801930A220023019905F0CE
:103710000DFB2268284B002ADB7945DB2C492D481C
:103720000AF0D2F92B480AF00BFA0146294807F0B3
:10373000CDFF2568204B15F0804526D1DB798BB174
:10374000631925491A7A23480AF0BEF921480AF07C
:10375000F7F901461F4807F0B9FF0135E379EDB2EB
:10376000AB42EDD8194805F0D1FAC3E712491B481E
:10377000FDF7E8F9BAE710491848FDF7E3F92368BF
:10378000B0E7FFF761FF2368A8E7154D114C0FCD97
:103790000FC495E8030044F8040B204620F81419E0
:1037A000152107F093FFDDE70E490A4822F0604239
:1037B0000AF08AF9B6E700BF2493FF1F9CB5FF1FEC
:1037C0003C87FF1F9894FF1F60B7FF1FD887FF1F1C
:1037D000FC1801008092FF1F281901007495FF1F3B
:1037E00010190100D4180100A24B1B78052B00F022
:1037F000A1802DE9F04FA04CA04EA14D626EE36D6B
:10380000A048326083B02B60FDF7F4FAE16A09F05A
:1038100031FB08B100232B609A48FDF7E9FAA16A51
:1038200009F046FB10B1002333602B609548FDF78B
:1038300023FAE16809F03CFB08B100232B609148B2
:10384000FDF71AFAE16809F033FB08B100232B6099
:103850008C48894FFDF7E8F9216909F00BFB002836
:103860006ED0002333602B68854F002B53DD8548D5
:10387000DFF80482FDF7BCFA216B09F0FBFA00289F
:1038800040F0C480804B7F481B687B4F012B00F0C9
:10389000FD80FDF7F1F9E1698046606909F042F8C1
:1038A0000146404609F004FB002834D0286809F09E
:1038B000EFF882467348FDF7DFF9D7F814808346A6
:1038C000F969404609F02EF88146386E09F0E0F8B3
:1038D0000446F86D09F0DCF8214609F023F8494662
:1038E0000746584609F01EF80146384609F024F903
:1038F00049460746404609F015F80146384609F0A2
:10390000CFF9214609F010F80146504609F00AF8AF
:1039100009F0D8FA28603368584A002BAFBF2B68EB
:103920002B6800211160002B01DA00232B6003B00B
:10393000BDE8F08F5149524A00230B601360704775
:103940005048FDF771F9B96909F094FA002888D157
:103950003368DFF82891002B85DD4A48FDF74AFAE5
:10396000796B09F0A5FA002840F0B3804548424F32
:10397000FDF75AF9216909F09BFA002800F09F80B1
:103980004048DFF8F480FDF74FF9D4F8B810074647
:10399000A06908F0C9FF0146384609F06BFA002813
:1039A0003FF461AF306809F073F882463548FDF79F
:1039B0003BF98346D8F86400D8F8187009F068F825
:1039C00039468146584608F0ADFF494683460020F7
:1039D00008F0A8FF0146584609F0AEF8D8F8B8102C
:1039E0008346384608F0A0FF394608F09BFF0146A1
:1039F000584609F055F9494608F096FF01465046E9
:103A000008F090FF09F05EFA30602CE7386809F0A2
:103A10003FF883461B48FDF7EBF90190D8F85C00AE
:103A2000D8F82CA009F034F8019B8146514618467D
:103A300008F078FF49460190002008F073FF019BD1
:103A40000146184609F078F851460190D8F8300040
:103A500008F068FF019B0146184609F021F9494624
:103A600008F062FF0146584608F05CFF09F02AFAA8
:103A7000386007E7C494FF1F6093FF1FD094FF1FB7
:103A80006492FF1F7495FF1F0093FF1FFDF7F4F86A
:103A9000E1698046206A08F045FF0146404609F08A
:103AA00007FA00283FF437AF286808F0F1FF824694
:103AB0001E48FDF7E1F8D7F82080834600E71B4851
:103AC000FDF7B2F8B96909F0F3F900287FF458AFAF
:103AD000C9E6D9F8000008F0DBFF82461348FDF77D
:103AE00089F90190786ED7F8348008F0D1FF019BF6
:103AF00083464146184608F015FF0146584609F02E
:103B00001BF841468346B86A08F00CFF0146584648
:103B100009F0C6F8002108F007FF0146504608F0FA
:103B200001FF09F0CFF9C9F800001FE77495FF1FE6
:103B300008B5274805F0EAF80721264807F0C6FD32
:103B4000112005F009FF0621F8B1234807F0BEFD5A
:103B5000122005F001FF062100B3204807F0B6FD52
:103B6000122005F0F9FE062108B31D4807F0AEFD4E
:103B7000132005F0F1FE062110BB1A4807F0A6FD40
:103B80001348BDE8084005F0C1B8174807F09EFD8E
:103B9000122005F0E1FE06210028DED1134807F0CF
:103BA00095FD122005F0D8FE06210028DDD1104831
:103BB00007F08CFD132005F0CFFE06210028DCD095
:103BC0000C4807F083FD0248BDE8084005F09EB8A8
:103BD000D887FF1F341901003C1901004C1901005E
:103BE0005C19010074190100441901005419010005
:103BF000641901006C19010010B5254C2368042BD1
:103C000027DC01210B2005F0A1FE01210C2005F08D
:103C10009DFE0121142005F099FE0121152005F0DB
:103C200095FEFF21162005F011FDFF21172005F05C
:103C30000DFDFF21052005F009FDFF21062005F0FF
:103C400005FD236801330A2B2360C4BF00232360D2
:103C500010BD00210B2005F079FE00210C2005F09D
:103C600075FE0021142005F071FE0021152005F0DD
:103C70006DFE0021162005F0E9FC0021172005F05B
:103C8000E5FC0021052005F0E1FC0021D6E700BF9E
:103C9000E894FF1F30B5B94C94F8BD5083B0002DA7
:103CA00000F048810921B64806F06CF9222006F0A0
:103CB00011F9B44B1B78052B0BD8DFE813F08C02FD
:103CC000910296029B02870206000721AE4806F089
:103CD00059F9222006F0FEF8FF2006F0FBF8FF203D
:103CE00006F0F8F8A94CAA4DFF2006F0F3F80821D9
:103CF000A84806F047F92168A74805F057F8FF20C3
:103D000006F0E8F8FF2006F0E5F8FF2006F0E2F8FC
:103D10000921A24806F036F921689F4805F046F8C7
:103D2000FF2006F0D7F8FF2006F0D4F8FF2006F0B9
:103D3000D1F80C219A4806F025F92C68002120467C
:103D400009F0B6F8002800F03E822046954908F0B8
:103D5000A7FF08F047FA002402460B4600948E485D
:103D600005F02EF8FF2006F0B5F8FF2006F0B2F8B7
:103D7000FF2006F0AFF807218B4806F003F9222058
:103D800006F0A8F80021286809F092F8012100281F
:103D900000F05782854806F0F5F8222006F09AF8E0
:103DA000FF2006F097F8FF2006F094F8FF2006F0B9
:103DB00091F809217E4806F0E5F87E48FCF7B2FF4D
:103DC00008F010FA002402460B460094724804F0F2
:103DD000F7FFFF2006F07EF8FF2006F07BF8FF20BB
:103DE00006F078F80721744806F0CCF8222006F097
:103DF00071F87048FCF796FF002109F059F801218D
:103E0000002800F01A82694806F0BCF80C216B48C3
:103E100006F0B8F86748FCF7EDFF08F0E3F9002476
:103E200002460B4600945C4804F0CAFFFF2006F0EF
:103E300051F8FF2006F04EF8FF2006F04BF80D2158
:103E40005F4806F09FF85B48FCF7D2FF08F0CAF91C
:103E5000009402460B46504804F0B2FFFF2006F0E3
:103E600039F8FF2006F036F8FF2006F033F8092174
:103E7000544806F087F84F48FCF724FF08F0B2F9E1
:103E8000009402460B46444804F09AFFFF2006F0D7
:103E900021F8FF2006F01EF8FF2006F01BF80C2189
:103EA000494806F06FF84348FCF7BEFE3D4908F06C
:103EB00043FE08F097F9009402460B46364804F09A
:103EC0007FFFFF2006F006F8FF2006F003F8FF2032
:103ED00006F000F80D213D4806F054F83548FCF78F
:103EE000CBFE304908F028FE08F07CF90094024629
:103EF0000B46294804F064FFFF2005F0EBFFFF208C
:103F000005F0E8FFFF2005F0E5FF0921304806F045
:103F100039F8304B2048196804F048FFFF2005F0BD
:103F2000D9FFFF2005F0D6FFFF2003B0BDE83040E9
:103F300005F0D0BF184804F0E9FE174804F0E6FE8B
:103F4000154804F0E3FE0D21234806F01BF8D4F8D1
:103F50009C30012B42D00B4C0F4821782B460A2273
:103F600004F0E4FE2378052B00F28E80DFE813F0E6
:103F700060015B01560151014C0147016093FF1F35
:103F80007C190100C494FF1F0C1701003487FF1F28
:103F90001493FF1F88190100AC87FF1F94190100BB
:103FA000A019010000007A44B0190100B8190100FD
:103FB000C01901007495FF1FCC190100D41901002C
:103FC000E4190100F4190100001A0100101A01009F
:103FD000201A01002487FF1F3C1601000921BA485E
:103FE00005F0D0FFB948FCF71FFE216908F042FF39
:103FF000002840F04D81B548FCF73EFEE16808F02E
:1040000057FF002840F03F81B048FCF735FE0546D9
:10401000AE48FCF709FE0146284608F083FCE16B38
:1040200008F046FF002840F02981A848FCF77AFEF6
:10403000A16A08F03DFF002840F01B81A348FCF76F
:1040400071FEE16A08F016FF002840F00D81A04BD8
:104050009E481B68012B00F02081FCF7E5FD2169DB
:104060009C4D08F025FF78B19848FCF705FEE968FB
:1040700008F000FF40B1984B1B78052B00F01E8123
:104080000821964805F07EFF0221954805F07AFF49
:10409000122005F061FC012800F0D780112005F006
:1040A0005BFC012800F0DB808E4B1B68012B00F0CD
:1040B000D18002218A488C4C05F064FF8B4B8C48E0
:1040C000196804F073FE8A4804F020FE0421894830
:1040D00005F058FF0B2005F03FFC002301460A22A3
:1040E000834804F023FE0C2005F036FC0023014633
:1040F0000A227F4804F01AFE142005F02DFC00234C
:1041000001460A227A4804F011FE152005F024FC2D
:104110000A2200230146764804F008FE764806216C
:1041200005F030FF2368DD074CBF74487448012157
:1041300005F028FF236898074CBF7048704801219C
:1041400005F020FF23685A074CBF6C486C480121DA
:1041500005F018FF23681B074CBF68486848012119
:1041600005F010FF0421674805F00CFF112005F051
:10417000F3FB002301460A225D4804F0D7FD10201E
:1041800005F0EAFB002301460A22594804F0CEFD5F
:10419000122005F0E1FB002301460A22544804F0F6
:1041A000C5FD132005F0D8FB002301460A22504824
:1041B00004F0BCFD544B45481968012203B0BDE82A
:1041C0003040FCF741BE04F10040BFE50B214F48F1
:1041D00005F0D8FE7DE506214D4805F0D3FE78E5D3
:1041E00007214C4805F0CEFE73E507214A4805F04B
:1041F000C9FE6EE50821494805F0C4FE69E50721BE
:10420000474805F0BFFE3FE70B21404805F0BAFEE6
:104210003AE70821414805F0B5FE35E707213E4859
:1042200005F0B0FE30E707213A4805F0ABFE2BE77A
:104230000621374805F0A6FE26E73A4805F0A2FE1B
:10424000E4E5384805F09EFEA7E50E21364805F066
:1042500099FE23E71121354805F094FE29E70A214C
:10426000334805F08FFE1FE70D21324805F08AFE26
:10427000EDE60C21304805F085FEDFE611212F48E0
:1042800005F080FED1E60E212D4805F07BFEBBE651
:104290000F212C4805F076FEADE6FCF7C5FC216A3F
:1042A00008F006FE00283FF4EBAE1621264805F084
:1042B00069FE0A21254805F065FEE5E60A21234846
:1042C00005F060FEE0E600BF4C1601007495FF1F8C
:1042D0000093FF1F6093FF1FC494FF1FD0160100BF
:1042E00040190100E094FF1F2494FF1FAC94FF1FAE
:1042F000AC87FF1F441701004C1701005417010041
:104300006C250100581701005C87FF1FEC160100A7
:10431000DC160100E4160100F81601000017010088
:104320000C170100BC19010014170100301701001F
:10433000241701009C1601008C160100781601005C
:104340006816010058160100AC160100C4160100E1
:104350002DE9F0418D4DD5F8AC30042B3ED0032B28
:104360006ED0012B00F09880022B01D0BDE8F081C7
:10437000874C8848237240F20E3201232146226086
:10438000E37103F077FB844B1B685B00FF2BC8BF16
:10439000FF23042140224FF441702060E17122721A
:1043A0006372286D08F074FB696908F0C5FB7B49EE
:1043B000054608F07DFD002800F0DE8029462846ED
:1043C00008F0B2FA08F0A4FD80B20312E072A37202
:1043D0006F497048BDE8F04103F04CBB6C4C704A2B
:1043E000A379226043F001030822E271A371286DD2
:1043F00008F04EFB696908F09FFB6A4908F09CFBD6
:1044000008F086FD644B684A1B68126893FBF2F360
:1044100080B200261A120712607221465D48E372CC
:10442000A272277226736673A673E67303F022FBEB
:10443000A279D5F8AC3066F30002032BA27190D1BB
:10444000534C286DA3720122E823072140F2FF2676
:10445000227263722660E17108F01AFB696908F044
:104460006BFB504908F068FB08F052FD4A4B4E4A7E
:104470001B68126893FBF2F382B21E1217122146D8
:1044800044486373E2722773A67303F0F3FAD5F816
:10449000AC30012B7FF468AF444B3D4C1B6823606C
:1044A000072280231020E271237205F055FA0028BC
:1044B00069D13F4B1B68DFF8E0803B4F286D344EDD
:1044C00003EB83035B001A12A3726272D8F8003008
:1044D0003A6893FBF2F31A126273A37308F0D8FAE6
:1044E000696908F029FB334B196808F01BFA2D495C
:1044F00008F022FB08F00CFD80B203123146207355
:104500002448E37203F0B6FA022005F05BFA2A4B66
:104510001B682360072280231020E271237205F0BC
:104520001BFA70BB224B1B68286D03EB83035B00F7
:104530001A127272B37208F0ABFA696908F0FCFAE9
:104540001E4B196808F0EEF9164908F0F5FA08F064
:10455000DFFC82B216123868D8F80030227393FB61
:10456000F0F30B490B48A3731A12E672627303F05F
:1045700081FAD5F8AC30F7E601229023A272E372FB
:1045800026E70F4BCFE70E4B94E700BF6093FF1F6A
:10459000F094FF1F9CB5FF1F6492FF1F000048436B
:1045A000F4E50618000020414C87FF1F6087FF1FBD
:1045B0004487FF1F2894FF1F6487FF1F1C93FF1F62
:1045C0004887FF1F2DE9F041974ED6F8AC40042CE8
:1045D00082B04BD0032C77D0012C00F0A480022CA9
:1045E00002D002B0BDE8F081904D019500274FF058
:1045F0000408CDF8008040F20E313B463A462C705C
:104600008B486F70AF70EF7004F03CF8404605F0D7
:10461000D9F9884B306D1B685B00FF2BC8BFFF23A7
:1046200040222A706B7008F033FA716908F084FA3E
:104630008149044608F03CFC002800F0EB8021464C
:10464000204608F071F908F063FC80B20312E870AC
:10465000AB70002304228DE824004FF441711A4608
:10466000734804F00FF802B0BDE8F081306D6F4C74
:10467000724F08F00DFA716908F05EFA704908F09F
:104680005BFA08F045FC6B4B0194082180B20025D1
:1046900040FA01F21B683F6893FBF7F747FA01FE07
:1046A00000912B4622706070E77084F802E025715B
:1046B0006571A571E571012262495D4803F0E2FF71
:1046C000D6F8AC40032C87D1584D306DAC70012228
:1046D000E8232A706B7008F0DBF97169574C08F019
:1046E0002BFA574908F028FA08F012FC514A0195B4
:1046F00080B21268246892FBF4F44FEA202E07215E
:104700000023271200911A46E8706C7140F2FF21D5
:1047100085F804E04648AF7103F0B4FFD6F8AC402A
:10472000012C7FF45CAF414D802310202B7005F0ED
:1047300013F9002875D1444B1B683E4F3F4C306D38
:10474000DFF8E88003EB83035B001A12AB706A703A
:104750003B68226893FBF2F31A126A71AB7108F09E
:1047600097F9716908F0E8F9384B196808F0DAF838
:10477000334908F0E1F908F0CBFB354B019580B2E5
:1047800019684FEA202E0023072200921A4628714A
:1047900085F803E0264803F075FF042005F012F9C0
:1047A000802310202B7005F0D7F8002837D1264B36
:1047B0001B68306D03EB83035B001A1288F801203D
:1047C00088F8023008F064F9716908F0B5F9214BF6
:1047D000196808F0A7F81A4908F0AEF908F098FB34
:1047E0001D4B3A681968246892FBF4F480B20727DD
:1047F00000974FEA202E0023271201951A462871B0
:10480000AC7185F803E00A486F7103F03BFFD6F8FE
:10481000AC40E4E601229023AA70EB7019E70F4B3D
:10482000C6E70E4B88E700BF6093FF1F0C93FF1F86
:104830001095FF1F6492FF1F000048434C87FF1F25
:1048400000002041F4E506184487FF1F2894FF1F4D
:104850006087FF1F1C93FF1F6487FF1F4887FF1F90
:1048600038B5164D164A1748294603F03FFF18B1D0
:10487000154B1B68012B00D038BD12211348144C76
:1048800006F024FF296813480023102204F04EFA92
:10489000104804F03BFA04F1080514F8011F0D4814
:1048A00000230A2204F042FA092006F093FFA542F1
:1048B000F3D10848BDE8384004F028BA0893FF1F38
:1048C0000C93FF1F1095FF1F0C95FF1F2C1A010062
:1048D0000B93FF1FD887FF1FFA2810B504461BD083
:1048E000B0F5FA7F0FD11021134803F0B5FFC8B11E
:1048F0000F21124806F0EAFE114804F007FA114BA6
:10490000A3F8C04010BD0F210F4806F0DFFE0C4891
:10491000BDE8104004F0FAB90F21074803F09CFFEE
:104920000028E5D11121094806F0D0FE0448BDE871
:10493000104004F0EBB900BF1095FF1F401A0100B2
:10494000D887FF1F6093FF1F641A0100501A0100EF
:10495000F0B5924C924D83B006F052FE2368286069
:10496000042B00F09A82022B20D0092B67D0082B51
:1049700040F0F280322800F0B283712868D03128EC
:104980006AD106F079FE002840F31C878548864EE0
:1049900004F050FBC0B286F8400002288ABF002114
:1049A000014686F84010726C8048ACE3A0F13102F9
:1049B000422A51D8DFE812F0CC07D807E607F807FB
:1049C0000B081A08500050005000500050005000D2
:1049D0005000500050005000500050005000500057
:1049E0005000500050005000500050005000500047
:1049F0005000500050005000500050005000500037
:104A00005000500050005000500050005000500026
:104A10005000500050005000500050002708500037
:104A20005000500050005000500050005000500006
:104A300050005000500050004C0050002D0832280B
:104A40007CD040F36783332800F0AB86712803D114
:104A50000023732023602860732808BF002B0CBF3D
:104A600001200020002867D04E4804F04FF90421AF
:104A70004F4806F02BFE4B4804F048F910214D48F2
:104A800006F024FE474804F041F913214A4806F095
:104A90001DFE4A4B4348196804F088F9414804F068
:104AA00035F91421464806F011FE3E4804F02EF96F
:104AB0001E21444806F00AFE3A4804F027F9152161
:104AC000414806F003FE374804F020F91E213F4814
:104AD00006F0FCFD334804F019F920213C4806F0AB
:104AE000F5FD304804F012F919213A4806F0EEFDC0
:104AF0002C4804F00BF91621374806F0E7FD294849
:104B000004F004F91221354806F0E0FD254804F0D0
:104B1000FDF80F21324806F0D9FD224804F0F6F8DE
:104B20000D21304806F0D2FD1E4804F0EFF82E4A61
:104B3000002101231160236003B0F0BD0123236035
:104B400006F09AFD002804DD164804F073FAFFF71A
:104B5000C3FE782023682860072B4BD1332801F04F
:104B6000C58300F32782312801F0D38332287FF4F4
:104B700073AF06F081FD00283ADD0A480A4E04F0C2
:104B800059FA07F085FF194907F0D6FF6123012282
:104B9000F06322602B601846CBE200BFB494FF1F85
:104BA0006092FF1FD887FF1F6093FF1F7495FF1F40
:104BB00050230100582301006C2301002487FF1FAC
:104BC0008023010098230100B8230100D0230100B5
:104BD000F0230100142401003024010048240100C6
:104BE0005C2401006C2401003C87FF1F6F12833A94
:104BF00023682868062B40F08D80A0F13102402AFE
:104C00003FF62AAF01A151F822F000BFC9580000B9
:104C1000155800002B590000F358000017590000E8
:104C2000D7570000F9570000594A0000594A0000C0
:104C3000594A0000594A0000594A0000594A0000E8
:104C4000594A0000594A0000594A0000594A0000D8
:104C5000594A0000594A0000594A0000594A0000C8
:104C6000594A0000594A0000594A0000594A0000B8
:104C7000594A0000594A0000594A0000594A0000A8
:104C8000594A0000594A0000594A0000594A000098
:104C9000594A0000594A0000594A0000594A000088
:104CA000594A0000594A0000594A0000594A000078
:104CB000594A0000594A0000594A0000594A000068
:104CC000594A0000594A0000594A0000594A000058
:104CD000594A0000594A0000594A0000594A000048
:104CE000594A0000594A0000594A0000594A000038
:104CF000594A0000594A0000594A0000594A000028
:104D0000594A0000594A0000594A0000514A00001F
:104D100023682868052B15D1332801F0108340F350
:104D20005D81352801F04383C1F22B8371287FF424
:104D300093AEB54A002373201360236028608BE68E
:104D400023682868032B40F0A480A0F13002422A97
:104D50003FF682AE01A151F822F000BF694E00007B
:104D60000961000031610000ED5F00000F6000008C
:104D70003160000059600000816000009F60000009
:104D8000C3600000594A0000594A0000594A000017
:104D9000594A0000594A0000594A0000594A000087
:104DA000594A0000594A0000594A0000594A000077
:104DB000594A0000594A0000594A0000594A000067
:104DC000594A0000594A0000594A0000594A000057
:104DD000594A0000594A0000594A0000594A000047
:104DE000594A0000594A0000594A0000594A000037
:104DF000594A0000594A0000594A0000594A000027
:104E0000594A0000594A0000594A0000594A000016
:104E1000594A0000594A0000594A0000594A000006
:104E2000EB6000002F5B0000935F0000B15F0000AB
:104E3000CF5F00008F610000E55A0000095B0000B1
:104E4000594A0000594A0000594A0000594A0000D6
:104E5000594A0000594A0000594A0000594A0000C6
:104E6000875F00005961000006F006FC002841F34E
:104E700036826648664E04F0DDF801270346014697
:104E800062226448736527602A60FBF71DFF236870
:104E90002868012B7FF4E0AD4BE1A0F13002412AFC
:104EA0003FF6DAAD01A151F822F000BFAB5A000085
:104EB000E15A00007F5A0000C35A0000875A0000E0
:104EC0008B5A00002B5A0000835A0000455A0000FC
:104ED0005D5A0000594A0000594A0000594A000032
:104EE000594A0000594A0000594A0000594A000036
:104EF000594A0000594A0000594A0000594A000026
:104F0000594A0000594A0000594A0000594A000015
:104F1000594A0000594A0000594A0000594A000005
:104F2000594A0000594A0000594A0000594A0000F5
:104F3000594A0000594A0000594A0000594A0000E5
:104F4000594A0000594A0000594A0000594A0000D5
:104F5000594A0000594A0000594A0000594A0000C5
:104F6000594A0000594A0000594A0000594A0000B5
:104F7000A75A0000594A0000594A0000594A000047
:104F8000594A0000594A0000594A0000594A000095
:104F9000594A0000594A0000594A0000594A000085
:104FA000594A0000594A0000594A0000594A000075
:104FB000514A000034287FF449AD06F05DFB00281B
:104FC0007FF716AE1148124E04F034F86123012227
:104FD000A6F8B40022602B601846AAE0312801F040
:104FE000BF8132287FF438AD06F046FB00287FF7FA
:104FF000A7AE0648064E04F01DF801226B23C6F842
:10500000980022602B6009E03493FF1FD887FF1FB0
:105010006093FF1F7495FF1F06F0F2FA06F02CFB59
:105020000028F9D1B24803F071FEB14803F06EFEDA
:10503000AF4803F06BFEAE4803F068FEAC4803F0E7
:1050400065FE2121AB4806F041FBA94803F05EFE56
:105050001521A94806F03AFBD6F89010A44803F0B1
:10506000A5FE0221A54806F031FBA14803F04EFE43
:105070001E21A34806F02AFBD6F898109C4803F09E
:1050800095FE03219F4806F021FB994803F03EFE60
:105090001E219D4806F01AFBD6F89410944803F0A0
:1050A00085FE934803F032FE1D21984806F00EFB62
:1050B000D6F8A0108E4803F079FE8D4803F026FE46
:1050C0001E21934806F002FBD6F8A410884803F08E
:1050D0006DFE874803F01AFE052323602CE506F0D9
:1050E000CBFA002840F3738381488A4E03F0A2FF75
:1050F00007F0CEFC884907F01FFD96F840100346E4
:10510000024686487364FBF7E1FD012369202360B2
:1051100028600EE031287FF49FAC7E4E96F8BE30BA
:10512000B3FA83F35B090122782086F8BE3022604F
:105130002860A0F15203262B01F2C880DFE813F0AB
:105140004708C608C608C608C608C608C608C6086E
:10515000C608C608C608C608C608C608C608290084
:10516000550AC5020E025A01C608C608C6080C0137
:10517000C608520AC608C608C608C608C6084908AE
:10518000C608C608C608C608C608C6089D0006F0B8
:1051900037FA06F071FA05460028F8D154485D4EFA
:1051A00003F0B4FD524803F0B1FD514803F0AEFDE9
:1051B0004F4803F0ABFD4E4803F0A8FD1F215848AF
:1051C00006F084FA4A4803F0A1FD1C21554806F078
:1051D0007DFA706A544907F0AFFC07F003F80095B8
:1051E00002460B46424803F0EBFD02214F4806F011
:1051F0006DFA3F4803F08AFD23214D4806F066FA18
:10520000F06B494907F098FC06F0ECFF0095024668
:105210000B46374803F0D4FD0221444806F056FA05
:10522000334803F073FD1921424806F04FFAB06B82
:1052300006F0D8FF02250B46024600952C4803F0E5
:10524000BFFD29463C4806F041FA294803F05EFDBF
:1052500019213A4806F03AFAB6F8B410244803F097
:10526000A5FD0321364806F031FA214803F04EFD32
:105270000723236060E406F0C3F906F0FDF9002877
:10528000F9D11B48234D03F041FD194803F03EFDC1
:10529000174803F03BFD164803F038FD144803F0AF
:1052A00035FD1221274806F011FA114803F02EFDB2
:1052B0000F4803F02BFD0E4803F028FD192122486A
:1052C00006F004FA95F8BE30002B41F08C800421E2
:1052D0001E4806F0FBF9064803F018FD13211C4890
:1052E00006F0F4F9024803F011FD0923236023E4DA
:1052F000D887FF1F6C1D0100901D01007C1C010060
:10530000A81D010088170100C81D0100E81D01004B
:10531000081E01006093FF1F6F12833A7495FF1FF0
:10532000C81C0100E81C010000007A44681B010051
:10533000081D01002C1D0100481D01004C1D01002D
:10534000681D010034240100981A0100B41A0100FC
:105350000C1B010006F054F906F08EF905460028F2
:10536000F8D16D486D4E03F0D1FC6B4803F0CEFCD4
:10537000694803F0CBFC684803F0C8FC664803F0BA
:10538000C5FC1521664806F0A1F9634803F0BEFC90
:105390001821644806F09AF92B460A2296F8401024
:1053A0005D4803F0C3FC5C4803F0B0FC28215E4874
:1053B00006F08CF9706C5D4907F0BEFB06F012FF39
:1053C00000950B460246544803F0FAFC0221584867
:1053D00006F07CF9504803F099FC1321554806F07B
:1053E00075F94D4803F092FC08232360FFF7A4BB36
:1053F00006F006F906F040F905460028F8D14648BF
:10540000464E03F083FC444803F080FC424803F01E
:105410007DFC414803F07AFC3F4803F077FC112102
:10542000454806F053F93C4803F070FC28214348F6
:1054300006F04CF970693D4907F07EFB06F0D2FE9C
:10544000009502460B46344803F0BAFC0221384866
:1054500006F03CF9304803F059FC1621384806F0B4
:1054600035F9F069314907F067FB06F0BBFE00959E
:105470000B460246284803F0A3FC02212C4806F004
:1054800025F9254803F042FCD6F8AC30002B32DD7C
:105490001D212C4806F01AF9F06D07F0F9FA2A4997
:1054A00007F04AFB06F09EFE022502460B460095D9
:1054B000194803F085FC0121244806F007F9164835
:1054C00003F024FC1F21224806F000F9306E07F09B
:1054D000DFFA1D4907F030FB06F084FE0095024616
:1054E0000B460D4803F06CFC0121184806F0EEF85D
:1054F000094803F00BFC1121164806F0E7F8D6F82E
:10550000AC30052B00F29286DFE813F0D606DB06FE
:10551000D106CC06C7068C06D887FF1F6093FF1FF5
:1055200018240100201B01003C1B010000007A44EC
:10553000681B01000C1B0100BC2301006C1B010057
:10554000981B0100B01B0100CDCCCC3DA420010074
:10555000D01B0100F01B010006F052F806F08CF899
:105560000028F9D1B648B74D03F0D0FBB44803F09A
:10557000CDFBB34803F0CAFBB14803F0C7FBB0480A
:1055800003F0C4FB1321B04806F0A0F8AC4803F0C8
:10559000BDFB0D21AD4806F099F8A94803F0B6FB14
:1055A0000F21AB4806F092F8AA4BA548196803F002
:1055B000FDFBA34803F0AAFB1321A74806F086F8D9
:1055C000A64B9F48196803F0F1FB9D4803F09EFB32
:1055D0001221A34806F07AF8A24B9948196803F003
:1055E000E5FB974803F092FB11219F4806F06EF807
:1055F0009E4B9348196803F0D9FB914803F086FB52
:105600000E219B4806F062F8D5F89C108C4803F0F8
:10561000CDFB8B4803F07AFB1921964806F056F82B
:10562000954B8748196803F0C1FB854803F06EFB72
:105630001121924806F04AF8914B8148196803F00D
:10564000B5FB7F4803F062FB10218E4806F03EF860
:105650008D4B7B48196803F0A9FB794803F056FB92
:105660001C218A4806F032F8894B7548196803F006
:105670009DFB734803F04AFB1E21864806F026F87E
:1056800095F8BD30002B00F0A5860D21824806F06C
:105690001DF86B4803F03AFB1521804806F016F818
:1056A0007F4B6748196803F081FB654803F02EFBC8
:1056B00013217C4806F00AF8614803F027FB042315
:1056C0002360FFF739BA05F09BFF05F0D5FF0028EE
:1056D000F9D15B485B4E03F019FB594803F016FB08
:1056E000574803F013FB564803F010FB544803F0EF
:1056F0000DFB1F216C4805F0E9FF514803F006FB44
:105700001E216A4805F0E2FF4D4803F0FFFA1A2116
:10571000674805F0DBFFF36F022B00F0E386032BF5
:1057200000F0D786012B00F0CB860921614805F0F7
:10573000CDFF434803F0EAFA14215F48414F05F0DA
:10574000C5FFB16F3E4803F031FB3D4803F0DEFA80
:105750001C215A4805F0BAFFD6F88010384803F0EB
:1057600025FB374803F0D2FA1C21554805F0AEFF5F
:10577000D6F8A810324803F019FB314803F0C6FAF6
:10578000F56F25F00205012D00F0698613214548CB
:1057900005F09CFF2A4803F0B9FA02232360FFF7C3
:1057A000CBB905F069FF002840F33B812448254E22
:1057B00003F040FC7823012286F8C20022602B60AF
:1057C0001846B6E41F4E96F84000FFF7E6B8236887
:1057D0002868FFF7C1B905F04FFF00287FF798AAA6
:1057E0001748184E03F026FC65230122C6F8B000C6
:1057F00022602B6018469CE4124B93F8BC20002AD0
:1058000000F0E385002283F8BC200123652023609B
:1058100028608EE405F030FF00287FF779AA084859
:10582000084E03F007FC07F033F9264907F038FA71
:1058300065230122F06122602B60184679E400BFE5
:10584000D887FF1F6093FF1F281E01003C1E010028
:105850004C1E01009894FF1F5C1E01000495FF1F61
:10586000701E0100C094FF1F841E0100EC94FF1FF6
:10587000981E0100A81E0100AC94FF1FC41E010069
:105880003493FF1FD81E01000493FF1FEC1E01007C
:105890005C87FF1F0C1F01002C1F01004C1F010023
:1058A0000C95FF1F0C1B0100641F0100841F0100E9
:1058B000A41F01001C20010028200100402001003D
:1058C0006020010000007A4405F0D6FE00287FF732
:1058D0001FAA9E489E4E03F0ADFB07F0D9F89D49E4
:1058E00007F0DEF965230122706122602B60184603
:1058F0001FE405F0C1FE00287FF70AAA9348944EE2
:1059000003F098FB00EB8000430001226520336622
:10591000226028600DE48E4AD2F8AC300133052BAA
:10592000C8BF0023C2F8AC306FE705F0A5FE002821
:105930007FF7EEA98548864E03F07CFB00EB8000E4
:10594000430001226520F36522602860FFF7F1BB68
:105950007F4EB36FB3FA83F35B0901226320B36711
:1059600022602860FFF7E5BB794ED6F88030B3FAA5
:1059700083F35B0901226320C6F88030226028602F
:10598000FFF7D7BB0123236005F076FE002805DD75
:105990006E486F4E03F04EFBC6F8A800012363204B
:1059A00023602860FFF7C5BB0123236005F064FE78
:1059B000002807DD6548664E03F03CFB07F068F8F9
:1059C000C6F88C00632028602368FEF7D0BF01234F
:1059D000236005F051FE0028F4DD5C485C4E03F0C6
:1059E00029FB07F055F8C6F88800EBE70123236090
:1059F00005F042FE0028E5DD5448554E03F01AFB41
:105A0000A6F8B600DEE7FDF7EBFB23682868FEF793
:105A1000ACBF4F4AD36F0133032BC8BF0023D367FA
:105A2000BCE723682868FEF7A2BF01234A48236029
:105A3000FBF75EF8494A2368106064222A606420FC
:105A4000FEF793BF464A1368B3FA83F35B0901215B
:105A50006420136021602860FFF76BBB0123236083
:105A600005F00AFE002800F3F2843E4B1A68042A6F
:105A7000C4BF02221A6064232B602368DFE73A4A1E
:105A8000E1E73A4ADFE73A4ADDE7314ED6F89C30A3
:105A9000B3FA83F35B0901226420C6F89C302260CC
:105AA0002860FFF746BB334ACDE7294E96F8BD3054
:105AB00001225340642086F8BD3022602860FFF741
:105AC00038BB2D4A2D4F1368002B0CBF0123002338
:105AD0004FF001001360206040F00D850346ACE7F5
