:1000000000800020BD010000797E0000317E0000EC
:10001000317E0000317E0000317E0000317E000024
:10002000317E0000317E0000317E0000797E0000CC
:10003000797E0000317E00008D7400009175000013
:10004000797E0000797E0000797E0000797E0000D4
:10005000797E0000797E0000797E0000797E0000C4
:10006000797E0000797E0000797E0000797E0000B4
:10007000797E0000797E0000797E0000797E0000A4
:10008000797E0000797E0000797E0000797E000094
:10009000797E0000797E0000797E0000797E000084
:1000A000797E0000797E0000797E0000797E000074
:1000B000797E0000796A0000856A0000896A000084
:1000C000956A0000996A00009D6A0000797E000030
:1000D000797E0000797E0000797E0000797E000044
:1000E000797E0000797E0000797E0000797E000034
:1000F000797E0000C19F0000797E00006D8B0000BA
:10010000797E0000398D0000797E0000797E000044
:10011000797E0000797E0000797E0000797E000003
:10012000797E0000797E0000797E0000797E0000F3
:10013000797E0000797E0000797E0000797E0000E3
:10014000797E0000797E0000797E0000797E0000D3
:10015000797E0000797E0000797E0000797E0000C3
:10016000797E0000C98F0000797E0000797E000052
:10017000797E0000797E0000797E0000797E0000A3
:10018000797E0000797E0000797E0000797E000093
:10019000797E0000797E0000797E0000797E000083
:1001A000797E0000797E0000797E0000797E000073
:1001B000797E0000797E0000797E0000564B4CF27B
:1001C000205210B51A804DF628121A8000BF00BFC9
:1001D00007F056FE514B4FF010621A60504A9A6079
:1001E000504ADA60504A136813F4807304D14F49BF
:1001F0000B604FF4A85313604D4B1A78110703D5C9
:100200001A7842F008021A704A4B4B492A221A7097
:100210004A4A4B4B8B4204D252F8040F43F8040B6A
:10022000F8E7484B484900228B4202D243F8042B9E
:10023000FAE74649464A002352F8230041F82300D2
:1002400001336F2BF8D1434B434A802103F8011B44
:100250009342FBD1414B3D4A1A60414B8A221A70AE
:10026000A3F5805324225A70A0221A709A7992071B
:10027000FCD59A79D406FCD43A4A937903F00C035E
:10028000082B384BF9D103221A7140225A719A79FE
:100290009006FCD5334A9179324B4906FBD5324A58
:1002A000324911600221516020221A709A7902F0BD
:1002B0000C020C2AFAD12E4B2E4A1A602E4B2F4AD2
:1002C0001A6000225A60072243F8042C2C4AC3F813
:1002D0000C2D62B608F0B4F8144B1B68DA0705D58C
:1002E000284807F091FE284B284A1A60284B1B78B3
:1002F0005B0609D5244C254B22689A4204D121483B
:1003000007F082FE002323600BF03CF907F0BEFDEE
:1003100007F0ECFCFEE700BF0E20054030800440F3
:10032000823F04000100002B10D0034014D0034092
:1003300002D0074000E007402892FF1FB40F0100E1
:100340002087FF1F2892FF1FB0B9FF1F0082FF1FE9
:100350000000000000E400E05FE400E008ED00E0E1
:100360000050064000400640448004400000030165
:1003700004800440C010050014E000E0FF76010096
:10038000000020205FA9ED5C1CE00340A5C3945A47
:1003900000F00740FFFFFFFFFFFFFFFFFFFFFFFF32
:1003A000FFFFFFFFFFFFFFFFFFFFFFFFFFFFFFFF5D
:1003B000FFFFFFFFFFFFFFFFFFFFFFFFFFFFFFFF4D
:1003C000FFFFFFFFFFFFFFFFFFFFFFFFFFFFFFFF3D
:1003D000FFFFFFFFFFFFFFFFFFFFFFFFFFFFFFFF2D
:1003E000FFFFFFFFFFFFFFFFFFFFFFFFFFFFFFFF1D
:1003F000FFFFFFFFFFFFFFFFFFFFFFFFFFFFFFFF0D
:10040000FFFFFFFFFFFFFFFFFFFFFFFFDEF9FFFF23
:1004100010B5054C237833B9044B13B10448AFF33E
:1004200000800123237010BD2892FF1F00000000F0
:10043000B00F0100084B10B51BB108490848AFF3D5
:1004400000800848036803B910BD074B002BFBD0A0
:10045000BDE81040184700BF000000002C92FF1FAD
:10046000B00F01002892FF1F000000002DE9F041AD
:10047000002600F5C67400F5D0774FF0000854F858
:10048000045F0E4928460BF027F80D4950B1284665
:100490000BF004F830B1304629460AF059FD08F156
:1004A0000108064640460AF007FE014630460AF0BB
:1004B0000BFFBC420646E2D1BDE8F0810000A0C1BE
:1004C00000001643F0B4194F0024031F00F180010F
:1004D00000F5827200F17C0643F8044FB34241F804
:1004E000047F4FF0000542F8044FF5D10023104A75
:1004F0001049C0F88C51C0F89051C0F89451C0F820
:100500009851C0F89C51C0F8A051C0F8B051C0F843
:10051000A421C0F8AC21C0F8A81180F8B83180F847
:10052000B93180F8D031F0BC704700BF0000A04066
:10053000000048430000C8C238B590F8D0310B2BFA
:100540000546144607D8702966D0E02931D06029C5
:1005500000F09B8038BD70293AD0E02929D060296D
:10056000F8D1137A507A1B0203F47063181805D07F
:100570000AF0A2FD63490AF0F3FD6860A37AE07A0D
:100580001B0203F47063181805D00AF095FD5D494D
:100590000AF0E6FDA860237B607B1B0203F4706316
:1005A0001818D7D00AF088FD56490AF0D9FDE8603E
:1005B00038BDE37BA07B03EB00200AF07DFD5249B0
:1005C0000AF0CEFD51490AF0C3FCC5F8900138BDD0
:1005D000137A507A1B0203F4FE43181805D00AF070
:1005E0006BFD48490AF0BCFD6861A07AE37A13EB21
:1005F000002005D00AF060FD42490AF0B1FDA86173
:10060000207B637B13EB0020A4D00AF055FD3D490D
:100610000AF0A6FDE86138BD137A507A1B0203F494
:100620007063181805D00AF047FD36490AF098FDA6
:100630006861A37AE07A1B02C34208D003F47063B6
:1006400018440AF039FD2F490AF08AFDA861237B7E
:10065000607B1B02C34208D003F4706318440AF0A5
:100660002BFD28490AF07CFDE861A37BE07B1B029F
:10067000C3423FF46FAF03F4706318440AF01CFDEB
:1006800020490AF06DFD286238BD137A507A1B02AA
:1006900003F4FE42C24208D003F4706318440AF027
:1006A0000BFD18490AF05CFD6860A37AE07A1B0232
:1006B000C34208D003F4706318440AF0FDFC1149EA
:1006C0000AF04EFDA860237B607B1B02C34208D06A
:1006D00003F4706318440AF0EFFC0A490AF040FD85
:1006E000E860A37BE07B1B02C3423FF433AF03F41B
:1006F000706318440AF0E0FC02490AF031FD2861F9
:1007000038BD00BF0AD7A33ADDB504BD00001643CB
:10071000D0F8DC01704700BF90F8C001704700BFFF
:1007200090F8BC01704700BF90F8C401704700BF4B
:1007300090F8C801704700BF202994BF50F82100ED
:10074000002070472DE9F0410B4E8046041F00F158
:100750007C0754F8045F314628460AF09FFE30B10A
:10076000D8F8B41128460AF0B7FE00B12E46BC42B4
:10077000EFD13046BDE8F081000020412DE9F04185
:10078000D0F8B4714FF00008041F00F17C0654F853
:10079000045F394628460AF09FFE084948B12846BA
:1007A0000AF07CFE414620B128460AF095FE00B1D1
:1007B000A846B442EBD14046BDE8F0810000A0401D
:1007C0002DE9F0470023D0F8B471C0F8DC3182463F
:1007D0001C464FF000099846061F56F8045F38463D
:1007E00029460AF05BFE0E4960B128460AF056FE23
:1007F00040B1484629460AF0ABFB08F101088146A2
:10080000CAF8DC410134202CE7D1CAF8D481404633
:100810000AF052FC014648460AF056FDBDE8F08752
:1008200000007042D0F8D401704700BFD0F8CC313E
:1008300070B5044683BBFFF719FE4FF07C510AF0F8
:100840004BFE40B3D4F890614FF07C5130460AF033
:1008500043FED4F8945118BBD4F898414FF07C5122
:1008600028460AF039FE58B1294630460AF034FECF
:1008700030B1214628460AF011FE08B12C4625E089
:100880004FF07C5120460AF027FE20B12846214631
:100890000AF022FEA0B970BD633350F82300CCE704
:1008A000304629460AF0FAFDD4F898410028D5D000
:1008B000304621460AF0F2FD0028CFD0344605E04C
:1008C000304621460AF008FE0028E4D0204670BDDC
:1008D00038B5D0F89441D0F89051214628460AF016
:1008E000DDFD00B92C46204638BD00BFD0F8CC3124
:1008F0000BB9FFF7BBBD633350F82300704700BF4F
:100900002DE9F8434FF00008D0F8B471C0F88C819D
:100910008146041F00F17C0654F8045F39462846DE
:100920000AF0DAFD084950B128460AF0B7FD30B1A7
:10093000404629460AF00CFB8046C9F88C01B442B7
:10094000EAD14046BDE8F8830000704202299ABF10
:10095000643150F821000020704700BF102998BF73
:1009600080F8D011704700BF90F8D001704700BFE9
:1009700090F8B801704700BF90F8B901704700BF08
:10098000C0F8CC11704700BF80F8B811704700BFA5
:1009900080F8B911704700BF30B5C0F8B41183B00A
:1009A000084609F033FF074C022502460B46009526
:1009B000204606F0F5FE204603B0BDE8304006F0C4
:1009C00095BE00BFC887FF1F70B500F500550646ED
:1009D000183500F13804204604F5F074FFF772FD75
:1009E000AC42F8D106F50675012428460021FFF730
:1009F000CBFF214628460134FFF7B0FF112C05F547
:100A0000F075F2D142F2200400250548054A064B54
:100A10003555002130627162B262F362304670BDBA
:100A200000007A44000048430000C8C270B500F5D9
:100A3000EC46583600F50674002508E001252046EE
:100A4000002104F5F074FFF7A3FFB4420AD020465A
:100A5000FFF78EFF0028F2D02046FFF78DFF002819
:100A6000ECD170BD284670BD42F224032DE9F0415F
:100A7000002200F5F15500F500578046C2501835A8
:100A8000243700F5067403E004F5F074AC420ED090
:100A90002046FFF76DFF0028F6D020463E68FFF79E
:100AA000C1FE04F5F0743044AC423860F0D142F23B
:100AB000240358F80300BDE8F08100BFF8B50F46E5
:100AC000096801F00F050135C5EB051400EB441072
:100AD00000F13804204601F0F006FFF745FF85429B
:100AE00003D029462046FFF739FF20460121FFF7B2
:100AF0004BFF20460121FFF74BFF3A463146204687
:100B0000BDE8F840FFF718BD70B5002300F50056AA
:100B100005460361183600F5067403E004F5F07429
:100B2000A64223D02046FFF723FF0028F6D0204618
:100B3000FFF7E6FE014628690AF00AFA2861204616
:100B4000FFF774FEA96A0AF0A9FC20BB2046FFF754
:100B5000BFFEE96A0AF0C0FC0028DFD02046FFF79C
:100B6000B7FE04F5F074A642E862DBD168690AF0CA
:100B7000A3FA014628690AF0A7FB696A28610446BE
:100B80000AF0AAFC00B16C62296A20460AF086FCD1
:100B900000B12C6270BD2046FFF748FEA862D5E781
:100BA00070B5124B836100F500550646183500F507
:100BB000067403E004F5F074AC4214D02046FFF74D
:100BC000D7FE0028F6D02046FFF7BCFDB1690AF039
:100BD00065FC0028EED02046FFF7B4FD04F5F07464
:100BE000AC42B061EAD1B06970BD00BF0000A04066
:100BF0002DE9F04F83B000F10F0200F10709114613
:100C0000009204464B46002203F8012F9942FBD183
:100C100004F5067504F110032E4604F108089B46FE
:100C200001953046FFF7A4FEC0B101274FF0000A3E
:100C30002046FFF7B5FF394605463046FFF77CFDF5
:100C4000014628460AF02AFC18B10123BB404AEAB3
:100C5000030A0137092FEBD188F800A008F1010839
:100C6000C34506F5F076DCD14FF4407208232260CC
:100C7000E37121462048019D05F09EFD009A002366
:100C800009F8013F4A45FBD104F5885B0BF1180BCD
:100C900004F101094FF0010A2846FFF769FEC0B1CF
:100CA00001264FF000082046FFF77AFF314607463D
:100CB0002846FFF741FD014638460AF0EFFB18B120
:100CC0000AFA06F348EA03080136092EEBD189F83F
:100CD000008005F5F0755D4509F10109DCD1064894
:100CE0004FF44472052321462260E37103B0BDE84E
:100CF000F04F05F061BD00BF14B5FF1F70B50023B4
:100D000000F500550646C361183500F5067403E08A
:100D100004F5F074AC4214D02046FFF729FE0028F9
:100D2000F6D02046FFF72AFDF1690AF0D5FB00282E
:100D3000EED02046FFF722FD04F5F074AC42F061DE
:100D4000EAD1F06970BD00BF00697047416170472A
:100D5000F8B50F46164600F50674012504E0013586
:100D6000112D04F5F0741BD02046FFF701FE00287A
:100D7000F5D029460B4806F009FD0A4806F0B6FCF6
:100D8000782009F03BF820463946FFF7F9FD013598
:100D900020463146FFF700FE112D04F5F074E3D133
:100DA000F8BD00BFC887FF1F2DE9F84300F50055C7
:100DB00042F21C032E4600278046C7504FF0000920
:100DC00018351C3600F5067403E004F5F074A542EE
:100DD00014D02046FFF7CCFD0028F6D0336801334D
:100DE00033602046FFF782FD1D490AF075FB90B97C
:100DF00004F5F074A54207F10107EAD142F21C03A1
:100E000058F80300C01B0AF057F9014648460AF09B
:100E10005BFABDE8F8832046FFF768FD01464846C7
:100E20000AF096F881462046FFF760FDD8F83010AA
:100E30000AF052FB70B92046FFF758FDD8F834107D
:100E40000AF02CFB0028C0D02046FFF74FFDC8F861
:100E50003400BAE72046FFF749FDC8F83000EAE75A
:100E600000008CC2006B7047406B7047F8B500F50E
:100E7000005507460026183500F5067403E004F512
:100E8000F074AC4210D02046FFF772FD0028F6D077
:100E90002046FFF795FC014630460AF059F804F564
:100EA000F074AC420646EED142F21C03F8580AF048
:100EB00003F9014630460AF007FAF8BD2DE9F04F74
:100EC00004468FB0C6488A4600F0A0FBC44800F034
:100ED0009DFBC34800F09AFB42F21C032046E258F7
:100EE0000D92FFF7C1FD63690C938146206909F0FB
:100EF0008DFC064620460F46FFF7B8FF8346204686
:100F0000A569D4F81C80FFF74FFF09F07FFCCDE9FD
:100F10000A01294640460AF019F8B2490AF020F9B8
:100F200009F074FCCDE90801404609F06FFCCDE9F9
:100F30000601284609F06AFCCDE90401584609F08B
:100F400065FC0D9A0C9BCDE90201CDE900671146C5
:100F5000A5484A4600F05AFBA14800F057FB04F5AB
:100F600006744FF00109002507E009F10109B9F104
:100F7000100F04F5F07400F0F7802046FFF7F8FC3E
:100F80000028F2D02046FFF7C7FB2046FFF7C8FB3A
:100F90002046FFF7C9FB2046FFF7CAFB082193480C
:100FA00008F0A8FE4946924806F0F0FBB9F1090F97
:100FB00003DC01218F4808F09DFE02218E4808F0D5
:100FC00099FE2046FFF79CFC09F020FC5FFA8AF8A6
:100FD00002460B46CDF80080854806F0E1FB012172
:100FE000864808F087FE2046FFF792FB0C2800F3A6
:100FF000BE8001261EE00621814808F07BFE2946BE
:101000007B4806F0C3FB02217E4808F073FE3146A0
:101010002046FFF791FB09F0F9FBCDF8008002466E
:101020000B46734806F0BCFB012174483D460E4454
:1010300008F060FE2046FFF76BFB864205F10107D2
:101040006BDC092DD7DC01216A4808F053FED2E79A
:101050002046FFF75DFB172800F3BE8035460D26BE
:101060001CE008F047FE2946614806F08FFB02218C
:10107000644808F03FFE31462046FFF75DFB09F06B
:10108000C5FBCDF8008002460B46594806F088FBA8
:1010900001215A483D460E4408F02CFE2046FFF739
:1010A00037FB86424FF00601554805F10107D8DDB0
:1010B0000F21554808F01EFE4D4806F017FB20464C
:1010C000FFF726FB192828DD19261CE008F012FE80
:1010D0002946474806F05AFB02214A4808F00AFE12
:1010E00031462046FFF728FB09F090FBCDF8008041
:1010F00002460B463E4806F053FB01213F483D4661
:101100000E4408F0F7FD2046FFF702FB86424FF041
:1011100006013B4805F10107D8DD0F213A4808F0E8
:10112000E9FD334806F0E2FA0921384808F0E2FD0B
:1011300000212046FFF70AFC09F068FB0226024660
:101140000B4600962A4806F02BFB0F212E4808F08C
:10115000D1FD09F10109264806F0C8FAB9F1100FCE
:1011600004F5F0747FF409AF0FB0BDE8F08F2F469F
:10117000012620E00621224808F0BCFD39461C4823
:1011800006F004FB02211F4808F0B4FD314620465A
:10119000FFF7D2FA09F03AFBCDF8008002460B4681
:1011A000134806F0FDFA01360121144808F0A2FDAB
:1011B0000C2E09D05F46092F07F1010BDADC012163
:1011C0000C4808F097FDD5E72046FFF7A1FA0C2858
:1011D00005F10B063FF73CAF16350D273AE000BF8F
:1011E00008F8000000007A44A0F9000040FA00006E
:1011F000C887FF1F40FC00006C0801004CFA00008B
:1012000050FA000030FC000058FA000068FA0000B4
:101210000621154808F06EFD3146144806F0B6FA6E
:101220000221134808F066FD39462046FFF784FA8C
:1012300009F0ECFACDF8008002460B460B4806F0A8
:10124000AFFA01210B480F4408F054FDAB453FF4C1
:101250002FAF5E46092E06F1010BD9DC01210648AD
:1012600008F048FDD4E700BF50FA0000C887FF1F10
:1012700030FC00004CFA000040FC00002DE9F04F6B
:1012800085B000F506758A4603929B462E464FF0C0
:10129000010806E008F10108B8F13F0F06F5F07605
:1012A0007BD03046FFF764FB0028F3D000230A22EE
:1012B00051467D4806F02AFA01217C4808F01AFDC3
:1012C000039809F0A3FA00230246009376480B46E0
:1012D00006F066FA0121754808F00CFD594672487F
:1012E00006F054FA0121714808F004FD41466E48A9
:1012F00006F04CFA01216D4808F0FCFC00244FF088
:10130000020921463046FFF717FA09F07FFACDF8B7
:10131000009002460B46644806F042FA013401216F
:10132000624808F0E7FC082C4FF00207E9D10021E1
:101330003046FFF70BFB09F069FA009702460B46AF
:10134000594806F02DFA0121584808F0D3FC012134
:101350003046FFF7FBFA09F059FA009702460B46B0
:10136000514806F01DFA0121504808F0C3FC3946E7
:101370003046FFF7EBFA09F049FA009702460B46B0
:10138000494806F00DFA08F10108474806F0AEF9A1
:10139000B8F13F0F06F5F07683D101274FF0000931
:1013A00004E001373F2F05F5F07579D02846FFF7A7
:1013B000DFFA0028F5D000230A2251463C4806F007
:1013C000A5F90121394807F0CDFA039809F01EFA72
:1013D000CDF8009002460B46354806F0E1F90121B0
:1013E000324807F0BFFA5946314806F0CFF90121DB
:1013F0002E4807F0B7FA39462D4806F0C7F9012103
:101400002A4807F0AFFA00244FF002082146284688
:10141000FFF792F909F0FAF9CDF8008002460B4681
:10142000234806F0BDF901340121204807F09AFA5B
:10143000082C4FF00206E9D100212846FFF786FA72
:1014400009F0E4F9009602460B46194806F0A8F99F
:101450000121164807F086FA01212846FFF776FA9F
:1014600009F0D4F9009602460B46114806F098F9A7
:1014700001210E4807F076FA31462846FFF766FA52
:1014800009F0C4F9009602460B46094806F088F9AF
:101490000137074806F02AF93F2F05F5F07585D189
:1014A00005B0BDE8F08F00BFC887FF1F74FA0000C9
:1014B000AC87FF1F014B1870704700BF2087FF1FCC
:1014C0000278002A00F0908070B5034682B00D4685
:1014D000252A2AD158785C1C08B325282FD07328D8
:1014E00031D0642824D0692822D066284FD07A28A9
:1014F00059D0782835D058282FD062283ED042289D
:1015000038D06C2814D0632812D0742857D05428AF
:101510005FD008F073FC6278631C002AD8D134488D
:1015200002B0BDE8704006F0E1B818781C46F0E75C
:101530002B1D29682E481D4606F028F9EBE71046BA
:1015400008F05CFCE7E72E6830460AF0F9FD01463A
:101550003046043508F0CEFBDDE70221254808F0CF
:10156000C9FB2E1D2968224800231022354606F0AB
:10157000CDF8D0E70221204808F0BCFB2E1D2968D9
:101580001B4800230222354606F0C0F8C3E70735A2
:1015900025F007050321D5E90023154800910835FA
:1015A00006F0FEF8B7E7073525F007050021D5E975
:1015B00000230F480091083506F0F2F8ABE72968E0
:1015C00001290EBF0D480E480121043508F092FB99
:1015D000A1E72B68012B07BF04210A480A4805210F
:1015E000043508F087FB96E7014806F07FB800BF96
:1015F000C887FF1F78FA00007CFA000080FA00001C
:1016000084FA000088FA000090FA00000FB400B5D8
:1016100083B004A951F8040B0191FFF751FF03B007
:101620005DF804EB04B0704730B4074D074C08492F
:1016300000232B70236003654365836580F85C306D
:101640000B6030BC704700BF4C92FF1F4892FF1FD9
:101650004492FF1FF8B53A483A4F3B4D3B4E3C4C45
:10166000FFF7D4FF3B4B3C493C4A3D485960DA60A8
:101670003C491F6100223C4F58615D623B489E61BE
:101680004FF07C553A4E9C623A4CD9621A630C2159
:10169000394A5F639863394F5D6440F61C400A2500
:1016A0009E64DC6441F204065A2419651A62022120
:1016B0000122C3F8B8709866314FDD6600206425BA
:1016C0001E675C674FF496763224597059721A720D
:1016D0005A65DF61DF6383F840005E66DE651C6685
:1016E0004FF47A7E9D65274F9867274ED967C3F8D8
:1016F0008000C3F89440C3F8A040C3F89C00FF24C6
:10170000C3F8A820C3F8AC10052041F2883183F853
:10171000BC2040F2D662C3F8B050C3F898E0C3F8DA
:101720008870C3F88C60C3F8A440A3F8B600C3F86F
:101730009010A3F8B410A3F88420A3F88620F8BD75
:10174000BCFA000000004040CDCCCC3DCDCC4C409C
:10175000000082423C93FF1F48E801006666864015
:1017600033338340000020C1000020420000A0402D
:101770009A9979400AD7233D333373409A99993E19
:10178000CDCC4C3E0000684200C02044F0B54FF480
:101790007A6085B006F006FE00210F2006F0DAFD23
:1017A00000210E2006F0D6FD0021112006F0D2FD0A
:1017B0000021102006F0CEFD0021122006F0CAFD07
:1017C0000021132006F0C6FD01210B2006F0C2FD0A
:1017D00001210C2006F0BEFD0121142006F0BAFD07
:1017E0000121152006F0B6FD0121162006F0B2FDFC
:1017F0000121172006F0AEFD0121052006F0AAFD0B
:101800008D4C8E4D0121062006F0A4FD01210D20F6
:1018100006F0A0FD208809F04BFC0146162006F0DA
:1018200003FD208809F044FC0146172006F0FCFC6B
:10183000208809F03DFC0146052006F0F5FC2088D3
:1018400009F036FC00240146062006F0EDFC009469
:1018500023467B4A7B497C4804F0B6FDE6B232461B
:101860007649794804F05EFD2B79744976486FF328
:101870000003013432462B7104F04AFD082CEDD1EF
:101880000924E6B232466D496F4804F04BFD2B79CE
:101890006A496D4843F00103013432462B7104F06C
:1018A00037FD0D2CEDD1694C4FF0FF32206810212F
:1018B00005F056F920684FF0FF32102105F028F9A5
:1018C00020684FF0FF32022105F036F920684FF012
:1018D000FF32022105F03AF900220F21206805F0BD
:1018E00049F90C215A4808F005FA5A4805F0FEFE5D
:1018F0001421594808F0FEF9564805F0F7FE40F269
:10190000836006F00DFE534805F0F0FE17215348A2
:1019100008F0F0F94F4805F0E9FE514B1B789A06A4
:1019200000F1B8804E4B1B781B0700F1BF804C4B79
:101930001B785F0700F1C680494B1B789E0700F1BA
:10194000CD80484B1B781D0600F1D480454B1B7899
:101950005C0600F1DB80434B1B78980600F1E280C7
:10196000404B1B78590700F1E9803E4B1B781A0762
:1019700000F1F0803B4B1B789B0700F1F780354866
:1019800005F0B4FE72B6384A4CF220534DF62811D9
:101990002024138023461180013BFDD1334D344870
:1019A000344900234FF480562E8003800B8032F898
:1019B0000E3C9BB243F0D30322F80E3C62B69D204E
:1019C00007F05AF921462C482C4D08F093F921488C
:1019D00005F08CFE05F1C0062F462C46601B06F074
:1019E000F3F804F8010BB442F8D13B78102B01D086
:1019F000FFF730FE0420FFF75DFD214B002201219F
:101A00000D201A6006F092FC796D1E48FFF79EF9D2
:101A10007A6C97F840101B48FFF79AF91A4B1B494C
:101A20001A68039203981B680293029A184B086085
:101A30001A6005B0F0BD00BF2887FF1F0894FF1F84
:101A4000B0B6FF1F48E8010014B5FF1FB894FF1F90
:101A5000DCFA0000C887FF1FECFA000004FB00005E
:101A600001F0074000F007400E200540042005402B
:101A7000062005401620054008FC00003C93FF1F8F
:101A80006492FF1FEC94FF1FD8B6FF1FE894FF1F5E
:101A90001094FF1F2121394808F02CF9384805F02F
:101AA00025FE384B1B781B077FF541AF0C213648CC
:101AB00008F020F9324805F019FE324B1B785F0719
:101AC0007FF53AAF0E21314808F014F92C4805F0A3
:101AD0000DFE2C4B1B789E077FF533AF17212C484A
:101AE00008F008F9264805F001FE2A4B1B781D0670
:101AF0007FF52CAF0E21284808F0FCF8204805F0AF
:101B0000F5FD244B1B785C067FF525AF1221234899
:101B100008F0F0F81A4805F0E9FD1E4B1B7898060E
:101B20007FF51EAF13211E4808F0E4F8144805F0B5
:101B3000DDFD184B1B7859077FF517AF1C2119489D
:101B400008F0D8F80E4805F0D1FD124B1B781A07A3
:101B50007FF510AF1921144808F0CCF8084805F0BB
:101B6000C5FD0C4B1B789B077FF509AF18210F486B
:101B700008F0C0F8024805F0B9FD00E71CFB0000C2
:101B8000C887FF1F01F0074040FB000050FB00002A
:101B900060FB000000F0074078FB000088FB0000BD
:101BA0009CFB0000B0FB0000D0FB0000ECFB000041
:101BB00070B5464C464D4748E66800232B70FFF74A
:101BC0009DF80146304609F069FC08B104232B70EA
:101BD0004048FEF7E5FF216909F060FC18B12B7859
:101BE00043F010032B703B48FFF7DEF8A16A09F0C1
:101BF00073FC18B12B7843F040032B700023354859
:101C00006B70FFF7D1F8E16A314E09F047FC08B17B
:101C10000123737000232F48EB70FFF76FF8054620
:101C20002C482B4EFEF7BCFF0146284609F08EF9E2
:101C3000E16B09F051FC08B10123F370264D2548F2
:101C400000232B70FFF75AF8616A0646E06809F036
:101C50007DF90146304609F03FFC08B104232B70A2
:101C60001C48FEF79DFF616A0646206909F070F97D
:101C70000146304609F012FC18B12B7843F01003EE
:101C80002B701448FFF790F8A16B0646A06A09F084
:101C90005DF90146304609F01FFC18B12B7843F07E
:101CA00040032B7000230B486B70FFF77DF8A16B8E
:101CB0000546E06A084C09F04BF90146284609F050
:101CC000EDFB08B10123637070BD00BF3C93FF1FA3
:101CD0003893FF1FEC94FF1FA894FF1F2DE9F041DC
:101CE0007C4C2368012B82B031D0022B00F0A880FD
:101CF000032B00F0C8803BBB774B784AD3F8A01089
:101D0000D3F8A43012685B1A632B0EDD744803FB12
:101D100002F380FB0302DB17C3EB621319440620B6
:101D200002B0BDE8F04106F081B96E4803FB022322
:101D300080FB0302DB17C3EB22121144062002B022
:101D4000BDE8F04106F072B902B0BDE8F081664E20
:101D500033680A33B3F57A7F00F3B78018463360EF
:101D600009F0AAF9614909F0FBF980465A4DD5F806
:101D7000A00009F0A1F90746D5F8A40009F09CF9E4
:101D8000394609F0E3F8414609F0EAF9584909F003
:101D90009BFA394609F0DCF809F0A8FB0146062059
:101DA00006F044F90221534807F0A4FF524805F019
:101DB0009DFC0621514807F09DFF306809F07CF931
:101DC0004A4909F0CDF908F021FD022702460B46E9
:101DD0000097494805F0E4FC0D21494807F08AFFC7
:101DE000D5F8A00009F068F98046306809F064F978
:101DF0003E4909F0B5F90646D5F8A40009F05CF9AA
:101E0000414609F0A3F80146304609F0A9F93849DE
:101E100009F05AFA414609F09BF808F0F7FC0097E0
:101E20000B460246344805F0BBFC3946314807F002
:101E300061FF314805F05AFC2368022B7FF458AF4C
:101E4000294B254E00221A60D6F8A00009F034F97B
:101E50000546D6F8A40009F02FF9294609F076F8CE
:101E6000002109F07DF9224909F02EFA294609F0EE
:101E70006FF809F03BFB0146062006F0D7F823680F
:101E8000032B7FF438AF184B134E4FF47A721A605D
:101E9000D6F8A00009F010F90546D6F8A40009F01C
:101EA0000BF9294609F052F8114909F059F910497E
:101EB00009F00AFA294609F04BF809F017FB014628
:101EC000062006F0B3F8236815E700234FF000085A
:101ED00033604BE79494FF1F3C93FF1F3487FF1F31
:101EE0001F85EB51CBF08D286892FF1FCDCCCC3DE8
:101EF0000000C8426C080100C887FF1F2CFC0000CE
:101F000034FC000070B5B548B54C05F0EFFBB348A4
:101F100005F0ECFBB14805F0E9FB0D21B14807F0F5
:101F2000E9FED4F89C30012B11D0AF4CAB4821789E
:101F300000230A2205F0EAFB2378052B67D8DFE8A7
:101F400013F006010B01100115011A01010109210D
:101F5000A64807F0CFFEA648FEF722FE216909F049
:101F60009DFA18B10F21A34807F0C4FEA048FEF760
:101F7000C5FEE16809F0B0FA18B10E219E4807F0DD
:101F8000B9FE9B48FEF7BAFE05469948FEF708FEE3
:101F90000146284608F0DAFFE16B09F09DFA18B116
:101FA0001121964807F0A6FE9148FEF7FDFEA16AB2
:101FB00009F092FA18B10C21914807F09BFE8C4869
:101FC000FEF7F2FEE16A09F069FA18B10D218D48B9
:101FD00007F090FE8C4B86481B68012B00F0E880D0
:101FE000FEF7DEFD21697E4D09F076FA78B1804872
:101FF000FEF784FEE96809F051FA40B17A4B1B788C
:10200000052B00F0E6800821804807F073FE0221CE
:102010007F4807F06FFE122006F08EF9012800F0CD
:10202000AF80112006F088F9012800F0B380794BC9
:102030001B68012B00F0B78002217548764C07F031
:1020400059FE764B6548196805F0A0FB634805F01A
:102050004DFB0421724807F04DFE0B2006F06CF991
:10206000002301460A225D4805F050FB0C2006F0D3
:1020700063F9002301460A22584805F047FB142063
:1020800006F05AF9002301460A22544805F03EFBA7
:10209000152006F051F90A22002301464F4805F0A9
:1020A00035FB06215F4807F025FE2368DD074FF06A
:1020B00001014CBF5C485D4807F01CFE236898078F
:1020C0004FF001014CBF5848584807F013FE2368F1
:1020D0005A074FF001014CBF5348544807F00AFE1D
:1020E00023681B074CBF50485048012107F002FEEF
:1020F00004214F4807F0FEFD112006F01DF90023D2
:1021000001460A22354805F001FB102006F014F9BB
:10211000002301460A22314805F0F8FA122006F0A1
:102120000BF9002301460A222C4805F0EFFA132090
:1021300006F002F9002301460A222848BDE8704053
:1021400005F0E4BA07213B4807F0D4FD5FE706211C
:10215000394807F0CFFD5AE70721384807F0CAFD94
:1021600055E70721364807F0C5FD50E708213548F7
:1021700007F0C0FD4BE70B21334807F0BBFD46E7F6
:102180000E21324807F0B6FD112006F0D5F80128DF
:102190007FF44DAF0A212E4807F0ACFD1D4B1B68A4
:1021A000012B7FF449AF11212A4807F0A3FD43E733
:1021B000FEF7F6FC216A09F08FF900283FF423AFFF
:1021C0001621254807F096FD0A21244807F092FDC4
:1021D0001DE70A21214807F08DFD18E7C887FF1F7A
:1021E0003C93FF1F44FC0000A494FF1F54FC00001C
:1021F000EC94FF1F60FC000070FC000080FC0000FD
:1022000094FC0000A4FC00007492FF1FD8FC0000A6
:102210006C080100C094FF1FFC93FF1F9894FF1FE0
:102220004CFD000054FD00005CFD0000100A0100A0
:1022300060FD000014FD0000E4FC0000ECFC000068
:1022400000FD000008FD0000F4FC00001CFD000083
:102250002CFD000038FD0000B4FC0000CCFC0000A8
:102260002DE9F04F9B4C9C4FE36F012B8DB000F09C
:102270005981032B5AD0994E994DA36F9948012B40
:1022800009BF2968296801F10041296005F064F857
:102290003368002B40F0D880924805F033F8E36FA4
:1022A0003860012B064600F0DC808F4909F014F9F4
:1022B000B8B98E49304609F0F1F890B98C4A8D4B87
:1022C00012680B920B9A1A60D4F8A80008F0F4FE7A
:1022D000314608F045FF002338602B600DB0BDE8A3
:1022E000F08FDFF80CA2DFF80C82DAF800300A93E6
:1022F0000A98D8F80030DFF82492C01A08F0D8FE07
:10230000314608F02DFF7C4908F0DEFF7A4908F0DD
:10231000DBFFD9F8001008F01BFEDAF80030099353
:10232000099BC9F80000C8F80030CDE7DFF8D0817C
:10233000724DD8F80000694E012300220F212B6056
:1023400004F018FC2B68012B336800F00981002B86
:1023500040F0AC810021D8F80000DFF8C491684D4E
:1023600004F05AFC33681FFA80FBC9F800B0002B58
:1023700040F081810021D8F80000594DDFF880A19C
:1023800004F0D0FBB4F8863040F6E44101FB0BF1D9
:10239000B1FBF0F0C01A00B208F08EFE5949834636
:1023A000D4F8880008F0DCFE0146584608F08CFF9F
:1023B000D9F800302860632BDFF864B100F34F8157
:1023C00000232B603368002B3FF457AF02214E48A7
:1023D00007F090FCD9F80020D8F8000040F6E4435C
:1023E000002103FB02F804F09DFBB8FBF0F008F0BD
:1023F0005FFE8046B4F8860008F05EFE0146404667
:1024000008F0A4FD08F002FA4FF0020802460B465D
:10241000CDF800803D4805F0C3F941463A4807F041
:1024200069FC286808F0F2F9CDF8008002460B46F6
:10243000364805F0B5F94146354807F05BFC4146A2
:10244000314807F057FC18E7264804F05BFF08F016
:10245000DDF9022602460B4600962C4805F0A0F94D
:102460001AE7264B1B68012B00F02C81022B7FF40E
:102470002BAF284909F030F830B92749304609F028
:102480000DF8002800F05381DFF864A0DFF86480C5
:10249000DAF8003007930798D8F80030DFF87C901E
:1024A000C01A08F005FE314608F05AFE124908F03D
:1024B0000BFF114908F008FFD9F8001008F048FD9B
:1024C000DAF800300693069BC9F80000C8F800301F
:1024D000FAE600BF3C93FF1F8092FF1FE494FF1FAA
:1024E0007092FF1F1493FF1F0000FA430000FAC30D
:1024F000D8B6FF1FB494FF1F00007A445087FF1F17
:10250000B894FF1F17B7D1386C080100C887FF1FA8
:10251000A4FD000000C82F4800A08CC68C92FF1FAD
:102520003493FF1F3D689B49284608F0B7FF30B140
:102530002846994908F0D0FF00287FF4F7AEDFF86D
:102540006482964DD8F80000954E022300220E2199
:102550002B6004F00FFB2B68012B33687FF4F7AE80
:10256000002B40F006810021D8F80000DFF87492BB
:102570008C4D04F051FB33681FFA80FBC9F800B0A2
:10258000002B40F0DB800021D8F80000864D04F0DD
:10259000C9FAB4F8843040F6E44A0AFB0BFBBBFBF3
:1025A000F0F0C01A00B208F087FD80498346D4F8E5
:1025B0008C0008F0D5FD0146584608F085FED9F894
:1025C000003028600021D8F800000AFB03FA04F06C
:1025D000A9FAB4F88430BAFBF0F00FFA80FAC3EB32
:1025E0000A03002BB4F8B620B8BF5B429342BCBFCD
:1025F00000232B603368002B3FF43FAE02216C4870
:1026000007F078FBD9F80020D8F8000040F6E44342
:10261000002103FB02F804F085FAB4F88410B8FB3B
:10262000F0F000B2411A634805F0B0F802216048AA
:1026300007F060FB286808F0E9F84FF0020802464E
:102640000B46CDF800805B4805F0AAF803215A48F4
:1026500007F050FB4146564807F04CFB0DE6DAF810
:102660000000002104F05EFADBF800306438984284
:10267000FFF4A6AEA6E60021286804F053FA40F65F
:10268000E44100230A2201FB0BF1B1FBF0F14948C0
:1026900005F03CF80221464807F02CFBB4F8861000
:1026A000444805F073F8D9F800B063E6414805F0F6
:1026B0001DF80C21414807F01DFB0C21404807F094
:1026C00019FB47E63F4908F007FF58B93E49304635
:1026D00008F0E4FE30B93D4A3D4B12680592059A78
:1026E0001A60F1E5DFF8E4A0DFF8E480DAF8003002
:1026F00004930498D8F80030DFF8EC90C01A08F082
:10270000D7FC314608F02CFD324908F0DDFD314997
:1027100008F0DAFDD9F8001008F01AFCDAF80030F9
:102720000393039BC9F80000C8F80030CCE5274AA2
:10273000274B12680892089A1A60C5E5002128689C
:1027400004F0F0F940F6E44100230A2201FB0BF10A
:10275000B1FBF0F1174804F0D9FF01211E4807F042
:10276000C9FAB4F88410134805F010F8D9F800B08D
:1027700009E7104804F0BAFFE36F012B4FF00B019B
:102780000CBF1648164807F0B5FA0C210C4807F0A4
:10279000B1FAE8E600709446007094C65087FF1FB7
:1027A000E494FF1FB894FF1F7092FF1F17B7D13832
:1027B0006C080100C887FF1F90FD000094FD000019
:1027C00080FD00000000FA430000FAC3D8B6FF1FE6
:1027D000B494FF1F00007A4440FC000068FD000034
:1027E00074FD00003493FF1F8C92FF1F2DE9F0470A
:1027F000B24D2B6884B0002B7ED0B14CDFF8C8827C
:10280000B04EE36FAE4D012B00F08F80D4F88030D6
:10281000AB4F012B00F0BC80D6F80090D7F858A041
:102820007D6DA94F05FB0AF54FF47A7000FB05F0AA
:1028300008F042FCA5490546484608F091FC2946A7
:1028400008F042FDA24908F08BFC08F04FFE632817
:10285000C8F800004BDD28469C4908F035FD64238C
:1028600030603B609B4B1B68002B3DD0E36F944D69
:10287000012B00F0BB80032B00F00981022B00F03C
:102880000C810221944807F035FA944B186807F040
:10289000BDFF022402460B460094914804F080FFDD
:1028A0002146904807F026FA21468B4807F022FA85
:1028B000D8F800108A4804F069FF06218A4807F01A
:1028C00019FA3068814908F04BFC07F09FFF00942B
:1028D00002460B46824804F063FF0321834807F059
:1028E00009FA7F4804F002FF04B0BDE8F087002831
:1028F000BCBF00233B60B5E77D4E714C336802934B
:10290000029A42F228339A4200F2BA803368039363
:10291000039A42F210739A4274D8E36FDFF8A881E9
:10292000684E674D012B7FF471AF7248FEF79EFA37
:102930007149D5F86890EF6E08F012FC08F0FCFDC4
:102940002A6F6B6FC9EB0202DB1B80B29A42C9EBA4
:10295000000040F3AD8003FB0000531C90FBF3F339
:102960001F44A06D636DC8F8007000FB07F003FB07
:1029700000F000EB8000400008F09EFB5349504FF0
:1029800008F0A2FCD4F880303060012B7FF444AF13
:102990005848FEF76BFA5849D7F86890FD6E08F072
:1029A000DFFB08F0C9FD3A6F7B6FD4F858A0C9EB84
:1029B00002025B1B80B29A42C9EB0000C6BF03FB58
:1029C00000000132584390FBF2F02844656D00FB93
:1029D0000AF005FB00F000EB8000400008F06CFB03
:1029E0003A4908F071FC814630601AE7434B1B6896
:1029F000012B4FF00A010CBF4148424807F07AF919
:102A0000EB6F38E73B48FEF731FA3B49A76EE66EBD
:102A100008F0A6FB08F090FD226F636FD21B9B1B92
:102A200080B29A42A0EB07003CDD03FB0000531C80
:102A300090FBF3F39819A26DDFF88C80636DC8F8F2
:102A4000000002FB00F003FB00F000EB8000400000
:102A500008F032FB1D491B4E08F036FC01233060A4
:102A600002211D482B6007F045F91D4804F03EFE89
:102A70005921254807F03EF9194804F037FEC0E611
:102A80001C48626C94F84010FEF762F93EE7102192
:102A90001E4807F02FF9E36FF0E607211C4807F006
:102AA00029F9EEE603FB00F393FBF2F39819C2E772
:102AB00003FB00F393FBF2F31F4452E76C92FF1FFA
:102AC0003C93FF1F8C92FF1F3487FF1FE4388E3E1C
:102AD0000000C8423C87FF1F6C0801008092FF1F66
:102AE000C887FF1FA4FD000038FE000040FE000064
:102AF000D8B6FF1FEC94FF1F00007A445087FF1FD9
:102B000004FE000010FE0000A8FD00001CFE0000F6
:102B100030FE0000F0B5112083B005F00DFC012857
:102B200013D000210B2005F001FC00210C2005F042
:102B3000FDFB0021152005F0F9FB1D491D4B01206F
:102B4000002208701A6003B0F0BD0146044615204B
:102B500005F0ECFB1849194A194B09680191D2F8A4
:102B600090001B680199134D034402268B422E608E
:102B700017D8D2F8980008F09FFA124B196808F09D
:102B80008DFC074668B921460B2005F0CFFB084AAB
:102B9000032339460C2016702B6005F0C7FB03B0E9
:102BA000F0BD01210C2005F0C1FB03B0F0BD00BF5A
:102BB000A494FF1FE094FF1FD8B6FF1F3C93FF1F94
:102BC000E894FF1F8092FF1FF0B5684E684D34688F
:102BD0002B689C4287B039D014F0010155D014F015
:102BE000020149D014F004013DD0E3070ED52B6853
:102BF000DF070BD45F4F3A68002A00F082805E4BFB
:102C00001B680193019B93426DD83468A0070DD5D2
:102C10002B6899070AD4594F3A68002A4CD0564B72
:102C20001B680393039B934238D8346862070DD521
:102C30002B685B070BD4524F3A68002A7ED04E4B6C
:102C40001B680593059B934268D834680CB107B0A4
:102C5000F0BD2146162005F0E9F92146172005F0C0
:102C6000E5F907B0F0BD052005F0E0F92B68346800
:102C700003F0FB032B60B8E7172005F0D7F92B68AA
:102C8000346803F0FD032B60ACE7162005F0CEF9A5
:102C90002B68346803F0FE032B60A0E7394B172044
:102CA000D3F8941005F0C2F92B68346843F002039E
:102CB00000222B603A60B9E7334804F017FD0C217D
:102CC000324807F017F8304804F010FDFF211720B4
:102CD00005F0ACF9284B2E4A196802910299126846
:102CE0000A443A609CE7274B1620D3F8941005F06D
:102CF0009DF92B68346843F0010300222B603A6091
:102D000084E7FF21162005F091F91B4B204A196832
:102D10000091009912680A443A6071E7194B052046
:102D2000D3F8941005F082F92B68346843F004035B
:102D300000222B603A60002C89D18AE7124804F007
:102D4000D5FC0C21134806F0D5FF0F4804F0CEFC4B
:102D5000FF21052005F06AF9074B0D4A1968049117
:102D6000049912680A443A606AE700BFE094FF1FC2
:102D7000FC93FF1F7894FF1FD8B6FF1F7C94FF1FA2
:102D80008094FF1F3C93FF1FC887FF1F44FE000075
:102D90006887FF1F54FE00002DE9F047544EDFF80E
:102DA0007481DFF874913068524D00220F2103F0D6
:102DB000E1FE0023012222214F48C8F80030C9F863
:102DC000002006F097FFD8F80030132B22DC40F6E5
:102DD000E44700213068B5F884A003F01DFF00210E
:102DE0000446306803F09EFEA4B2012107FB04F400
:102DF000B4FBF0F441485444A5F8844006F07AFF4F
:102E0000642005F0CFFAD8F800300133132BC8F84E
:102E10000030DEDDB5F88430394A3A48A2FB0312AF
:102E20009B1A02EB5303C3F30F131946A5F8843022
:102E300004F0ACFC1D21344806F05CFF022133484D
:102E400006F058FF2F4804F051FC00231A460E21CB
:102E50003068C8F8003003F08DFE02232221264896
:102E6000C9F8003006F046FFD8F80030132B22DCFA
:102E700040F6E44700213068B5F8869003F0CCFEB8
:102E800000210446306803F04DFEA4B2012107FB87
:102E900004F4B4FBF0F419484C44A5F8864006F05D
:102EA00029FF642005F07EFAD8F800300133132B97
:102EB000C8F80030DEDDB5F88630114A1148A2FBB3
:102EC00003129B1A02EB5303C3F30F131946A5F821
:102ED000863004F05BFC1D210D4806F00BFF02213B
:102EE0000A4806F007FF0748BDE8F04704F0FEBBBC
:102EF000B894FF1F3C93FF1F64FE0000A8FE000073
:102F000087611886C887FF1F88FE00006C080100D3
:102F1000ACFE00009C94FF1F5087FF1FF8B57B4B51
:102F20007B4C7C4D1B68286D40F25131082221609A
:102F3000E271002B40F0E08008F0BEF869690646B7
:102F400008F00EF9744908F00BF908F0F5FA80B2B0
:102F500003126372714A724B12681B68A969A372EB
:102F600015121B12E372227320726573304608F04B
:102F7000F7F8694908F0F4F808F0DEFA83B21A129B
:102F800063496848A373E27303F016FC664B674A13
:102F90001B6812885E49A272DFB207EB870603EB5B
:102FA0008305760045F3D71512121B12277226737C
:102FB00040F25537082665735A48E272002563725D
:102FC0002760E671A573E57303F0F6FB40F2563314
:102FD00057482360E671FDF7B7FE564908F0C0F880
:102FE00008F0AAFA20725248FDF7AEFE514908F0E7
:102FF000B7F808F0A1FA504A4E49C0F307236372AC
:10300000106808F061F908F071FA40FA06F2034618
:103010004748E272A372FDF7C7FE3F4908F0A0F8E7
:1030200008F08AFA20734248FDF7BEFE3A4908F0DC
:1030300097F808F081FA3649A573C0F30723394899
:103040006373E57303F0B8FB022005F0ABF93B4B6B
:103050002F49187893F801E09F78DA78207240F2CF
:103060005A333048E67125736573A573E57384F8A8
:1030700009E0A772E272236003F09EFB304B244903
:1030800018785D789A782072187993F803E05F7960
:103090006572A2729D79DA79207340F25E3321481D
:1030A00084F80BE0E2732360E6716773A57303F0A5
:1030B00083FB022005F076F9224BE6711D785A78E1
:1030C000D87893F802E01F795E79257262729D7953
:1030D000DA79E0724FF45C730D491248236084F88A
:1030E0000AE027736673A573E27303F065FB164B62
:1030F0001B68012B05D0F8BD07F0DEFF296A0646E4
:103100001EE70B48BDE8F840FDF772BD7492FF1F43
:10311000D094FF1F3C93FF1F00002041B094FF1F7D
:103120005892FF1F14B5FF1F3487FF1F3887FF1FFA
:10313000EC94FF1F0000C8428092FF1F3893FF1FCE
:103140002C87FF1F5487FF1FC094FF1FF0B59C4CB6
:103150009C4D83B006F068FD23682860042B00F0C6
:10316000AC82022B4BD0082B00F09280072B40F052
:103170005181332801F0F28300F3AD80312801F052
:103180000084322840F0B08006F08AFD002840F329
:103190003F818D488D4E04F03DFC07F08DFF8C493A
:1031A00007F0DEFF61230122F06322602B601846E6
:1031B000A0F152031F2B01F2AF83DFE813F02E0BB7
:1031C000AD0BAD0BAD0BAD0BAD0BAD0BAD0BAD0B3F
:1031D000AD0BAD0BAD0BAD0BAD0BAD0BB203CB0C13
:1031E0003905A7057304AD0BAD0BAD0B2604AD0B74
:1031F000CE0CAD0BAD0BAD0BAD0BAD0B300BA0F191
:103200003102422A70D8DFE812F0F006FC060A0705
:1032100017072A0739076F006F006F006F006F00F4
:103220006F006F006F006F006F006F006F006F0026
:103230006F006F006F006F006F006F006F006F0016
:103240006F006F006F006F006F006F006F006F0006
:103250006F006F006F006F006F006F006F006F00F6
:103260006F006F006F006F006F006F006F00DD0672
:103270006F006F006F006F006F006F006F006F00D6
:103280006F006F006F006F006F006B006F00E30650
:10329000322800F02F83712822D0312824D106F063
:1032A000FFFC002840F3CF854748484E04F0B2FBAE
:1032B000C0B286F84000022894BF01460021726C1B
:1032C000444888BF86F84010FDF742FD012369207D
:1032D000236028606CE7342801F02E83712803D125
:1032E0000023732023602860002B08BF73280CBFC5
:1032F00001200020002860D0334804F0F7F90421B1
:10330000354806F0F7FC304804F0F0F91021334856
:1033100006F0F0FC2C4804F0E9F91321304806F0DF
:10332000E9FC304B2848196804F030FA264804F0CC
:10333000DDF914212C4806F0DDFC234804F0D6F911
:103340001E212A4806F0D6FC1F4804F0CFF91521AB
:10335000274806F0CFFC1C4804F0C8F91E21254878
:1033600006F0C8FC184804F0C1F92021224806F0F4
:10337000C1FC154804F0BAF91921204806F0BAFC3E
:10338000114804F0B3F912211D4806F0B3FC0E48B1
:1033900004F0ACF90F211B4806F0ACFC0A4804F01D
:1033A000A5F90D21184806F0A5FC074804F09EF980
:1033B000164A002101231160236003B0F0BD00BF55
:1033C0009092FF1F7C92FF1FC887FF1F3C93FF1F37
:1033D0006F12833AEC94FF1FE8060100F00601002B
:1033E000040701002487FF1F1807010030070100B0
:1033F000500701006807010088070100AC070100C1
:10340000C8070100DC070100EC0701003C87FF1F33
:1034100023682868062B40F08D80A0F13102402AF5
:103420003FF662AF01A151F822F000BF513E00000B
:103430007D3E0000A93E0000CF3E0000F53E0000AA
:10344000133F0000B13F0000E9320000E932000004
:10345000E9320000E9320000E9320000E932000000
:10346000E9320000E9320000E9320000E9320000F0
:10347000E9320000E9320000E9320000E9320000E0
:10348000E9320000E9320000E9320000E9320000D0
:10349000E9320000E9320000E9320000E9320000C0
:1034A000E9320000E9320000E9320000E9320000B0
:1034B000E9320000E9320000E9320000E9320000A0
:1034C000E9320000E9320000E9320000E932000090
:1034D000E9320000E9320000E9320000E932000080
:1034E000E9320000E9320000E9320000E932000070
:1034F000E9320000E9320000E9320000E932000060
:10350000E9320000E9320000E9320000E93200004F
:10351000E9320000E9320000E9320000E93200003F
:10352000E9320000E9320000E9320000E132000037
:1035300023682868052B15D1332801F0498240F310
:103540004781352801F06B82C1F2538271287FF4E4
:10355000CBAEDC4A00237320136023602860C3E6EF
:1035600023682868032B40F0A480A0F13002422A8F
:103570003FF6BAAE01A151F822F000BF8936000033
:1035800025470000D3450000FB4500001D46000014
:103590003F4600004D47000075470000934700007C
:1035A000B7470000E9320000E9320000E9320000CC
:1035B000E9320000E9320000E9320000E93200009F
:1035C000E9320000E9320000E9320000E93200008F
:1035D000E9320000E9320000E9320000E93200007F
:1035E000E9320000E9320000E9320000E93200006F
:1035F000E9320000E9320000E9320000E93200005F
:10360000E9320000E9320000E9320000E93200004E
:10361000E9320000E9320000E9320000E93200003E
:10362000E9320000E9320000E9320000E93200002E
:10363000E9320000E9320000E9320000E93200001E
:10364000674600007F410000DF470000FD470000A3
:10365000C7460000E5460000354100005941000022
:10366000E9320000E9320000E9320000E9320000EE
:10367000E9320000E9320000E9320000E9320000DE
:10368000854600009146000006F00AFB002841F341
:103690004C818D488D4E04F0BDF90127034601464B
:1036A00062228B48736527602A60FDF74FFB236811
:1036B0002868012B7FF418AE7AE5A0F13102402A88
:1036C0003FF612AE01A151F822F000BF9740000072
:1036D000AF400000B3400000D94000001941000095
:1036E000DD400000EF400000F3400000F740000024
:1036F000E9320000E9320000E9320000E93200005E
:10370000E9320000E9320000E9320000E93200004D
:10371000E9320000E9320000E9320000E93200003D
:10372000E9320000E9320000E9320000E93200002D
:10373000E9320000E9320000E9320000E93200001D
:10374000E9320000E9320000E9320000E93200000D
:10375000E9320000E9320000E9320000E9320000FD
:10376000E9320000E9320000E9320000E9320000ED
:10377000E9320000E9320000E9320000E9320000DD
:10378000E9320000E9320000E9320000E9320000CD
:10379000E9320000E9320000E9320000E9320000BD
:1037A000E9320000E9320000E9320000E9320000AD
:1037B000E9320000E9320000E9320000E93200009D
:1037C000E9320000E9320000E9320000E132000095
:1037D000312801F0EC8032287FF486AD06F060FAE3
:1037E00000287FF7BDAE3848384E04F013F90122A7
:1037F0006B23C6F8980022602B6001E006F014FAF3
:1038000006F04EFA0028F9D12F4803F06FFF2E483A
:1038100003F06CFF2C4803F069FF2B4803F066FFB0
:10382000294803F063FF21212A4806F063FA26485D
:1038300003F05CFF1521284806F05CFAD6F89010DA
:10384000214803F0A3FF0221244806F053FA1E4842
:1038500003F04CFF1E21224806F04CFAD6F89810CF
:10386000194803F093FF03211E4806F043FA164857
:1038700003F03CFF1E211C4806F03CFAD6F89410D9
:10388000114803F083FF104803F030FF1D21174853
:1038900006F030FAD6F8A0100B4803F077FF0A487C
:1038A00003F024FF1E21124806F024FAD6F8A410D3
:1038B000054803F06BFF044803F018FF052323605D
:1038C0007BE500BF9494FF1FC887FF1F3C93FF1F39
:1038D000EC94FF1F5C010100800101006C000100FD
:1038E0009801010090FD0000B8010100D80101001D
:1038F000F801010006F0D4F9002840F3A082B24894
:10390000B24E04F087F807F0D7FBB14907F028FC66
:103910000346024696F84010AE487364D4E406F0BD
:1039200083F906F0BDF905460028F8D1A648A74E50
:1039300003F0DCFEA44803F0D9FEA34803F0D6FE52
:10394000A14803F0D3FEA04803F0D0FE1F21A248F7
:1039500006F0D0F99C4803F0C9FE1C219F4806F0F0
:10396000C9F9706A9E4907F0FBFB06F04FFF00950E
:1039700002460B46944803F013FF0221994806F0D3
:10398000B9F9914803F0B2FE2321974806F0B2F945
:10399000F06B934907F0E4FB06F038FF0095024610
:1039A0000B46894803F0FCFE02218E4806F0A2F97E
:1039B000854803F09BFE19218C4806F09BF9B06BFB
:1039C00006F024FF02250B46024600957E4803F0D0
:1039D000E7FE2946864806F08DF97B4803F086FE0F
:1039E0001921844806F086F9B6F8B410764803F039
:1039F000CDFE0321804806F07DF9734803F076FE82
:103A000007232360D9E406F00FF906F049F90546CB
:103A10000028F8D16C486D4E03F068FE6A4803F048
:103A200065FE694803F062FE674803F05FFE664882
:103A300003F05CFE1521714806F05CF9624803F062
:103A400055FE18216E4806F055F92B460A2296F8C5
:103A500040105D4803F05AFE5B4803F047FE282102
:103A6000684806F047F9706C5D4907F079FB06F08D
:103A7000CDFE00950B460246534803F091FE02210D
:103A8000584806F037F9504803F030FE13215E48DD
:103A900006F030F94C4803F029FE082323608CE43B
:103AA00006F0C2F806F0FCF805460028F8D14648B2
:103AB000464E03F01BFE444803F018FE424803F054
:103AC00015FE414803F012FE3F4803F00FFE11219E
:103AD0004E4806F00FF93C4803F008FE28214C48F8
:103AE00006F008F970693E4907F03AFB06F08EFED1
:103AF000009502460B46344803F052FE0221394835
:103B000006F0F8F8304803F0F1FD1621414806F0C0
:103B1000F1F8F069324907F023FB06F077FE0095D3
:103B20000B460246284803F03BFE02212D4806F0D2
:103B3000E1F8254803F0DAFDD6F8AC30002B32DD91
:103B40001D21354806F0D6F8F06D07F0B5FA334977
:103B500007F006FB06F05AFE022502460B460095CA
:103B6000194803F01DFE01212D4806F0C3F8164840
:103B700003F0BCFD1F212B4806F0BCF8306E07F0A7
:103B80009BFA264907F0ECFA06F040FE0095024643
:103B90000B460D4803F004FE0121214806F0AAF867
:103BA000094803F0A3FD11211F4806F0A3F8D6F839
:103BB000AC30052B00F26086DFE813F095069A061C
:103BC0005A06A906A4069F06C887FF1F3C93FF1F3D
:103BD0006F12833AEC94FF1FB8000100D800010077
:103BE00000007A4444FF0000F80001001C010100BD
:103BF000380101003C01010058010100B00701003B
:103C0000FCFE000018FF000048FF00005407010000
:103C10005CFF000088FF0000A0FF0000CDCCCC3D81
:103C20003C040100C0FF0000E0FF000005F0FCFFC5
:103C300006F036F80028F9D1BF48C04E03F056FD13
:103C4000BD4803F053FDBC4803F050FDBA4803F0F3
:103C50004DFDB94803F04AFD1F21B94806F04AF866
:103C6000B54803F043FD1E21B64806F043F8B248BC
:103C700003F03CFD1A21B44806F03CF8F36F022B28
:103C800000F03787032B00F02B87012B00F03A87D9
:103C90000921AE4806F02EF8A74803F027FD1421AD
:103CA000AB48A64F06F026F8B16FA34803F06EFDAF
:103CB000A14803F01BFD1C21A64806F01BF8D6F80E
:103CC00080109D4803F062FD9B4803F00FFD1C210E
:103CD000A14806F00FF8D6F8A810974803F056FD53
:103CE000954803F003FDF56F25F00205012D00F066
:103CF000B1861321994805F0FDFF8F4803F0F6FCCB
:103D000002232360FFF759BB05F08EFF05F0C8FFC3
:103D10000028F9D1884803F0E9FC874803F0E6FC65
:103D2000854803F0E3FC844803F0E0FC824803F09C
:103D3000DDFC13218A4805F0DDFF7F4803F0D6FC47
:103D40000D21884805F0D6FF7B4803F0CFFC0F21FA
:103D5000854805F0CFFF854B7748196803F016FDBD
:103D6000754803F0C3FC1321814805F0C3FF814B64
:103D70007148196803F00AFD6F4803F0B7FC12217F
:103D80007D4805F0B7FF7D4B6B48196803F0FEFCDA
:103D9000694803F0ABFC1121794805F0ABFF794B82
:103DA0006548196803F0F2FC634803F09FFC0E219C
:103DB000754805F09FFF614B5F48D3F89C1003F0F6
:103DC000E5FC5D4803F092FC1921704805F092FF74
:103DD0006F4B5948196803F0D9FC574803F086FC2B
:103DE00011216C4805F086FF6B4B5348196803F0AE
:103DF000CDFC514803F07AFC1021684805F07AFFA9
:103E0000674B4D48196803F0C1FC4B4803F06EFC4A
:103E10001C21644805F06EFF634B4748196803F0A6
:103E2000B5FC454803F062FC13214C4805F062FFE5
:103E3000414803F05BFC04232360FFF7BEBA23680C
:103E40002868FFF793B93D4E96F84000FFF733BA64
:103E500005F026FF00287FF76BAB3748374E03F09D
:103E6000D9FD07F029F9514907F02EFA65230122FF
:103E7000706122602B601846FFF79AB905F010FFB9
:103E800000287FF755AB2C482C4E03F0C3FD07F0FC
:103E900013F9464907F018FA65230122F061226000
:103EA0002B601846FFF784B905F0FAFE00287FF76B
:103EB0003FAB2148214E03F0ADFD00EB80004300F5
:103EC00001226520F36522602860FFF771B905F0D3
:103ED000E7FE00287FF72CAB1748184E03F09AFD39
:103EE00000EB8000430001226520336622602860D9
:103EF000FFF75EB9114AD2F8AC300133052BC8BFC9
:103F00000023C2F8AC300123652023602860FFF74E
:103F10004FB905F0C5FE00287FF70AAB0648074EEB
:103F200003F078FD65230122C6F8B00022602B6003
:103F30001846FFF73DB900BFC887FF1F3C93FF1F1E
:103F4000FC0201001C0301003C030100B40301005A
:103F5000C0030100D8030100F803010048FF00007E
:103F6000180201002C0201003C0201007494FF1FA2
:103F70004C020100E494FF1F60020100C894FF1F7F
:103F800074020100CC94FF1F880201009802010016
:103F90009894FF1FB40201009494FF1FC80201000F
:103FA0007892FF1FDC0201005C87FF1F00007A444B
:103FB0007A4B93F8BC20002A00F03F85002283F85A
:103FC000BC20A0E7FEF7E8FE23682868FFF7CBB81F
:103FD000724AD36F0133032BC8BF0023D367012379
:103FE000632023602860FFF7E3B86C4EB36FB3FA29
:103FF00083F35B0901226320B36722602860FFF727
:10400000D7B8664ED6F88030B3FA83F35B09012245
:104010006320C6F8803022602860FFF7C9B801230A
:10402000236005F03DFE0028D9DD5D485B4E03F0BE
:10403000F1FCC6F8A800D2E70123236005F030FEAA
:10404000002807DD5648554E03F0E4FC07F034F82D
:10405000C6F88C00632028602368FFF787B8012327
:10406000236005F01DFE0028F4DD4D484B4E03F0A3
:10407000D1FC07F021F8C6F88800EBE701232360A4
:1040800005F00EFE0028E5DD4548444E03F0C2FC75
:10409000A6F8B600DEE7434A1368B3FA83F35B0978
:1040A00001216420136021602860FFF781B83E4A37
:1040B000F2E73E4A3E4F1368002B0CBF012300235A
:1040C0004FF001001360206040F0F4840346642246
:1040D0002A606420FFF747B8364ADDE701233648F7
:1040E0002360FCF7C1FC354A23681060EFE7344ACF
:1040F000D2E7344AD0E70123236005F0D1FD002840
:1041000000F3A084304B1A68042AC4BF02221A604C
:1041100064232B602368DCE7204ED6F89C30B3FA8A
:1041200083F35B0901226420C6F89C30226028607A
:10413000FFF73EB805F0B4FD00280DDD1848174E16
:1041400003F068FC06F0B8FF204907F0BDF8012233
:104150006223306222602B6005F0A2FD00280EDD94
:104160000F480E4E03F056FC06F0A6FF174907F065
:10417000ABF801226223C6F8B80022602B6005F07C
:104180008FFD002840F3D1830548044E03F042FC24
:1041900001226223B06622602B601BE03C93FF1F6C
:1041A000C887FF1F7494FF1FE494FF1FC894FF1F6C
:1041B0009092FF1FCC94FF1FEC94FF1F9894FF1F59
:1041C0009494FF1F7892FF1F5C87FF1F00007A44C2
:1041D00005F02AFD05F064FD05460028F8D1C24827
:1041E00003F084FAC04803F081FABF4803F07EFA76
:1041F000BD4803F07BFABC4803F078FA1521BB48B0
:1042000005F078FDB84803F071FA1421B84805F0BC
:1042100071FDB54803F06AFA1B21B64805F06AFD46
:10422000B14803F063FA1321B34805F063FDAE48CB
:1042300003F05CFAAC4803F059FAAB4803F056FAC5
:104240002021AE4805F056FDF068AD4906F088FF24
:1042500006F0DCFA009502460B46A34803F0A0FAEC
:104260000221A84805F046FD0221A74805F042FDBD
:104270009D4803F03BFA2121A44805F03BFD30693D
:104280009F4906F06DFF06F0C1FA009502460B4605
:10429000954803F085FA02219A4805F02BFD02218A
:1042A000994805F027FD904803F020FA1F2198480F
:1042B00005F020FDB06A06F0A9FA022702460B4677
:1042C0000097894803F06CFA0121924805F012FD2D
:1042D00039468D4805F00EFD834803F007FA20218A
:1042E0008D4805F007FDF06A06F090FA0097024647
:1042F0000B467D4803F054FA0121864805F0FAFC8C
:104300003946814805F0F6FC774803F0EFF92321A0
:10431000824805F0EFFCB06C794906F021FF06F009
:1043200075FA009502460B466F4803F039FA394694
:10433000744805F0DFFC3946734805F0DBFC6A4839
:1043400003F0D4F91F21764805F0D4FCF06C6C49D9
:1043500006F006FF06F05AFA009502460B46624840
:1043600003F01EFA3946674805F0C4FC3946664832
:1043700005F0C0FC5C4803F0B9F91921694805F063
:10438000B9FCB16D584803F001FA3946664805F0AA
:10439000B1FC39465C4805F0ADFC534803F0A6F982
:1043A0001821624805F0A6FC706E06F085FE604993
:1043B00006F0D6FE06F02AFA009702460B464A4857
:1043C00003F0EEF901215B4805F094FC39464E48B4
:1043D00005F090FC444803F089F92B21564805F07C
:1043E00089FCB069464906F0BBFE06F00FFA00955D
:1043F00002460B463C4803F0D3F93946414805F0E4
:1044000079FC3946404805F075FC374803F06EF9F1
:104410001F214A4805F06EFC716D334803F0B6F970
:104420003946394805F066FC2F4803F05FF9202132
:10443000434805F05FFC316D2B4803F0A7F939467E
:10444000314805F057FC284803F050F910213D4849
:1044500005F050FCB16E244803F098F9394629481C
:1044600005F048FC3946284805F044FC1E4803F096
:104470003DF91321344805F03DFCF16E1A4803F074
:1044800085F90121314805F035FC39461E4805F013
:1044900031FC154803F02AF910212D4805F02AFCBB
:1044A000316F114803F072F93946164805F022FCC5
:1044B0003946154805F01EFC0B4803F017F9142186
:1044C000244805F017FC716F074803F05FF90121DC
:1044D0001E4805F00FFC39460B4805F00BFC02485E
:1044E00003F004F9162137E0C887FF1F8404010098
:1044F0009C040100B404010048FF0000D004010046
:1045000000007A4444FF00006C080100F40401003C
:1045100018050100380501003C0501006005010097
:1045200084050100A4050100C0050100C4050100C7
:10453000CDCCCC3D3C040100E00501000C0601009F
:104540002C060100500601006406010078060100F7
:104550007C06010090060100BA4805F0CBFB306AEA
:10456000B94906F0FDFD06F051F9009502460B46EB
:10457000B64803F015F93946B54805F0BBFB394696
:10458000B44805F0B7FBB14803F0B0F82421B248B5
:1045900005F0B0FBD6F8B800AB4906F0E1FD06F037
:1045A00035F900950B460246A84803F0F9F839465C
:1045B000A74805F09FFB3946A64805F09BFBA3489A
:1045C00003F094F8A14803F091F803232360FEF769
:1045D000F4BE05F065FB002840F3A7819B489F4E81
:1045E00003F018FA06F068FD974906F06DFE012207
:1045F0006223306122602B60ECE505F051FB00285E
:1046000040F393819148954E03F004FA06F054FD6F
:1046100001226223B06222602B60DBE505F040FBE3
:10462000002840F3828189488C4E03F0F3F906F0AC
:1046300043FD01226223F06222602B60CAE505F08F
:104640002FFB002840F371818048844E03F0E2F98B
:1046500006F032FD7C4906F037FE01226223B06489
:1046600022602B60B6E505F01BFB002840F35D815E
:1046700076487A4E03F0CEF901226223306522603B
:104680002B60A7E50022732322602B60FEF734BE67
:10469000734B7048714E002202211A6005F02AFB0C
:1046A0006A4803F023F80B216E4805F023FB022132
:1046B000684805F01FFB654803F018F801226223E3
:1046C00022602B6086E505F0EBFA002840F32D818F
:1046D0005E48624E03F09EF90122622370672260F9
:1046E0002B6077E5FCF7B6FF02215A485B4E05F0D8
:1046F00001FB564802F0FAFF0221564805F0FAFA8B
:10470000524802F0F3FF0221524805F0F3FA4F48F5
:1047100002F0ECFF1721544805F0ECFA4B4802F088
:10472000E5FFC4E705F0BCFA002840F3FE804748E7
:104730004A4E03F06FF906F0BFFC434906F0C4FD92
:1047400001226223F06022602B6043E505F0A8FAA5
:10475000002840F3EA803D48404E03F05BF906F044
:10476000ABFC394906F0B0FD01226223F0642260FF
:104770002B602FE505F094FA002840F3D6803348EB
:10478000364E03F047F901226223B06522602B60A8
:1047900020E505F085FA002840F3C7802B482F4E0E
:1047A00003F038F900EB80004300012162227366B8
:1047B00021602A600EE505F073FA002840F3B58009
:1047C0002248264E03F026F906F076FC1E4906F034
:1047D0007BFD01226223B06122602B60FAE405F0C8
:1047E0005FFA002840F3A18018481C4E03F012F92C
:1047F00001226223F06622602B60EBE405F050FAA0
:10480000002840F392801148144E03F003F901226E
:104810006223306722602B60DCE404F0D3FBC0220B
:1048200000210E4803F0EAF92868104AA0F173004D
:1048300001210023B0FA80F0400911602360FEF7E7
:1048400059BD00BFA806010000007A44C887FF1FB9
:1048500044FF00006C080100C00601003C93FF1FEC
:104860006C92FF1FF0FE0000D8FE00003C87FF1F87
:104870000C21BB4805F03EFABA48BB4D02F036FFAA
:10488000D6F8AC30002B12DD1821B84805F032FA0A
:10489000D5F8B010B34802F079FF0221B44805F012
:1048A00029FAB04802F022FFAE4802F01FFF1B2198
:1048B000B04805F01FFA96F8BC30012B15BF122145
:1048C0001421AD48AD4805F015FAA64802F00EFFD8
:1048D0001321AB4805F00EFAA24802F007FF0623A9
:1048E0002360FEF76ABD0D21A64805F003FAC3E771
:1048F0000C21A54805F0FEF9BEE70B21A34805F001
:10490000F9F9B9E70D21A24805F0F4F9B4E70D2152
:10491000A04805F0EFF9AFE72368002B08BF732824
:104920000CBF01200020FEF7E5BC23682868012B9E
:104930007EF4DAACFEF73CBC05F0B2F900287EF755
:1049400067AD8848884E03F065F861230122A6F818
:10495000B40022602B601846FEF72ABC05F0A0F9CF
:1049600000287EF755AD7F487F4E03F053F806F0E0
:10497000A3FB61230122B06322602B601846FEF77F
:1049800017BC05F08DF900287EF742AD7548764ECC
:1049900003F040F806F090FB7F4906F0E1FB61234D
:1049A0000122706222602B601846FEF701BC05F000
:1049B00077F900287EF7D4AD6A486B4E03F02AF8E9
:1049C00001226B23C6F8900022602B60FEF718BF0F
:1049D00005F066F900287EF7C3AD6248624E03F029
:1049E00019F801226B23C6F8940022602B60FEF7B1
:1049F00007BF05F055F900287EF7B2AD59485A4E69
:104A000003F008F8654BC6F8A00002221A60FDF713
:104A100065F901226B2322602B60FEF7F1BE05F0E1
:104A20003FF900287EF79CAD4E484F4E02F0F2FF52
:104A30005A4BC6F8A4000322E8E7012283F8BC2001
:104A4000FFF761BA474802F0E5FF554B0246186090
:104A5000FFF75ABB1C21534805F04CF9D7F88C00DE
:104A6000514906F07DFB05F0D1FE009502460B464C
:104A70003C4802F095FE05214C4805F03BF93948C9
:104A800002F034FEFD6F012D45D0032D7FF431A9D6
:104A90001C21474805F02EF9B6F8B610314802F04F
:104AA00075FE0321434805F025F92E4802F01EFE4D
:104AB000FFF71FB9404B002631460B201E6003F064
:104AC00035FC31460C2003F031FC3146142003F054
:104AD0002DFC3146152003F029FC3B68FFF7F7BA9F
:104AE0002021364805F006F91E4802F0FFFDFFF7C9
:104AF000D6B81721324805F0FDF81A4802F0F6FD45
:104B0000FFF7CDB81E212F4805F0F4F8154802F044
:104B1000EDFDFFF7C4B81D212B4805F0EBF8D7F8E1
:104B20008800214906F01CFB05F070FE00950B463D
:104B300002460C4802F034FE05211C4805F0DAF864
:104B4000084802F0D3FDFB6F23F00203012B9FD036
:104B5000FFF7CFB8044EFFF73DBB034EFEF750BE44
:104B600014000100C887FF1F3C93FF1F5000010085
:104B70006C000100700001008C000100A000010029
:104B800048FF0000F4FF00000400010044000100A1
:104B900034000100240001006F12833A9494FF1F37
:104BA0005C87FF1F18040100CDCCCC3D3804010008
:104BB0006004010080040100E094FF1F78030100FD
:104BC0009C030100580301004004010038B5164C55
:104BD000164A2368101D12F8011F904241EA032370
:104BE000F9D12360124C03F100432360114BDB6FBA
:104BF000022B11D0104B1B68012B00D038BD0F4881
:104C000002F074FD21680D4802F0C0FD03210C483C
:104C1000BDE8384005F06EB820680A4D06F04CFA41
:104C20002860FDF71DFBE5E75092FF1F8B94FF1FE7
:104C3000AC94FF1F3C93FF1F7494FF1FC887FF1F96
:104C4000FC0701007092FF1F30B53C4C3C4883B01C
:104C5000214601F0A9FC236840F2C232934252D0AF
:104C6000A3F58C621F2A48D9A3F5FC630F2B3FD90B
:104C7000344B1B68012B01D003B030BD324B1B6895
:104C8000012BF9D1314B32481B6801930A220023D2
:104C9000019902F03BFD2268284B002ADB7945DBB5
:104CA0002C492D4807F024FA2B4807F049FA014611
:104CB000294805F01FF82568204B15F0804526D1BE
:104CC000DB798BB1631925491A7A234807F010FA6A
:104CD000214807F035FA01461F4805F00BF8013569
:104CE000E379EDB2AB42EDD8194802F0FFFCC3E71F
:104CF00012491B48FBF7E2FEBAE710491848FBF7D8
:104D0000DDFE2368B0E7FFF761FF2368A8E7154DD4
:104D1000114C0FCD0FC495E8030044F8040B204656
:104D200020F81419152104F0E5FFDDE70E490A48C3
:104D300022F0604207F0DCF9B6E700BF8494FF1F61
:104D400014B5FF1F3C87FF1F7494FF1FD8B6FF1FC9
:104D5000C887FF1F280801009492FF1F5408010014
:104D6000EC94FF1F3C080100000801002DE9F84FFA
:104D70009A4B9B4C1B78052B08D09A48FCF714F8EB
:104D8000E16A06F08BFB002800F09380964E974D69
:104D9000002333602B60964B92481B68904F012B89
:104DA00045D0FBF7ABFFE1698046606906F0CEF8BD
:104DB0000146404606F090FB00284CD18948FBF79D
:104DC0009DFFE16806F088FB08B100232B60854851
:104DD000834FFBF7E5FE216906F060FB58B1002325
:104DE00033602B68814A002B01DBBDE8F88F00237C
:104DF0001360BDE8F88F7B48FBF7D2FEB96906F077
:104E00004DFB0028EBD17748FBF7CAFED7F8B81066
:104E10000446B86906F09CF80146204606F05CFBA3
:104E2000002873D0786E30600028D8DBD9E7FBF714
:104E300065FFE1698046206A06F088F80146404631
:104E400006F04AFB0028B9D06648FBF757FFD7F8B1
:104E50002090834605E06348FBF750FFD7F8149095
:104E60008346F969484606F071F88246F86D06F007
:104E700023F98046386E06F01FF9414606F066F8C1
:104E800051460746584606F061F80146384606F096
:104E900067F951460746484606F058F80146384635
:104EA00006F012FA414606F053F806F01FFB2860A0
:104EB00084E74C48FBF778FF216B06F0EFFA0028F7
:104EC00049D0494E636E47483360FBF76DFF81461A
:104ED000E06DE76A454D06F0EFF8394680464846F2
:104EE00006F034F80146404606F03AF93946804665
:104EF000206B06F02BF80146404606F0E5F900214C
:104F000006F026F806F0F2FA286044E73548FBF789
:104F100047FE8146F86DBC6906F0CEF82146804612
:104F2000484606F013F80146404606F019F9D7F84E
:104F3000B8108046204606F00BF8214606F006F829
:104F40000146404606F0C0F9002106F001F806F0DF
:104F5000CDFA306068E72348FBF726FF616B06F067
:104F60009DFA30B1204E214D626EE36D32602B60B0
:104F700011E71C48FBF718FFA16A06F08FFA00281A
:104F80003FF404AF1748184E184DFBF70DFF81464C
:104F9000606ED4F8348006F08FF8414607464846E4
:104FA00005F0D4FF39468146002005F0CFFF0146C9
:104FB000484606F0D5F841468146A06A05F0C6FF8E
:104FC0000146484606F080F9394605F0C1FF06F073
:104FD0008DFAE36D30602B60DDE600BFA494FF1F07
:104FE0003C93FF1FEC94FF1FB094FF1F5892FF1FCC
:104FF0007492FF1F08B5274802F078FB0721264866
:1050000004F078FE112003F097F90621F8B1234847
:1050100004F070FE122003F08FF9062100B320483F
:1050200004F068FE122003F087F9062108B31D483A
:1050300004F060FE132003F07FF9062110BB1A482C
:1050400004F058FE1348BDE8084002F04FBB174873
:1050500004F050FE122003F06FF906210028DED183
:10506000134804F047FE122003F066F906210028D9
:10507000DDD1104804F03EFE132003F05DF9062157
:105080000028DCD00C4804F035FE0248BDE808409A
:1050900002F02CBBC887FF1F6008010068080100F0
:1050A0007808010088080100A008010070080100CC
:1050B00080080100900801009808010010B5254CF7
:1050C0002368042B27DC01210B2003F02FF9012199
:1050D0000C2003F02BF90121142003F027F9012102
:1050E000152003F023F9FF21162002F09FFFFF2176
:1050F000172002F09BFFFF21052002F097FFFF2100
:10510000062002F093FF236801330A2B2360C4BFFB
:105110000023236010BD00210B2003F007F90021BC
:105120000C2003F003F90021142003F0FFF8002104
:10513000152003F0FBF80021162002F077FF002174
:10514000172002F073FF0021052002F06FFF0021FD
:10515000D6E700BFC494FF1F10B5092182B097485D
:1051600003F000FC222003F0A5FB954B1B78052BD8
:105170000BD8DFE813F00A010F01140119011E0119
:10518000060007218F4803F0EDFB222003F092FB7D
:10519000FF2003F08FFBFF2003F08CFB8A4CFF20E5
:1051A00003F088FB0821894803F0DCFB216888486C
:1051B00002F0ECFAFF2003F07DFBFF2003F07AFB06
:1051C000FF2003F077FB0921824803F0CBFB216825
:1051D0007F4802F0DBFAFF2003F06CFBFF2003F0B6
:1051E00069FBFF2003F066FB0C217B4803F0BAFB50
:1051F0007A4B1C680021204606F06EF9002800F06A
:10520000C1802046764906F05FF805F0FFFA0024D9
:1052100002460B4600946E4802F0C2FAFF2003F0EB
:1052200049FBFF2003F046FBFF2003F043FB09216D
:105230006C4803F097FB6C48FBF7B6FD05F0E6FA07
:10524000009402460B46624802F0AAFAFF2003F0DF
:1052500031FBFF2003F02EFBFF2003F02BFB0C2182
:10526000624803F07FFB6048FBF7FEFD05F0CEFAD5
:10527000009402460B46564802F092FAFF2003F0D3
:1052800019FBFF2003F016FBFF2003F013FB0D2199
:10529000574803F067FB5448FBF7E4FD05F0B6FA06
:1052A000009402460B464A4802F07AFAFF2003F0C7
:1052B00001FBFF2003F0FEFAFF2003F0FBFA0921B7
:1052C0004C4803F04FFB4848FBF73EFD05F09EFAC3
:1052D000009402460B463E4802F062FAFF2003F0BB
:1052E000E9FAFF2003F0E6FAFF2003F0E3FA0C21CD
:1052F000414803F037FB3C48FBF752FC384905F0C6
:105300002FFF05F083FA009402460B46304802F066
:1053100047FAFF2003F0CEFAFF2003F0CBFAFF207C
:1053200003F0C8FA0D21354803F01CFB2E48FBF7AB
:10533000E5FC2B4905F014FF05F068FA00940246DD
:105340000B46234802F02CFAFF2003F0B3FAFF20AB
:1053500003F0B0FAFF2003F0ADFA0921284803F06A
:1053600001FB284B1A48196802F010FAFF2003F0DD
:10537000A1FAFF2003F09EFAFF2002B0BDE8104022
:1053800003F098BA04F100403CE706211E4803F000
:10539000E9FAFAE607211D4803F0E4FAF5E60721E9
:1053A0001B4803F0DFFAF0E608211A4803F0DAFAA6
:1053B000EBE60B21184803F0D5FAE6E6A808010051
:1053C000A494FF1F14FD00003487FF1FB4080100E0
:1053D000AC87FF1FC0080100CC0801008092FF1FAE
:1053E00000007A44DC080100EC94FF1FE80801008B
:1053F000F80801000809010014090100240901004E
:10540000340901002487FF1FE4FC0000ECFC0000CD
:1054100000FD000008FD0000F4FC00002DE9F04153
:105420008D4DD5F8AC30042B3ED0032B6ED0012B24
:1054300000F09880022B01D0BDE8F081874C8848AD
:10544000237240F20E32012321462260E37101F003
:10545000B3F9844B1B685B00FF2BC8BFFF230421FB
:1054600040224FF441702060E17122726372286D16
:1054700005F022FE696905F073FE7B49054606F0DA
:105480002BF8002800F0DE802946284605F060FD54
:1054900006F052F880B20312E072A3726F497048AE
:1054A000BDE8F04101F088B96C4C704AA3792260E4
:1054B00043F001030822E271A371286D05F0FCFDA1
:1054C000696905F04DFE6A4905F04AFE06F034F8B8
:1054D000644B684A1B68126893FBF2F380B20026A3
:1054E0001A120712607221465D48E372A272277297
:1054F00026736673A673E67301F05EF9A279D5F898
:10550000AC3066F30002032BA27190D1534C286D8E
:10551000A3720122E823072140F2FF262272637260
:105520002660E17105F0C8FD696905F019FE504972
:1055300005F016FE06F000F84A4B4E4A1B6812684A
:1055400093FBF2F382B21E12171221464448637392
:10555000E2722773A67301F02FF9D5F8AC30012B56
:105560007FF468AF444B3D4C1B68236007228023C7
:105570001020E271237202F0DFFE002869D13F4B58
:105580001B68DFF8E0803B4F286D344E03EB83034C
:105590005B001A12A3726272D8F800303A6893FB6B
:1055A000F2F31A126273A37305F086FD696905F0C0
:1055B000D7FD334B196805F0C9FC2D4905F0D0FD26
:1055C00005F0BAFF80B20312314620732448E3721B
:1055D00001F0F2F8022002F0E5FE2A4B1B6823607E
:1055E000072280231020E271237202F0A5FE70BB17
:1055F000224B1B68286D03EB83035B001A12727247
:10560000B37205F059FD696905F0AAFD1E4B1968D2
:1056100005F09CFC164905F0A3FD05F08DFF82B254
:1056200016123868D8F80030227393FBF0F30B4958
:105630000B48A3731A12E672627301F0BDF8D5F835
:10564000AC30F7E601229023A272E37226E70F4BFB
:10565000CFE70E4B94E700BF3C93FF1FD094FF1F92
:1056600014B5FF1F5892FF1F00004843F4E50618C9
:10567000000020414C87FF1F6087FF1F4487FF1FEA
:105680000494FF1F6487FF1F8892FF1F4887FF1F36
:105690002DE9F04F95B001E0FFF7D6FA7D4800F014
:1056A0004DFF0028F8D104F0FBFA002801DDFDF7DA
:1056B0004DFD794E794D3368012B12D0FDF784FAF8
:1056C000D5F89C40012C75D0754F3B78052B00F226
:1056D0007A81DFE813F0B1017A016A010802D5018D
:1056E000DC01704C2368704A0B930B9B11686D4F63
:1056F0005B1AB3F5FA7F36D823686C4E1093109B73
:10570000316841F288325B1A93421CD82368684A98
:105710001293129B1068D5F8B010604C614D1B1AA3
:105720008B420DD92B681393D4F89C3013991160D8
:10573000012B00F001825A4B1B78032B00F0FC81F7
:1057400015B0BDE8F08F5B48FBF770F9002800F05A
:105750000382534B1A78052A00F0EB8123681193DA
:10576000119B3360D2E73B680C930C9B514813604C
:10577000FBF7CAF9D5F89C30DFF82081012B00F047
:10578000AD804C48FBF70CFAD8F8101005F086FEF7
:10579000002800F073822368474A0D930D9B12681E
:1057A0009A4240F2A0803E49444B052002220870F4
:1057B0001A6098E03A4B1B78052B00F00481404FAB
:1057C000DFF814813B68112043F004033B6002F0D2
:1057D000B3FDD8F80030002800F0ED810BB9C8F80F
:1057E000004034482D4CFBF789FAA96C05F074FE93
:1057F000002840F0CA82334B00221A60D8F800809B
:105800002C48B8F1010F00F09782FBF777FAE968AE
:10581000DFF8888005F060FE002800F0E282214C6D
:105820000021142002F082FD22683B680492264A7F
:105830000498106003F0FD032449254A3B600120D1
:105840006423086013601B48DFF85080FBF7A8F959
:10585000296905F023FE002800F0508200210B206A
:1058600002F064FD22683B6807921A4A07991160AA
:1058700003F0FE033B600F48084FFBF791F92969DD
:1058800005F00CFE002800F0958201210C2002F0AA
:105890004DFDECE014B5FF1FC894FF1F3C93FF1FA4
:1058A000A494FF1FD8B6FF1F6092FF1F5C92FF1FDA
:1058B0008492FF1FEC94FF1F5492FF1F0094FF1F60
:1058C000E094FF1FC094FF1FE894FF1FA094FF1FE8
:1058D0003487FF1F1094FF1F7492FF1FB94B1B6882
:1058E000002B40F0DE81B84B1B68002B40F02C8170
:1058F000B64F3B68002B40F04B81B54B1B68002B2B
:1059000040F043813368002B00F01B81FFF7D6FB8A
:10591000FCF76CFFFFF72AFAFDF700FBAD4BAE4E2C
:10592000AE484FF400721A6003210222D9711A7234
:10593000194600225A729A7200F03EFF3368A84856
:1059400023B9A04B1B68012B00F0CE81FBF78CF82C
:105950003368984200F027810221A24804F0CAF976
:10596000A14801F0C3FE1D21A04804F0C3F90221A3
:105970009C4804F0BFF99C4801F0B8FE9C499D4B3F
:105980000520032208701A60FCF712F93B68012B0E
:1059900001D0FFF7E1FB72B6974B4AF202614BF27E
:1059A000804219801A8062B6A6E6944B0124112029
:1059B0001C6002F0C1FC00B93C70122002F0BCFC7B
:1059C000012800F048818E4C51E08C4BDFF840827A
:1059D0000024214615201C6002F0A8FC214614205A
:1059E00002F0A4FC21460C2002F0A0FC21460B2072
:1059F00002F09CFC834B7A481C60FBF77FF9A96C92
:105A000005F06AFD002840F010817F4B00221A60EB
:105A1000122002F091FC012800F03F82784C112006
:105A200002F08AFC012822D123680A93774B0A9A54
:105A30001A6004233B701AE0704B714C4FF0000861
:105A400041461520C3F8008002F070FC4146142046
:105A500002F06CFC41460C2002F068FC41460B2031
:105A600002F064FC674A0123C2F800803B70EB6FD0
:105A700023F00203012B7FF435AEFCF7F1FB31E696
:105A80005E4B5F4C00221A60FDF744F8EFE75B4B7A
:105A90000024214615201C6002F048FC21461420F9
:105AA00002F044FC21460C2002F040FC0B20214671
:105AB00002F03CFC534B11201C6002F03DFC00281E
:105AC00081D14748524CFBF76BF8296905F0FAFC85
:105AD00000283FF478AF4248FBF710F9E16805F081
