:1000000000800020BD01000029860000E18500007D
:10001000E1850000E1850000E1850000E185000048
:10002000E1850000E1850000E185000029860000EF
:1000300029860000E18500003D7C0000417D000034
:1000400029860000298600002986000029860000F4
:1000500029860000298600002986000029860000E4
:1000600029860000298600002986000029860000D4
:1000700029860000298600002986000029860000C4
:1000800029860000298600002986000029860000B4
:1000900029860000298600002986000029860000A4
:1000A0002986000029860000298600002986000094
:1000B00029860000297200003572000039720000A4
:1000C00045720000497200004D7200002986000050
:1000D0002986000029860000298600002986000064
:1000E0002986000029860000298600002986000054
:1000F0002986000071A70000298600001D930000DA
:1001000029860000E9940000298600002986000065
:100110002986000029860000298600002986000023
:100120002986000029860000298600002986000013
:100130002986000029860000298600002986000003
:1001400029860000298600002986000029860000F3
:1001500029860000298600002986000029860000E3
:100160002986000079970000298600002986000072
:1001700029860000298600002986000029860000C3
:1001800029860000298600002986000029860000B3
:1001900029860000298600002986000029860000A3
:1001A0002986000029860000298600002986000093
:1001B000298600002986000029860000564B4CF253
:1001C000205210B51A804DF628121A8000BF00BFC9
:1001D00008F02EFA514B4FF010621A60504A9A60A4
:1001E000504ADA60504A136813F4807304D14F49BF
:1001F0000B604FF4A85313604D4B1A78110703D5C9
:100200001A7842F008021A704A4B4B492A221A7097
:100210004A4A4B4B8B4204D252F8040F43F8040B6A
:10022000F8E7484B484900228B4202D243F8042B9E
:10023000FAE74649464A002352F8230041F82300D2
:1002400001336F2BF8D1434B434A802103F8011B44
:100250009342FBD1414B3D4A1A60414B8A221A70AE
:10026000A3F5805324225A70A0221A709A7992071B
:10027000FCD59A79D406FCD43A4A937903F00C035E
:10028000082B384BF9D103221A7140225A719A79FE
:100290009006FCD5334A9179324B4906FBD5324A58
:1002A000324911600221516020221A709A7902F0BD
:1002B0000C020C2AFAD12E4B2E4A1A602E4B2F4AD2
:1002C0001A6000225A60072243F8042C2C4AC3F813
:1002D0000C2D62B608F08CFC144B1B68DA0705D5B0
:1002E000284808F069FA284B284A1A60284B1B78DE
:1002F0005B0609D5244C254B22689A4204D121483B
:1003000008F05AFA002323600BF014FD08F096F968
:1003100008F0C4F8FEE700BF0E200540308004401E
:10032000823F04000100002B10D0034014D0034092
:1003300002D0074000E007402892FF1F7417010019
:100340002087FF1F2892FF1FB0B9FF1F0082FF1FE9
:100350000000000000E400E05FE400E008ED00E0E1
:100360000050064000400640448004400000030165
:1003700004800440C010050014E000E0FF76010096
:100380000000202079C1DA5D1CE00340A5C3945A27
:1003900000F00740FFFFFFFFFFFFFFFFFFFFFFFF32
:1003A000FFFFFFFFFFFFFFFFFFFFFFFFFFFFFFFF5D
:1003B000FFFFFFFFFFFFFFFFFFFFFFFFFFFFFFFF4D
:1003C000FFFFFFFFFFFFFFFFFFFFFFFFFFFFFFFF3D
:1003D000FFFFFFFFFFFFFFFFFFFFFFFFFFFFFFFF2D
:1003E000FFFFFFFFFFFFFFFFFFFFFFFFFFFFFFFF1D
:1003F000FFFFFFFFFFFFFFFFFFFFFFFFFFFFFFFF0D
:10040000FFFFFFFFFFFFFFFFFFFFFFFFDEF9FFFF23
:1004100010B5054C237833B9044B13B10448AFF33E
:1004200000800123237010BD2892FF1F00000000F0
:1004300070170100084B10B51BB108490848AFF30D
:1004400000800848036803B910BD074B002BFBD0A0
:10045000BDE81040184700BF000000002C92FF1FAD
:10046000701701002892FF1F000000002DE9F041E5
:10047000002600F5C67400F5D0774FF0000854F858
:10048000045F0E4928460BF0FFFB0D4950B128468A
:100490000BF0DCFB30B1304629460BF031F908F1A6
:1004A0000108064640460BF0DFF9014630460BF0E6
:1004B000E3FABC420646E2D1BDE8F0810000A0C1EB
:1004C00000001643F0B4194F0024031F00F180010F
:1004D00000F5827200F17C0643F8044FB34241F804
:1004E000047F4FF0000542F8044FF5D10023104A75
:1004F0001049C0F88C51C0F89051C0F89451C0F820
:100500009851C0F89C51C0F8A051C0F8B051C0F843
:10051000A421C0F8AC21C0F8A81180F8B83180F847
:10052000B93180F8D031F0BC704700BF0000A04066
:10053000000048430000C8C238B590F8D0310B2BFA
:100540000546144607D8702966D0E02931D06029C5
:1005500000F09B8038BD70293AD0E02929D060296D
:10056000F8D1137A507A1B0203F47063181805D07F
:100570000BF07AF963490BF0CBF96860A37AE07A63
:100580001B0203F47063181805D00BF06DF95D4978
:100590000BF0BEF9A860237B607B1B0203F4706341
:1005A0001818D7D00BF060F956490BF0B1F9E86094
:1005B00038BDE37BA07B03EB00200BF055F95249DB
:1005C0000BF0A6F951490BF09BF8C5F8900138BD26
:1005D000137A507A1B0203F4FE43181805D00BF06F
:1005E00043F948490BF094F96861A07AE37A13EB78
:1005F000002005D00BF038F942490BF089F9A861C9
:10060000207B637B13EB0020A4D00BF02DF93D4938
:100610000BF07EF9E86138BD137A507A1B0203F4BF
:100620007063181805D00BF01FF936490BF070F9FC
:100630006861A37AE07A1B02C34208D003F47063B6
:1006400018440BF011F92F490BF062F9A861237BD4
:10065000607B1B02C34208D003F4706318440BF0A4
:1006600003F928490BF054F9E861A37BE07B1B02F6
:10067000C3423FF46FAF03F4706318440BF0F4F817
:1006800020490BF045F9286238BD137A507A1B02D5
:1006900003F4FE42C24208D003F4706318440BF026
:1006A000E3F818490BF034F96860A37AE07A1B028A
:1006B000C34208D003F4706318440BF0D5F8114915
:1006C0000BF026F9A860237B607B1B02C34208D095
:1006D00003F4706318440BF0C7F80A490BF018F9DB
:1006E000E860A37BE07B1B02C3423FF433AF03F41B
:1006F000706318440BF0B8F802490BF009F928614F
:1007000038BD00BF0AD7A33ADDB504BD00001643CB
:10071000D0F8DC01704700BF90F8C001704700BFFF
:1007200090F8BC01704700BF90F8C401704700BF4B
:1007300090F8C801704700BF202994BF50F82100ED
:10074000002070472DE9F0410B4E8046041F00F158
:100750007C0754F8045F314628460BF077FA30B135
:10076000D8F8B41128460BF08FFA00B12E46BC42DF
:10077000EFD13046BDE8F081000020412DE9F04185
:10078000D0F8B4714FF00008041F00F17C0654F853
:10079000045F394628460BF077FA084948B12846E5
:1007A0000BF054FA414620B128460BF06DFA00B127
:1007B000A846B442EBD14046BDE8F0810000A0401D
:1007C0002DE9F0470023D0F8B471C0F8DC3182463F
:1007D0001C464FF000099846061F56F8045F38463D
:1007E00029460BF033FA0E4960B128460BF02EFA79
:1007F00040B1484629460AF083FF08F101088146C6
:10080000CAF8DC410134202CE7D1CAF8D481404633
:100810000BF02AF8014648460BF02EF9BDE8F087A8
:1008200000007042D0F8D401704700BFD0F8CC313E
:1008300070B5044683BBFFF719FE4FF07C510BF0F7
:1008400023FA40B3D4F890614FF07C5130460BF05E
:100850001BFAD4F8945118BBD4F898414FF07C514E
:1008600028460BF011FA58B1294630460BF00CFA25
:1008700030B1214628460BF0E9F908B12C4625E0B5
:100880004FF07C5120460BF0FFF920B1284621465D
:100890000BF0FAF9A0B970BD633350F82300CCE730
:1008A000304629460BF0D2F9D4F898410028D5D02B
:1008B000304621460BF0CAF90028CFD0344605E077
:1008C000304621460BF0E0F90028E4D0204670BD08
:1008D00038B5D0F89441D0F89051214628460BF015
:1008E000B5F900B92C46204638BD00BFD0F8CC3150
:1008F0000BB9FFF7BBBD633350F82300704700BF4F
:100900002DE9F8434FF00008D0F8B471C0F88C819D
:100910008146041F00F17C0654F8045F39462846DE
:100920000BF0B2F9084950B128460BF08FF930B1FD
:10093000404629460AF0E4FE8046C9F88C01B442DC
:10094000EAD14046BDE8F8830000704202299ABF10
:10095000643150F821000020704700BF102998BF73
:1009600080F8D011704700BF90F8D001704700BFE9
:1009700090F8B801704700BFC0F8CC11704700BFB5
:1009800080F8B811704700BF80F8B911704700BFF8
:1009900030B5C0F8B41183B008460AF00FFB074C1D
:1009A000022502460B460095204607F0D1FA204664
:1009B00003B0BDE8304007F071BA00BFC887FF1F21
:1009C00070B500F500550646183500F1380420468C
:1009D00004F5F074FFF776FDAC42F8D106F5067524
:1009E000012428460021FFF7CBFF21462846013489
:1009F000FFF7B4FF112C05F5F075F2D142F2200497
:100A000000250548054A064B3555002130627162C4
:100A1000B262F362304670BD00007A440000484381
:100A20000000C8C242F224032DE9F041002200F583
:100A3000F15500F500578046C2501835243700F5AF
:100A4000067403E004F5F074AC420ED02046FFF7C4
:100A50008FFF0028F6D020463E68FFF7E3FE04F53E
:100A6000F0743044AC423860F0D142F2240358F8BC
:100A70000300BDE8F08100BFF8B50F46096801F03A
:100A80000F050135C5EB051400EB441000F13804E7
:100A9000204601F0F006FFF767FF854203D02946A4
:100AA0002046FFF75BFF20460121FFF769FF204644
:100AB0000121FFF769FF3A4631462046BDE8F8407C
:100AC000FFF73ABD70B5002300F5005605460361F7
:100AD000183600F5067403E004F5F074A64223D03E
:100AE0002046FFF745FF0028F6D02046FFF708FF15
:100AF000014628690AF004FE28612046FFF796FEA9
:100B0000A96A0BF0A3F820BB2046FFF7E1FEE96AD3
:100B10000BF0BAF80028DFD02046FFF7D9FE04F525
:100B2000F074A642E862DBD168690AF09DFE0146D6
:100B300028690AF0A1FF696A286104460BF0A4F84D
:100B400000B16C62296A20460BF080F800B12C627B
:100B500070BD2046FFF76AFEA862D5E770B5124B5C
:100B6000836100F500550646183500F5067403E06C
:100B700004F5F074AC4214D02046FFF7F9FE0028CB
:100B8000F6D02046FFF7DEFDB1690BF05FF80028D4
:100B9000EED02046FFF7D6FD04F5F074AC42B0610C
:100BA000EAD1B06970BD00BF0000A04070B500235D
:100BB00000F500550646C361183500F5067403E0DC
:100BC00004F5F074AC4214D02046FFF7D1FE0028A3
:100BD000F6D02046FFF7D2FDF1690BF055F800285A
:100BE000EED02046FFF7CAFD04F5F074AC42F06188
:100BF000EAD1F06970BD00BF00697047416170477C
:100C0000F8B50F46164600F50674012504E00135D7
:100C1000112D04F5F0741BD02046FFF7A9FE002823
:100C2000F5D029460B4807F089F90A4807F036F94C
:100C3000782009F0BBFC20463946FFF79DFE0135C0
:100C400020463146FFF7A4FE112D04F5F074E3D1E0
:100C5000F8BD00BFC887FF1F2DE9F84342F21C030F
:100C600000F500550027C7502E462B4A2B4B4263F8
:100C700080464FF00009036318351C3600F50674F2
:100C800003E004F5F074A54214D02046FFF770FE8F
:100C90000028F6D03368013333602046FFF726FE84
:100CA0001F490AF0F1FF90B904F5F074A54207F16D
:100CB0000107EAD142F21C0358F80300C01B0AF0F6
:100CC000D3FD014648460AF0D7FEBDE8F88320462A
:100CD000FFF70CFE014648460AF012FD8146204609
:100CE000FFF7F6FDD8F830100AF0CEFF70B92046B5
:100CF000FFF79CFDD8F834100AF0A8FF0028C0D0F8
:100D00002046FFF793FDC8F83400BAE72046FFF706
:100D1000DFFDC8F83000EAE700C0794400C079C4BC
:100D200000008CC2006B7047406B7047F8B500F54F
:100D3000005507460026183500F5067403E004F553
:100D4000F074AC4210D02046FFF712FE0028F6D017
:100D50002046FFF735FD014630460AF0D1FC04F588
:100D6000F074AC420646EED142F21C03F8580AF089
:100D70007BFD014630460AF07FFEF8BD2DE9F04FBD
:100D800093B004460F91002A40F0D78115461046D3
:100D9000C84900F0E5FDC749284600F0E1FDC54916
:100DA000284600F0DDFD42F21C03204654F803B053
:100DB000FFF738FE8146206966690AF0FFF8CDE941
:100DC00010012046FFF7B2FF82462046A769D4F8FB
:100DD0001C80FFF741FF0AF0F1F8CDE90C0139461C
:100DE00040460AF08BFCB4490AF092FD0AF0E6F89E
:100DF000CDE90A0140460AF0E1F8CDE9080138469C
:100E00000AF0DCF8CDE9060150460AF0D7F8DDE932
:100E10001023CDE90401CDE90223A84900964B46F1
:100E20005A46284600F09CFDA249284600F098FD4D
:100E300004F506744FF0010ADDF83C9007E00AF172
:100E4000010ABAF1100F04F5F07400F0F7802046A3
:100E5000FFF78EFD0028F2D02046FFF75DFC20460C
:100E6000FFF75EFC2046FFF75FFC2046FFF760FCC3
:100E70000821934809F016FB5146924807F05EF8A6
:100E8000BAF1090F03DC01218F4809F00BFB0221A5
:100E90008E4809F007FB2046FFF732FD0AF08EF876
:100EA0005FFA89F802460B46CDF80080854807F0C6
:100EB0004FF80121864809F0F5FA2046FFF728FC93
:100EC0000C2800F3BE8001261EE00621814809F0AF
:100ED000E9FA29467B4807F031F802217E4809F0FB
:100EE000E1FA31462046FFF727FC0AF067F8CDF813
:100EF000008002460B46734807F02AF80121744827
:100F00003D460E4409F0CEFA2046FFF701FC86422A
:100F100005F101076BDC092DD7DC01216A4809F0D6
:100F2000C1FAD2E72046FFF7F3FB172800F3BE8093
:100F300035460D261CE009F0B5FA2946614806F051
:100F4000FDFF0221644809F0ADFA31462046FFF763
:100F5000F3FB0AF033F8CDF8008002460B465948FF
:100F600006F0F6FF01215A483D460E4409F09AFA70
:100F70002046FFF7CDFB86424FF00601554805F1AC
:100F80000107D8DD0F21554809F08CFA4D4806F0CD
:100F900085FF2046FFF7BCFB192828DD19261CE039
:100FA00009F080FA2946474806F0C8FF02214A485E
:100FB00009F078FA31462046FFF7BEFB09F0FEFF44
:100FC000CDF8008002460B463E4806F0C1FF0121E5
:100FD0003F483D460E4409F065FA2046FFF798FB6E
:100FE00086424FF006013B4805F10107D8DD0F218D
:100FF0003A4809F057FA334806F050FF09213848BB
:1010000009F050FA00212046FFF7A0FC09F0D6FFB6
:10101000022602460B4600962A4806F099FF0F2149
:101020002E4809F03FFA0AF1010A264806F036FF79
:10103000BAF1100F04F5F0747FF409AF13B0BDE8F6
:10104000F08F2F46012620E00621224809F02AFAD7
:1010500039461C4806F072FF02211F4809F022FAA7
:1010600031462046FFF768FB09F0A8FFCDF8008065
:1010700002460B46134806F06BFF01360121144867
:1010800009F010FA0C2E09D05F46092F07F1010B69
:10109000DADC01210C4809F005FAD5E72046FFF714
:1010A00037FB0C2805F10B063FF73CAF16350D2733
:1010B0003AE000BFC8FF000000007A446001010070
:1010C00000020100C887FF1F000401006C1001002E
:1010D0000C02010010020100F003010018020100DF
:1010E000280201000621BD4809F0DCF93146BC4860
:1010F00006F024FF0221BB4809F0D4F93946204606
:10110000FFF71AFB09F05AFFCDF8008002460B46A4
:10111000B34806F01DFF0121B3480F4409F0C2F99E
:101120005D453FF42FAF5E46092E06F1010BD9DC79
:101130000121AE4809F0B6F9D4E7AD49012000F02D
:101140000FFCAB49012000F00BFCA949012000F085
:1011500007FC42F21C032046E2581092FFF762FCA3
:1011600082462069666909F029FF80462046894643
:10117000FFF7DCFD83462046A569E769FFF76CFDB4
:1011800009F01CFFCDE90C01294638460AF0B6FAF1
:1011900098490AF0BDFB09F011FFCDE90A01384674
:1011A00009F00CFFCDE90801284609F007FFCDE959
:1011B0000601584609F002FF5346CDE90401CDE986
:1011C0000289109A8C490096012000F0C9FB8849D9
:1011D000012000F0C5FB04F506744FF0010A00255C
:1011E000DDF83C9007E00AF1010ABAF1100F04F5AE
:1011F000F0743FF423AF2046FFF7BAFB0028F2D08B
:101200002046FFF789FA2046FFF78AFA2046FFF7C3
:101210008BFA2046FFF78CFA0821784807F07AFF0E
:101220005146774806F08AFEBAF1090F03DC012126
:101230006E4807F06FFF0221724807F06BFF2046EF
:10124000FFF75EFB09F0BAFE5FFA89F802460B462B
:10125000CDF800806A4806F07BFE0121624807F065
:1012600059FF2046FFF754FA0C2800F3B4800126FA
:101270001EE00621594807F04DFF2946604806F058
:101280005DFE0221574807F045FF31462046FFF733
:1012900053FA09F093FECDF8008002460B465848F9
:1012A00006F056FE012150483D460E4407F032FF3D
:1012B0002046FFF72DFA864205F101076BDC092D68
:1012C000D7DC0121494807F025FFD2E72046FFF788
:1012D0001FFA172800F3CE8035460D261CE007F0D4
:1012E00019FF2946464806F029FE02213D4807F02D
:1012F00011FF31462046FFF71FFA09F05FFECDF8D7
:10130000008002460B463E4806F022FE0121364888
:101310003D460E4407F0FEFE2046FFF7F9F98642EF
:101320004FF006012D4805F10107D8DD0F213648A1
:1013300007F0F0FE324806F0B1FD2046FFF7E8F96D
:10134000192828DD19261CE007F0E4FE29462C4860
:1013500006F0F4FD0221234807F0DCFE314620466A
:10136000FFF7EAF909F02AFECDF8008002460B46A5
:10137000234806F0EDFD01211B483D460E4407F0D1
:10138000C9FE2046FFF7C4F986424FF00601134814
:1013900005F10107D8DD0F211B4807F0BBFE1848F7
:1013A00006F07CFD0921194807F0B4FE0021204613
:1013B000FFF7CCFA09F002FE022602460B46009621
:1013C0000F4806F0C5FD0F210F4807F0A3FE0C489B
:1013D00006F064FD07E72F4601263AE010020100FF
:1013E000C887FF1FF00301000C0201000004010088
:1013F000C8FF000000007A44600101000002010003
:10140000AC87FF1F6C1001001802010028020100C8
:1014100006212F4807F07EFE39462E4806F08EFD45
:1014200002212D4807F076FE31462046FFF784F969
:1014300009F0C4FDCDF8008002460B46254806F0B1
:1014400087FD01360121254807F064FE0C2E09D0E6
:101450005F46092F07F1010BDADC0121204807F074
:1014600059FED5E72046FFF753F90C2805F10B0686
:101470003FF72CAF16350D2721E00621144807F061
:1014800049FE3146134806F059FD0221124807F083
:1014900041FE39462046FFF74FF909F08FFDCDF8A0
:1014A000008002460B460B4806F052FD01210B4816
:1014B0000F4407F02FFE5D453FF438AF5E46092E1E
:1014C00006F1010BD9DC0121054807F023FED4E722
:1014D00010020100AC87FF1FF00301000C020100A5
:1014E000000401002DE9F04F85B000F506758A462D
:1014F00003929B462E464FF0010806E008F10108D2
:10150000B8F13F0F06F5F0767BD03046FFF730FAA2
:101510000028F3D000230A2251467D4806F0CEFC75
:1015200001217C4808F0BEFF039809F047FD002325
:101530000246009376480B4606F00AFD01217548E5
:1015400008F0B0FF5946724806F0F8FC01217148D6
:1015500008F0A8FF41466E4806F0F0FC01216D48F6
:1015600008F0A0FF00244FF0020921463046FFF7A3
:10157000E3F809F023FDCDF8009002460B466448DD
:1015800006F0E6FC01340121624808F08BFF082CCC
:101590004FF00207E9D100213046FFF7D7F909F0F3
:1015A0000DFD009702460B46594806F0D1FC01217B
:1015B000584808F077FF01213046FFF7C7F909F0D6
:1015C000FDFC009702460B46514806F0C1FC012184
:1015D000504808F067FF39463046FFF7B7F909F081
:1015E000EDFC009702460B46494806F0B1FC08F1B5
:1015F0000108474806F052FCB8F13F0F06F5F076B7
:1016000083D101274FF0000904E001373F2F05F592
:10161000F07579D02846FFF7ABF90028F5D0002304
:101620000A2251463C4806F049FC0121394807F09E
:1016300071FD039809F0C2FCCDF8009002460B46FC
:10164000354806F085FC0121324807F063FD594614
:10165000314806F073FC01212E4807F05BFD394646
:101660002D4806F06BFC01212A4807F053FD0024A9
:101670004FF0020821462846FFF75EF809F09EFC6D
:10168000CDF8008002460B46234806F061FC013489
:101690000121204807F03EFD082C4FF00206E9D159
:1016A00000212846FFF752F909F088FC009602460F
:1016B0000B46194806F04CFC0121164807F02AFD9C
:1016C00001212846FFF742F909F078FC009602460E
:1016D0000B46114806F03CFC01210E4807F01AFDAC
:1016E00031462846FFF732F909F068FC00960246B9
:1016F0000B46094806F02CFC0137074806F0CEFBE4
:101700003F2F05F5F07585D105B0BDE8F08F00BF1E
:10171000C887FF1F34020100AC87FF1F70B5044665
:1017200008460D460BF0ECF8236802462946204691
:101730005B68BDE870401847014B1870704700BFE8
:101740002087FF1FF0B51546027883B062B10346CB
:101750000E46252A16D018781C4685B908F026FFB3
:101760006278631C002AF4D1002D5CD0744803B069
:10177000BDE8F04006F092BB1046002DEED007F019
:1017800071FCEDE758785C1C0028EDD02528F3D0DB
:1017900073282FD0642825D0692823D0662848D004
:1017A0007A2853D078285ED0582800F085806228A7
:1017B00000F09180422866D06C2813D0632811D0A5
:1017C000742800F098805428C7D133680436002D5F
:1017D00040F0A480012B00F0A8800521594808F0B2
:1017E00061FEBDE7331D316885B957481E4606F0D6
:1017F000A5FBB5E7371D3668304665B90BF080F8B4
:10180000014630463E4608F04DFEA9E74C481E46CC
:1018100006F094FBA4E70BF073F8014630463E4611
:1018200007F078FC9CE7484803B0BDE8F04006F0BC
:1018300035BB073626F007060321D6E900230091C1
:1018400065B94148083606F083FB89E7073626F07C
:101850000706D6E9002385B10021009138480836F3
:1018600006F076FB7CE7371D3168F5B900231022BE
:1018700035483E4606F022FB72E7009532480836AE
:1018800006F066FB6CE7022130487DBB08F00AFEDB
:101890003168371D2B4602222B483E4606F00EFBD0
:1018A0005EE707F037FC3168371D0023102224481B
:1018B0003E4606F003FB53E702212548002DF0D1F8
:1018C00008F0F0FD371D31681F482B4610223E46B8
:1018D00006F0F4FA44E7371D3168002DDAD0002312
:1018E000022217483E4606F0E9FA39E707F012FCF3
:1018F000371D3168F3E7316804363DB901290EBF61
:1019000014481548012108F0CDFD29E701290EBF33
:1019100010481148012107F0FDFB21E7012B09D0F8
:101920000521084807F0F6FB1AE70C490648FFF7BF
:10193000F5FE15E709490248FFF7F0FE10E700BF82
:10194000AC87FF1F74020100C887FF1F60020100FF
:101950005C02010064020100680201006C020100E7
:101960000EB400B582B003A9024651F8040B0191F0
:10197000FFF7E8FE02B05DF804EB03B0704700BF6C
:1019800030B4074D074C084900232B7023600365D2
:101990004365836580F85C300B6030BC704700BFE6
:1019A0004C92FF1F4892FF1F4492FF1F0A4A0B49A7
:1019B000906D536D03FB00F34FF47A7000FB03F05E
:1019C000642310B50B6009F04FFF0549054C0AF080
:1019D00053F8206010BD00BF3C93FF1F3487FF1FEA
:1019E000E4388E3E8C92FF1FF8B53C493C4F3D4D8C
:1019F0003D4E3E4C0020FFF7B3FF3D4B3D483E4976
:101A00003E4A5860D9603E481F6100213D4F5A61EF
:101A10005D623D4A9E614FF07C553C4E9C623C4C61
:101A2000D86219630C203B495F639A633A4F5D6447
:101A300040F61C420A259E64DC6441F204065A24E6
:101A40001865196202200121C3F8B8709A66334FF5
:101A5000DD66002264251E675C674FF496763224AB
:101A60005870587219725965DF61DF6383F840203E
:101A70005E66DE651C664FF47A7E9D65284F9A6728
:101A8000284ED867C3F88020C3F89440C3F8A0401C
:101A9000C3F89C20C3F8A810C3F8AC00FF240520AD
:101AA00083F8BC1083F8BD2041F2883140F2D66241
:101AB000C3F8B050C3F898E0C3F88870C3F88C60DE
:101AC000C3F8A440A3F8B600C3F89010A3F8B4106C
:101AD000A3F88420A3F88620F8BD00BF7C02010093
:101AE00000004040CDCCCC3DCDCC4C4000008242EB
:101AF0003C93FF1F48E8010066668640333383400D
:101B0000000020C1000020420000A0409A997940C6
:101B10000AD7233D333373409A99993ECDCC4C3E3E
:101B20000000684200C02044F0B54FF47A6085B0F0
:101B300007F010F800210F2006F0E4FF00210E202E
:101B400006F0E0FF0021112006F0DCFF002110204C
:101B500006F0D8FF0021122006F0D4FF0021132048
:101B600006F0D0FF01210B2006F0CCFF01210C2054
:101B700006F0C8FF0121142006F0C4FF0121152042
:101B800006F0C0FF0121162006F0BCFF012117203E
:101B900006F0B8FF0121052006F0B4FF8D4C8E4DF4
:101BA0000121062006F0AEFF01210D2006F0AAFF5C
:101BB000208809F055FE0146162006F00DFF20880A
:101BC00009F04EFE0146172006F006FF208809F0B6
:101BD00047FE0146052006F0FFFE208809F040FE82
:101BE00000240146062006F0F7FE009423467B4AB7
:101BF0007B497C4804F0C0FFE6B23246764979481A
:101C000004F068FF2B79744976486FF300030134C0
:101C100032462B7104F054FF082CEDD10924E6B2B2
:101C200032466D496F4804F055FF2B796A496D487B
:101C300043F00103013432462B7104F041FF0D2CB7
:101C4000EDD1694C4FF0FF322068102105F060FBA8
:101C500020684FF0FF32102105F032FB20684FF072
:101C6000FF32022105F040FB20684FF0FF320221D5
:101C700005F044FB00220F21206805F053FB0C21E6
:101C80005A4808F00FFC5A4806F008F9162159483E
:101C900008F008FC564806F001F940F2836007F0AE
:101CA00017F8534806F0FAF81721534808F0FAFBE2
:101CB0004F4806F0F3F8514B1B789A0600F1B880B4
:101CC0004E4B1B781B0700F1BF804C4B1B785F0706
:101CD00000F1C680494B1B789E0700F1CD80484B30
:101CE0001B781D0600F1D480454B1B785C0600F183
:101CF000DB80434B1B78980600F1E280404B1B7859
:101D0000590700F1E9803E4B1B781A0700F1F0807B
:101D10003B4B1B789B0700F1F780354806F0BEF877
:101D200072B6384A4CF220534DF628112024138005
:101D300023461180013BFDD1334D34483449002303
:101D40004FF480562E8003800B8032F80E3C9BB2FD
:101D500043F0D30322F80E3C62B69D2007F064FBEB
:101D600021462C482C4D08F09DFB214806F096F8A2
:101D700005F1C0062F462C46601B06F0FDFA04F85C
:101D8000010BB442F8D13B78102B01D0FFF72CFEA9
:101D90000420FFF7D1FC214B002201210D201A6005
:101DA00006F09CFE796D1E48FEF728FF7A6C97F8C6
:101DB00040101B48FEF724FF1A4B1B491A68039278
:101DC00003981B680293029A184B08601A6005B0CA
:101DD000F0BD00BF2887FF1F0494FF1FB0B6FF1F90
:101DE00048E8010014B5FF1FB494FF1F9C020100D6
:101DF000C887FF1FAC020100C402010001F00740C8
:101E000000F007400E200540042005400620054054
:101E100016200540C80301003C93FF1F6492FF1F7A
:101E2000EC94FF1FD8B6FF1FE894FF1F0C94FF1F10
:101E30002121394808F036FB384806F02FF8384B96
:101E40001B781B077FF541AF0C21364808F02AFBB1
:101E5000324806F023F8324B1B785F077FF53AAF24
:101E60000E21314808F01EFB2C4806F017F82C4BC9
:101E70001B789E077FF533AF17212C4808F012FB23
:101E8000264806F00BF82A4B1B781D067FF52CAF71
:101E90000E21284808F006FB204805F0FFFF244BE0
:101EA0001B785C067FF525AF1221234808F0FAFA6B
:101EB0001A4805F0F3FF1E4B1B7898067FF51EAFFE
:101EC00013211E4808F0EEFA144805F0E7FF184BFE
:101ED0001B7859077FF517AF1C21194808F0E2FA63
:101EE0000E4805F0DBFF124B1B781A077FF510AF89
:101EF0001921144808F0D6FA084805F0CFFF0C4B1A
:101F00001B789B077FF509AF18210F4808F0CAFA24
:101F1000024805F0C3FF00E7DC020100C887FF1F8D
:101F200001F007400003010010030100200301003D
:101F300000F0074038030100480301005C03010082
:101F40007003010090030100AC03010070B5464C22
:101F5000464D4748E66800232B70FEF727FE0146F2
:101F6000304609F073FE08B104232B704048FEF799
:101F7000F5FD216909F06AFE18B12B7843F01003D2
:101F80002B703B48FEF7CEFEA16A09F07DFE18B12A
:101F90002B7843F040032B70002335486B70FEF71D
:101FA000C3FEE16A314E09F051FE08B1012373709E
:101FB00000232F48EB70FEF7F9FD05462C482B4E09
:101FC000FEF7CCFD0146284609F098FBE16B09F0CD
:101FD0005BFE08B10123F370264D254800232B70CA
:101FE000FEF7E4FD616A0646E06809F087FB0146FA
:101FF000304609F049FE08B104232B701C48FEF757
:10200000ADFD616A0646206909F07AFB014630465B
:1020100009F01CFE18B12B7843F010032B70144804
:10202000FEF780FEA16B0646A06A09F067FB014639
:10203000304609F029FE18B12B7843F040032B708D
:1020400000230B486B70FEF76FFEA16B0546E06A3C
:10205000084C09F055FB0146284609F0F7FD08B188
:102060000123637070BD00BF3C93FF1F3893FF1FB7
:10207000EC94FF1FA494FF1F2DE9F0417C4C2368D2
:10208000012B82B031D0022B00F0A880032B00F08E
:10209000C8803BBB774B784AD3F8A010D3F8A43064
:1020A00012685B1A632B0EDD744803FB02F380FB9E
:1020B0000302DB17C3EB62131944062002B0BDE82C
:1020C000F04106F08BBB6E4803FB022380FB03024A
:1020D000DB17C3EB22121144062002B0BDE8F04129
:1020E00006F07CBB02B0BDE8F081664E33680A336F
:1020F000B3F57A7F00F3B7801846336009F0B4FB7C
:10210000614909F005FC80465A4DD5F8A00009F058
:10211000ABFB0746D5F8A40009F0A6FB394609F049
:10212000EDFA414609F0F4FB584909F0A5FC39469F
:1021300009F0E6FA09F0B2FD0146062006F04EFB72
:102140000221534808F0AEF9524805F0A7FE0621D7
:10215000514808F0A7F9306809F086FB4A4909F0B0
:10216000D7FB08F02BFF022702460B460097494891
:1021700005F0EEFE0D21494808F094F9D5F8A000CD
:1021800009F072FB8046306809F06EFB3E4909F0A9
:10219000BFFB0646D5F8A40009F066FB414609F0EE
:1021A000ADFA0146304609F0B3FB384909F064FC4A
:1021B000414609F0A5FA08F001FF00970B460246D8
:1021C000344805F0C5FE3946314808F06BF931480E
:1021D00005F064FE2368022B7FF458AF294B254E8F
:1021E00000221A60D6F8A00009F03EFB0546D6F89A
:1021F000A40009F039FB294609F080FA002109F012
:1022000087FB224909F038FC294609F079FA09F0E0
:1022100045FD0146062006F0E1FA2368032B7FF412
:1022200038AF184B134E4FF47A721A60D6F8A000EC
:1022300009F01AFB0546D6F8A40009F015FB29465B
:1022400009F05CFA114909F063FB104909F014FC2C
:10225000294609F055FA09F021FD0146062006F04D
:10226000BDFA236815E700234FF0000833604BE701
:102270009094FF1F3C93FF1F3487FF1F1F85EB5176
:10228000CBF08D286892FF1FCDCCCC3D0000C8421A
:102290006C100100C887FF1FEC030100F40301006C
:1022A00070B5B848B84C05F0F9FDB64805F0F6FD34
:1022B000B44805F0F3FD0D21B44808F0F3F8D4F864
:1022C0009C30012B11D0B24CAE48217800230A2259
:1022D00005F0F4FD2378052B67D8DFE813F00B0138
:1022E000100115011A011F0101010921A94808F077
:1022F000D9F8A948FEF732FC216909F0A7FC18B10A
:102300000F21A64808F0CEF8A348FEF74FFCE1687D
:1023100009F0BAFC18B10E21A14808F0C3F89E4894
:10232000FEF744FC05469C48FEF718FC014628468B
:1023300009F0E4F9E16B09F0A7FC18B11121994803
:1023400008F0B0F89448FEF787FCA16A09F09CFCFD
:1023500018B10C21944808F0A5F88F48FEF77CFCD2
:10236000E16A09F073FC18B10D21904808F09AF861
:102370008F4B89481B68012B00F0ED80FEF7EEFBC8
:102380002169814D09F080FC78B18348FEF70EFC8D
:10239000E96809F05BFC40B17D4B1B78052B00F030
:1023A000EB800821834808F07DF80221824808F07C
:1023B00079F8122006F098FB012800F0B480112073
:1023C00006F092FB012800F0B8807C4B1B68012BC3
:1023D00000F0BC8002217848794C08F063F8794B12
:1023E0006848196805F0AAFD664805F057FD042104
:1023F000754808F057F80B2006F076FB00230146DD
:102400000A22604805F05AFD0C2006F06DFB0023FF
:1024100001460A225B4805F051FD142006F064FBDA
:10242000002301460A22574805F048FD152006F012
:102430005BFB0A2200230146524805F03FFD0621BE
:10244000624808F02FF82368DD074FF001014CBF08
:102450005F48604808F026F8236898074FF00101AC
:102460004CBF5B485B4808F01DF823685A074FF0E3
:1024700001014CBF5648574808F014F823681B0761
:102480004CBF53485348012108F00CF8042152482E
:1024900008F008F8112006F027FB002301460A2265
:1024A000384805F00BFD102006F01EFB0023014606
:1024B0000A22344805F002FD122006F015FB002325
:1024C00001460A222F4805F0F9FC132006F00CFB08
:1024D000002301460A222B48BDE8704005F0EEBCFF
:1024E00007213E4807F0DEFF3D4B2648196805F0FE
:1024F00025FD5AE706213B4807F0D4FF55E70721A1
:10250000394807F0CFFF50E70721384807F0CAFFE6
:102510004BE70821364807F0C5FF46E70B21354851
:1025200007F0C0FF41E70E21334807F0BBFF112041
:1025300006F0DAFA01287FF448AF0A212F4807F0A5
:10254000B1FF1E4B1B68012B7FF444AF11212C48B7
:1025500007F0A8FF3EE7FEF701FB216A09F094FBB4
:1025600000283FF41EAF1621264807F09BFF0A21E2
:10257000254807F097FF18E70A21234807F092FF44
:1025800013E700BFC887FF1F3C93FF1F040401002F
:10259000A094FF1F14040100EC94FF1F200401000D
:1025A00030040100400401005404010064040100EF
:1025B0007492FF1F980401006C100100BC94FF1F6F
:1025C000FC93FF1F9494FF1F0C05010014050100EC
:1025D0001C050100D411010020050100D4040100F4
:1025E000C094FF1FA4040100AC040100C00401005A
:1025F000C8040100B4040100DC040100EC04010083
:10260000F8040100740401008C0401002DE9F04F6E
:102610009B4C9C4FE36F012B8DB000F05981032B35
:102620005AD0994E994DA36F9948012B09BF29683B
:10263000296801F10041296005F066FA3368002B32
:1026400040F0D880924805F035FAE36F3860012BEE
:10265000064600F0DC808F4909F016FBB8B98E49B8
:10266000304609F0F3FA90B98C4A8D4B12680B9200
:102670000B9A1A60D4F8A80009F0F6F8314609F070
:1026800047F9002338602B600DB0BDE8F08FDFF80C
:102690000CA2DFF80C82DAF800300A930A98D8F816
:1026A0000030DFF82492C01A09F0DAF8314609F058
:1026B0002FF97C4909F0E0F97A4909F0DDF9D9F8F8
:1026C000001009F01DF8DAF800300993099BC9F8E9
:1026D0000000C8F80030CDE7DFF8D081724DD8F89F
:1026E0000000694E012300220F212B6004F01AFE26
:1026F0002B68012B336800F00981002B40F0AC817E
:102700000021D8F80000DFF8C491684D04F05CFEA9
:1027100033681FFA80FBC9F800B0002B40F08181BC
:102720000021D8F80000594DDFF880A104F0D2FD57
:10273000B4F8863040F6E44101FB0BF1B1FBF0F058
:10274000C01A00B209F090F859498346D4F88800BD
:1027500009F0DEF80146584609F08EF9D9F8003044
:102760002860632BDFF864B100F34F8100232B60F6
:102770003368002B3FF457AF02214E4807F092FE1A
:10278000D9F80020D8F8000040F6E443002103FB0C
:1027900002F804F09FFDB8FBF0F009F061F8804604
:1027A000B4F8860009F060F80146404608F0A6FF3C
:1027B00008F004FC4FF0020802460B46CDF80080FA
:1027C0003D4805F0C5FB41463A4807F06BFE2868D6
:1027D00008F0F4FBCDF8008002460B46364805F0C1
:1027E000B7FB4146354807F05DFE4146314807F0EA
:1027F00059FE18E7264805F05DF908F0DFFB0226D0
:1028000002460B4600962C4805F0A2FB1AE7264B21
:102810001B68012B00F02C81022B7FF42BAF284981
:1028200009F032FA30B92749304609F00FFA00288A
:1028300000F05381DFF864A0DFF86480DAF800303C
:1028400007930798D8F80030DFF87C90C01A09F099
:1028500007F8314609F05CF8124909F00DF9114901
:1028600009F00AF9D9F8001008F04AFFDAF8003048
:102870000693069BC9F80000C8F80030FAE600BFCE
:102880003C93FF1F8092FF1FE094FF1F7092FF1F79
:102890001493FF1F0000FA430000FAC3D8B6FF1FCD
:1028A000B094FF1F00007A445087FF1FB494FF1FAD
:1028B00017B7D1386C100100C887FF1F64050100ED
:1028C00000C82F4800A08CC68C92FF1F3493FF1FB6
:1028D0003D689B49284609F0B9F930B12846994925
:1028E00009F0D2F900287FF4F7AEDFF86482964D44
:1028F000D8F80000954E022300220E212B6004F030
:1029000011FD2B68012B33687FF4F7AE002B40F0EC
:1029100006810021D8F80000DFF874928C4D04F095
:1029200053FD33681FFA80FBC9F800B0002B40F05C
:10293000DB800021D8F80000864D04F0CBFCB4F811
:10294000843040F6E44A0AFB0BFBBBFBF0F0C01AF4
:1029500000B208F089FF80498346D4F88C0008F063
:10296000D7FF0146584609F087F8D9F800302860AB
:102970000021D8F800000AFB03FA04F0ABFCB4F81D
:102980008430BAFBF0F00FFA80FAC3EB0A03002B95
:10299000B4F8B620B8BF5B429342BCBF00232B60A3
:1029A0003368002B3FF43FAE02216C4807F07AFDFC
:1029B000D9F80020D8F8000040F6E443002103FBDA
:1029C00002F804F087FCB4F88410B8FBF0F000B211
:1029D000411A634805F0B2FA0221604807F062FD2F
:1029E000286808F0EBFA4FF0020802460B46CDF8D3
:1029F00000805B4805F0ACFA03215A4807F052FD0D
:102A00004146564807F04EFD0DE6DAF80000002179
:102A100004F060FCDBF8003064389842FFF4A6AEA6
:102A2000A6E60021286804F055FC40F6E4410023A6
:102A30000A2201FB0BF1B1FBF0F1494805F03EFA27
:102A40000221464807F02EFDB4F88610444805F0F0
:102A500075FAD9F800B063E6414805F01FFA0C2179
:102A6000414807F01FFD0C21404807F01BFD47E6D9
:102A70003F4909F009F958B93E49304609F0E6F8EE
:102A800030B93D4A3D4B12680592059A1A60F1E54E
:102A9000DFF8E4A0DFF8E480DAF80030049304986B
:102AA000D8F80030DFF8EC90C01A08F0D9FE3146B3
:102AB00008F02EFF324908F0DFFF314908F0DCFF53
:102AC000D9F8001008F01CFEDAF800300393039BDD
:102AD000C9F80000C8F80030CCE5274A274B126837
:102AE0000892089A1A60C5E50021286804F0F2FBF4
:102AF00040F6E44100230A2201FB0BF1B1FBF0F1A7
:102B0000174805F0DBF901211E4807F0CBFCB4F8AB
:102B10008410134805F012FAD9F800B009E71048FC
:102B200005F0BCF9E36F012B4FF00B010CBF164809
:102B3000164807F0B7FC0C210C4807F0B3FCE8E698
:102B400000709446007094C65087FF1FE094FF1FEA
:102B5000B494FF1F7092FF1F17B7D1386C1001009B
:102B6000C887FF1F50050100540501004005010002
:102B70000000FA430000FAC3D8B6FF1FB094FF1F4D
:102B800000007A440004010028050100340501001A
:102B90003493FF1F8C92FF1F2DE9F047934C23685D
:102BA00084B0002B79D0924DDFF84C82914FD5F84C
:102BB00080308F4E012B00F08980D7F80090D6F836
:102BC00058A0746D8C4E04FB0AF44FF47A7000FB2D
:102BD00004F008F049FE89490446484608F098FE8A
:102BE000214608F049FF864908F092FE09F056F8A0
:102BF0006328C8F800004BDD2046804908F03CFF00
:102C00006423386033607F4B1B68002B3DD0EB6F33
:102C1000774C012B00F08880032B00F0D680022B2C
:102C200000F0D9800221784807F03CFC774B186807
:102C300008F0C4F9022402460B460094744805F0DB
:102C400087F92146734807F02DFC21466E4807F0AE
:102C500029FCD8F800106E4805F070F906216E487E
:102C600007F020FC3868654908F052FE08F0A6F924
:102C7000009402460B46664805F06AF9032167484E
:102C800007F010FC624805F009F904B0BDE8F087D0
:102C90000028BCBF00233360B5E7614E544D336854
:102CA0000293029A42F228339A4249D83368039336
:102CB000039A42F210739A4249D8D5F88030DFF86F
:102CC00038814C4F4A4E012B7FF477AF5548FEF7C1
:102CD0002DF85549D6F86890F46E08F019FE09F001
:102CE00003F8326F736FD5F858A0C9EB02021B1BB3
:102CF00080B29A42C9EB0000C6BF03FB000001325C
:102D0000584390FBF2F020446C6D00FB0AF004FB8A
:102D100000F000EB8000400008F0A6FD374908F005
:102D2000ABFE814638604DE7404B1B68012B4FF0EE
:102D30000A010CBF3E483F4807F0B4FBE36F6BE766
:102D400038486A6C95F84010FDF75AFFAEE73548F1
:102D5000FDF7ECFF3449AF6EEE6E08F0D9FD08F0D8
:102D6000C3FF2A6F6B6FD21B9B1B80B29A42A0EBF2
:102D7000070035DD03FB0000531C90FBF3F31E44FA
:102D8000A86D6B6DDFF870801A4FC8F8006000FB0B
:102D900006F003FB00F000EB8000400008F064FD4B
:102DA000164908F069FE01233860022116482360A5
:102DB00007F078FB164805F071F859211E4807F016
:102DC00071FB134805F06AF8F1E610211B4807F083
:102DD00069FBEB6F23E70721194807F063FB21E745
:102DE00003FB00F393FBF2F31E44C9E76C92FF1F51
:102DF0003C93FF1F8C92FF1F3487FF1FE4388E3EE9
:102E00000000C8423C87FF1F6C1001008092FF1F2A
:102E1000C887FF1F64050100F805010000060100D6
:102E2000D8B6FF1FEC94FF1F00007A445087FF1FA5
:102E3000C4050100D005010068050100DC050100A2
:102E4000F0050100F0B5112083B005F04DFE01281A
:102E500013D000210B2005F041FE00210C2005F0CD
:102E60003DFE0021152005F039FE1D491D4B0120B6
:102E7000002208701A6003B0F0BD01460446152018
:102E800005F02CFE1849194A194B09680191D2F82E
:102E900090001B680199134D034402268B422E605B
:102EA00017D8D2F8980008F0DFFC124B196808F028
:102EB000CDFE074668B921460B2005F00FFE084AF3
:102EC000032339460C2016702B6005F007FE03B073
:102ED000F0BD01210C2005F001FE03B0F0BD00BFE4
:102EE000A094FF1FDC94FF1FD8B6FF1F3C93FF1F69
:102EF000E894FF1F8092FF1FF0B5684E684D34685C
:102F00002B689C4287B039D014F0010155D014F0E1
:102F1000020149D014F004013DD0E3070ED52B681F
:102F2000DF070BD45F4F3A68002A00F082805E4BC7
:102F30001B680193019B93426DD83468A0070DD59F
:102F40002B6899070AD4594F3A68002A4CD0564B3F
:102F50001B680393039B934238D8346862070DD5EE
:102F60002B685B070BD4524F3A68002A7ED04E4B39
:102F70001B680593059B934268D834680CB107B071
:102F8000F0BD2146162005F029FC2146172005F04A
:102F900025FC07B0F0BD052005F020FC2B68346847
:102FA00003F0FB032B60B8E7172005F017FC2B6834
:102FB000346803F0FD032B60ACE7162005F00EFC2F
:102FC0002B68346803F0FE032B60A0E7394B172011
:102FD000D3F8941005F002FC2B68346843F0020328
:102FE00000222B603A60B9E7334804F057FF0C2108
:102FF000324807F057FA304804F050FFFF211720FD
:1030000005F0ECFB284B2E4A1968029102991268D0
:103010000A443A609CE7274B1620D3F8941005F039
:10302000DDFB2B68346843F0010300222B603A601B
:1030300084E7FF21162005F0D1FB1B4B204A1968BD
:103040000091009912680A443A6071E7194B052013
:10305000D3F8941005F0C2FB2B68346843F00403E6
:1030600000222B603A60002C89D18AE7124804F0D4
:1030700015FF0C21134807F015FA0F4804F00EFF56
:10308000FF21052005F0AAFB074B0D4A19680491A2
:10309000049912680A443A606AE700BFDC94FF1F93
:1030A000FC93FF1F7494FF1FD8B6FF1F7894FF1F77
:1030B0007C94FF1F3C93FF1FC887FF1F040601007D
:1030C0006887FF1F140601002DE9F047544EDFF812
:1030D0007481DFF874913068524D00220F2104F0A2
:1030E00021F90023012222214F48C8F80030C9F8F5
:1030F000002007F0D7F9D8F80030132B22DC40F677
:10310000E44700213068B5F884A004F05DF900219F
:103110000446306804F0DEF8A4B2012107FB04F491
:10312000B4FBF0F441485444A5F8844007F0BAF9E0
:10313000642005F00FFDD8F800300133132BC8F8D8
:103140000030DEDDB5F88430394A3A48A2FB03127C
:103150009B1A02EB5303C3F30F131946A5F88430EF
:1031600004F0ECFE1D21344807F09CF9022133489D
:1031700007F098F92F4804F091FE00231A460E211B
:103180003068C8F8003004F0CDF802232221264828
:10319000C9F8003007F086F9D8F80030132B22DC8C
:1031A00040F6E44700213068B5F8869004F00CF949
:1031B00000210446306804F08DF8A4B2012107FB19
:1031C00004F4B4FBF0F419484C44A5F8864007F029
:1031D00069F9642005F0BEFCD8F800300133132BE8
:1031E000C8F80030DEDDB5F88630114A1148A2FB80
:1031F00003129B1A02EB5303C3F30F131946A5F8EE
:10320000863004F09BFE1D210D4807F04BF902218A
:103210000A4807F047F90748BDE8F04704F03EBE0A
:10322000B494FF1F3C93FF1F2406010068060100B1
:1032300087611886C887FF1F480601006C100100CF
:103240006C0601009894FF1F5087FF1FA64B2DE9C5
:10325000F0411B68A54CA64D40F251310822216077
:10326000E271286D002B40F0EE8008F0FDFA6969EC
:10327000064608F04DFB9F499D4F08F049FB08F0BA
:1032800033FD80B2031263729B4A9C4B12681B6829
:10329000A969A37215121B12E3722273207265735F
:1032A000304608F035FB9349904D08F031FB08F0AB
:1032B0001BFD83B21A1229469148A373E27303F0EF
:1032C00053FE904B904A1B681288A272DEB206EB46
:1032D0008601267203EB8306490046F3D71640F2B7
:1032E000553E12124FF000081B12217366732946D7
:1032F00008268348C4F800E0E2726372E67184F83D
:103300000E8084F80F8003F02FFE40F256337F4882
:103310002360E671FDF770FC7D4908F0F9FA08F0CA
:10332000E3FC20727948FDF767FC794908F0F0FA70
:1033300008F0DAFC774A7649C0F307236372106815
:1033400008F09AFB08F0AAFC40FA06F203466F4820
:10335000E272A372FDF780FC664908F0D9FA08F022
:103360009DFC20736948FDF777FC624908F0D0FAAC
:1033700008F094FC294640F307236148637384F8FE
:103380000E8084F80F8003F0EFFD022005F0E2FBD1
:10339000614A624B10785178207290786172D278CD
:1033A0001978A072987893F801E0E2722173DA78C4
:1033B000A07340F25A332946514884F80DE0E27375
:1033C0002360E67103F0D0FD554B4D481A785978CB
:1033D000227261729A78D978A272E1721A79597957
:1033E00093F806E022736173DA7984F80EE040F214
:1033F0005E332946E2732360E67103F0B5FD0220D7
:1034000005F0A8FB474B3E481A7859782272617242
:103410009A78D978A272E1721A79597993F806E00C
:1034200022736173DA79E6714FF45C732946236085
:1034300084F80EE0E27303F097FD3B4B1B68012B11
:1034400006D0BDE8F08108F00FFA296A064610E7B9
:103450002E48FDF783FBF96C08F052F980462B48A3
:10346000FDF7A4FB0146404608F0F0FB0028E8D039
:1034700040F2C3332548EE712B60FDF76FFBBE6C45
:10348000314608F0E3FBC8B12849304608F040FA5D
:1034900008F02AFC80B2031268722B720023012606
:1034A00004250322A672E57222736373A373E37388
:1034B0000E491348BDE8F04103F056BD1348FDF72F
:1034C0004DFB1A4908F024FA08F00EFCC0F307235C
:1034D0000E482B72FDF742FB144908F019FA08F068
:1034E00003FC6872DAE700BF7492FF1FCC94FF1FE1
:1034F0003C93FF1F00002041AC94FF1F5892FF1F18
:1035000014B5FF1F3487FF1F3887FF1FEC94FF1F80
:103510000000C8428092FF1F3893FF1FA494FF1F32
:103520002C87FF1F5487FF1FBC94FF1F00007A44A5
:10353000F0B58A4C8A4D83B006F04EFF23682860B0
:10354000042B00F08682022B4BD0082B00F09280D7
:10355000072B40F02B81332801F0348400F30683DD
:10356000312801F00784322840F08D8006F070FF8A
:10357000002840F319817B487B4E04F023FE08F0BD
:1035800073F97A4908F0C4F961230122F0632260DB
:103590002B601846A0F152031F2B01F2DB83DFE8FA
:1035A00013F06C0BD90BD90BD90BD90BD90BD90B49
:1035B000D90BD90BD90BD90BD90BD90BD90BD90BEB
:1035C000A403030D2B05C1059704D90BD90BD90B07
:1035D0001804D90B000DD90BD90BD90BD90BD90B6A
:1035E0005A0BA0F13102422A4DD8DFE812F0DA0678
:1035F000E606F40606075507C9064C004C004C00C9
:103600004C004C004C004C004C004C004C004C005A
:103610004C004C004C004C004C004C004C004C004A
:103620004C004C004C004C004C004C004C004C003A
:103630004C004C004C004C004C004C004C004C002A
:103640004C004C004C004C004C004C004C004C001A
:103650004C004F074C004C004C004C004C004C0000
:103660004C004C004C004C004C004C004C00C5027F
:103670004C004707322800F00683712800F07C8256
:10368000312800F01B83002B08BF73280CBF0120DA
:103690000020002860D0334804F000FC04213448A6
:1036A00006F000FF2F4804F0F9FB1021314806F026
:1036B000F9FE2C4804F0F2FB13212F4806F0F2FE2D
:1036C0002E4B2848196804F039FC264804F0E6FB24
:1036D00014212B4806F0E6FE224804F0DFFB1E21F1
:1036E000284806F0DFFE1F4804F0D8FB15212648C5
:1036F00006F0D8FE1B4804F0D1FB1E21234806F03B
:10370000D1FE184804F0CAFB2021214806F0CAFE69
:10371000144804F0C3FB19211E4806F0C3FE1148EB
:1037200004F0BCFB12211C4806F0BCFE0D4804F05E
:10373000B5FB0F21194806F0B5FE0A4804F0AEFBB0
:103740000D21174806F0AEFE064804F0A7FB154A07
:10375000002101231160236003B0F0BD9092FF1F90
:103760007C92FF1FC887FF1F3C93FF1F6F12833A95
:10377000E80E0100F00E0100040F01002487FF1F76
:10378000180F0100300F0100500F0100680F0100F9
:10379000880F0100AC0F0100C80F0100DC0F010011
:1037A000EC0F01003C87FF1F23682868062B40F0C0
:1037B0008D80A0F13102402A3FF665AF01A151F89A
:1037C00022F000BF87420000B34200005B430000CC
:1037D000DF42000005430000234300004743000090
:1037E00087360000873600008736000087360000E5
:1037F00087360000873600008736000087360000D5
:1038000087360000873600008736000087360000C4
:1038100087360000873600008736000087360000B4
:1038200087360000873600008736000087360000A4
:103830008736000087360000873600008736000094
:103840008736000087360000873600008736000084
:103850008736000087360000873600008736000074
:103860008736000087360000873600008736000064
:103870008736000087360000873600008736000054
:103880008736000087360000873600008736000044
:103890008736000087360000873600008736000034
:1038A0008736000087360000873600008736000024
:1038B0008736000087360000873600008736000014
:1038C00087360000793B000023682868052B15D156
:1038D000332801F0A08240F35481352801F085821D
:1038E000C1F2BB8271287FF4CEAEB14A00237320AF
:1038F000136023602860C6E623682868032B40F025
:10390000A480A0F13002422A3FF6BDAE01A151F8D9
:1039100022F000BF213A0000DF4A0000554A0000B3
:103920007D4A00009F4A00000F4A0000A74B00009C
:10393000CF4B0000ED4B0000114C0000873600001B
:103940008736000087360000873600008736000083
:103950008736000087360000873600008736000073
:103960008736000087360000873600008736000063
:103970008736000087360000873600008736000053
:103980008736000087360000873600008736000043
:103990008736000087360000873600008736000033
:1039A0008736000087360000873600008736000023
:1039B0008736000087360000873600008736000013
:1039C0008736000087360000873600008736000003
:1039D0008736000087360000374A0000B9450000EE
:1039E000394C0000C14A0000494B0000674B000001
:1039F0006F450000934500008736000087360000C1
:103A000087360000873600008736000087360000C2
:103A10008736000087360000074B0000134B00007C
:103A200006F016FD002841F39E816248624E04F0C4
:103A3000C9FB01270346014662226048736527607F
:103A40002A60FDF7DBF823682868012B7FF41BAEA2
:103A5000A0E5A0F13002412A3FF615AE01A151F8D0
:103A600022F000BF57450000B9440000D1440000D7
:103A7000D5440000FB4400002145000045450000FE
:103A80003D45000041450000FF440000873600002E
:103A90008736000087360000873600008736000032
:103AA0008736000087360000873600008736000022
:103AB0008736000087360000873600008736000012
:103AC0008736000087360000873600008736000002
:103AD00087360000873600008736000087360000F2
:103AE00087360000873600008736000087360000E2
:103AF00087360000873600008736000087360000D2
:103B000087360000873600008736000087360000C1
:103B100087360000873600008736000087360000B1
:103B200087360000873600008736000087360000A1
:103B30008736000087360000873600008736000091
:103B40008736000087360000873600008736000081
:103B50008736000087360000873600008736000071
:103B60008736000087360000793B0000342801F0DA
:103B7000178171287FF487AD0023732023602860AC
:103B800081E5312801F0588132287FF47CAD06F0C0
:103B90005FFC00287FF7B0AE0648074E04F012FB2A
:103BA00001226B23C6F8980022602B600AE000BF58
:103BB0009094FF1FC887FF1F3C93FF1FEC94FF1FCB
:103BC00006F00AFC06F044FC0028F9D1A64804F0EF
:103BD00065F9A54804F062F9A34804F05FF9A2482A
:103BE00004F05CF9A04804F059F921219F4806F03F
:103BF00059FC9D4804F052F915219D4806F052FCED
:103C0000D6F89010984804F099F90221994806F0E6
:103C100049FC954804F042F91E21974806F042FC01
:103C2000D6F89810904804F089F90321934806F0DB
:103C300039FC8D4804F032F91E21914806F032FC1F
:103C4000D6F89410884804F079F9874804F026F9EA
:103C50001D218C4806F026FCD6F8A010824804F0FE
:103C60006DF9814804F01AF91E21874806F01AFC04
:103C7000D6F8A4107C4804F061F97B4804F00EF9F2
:103C80000523236068E506F0E3FB002840F3F38298
:103C900075487E4E04F096FA07F0E6FD7C4907F081
:103CA00037FE96F84010034602467A487364FCF7E4
:103CB000A7FF01236920236028606BE406F0C8FB9E
:103CC000002840F3DC826848704E04F07BFAC0B2F2
:103CD00086F8400002288ABF0021014686F840107D
:103CE000726C6C48E3E706F077FB06F0B1FB054623
:103CF0000028F8D15C48654E04F0D0F85A4804F02A
:103D0000CDF8594804F0CAF8574804F0C7F85648A7
:103D100004F0C4F81F21604806F0C4FB524804F0C8
:103D2000BDF81C215D4806F0BDFB706A5C4907F0D8
:103D3000EFFD07F043F9009502460B464A4804F0B0
:103D400007F90221574806F0ADFB474804F0A6F8F2
:103D50002321554806F0A6FBF06B514907F0D8FD2A
:103D600007F02CF9009502460B463F4804F0F0F8A6
:103D700002214C4806F096FB3B4804F08FF81921CD
:103D80004A4806F08FFBB06B07F018F902250B4686
:103D900002460095344804F0DBF82946444806F012
:103DA00081FB314804F07AF81921424806F07AFB89
:103DB000B6F8B4102C4804F0C1F803213E4806F0D0
:103DC00071FB294804F06AF807232360C4E406F075
:103DD00003FB06F03DFB05460028F8D122482B4E98
:103DE00004F05CF8204804F059F81F4804F056F835
:103DF0001D4804F053F81C4804F050F815212F48D2
:103E000006F050FB184804F049F818212C4806F039
:103E100049FB2B460A2296F84010134804F04EF84E
:103E2000114804F03BF82821264806F03BFB706C53
:103E30001B4907F06DFD07F0C1F800950B460246DF
:103E4000094804F085F80221164806F02BFB0648C5
:103E500004F024F813211C4806F024FB024804F067
:103E60001DF80823236077E4C887FF1F1C090100A1
:103E7000400901002C08010058090100500501000B
:103E80007809010098090100B80901003C93FF1F5F
:103E90006F12833AEC94FF1F780801009808010024
:103EA00000007A4404070100B8080100DC080100A2
:103EB000F8080100FC08010018090100B00F01001A
:103EC000BC060100D80601000807010006F084FACC
:103ED00006F0BEFA05460028F8D17D487D4E03F075
:103EE000DDFF7B4803F0DAFF794803F0D7FF78481D
:103EF00003F0D4FF764803F0D1FF1121764806F095
:103F0000D1FA734803F0CAFF2821744806F0CAFAB0
:103F10007069734907F0FCFC07F050F80095024601
:103F20000B466B4804F014F802216E4806F0BAFA0A
:103F3000674803F0B3FF16216B4806F0B3FAF06947
:103F4000674907F0E5FC07F039F800950B46024693
:103F50005F4803F0FDFF0221624806F0A3FA5C48C7
:103F600003F09CFFD6F8AC30002B32DD1D215F48FA
:103F700006F098FAF06D07F077FC5D4907F0C8FC91
:103F800007F01CF8022502460B460095504803F046
:103F9000DFFF0121574806F085FA4D4803F07EFF08
:103FA0001F21554806F07EFA306E07F05DFC50493F
:103FB00007F0AEFC07F002F8009502460B464448B5
:103FC00003F0C6FF01214B4806F06CFA404803F0AD
:103FD00065FF1121494806F065FAD6F8AC30052B8B
:103FE00000F26886DFE813F0AC06B106A706A20669
:103FF0009D06620606F0F0F906F02AFA0028F9D1CB
:104000003348344E03F04AFF314803F047FF30484D
:1040100003F044FF2E4803F041FF2D4803F03EFF1C
:104020001F21374806F03EFA294803F037FF1E21CA
:10403000344806F037FA264803F030FF1A21324898
:1040400006F030FAF36F022B00F06D87032B00F0BF
:104050006187012B00F0558709212C4806F022FAD0
:104060001B4803F01BFF142129481A4F06F01AFAC7
:10407000B16F174803F062FF154803F00FFF1C21D2
:10408000244806F00FFAD6F88010114803F056FFC6
:104090000F4803F003FF1C211F4806F003FAD6F86F
:1040A000A8100B4803F04AFF094803F0F7FEF56F2C
:1040B00025F00205012D00F0F4861321174806F0C3
:1040C000F1F9034803F0EAFE02232360FFF744BB43
:1040D000C887FF1F3C93FF1F540F01001C070100FE
:1040E00000007A440407010048070100600701004E
:1040F000CDCCCC3D3C0C010080070100A0070100A5
:10410000FC0A01001C0B01003C0B0100B40B010078
:10411000C00B0100D80B0100F80B010008070100DB
:1041200006F05AF906F094F90028F9D1BA48BB4DC7
:1041300003F0B4FEB84803F0B1FEB74803F0AEFE9A
:10414000B54803F0ABFEB44803F0A8FE1321B44811
:1041500006F0A8F9B04803F0A1FE0D21B14806F021
:10416000A1F9AD4803F09AFE0F21AF4806F09AF985
:10417000AE4BA948196803F0E1FEA74803F08EFE94
:104180001321AB4806F08EF9AA4BA348196803F037
:10419000D5FEA14803F082FE1221A74806F082F95D
:1041A000A64B9D48196803F0C9FE9B4803F076FEB4
:1041B0001121A34806F076F9A24B9748196803F03D
:1041C000BDFE954803F06AFE0E219F4806F06AF98D
:1041D000D5F89C10904803F0B1FE8F4803F05EFEC6
:1041E00019219A4806F05EF9994B8B48196803F03B
:1041F000A5FE894803F052FE1121964806F052F9B7
:10420000954B8548196803F099FE834803F046FEF4
:104210001021924806F046F9914B7F48196803F047
:104220008DFE7D4803F03AFE1C218E4806F03AF9D7
:104230008D4B7948196803F081FE774803F02EFE14
:104240001E218A4806F02EF995F8BD30002B00F0AB
:1042500017860D21864806F025F96F4803F01EFEEB
:104260001321844806F01EF96B4803F017FE04235F
:104270002360FFF771BA23682868FFF769B9674EB2
:1042800096F8400026E506F0E3F800287FF71CAB1F
:104290006148624E03F096FF07F0E6FA764907F0B0
:1042A000EBFB65230122706122602B601846FFF74B
:1042B00071B906F0CDF800287FF706AB5648574E87
:1042C00003F080FF07F0D0FA6B4907F0D5FB6523B8
:1042D0000122F06122602B601846FFF75BB906F0FF
:1042E000B7F800287FF7F0AA4B484C4E03F06AFF5E
:1042F00000EB8000430001226520336622602860C5
:10430000FFF748B9454AD2F8AC300133052BC8BF96
:104310000023C2F8AC300123652023602860FFF73A
:1043200039B906F095F800287FF7CEAA3A483B4EF7
:1043300003F048FF65230122C6F8B00022602B601D
:104340001846FFF727B9354B93F8BC20002A00F038
:104350009285002283F8BC20DDE706F079F800287A
:104360007FF7B2AA2C482D4E03F02CFF00EB800003
:10437000430001226520F36522602860FFF70AB937
:104380000123236006F064F8002805DD2248234E4F
:1043900003F018FFA6F8B600632028602368FFF733
:1043A000D7B81E4EB36FB3FA83F35B0901226320C3
:1043B000B36722602860FFF7EDB8184ED6F880305A
:1043C000B3FA83F35B0901226320C6F880302260D0
:1043D0002860FFF7DFB80123236006F039F80028D2
:1043E00005DD0D480D4E03F0EDFEC6F8A8000123D3
:1043F000632023602860FFF7CDB80123236006F017
:1044000027F80028C8DD0448044E03F0DBFE07F05F
:104410002BFAC6F88C00BFE7C887FF1F3C93FF1F2D
:10442000D8090100EC090100FC0901007094FF1F8C
:104430000C0A0100E094FF1F200A0100C494FF1F32
:10444000340A0100C894FF1F480A0100580A0100FD
:104450009494FF1F740A01009094FF1F880A0100C2
:104460007892FF1F9C0A01005C87FF1FBC0A0100B5
:10447000DC0A01000807010000007A44564AD36FA5
:104480000133032BC8BF0023D367B0E7FEF71CFE40
:1044900023682868FFF759B80123236005F0D8FF87
:1044A00000287FF779AF4D484B4E03F08BFE07F0A5
:1044B000DBF9C6F888006FE7494A1368B3FA83F35B
:1044C0005B0901216420136021602860FFF762B856
:1044D000444AF2E7444A454F1368002B0CBF0123BE
:1044E00000234FF001001360206040F02585034653
:1044F00064222A606420FFF728B83D4ADDE70123E3
:10450000236005F0A5FF002800F3C384394B1A6827
:10451000042AC4BF02221A6064232B602368E9E7DF
:104520002D4ED6F89C30B3FA83F35B090122642048
:10453000C6F89C3022602860FFF72CB82E4ABCE7F2
:104540002E4ABAE701232E482360FCF76BFA2D4A66
:1045500023681060CCE7204E96F8BD30012253400E
:10456000642086F8BD3022602860FFF713B805F09C
:104570006FFF00280DDD1948174E03F023FE07F0EA
:1045800073F9214907F078FA012262233062226030
:104590002B6005F05DFF00280EDD10480E4E03F085
:1045A00011FE07F061F9184907F066FA012262234B
:1045B000C6F8B80022602B6005F04AFF002840F3DF
:1045C000D2830648044E03F0FDFD01226223B0664B
:1045D00022602B601CE000BF3C93FF1FC887FF1FB9
:1045E0007094FF1FE094FF1FC494FF1F9092FF1F61
:1045F000C894FF1F5C87FF1F9094FF1F7892FF1FD6
:10460000EC94FF1F9494FF1F00007A4405F0E4FE31
:1046100005F01EFF05460028F8D1C24803F03EFC15
:10462000C04803F03BFCBF4803F038FCBD4803F032
:1046300035FCBC4803F032FC1521BB4805F032FFC5
:10464000B84803F02BFC1421B84805F02BFFB548FF
:1046500003F024FC1B21B64805F024FFB14803F009
:104660001DFC1321B34805F01DFFAE4803F016FCF6
:10467000AC4803F013FCAB4803F010FC2021AE481B
:1046800005F010FFF068AD4907F042F906F096FC1E
:10469000009502460B46A34803F05AFC0221A848A5
:1046A00005F000FF0221A74805F0FCFE9D4803F03D
:1046B000F5FB2121A44805F0F5FE30699F4907F07C
:1046C00027F906F07BFC009502460B46954803F05F
:1046D0003FFC02219A4805F0E5FE0221994805F0C9
:1046E000E1FE904803F0DAFB1F21984805F0DAFE5E
:1046F000B06A06F063FC022702460B460097894821
:1047000003F026FC0121924805F0CCFE39468D4885
:1047100005F0C8FE834803F0C1FB20218D4805F059
:10472000C1FEF06A06F04AFC009702460B467D483F
:1047300003F00EFC0121864805F0B4FE394681489D
:1047400005F0B0FE774803F0A9FB2321824805F06D
:10475000A9FEB06C794907F0DBF806F02FFC009554
:1047600002460B466F4803F0F3FB3946744805F0E8
:1047700099FE3946734805F095FE6A4803F08EFBB2
:104780001F21764805F08EFEF06C6C4907F0C0F8EA
:1047900006F014FC009502460B46624803F0D8FB75
:1047A0003946674805F07EFE3946664805F07AFED0
:1047B0005C4803F073FB1921694805F073FEB16D85
:1047C000584803F0BBFB3946664805F06BFE394696
:1047D0005C4805F067FE534803F060FB182162480F
:1047E00005F060FE706E07F03FF8604907F090F842
:1047F00006F0E4FB009702460B464A4803F0A8FB8C
:1048000001215B4805F04EFE39464E4805F04AFE50
:10481000444803F043FB2B21564805F043FEB069A2
:10482000464907F075F806F0C9FB009502460B46AD
:104830003C4803F08DFB3946414805F033FE3946CC
:10484000404805F02FFE374803F028FB1F214A4857
:1048500005F028FE716D334803F070FB3946394886
:1048600005F020FE2F4803F019FB2021434805F0F6
:1048700019FE316D2B4803F061FB3946314805F0D4
:1048800011FE284803F00AFB10213D4805F00AFEFE
:10489000B16E244803F052FB3946294805F002FE68
:1048A0003946284805F0FEFD1E4803F0F7FA1321AB
:1048B000344805F0F7FDF16E1A4803F03FFB012183
:1048C000314805F0EFFD39461E4805F0EBFD15486F
:1048D00003F0E4FA10212D4805F0E4FD316F114892
:1048E00003F02CFB3946164805F0DCFD3946154827
:1048F00005F0D8FD0B4803F0D1FA1421244805F047
:10490000D1FD716F074803F019FB01211E4805F026
:10491000C9FD39460B4805F0C5FD024803F0BEFA53
:10492000162137E0C887FF1F840C01009C0C010092
:10493000B40C010008070100D00C010000007A440B
:10494000040701006C100100F40C0100180D0100B7
:10495000380D01003C0D0100600D0100840D0100C7
:10496000A40D0100C00D0100C40D0100CDCCCC3D53
:104970003C0C0100E00D01000C0E01002C0E0100AA
:10498000500E0100640E0100780E01007C0E010043
:10499000900E0100BA4805F085FD306AB94906F06D
:1049A000B7FF06F00BFB009502460B46B64803F036
:1049B000CFFA3946B54805F075FD3946B44805F0DB
:1049C00071FDB14803F06AFA2421B24805F06AFD8E
:1049D000D6F8B800AB4906F09BFF06F0EFFA009559
:1049E0000B460246A84803F0B3FA3946A74805F03B
:1049F00059FD3946A64805F055FDA34803F04EFA87
:104A0000A14803F04BFA03232360FEF7A5BE05F08F
:104A10001FFD002840F3A7819B489F4E03F0D2FB67
:104A200006F022FF974907F027F801226223B064BD
:104A300022602B60ECE505F00BFD002840F393812C
:104A40009148954E03F0BEFB01226223306522603F
:104A50002B60DDE505F0FCFC002840F384818A48EA
:104A60008D4E03F0AFFB06F0FFFE864907F004F819
:104A700001226223306122602B60C9E505F0E8FC69
:104A8000002840F370818048834E03F09BFB06F0C2
:104A9000EBFE01226223B06222602B60B8E505F0D4
:104AA000D7FC002840F35F8177487B4E03F08AFBF8
:104AB00006F0DAFE01226223F06222602B60A7E595
:104AC00005F0C6FC002840F34E816F48724E03F09B
:104AD00079FB01226223306722602B6098E505F0A4
:104AE000B7FC002840F33F8167486B4E03F06AFB38
:104AF00006F0BAFE634906F0BFFF01226223F060B0
:104B000022602B6084E50022732322602B60FEF775
:104B1000C2BD624B5E48604E002202211A6005F061
:104B2000C1FC594803F0BAF90B215D4805F0BAFC05
:104B30000221574805F0B6FC534803F0AFF90122B3
:104B4000622322602B6063E505F082FC002840F3BD
:104B50000A814D48504E03F035FB012262237067F5
:104B600022602B6054E5FCF73FFF022148484A4E83
:104B700005F098FC444803F091F90221444805F0FF
:104B800091FC414803F08AF90221414805F08AFC72
:104B90003D4803F083F91721424805F083FC3A4869
:104BA00003F07CF9C4E705F053FC002840F3DB80F8
:104BB0003548394E03F006FB06F056FE314906F043
:104BC0005BFF01226223F06422602B6020E505F088
:104BD0003FFC002840F3C7802B482F4E03F0F2FA29
:104BE00001226223B06522602B6011E505F030FCE4
:104BF000002840F3B8802448274E03F0E3FA00EB86
:104C00008000430001216222736621602A60FFE474
:104C100005F01EFC002840F3A6801B481E4E03F042
:104C2000D1FA06F021FE174906F026FF0122622381
:104C3000B06122602B60EBE405F00AFC002840F331
:104C400092801148144E03F0BDFA01226223F066EF
:104C500022602B60DCE4C02200210F4803F0A6FB99
:104C60002868114AA0F1730001210023B0FA80F0F6
:104C7000400911602360FEF70CBD04F07BFD00BF0E
:104C8000A80E010000007A44C887FF1F0407010036
:104C90006C100100C00E01003C93FF1F6C92FF1FBF
:104CA000B0060100980601003C87FF1F0B21C04899
:104CB00005F0F8FBBF48C04D03F0F0F8D6F8AC3073
:104CC000002B12DD1821BD4805F0ECFBD5F8B01023
:104CD000B84803F033F90221B94805F0E3FBB548C1
:104CE00003F0DCF8B34803F0D9F81B21B54805F010
:104CF000D9FB96F8BC30012B15BF12211421B24804
:104D0000B24805F0CFFBAB4803F0C8F81321B04818
:104D100005F0C8FBA74803F0C1F806232360FEF79F
:104D20001BBD0D21AB4805F0BDFBC3E70D21AA4813
:104D300005F0B8FBBEE70C21A84805F0B3FBB9E7C6
:104D40000D21A74805F0AEFBB4E70C21A54805F0FE
:104D5000A9FBAFE72368002B08BF73280CBF012015
:104D60000020FEF796BC23682868012B7EF48BACEC
:104D7000FEF710BC05F06CFB00287EF715AD8D48E2
:104D80008D4E03F01FFA06F06FFD974906F0C0FD47
:104D900061230122706222602B601846FEF7FABB85
:104DA00005F056FB00287EF7FFAC8248824E03F0E8
:104DB00009FA61230122A6F8B40022602B6018468C
:104DC000FEF7E8BB05F044FB00287EF7EDAC794820
:104DD000794E03F0F7F906F047FD61230122B06335
:104DE00022602B601846FEF7D5BB05F031FB00288A
:104DF0007EF782AD6F48704E03F0E4F97B4BC6F846
:104E0000A40003221A60FDF737F901226B23226008
:104E10002B60FEF7D7BE05F01BFB00287EF76CADBC
:104E20006448654E03F0CEF901226B23C6F8940066
:104E300022602B60FEF7C6BE05F00AFB00287EF755
:104E40005BAD5C485C4E03F0BDF901226B23C6F8F4
:104E5000900022602B60FEF7B5BE05F0F9FA00283D
:104E60007EF74AAD5348544E03F0ACF95F4BC6F899
:104E7000A0000222C6E7012283F8BC20FFF74BBA4C
:104E80000E215B4805F00EFB4A4803F007F8FFF7D8
:104E9000E7B9484803F096F9564B02461860FFF709
:104EA00037BB1C21544805F0FDFAD7F88C00534954
:104EB00006F02EFD06F082F8009502460B463D48AE
:104EC00003F046F805214E4805F0ECFA394802F0A7
:104ED000E5FFFD6F012D45D0032D7FF4EEA81C21C9
:104EE000484805F0DFFAB6F8B610324803F026F865
:104EF0000321454805F0D6FA2E4802F0CFFFFFF710
:104F0000DCB81E21414805F0CDFA2A4802F0C6FF60
:104F1000FFF7A9B820213E4805F0C4FA254802F061
:104F2000BDFFFFF7A0B817213A4805F0BBFA2148AA
:104F300002F0B4FFFFF797B8374B002631460B203D
:104F40001E6003F0CBFD31460C2003F0C7FD314657
:104F5000142003F0C3FD3146152003F0BFFD3B686C
:104F6000FFF7C6BA1D212D4805F09CFAD7F8880036
:104F7000224906F0CDFC06F021F800950B460246CA
:104F80000C4802F0E5FF05211D4805F08BFA0948A1
:104F900002F084FFFB6F23F00203012B9FD0FFF789
:104FA0008CB8054EFEF70EBE034EFFF731BB00BFB7
:104FB00004080100C887FF1F3C93FF1F1008010071
:104FC0002C080100300801004C08010060080100B5
:104FD00008070100F4070100E4070100D4070100FD
:104FE000B4070100C40701006F12833A9094FF1FB9
:104FF000EC0A01005C87FF1F180C0100CDCCCC3DF2
:10500000380C0100600C0100800C0100580B0100FD
:10501000780B01009C0B0100DC94FF1F400C010089
:1050200038B5164C164A2368101D12F8011F90421D
:1050300041EA0323F9D12360124C03F100432360BA
:10504000114BDB6F022B11D0104B1B68012B00D0D2
:1050500038BD0F4802F022FF21680D4802F06EFFB4
:1050600003210C48BDE8384005F01CBA20680A4D01
:1050700006F0FAFB2860FDF7C9FAE5E75092FF1F3A
:105080008794FF1FA894FF1F3C93FF1F7094FF1F7E
:10509000C887FF1FFC0F01007092FF1F30B53C4C0A
:1050A0003C4883B0214601F057FE236840F2C232EB
:1050B000934252D0A3F58C621F2A48D9A3F5FC6312
:1050C0000F2B3FD9344B1B68012B01D003B030BDEF
:1050D000324B1B68012BF9D1314B32481B680193CD
:1050E0000A220023019902F0E9FE2268284B002AD7
:1050F000DB7945DB2C492D4807F0D2FB2B4807F024
:10510000FFFB0146294805F0CDF92568204B15F035
:10511000804526D1DB798BB1631925491A7A23485A
:1051200007F0BEFB214807F0EBFB01461F4805F0E6
:10513000B9F90135E379EDB2AB42EDD8194802F087
:10514000ADFEC3E712491B48FBF796FCBAE71049CE
:105150001848FBF791FC2368B0E7FFF761FF23686D
:10516000A8E7154D114C0FCD0FC495E8030044F886
:10517000040B204620F81419152105F093F9DDE7FA
:105180000E490A4822F0604207F08AFBB6E700BFEA
:105190008094FF1F14B5FF1F3C87FF1F7094FF1FF3
:1051A000D8B6FF1FC887FF1F281001009492FF1F69
:1051B00054100100EC94FF1F3C100100001001008E
:1051C000A24B1B78052B00F0A1802DE9F04FA04CDD
:1051D000A04EA14D626EE36DA048326083B02B609B
:1051E000FBF7A2FDE16A06F031FD08B100232B6058
:1051F0009A48FBF797FDA16A06F046FD10B100231F
:1052000033602B609548FBF7D1FCE16806F03CFD6C
:1052100008B100232B609148FBF7C8FCE16806F059
:1052200033FD08B100232B608C48894FFBF796FCB7
:10523000216906F00BFD00286ED0002333602B6837
:10524000854F002B53DD8548DFF80482FBF76AFDAC
:10525000216B06F0FBFC002840F0C480804B7F48A7
:105260001B687B4F012B00F0FD80FBF79FFCE16981
:105270008046606906F042FA0146404606F004FDA9
:10528000002834D0286806F0EFFA82467348FBF70E
:105290008DFCD7F814808346F969404606F02EFA53
:1052A0008146386E06F0E0FA0446F86D06F0DCFA46
:1052B000214606F023FA49460746584606F01EFAEC
:1052C0000146384606F024FB49460746404606F0AC
:1052D00015FA0146384606F0CFFB214606F010FAD3
:1052E0000146504606F00AFA06F0D8FC28603368FA
:1052F000584A002BAFBF2B682B6800211160002B90
:1053000001DA00232B6003B0BDE8F08F5149524A07
:1053100000230B60136070475048FBF71FFCB9690E
:1053200006F094FC002888D13368DFF82891002B20
:1053300085DD4A48FBF7F8FC796B06F0A5FC0028F0
:1053400040F0B3804548424FFBF708FC216906F066
:105350009BFC002800F09F804048DFF8F480FBF7BA
:10536000FDFBD4F8B8100746A06906F0C9F901465C
:10537000384606F06BFC00283FF461AF306806F059
:1053800073FA82463548FBF7E9FB8346D8F85C00A0
:10539000D8F8187006F068FA39468146584606F083
:1053A000ADF949468346002006F0A8F90146584663
:1053B00006F0AEFAD8F8B8108346384606F0A0F9E1
:1053C000394606F09BF90146584606F055FB49461A
:1053D00006F096F90146504606F090F906F05EFC9C
:1053E00030602CE7386806F03FFA83461B48FBF72D
:1053F00099FC0190D8F85C00D8F82CA006F034FA9B
:10540000019B81465146184606F078F949460190BD
:10541000002006F073F9019B0146184606F078FA61
:1054200051460190D8F8300006F068F9019B01461A
:10543000184606F021FB494606F062F90146584637
:1054400006F05CF906F02AFC386007E7A094FF1F1D
:105450003C93FF1FAC94FF1F5892FF1FEC94FF1F5B
:105460007492FF1FFBF7A2FBE1698046206A06F0F9
:1054700045F90146404606F007FC00283FF437AFE7
:10548000286806F0F1F982461E48FBF78FFBD7F833
:105490002080834600E71B48FBF760FBB96906F0F4
:1054A000F3FB00287FF458AFC9E6D9F8000006F0F6
:1054B000DBF982461348FBF737FC0190786ED7F88A
:1054C000348006F0D1F9019B83464146184606F028
:1054D00015F90146584606F01BFA41468346B86A5C
:1054E00006F00CF90146584606F0C6FA002106F00F
:1054F00007F90146504606F001F906F0CFFBC9F85E
:1055000000001FE7EC94FF1F08B5274802F0C6FC17
:105510000721264804F0C6FF112003F0E5FA062112
:10552000F8B1234804F0BEFF122003F0DDFA062193
:1055300000B3204804F0B6FF122003F0D5FA06218C
:1055400008B31D4804F0AEFF132003F0CDFA062186
:1055500010BB1A4804F0A6FF1348BDE8084002F04B
:105560009DBC174804F09EFF122003F0BDFA0621EF
:105570000028DED1134804F095FF122003F0B4FA9E
:1055800006210028DDD1104804F08CFF132003F021
:10559000ABFA06210028DCD00C4804F083FF024857
:1055A000BDE8084002F07ABCC887FF1F6010010008
:1055B000681001007810010088100100A01001009F
:1055C000701001008010010090100100981001007F
:1055D00010B5254C2368042B27DC01210B2003F098
:1055E0007DFA01210C2003F079FA0121142003F047
:1055F00075FA0121152003F071FAFF21162003F03E
:10560000EDF8FF21172003F0E9F8FF21052003F052
:10561000E5F8FF21062003F0E1F8236801330A2BA7
:105620002360C4BF0023236010BD00210B2003F0C2
:1056300055FA00210C2003F051FA0021142003F048
:105640004DFA0021152003F049FA0021162003F03D
:10565000C5F80021172003F0C1F80021052003F050
:10566000BDF80021D6E700BFE494FF1F30B59F4C82
:1056700094F8BD5083B0002D00F0148109219C489E
:1056800003F048FD222003F0EDFC9A4B1B78052B1C
:105690000BD8DFE813F057025C0261024D025202A0
:1056A00006000721944803F035FD222003F0DAFCC0
:1056B000FF2003F0D7FCFF2003F0D4FC8F4CFF2029
:1056C00003F0D0FC08218E4803F024FD21688D48AA
:1056D00002F034FCFF2003F0C5FCFF2003F0C2FC05
:1056E000FF2003F0BFFC0921874803F013FD216868
:1056F000844802F023FCFF2003F0B4FCFF2003F0F9
:10570000B1FCFF2003F0AEFC0C21804803F002FD49
:105710007F4B1C680021204606F0B6FA002800F0F6
:10572000048220467B4906F0A7F905F047FC0024D7
:1057300002460B460094734802F00AFCFF2003F077
:1057400091FCFF2003F08EFCFF2003F08BFC09216D
:10575000714803F0DFFC7148FBF77EFA05F02EFC80
:10576000009402460B46674802F0F2FBFF2003F06C
:1057700079FCFF2003F076FCFF2003F073FC0C2182
:10578000674803F0C7FC6548FBF7CEFA05F016FC46
:10579000009402460B465B4802F0DAFBFF2003F060
:1057A00061FCFF2003F05EFCFF2003F05BFC0D2199
:1057B0005C4803F0AFFC5948FBF7B4FA05F0FEFB78
:1057C000009402460B464F4802F0C2FBFF2003F054
:1057D00049FCFF2003F046FCFF2003F043FC0921B5
:1057E000514803F097FC4D48FBF706FA05F0E6FB3D
:1057F000009402460B46434802F0AAFBFF2003F048
:1058000031FCFF2003F02EFCFF2003F02BFC0C21C9
:10581000464803F07FFC4148FBF7A0F93D4906F0FC
:1058200077F805F0CBFB009402460B46354802F0B2
:105830008FFBFF2003F016FCFF2003F013FCFF207A
:1058400003F010FC0D213A4803F064FC3348FBF7E9
:10585000ADF9304906F05CF805F0B0FB0094024663
:105860000B46284802F074FBFF2003F0FBFBFF20EF
:1058700003F0F8FBFF2003F0F5FB09212D4803F0AE
:1058800049FC2D4B1F48196802F058FBFF2003F01C
:10589000E9FBFF2003F0E6FBFF2003B0BDE830404A
:1058A00003F0E0BB174802F0F9FA164802F0F6FAE6
:1058B000144802F0F3FA0D21204803F02BFCD4F831
:1058C0009C30012B3CD00B4C0E4821782B460A22F1
:1058D00002F0F4FA2378052B00F28880DFE813F059
:1058E0005A01550150014B01460141013C93FF1FF4
:1058F000A8100100A094FF1FD40401003487FF1FEB
:10590000B4100100AC87FF1FC0100100CC100100D3
:105910008092FF1F00007A44DC100100EC94FF1F0E
:10592000E8100100F8100100081101001411010035
:1059300024110100341101002487FF1F0404010019
:105940000921B64803F0E6FBB548FBF707F92169E2
:1059500006F07CF9002840F04581B148FBF726F9B4
:10596000E16806F091F9002840F03781AC48FBF778
:105970001DF90546AA48FBF7F1F80146284605F04F
:10598000BDFEE16B06F080F9002840F02181A448BB
:10599000FBF762F9A16A06F077F9002840F013815D
:1059A0009F48FBF759F9E16A06F050F9002840F0EA
:1059B00005819C4B9A481B68012B00F01881FBF76E
:1059C000CDF82169984D06F05FF978B19448FBF75E
:1059D000EDF8E96806F03AF940B1944B1B78052BD5
:1059E00000F016810821924803F094FB02219148AF
:1059F00003F090FB122003F077F8012800F0CF802D
:105A0000112003F071F8012800F0D3808A4B1B6845
:105A1000012B00F0C98002218648884C03F07AFBF4
:105A2000874B8848196802F089FA864802F036FAEE
:105A30000421854803F06EFB0B2003F055F800238A
:105A400001460A227F4802F039FA0C2003F04CF894
:105A5000002301460A227B4802F030FA142003F0AA
:105A600043F8002301460A22764802F027FA15205F
:105A700003F03AF80A2200230146724802F01EFAA7
:105A80007248062103F046FB2368DD074CBF7048CF
:105A90007048012103F03EFB236898074CBF6C4817
:105AA0006C48012103F036FB23685A074CBF684855
:105AB0006848012103F02EFB23681B074CBF644894
:105AC0006448012103F026FB0421634803F022FB14
:105AD000112003F009F8002301460A22594802F078
