:1000000000800020BD0100001D8D0000D98C000083
:10001000D98C0000D98C0000D98C0000D98C00004C
:10002000D98C0000D98C0000D98C00001D8D0000F7
:100030001D8D0000D98C0000318200003582000047
:100040001D8D00001D8D00001D8D00001D8D000008
:100050001D8D00001D8D00001D8D00001D8D0000F8
:100060001D8D00001D8D00001D8D00001D8D0000E8
:100070001D8D00001D8D00001D8D00001D8D0000D8
:100080001D8D00001D8D00001D8D00001D8D0000C8
:100090001D8D00001D8D00001D8D00001D8D0000B8
:1000A0001D8D00001D8D00001D8D00001D8D0000A8
:1000B0001D8D0000B5750000C1750000C5750000FC
:1000C000D1750000D5750000D97500001D8D0000A8
:1000D0001D8D00001D8D00001D8D00001D8D000078
:1000E0001D8D00001D8D00001D8D00001D8D000068
:1000F0001D8D00001D8D00001D8D0000559B000012
:100100001D8D00007DA200001D8D00001D8D0000D2
:100110001D8D00001D8D00001D8D00001D8D000037
:100120001D8D00001D8D00001D8D00001D8D000027
:100130001D8D00001D8D00001D8D00001D8D000017
:100140001D8D00001D8D00001D8D00001D8D000007
:100150001D8D00001D8D00001D8D00001D8D0000F7
:100160001D8D00007DA500001D8D00001D8D00006F
:100170001D8D00001D8D00001D8D00001D8D0000D7
:100180001D8D00001D8D00001D8D00001D8D0000C7
:100190001D8D00001D8D00001D8D00001D8D0000B7
:1001A0001D8D00001D8D00001D8D00001D8D0000A7
:1001B0001D8D00001D8D00001D8D0000574B4CF261
:1001C000205210B5DA814DF62812DA8100BF00BF47
:1001D00008F0A8FD524B4FF010621A63514A9A631F
:1001E000514ADA63514A136913F4807303D153619E
:1001F0004FF4A85313614E4B9A78110703D59A78A0
:1002000042F008029A704B4B4B482A221A704B4B13
:10021000DA1C121AC11E22F00302994288BF002282
:10022000474908F085FC474B4748DA1C121AC11EA3
:1002300022F00302994288BF002200210CF0C8FD81
:10024000424943484FF4DE7208F072FC414B424A87
:10025000802103F8011B9342FBD14FF0E0233C4A7D
:10026000C3F8082D3D4B8A221A70A3F5805324222F
:100270005A70A0221A709A799207FCD59A79D406FE
:10028000FCD4374B9A7902F00C02082AFAD10322E7
:100290001A7140225A719A799006FCD5304A9379A6
:1002A0005906FCD51E4B2F4959640221996420211F
:1002B0001170917901F00C010C29FAD12A4A5A6087
:1002C0004FF0E023294A5A6100229A6107221A61FD
:1002D000274AC3F8202D62B608F0D8FD134B5B699E
:1002E000DA0705D5234808F0C5FD234B234ADA6118
:1002F000234B1B785B0609D51F4C204BE2699A42C1
:1003000004D11C4808F0B6FD0023E36108F010FD9D
:100310000CF054FE08F004FCFEE700BF002005408E
:1003200000800440823F04000100002B00D0034005
:1003300000D0074000E007402087FF1F788FFF1F95
:10034000EC45010024BAFF1F788FFF1F000000005A
:100350000082FF1F00E400E05FE400E00050064080
:100360000040064000000301C0100500FF760100B8
:10037000000020208030356500E00340A5C3945A7A
:1003800000F00740FFFFFFFFFFFFFFFFFFFFFFFF42
:10039000FFFFFFFFFFFFFFFFFFFFFFFFFFFFFFFF6D
:1003A000FFFFFFFFFFFFFFFFFFFFFFFFFFFFFFFF5D
:1003B000FFFFFFFFFFFFFFFFFFFFFFFFFFFFFFFF4D
:1003C000FFFFFFFFFFFFFFFFFFFFFFFFFFFFFFFF3D
:1003D000FFFFFFFFFFFFFFFFFFFFFFFFFFFFFFFF2D
:1003E000FFFFFFFFFFFFFFFFFFFFFFFFFFFFFFFF1D
:1003F000FFFFFFFFFFFFFFFFFFFFFFFFFFFFFFFF0D
:10040000FFFFFFFFFFFFFFFFFFFFFFFFDEF9FFFF23
:100410000548064B1B1AD90F01EBA301491002D066
:10042000034B03B118477047788FFF1F788FFF1F6A
:100430000000000008B5054B1BB105490548AFF3A6
:100440000080BDE80840FFF7E3BF00BF00000000E8
:10045000788FFF1FEC45010010B580220021044673
:100460000CF0B6FC124904F1800304F5807243F8E5
:10047000041F9A42FBD18022002104F584700CF005
:10048000A7FC002200230B490B4884F8D021C4F8B4
:10049000A801C4F88C31C4F89031C4F8A411C4F890
:1004A000AC11C4F8B031A4F8B821204610BD00BF8B
:1004B0000000A040000048430000C8C208B5029CEC
:1004C000134422441B7A127A1B0203F4706304461D
:1004D00098180D460BF0A6FB02490BF0F7FB44F809
:1004E000250000BF0AD7A33A10B590F8D031023BDF
:1004F000092B82B0044694461ED8E02911D19CF8FD
:100500000E009CF80F3003EB00200BF08BFB14491E
:100510000BF0DCFB13490BF0D1FAC4F8900102B0E8
:1005200010BDFCDC602914D07029F8D101230093A0
:1005300005210023FFF7C2FFE029E0D0EFDC6029AE
:1005400007D07029EBD10123009304210023FFF78A
:10055000B5FF01210091002362462046FFF7AEFF60
:10056000DDB504BD00001643D0F8DC01704700BFC4
:1005700090F8C001704700BF90F8BC01704700BF01
:1005800090F8C401704700BF90F8C801704700BFE1
:10059000202994BF50F82100002070472DE9F04138
:1005A0000C4E8046051F00F17C0755F8044F31467C
:1005B00020460BF029FD034620462BB1D8F8B41194
:1005C0000BF040FD00B12646BD42EED13046BDE8FD
:1005D000F08100BF000020412DE9F843D0F8B4813C
:1005E0000F4F4FF00009051F00F17C0655F8044F2E
:1005F000414620460BF026FD0346394620464BB1C6
:100600000BF002FD0346494620461BB10BF01AFDD4
:1006100000B1A146B542E9D14846BDE8F88300BF24
:10062000000070422DE9F04F83B00025D0F8B4915E
:10063000184F0190C0F8DC51041F00F17C0800261F
:10064000AA4654F804BF494658460BF0FBFC024644
:100650003946584662B10BF0D7FC48B1304659468E
:100660000BF02CFA019B0AF1010AC3F8DC51064693
:10067000444505F10105E4D1019B5046C3F8D4A1DE
:100680000BF0D0FA014630460BF0D4FB03B0BDE8C6
:10069000F08F00BF00007042D0F8D401704700BF57
:1006A000D0F89001704700BFD0F89001704700BFAC
:1006B000D0F89001704700BF2DE9F0470026D0F830
:1006C000B491104FC0F88C618246051F00F17C0880
:1006D00055F8044F494620460BF0B4FC0346394612
:1006E000204653B10BF090FC03462146304623B11F
:1006F0000BF0E4F90646CAF88C014545E8D13046CE
:10070000BDE8F0870000704202299ABF643150F8BA
:1007100021000020704700BF102998BF80F8D01139
:10072000704700BF90F8B801704700BFC0F8CC1107
:10073000704700BF80F8B811704700BF80F8B9114A
:10074000704700BF10B5C0F8B41182B008460BF076
:1007500099F8074C0B46022102460091204607F00B
:100760004FFF204602B0BDE8104007F025BF00BF94
:100770000C88FF1F70B500F50055064600F13804DF
:100780001835204604F5F074FFF766FEAC42F8D148
:1007900006F50675012428460021FFF7CBFF214608
:1007A00028460134FFF7B8FF112C05F5F075F2D19A
:1007B0000749316206F50053002272620548064976
:1007C000B0620022F162304683F8202070BD00BF85
:1007D00000007A44000048430000C8C2F8B500F5A4
:1007E0000057002300F5F1567B6200F506741836B9
:1007F00003E004F5F074B4420ED02046FFF792FFF8
:100800000028F6D020467D6AFFF746FF04F5F07415
:100810000544B4427D62F0D1786AF8BD70B50E68C7
:100820000D4606F00F0301210B44C3EB031300EB4D
:10083000431438342046FFF77DFF20460121FFF79F
:100840007DFF2A4606F0F0012046BDE87040FFF724
:100850004BBE00BF70B5002300F50056054603618E
:1008600000F50674183603E004F5F074A64223D0B0
:100870002046FFF757FF0028F6D02046FFF71CFF61
:10088000014628690BF01AF928612046FFF708FF96
:10089000A96A0BF0B9FB20BB2046FFF705FFE96A08
:1008A0000BF0D0FB0028DFD02046FFF7FDFE04F55B
:1008B000F074A642E862DBD168690BF0B3F9014637
:1008C00028690BF0B7FA696A286104460BF0BAFB95
:1008D00000B16C62296A20460BF096FB00B12C62D5
:1008E00070BD2046FFF7DCFEA862D5E72DE9F04F8A
:1008F00000F1080387B007460822184600219946F0
:10090000059307F5067B0CF063FA07F5005507F130
:10091000110301931835D846CDF810B0029706E0C0
:10092000019B09F101094B4508F5F0784ED040468E
:10093000FFF7F8FE0028F3D0029BDDF810B0CDF8E9
:100940000C900126002703F5005AD946002403E045
:1009500009F5F0794D4510D04846FFF7E3FE002831
:10096000F6D04846FFF75EFE014620460BF0A6F89B
:1009700009F5F0794D450446EED1DAF81C000BF08C
:1009800051F9014620460BF055FA314604464046DF
:10099000FFF7FEFD21460BF055FB20B1731E01222F
:1009A00002FA03F31F430136092ECED1DDF80C9075
:1009B000029BA9EB0303102B0CD0019B89F800705C
:1009C00009F101094B4508F5F078B0D1DDF810B018
:1009D000029F04E03B46029FDDF810B0FB734FF42A
:1009E000407208233A60FB711A2172480AF08EFAAD
:1009F000002310223968704807F0F6FD04216F4883
:100A00000AF084FA6C4807F0D7FDFB7923B3002580
:100A1000DFF8AC81684E2C46092140460AF076FA90
:100A200000230A22214630463C4407F0DDFD052123
:100A300064480AF06BFA217A00230222304607F05C
:100A4000D3FD20200AF0E6FA304607F0B5FD013567
:100A5000FB79ECB2A342DFD839465B4806F0CEFB07
:100A60000598082200210CF0B3F9FB1D07F59758F3
:100A700007F5005501930B23029708F11808183564
:100A80001F4607E0102F4CD0019B013308F5F0788A
:100A9000013701934046FFF745FE0028F2D0029B44
:100AA000039701264FF0000903F5005A5F46002422
:100AB00003E007F5F077BD4210D03846FFF732FE6D
:100AC0000028F6D03846FFF7ADFD014620460AF073
:100AD000F5FF07F5F077BD420446EED1DAF81C00C9
:100AE0000BF0A0F8014620460BF0A4F9314604466D
:100AF0004046FFF74DFD21460BF0A4FA28B1731EC6
:100B0000012202FA03F349EA03090136092ECDD185
:100B1000039F7B1E0B2B019B49D9102F83F800905C
:100B2000B2D13C46029F23484FF4447205231A2158
:100B30003A60FB710AF0EAF90023224639681E4840
:100B400007F052FD04211D480AF0E0F91A4807F0A9
:100B500033FDFB7923B30025DFF86480164E2C4665
:100B6000092140460AF0D2F900230A2221463046E4
:100B70003C4407F039FD052112480AF0C7F9217AF3
:100B800000230222304607F02FFD20200AF042FA0F
:100B9000304607F011FD0135FB79ECB2A342DFD8F6
:100BA0000948394607B0BDE8F04F06F027BB83F887
:100BB000019069E70C2A01000C88FF1F282A010018
:100BC000302A01003C2A0100E4B2FF1F70B5124B2D
:100BD000836100F50055064600F50674183503E0FC
:100BE00004F5F074AC4214D02046FFF79BFD0028BA
:100BF000F6D02046FFF7D2FCB1690BF005FA0028C9
:100C0000EED02046FFF7CAFC04F5F074AC42B061A8
:100C1000EAD1B06970BD00BF0000A04070B50023EC
:100C200000F500550646C36100F50674183503E06B
:100C300004F5F074AC4214D02046FFF773FD002891
:100C4000F6D02046FFF7C8FCF1690BF0FBF900284D
:100C5000EED02046FFF7C0FC04F5F074AC42F06122
:100C6000EAD1F06970BD00BF00697047416170470B
:100C70002DE9F041144E8846174600F5067401250B
:100C800004E00135112D04F5F0741BD02046FFF768
:100C900049FD0028F5D02946304607F085FC30464E
:100CA00007F08AFC78200AF0B5F920464146FFF7A4
:100CB0003DFD013520463946FFF744FD112D04F571
:100CC000F074E3D1BDE8F0810C88FF1F2DE9F843F3
:100CD0002A4B036300F50058294A4263002700238A
:100CE00045460646C8F81C3000F506741835B94666
:100CF00003E004F5F074A54231D02046FFF712FD61
:100D00000028F6D02046FFF7D3FC49460BF09AF9AD
:100D100003462046002BECD0D8F81C300133C8F82D
:100D20001C30FFF7C5FC014638460AF0C7FE0746EF
:100D30002046FFF7B9FC316B0BF084F9C8B92046A7
:100D4000FFF7AEFC716B0BF05FF90028D1D02046A5
:100D5000FFF7A6FC04F5F074A5427063CDD1D8F876
:100D60001C000AF05FFF014638460BF063F8BDE84F
:100D7000F8832046FFF798FC3063E0E700C079C4B1
:100D800000C07944006B7047406B7047F8B500F5C0
:100D900000560746002500F50674183603E004F5F2
:100DA000F074B44210D02046FFF7BCFC0028F6D007
:100DB0002046FFF737FC014628460AF07FFE04F57F
:100DC000F074B4420546EED107F50057F8690AF011
:100DD00029FF014628460BF02DF8F8BD2DE9F04F0C
:100DE00093B006460E91002A40F00A811446104640
:100DF000A34900F01BFF06F500552046A04900F06E
:100E000015FF20469E4900F011FF06F5F1586C626F
:100E100006F50674D5F81CA008F118082746A14667
:100E200003E007F5F077B8450ED03846FFF77AFCB7
:100E30000028F6D038466C6AFFF72EFC07F5F077ED
:100E40000444B8456C62F0D130690AF01BFD4C4691
:100E50007369D5F824B00F9306F50059CDE9100158
:100E600009F118094FF00008274603E007F5F0776D
:100E7000B94510D03846FFF755FC0028F6D0384663
:100E8000FFF7D0FB014640460AF018FE07F5F07761
:100E9000B9458046EED1E8690AF0C4FE01464046F5
:100EA0000AF0C8FF0AF0EEFC80463046B569F769E3
:100EB0008946FFF70BFF0AF0E5FCCDE90C01294656
:100EC00038460AF0F9FD6F490AF000FF0AF0DAFC33
:100ED000CDE90A0138460AF0D5FCCDE908012846DB
:100EE0000AF0D0FCDDE91023CDE906010F9900914D
:100EF000CDE902236449654D5B4652460020CDE9A9
:100F0000048900F093FE5E49002000F08FFE4FF050
:100F1000010B002607E00BF1010BBBF1100F04F5EC
:100F2000F07400F025822046FFF7FCFB0028F2D089
:100F30002046FFF71DFB2046FFF71EFB2046FFF76C
:100F40001FFB2046FFF720FB0821514809F0DEFF78
:100F50005946284607F028FBBBF1090F03DC4D4832
:100F6000012109F0D3FF02214B48DFF828A109F045
:100F7000CDFF2046FFF7A0FB0AF084FC9DF83870F7
:100F8000009702460B46284607F03AFB01214348EA
:100F900009F0BCFF2046FFF7E7FA0C2840F34E812A
:100FA000B1464FF0010821E007213D4809F0AEFFAE
:100FB0004946284607F0F8FA02213A4809F0A6FF08
:100FC00041462046FFF7E4FA0AF05CFC009702462F
:100FD0000B46284607F014FB08F101082F480121B1
:100FE00009F094FFB8F10C0F00F05981B9F1090F25
:100FF00009F10109D8DC0121504609F087FFD3E748
:101000001F49012000F012FE1D49012000F00EFED4
:1010100006F500551A49012000F008FE06F5067491
:10102000002306F5F158D5F81CA06B6208F11808EA
:101030002746A14603E007F5F077B8450ED03846BD
:10104000FFF770FB0028F6D038466C6AFFF724FBE8
:1010500007F5F0770444B8456C62F0D130690AF0C6
:1010600011FC4C467369D5F824B00F9306F500596E
:10107000CDE9100109F118094FF00008274617E0E3
:101080002C2A010000007A44CC2C01000C88FF1FA0
:101090006C2D0100402A0100242A0100782D010056
:1010A0007C2D0100E82D010007F5F077B94510D03F
:1010B0003846FFF737FB0028F6D03846FFF7B2FA7C
:1010C000014640460AF0FAFC07F5F077B94580463C
:1010D000EED1E8690AF0A6FD014640460AF0AAFEF4
:1010E0000AF0D0FB80463046B569F7698946FFF7BC
:1010F000EDFD0AF0C7FBCDE90C01294638460AF0A0
:10110000DBFCB5490AF0E2FD0AF0BCFBCDE90A01BF
:1011100038460AF0B7FBCDE9080128460AF0B2FBD1
:10112000DDE91023CDE906010F990091CDE90223F5
:10113000AA49AB4D5B4652460120CDE9048900F037
:1011400075FDA849012000F071FD4FF0010B00264C
:1011500007E00BF1010BBBF1100F04F5F07400F088
:1011600007812046FFF7DEFA0028F2D02046FFF77D
:10117000FFF92046FFF700FA2046FFF701FA204664
:10118000FFF702FA9848082108F094FB59462846D0
:1011900007F00AFABBF1090F03DC9448012108F0BB
:1011A00089FB02219248DFF844A208F083FB204625
:1011B000FFF782FA0AF066FB9DF838700097024646
:1011C0000B46284607F01CFA8A48012108F072FBFA
:1011D0002046FFF7C9F90C2840F3CD80B1464FF007
:1011E000010821E08448072108F064FB49462846AD
:1011F00007F0DAF98148022108F05CFB41462046FD
:10120000FFF7C6F90AF03EFB009702460B46284658
:1012100007F0F6F908F101087648012108F04AFBC9
:10122000B8F10C0F00F0F080B9F1090F09F10109D4
:10123000D8DC0121504608F03DFBD3E7DFF8B89138
:101240004FF001081DE00721484609F05FFE3146D6
:10125000284607F0A9F90221684809F057FE4146DF
:101260002046FFF795F90AF00DFB009702460B4662
:10127000284607F0C5F95F48012109F047FE08F14B
:1012800001082046FFF770F940454ADB092E06F1B8
:101290000106D8DC0121504609F038FED3E720468C
:1012A000FFF762F90C2806F10B0905DD2046FFF770
:1012B0005BF9172840F33881DFF840A14FF00D08A3
:1012C00007214D4809F1010909F020FE4946284649
:1012D00007F06AF90221504609F018FE41462046FF
:1012E000FFF756F90AF0CEFA009702460B46284659
:1012F00007F086F908F101083E48012109F006FED1
:10130000B8F1180FDCD116360F213D4809F0FEFD6B
:10131000284607F051F92046FFF726F9192800F36F
:1013200032810F21364809F0F1FD284607F044F9D3
:101330000921344809F0EAFD00212046FFF7E4F9CD
:101340000AF0A0FA0B46022102460091284607F057
:1013500057F90F212A4809F0D9FD0BF1010B284656
:1013600007F02AF9BBF1100F04F5F0747FF4DBAD40
:1013700013B0BDE8F08FDFF880904FF001081DE05A
:101380000721484608F096FA3146284607F00CF93E
:101390001A48022108F08EFA41462046FFF7F8F875
:1013A0000AF070FA009702460B46284607F028F923
:1013B0001048012108F07EFA08F101082046FFF7E5
:1013C000D3F8404561DB092E06F10106D8DC504612
:1013D000012108F06FFAD3E700007A44CC2C010019
:1013E000AC87FF1F2C2A01006C2D0100402A010050
:1013F000242A0100782D01007C2D0100E82D010038
:10140000842D0100942D01002046FFF7ADF80C2833
:1014100006F10B0904DD2046FFF7A6F8172854DD76
:10142000DFF81CA24FF00D088648072109F10109D9
:1014300008F040FA4946284607F0B6F8022150461F
:1014400008F038FA41462046FFF7A2F80AF01AFAE7
:10145000009702460B46284607F0D2F808F101082B
:101460007948012108F026FAB8F1180FDCD11636B8
:101470000F21764808F01EFA284607F09DF820460E
:10148000FFF772F8192800F3AC800F216F4808F0BD
:1014900011FA284607F090F86D48092108F00AFA79
:1014A00000212046FFF730F90AF0ECF90B46022143
:1014B00002460091284607F0A3F864480F2108F07F
:1014C000F9F9284607F078F843E64E46DFF870A1B0
:1014D000DFF870914FF00D081CE0013608F0EAF9D2
:1014E0003146284607F060F80221504608F0E2F93C
:1014F00041462046FFF74CF80AF0C4F9009702462F
:101500000B46284607F07CF84F48012108F0D2F935
:1015100008F101082046FFF727F8034643454FF03E
:1015200007014846D9DAA3E74E46DFF814A1DFF8F1
:1015300014914FF00D081CE0013609F0E7FC31462C
:10154000284607F031F80221504609F0DFFC4146F9
:101550002046FFF71DF80AF095F9009702460B4662
:10156000284607F04DF83848012109F0CFFC08F172
:1015700001082046FEF7F8FF034643454FF00701F8
:101580004846D9DAC0E6DFF8BC90DFF8B4A04FF0E7
:1015900019081CE0013609F0B9FC3146284607F06D
:1015A00003F80221504609F0B1FC41462046FEF7FF
:1015B000EFFF0AF067F9009702460B46284607F04E
:1015C0001FF82148012109F0A1FC08F1010820467B
:1015D000FEF7CAFF034643454FF007014846D9DAF4
:1015E0009FE6DFF86090DFF858A04FF019081CE084
:1015F000013608F05FF93146284606F0D5FF022192
:10160000504608F057F941462046FEF7C1FF0AF060
:1016100039F9009702460B46284606F0F1FF0A48C2
:10162000012108F047F908F101082046FEF79CFF68
:10163000034643454FF007014846D9DA25E700BF86
:10164000E82D01007C2D0100782D0100842D010082
:10165000942D01002DE9F04F87B000F50675DFF8F5
:101660002492DFF824A20391049298462E46012783
:101670000595934604E001373F2F06F5F07675D0C7
:101680003046FFF74FF80028F5D000230A220399CF
:10169000484606F0A9FF0121504609F037FC58469C
:1016A0000AF0F0F80B46002102460091484606F089
:1016B000A7FF0121504609F029FC4146484606F0A3
:1016C00073FF0121504609F021FC3946484606F0D7
:1016D0006BFF0121504609F019FC00240225214628
:1016E0003046FEF755FF0AF0CDF8009502460B464E
:1016F000484606F085FF01340121504609F006FCFA
:10170000082CECD100213046FEF7FEFF0AF0BAF8B3
:10171000009502460B46484606F072FF01215046EE
:1017200009F0F4FB01213046FEF7EEFF0AF0AAF8BB
:10173000009502460B46484606F062FF01215046DE
:1017400009F0E4FB02213046FEF7DEFF0AF09AF8CA
:10175000009502460B46484606F052FF01374846C0
:1017600006F02AFF3F2F06F5F07689D1059D474FF9
:10177000DFF8149101264FF0000B04E001363F2EF4
:1017800005F5F0757AD02846FEF7CCFF0028F5D095
:1017900000230A220399384606F026FF0121484615
:1017A00008F088F804980AF06DF8CDF800B0024609
:1017B0000B46384606F024FF0121484608F07AF827
:1017C0004146384606F0F0FE0121484608F072F81E
:1017D0003146384606F0E8FE0121484608F06AF82E
:1017E00000244FF0020A21462846FEF7D1FE0AF0F7
:1017F00049F8CDF800A002460B46384606F000FF37
:1018000001340121484608F055F8082CEBD100219D
:101810002846FEF779FF0AF035F8CDF800A0024619
:101820000B46384606F0ECFE0121484608F042F827
:1018300001212846FEF768FF0AF024F8CDF800A041
:1018400002460B46384606F0DBFE0121484608F00A
:1018500031F802212846FEF757FF0AF013F8CDF8B9
:1018600000A002460B46384606F0CAFE013638464E
:1018700006F0A2FE3F2E05F5F07584D107B0BDE855
:10188000F08F00BF0C88FF1FA02D0100AC87FF1F49
:10189000014B1870704700BF2087FF1F2DE9F047EC
:1018A0008446007882B0164690B1DFF82083DFF8D6
:1018B0002093C84F0D46252819D09CF80000644697
:1018C00096B909F0A7FB607804F1010C0028F2D169
:1018D000002E40F0CC80C04802B0BDE8F04706F0D2
:1018E0006BBE2520002EECD007F068FFEBE79CF8DC
:1018F00001000CF101040028EAD0A0F12503552BCA
:10190000DED801A252F823F0E3180000C11800004D
:10191000C1180000C1180000C1180000C118000063
:10192000C1180000C1180000C1180000C118000053
:10193000C1180000C1180000C1180000C118000043
:10194000C1180000C1180000C1180000C118000033
:10195000C1180000C1180000C1180000C118000023
:10196000C1180000C1180000C1180000C118000013
:10197000C1180000C1180000C1180000531B00006E
:10198000C1180000C1180000C1180000C1180000F3
:10199000C1180000C1180000C1180000C1180000E3
:1019A000C1180000C1180000C1180000C1180000D3
:1019B000C1180000C1180000C1180000C1180000C3
:1019C000C11800003B1B0000C1180000C118000036
:1019D000C11800001F1B0000C1180000C118000042
:1019E000C1180000C1180000C1180000C118000093
:1019F000C1180000C1180000C11800000B1B000036
:101A0000611A0000611A0000C1180000D91A000014
:101A1000C1180000C1180000611A0000C1180000C0
:101A2000C1180000611A0000C1180000C1180000B0
:101A3000C1180000C1180000C1180000C118000042
:101A4000A11A0000871A0000C1180000C118000088
:101A5000C1180000C31A0000C1180000F11A0000EC
:101A60005EB955F8041B5C4806F09EFD2BE75B4809
:101A700002B0BDE8F04706F09FBD55F8041B57487B
:101A800006F092FD1FE755F8041B002E40F0C280BF
:101A900001290EBF52480121384609F037FA12E7F2
:101AA00055F804AB002E40F0A980BAF1000F3FF4C6
:101AB0000AAF50460BF0C4FA0146504609F026FA28
:101AC00001E7002E40F0928055F8041B424833464F
:101AD000102206F089FDF6E6073525F007050321FB
:101AE00066B9F5E802233C48009106F089FDEAE674
:101AF000073525F00705002E61D00021F5E8022307
:101B00003648009106F07CFDDDE6002E4FD155F8F9
:101B1000041B31483346022206F066FDD3E6002E50
:101B200039D102212F4809F0F1F955F8041B2A4850
:101B30003346102206F058FDC5E655F8043B0EBBAF
:101B4000012B07BF042148460521404609F0DEF974
:101B5000B9E65EB90221244809F0D8F955F8041B0A
:101B60001D483346022206F03FFDACE61E48022126
:101B700007F0A0FE55F8041B18480023022206F0C7
:101B800033FDA0E6012B07BF04214846052140464E
:101B900007F090FE97E61348022107F08BFE55F8F8
:101BA000041B0E480023102206F01EFD8BE655F89C
:101BB000041B0A480023022206F016FD83E6F5E81E
:101BC00002230548009606F01BFD7CE6BC2D0100B3
:101BD000B42D0100B02D01000C88FF1FAC87FF1F42
:101BE000AC2D0100A42D0100A82D010055F8041B07
:101BF0000C480023102206F0F7FC64E6BAF1000F4F
:101C00003FF461AE50460BF01BFA0146504607F018
:101C100051FE58E601290EBF03480121384607F05E
:101C200049FE50E6AC87FF1FAC2D01000EB400B595
:101C300082B003A9024651F8040B0191FFF72EFE72
:101C400002B05DF804EB03B0704700BF30B4074D3D
:101C5000074C084900232B702360036530BC4365A3
:101C6000836580F85C300B60704700BF948FFF1F66
:101C7000908FFF1F988FFF1FDDF800C0521AACEB4A
:101C8000030C1CD0401ABCF1000F0CFB00F002EB5F
:101C9000D27109DB00EB610000FB02F1002990FB2F
:101CA000F2F0184410DB7047A0EB610000FB02F17A
:101CB000002990FBF2F01844F5DB013070470CEB83
:101CC000DC7C03EB6C007047013870472DE9F8436A
:101CD0004A494B4F4B4CDFF830810020FFF7A6FFFD
:101CE0004A4B4B48DF6200271F634A4FDC605F634B
:101CF000494C4A4F1C6140F20129494C9F63A3F8AB
:101D00000890484F5C614FF00C09474C5F60C3F886
:101D10005090464F5C6240F61C49454C1F6240F2B1
:101D200012254FF07C57C3F868904FF00A091D80C8
:101D30009C614FF496753F4C5F64C3F86C903E4FC6
:101D4000D86141F204090022012141F288369C62E7
:101D5000D86364243220DD655D669F640225374FB9
:101D6000C3F870904FF05A0983F8402059659A677C
:101D700018669C65DF64A3F8CE60C3F87490DD67D5
:101D8000C3F88020C3F8A020FF22C3F8A8200522B2
:101D9000C3F8B440C3F8980040F20114C3F8A4009B
:101DA000A3F8B8208C204FF49642254FDFF894E03A
:101DB000DFF894C0C3F8AC10A3F8C04083F8C21099
:101DC0004FF4FA74C3F8C82044F620614FF47A72D5
:101DD00083F8CC00C3F88480C3F88870C3F88CE023
:101DE000C3F89460C3F8B050C3F8BCC0A3F8C440B3
:101DF000C3F89010C3F89C20BDE8F883C42D0100FF
:101E0000000020C166668640D606D60604B2FF1FD3
:101E1000CDCC4C3E00002042000040400000A040DD
:101E20003333834048E80100CDCCCC3D333373409D
:101E3000CDCC4C40000082429A9979400AD7233D8C
:101E40000000684200C020449A99993E70B5454D03
:101E5000454C4648E66800232B70FEF7DFFE01463E
:101E600030460AF0D1F808B104232B703F48FEF742
:101E7000ADFE21690AF0C8F818B12B7843F01003C1
:101E80002B703A48FEF77EFFA16A0AF0DBF818B122
:101E90002B7843F040032B70002334486B70FEF71F
:101EA00073FFE16A0AF0B0F808B101236B700023F8
:101EB000EB702E48FEF7B2FE06462C48FEF786FE73
:101EC0000146304609F0F8FDE16B0AF0BBF808B1B5
:101ED0000123EB70264D254800232B70FEF79EFE54
:101EE000616A0646E06809F0E7FD014630460AF0FF
:101EF000A9F808B104232B701C48FEF767FE616A3D
:101F00000646206909F0DAFD014630460AF07CF801
:101F100018B12B7843F010032B701448FEF732FFF2
:101F2000A16B0646A06A09F0C7FD014630460AF0DB
:101F300089F818B12B7843F040032B7000236B70A5
:101F40000A48FEF721FFA16B0346E06A1C4609F030
:101F5000B5FD014620460AF057F808B101236B7021
:101F600070BD00BFD48FFF1F04B2FF1FE08FFF1FA3
:101F7000DCB2FF1F2DE9F0417F4C2368012B82B0BA
:101F800049D0022B00F0C380032B03D02BB302B047
:101F9000BDE8F081794B7A4E4FF47A721A60D6F828
:101FA000A40009F03FFE0546D6F8A80009F03AFE65
:101FB000294609F081FD734909F088FE714909F04D
:101FC00039FF294609F07AFD0AF046F80146062055
:101FD00006F0AEFF2368002BD9D1694B6A48D3F8CD
:101FE000A410D3F8A82003686848521A002A02FBFC
:101FF00003F3C0F2B280323380FB0320DA17C2EB66
:102000006012002B1144C0F2B480062002B0BDE87B
:10201000F04106F08DBF594F38680A30B0F57A7F2D
:1020200000F39680386009F0FDFD594909F04EFE35
:102030008046534ED6F8A40009F0F4FD0546D6F8C4
:10204000A80009F0EFFD294609F036FD414609F0E8
:102050003DFE4C4909F0EEFE294609F02FFD09F03E
:10206000FBFF0146062006F063FF0221494808F005
:102070004DFF494806F0A0FA0621484808F046FFFF
:10208000386809F0CFFD424909F020FE09F0FAFB5B
:102090004FF0020802460B463F48CDF8008006F09C
:1020A000AFFA0D213E4808F031FFD6F8A40009F040
:1020B000B9FD0546386809F0B5FD354909F006FE59
:1020C0000346D6F8A8001E4609F0ACFD294609F0E3
:1020D000F3FC0146304609F0F9FD2A4909F0AAFE51
:1020E000294609F0EBFC09F0CDFBCDF800800B464A
:1020F0000246294806F084FA4146264808F006FFC1
:10210000254806F059FA2368022B7FF43DAF1B4B9C
:102110001B4E00221A60D6F8A40009F083FD054684
:10212000D6F8A80009F07EFD294609F0C5FC00217B
:1021300009F0CCFD134909F07DFE294609F0BEFCEB
:1021400009F08AFF0146062006F0F2FE23681BE72D
:1021500000234FF000083B606BE7323B80FB03201D
:10216000DA17C2EB6012002B1144FFF64EAF0131BB
:102170004BE7013949E700BF14B1FF1FC88FFF1FAC
:1021800004B2FF1F0000C8422487FF1F1F85EB51C8
:10219000CDCCCC3D242A01000C88FF1FE42D01008A
:1021A000EC2D010070B5B248B24C06F005FAB0480B
:1021B00006F002FAAE4806F0FFF9AF480D2108F02C
:1021C000A5FED4F8A030012B11D0AC4CA848217842
:1021D00000230A2206F008FA2378052B4ED8DFE800
:1021E00013F0020107010C0111011601F800092189
:1021F000A34808F08BFEA348FEF7E8FC216909F02C
:1022000003FF002840F02A819E48FEF707FDE168A1
:1022100009F018FF002840F067819A48FEF7FEFC9D
:1022200005469848FEF7D2FC0146284609F044FCD2
:10223000E16B09F007FF002840F015819148FEF797
:1022400045FDA16A09F0FEFE002840F057818D4847
:10225000FEF73CFDE16A09F0D7FE002840F0498115
:10226000894B88481B68012B00F0E880FEF7AEFC24
:10227000216909F0E7FE002840F0CE800221834862
:1022800008F044FE122006F0F5FF012800F09C80C3
:10229000112006F0EFFF012800F091807C4B1B68B5
:1022A000012B00F08780022178487A4C08F02EFE3E
:1022B000794B6F48196806F077F96D4806F07CF99C
:1022C0000421764808F022FE0B2006F0D3FF0023FD
:1022D00001460A22664806F087F90C2006F0CAFF7C
:1022E000002301460A22624806F07EF9142006F017
:1022F000C1FF002301460A225D4806F075F915204A
:1023000006F0B8FF0A2201460023594806F06CF98E
:102310000621634808F0FAFD2368D8074BBF012166
:1023200001216048604808F0F1FD236899074BBF20
:10233000012101215B485C4808F0E8FD23685A0749
:102340004BBF012101215748574808F0DFFD2368A2
:102350001B074BBF012101215248534808F0D6FD0D
:102360000421524808F0D2FD112006F083FF00231B
:1023700001460A223E4806F037F9102006F07AFF9F
:10238000002301460A223A4806F02EF9122006F0F0
:1023900071FF002301460A22354806F025F9132073
:1023A00006F068FFBDE870400146002330480A226D
:1023B00006F01AB911213E4808F0A8FD73E70A217A
:1023C0003C4808F0A3FD69E70E213B4808F09EFD5C
:1023D0005EE70721394808F099FD394B2448196810
:1023E00006F0E2F84AE70621364808F08FFD45E797
:1023F0000721354808F08AFD40E70721334808F0F7
:1024000085FD3BE70821324808F080FD36E70B21C7
:10241000304808F07BFD31E71A48FEF7FFFBE16822
:1024200009F0F2FD00283FF429AF144B1B78052B6F
:1024300069D10A21284808F069FD1FE7FEF7C6FBAD
:10244000216A09F0FFFD00285DD01621234808F01D
:102450005DFD0A21204808F059FD0FE70F212048B3
:1024600008F054FDD0E611211E4808F04FFDE5E6C6
:102470000C88FF1F04B2FF1FFC2D010008B0FF1FD6
:102480000C2E0100E08FFF1FD4B2FF1F242A010091
:10249000DC8FFF1FE8B0FF1F74B0FF1F042F010087
:1024A0000C2F0100142F0100182F01001C2F010018
:1024B000F02E0100E42E0100D42E0100CC2E0100EC
:1024C000B08FFF1F9C2E0100A42E0100B82E01002A
:1024D000C02E0100AC2E0100842E01006C2E0100E4
:1024E000182E0100382E01000E21094808F00EFDBB
:1024F00093E60D21074808F009FDB1E60C210648D6
:1025000008F004FDA3E60821044808F0FFFCB5E646
:10251000282E01005C2E01004C2E0100902E01009F
:102520002DE9F047B44CE66F012E8CB000F04381EA
:10253000032E5BD0DFF8C482B14FB24EA36FB24816
:10254000012B09BF3168316801F10041316005F0AC
:10255000C9FC3B68002B40F01481AB4805F096FCA9
:102560003B68C8F800000546002B40F0FA80E36F96
:10257000012B00F0BA80A549284609F063FD30B967
:10258000A349284609F040FD002800F0E081DFF86B
:1025900084A2DFF88492DAF800300A930A98D9F816
:1025A00000309E4FC01A09F039FB294609F08EFB16
:1025B0009B4909F03FFC9A4909F03CFC396809F055
:1025C0007DFADAF800300993099B3860C9F80030C9
:1025D000D4F8AC0009F026FB294609F077FB00236C
:1025E000C8F8000033600CB0BDE8F0878D4D8E4F09
:1025F0002A68DFF80882D2F8840001230F213B60AB
:1026000005F02EFB3B687E4F012B3B6800F02C81D0
:10261000002B40F0AF812B68DFF81092D3F88400D4
:10262000436B1E69B6B2C9F8006005F061F8B4F8F2
:10263000862040F6E44306FB03F3B3FBF0F0801A78
:1026400000B209F0EFFA7A490646D4F8880009F09A
:102650003DFB0146304609F0EDFBD9F80030694EEC
:10266000632B306000F37A81002333603B68002BDA
:102670003FF464AF02216F4808F048FC2B68D9F89A
:102680000050D3F8840040F6E44303FB05F505F061
:102690002FF8B5FBF0F009F0C1FA0546B4F8860052
:1026A00009F0C0FA0146284609F006FA09F0EAF8EE
:1026B000022502460B4600955F4805F0A1FF29461A
:1026C0005C4808F023FC306809F0DCF8009502460D
:1026D0000B46594805F094FF2946584808F016FC67
:1026E0002946544808F012FC28E74F4B1B68012B81
:1026F00000F07581022B7FF46BAFD4F890703846F0
:1027000009F090FA294609F07FFC40B9784209F0B7
:1027100089FA294609F096FC002800F0CD81DFF8FF
:10272000F4A0DFF8F490DAF8003007930798D9F8AE
:1027300000303A4FC01A09F071FA294609F0C6FA7A
:10274000374909F077FB364909F074FB396809F01D
:10275000B5F9DAF800300693069B3860C9F8003006
:1027600036E709F08FF80B46022102460091324805
:1027700005F046FF3248042108F0C8FBD8F80050A5
:10278000F5E6214805F082FB09F07CF80B460221B2
:1027900002460091284805F033FF0321294808F03C
:1027A000B5FBD4F89010244805F0FEFE032125481F
:1027B00008F0ACFBD1E6DFF84480D4F89070D8F88C
:1027C0000050384609F02EFA294609F03BFC002853
:1027D0003AD0784209F026FA0146284609F032FC40
:1027E00090B3104D104F2B683E60D3F884000F213A
:1027F00005F036FA06E700BF04B2FF1FF8B0FF1F6E
:10280000FCB0FF1FC08FFF1F48B1FF1F0000FA433D
:102810000000FAC3D8B4FF1F3CB1FF1FD88FFF1FC1
:1028200000007A44D08FFF1F6887FF1FD8B2FF1FB8
:102830009175DD36242A01000C88FF1F602F0100EE
:10284000682F0100642F01009F4FA04D02233B60C1
:102850002B680E21D3F8840005F002FA3B689C4FE8
:10286000012B3B687FF4D4AE002B40F0E5802B6851
:10287000DFF86092D3F88400436B1E69B6B2C9F8E2
:10288000006004F035FFB4F8843040F6E44A0AFBF7
:1028900006F6B6FBF0F6F01A00B209F0C3F98E495D
:1028A0000646D4F88C0009F011FA0146304609F0CA
:1028B000C1FA2B68894E0246D3F88400D9F800305B
:1028C00032600AFB03FA04F013FFB4F88420BAFB69
:1028D000F0F31BB29B1A002BB4F8B820B8BF5B42D0
:1028E0009A42C4BF002333603B68002B3FF426AEFE
:1028F00002217B4808F00AFB2B68D9F80050D3F876
:10290000840040F6E44303FB05F504F0F1FEB4F85F
:102910008410B5FBF0F52DB2691A724805F044FE3B
:1029200002216F4808F0F2FA306808F0ABFF022588
:1029300002460B4600956B4805F062FE03216A488B
:1029400008F0E4FA2946664808F0E0FAF6E5674B35
:102950001B680B93664B0B9A1A6039E62B68D3F809
:10296000840004F0C5FED9F8003064389842FFF4C2
:102970007BAE7BE65B48DFF85C9105F01DFE0C2129
:102980005C4808F0C3FA5C480C2108F0BFFA2B68D9
:102990003A68D3F88400436B1E69B6B2C9F8006088
:1029A000002A3FF442AE04F0A3FE40F6E4420023C6
:1029B00006FB02F2B2FBF0F10A224A4805F014FECF
:1029C0000221474808F0A2FAB4F88610454805F0FD
:1029D000EBFD2B68D9F80060D3F8840025E6474961
:1029E000284609F02FFB28B94549284609F00CFB79
:1029F00000285AD0DFF8F4A0DFF8F490DAF80030BD
:102A000004930498D9F800303E4FC01A09F006F933
:102A1000294609F05BF93C4909F00CFA3A4909F0FA
:102A200009FA396809F04AF8DAF800300393039B91
:102A30003860C9F80030CBE52A48DFF8989005F0F7
:102A4000BBFDE36F012B0CBF304831480B2108F070
:102A50005DFA29480C2108F059FA2A683B68D2F837
:102A60008400426B1669B6B2C9F80060002B3FF4CF
:102A700008AF04F03DFE40F6E44306FB03F30A22F0
:102A8000B3FBF0F10023174805F0AEFD012121480A
:102A900008F03CFAB4F88410124805F085FD2B6864
:102AA000D9F80060D3F88400EBE6104B1B6805935F
:102AB0000F4B059A1A608BE50C4B1B6808930C4B67
:102AC000089A1A6084E500BF6887FF1FD08FFF1F38
:102AD000FCB0FF1FD8B2FF1F9175DD36C08FFF1FFE
:102AE000242A01000C88FF1F4C2F0100D8B4FF1FBF
:102AF0003CB1FF1F502F01003C2F01000000FA43A2
:102B00000000FAC3D88FFF1F00007A44242F010071
:102B1000302F0100402A01002DE9F0478C4D2B6831
:102B200084B0002B7BD08B4C8B4E8C4FDFF83082E7
:102B3000D4F88030012B00F08C80D7F80090A56D80
:102B4000D4F854A00AFB05F54FF47A7005FB00F0A9
:102B500009F068F883490546484609F0B7F8294660
:102B600009F068F9804909F0B1F809F075FA6328AD
:102B7000306049DD7B49284609F05CF96423336005
:102B8000D8F800303860002B46D0E36F012B00F0FE
:102B90008280032B00F08C80022B00F091800221B8
:102BA000724808F0B3F9724B186808F06BFE022403
:102BB00002460B4600946F4805F022FD21466E4800
:102BC00008F0A4F92146694808F0A0F9316869487D
:102BD00005F0EAFC0621694808F098F9386861496F
:102BE00009F074F808F04EFE009402460B46614866
:102BF00005F006FD0321624808F088F95D4804B03D
:102C0000BDE8F04705F0D8BC0028BCBF0023336006
:102C1000D8F80030002BB8D104B0BDE8F087594E89
:102C20004C4C32680292029A42F228339A4200F2E5
:102C3000888033680393039A42F210739A4244D80F
:102C4000D4F88030444E454FDFF81481012B7FF4D7
:102C500074AF4D48FEF79AF84C4909F037F809F07F
:102C600021FA656FE36E226FA16E009580B2FFF7C7
:102C700003F8A56DD4F854A005FB00F00AFB00F0A2
:102C800000EB8000400008F0CDFF364909F0D2F893
:102C90008146386056E73E4B1B68012B0CBF3D4810
:102CA0003D480A2108F032F9E36F032B7FF474AF3B
:102CB0003A48102108F02AF9E36F022B7FF46FAF36
:102CC0000721374808F022F969E72F48DFF890809C
:102CD000FEF75CF82D49266FE76E08F0F7FF09F064
:102CE000E1F93246666FA16E00963B4680B2FEF770
:102CF000C3FF194EA36D306003FB00F0636D174FE7
:102D000003FB00F000EB8000400008F08BFF15494A
:102D100009F090F8D8F80030386001222A60002BC2
:102D20003FF406AF0221114808F0F0F8114805F011
:102D300043FC59211B4808F0E9F80E4805F03CFC1B
:102D4000F6E6626C94F840100F48FDF791FF70E7CB
:102D5000C48FFF1F04B2FF1F2487FF1FD88FFF1FE0
:102D60004487FF1FE4388E3E0000C842242A010039
:102D7000F8B0FF1F0C88FF1F602F0100003001001A
:102D800008300100D8B4FF1FE08FFF1F00007A4415
:102D90006887FF1FCC2F0100D82F0100E42F01000E
:102DA000F82F0100702F010030B5112083B006F01C
:102DB00061FA012804D0122006F05CFA012822D121
:102DC0000121152006F030FA2A4B2B4A2B4C1B68A8
:102DD0002B4D116801930222D4F894302A60019A95
:102DE0000B44934208D8D4F89C0008F01BFF254BF5
:102DF000196809F009F9D0B101210C2003B0BDE830
:102E0000304006F011BA00210B2006F00DFA002127
:102E10000C2006F009FA0021152006F005FA1A49DF
:102E2000174B0120002208701A6003B030BD012149
:102E30000B2006F0F9F994F8C03003242C604BB154
:102E4000114B02221A7000210C2003B0BDE8304063
:102E500006F0EAB9122006F00DFA012808BF0A4B65
:102E60004FF0110008BF1C7006F004FA0128EAD1E7
:102E7000E6E700BFD8B4FF1FB88FFF1F04B2FF1FE3
:102E8000E4B0FF1FF8B0FF1F08B0FF1FF0B5754E8C
:102E9000754C33682568AB4287B02CD013F0010124
:102EA0004AD013F002015ED013F0040150D0DA07CB
:102EB0000FD52268D7070CD46C4D2A68002A00F081
:102EC000AE806B4B1B680193019B934200F29A808A
:102ED00033689D0712D4590720D5226852070BD4B6
:102EE000644F3A68002A5ED0614B1B680593059BCE
:102EF000934276D83568A5B107B0F0BD2268900737
:102F00003DD45D4D2A68002A3CD0594B1B68039381
:102F1000039B9A4258D333685907DED41D46002DCF
:102F2000EAD12946162006F003F82946172007B0F3
:102F3000BDE8F04005F0FCBF162005F0F9FF22685F
:102F4000336802F0FE0213F002012260ACD10AE005
:102F5000052005F0EDFF2268336802F0FB022260D5
:102F6000DA07B6D5A5E7172005F0E2FF2268336837
:102F700002F0FD0213F00401226098D1E8E75B073C
:102F8000ACD4B9E73D4B1B68002B55D1FF2117206E
:102F900005F0CEFF364B3A491A680292029A096848
:102FA0000A442A60B2E7354B1B68002B4FD1FF2142
:102FB000052005F0BDFF2E4B31491A680492049A92
:102FC00009680A443A6090E72E4B1720D3F898100E
:102FD00005F0AEFF2368002243F0020323602A605D
:102FE00099E7284B0520D3F8981005F0A1FF236836
:102FF0003568002243F0040323603A60002D7FF41B
:103000007BAF8EE71F4B1620D3F8981005F090FF8A
:103010002368002243F0010323602A6058E7FF2160
:10302000162005F085FF124B15491A680092009A88
:1030300009680A442A6045E7134805F0BDFA0C21E7
:10304000124807F063FF104805F0B6FA9EE70E48F5
:1030500005F0B2FA0C210E4807F058FF0A4805F0B7
:10306000ABFAA4E7E4B0FF1FE8B0FF1FECB0FF1F0E
:10307000D8B4FF1FF4B0FF1FF0B0FF1F4487FF1F3D
:103080006087FF1F04B2FF1F0C88FF1F0C30010078
:103090001C3001002DE9F84F534EDFF850A1336882
:1030A000DFF84C91D3F88400524D0F2104F0D8FD85
:1030B0000123CAF80030504800232221C9F800300B
:1030C00007F024FFD9F80030132B21DC4B4F40F6DA
:1030D000E4483368B5F884B0D3F88400436B1C69C6
:1030E00004F006FBA4B2012108FB04F4B4FBF0F4E5
:1030F0003846A344A5F884B007F008FF642006F022
:1031000023F9D9F800300133132BC9F80030E0DD82
:10311000B5F884303A493B48A1FB03215B1A01EB27
:103120005301C1F30F11A5F8841005F03DFA1D21DC
:10313000354807F0EBFE0221344807F0E7FE31483E
:1031400005F03AFA00220E213068C9F8002004F098
:1031500079FA02232848CAF80030222107F0D6FE67
:10316000D9F80030132B22DCDFF8908040F6E447DA
:103170003368B5F886A0D3F88400436B1C6904F06B
:10318000B7FAA4B2012107FB04F4B4FBF0F4404603
:10319000A244A5F886A007F0B9FE642006F0D4F892
:1031A000D9F800300133132BC9F80030E0DDB5F851
:1031B000863013491348A1FB03215B1A01EB53012D
:1031C000C1F30F11A5F8861005F0EEF91D21104886
:1031D00007F09CFE0D48022107F098FEBDE8F84F6D
:1031E000084805F0E9B900BFD08FFF1F6887FF1FAF
:1031F000E0B2FF1F04B2FF1F2C300100503001006D
:10320000876118860C88FF1F54300100242A0100B2
:10321000743001005D4B70B51B685D4C5D4E40F233
:1032200051310822306D2160E271002B40F0AA80FC
:1032300008F0F8FC7169054608F048FD564908F0A9
:1032400045FD08F02FFFC2B22272544AB169C0F3A3
:103250000723637213886381514B28461B88A3811F
:1032600008F034FD4C4908F031FD08F01BFF4849D7
:1032700003464C48E38103F0C1FF4B4A49481368B9
:1032800012882281494A03EB830308255B001288D8
:10329000628140F2553143FA05F2216000263C4933
:1032A00062732373E571E68103F0A8FF40F25633A1
:1032B0003F482360E571FDF7D7FC3E4908F006FD65
:1032C00008F0F0FE03463A482372FDF7CDFC394979
:1032D00008F0FCFC08F0E6FE374A3649C0F3072345
:1032E0001068637208F0A6FD08F0B6FE0346304889
:1032F0006381FDF7EBFC284908F0E8FC08F0ACFE20
:1033000003462B482373FDF7E1FC234908F0DEFC5C
:1033100008F0A2FE40F307201D4960732148E681B2
:1033200003F06CFF022006F00FF8244A244B1268C9
:103330001B681749A26040F25A3020601948E360C8
:10334000E57103F05BFF1F4B1149E571D3E90023E1
:1033500040F25E3020601348A260E36003F04EFF4D
:10336000022005F0F1FF184BE571D3E900234FF47B
:103370005C712160A260E36005490A48BDE87040C5
:1033800003F03CBF08F04EFC316A54E7D4B2FF1F93
:103390006CB1FF1F04B2FF1F0000204178B0FF1F77
:1033A00000B1FF1FE4B2FF1F2487FF1F2887FF1F04
:1033B000E08FFF1F0000C842F8B0FF1FD48FFF1F2F
:1033C000DCB2FF1F3487FF1F2C87FF1F38B5174C57
:1033D000174B2268181D13F8011F984241EA022278
:1033E000F9D1144B144DDB6F226002F10040022B27
:1033F000286004D0114B1B68012B0AD038BD08F09F
:1034000011FC0F4C2060FFF78BF80C4B1B68012B55
:10341000F4D10C4805F0D0F829680A4805F0C4F842
:10342000BDE838400848032107F070BD2CB1FF1FEC
:1034300023B1FF1F04B2FF1F9C8FFF1F70B0FF1F3F
:10344000C08FFF1F0C88FF1F94300100F0B53D4C6A
:103450003D4883B0214603F015FE236840F2C23296
:10346000934258D0A3F58C621F2A4ED9A3F5FC6372
:103470000F2B45D9354B1B68012B01D003B0F0BD94
:10348000334B1B68012BF9D1324B33481B68019336
:10349000019900230A2205F0A7F82268E3792F4852
:1034A000002AB6BF2E492F4922F0604209F0AEFB38
:1034B0002A4809F0C5FD0146284807F027FD256880
:1034C00015F080452BD1E379A3B1274F234E2B462E
:1034D000234439461A7A304609F098FB304609F001
:1034E000AFFD0146304607F011FD0135E279EBB240
:1034F0009A42EDD8184803B0BDE8F04005F05CB83A
:1035000010491A48FDF78AF9B4E70E491748FDF744
:1035100085F92368AAE7FFF759FF2368A2E7144D4E
:103520000E4C0FCD0FC495E8030044F8040B204661
:1035300020F8141909F084FD0146A4F1140007F0E5
:10354000E5FCD7E71CB1FF1FE4B2FF1F4487FF1F54
:1035500070B0FF1FD8B4FF1F0C88FF1F7CB1FF1F86
:1035600098300100C0300100EC300100E08FFF1FF7
:10357000D43001002DE9F84F744B1B78052B06D190
:103580007349744A00230B601360BDE8F88F724CD6
:103590006F4E704D626EE36D704832602B60FDF7C8
:1035A000F3FBE16A08F030FD08B100232B606B48A3
:1035B000FDF7E8FBA16A08F045FD10B10023336078
:1035C0002B606648FDF72AFBE16808F03BFD08B177
:1035D00000232B606148FDF721FBE16808F032FD14
:1035E00008B100232B605D48FDF7F0FA216908F06F
:1035F0000BFD002800F0B680002333602B68002B01
:103600000CDC3368002BB7BF2B682B6800223260BC
:10361000002BBCBF00232B60BDE8F88F4F48FDF79F
:10362000B1FB216B08F0F0FC00285FD14C4B4B48FC
:103630001B68012B42D0FDF7F1FAE169074660698A
:1036400008F03AFA0146384608F0FCFC0028D8D0C9
:10365000286808F0E7FA81464048FDF7DFFAD4F819
:1036600014A08346E169504608F026FA8046206E91
:1036700008F0D8FA0746E06D08F0D4FA394608F0A9
:103680001BFA41460446584608F016FA0146204601
:1036900008F01CFB41460446504608F00DFA01466E
:1036A000204608F0C7FB394608F008FA01464846AC
:1036B00008F002FA08F0D0FC2860A2E7FDF7AEFAA5
:1036C000E1690746206A08F0F7F90146384608F034
:1036D000B9FC002895D0286808F0A4FA81461F4854
:1036E000FDF79CFAD4F820A08346BBE7286808F0D1
:1036F00099FA80461948FDF745FB8146E06DD4F8FC
:103700002CA008F08FFA51460746484608F0D4F935
:1037100039468146002008F0CFF90146484608F0B6
:10372000D5FA51468146206B08F0C6F90146484655
:1037300008F080FB394608F0C1F90146404608F020
:10374000BBF908F089FC286070E700BF08B0FF1FD4
:1037500000B1FF1F78B0FF1F04B2FF1FE08FFF1FF3
:10376000D4B2FF1F4848FDF731FAA16908F04CFCBC
:1037700000287FF441AF3368002B7FF73FAF42480A
:10378000FDF702FB616B08F05DFC002852D13E485A
:10379000FDF71CFA216908F055FC40B93A48FDF7DD
:1037A00015FAA16908F04EFC00283FF427AF36480F
:1037B000FDF70CFAD4F8BC100746A06908F07EF9B2
:1037C0000146384608F020FC00283FF417AF306867
:1037D00008F028FA80462C48FDF7F8F98146606E1B
:1037E000D4F818A008F01EFA51460746484608F0DB
:1037F00063F939468146002008F05EF901464846E3
:1038000008F064FAD4F8BC108146504608F056F926
:10381000514608F051F90146484608F00BFB39467D
:1038200008F04CF90146404608F046F908F014FC4F
:103830003060E3E6306808F0F5F907461248FDF716
:10384000A3FA8146606ED4F834A008F0EBF9514633
:103850008046484608F030F90146404608F036FAFE
:1038600051468046A06A08F027F90146404608F014
:10387000E1FA002108F022F90146384608F01CF967
:1038800008F0EAFB306082E7E08FFF1F08B52848A8
:1038900004F092FE2748072107F038FB112005F0BD
:1038A000E9FC00B32448062107F030FB122005F0A4
:1038B000E1FC08B32148062107F028FB122005F09F
:1038C000D9FC10B31E48062107F020FB132005F099
:1038D000D1FC18B31B48062107F018FBBDE80840CF
:1038E000134804F069BE1848062107F00FFB1220A8
:1038F00005F0C0FC0028DDD11448062107F006FBC6
:10390000122005F0B7FC0028DCD11148062107F091
:10391000FDFA132005F0AEFC0028DBD10D4806218E
:1039200007F0F4FABDE80840014804F045BE00BFC6
:103930000C88FF1FF8300100003101001031010038
:10394000203101003031010008310100183101003F
:10395000283101003831010010B5294C2368042BAF
:1039600026DC01210B2005F05FFC01210C2005F075
:103970005BFC0121142005F057FC0121152005F006
:1039800053FCFF21162005F0D3FAFF21172005F084
:10399000CFFAFF21052005F0CBFAFF21062005F024
:1039A000C7FA236801330A2BC8BF0023236010BD68
:1039B00000210B2005F038FC00210C2005F034FC20
:1039C0000021142005F030FC0021152005F02CFC0E
:1039D0000021162005F0ACFA0021172005F0A8FA06
:1039E0000021052005F0A4FA0021062005F0A0FA28
:1039F000236801330A2BC8BF0023236010BD00BF1A
:103A000000B2FF1F70B5BA4882B0092105F052FF1D
:103A1000222005F0D3FEB74BD3F8A030012BB64BD4
:103A20001B7809D0052B10D8DFE813F048014D01B1
:103A30005201570143010B00002B00F05381052B6D
:103A400003D1AE48072105F035FF222005F0B6FE70
:103A5000FF2005F0B3FEFF2005F0B0FEA84CFF20CC
:103A600005F0ACFEA748082105F024FF2168A64810
:103A700004F09AFDFF2005F0A1FEFF2005F09EFE58
:103A8000FF2005F09BFEA148092105F013FF2168E6
:103A90009D4804F089FDFF2005F090FEFF2005F011
:103AA0008DFEFF2005F08AFE99480C2105F002FFEB
:103AB000984B9949186808F0BDF907F0E3FE002417
:103AC00002460B460094904804F09AFDFF2005F052
:103AD00075FEFF2005F072FEFF2005F06FFE092144
:103AE0008E4805F0E7FE8E48FDF7F0F807F0CAFEB5
:103AF000009402460B46844804F082FDFF2005F046
:103B00005DFEFF2005F05AFEFF2005F057FE0C2158
:103B1000844805F0CFFE8248FDF736F907F0B2FE83
:103B2000009402460B46784804F06AFDFF2005F039
:103B300045FEFF2005F042FEFF2005F03FFE0D216F
:103B4000794805F0B7FE7648FDF71CF907F09AFEB4
:103B5000009402460B466C4804F052FDFF2005F02D
:103B60002DFEFF2005F02AFEFF2005F027FE09218B
:103B70006E4805F09FFE6A48FDF776F86C4908F03C
:103B8000A5F807F07FFE009402460B465E4804F05D
:103B900037FDFF2005F012FEFF2005F00FFEFF208D
:103BA00005F00CFE0C21634805F084FE5C48FDF72F
:103BB0000DF8614908F08AF807F064FE00940246A7
:103BC0000B46514804F01CFDFF2005F0F7FDFF20D7
:103BD00005F0F4FDFF2005F0F1FD0D21574805F03B
:103BE00069FE4F48FDF71AF8534908F06FF807F0DF
:103BF00049FE009402460B46434804F001FDFF20B5
:103C000005F0DCFDFF2005F0D9FDFF2005F0D6FD15
:103C10000E214B4805F04EFE4148FCF7FFFF0546DC
:103C20003F48FCF7D3FF44490646284608F04EF8C3
:103C300041490546304608F049F80146284607F054
:103C40003BFF07F01FFE009402460B462E4804F08F
:103C5000D7FCFF2005F0B2FDFF2005F0AFFDFF20EF
:103C600005F0ACFD37480C2105F024FE364B264804
:103C7000196804F099FCFF2005F0A0FDFF2005F075
:103C80009DFDFF2005F09AFD3048092105F012FE48
:103C90002F4B1D48196804F087FCFF2005F08EFDAE
:103CA000FF2005F08BFDFF2002B0BDE8704005F05D
:103CB00085BD28480B2105F0FDFDC6E626480621F6
:103CC00005F0F8FDC1E62548072105F0F3FDBCE647
:103CD0002348072105F0EEFDB7E62248082105F04C
:103CE000E9FDB2E62048082105F0E4FDADE600BF9D
:103CF0004031010004B2FF1F08B0FF1FCC2E0100AD
:103D00002487FF1F58310100AC87FF1F6431010079
:103D100070310100F8B0FF1F0000C842803101007F
:103D2000E08FFF1F8C3101009C310100AC3101009C
:103D300000002041B831010000007A44C831010080
:103D4000D8310100E8310100DC8FFF1FF83101009C
:103D50005087FF1FAC2E01009C2E0100A42E0100F5
:103D6000B82E0100C02E01004C310100F8B58B4D7A
:103D7000D5F8B030042B07D0032B33D0012B5BD008
:103D8000022B00F0CD80F8BD854C864AE388286D73
:103D9000226003F0FE0343F4006343F00103E38079
:103DA00007F040FF696907F091FF7F4907F08EFF38
:103DB00008F078F97D4B7E4A1B68126893FBF2F39A
:103DC00040BA5BBA0026208121467A486381E660CA
:103DD00003F014FAA279D5F8B03066F30002032B91
:103DE000A271CBD16E4C286DA37240F2FF224EF629
:103DF000010322600722E271238107F013FF696942
:103E000007F064FF684907F061FF08F04BF9684A62
:103E1000664B11681B6893FBF1F380B2020AE072F3
:103E20006373644822731B122146A37303F0E6F9FF
:103E3000D5F8B030012BA3D15F4B594C19682160E4
:103E4000072280231020E271237205F013FA002864
:103E500000F09680594B1B68544E554F286D03EB6C
:103E600083035A00D2B2C3F3C7136372A2723368DA
:103E70003A6893FBF2F3A3731B12637307F0D2FE4D
:103E8000696907F023FF4E4B196807F015FE464994
:103E900007F01CFF08F006F92073C0F30720404923
:103EA000E072444803F0AAF9022005F04DFA454BB0
:103EB0001B6823600723E37110208023237205F021
:103EC000D9F9002868D1404B1B68286D03EB8303A8
:103ED0005A00D2B2C3F3C713A272637207F0A2FEF4
:103EE000696907F0F3FE394B196807F0E5FD2E49C3
:103EF00007F0ECFE08F0D6F82073C0F307203A680C
:103F00003368E07293FBF2F325492A48A3731A122F
:103F1000627303F073F9D5F8B030022B7FF433AF3E
:103F20001F4C2448237240F20E32226021460122A7
:103F3000E27103F063F91D4B286D1B685B00FF2BDA
:103F40004FF00402D4BFDBB2FF234FF44171E271A2
:103F5000402221602272637207F064FE696907F0F3
:103F6000B5FE1B49054608F06DF858B901229023AB
:103F7000A272E3720A490F48BDE8F84003F03EB967
:103F8000114B68E72946284607F098FD08F08AF8A3
:103F9000C0F30722C3B2EBE7084B95E704B2FF1F5B
:103FA0006CB1FF1FF4E506180000204178B0FF1F38
:103FB0005C87FF1FE4B2FF1F3C87FF1F5887FF1F6E
:103FC00080B0FF1F4087FF1F5487FF1F7CB0FF1F7B
:103FD0000000484370B5174C174A1848214603F0B3
:103FE000B5FF18B1164B1B68012B00D070BD122114
:103FF0001448154E06F08AFF21681348134C00231D
:10400000102204F0F1FA104804F0D6FA04F1080581
:1040100014F8011F00230A22304604F0E5FA0920B3
:1040200006F0F8FFAC42F3D1BDE87040064804F05A
:10403000C3BA00BF18B1FF1F04B1FF1F0CB0FF1FB0
:10404000A48FFF1F043201000C88FF1F03B1FF1F64
:10405000FA2810B5044612D0B0F5FA7F1ED11448E4
:10406000102104F043F880B10F21124806F04EFFF2
:10407000114804F0A1FA114BA3F8C44010BD0C483C
:104080000F2104F033F80028EED10D48112106F07D
:104090003DFFBDE81040084804F08EBA09480F21E2
:1040A00006F034FFBDE81040034804F085BA00BFB5
:1040B0000CB0FF1F183201000C88FF1F04B2FF1F55
:1040C000283201003C32010010B504F05BFC0B48C3
:1040D000FCF750FB0A48FDF7B9FD0A4A0A48126886
:1040E0000023012103F0B4FE942004F06FFE044687
:1040F00003F07AFA054B1C6010BD00BFE08FFF1F74
:1041000084B0FF1F4C87FF1F48B1FF1FD08FFF1FD8
:104110002DE9F0434FF47A6085B005F015F90021E0
:10412000112005F0B5F80021102005F0B1F80021AC
:10413000122005F0ADF80021132005F0A9F80121A7
:104140000B2005F0A5F801210C2005F0A1F80121B4
:10415000142005F09DF80121152005F099F80121A2
:10416000162005F095F80121172005F091F801219E
:10417000052005F08DF8B04CB04F0121062005F068
:1041800087F801210D2005F083F8208807F046FD0F
:104190000146162004F0DEFF208807F03FFD0146AF
:1041A000172004F0D7FF208807F038FD01460520CE
:1041B00004F0D0FF2088A24C07F030FD0025014616
:1041C000062004F0C7FF9F4A9F499C4800952B4654
:1041D00002F04AFEEEB232462146384602F0ECFDCD
:1041E000237932466FF300032146384601352371A7
:1041F00002F0A0FD082DEDD1DFF844828F4F092594
:10420000EEB232464146384602F0D6FD23793246B8
:1042100043F00103414638460135237102F08AFD1F
:104220000D2DEDD1894C8A4F23688A4ED3F8840036
:10423000DFF82492102103F0AFFC23681021D3F89B
:10424000840003F06FFB23680221D3F8840003F09D
:1042500051FA23680221D3F8840003F049FC236853
:104260007E4CD3F884000F2103F0FAFC3D6840F245
:10427000EE2806F051FF2378002B00F0B68033784B
:10428000D80740F1B2803B68D9F800209B1A0E2B6A
:1042900040F2AB800C21724806F038FE714804F001
:1042A0008BF91621704806F031FE6E4804F084F94F
:1042B0004FF4E1316D4803F0C5FF6A4804F07CF922
:1042C00017216B4806F022FE664804F075F9694B29
:1042D0005B78990600F11A81664B5B781A0700F14A
:1042E0000D81644B5B785B0700F10081614B5B786B
:1042F0009E0700F1E7805F4B1B781D0600F1EE8002
:104300005C4B1B785C0600F1D5805A4B1B789806F5
:1043100000F1C880574B1B78590700F18480554B3A
:104320001B781A0777D4534B1B789B076BD44D48E7
:1043300004F042F972B6504B4CF220504DF6281161
:10434000D8812022D981013AFDD100224FF4805139
:104350009980DA80DA821A8892B242F0D3021A8007
:1043600062B618214548DFF8188106F0CFFD3D48B8
:1043700004F022F908F1FF3408F1CF06C8F1010575
:10438000281904F035FB04F8010FB442F8D198F86D
:104390000030122B01D0FDF799FCD8F8C81039482D
:1043A00004F008F80420FDF773FA374B00220121CE
:1043B0000D201A6004F038FFD8F854103348FCF789
:1043C00055FCD8F8442098F840103048FCF750FCD1
:1043D0003B68039303983A6802922D492D4B029A49
:1043E00008601A6005B0BDE8F0833B6822785B1B6B
:1043F00032B1B3F5FA6F3FF64DAF06F08DFE38E7F8
:104400004345FAD946E71821234806F07FFD1548B1
:1044100004F0D2F88BE71921204806F077FD114807
:1044200004F0CAF87FE71C211D4806F06FFD0D4817
:1044300004F0C2F873E700BF6487FF1FE4B2FF1FF8
:104440000CB1FF1F80B4FF1F48E80100D08FFF1F91
:10445000D8B4FF1FF4B6FF1FF8B6FF1FD0B6FF1F7A
:104460004C3201000C88FF1F5C320100AC87FF1F3B
:104470007432010000F0074000200540783301004D
:1044800004B2FF1FC087FF1F38B1FF1FE08FFF1F5F
:10449000B88FFF1FBC8FFF1F5C330100403301004A
:1044A0002033010013211D4806F030FD1C4804F0A4
:1044B00083F82FE712211B4806F028FD184804F066
:1044C0007BF822E71721184806F020FD144804F075
:1044D00073F8164B1B781D067FF512AF0E2114489A
:1044E00006F014FD0E4804F067F809E70E211148A4
:1044F00006F00CFD0A4804F05FF8F7E60C210E48C0
:1045000006F004FD064804F057F8EAE621210B48BE
:1045100006F0FCFC024804F04FF8DDE60C33010025
:104520000C88FF1FF8320100D032010000F0074074
:10453000E8320100C0320100B03201008C320100CB
:1045400010B5044600230A2221461A4804F04CF80C
:10455000184804F031F8B4F5164F1ED018D8B4F549
:10456000165F25D0B4F5964F08BF012117D1124828
:1045700003F092FD114BC3F8C84005F0C9FD104887
:10458000214603F017FFBDE810400B4803F0DCBDE7
:10459000B4F5E13F03D10421E9E70221E7E7094847
:1045A0000F2106F0B3FCBDE81040024804F004B847
:1045B0000021DCE70C88FF1F0CB0FF1F04B2FF1FB7
:1045C000C087FF1F94330100F0B5B74CB74E83B0DE
:1045D00006F02EFC23683060042B5CD0022B40F0E8
:1045E0005381A0F13102422A4AD8DFE812F0640672
:1045F00070067D069A06B706C606490009074900F7
:104600004900490049004900490049004900490062
:104610004900490049004900490049004900490052
:104620004900490049004900490049004900490042
:104630004900490049004900490049004900490032
:104640004900490049004900490049004900490022
:104650004900490149004900490049004900490011
:104660004900490049004900490049004900450006
:1046700049008E06712803D1002373202360306027
:10468000732808BF002B0CBF01230023002B40F030
:104690008D8003B0F0BDA0F13002412AF0D801A115
:1046A00051F822F03F4F00004152000057520000E5
:1046B0005B520000775200007B52000095520000D0
:1046C000AB520000AF520000094F000081460000CD
:1046D00081460000814600008146000081460000BE
:1046E00081460000814600008146000081460000AE
:1046F000814600008146000081460000814600009E
:10470000814600008146000081460000814600008D
:10471000814600008146000081460000814600007D
:10472000814600008146000081460000814600006D
:10473000814600008146000081460000814600005D
:10474000814600008146000081460000814600004D
:10475000814600008146000081460000814600003D
:104760008146000081460000B352000081460000EF
:10477000814600008146000081460000814600001D
:10478000814600008146000081460000814600000D
:1047900081460000814600008146000081460000FD
:1047A000814600008146000079460000404D4148A6
:1047B00003F002FF0421404806F0A8FB3D4803F047
:1047C000FBFE10213D4806F0A1FB3A4803F0F4FE41
:1047D00013213B4806F09AFB3A4B3648196803F020
:1047E000E3FE344803F0E8FE1421374806F08EFB60
:1047F000304803F0E1FE1E21344806F087FB2D48C7
:1048000003F0DAFE1521324806F080FB294803F058
:10481000D3FE1E212F4806F079FB264803F0CCFE7C
:1048200020212D4806F072FB224803F0C5FE192115
:104830002A4806F06BFB1F4803F0BEFE16212848ED
:1048400006F064FB1B4803F0B7FE1221254806F072
:104850005DFB184803F0B0FE0F21234806F056FB1D
:10486000144803F0A9FE0D21204806F04FFB114823
:1048700003F0A2FE002201232A60236003B0F0BDF2
:10488000FEF708FC23683068092B38D134283FF73D
:10489000F1AE30287FF7F4AE3238022801F21084EE
:1048A000DFE800F038264D0068B1FF1F30B1FF1F70
:1048B0004487FF1F0C88FF1FCC3C0100D43C010043
:1048C000E83C01005087FF1FFC3C0100143D010043
:1048D000343D01004C3D01006C3D0100903D010064
:1048E000AC3D0100C43D0100D83D0100E83D0100A0
:1048F00006F0DAFA002800F3958223683068082B66
:1049000033D132282AD071283FF4B6AE31283CD0BA
:104910000823B5E60123236006F0C6FA002800F359
:104920007B8223687820072B30603FF4A9AE062BEA
:104930003FF4A6AE052B41F084830523A0E60123B6
:10494000236006F0B1FA0028EBDD724803F094FF13
:10495000642303FB00F0FFF7F3FDE2E706F0A4FA9F
:10496000002800F3C48123683068072B76D13428EF
:104970003FF780AE30287FF783AE3238022801F24D
:104980008A83DFE800F07F64920006F08DFA002849
:1049900000F3BB81604D95F840106A6C022984BF1A
:1049A000002185F840105D48FCF762F90122692377
:1049B0002260336001E006F03BFA06F075FA064625
:1049C0000028F8D1534803F0F7FD524803F0F4FDF6
:1049D000504803F0F1FD4F4803F0EEFD4D4803F061
:1049E000EBFD15214E4806F091FA4A4803F0E4FD2C
:1049F00018214C4806F08AFA33460A2295F84010EE
:104A0000444803F0F1FD434803F0D6FD2821464811
:104A100006F07CFA686C454907F058F906F032FF59
:104A200000960B4602463B4803F0EAFD022140484F
:104A300006F06CFA374803F0BFFD13213D4806F03D
:104A400065FA344803F0B8FD0823236021E606F038
:104A50002BFA002800F3618123683068062B3AD1D5
:104A600037283FF707AE30287FF70AAE32380528DF
:104A700001F2FC82DFE810F015012901F8003F0087
:104A800028000A0106F010FA0028E5DD2148224D31
:104A900003F0F2FE07F0C6F8274907F017F90123E3
:104AA00023606123E863336045E106F0FDF90028E7
:104AB000D2DD1848184D03F0DFFE01232360612387
:104AC000A5F8CE00336036E106F0EEF9002801F3D8
:104AD000928123683068052B40F04787352840F3E2
:104AE000308771287FF429AF144A002373201360A4
:104AF00023603060C4E5084DD5F8B030012213447E
:104B0000072B2260A8BF00236522C5F8B0303260B1
:104B100018E000BF0C88FF1F04B2FF1FE08FFF1FCB
:104B2000943D0100683401008434010000007A449F
:104B3000B0340100543401006F12833A14B1FF1FE6
:104B400006F076F906F0B0F906460028F8D1BB4821
:104B500003F032FDB94803F02FFDB84803F02CFDF7
:104B6000B64803F029FDB54803F026FD1121B448ED
:104B700006F0CCF9B14803F01FFD2821B14806F03A
:104B8000C5F96869B04907F0A1F806F07BFE009608
:104B900002460B46A94803F033FD0221AB4806F05C
:104BA000B5F9A64803F008FD1621A94806F0AEF9AC
:104BB000E869A54907F08AF806F064FE00960B46FE
:104BC00002469E4803F01CFD0221A04806F09EF913
:104BD0009A4803F0F1FCD5F8B030002B32DD1D21EE
:104BE0009C4806F093F9E86D07F01CF89A4907F025
:104BF0006DF806F047FE022602460B468F480096E7
:104C000003F0FEFC0121954806F080F98B4803F083
:104C1000D3FC1F21924806F079F9286E07F002F8BC
:104C20008D4907F053F806F02DFE009602460B461C
:104C3000824803F0E5FC8948012106F067F97F48C6
:104C400003F0BAFC8748112106F060F9D5F8B030BE
:104C5000062B00F2E783DFE813F02E043304290467
:104C600024041F041A04E10306F01EF900287FF74C
:104C700030AF72487C4D03F0FFFD00EB8000400038
:104C8000012265232866226033605BE7764D95F844
:104C9000C030012253402260652285F8C030326066
:104CA00050E706F001F900287FF713AF63486E4D17
:104CB00003F0E2FD06F0B6FF634907F0BBF80123FD
:104CC00023606523E86133603CE706F0EDF80028D7
:104CD0007FF7FFAE5948644D03F0CEFD00EB800036
:104CE000400001226523E865226033602AE75348CB
:104CF0005D4D03F0C1FD06F095FF5C4906F0E6FF4F
:104D000095F84010686402464DE64C48564D03F055
:104D1000B3FDC1B285F840103FE64848524D03F05C
:104D2000ABFD06F07FFF012323606123A86333609E
:104D300001E006F07DF806F0B7F806460028F8D145
:104D40003E4803F039FC3D4803F036FC3B4803F095
:104D500033FC3A4803F030FC384803F02DFC1F21A7
:104D6000434806F0D3F8354803F026FC1C2141489F
:104D700006F0CCF8686A344906F0A8FF06F082FD18
:104D8000009602460B462D4803F03AFC02212F48BC
:104D900006F0BCF8294803F00FFC2321364806F042
:104DA000B5F8E86B284906F091FF06F06BFD009618
:104DB00002460B46214803F023FC0221234806F05B
:104DC000A5F81E4803F0F8FB19212C4806F09EF8C0
:104DD000A86B06F057FD02260B46024600961748C0
:104DE00003F00EFC3146264806F090F8134803F015
:104DF000E3FB2221234806F089F8B5F8CE100F48CE
:104E000003F0D2FB0321204806F080F80B4803F0A2
:104E1000D3FB072323603CE4084803F02DFDFFF794
:104E200017F97EE50548104D03F026FD01232360A8
:104E3000782385F8CC0033602AE000BF0C88FF1F80
:104E4000383D0100B434010000007A44B034010060
:104E5000E0340100F8340100CDCCCC3DFC39010038
:104E6000183501003835010004B2FF1F6F12833A74
:104E70001836010038360100583601007C36010032
:104E8000983601009C360100C036010005F0D0FFC5
:104E900006F00AF806460028F8D17B4803F08CFBA0
:104EA000794803F089FB784803F086FB764803F0E5
:104EB00083FB754803F080FB1221744806F026F846
:104EC000714803F079FB704803F076FB6E4803F0FD
:104ED00073FB6F48192106F019F895F8C230002BC2
:104EE00040F0B2876B48042106F010F8664803F0E2
:104EF00063FB1321684806F009F8634803F05CFB84
:104F000009232360FFF7C5BB0123236005F0CCFF15
:104F1000002801F35280614B18680428C4BF0222A4
:104F20001A60642223683260092B05D0082B01F037
:104F30004B80072B41F07E806420FFF7A1BB584DCA
:104F400095F8C130012264205340226085F8C130B9
:104F50003060A0F15203262B00F26981DFE813F0E4
:104F6000B5026701670167016701670167016701B2
:104F70006701670167016701670167016701CC028B
:104F8000CE022900B2007E0867016701670183082D
:104F90006701810867016701670167016701BC025A
:104FA000670167016701670167016701770805F01D
:104FB0003FFF05F079FF0028F9D13348384D03F061
:104FC000FBFA314803F0F8FA2F4803F0F5FA2E48BF
:104FD00003F0F2FA2C4803F0EFFA1F21314805F0F4
:104FE00095FF294803F0E8FA1E212F4805F08EFFAF
:104FF000254803F0E1FA2D481A2105F087FFEB6FF1
:10500000022B01F00E80032B01F00280012B00F037
:10501000F6872748092105F079FF1B4803F0CCFAF1
:105020001421244805F072FFA96F174803F0BCFA59
:10503000154803F0C1FA1C211F4805F067FFD5F899
:105040008010114803F0B0FA0F4803F0B5FA1C21A4
:105050001A4805F05BFFD5F8AC100B4803F0A4FA32
:10506000094803F0A9FAEE6F26F00206012E00F0BF
:105070003A871321084805F049FF034803F09CFADA
:1050800002232360FFF705BB0C88FF1FB03D010022
:10509000C8330100E4330100543401004887FF1F86
:1050A00004B2FF1FBC380100DC380100FC380100ED
:1050B000743901008039010098390100B8390100C4
:1050C00005F0B6FE05F0F0FE0028F9D1B148B24D6A
:1050D00003F072FAAF4803F06FFAAE4803F06CFACF
:1050E000AC4803F069FAAB4803F066FA1321AB4809
:1050F00005F00CFFA74803F05FFA0D21A84805F062
:1051000005FFA44803F058FA0F21A64805F0FEFE5B
:10511000A54BA048196803F047FA9E4803F04CFAE3
:105120001321A24805F0F2FEA14B9A48196803F03A
:105130003BFA984803F040FA12219E4805F0E6FE3B
:105140009D4B9448196803F02FFA924803F034FA03
:1051500011219A4805F0DAFE994B8E48196803F040
:1051600023FA8C4803F028FA0E21964805F0CEFE6B
:10517000D5F8A010874803F017FA864803F01CFA08
:105180001921914805F0C2FE904B8248196803F03E
:105190000BFA804803F010FA11218D4805F0B6FE95
:1051A0008C4B7C48196803F0FFF97A4803F004FA45
:1051B0001021894805F0AAFE884B7648196803F04B
:1051C000F3F9744803F0F8F91C21854805F09EFEB8
:1051D000844B7048196803F0E7F96E4803F0ECF966
:1051E00081481E2105F092FE95F8C130002B00F099
:1051F00071867E480D2105F089FE664803F0DCF9D2
:1052000015217B4805F082FE7A4B6248196803F04D
:10521000CBF9604803F0D0F91321774805F076FE0A
:105220005C4803F0C9F904232360FFF732BA23680E
:10523000002B08BF73280CBF01230023FFF726BAF9
:10524000594A1368B3FA83F3642001215B09216092
:10525000136030607DE6564AF3E7574B1A68012128
:10526000002A0CBF0A46002221601A6040F0AF8677
:10527000642030606DE6524AE3E7474DD5F8A03030
:10528000B3FA83F3642001225B092260C5F8A030E1
:1052900030605EE6012359482360FBF79FFA4B4BD1
:1052A00064221860326023683EE64A4AC9E74B4AE6
:1052B000C7E7504AC5E7384DAB6FB3FA83F35B09D4
:1052C0000122AB67632322603360632041E6324DE5
:1052D000D5F88030B3FA83F35B090122C5F880303A
:1052E000632322603360F0E70123236005F0DCFDD7
:1052F000002805DD2748284D03F0BEFAC5F8AC00AC
:105300000122632322603360DFE7234DEB6F01222C
:105310001344042B2260A8BF00236322EB67326092
:10532000D3E70123236005F0BFFD002807DD1948FE
:10533000194D03F0A1FA06F075FCC5F88C0023683E
:105340006320082B30603FF49BA9072B3FF498A9FA
:10535000062B40F07F860623FFF792B901232360D6
:1053600005F0A2FD0028EADD0A480B4D03F084FA9F
:1053700006F058FCC5F88800E1E70123236005F03A
:1053800093FD0028DBDD0348034D03F075FAA5F813
:10539000B800D4E70C88FF1F04B2FF1F803701005C
:1053A00094370100A437010070B0FF1FB43701002B
:1053B000FCB0FF1FC8370100FCB1FF1FDC37010044
:1053C00034B1FF1FF03701000038010074B0FF1F37
:1053D0001C38010014B1FF1F30380100A08FFF1FDF
:1053E000443801004887FF1F6438010084380100F9
:1053F000A4380100A48FFF1F54340100E08FFF1F69
:105400000123236005F050FD00287FF779AF3C4869
:105410003C4D03F031FAC5F8900071E73A48042199
:1054200005F074FD364803F0C7F8D5F8B030002B0E
:1054300012DD1821354805F069FDD5F8B410304863
:1054400003F0B2F80221324805F060FD2C4803F069
:10545000B3F82B4803F0B0F82E481B2105F056FD99
:1054600095F8C030002B40F0D2842B48122105F073
:105470004DFD234803F0A0F81321284805F046FD10
:105480001F4803F099F806232360FFF702B90B21A8
:10549000234805F03BFDC5E70D21224805F036FD08
:1054A000C0E70D21204805F031FDBBE70C211F4866
:1054B00005F02CFDB6E70D211D4805F027FDB1E7ED
:1054C0000C211C4805F022FDACE74FF0E0231A4AFE
:1054D000C3F80C2DFFF7DDB8D02200210948174D85
:1054E00003F0A0FA336800210122732B21602A60A7
:1054F0007FF4CFA8FFF75BB9024D1CE4014D21E01A
:105500000C88FF1F04B2FF1FA8350100B035010051
:10551000CC350100D0350100EC35010054340100D8
:105520009C3501008C3501007C3501006C35010093
:105530004C3501005C3501000400FA054487FF1F6B
:1055400005F076FC05F0B0FC06460028F8D1C2480C
:1055500003F032F8C04803F02FF8BF4803F02CF8EE
:10556000BD4803F029F8BC4803F026F81521BB48D4
:1055700005F0CCFCB84803F01FF81421B84805F03A
:10558000C5FCB54803F018F81B21B64805F0BEFC71
:10559000B14803F011F81321B34805F0B7FCAE4849
:1055A00003F00AF8AC4803F007F8AB4803F004F83E
:1055B0002021AE4805F0AAFCE868AD4906F086FB5C
:1055C00006F060F9009602460B46A34803F018F86F
:1055D0000221A84805F09AFC0221A74805F096FC94
:1055E0009D4802F0E9FF2121A44805F08FFC2869BD
:1055F0009F4906F06BFB06F045F9009602460B4604
:10560000954802F0FDFF02219A4805F07FFC022137
:10561000994805F07BFC904802F0CEFF1F21984886
:1056200005F074FCA86A06F02DF9022702460B4625
:105630008948009702F0E4FF0121924805F066FCDA
:1056400039468D4805F062FC834802F0B5FF202101
:105650008D4805F05BFCE86A06F014F900970246F5
:105660000B467D4802F0CCFF0121864805F04EFC38
:105670003946814805F04AFC774802F09DFF232116
:10568000824805F043FCA86C794906F01FFB06F040
:10569000F9F8009602460B466F4802F0B1FF394612
:1056A000744805F033FC3946734805F02FFC6A480E
:1056B00002F082FF1F21764805F028FCE86C6C4957
:1056C00006F004FB06F0DEF8009602460B46624840
:1056D00002F096FF3946674805F018FC39466648DF
:1056E00005F014FC5C4802F067FF1921694805F0D9
:1056F0000DFCA96D584802F057FF3946664805F081
:1057000005FC39465C4805F001FC534802F054FFA3
:105710001821624805F0FAFB686E06F083FA6049CA
:1057200006F0D4FA06F0AEF8009702460B464A4857
:1057300002F066FF01215B4805F0E8FB39464E4860
:1057400005F0E4FB444802F037FF2B21564805F0F2
:10575000DDFBA869464906F0B9FA06F093F8009611
:1057600002460B463C4802F04BFF3946414805F0E3
:10577000CDFB3946404805F0C9FB374802F01CFF15
:105780001F214A4805F0C2FB696D334802F00CFF47
:105790003946394805F0BAFB2F4802F00DFF2021A9
:1057A000434805F0B3FB296D2B4802F0FDFE394656
:1057B000314805F0ABFB284802F0FEFE10213D48C1
:1057C00005F0A4FBA96E244802F0EEFE39462948F4
:1057D00005F09CFB3946284805F098FB1E4802F06E
:1057E000EBFE1321344805F091FBE96E1A4802F0F4
:1057F000DBFE0121314805F089FB39461E4805F0E2
:1058000085FB154802F0D8FE10212D4805F07EFBDF
:10581000296F114802F0C8FE3946164805F076FB9C
:105820003946154805F072FB0B4802F0C5FE1421FD
:10583000244805F06BFB696F074802F0B5FE0121B3
:105840001E4805F063FB39460B4805F05FFB024834
:1058500002F0B2FE162137E00C88FF1F683A010003
:10586000803A0100983A010054340100B43A010032
:1058700000007A44B0340100242A0100D83A010023
:10588000FC3A01001C3B0100203B0100443B0100AD
:10589000683B0100883B0100A43B0100A83B0100DC
:1058A000CDCCCC3DFC390100C43B0100F03B0100F4
:1058B000103C0100343C0100483C01005C3C01000C
:1058C000603C0100743C01009A4805F01FFB286A07
:1058D000994906F0FBF905F0D5FF009602460B4604
:1058E000964802F08DFE3946954805F00FFB394683
:1058F000944805F00BFB914802F05EFE242192488B
:1059000005F004FBD5F8BC008B4906F0DFF905F083
:10591000B9FF00960B460246884802F071FE3946F0
:10592000874805F0F3FA3946864805F0EFFA8348D0
:1059300002F042FE814802F03FFE03232360FEF79F
:10594000A8BE30287EF79CAE3238032800F2C6830A
:10595000DFE810F0CB0058000400DB0005F0A4FAEB
:10596000002800F33F8223683068032B40F02E812B
:10597000A0F13003422B00F22C82DFE813F0750116
:10598000660157014B013F012C011A020F0201026F
:10599000F1012A022A022A022A022A022A022A02E1
:1059A0002A022A022A022A022A022A022A022A0297
:1059B0002A022A022A022A022A022A022A022A0287
:1059C0002A022A022A022A022A022A022A022A0277
:1059D0002A022A022A022A022A022A022A022A0267
:1059E00089012001E601DB01BA019301FB000D01F1
:1059F0002A022A022A022A022A022A022A022A0247
:105A0000D401C50105F050FA0028ACDD4B484F4DDC
:105A100002F032FF012323606B23C5F89800336046
:105A200001E005F005FA05F03FFA0028F9D14348F6
:105A300002F0C2FD414802F0BFFD404802F0BCFD4B
:105A40003E4802F0B9FD3D4802F0B6FD2121404834
:105A500005F05CFA394802F0AFFD15213D4805F02C
:105A600055FAD5F89410354802F09EFD02213A48C7
:105A700005F04CFA314802F09FFD1E21374805F031
:105A800045FAD5F89C102D4802F08EFD03213448CC
:105A900005F03CFA294802F08FFD1E21314805F03F
:105AA00035FAD5F89810254802F07EFD234802F01B
:105AB00083FD1D212C4805F029FAD5F8A4101F48B4
:105AC00002F072FD1D4802F077FD1E21274805F007
:105AD0001DFAD5F8A810194802F066FD174802F023
