:1000000000800020BD01000021870000D98600008B
:10001000D9860000D9860000D9860000D986000064
:10002000D9860000D9860000D9860000218700000B
:1000300021870000D98600009DAB0000A1AC000024
:100040002187000021870000218700002187000010
:100050002187000021870000218700002187000000
:1000600021870000218700002187000021870000F0
:1000700021870000218700002187000021870000E0
:1000800021870000218700002187000021870000D0
:1000900021870000218700002187000021870000C0
:1000A00021870000218700002187000021870000B0
:1000B00021870000B1790000BD790000C1790000FE
:1000C000CD790000D1790000D579000021870000AA
:1000D0002187000021870000218700002187000080
:1000E0002187000021870000218700002187000070
:1000F00021870000F5B4000021870000C1930000B3
:100100002187000045990000218700002187000019
:10011000218700002187000021870000218700003F
:10012000218700002187000021870000218700002F
:10013000218700002187000021870000218700001F
:10014000218700002187000021870000218700000F
:1001500021870000218700002187000021870000FF
:1001600021870000D19B000021870000218700002B
:1001700021870000218700002187000021870000DF
:1001800021870000218700002187000021870000CF
:1001900021870000218700002187000021870000BF
:1001A00021870000218700002187000021870000AF
:1001B000218700002187000021870000564B4CF268
:1001C000205210B51A804DF628121A8000BF00BFC9
:1001D00008F0AAFA514B4FF010621A60504A9A6028
:1001E000504ADA60504A136813F4807304D14F49BF
:1001F0000B604FF4A85313604D4B1A78110703D5C9
:100200001A7842F008021A704A4B4B492A221A7097
:100210004A4A4B4B8B4204D252F8040F43F8040B6A
:10022000F8E7484B484900228B4202D243F8042B9E
:10023000FAE74649464A002352F8230041F82300D2
:1002400001336F2BF8D1434B434A802103F8011B44
:100250009342FBD1414B3D4A1A60414B8A221A70AE
:10026000A3F5805324225A70A0221A709A7992071B
:10027000FCD59A79D406FCD43A4A937903F00C035E
:10028000082B384BF9D103221A7140225A719A79FE
:100290009006FCD5334A9179324B4906FBD5324A58
:1002A000324911600221516020221A709A7902F0BD
:1002B0000C020C2AFAD12E4B2E4A1A602E4B2F4AD2
:1002C0001A6000225A60072243F8042C2C4AC3F813
:1002D0000C2D62B608F0DEFC144B1B68DA0705D55E
:1002E000284808F0BBFA284B284A1A60284B1B788C
:1002F0005B0609D5244C254B22689A4204D121483B
:1003000008F0ACFA002323600CF0D8FB08F012FAD6
:100310000AF0B0FFFEE700BF0E2005403080044029
:10032000823F04000100002B10D0034014D0034092
:1003300002D0074000E007403892FF1F4428010028
:100340002087FF1F3892FF1F4CBAFF1F0082FF1F3C
:100350000000000000E400E05FE400E008ED00E0E1
:100360000050064000400640448004400000030165
:1003700004800440C010050014E000E0FF76010096
:100380000000202082A8E05F1CE00340A5C3945A2F
:1003900000F00740FFFFFFFFFFFFFFFFFFFFFFFF32
:1003A000FFFFFFFFFFFFFFFFFFFFFFFFFFFFFFFF5D
:1003B000FFFFFFFFFFFFFFFFFFFFFFFFFFFFFFFF4D
:1003C000FFFFFFFFFFFFFFFFFFFFFFFFFFFFFFFF3D
:1003D000FFFFFFFFFFFFFFFFFFFFFFFFFFFFFFFF2D
:1003E000FFFFFFFFFFFFFFFFFFFFFFFFFFFFFFFF1D
:1003F000FFFFFFFFFFFFFFFFFFFFFFFFFFFFFFFF0D
:10040000FFFFFFFFFFFFFFFFFFFFFFFFDEF9FFFF23
:1004100010B5054C237833B9044B13B10448AFF33E
:1004200000800123237010BD3892FF1F00000000E0
:1004300040280100084B10B51BB108490848AFF32C
:1004400000800848036803B910BD074B002BFBD0A0
:10045000BDE81040184700BF000000003C92FF1F9D
:10046000402801003892FF1F00000000F0B4154F33
:100470000024031F00F1800100F5827200F17C0668
:1004800043F8044FB34241F8047F4FF0000542F8AF
:10049000044FF5D100230C4A0C49C0F88C51C0F828
:1004A0009051C0F8B051C0F8A421C0F8AC21C0F8F8
:1004B000A81180F8B83180F8B93180F8D031F0BC9B
:1004C000704700BF0000A040000048430000C8C2C1
:1004D00038B590F8D031023B092B0546144607D8B1
:1004E00070296AD0E02931D0602900F09C8038BDA5
:1004F00070293AD0E02929D06029F8D1137A507AAE
:100500001B0203F47063181805D00CF071F86149F0
:100510000CF0C2F86860A37AE07A1B0203F47063FF
:10052000181805D00CF064F85A490CF0B5F8A8601A
:10053000237B607B1B0203F470631818D7D00CF088
:1005400057F854490CF0A8F8E86038BDE37BA07B6D
:1005500003EB00200CF04CF84F490CF09DF84F498C
:100560000BF092FFC5F8900138BD137A507A1B0248
:1005700003F47063181805D00CF03AF845490CF0F4
:100580008BF82861A37AE07A1B0203F470631818D1
:1005900005D00CF02DF83F490CF07EF86861237B04
:1005A000607B1B0203F470631818A0D00CF020F8D5
:1005B00038490CF071F8A86138BD137A507A1B02E3
:1005C00003F47063181805D00CF012F831490CF0E0
:1005D00063F86861A37AE07A1B0203F47063181869
:1005E00005D00CF005F82B490CF056F8A861237BD8
:1005F000607B1B0203F47063181805D00BF0F8FF42
:1006000024490CF049F8E861A37BE07B1B0203F46A
:10061000706318183FF46BAF0BF0EAFF1D490CF044
:100620003BF8286238BD137A507A1B0203F47063DA
:10063000181805D00BF0DCFF16490CF02DF8686097
:10064000A37AE07A1B0203F47063181805D00BF04C
:10065000CFFF10490CF020F8A860237B607B1B02C1
:1006600003F47063181805D00BF0C2FF09490CF0B1
:1006700013F8E860A37BE07B1B0203F47063181897
:100680003FF435AF0BF0B4FF02490CF005F82861D8
:1006900038BD00BF0AD7A33ADDB504BD000016433C
:1006A000D0F8DC01704700BF90F8C001704700BF70
:1006B00090F8BC01704700BF90F8C401704700BFBC
:1006C00090F8C801704700BF202994BF50F821005E
:1006D000002070472DE9F0410B4E8046041F00F1C9
:1006E0007C0754F8045F314628460CF073F930B1AA
:1006F000D8F8B41128460CF08BF900B12E46BC4254
:10070000EFD13046BDE8F081000020412DE9F041F5
:10071000D0F8B4714FF00008041F00F17C0654F8C3
:10072000045F394628460CF073F9084948B1284659
:100730000CF050F9414620B128460CF069F900B19F
:10074000A846B442EBD14046BDE8F08100007042BB
:100750002DE9F0470023D0F8B471C0F8DC318246AF
:100760001C464FF000099846061F56F8045F3846AD
:1007700029460CF02FF90E4960B128460CF02AF9F1
:1007800040B1484629460BF07FFE08F1010881463A
:10079000CAF8DC410134202CE7D1CAF8D4814046A4
:1007A0000BF026FF014648460CF02AF8BDE8F0871A
:1007B00000007042D0F8D401704700BFD0F890011B
:1007C000704700BFD0F89001704700BFD0F890018B
:1007D000704700BF2DE9F8434FF00008D0F8B4711E
:1007E000C0F88C818146041F00F17C0654F8045F38
:1007F000394628460CF00CF9084950B128460CF04F
:10080000E9F830B1404629460BF03EFE8046C9F873
:100810008C01B442EAD14046BDE8F8830000704242
:1008200002299ABF643150F821000020704700BFB0
:10083000102998BF80F8D011704700BF90F8B80118
:10084000704700BFC0F8CC11704700BF80F8B811E6
:10085000704700BF80F8B911704700BF30B5C0F8CD
:10086000B41183B008460BF06DFA074C022502461E
:100870000B46009520460AF0BFFB204603B0BDE8BA
:1008800030400AF061BB00BFDC87FF1F70B500F588
:1008900000550646183500F13804204604F5F0747A
:1008A000FFF7E4FDAC42F8D106F5067501242846B1
:1008B0000021FFF7CBFF214628460134FFF7B8FFA0
:1008C000112C05F5F075F2D142F2200400250548FF
:1008D000054A064B3555002130627162B262F362FF
:1008E000304670BD00007A44000048430000C8C292
:1008F00042F224032DE9F041002200F5F15500F504
:1009000000578046C2501835243700F5067403E0BE
:1009100004F5F074AC420ED02046FFF78FFF00289C
:10092000F6D020463E68FFF745FF04F5F0743044EA
:10093000AC423860F0D142F2240358F80300BDE81D
:10094000F08100BF70B50E460121356805F00F0437
:100950000C44C4EB041400EB441000F138042046AE
:10096000FFF774FF20460121FFF774FF324620464F
:1009700005F0F001BDE87040FFF7AABD70B5002397
:1009800000F5005605460361183600F5067403E0CD
:1009900004F5F074A64223D02046FFF74FFF00284D
:1009A000F6D02046FFF716FF014628690BF06CFDD4
:1009B00028612046FFF702FFA96A0CF00BF820BB64
:1009C0002046FFF7FFFEE96A0CF022F80028DFD08E
:1009D0002046FFF7F7FE04F5F074A642E862DBD18B
:1009E00068690BF005FE014628690BF009FF696A8A
:1009F000286104460CF00CF800B16C62296A2046AC
:100A00000BF0E8FF00B12C6270BD2046FFF7D6FE68
:100A1000A862D5E770B5124B836100F50055064614
:100A2000183500F5067403E004F5F074AC4214D0F8
:100A30002046FFF703FF0028F6D02046FFF74AFEC6
:100A4000B1690BF0C7FF0028EED02046FFF742FE49
:100A500004F5F074AC42B061EAD1B06970BD00BF7A
:100A60000000A04070B5002300F500550646C361A4
:100A7000183500F5067403E004F5F074AC4214D0A8
:100A80002046FFF7DBFE0028F6D02046FFF73EFEAB
:100A9000F1690BF0BDFF0028EED02046FFF736FECF
:100AA00004F5F074AC42F061EAD1F06970BD00BFAA
:100AB0000069704741617047F8B50F46164600F56A
:100AC0000674012504E00135112D04F5F0741BD0E6
:100AD0002046FFF7B3FE0028F5D029460B480AF060
:100AE00083FA0A480AF030FA782009F075FF2046A8
:100AF0003946FFF7A7FE013520463146FFF7AEFE27
:100B0000112D04F5F074E3D1F8BD00BFDC87FF1FA1
:100B100042F21C032DE9F041002200F50055C250BD
:100B20002F46274A274B426306464FF000080363CF
:100B300018351C3700F5067403E004F5F074AC4278
:100B40002ED02046FFF77AFE0028F6D02046FFF789
:100B50003DFE00210BF05CFF0028EED03B68013326
:100B60003B602046FFF732FE014640460BF08CFC0E
:100B700080462046FFF726FE316B0BF049FFD0B9C7
:100B80002046FFF71BFE716B0BF024FF0028D4D02A
:100B90002046FFF713FE04F5F074AC427063D0D129
:100BA00042F21C03F0580BF023FD014640460BF0C7
:100BB00027FEBDE8F0812046FFF704FE3063DFE743
:100BC00000C0794400C079C4006B7047406B704727
:100BD000F8B500F5005507460026183500F50674EF
:100BE00003E004F5F074AC4210D02046FFF726FE77
:100BF0000028F6D02046FFF7ABFD014630460BF04B
:100C000043FC04F5F074AC420646EED142F21C03FC
:100C1000F8580BF0EDFC014630460BF0F1FDF8BD45
:100C20002DE9F04F83B000F10F02C31D009204467E
:100C30000193002203F8012F00999942FAD101276C
:100C4000B94604F5067504F108082846FFF7F6FDD5
:100C5000E8B14FF0010B00262046FFF7B9FF5946D7
:100C600082462846FFF730FD014650460BF0B2FEA3
:100C700020B10BF1FF3209FA02F216430BF1010B1E
:100C8000BBF1090FE8D1092F55D088F80060013772
:100C90000A2F05F5F07508F10108D6D14FF440721E
:100CA00008232260E3712146244806F021FD019BC0
:100CB000002203F8012F00999942FAD104F59756C2
:100CC00018364FF00A084FF001093046FFF7B6FD1D
:100CD000D8B1012500272046FFF77AFF2946834631
:100CE0003046FFF7F1FC014658460BF073FE18B191
:100CF0006B1E09FA03F31F430135092DEBD1019B4C
:100D0000B8F10B0FCCBF1F705F70019B08F1010899
:100D10000133B8F1100F06F5F0760193D5D10748ED
:100D20004FF44472052321462260E37103B0BDE80D
:100D3000F04F06F0DDBCE673B0E700BFACB5FF1FB7
:100D40002DE9F04F93B004460F91002A40F0D08176
:100D500015461046C54900F0D7FDC449284600F0A5
:100D6000D3FDC249284600F0CFFD42F21C032046C5
:100D700054F803B0FFF7BCFD8146206966690AF0AC
:100D8000E1FFCDE910012046FFF722FF8246204611
:100D9000A769D4F81C80FFF7BBFE0AF0D3FFCDE9AA
:100DA0000C01394640460BF06DFBB1490BF074FC69
:100DB0000AF0C8FFCDE90A0140460AF0C3FFCDE9B9
:100DC000080138460AF0BEFFCDE9060150460AF098
:100DD000B9FFDDE91023CDE90401CDE90223A549DE
:100DE00000964B465A46284600F08EFD9F492846FD
:100DF00000F08AFD04F506744FF0010ADDF83C901E
:100E000007E00AF1010ABAF1100F04F5F07400F0DE
:100E1000F2802046FFF712FD0028F2D02046FFF7AF
:100E200043FC2046FFF744FC2046FFF745FC2046E4
:100E3000FFF746FC0821904809F04AFD51468F48CB
:100E40000AF0D2F8BAF1090F03DC01218C4809F04D
:100E50003FFD02218B4809F03BFD2046FFF7BAFC1D
:100E60000AF070FF5FFA89F802460B46CDF8008061
:100E700082480AF0C1F80121834809F029FD204683
:100E8000FFF70EFC0C2800F3B98001261DE00721B6
:100E90007E4809F01DFD294678480AF0A5F8022190
:100EA0007B4809F015FD31462046FFF70DFC0AF09E
:100EB00049FFCDF8008002460B4670480AF09CF8C6
:100EC000012171480E4409F003FD2046FFF7E8FBBD
:100ED000864269DC092D05F10105D8DC012168484D
:100EE00009F0F6FCD3E72046FFF7DAFB172800F3FA
:100EF000B98035460D261CE0013509F0E9FC29468C
:100F00005E480AF071F80221614809F0E1FC3146BF
:100F10002046FFF7D9FB0AF015FFCDF80080024606
:100F20000B4656480AF068F8012157480E4409F06C
:100F3000CFFC2046FFF7B4FB86424FF00701534831
:100F4000DADD0F21534809F0C3FC4C4809F0FCFFDF
:100F50002046FFF7A5FB192826DD19261CE00135E0
:100F600009F0B6FC294645480AF03EF802214848F7
:100F700009F0AEFC31462046FFF7A6FB0AF0E2FE80
:100F8000CDF8008002460B463C480AF035F80121B6
:100F90003D480E4409F09CFC2046FFF781FB864249
:100FA0004FF007013948DADD0F213A4809F090FC8B
:100FB000324809F0C9FF0921374809F089FC0021AE
:100FC0002046FFF72DFC0AF0BDFE022602460B4626
:100FD00000962A480AF010F80F212E4809F078FCF4
:100FE0000AF1010A254809F0AFFFBAF1100F04F524
:100FF000F0747FF40EAF13B0BDE8F08F2F460126DA
:101000001FE00721214809F063FC39461B4809F01D
:10101000EBFF02211E4809F05BFC31462046FFF73A
:1010200053FB0AF08FFECDF8008002460B461348B2
:1010300009F0E2FF01360121134809F049FC0C2EAA
:1010400008D0092F07F10107DBDC01210C4809F06A
:101050003FFCD6E72046FFF723FB0C2805F10B06E3
:101060003FF741AF16350D2739E000BF08220100D8
:1010700000007A44E00E0100800F0100DC87FF1FB2
:10108000781101008C1401008C0F0100900F0100F9
:1010900068110100980F0100A80F01000721BA484C
:1010A00009F016FC3146B94809F09EFF0221B84804
:1010B00009F00EFC39462046FFF706FB0AF042FE17
:1010C000CDF8008002460B46B04809F095FF01219B
:1010D000B0480F4409F0FCFBB5423FF432AF092E93
:1010E00006F10106DADC0121AB4809F0F1FBD5E796
:1010F000AA49012000F008FCA849012000F004FCE6
:10110000A649012000F000FC42F21C032046E258F0
:101110001092FFF7EDFB8246206966690AF012FE25
:10112000804620468946FFF753FD83462046A56941
:10113000E769FFF7EDFC0AF005FECDE90C01294651
:1011400038460BF09FF996490BF0A6FA0AF0FAFD23
:10115000CDE90A0138460AF0F5FDCDE90801284637
:101160000AF0F0FDCDE9060158460AF0EBFD5346C2
:10117000CDE90401CDE90289109A8A49009601203F
:1011800000F0C2FB8549012000F0BEFB04F50674A7
:101190004FF0010A0025DDF83C9007E00AF1010A52
:1011A000BAF1100F04F5F0743FF425AF2046FFF7B5
:1011B00045FB0028F2D02046FFF776FA2046FFF7DD
:1011C00077FA2046FFF778FA2046FFF779FA0821E8
:1011D000754807F0F1FF5146744809F005FFBAF170
:1011E000090F03DC01216C4807F0E6FF022170487B
:1011F00007F0E2FF2046FFF7EDFA0AF0A3FD5FFAE1
:1012000089F802460B46CDF80080684809F0F4FEE4
:101210000121604807F0D0FF2046FFF741FA0C2873
:1012200000F3AF8001261DE00721574807F0C4FFF7
:1012300029465E4809F0D8FE0221554807F0BCFF58
:1012400031462046FFF740FA0AF07CFDCDF80080D9
:1012500002460B46554809F0CFFE01214D480E4489
:1012600007F0AAFF2046FFF71BFA864269DC092D2A
:1012700005F10105D8DC0121474807F09DFFD3E7C0
:101280002046FFF70DFA172800F3C98035460D26D2
:101290001CE0013507F090FF2946444809F0A4FE00
:1012A00002213B4807F088FF31462046FFF70CFA41
:1012B0000AF048FDCDF8008002460B463B4809F095
:1012C0009BFE012133480E4407F076FF2046FFF7CE
:1012D000E7F986424FF007012B48DADD0F21354848
:1012E00007F06AFF314809F02FFE2046FFF7D8F9D2
:1012F000192826DD19261CE0013507F05DFF294677
:101300002A4809F071FE0221214807F055FF3146B5
:101310002046FFF7D9F90AF015FDCDF80080024606
:101320000B46224809F068FE01211A480E4407F0D6
:1013300043FF2046FFF7B4F986424FF007011248F9
:10134000DADD0F211B4807F037FF184809F0FCFDD4
:101350000921194807F030FF00212046FFF760FA05
:101360000AF0F0FC022602460B4600960F4809F0F0
:1013700043FE0F210F4807F01FFF0C4809F0E4FD62
:101380000CE72F46012639E0900F0100DC87FF1F94
:10139000681101008C0F0100781101000822010082
:1013A00000007A44E00E0100800F0100BC87FF1F9F
:1013B0008C140100980F0100A80F010007212E488E
:1013C00007F0FAFE39462D4809F00EFE02212C489E
:1013D00007F0F2FE31462046FFF776F90AF0B2FC3C
:1013E000CDF8008002460B46244809F005FE013680
:1013F0000121244807F0E0FE0C2E08D0092F07F148
:101400000107DBDC0121204807F0D6FED6E72046A5
:10141000FFF746F90C2805F10B063FF731AF1635FB
:101420000D2720E00721144807F0C6FE3146134877
:1014300009F0DAFD0221124807F0BEFE39462046C7
:10144000FFF742F90AF07EFCCDF8008002460B4619
:101450000A4809F0D1FD01210A480F4407F0ACFE0B
:10146000B5423FF43BAF092E06F10106DADC01215B
:10147000054807F0A1FED5E7900F0100BC87FF1FCC
:10148000681101008C0F0100781101002DE9F04F67
:1014900085B000F506758A4603929B462E464FF0AE
:1014A000010806E008F10108B8F13F0F06F5F076F3
:1014B0007BD03046FFF7C2F90028F3D000230A2280
:1014C00051467D4809F050FD01217C4809F000FAA1
:1014D00003980AF037FC00230246009376480B4637
:1014E00009F08AFD0121754809F0F2F95946724860
:1014F00009F07AFD0121714809F0EAF941466E4888
:1015000009F072FD01216D4809F0E2F900244FF065
:10151000020921463046FFF7D7F80AF013FCCDF850
:10152000009002460B46644809F066FD0134012133
:10153000624809F0CDF9082C4FF00207E9D10021EB
:101540003046FFF76DF90AF0FDFB009702460B46A7
:10155000594809F051FD0121584809F0B9F9012114
:101560003046FFF75DF90AF0EDFB009702460B46A7
:10157000514809F041FD0121504809F0A9F93946C7
:101580003046FFF74DF90AF0DDFB009702460B46A7
:10159000494809F031FD08F10108474809F0D4FC39
:1015A000B8F13F0F06F5F07683D101274FF000091F
:1015B00004E001373F2F05F5F07579D02846FFF795
:1015C0003DF90028F5D000230A2251463C4809F095
:1015D000CBFC0121394807F0EFFD03980AF0B2FB7C
:1015E000CDF8009002460B46354809F005FD012173
:1015F000324807F0E1FD5946314809F0F5FC012178
:101600002E4807F0D9FD39462D4809F0EDFC01219F
:101610002A4807F0D1FD00244FF002082146284651
:10162000FFF752F80AF08EFBCDF8008002460B4619
:10163000234809F0E1FC01340121204807F0BCFDFA
:10164000082C4FF00206E9D100212846FFF7E8F800
:101650000AF078FB009602460B46194809F0CCFCCC
:101660000121164807F0A8FD01212846FFF7D8F808
:101670000AF068FB009602460B46114809F0BCFCD4
:1016800001210E4807F098FD31462846FFF7C8F8BB
:101690000AF058FB009602460B46094809F0ACFCDC
:1016A0000137074809F050FC3F2F05F5F07585D14B
:1016B00005B0BDE8F08F00BFDC87FF1FB40F01004D
:1016C000BC87FF1F70B5044608460D460BF0D8FFD7
:1016D00023680246294620465B68BDE870401847EB
:1016E000014B1870704700BF2087FF1FF0B51546EB
:1016F000027883B062B103460E46252A16D01878C8
:101700001C4685B909F068F96278631C002AF4D197
:10171000002D5CD0744803B0BDE8F04009F014BC63
:101720001046002DEED007F0EFFCEDE758785C1C7A
:101730000028EDD02528F3D073282FD0642825D099
:10174000692823D0662848D07A2853D078285ED0DC
:10175000582800F08580622800F09180422866D0E9
:101760006C2813D0632811D0742800F09880542876
:10177000C7D133680436002D40F0A480012B00F05F
:10178000A8800521594809F0A3F8BDE7331D316849
:1017900085B957481E4609F027FCB5E7371D36685E
:1017A000304665B90BF06CFF014630463E4609F005
:1017B0008FF8A9E74C481E4609F016FCA4E70BF089
:1017C0005FFF014630463E4607F0F6FC9CE748487E
:1017D00003B0BDE8F04009F0B7BB073626F00706B6
:1017E0000321D6E90023009165B94148083609F084
:1017F00003FC89E7073626F00706D6E9002385B102
:10180000002100913848083609F0F6FB7CE7371DC7
:101810003168F5B90023102235483E4609F0A4FB93
:1018200072E700953248083609F0E6FB6CE70221C2
:1018300030487DBB09F04CF83168371D2B46022239
:101840002B483E4609F090FB5EE707F0B5FC316897
:10185000371D0023102224483E4609F085FB53E73C
:1018600002212548002DF0D109F032F8371D3168EA
:101870001F482B4610223E4609F076FB44E7371DF1
:101880003168002DDAD00023022217483E4609F0C5
:101890006BFB39E707F090FC371D3168F3E73168DF
:1018A00004363DB901290EBF14481548012109F03D
:1018B0000FF829E701290EBF10481148012107F050
:1018C0007BFC21E7012B09D00521084807F074FCB7
:1018D0001AE70C490648FFF7F5FE15E709490248E3
:1018E000FFF7F0FE10E700BFBC87FF1FF40F0100F9
:1018F000DC87FF1FE00F0100DC0F0100E40F010097
:10190000E80F0100EC0F01000EB400B582B003A98E
:10191000024651F8040B0191FFF7E8FE02B05DF8B2
:1019200004EB03B0704700BF30B4074D074C0849C3
:1019300000232B70236003654365836580F85C306A
:101940000B6030BC704700BF5C92FF1F5892FF1FB6
:101950005492FF1F0A4A0B49906D536D03FB00F32D
:101960004FF47A7000FB03F0642310B50B600AF0AB
:101970003FFE0549054C0AF043FF206010BD00BF43
:101980006093FF1F3487FF1FE4388E3E2093FF1FB4
:101990002DE9F8434649474F474D484E484CDFF83C
:1019A00054810020FFF7B0FF464B474A47485A6032
:1019B000DF601222002746491A701861454A4648DE
:1019C0005D615E62454D9C614FF07C56444C1F63E7
:1019D000444F9962DA62444958630C2243489D633C
:1019E0005E6440F61C450A269C641F6241F20404B2
:1019F0003F4FD9641A6502210122C3F8BC009D66DD
:101A000000206425DE661C674FF496763224DF6181
:101A1000DF635A27597059721A725A6583F8400069
:101A20009D655E66DE651C665F67C3F89840C3F817
:101A3000A4408C244FF47A799867D967C3F8800062
:101A4000DFF8B4C0C3F8A00044F6206EC3F8AC20A1
:101A5000C3F8B010FF2741F28831C3F8B45005260F
:101A600083F8C02083F8C12083F8C2204FF4FA75B0
:101A700040F2D6624FF4964083F8CC40C3F89C9075
:101A8000C3F88880C3F88CC0C3F890E0C3F8A8708E
:101A9000A3F8BA60A3F8C450C3F8C800C3F8941000
:101AA000A3F8B810A3F88420A3F88620BDE8F88333
:101AB000FC0F01006666864033338340CDCCCC3DBD
:101AC000CDCC4C406093FF1F48E80100000040402F
:101AD00000008242000020C1000020420000A0401F
:101AE0009A997940333373400AD7233D9A99993EA6
:101AF000CDCC4C3E0000684200C02044F0B54FF40D
:101B00007A6085B007F078F80021112007F04CF8D2
:101B10000021102007F048F80021122007F044F8B7
:101B20000021132007F040F801210B2007F03CF8BA
:101B300001210C2007F038F80121142007F034F8B7
:101B40000121152007F030F80121162007F02CF8AC
:101B50000121172007F028F80121052007F024F8BB
:101B6000914C924D0121062007F01EF801210D2015
:101B700007F01AF820880AF037FD0146162006F013
:101B80007DFF20880AF030FD0146172006F076FF21
:101B900020880AF029FD0146052006F06FFF208805
:101BA0000AF022FD00240146062006F067FF00949B
:101BB00023467F4A7F49804805F0A2FBE6B23246C1
:101BC0007A497D4805F04AFB2B7978497A486FF3CA
:101BD0000003013432462B7105F036FB082CEDD1A1
:101BE0000924E6B232467149734805F037FB2B7978
:101BF0006E49714843F00103013432462B7105F000
:101C000023FB0D2CEDD16D4C23681021D3F88400FB
:101C100006F048F823681021D3F8840006F0D6F8BF
:101C200023680221D3F8840005F092FF2368022183
:101C3000D3F8840006F01AF923680F21D3F8840042
:101C400006F002FA0C215E4808F042FE5D4809F0F9
:101C50007BF916215C4808F03BFE5A4809F074F9FC
:101C600040F2836007F086F8564809F06DF91721B5
:101C7000564808F02DFE534809F066F9544B1B787E
:101C80009A0600F1BF80524B1B781B0700F1C680FB
:101C90004F4B1B785F0700F1CD804D4B1B789E07A3
:101CA00000F1D4804B4B1B781D0600F1DB80494BC3
:101CB0001B785C0600F1E280464B1B78980600F129
:101CC000E980444B1B78590700F1F080414B1B78A9
:101CD0001A0700F1F7803F4B1B789B0700F1FE804D
:101CE000384809F031F972B63B4A4CF220504DF6B3
:101CF0002811108020231180013BFDD1374C38483A
:101D0000384900234FF48055258003800B8032F83A
:101D10000E3C9BB243F0D30322F80E3C62B618216E
:101D20003148324D08F0D4FD264809F00DF905F18F
:101D3000D0062F462C46601B06F03CFC04F8010B35
:101D4000A642F8D13B78122B01D0FFF721FED7F83D
:101D5000C800430803F1B76303F55843B3FBF0F041
:101D600007F006FC0420FFF7BBFC214B00220121F9
:101D70000D201A6006F004FF796D1E48FEF79AFEEA
:101D80007A6C97F840101B48FEF796FE1A4B1B49D9
:101D90001A68039203981B680293029A184B086012
:101DA0001A6005B0F0BD00BF2887FF1F3C94FF1FDD
:101DB00048B7FF1F48E80100ACB5FF1FE894FF1FBC
:101DC0001C100100DC87FF1F2C10010044100100D3
:101DD00001F0074000F007400E20054004200540B8
:101DE0000620054016200540481101006093FF1FA2
:101DF0007092FF1F8495FF1F54B7FF1F1895FF1F98
:101E00004494FF1F2121394808F062FD384809F049
:101E10009BF8384B1B781B077FF53AAF0C213648EF
:101E200008F056FD324809F08FF8324B1B785F07F7
:101E30007FF533AF0E21314808F04AFD2C4809F0F8
:101E400083F82C4B1B789E077FF52CAF17212C486D
:101E500008F03EFD264809F077F82A4B1B781D064E
:101E60007FF525AF0E21284808F032FD204809F003
:101E70006BF8244B1B785C067FF51EAF12212348BC
:101E800008F026FD1A4809F05FF81E4B1B789806EB
:101E90007FF517AF13211E4808F01AFD144809F00A
:101EA00053F8184B1B7859077FF510AF1C211948C0
:101EB00008F00EFD0E4809F047F8124B1B781A0780
:101EC0007FF509AF1921144808F002FD084809F010
:101ED0003BF80C4B1B789B077FF502AF18210F488E
:101EE00008F0F6FC024809F02FF8F9E65C10010052
:101EF000DC87FF1F01F007408010010090100100F7
:101F0000A010010000F00740B8100100C810010047
:101F1000DC100100F0100100101101002C11010073
:101F200070B5464C464D4748E66800232B70FEF7D7
:101F300099FD014630460AF04DFD08B104232B708F
:101F40004048FEF767FD21690AF044FD18B12B787F
:101F500043F010032B703B48FEF736FEA16A0AF0EF
:101F600057FD18B12B7843F040032B700023354800
:101F70006B70FEF72BFEE16A314E0AF02BFD08B1C3
:101F80000123737000232F48EB70FEF76BFD0546AD
:101F90002C482B4EFEF73EFD014628460AF072FA09
:101FA000E16B0AF035FD08B10123F370264D254899
:101FB00000232B70FEF756FD616A0646E0680AF0C2
:101FC00061FA014630460AF023FD08B104232B7064
:101FD0001C48FEF71FFD616A064620690AF054FAA4
:101FE000014630460AF0F6FC18B12B7843F0100396
:101FF0002B701448FEF7E8FDA16B0646A06A0AF0B4
:1020000041FA014630460AF003FD18B12B7843F03F
:1020100040032B7000230B486B70FEF7D7FDA16BBC
:102020000546E06A084C0AF02FFA014628460AF0F5
:10203000D1FC08B10123637070BD00BF6093FF1F26
:102040005C93FF1F8495FF1FD894FF1F2DE9F0417B
:102050007C4C2368012B82B031D0022B00F0A88089
:10206000032B00F0C8803BBB774B784AD3F8A41011
:10207000D3F8A83012685B1A632B0EDD744803FB9B
:1020800002F380FB0302DB17C3EB62131944062043
:1020900002B0BDE8F04106F0F3BB6E4803FB02233B
:1020A00080FB0302DB17C3EB22121144062002B0AF
:1020B000BDE8F04106F0E4BB02B0BDE8F081664E39
:1020C00033680A33B3F57A7F00F3B780184633607C
:1020D0000AF08EFA61490AF0DFFA80465A4DD5F8C7
:1020E000A4000AF085FA0746D5F8A8000AF080FA9D
:1020F00039460AF0C7F941460AF0CEFA58490AF0C3
:102100007FFB39460AF0C0F90AF08CFC0146062034
:1021100006F0B6FB0221534808F0DAFB524808F0FB
:1021200013FF0621514808F0D3FB30680AF060FA2B
:102130004A490AF0B1FA09F005FE022702460B46A9
:102140000097494808F058FF0D21494808F0C0FBA6
:10215000D5F8A4000AF04CFA804630680AF048FA34
:102160003E490AF099FA0646D5F8A8000AF040FA66
:1021700041460AF087F9014630460AF08DFA38499F
:102180000AF03EFB41460AF07FF909F0DBFD0097BB
:102190000B460246344808F02FFF3946314808F014
:1021A00097FB314808F0D0FE2368022B7FF458AF2C
:1021B000294B254E00221A60D6F8A4000AF018FA1E
:1021C0000546D6F8A8000AF013FA29460AF05AF98B
:1021D00000210AF061FA22490AF012FB29460AF0AE
:1021E00053F90AF01FFC0146062006F049FB23685C
:1021F000032B7FF438AF184B134E4FF47A721A60EA
:10220000D6F8A4000AF0F4F90546D6F8A8000AF0BA
:10221000EFF929460AF036F911490AF03DFA10495A
:102220000AF0EEFA29460AF02FF90AF0FBFB014604
:10223000062006F025FB236815E700234FF0000871
:1022400033604BE73493FF1F6093FF1F3487FF1FFA
:102250001F85EB51CBF08D287492FF1FCDCCCC3D68
:102260000000C8428C140100DC87FF1F64110100CC
:102270006C11010070B5B848B84C08F065FEB6485E
:1022800008F062FEB44808F05FFE0D21B44808F083
:102290001FFBD4F8A030012B11D0B24CAE482178EE
:1022A00000230A2208F060FE2378052B67D8DFE8B8
:1022B00013F00B01100115011A011F010101092181
:1022C000A94808F005FBA948FEF7A4FB21690AF01C
:1022D00081FB18B10F21A64808F0FAFAA348FEF7CF
:1022E000C1FBE1680AF094FB18B10E21A14808F087
:1022F000EFFA9E48FEF7B6FB05469C48FEF78AFBC0
:10230000014628460AF0BEF8E16B0AF081FB18B1DD
:102310001121994808F0DCFA9448FEF7F9FBA16A0C
:102320000AF076FB18B10C21944808F0D1FA8F48D6
:10233000FEF7EEFBE16A0AF04DFB18B10D21904863
:1023400008F0C6FA8F4B89481B68012B00F0ED801E
:10235000FEF760FB2169814D0AF05AFB78B1834892
:10236000FEF780FBE9680AF035FB40B17D4B1B7836
:10237000052B00F0EB800821834808F0A9FA022120
:10238000824808F0A5FA122006F000FC012800F0AF
:10239000B480112006F0FAFB012800F0B8807C4BD5
:1023A0001B68012B00F0BC8002217848794C08F0B2
:1023B0008FFA794B6848196808F016FE664808F0ED
:1023C000C3FD0421754808F083FA0B2006F0DEFBFC
:1023D000002301460A22604808F0C6FD0C2006F0E2
:1023E000D5FB002301460A225B4808F0BDFD1420FE
:1023F00006F0CCFB002301460A22574808F0B4FD42
:10240000152006F0C3FB0A2200230146524808F0BB
:10241000ABFD0621624808F05BFA2368DD074FF048
:1024200001014CBF5F48604808F052FA23689807E2
:102430004FF001014CBF5B485B4808F049FA236844
:102440005A074FF001014CBF5648574808F040FA70
:1024500023681B074CBF53485348012108F038FA42
:102460000421524808F034FA112006F08FFB0023B3
:1024700001460A22384808F077FD102006F086FB56
:10248000002301460A22344808F06EFD122006F0AF
:102490007DFB002301460A222F4808F065FD13202A
:1024A00006F074FB002301460A222B48BDE8704069
:1024B00008F05ABD07213E4808F00AFA3D4B26486D
:1024C000196808F091FD5AE706213B4808F000FA28
:1024D00055E70721394808F0FBF950E7072138484C
:1024E00008F0F6F94BE70821364808F0F1F946E71D
:1024F0000B21354808F0ECF941E70E21334808F08C
:10250000E7F9112006F042FB01287FF448AF0A21C9
:102510002F4808F0DDF91E4B1B68012B7FF444AFF8
:1025200011212C4808F0D4F93EE7FEF773FA216A2E
:102530000AF06EFA00283FF41EAF1621264808F074
:10254000C7F90A21254808F0C3F918E70A212348EA
:1025500008F0BEF913E700BFDC87FF1F6093FF1F81
:102560007C110100D494FF1F8C1101008495FF1F82
:1025700098110100A8110100B8110100CC1101004F
:10258000DC1101000093FF1F101201008C140100E8
:10259000F094FF1F3094FF1FBC94FF1F84120100B2
:1025A0008C12010094120100E42001009812010035
:1025B0004C120100F494FF1F1C12010024120100B0
:1025C00038120100401201002C12010054120100C7
:1025D0006412010070120100EC11010004120100EC
:1025E0002DE9F04FA94CE66F012E8DB000F07681F9
:1025F000032E00F0CA80DFF8D882A54FA54EA36F46
:10260000A548012B09BF3168316801F100413160F3
:1026100005F096FD3B68002B40F09D809E48DFF85A
:10262000B09205F063FD3B68C8F800000546002B3A
:1026300043D1E36F954A012B52D0984928460AF0BE
:10264000E7F9C0B9964928460AF0C4F998B9954AFD
:10265000954B12680B920B9A1A60D4F8AC0009F0F3
:10266000C7FF29460AF018F80023C8F800003360B5
:102670000DB0BDE8F08FDFF82CA28B4FDAF80030F8
:102680000A930A983B68DFF84C92C01A09F0ACFF35
:1026900029460AF001F885490AF0B2F883490AF0A0
:1026A000AFF8D9F8001009F0EFFEDAF8003009931E
:1026B000099BC9F800003B60CFE709F043FB022506
:1026C00002460B4600957A4808F096FC04217948AA
:1026D00008F0FEF8E36FD9F800506C4A012BACD13A
:1026E000754B1B68012B00F0D981022BB5D1D2F8B4
:1026F0009070384609F07CFF29460AF06BF940B922
:10270000784209F075FF29460AF082F9002800F0A6
:10271000F881DFF890A1644FDAF80030079307984A
:102720003B68DFF8B091C01A09F05EFF294609F056
:10273000B3FF5E490AF064F85C490AF061F8D9F821
:10274000001009F0A1FEDAF800300693069BC9F8E4
:1027500000003B6081E7504805F0C8FC09F0F2FA40
:10276000022502460B460095514808F045FC03211E
:10277000524808F0ADF8D4F890104D4808F034FCF9
:1027800003214E4808F0A4F848E74D4D4A4F2B6806
:10279000DFF83C81D3F884000F2101233B6005F072
:1027A00053FC3B683A4F012B3B6800F0BE80002B86
:1027B00040F03C812B68DFF82091D3F88400436B14
:1027C00019698EB2C9F8006005F0C0F9B4F8862026
:1027D00040F6E44303FB06F1B1FBF0F0801A00B2CF
:1027E00009F006FF37492B4E8246D4F8880009F0DD
:1027F00053FF014650460AF003F8D9F80030306024
:10280000632BDFF8D4A000F30581002333603B681D
:10281000002B3FF4F4AE02212B4808F059F82B6846
:10282000D9F80050D3F8840040F6E44303FB05F5E3
:1028300005F08CF9B5FBF0F009F0D6FE0546B4F8CA
:10284000860009F0D5FE0146284609F01BFE09F076
:1028500079FA022502460B460095154808F0CCFB94
:102860002946194808F034F8306809F06BFA0095E9
:1028700002460B460E4808F0BFFB2946134808F0F5
:1028800027F82946104808F023F8B8E66093FF1FA0
:102890001495FF1F7C92FF1F3893FF1F0000FA431F
:1028A0000000FAC354B7FF1FE494FF1F00007A44EE
:1028B000DC87FF1FE41201005087FF1FE0120100B8
:1028C000E894FF1F9175DD368C140100DC120100C5
:1028D0001493FF1F2093FF1F5893FF1FDFF80483FB
:1028E000D4F89070D8F80050384609F081FE294697
:1028F0000AF08EF848B1784209F07AFE014628467F
:102900000AF086F8002840F00381A44DA44F2A68FD
:102910000223D2F884003B600E2105F095FB3B6852
:10292000A04F012B3B687FF442AF002B40F0FA80B0
:102930002B68DFF8B492D3F88400436B19691FFA4F
:1029400081FBC9F800B005F001F9B4F88430964E67
:1029500040F6E44A0AFB0BFBBBFBF0F0C01A00B2E6
:1029600009F046FE91498346D4F88C0009F094FEA4
:102970000146584609F044FF2A68D9F80030306013
:10298000D2F884000AFB03FA05F0E0F8B4F88430CA
:10299000BAFBF0F00FFA80FAC3EB0A03002BB4F88D
:1029A000BA20B8BF5B429342BCBF002333603B6890
:1029B000002B3FF424AE02217D4807F089FF2B68ED
:1029C000D9F80050D3F8840040F6E44303FB05F542
:1029D00005F0BCF8B4F88410B5FBF0F000B2411A71
:1029E000744808F001FB0221714807F071FF30685C
:1029F00009F0A8F9022502460B4600956D4808F03B
:102A0000FBFA03216C4807F063FF2946684807F08A
:102A10005FFFF4E52B68D3F8840005F097F8DAF847
:102A2000003064389842FFF4F0AEF0E66148DFF819
:102A3000B891DFF868A108F087FA0C215F4807F029
:102A400047FF0C215E4807F043FF2A683B68D2F835
:102A50008400426B11698EB2C9F80060002B3FF40C
:102A6000B3AE05F073F840F6E44100230A2201FBFF
:102A700006F1B1FBF0F14F4808F076FA02214C481C
:102A800007F026FFB4F886104A4808F0ADFADAF8E5
:102A90000030D9F80060D3F8840095E6494928460B
:102AA00009F0B6FF58B94849284609F093FF30B9F4
:102AB000464A474B12680592059A1A60CDE5DFF841
:102AC0000CA1434FDAF80030049304983B68DFF818
:102AD0001C91C01A09F088FD294609F0DDFD3D4929
:102AE00009F08EFE3B4909F08BFED9F8001009F081
:102AF000CBFCDAF800300393039BC9F800003B607D
:102B0000ABE5324A324B12680892089A1A60A4E583
:102B1000224D234F2B683E60D3F884000F2105F02F
:102B200093FA3EE62348DFF8C0901C4E08F00CFAFA
:102B3000E36F012B4FF00B010CBF2748274807F02C
:102B4000C7FE0C211E4807F0C3FE2A683B68D2F876
:102B50008400426B11691FFA81FBC9F800B0002B99
:102B60003FF4F1AE04F0F2FF40F6E44100230A2204
:102B700001FB0BF1B1FBF0F10E4808F0F5F9012172
:102B8000174807F0A5FEB4F884100A4808F02CFA9C
:102B90003368D9F800B0D3F88400D4E6E894FF1F76
:102BA0005087FF1F1495FF1F7C92FF1F9175DD3624
:102BB0008C140100DC87FF1FC8120100CC12010039
:102BC000B81201000000FA430000FAC354B7FF1F17
:102BD000E494FF1F00007A44A0120100AC1201002F
:102BE000781101001493FF1F5893FF1F2093FF1FBC
:102BF0002DE9F04F994C236885B0002B7BD0984D80
:102C0000DFF86482974FDFF8A892D5F88030944EB1
:102C1000012B00F08B80D7F800A0D6F858B0746D67
:102C2000914E04FB0BF44FF47A7000FB04F009F0B2
:102C3000DFFC8E490446504609F02EFD214609F07E
:102C4000DFFD8B4909F028FD09F0ECFE6328C8F888
:102C500000004BDD2046854909F0D2FD6423386031
:102C60003360D9F80030002B3DD0EB6F7C4C012B4A
:102C700000F08A80032B00F0DF80022B00F0E2805E
:102C800002217C4807F024FE7B4B186809F05AF8B3
:102C9000022402460B460094784808F0ADF921461C
:102CA000774807F015FE2146724807F011FED8F864
:102CB0000010724808F098F90621724807F008FEE3
:102CC00038686A4909F0E8FC09F03CF800940246CB
:102CD0000B466A4808F090F903216B4807F0F8FDAD
:102CE000664808F031F905B0BDE8F08F0028BCBF98
:102CF00000233360B5E7654E594D33680293029A5D
:102D000042F228339A424BD833680393039A42F233
:102D100010739A424BD8D5F88030DFF84C81514F70
:102D2000DFF88C914E4E012B7FF475AF5848FDF7BC
:102D30004FFF5849D6F868A0F46E09F0ADFC09F0D1
:102D400097FE326F736FD5F858B0CAEB02021B1BA7
:102D500080B29A42CAEB0000C6BF03FB00000132FA
:102D6000584390FBF2F020446C6D00FB0BF004FB29
:102D700000F000EB8000400009F03AFC3B4909F00C
:102D80003FFD824638604BE7434B1B68012B4FF0F9
:102D90000A010CBF4148424807F09AFDE36F69E71A
:102DA0003B486A6C95F84010FDF786FEACE7384862
:102DB000FDF70EFF3749AF6EEE6E09F06DFC09F0BE
:102DC00057FE2A6F6B6FD21B9B1B80B29A42A0EBFF
:102DD00007003CDD03FB0000531C90FBF3F31E4493
:102DE000A86D6B6DDFF88080DFF8C490C8F80060D4
:102DF00000FB06F003FB00F000EB8000400009F050
:102E0000F7FB1A49174F09F0FBFCD9F8003038607E
:102E100001222260002B3FF4F8AE0221154807F092
:102E200057FD164808F090F859211E4807F050FD4C
:102E3000124808F089F8E8E610211B4807F048FD21
:102E4000EB6F1AE70721194807F042FD18E703FB6B
:102E500000F393FBF2F31E44C2E700BF7892FF1F1A
:102E60006093FF1F2093FF1F3487FF1FE4388E3EBF
:102E70000000C8428C1401001493FF1FDC87FF1F61
:102E8000DC1201007C1301008413010054B7FF1F02
:102E90008495FF1F00007A445087FF1F48130100EC
:102EA00054130100EC1201006013010074130100BF
:102EB0003C87FF1F30B5112083B005F067FE012865
:102EC00018D0122005F062FE012813D000210B203B
:102ED00005F056FE00210C2005F052FE00211520C1
:102EE00005F04EFE2649274B0120002208701A608B
:102EF00003B030BD0121152005F042FE224A234CCB
:102F0000234B1268D4F8941001921B68019A1D4D4E
:102F10000B4493424FF00201296005D901210C2096
:102F200005F02EFE03B030BDD4F89C0009F060FB24
:102F3000184B196809F04EFD0028EFD101210B2034
:102F400005F01EFE94F8C03003242C6043B10C4BF6
:102F500002221A7000210C2005F012FE03B030BDD1
:102F6000122005F013FE012808BF054B4FF0110099
:102F700008BF1C7005F00AFE0128EBD1E7E700BF8F
:102F8000D494FF1F1095FF1F54B7FF1F6093FF1FBE
:102F90001895FF1F1493FF1FF0B56D4E6D4D3468EB
:102FA0002B689C4287B03AD014F0010156D014F03F
:102FB00002014AD014F004013ED0E3070FD52B687C
:102FC000DF070CD4644F3A68002A00F09E80634B00
:102FD0001B680193019B934200F289803468A0072B
:102FE0000DD52B6899070AD45D4F3A68002A3ED068
:102FF0005A4B1B680393039B93425AD83468620769
:103000000DD52B685B070BD4564F3A68002A3FD08A
:10301000524B1B680593059B934258D834680CB1FA
:1030200007B0F0BD2146162005F02AFC21461720E6
:1030300005F026FC07B0F0BD052005F021FC2B684B
:10304000346803F0FB032B60B7E7172005F018FC8A
:103050002B68346803F0FD032B60ABE7162005F006
:103060000FFC2B68346803F0FE032B609FE73E4B98
:103070001B68002B56D1FF21172005F001FC374BB0
:103080003A4A19680291029912680A443A60B0E714
:10309000354B1B68002B50D1FF21052005F0F0FBBC
:1030A0002E4B324A19680491049912680A443A6016
:1030B000AFE72F4B1720D3F8981005F0E1FB2B68F2
:1030C000346843F0020300222B603A6097E7284BF4
:1030D0000520D3F8981005F0D3FB2B68346843F033
:1030E000040300222B603A60002C99D19AE7204B10
:1030F0001620D3F8981005F0C3FB2B68346843F012
:10310000010300222B603A6069E7FF21162005F0D9
:10311000B7FB124B154A19680091009912680A44CE
:103120003A6055E7134807F00FFF0C21124807F0EB
:10313000CFFB104807F008FF9DE70E4807F004FF9B
:103140000C210E4807F0C4FB0A4807F0FDFEA3E778
:103150001095FF1F3094FF1FAC94FF1F54B7FF1F43
:10316000B094FF1FB494FF1F3C87FF1F6887FF1FA9
:103170006093FF1FDC87FF1F881301009813010075
:103180002DE9F047534EDFF870813368DFF86C911A
:10319000D3F88400504D0F2104F056FF0023012284
:1031A00022214E48C8F80030C9F8002007F090FBF3
:1031B000D8F80030132B20DC40F6E4473368B5F82C
:1031C00084A0D3F88400436B1C6904F0BFFCA4B254
:1031D000012107FB04F4B4FBF0F441485444A5F882
:1031E000844007F075FB642005F006FDD8F8003038
:1031F0000133132BC8F80030E0DDB5F88430394ACC
:103200003948A2FB03129B1A02EB5303C3F30F13BB
:103210001946A5F8843007F0E7FE1D21334807F072
:1032200057FB0221324807F053FB2F4807F08CFE72
:1032300000231A460E213068C8F8003004F000FC64
:10324000022322212548C9F8003007F041FBD8F8B5
:103250000030132B20DC40F6E4473368B5F8869045
:10326000D3F88400436B1C6904F070FCA4B2012104
:1032700007FB04F4B4FBF0F419484C44A5F886406D
:1032800007F026FB642005F0B7FCD8F800300133C6
:10329000132BC8F80030E0DDB5F88630114A12482B
:1032A000A2FB03129B1A02EB5303C3F30F1319463D
:1032B000A5F8863007F098FE1D210E4807F008FBA0
:1032C00002210B4807F004FB0748BDE8F04707F070
:1032D0003BBE00BFE894FF1F6093FF1FA8130100CF
:1032E000EC13010087611886DC87FF1FCC130100F7
:1032F0008C140100F0130100C094FF1F5087FF1FC2
:10330000F8B57A4B7A4C7B4D1B68286D40F25131F1
:1033100008222160E271002B00F0E28009F068F9D8
:10332000296A064609F0B8F9734909F0B5F909F0B8
:103330009FFB80B203126372704A714B12681B6864
:10334000A96920721512A37230461B12E372227310
:10335000657309F0A1F9684909F09EF909F088FB45
:1033600083B21A1262496748A373E27304F0C0F98A
:10337000654B664A1B6812885D49A272DFB207EB93
:10338000870503EB83066D0046F3D71612121B1256
:103390002772257366730825002640F25537594871
:1033A000E27263722760E571A673E67304F0A0F918
:1033B00040F2563356482360E571FDF779FB5549D5
:1033C00009F06AF909F054FB20725148FDF770FBCF
:1033D000504909F061F909F04BFB4F4A4D49C0F3E0
:1033E00007231068637209F00BFA09F01BFB40FA1F
:1033F00005F203464648E272A372FDF789FB3E4997
:1034000009F04AF909F00EFB20734148FDF780FBF3
:10341000394909F041F909F005FB3549A67340F334
:10342000072338486373E67304F062F9022005F05D
:10343000E3FB3A4A3A4B17785678D178187892F8E5
:1034400002E02772DA785F786672E1729E78207304
:1034500040F25A3326492B48E57184F80AE0677335
:10346000A673E273236004F043F92E4B20491878C9
:103470005E789A782072187993F803E05F79667223
:10348000A2729E79DA79207340F25E331D4884F887
:103490000BE0E2732360E5716773A67304F028F90B
:1034A000022005F0A9FB204BE5711E785A7893F8AD
:1034B00002E0D8781F799D79267262725E79DA7996
:1034C000E0724FF45C7384F80AE027736673A573A7
:1034D000E273236006490B48BDE8F84004F008B9E0
:1034E00009F086F8696906461CE700BF0093FF1FD4
:1034F0000095FF1F6093FF1F00002041E094FF1F15
:103500006492FF1FACB5FF1F3487FF1F3887FF1F72
:103510008495FF1F0000C8421493FF1F5C93FF1F98
:10352000D894FF1F2C87FF1F5487FF1F38B5164CF8
:10353000164A2368101D12F8011F904241EA032326
:10354000F9D12360124C03F100432360114BDB6F70
:10355000022B11D0104B1B68012B00D038BD0F4837
:1035600007F0F2FC21680D4807F03EFD03210C48EE
:10357000BDE8384007F0ACB920680A4D09F038F8CA
:103580002860FFF72DF8E5E7B894FF1F2B93FF1F86
:10359000DC94FF1F6093FF1FA894FF1FDC87FF1FB1
:1035A0001C1401007C92FF1F30B53C4C3C4883B09A
:1035B000214603F095FF236840F2C232934252D075
:1035C000A3F58C621F2A48D9A3F5FC630F2B3FD9C2
:1035D000344B1B68012B01D003B030BD324B1B684C
:1035E000012BF9D1314B32481B6801930A22002389
:1035F000019907F0B9FC2268284B002ADB7945DBEA
:103600002C492D480AF010F82B480AF039F80146E9
:10361000294807F05DF92568204B15F0804526D133
:10362000DB798BB1631925491A7A234809F0FCFF2D
:1036300021480AF025F801461F4807F049F90135ED
:10364000E379EDB2AB42EDD8194807F07DFCC3E752
:1036500012491B48FDF776F9BAE710491848FDF7FB
:1036600071F92368B0E7FFF761FF2368A8E7154DFC
:10367000114C0FCD0FC495E8030044F8040B20460D
:1036800020F81419152107F023F9DDE70E490A483F
:1036900022F0604209F0C8FFB6E700BF2493FF1F85
:1036A000ACB5FF1F3C87FF1FA894FF1F54B7FF1F37
:1036B000DC87FF1F481401008092FF1F7414010073
:1036C0008495FF1F5C14010020140100A24B1B789D
:1036D000052B00F0A1802DE9F04FA04CA04EA14D8C
:1036E000626EE36DA048326083B02B60FDF76EFA26
:1036F000E16A09F06FF908B100232B609A48FDF7E1
:1037000063FAA16A09F084F910B1002333602B60D9
:103710009548FDF7A7F9E16809F07AF908B10023A7
:103720002B609148FDF79EF9E16809F071F908B145
:1037300000232B608C48894FFDF76CF9216909F053
:1037400049F900286ED0002333602B68854F002B89
:1037500053DD8548DFF80482FDF736FA216B09F066
:1037600039F9002840F0C480804B7F481B687B4FAC
:10377000012B00F0FD80FDF775F9E1698046606975
:1037800008F080FE0146404609F042F9002834D096
:10379000286808F02DFF82467348FDF763F9D7F8D3
:1037A00014808346F969404608F06CFE8146386E05
:1037B00008F01EFF0446F86D08F01AFF214608F0D5
:1037C00061FE49460746584608F05CFE0146384609
:1037D00008F062FF49460746404608F053FE01469E
:1037E000384609F00DF8214608F04EFE01465046D5
:1037F00008F048FE09F016F928603368584A002B93
:10380000AFBF2B682B6800211160002B01DA002369
:103810002B6003B0BDE8F08F5149524A00230B6082
:10382000136070475048FDF7F5F8B96909F0D2F810
:10383000002888D13368DFF82891002B85DD4A48BD
:10384000FDF7C4F9796B09F0E3F8002840F0B38084
:103850004548424FFDF7DEF8216909F0D9F8002804
:1038600000F09F804048DFF8F480FDF7D3F8D4F8EB
:10387000BC100746A06908F007FE0146384609F06B
:10388000A9F800283FF461AF306808F0B1FE824625
:103890003548FDF7BFF88346D8F86400D8F81870AB
:1038A00008F0A6FE39468146584608F0EBFD494629
:1038B0008346002008F0E6FD0146584608F0ECFE7D
:1038C000D8F8BC108346384608F0DEFD394608F0CB
:1038D000D9FD0146584608F093FF494608F0D4FD4B
:1038E0000146504608F0CEFD09F09CF830602CE708
:1038F000386808F07DFE83461B48FDF765F90190A6
:10390000D8F85C00D8F82CA008F072FE019B814624
:103910005146184608F0B6FD49460190002008F0CF
:10392000B1FD019B0146184608F0B6FE51460190D4
:10393000D8F8300008F0A6FD019B0146184608F0B3
:103940005FFF494608F0A0FD0146584608F09AFD81
:1039500009F068F8386007E7D494FF1F6093FF1FF1
:10396000E094FF1F6492FF1F8495FF1F0093FF1FC9
:10397000FDF778F8E1698046206A08F083FD01468A
:10398000404609F045F800283FF437AF286808F0B2
:103990002FFE82461E48FDF765F8D7F82080834643
:1039A00000E71B48FDF736F8B96909F031F800283F
:1039B0007FF458AFC9E6D9F8000008F019FE824636
:1039C0001348FDF703F90190786ED7F8348008F0BA
:1039D0000FFE019B83464146184608F053FD014601
:1039E000584608F059FE41468346B86A08F04AFD39
:1039F0000146584608F004FF002108F045FD014645
:103A0000504608F03FFD09F00DF8C9F800001FE727
:103A10008495FF1F08B5274807F096FA0721264826
:103A200006F056FF112005F0B1F80621F8B1234841
:103A300006F04EFF122005F0A9F8062100B3204839
:103A400006F046FF122005F0A1F8062108B31D4834
:103A500006F03EFF132005F099F8062110BB1A4826
:103A600006F036FF1348BDE8084007F06DBA174866
:103A700006F02EFF122005F089F806210028DED17D
:103A8000134806F025FF122005F080F806210028D3
:103A9000DDD1104806F01CFF132005F077F8062151
:103AA0000028DCD00C4806F013FF0248BDE80840AF
:103AB00007F04ABADC87FF1F801401008814010058
:103AC00098140100A8140100C01401009014010012
:103AD000A0140100B0140100B814010010B5254C69
:103AE0002368042B27DC01210B2005F049F8012174
:103AF0000C2005F045F80121142005F041F80121C2
:103B0000152005F03DF8FF21162004F0B9FEFF2135
:103B1000172004F0B5FEFF21052004F0B1FEFF21BF
:103B2000062004F0ADFE236801330A2B2360C4BFD6
:103B30000023236010BD00210B2005F021F8002197
:103B40000C2005F01DF80021142005F019F80021C3
:103B5000152005F015F80021162004F091FE002133
:103B6000172004F08DFE0021052004F089FE0021BD
:103B7000D6E700BFF894FF1F70B5092182B0B9489D
:103B800005F01AFB222005F0BFFAB74BD3F8A0309E
:103B9000012BB64B1B7809D0052B10D8DFE813F0AA
:103BA00043014801520157014D010B00002B00F069
:103BB0005381052B03D10721AD4805F0FDFA2220E2
:103BC00005F0A2FAFF2005F09FFAFF2005F09CFA0D
:103BD000A84CFF2005F098FA0821A74805F0ECFA58
:103BE0002168A64807F000FAFF2005F08DFAFF20B3
:103BF00005F08AFAFF2005F087FA0921A04805F0B0
:103C0000DBFA21689D4807F0EFF9FF2005F07CFA08
:103C1000FF2005F079FAFF2005F076FA0C2199488B
:103C200005F0CAFA984B9949186808F0E9FD08F0C0
:103C300089F8002402460B460094904807F0DCF90E
:103C4000FF2005F061FAFF2005F05EFAFF2005F085
:103C50005BFA09218E4805F0AFFA8E48FCF758FF51
:103C600008F070F8009402460B46844807F0C4F947
:103C7000FF2005F049FAFF2005F046FAFF2005F085
:103C800043FA0C21844805F097FA8248FCF79EFF1E
:103C900008F058F8009402460B46784807F0ACF953
:103CA000FF2005F031FAFF2005F02EFAFF2005F085
:103CB0002BFA0D21794805F07FFA7648FCF784FF4E
:103CC00008F040F8009402460B466C4807F094F95F
:103CD000FF2005F019FAFF2005F016FAFF2005F085
:103CE00013FA09216E4805F067FA6A48FCF7E0FE0E
:103CF0006C4908F0D1FC08F025F8009402460B4608
:103D00005E4807F079F9FF2005F0FEF9FF2005F085
:103D1000FBF9FF2005F0F8F90C21634805F04CFA97
:103D20005C48FCF777FE614908F0B6FC08F00AF839
:103D3000009402460B46514807F05EF9FF2005F05B
:103D4000E3F9FF2005F0E0F9FF2005F0DDF90D2192
:103D5000574805F031FA4F48FCF784FE534908F004
:103D60009BFC07F0EFFF009402460B46434807F028
:103D700043F9FF2005F0C8F9FF2005F0C5F9FF2041
:103D800005F0C2F90E214B4805F016FA4148FCF740
:103D900069FE05463F48FCF73DFE44490646284675
:103DA00008F07AFC41490546304608F075FC0146AA
:103DB000284608F067FB07F0C5FF009402460B4653
:103DC0002E4807F019F9FF2005F09EF9FF2005F0B5
:103DD0009BF9FF2005F098F90C21374805F0ECF924
:103DE000364B2648196807F0FFF8FF2005F08CF9DC
:103DF000FF2005F089F9FF2005F086F909213048F8
:103E000005F0DAF92F4B1D48196807F0EDF8FF208F
:103E100005F07AF9FF2005F077F9FF2002B0BDE840
:103E2000704005F071B90621274805F0C5F9C6E6CE
:103E30000721264805F0C0F9C1E60B21244805F00A
:103E4000BBF9BCE60721234805F0B6F9B7E608211F
:103E5000214805F0B1F9B2E60821204805F0ACF997
:103E6000ADE600BFC81401006093FF1FD494FF1F8C
:103E70004C1201003487FF1FE0140100BC87FF1FB4
:103E8000EC140100F81401001493FF1F0000C84255
:103E9000081501008495FF1F141501002415010069
:103EA00034150100000020414015010000007A4453
:103EB000501501006015010070150100F094FF1FFE
:103EC000801501002487FF1F1C120100241201002D
:103ED0002C1201003812010040120100D41401001C
:103EE0002DE9F0418D4DD5F8B030042B3ED0032B99
:103EF0006ED0012B00F09880022B01D0BDE8F0813C
:103F0000874C8848237240F20E32012321462260FA
:103F1000E37103F0EDFB844B1B685B00FF2BC8BF14
:103F2000FF23042140224FF441702060E17122728E
:103F30006372286D08F05CFB696908F0ADFB7B4992
:103F4000054608F065FD002800F0DE802946284679
:103F500008F09AFA08F08CFD80B20312E072A372A6
:103F60006F497048BDE8F04103F0C2BB6C4C704A29
:103F7000A379226043F001030822E271A371286D46
:103F800008F036FB696908F087FB6A4908F084FB92
:103F900008F06EFD644B684A1B68126893FBF2F3ED
:103FA00080B200261A120712607221465D48E37241
:103FB000A272277226736673A673E67303F098FBEA
:103FC000A279D5F8B03066F30002032BA27190D12C
:103FD000534C286DA3720122E823072140F2FF26EB
:103FE000227263722660E17108F002FB696908F0D1
:103FF00053FB504908F050FB08F03AFD4A4B4E4A3B
:104000001B68126893FBF2F382B21E12171221464C
:1040100044486373E2722773A67303F069FBD5F813
:10402000B030012B7FF468AF444B3D4C1B682360DC
:10403000072280231020E271237204F0A7FD0028DC
:1040400069D13F4B1B68DFF8E0803B4F286D344E51
:1040500003EB83035B001A12A3726272D8F800307C
:104060003A6893FBF2F31A126273A37308F0C0FA72
:10407000696908F011FB334B196808F003FA2D4900
:1040800008F00AFB08F0F4FC80B2031231462073FA
:104090002448E37203F02CFB022004F0ADFD2A4B10
:1040A0001B682360072280231020E271237204F032
:1040B0006DFD70BB224B1B68286D03EB83035B0017
:1040C0001A127272B37208F093FA696908F0E4FA8E
:1040D0001E4B196808F0D6F9164908F0DDFA08F009
:1040E000C7FC82B216123868D8F80030227393FBEE
:1040F000F0F30B490B48A3731A12E672627303F0D4
:10410000F7FAD5F8B030F7E601229023A272E372F5
:1041100026E70F4BCFE70E4B94E700BF6093FF1FDE
:104120000095FF1FACB5FF1F6492FF1F00004843BE
:10413000F4E50618000020414C87FF1F6087FF1F31
:104140004487FF1F3494FF1F6487FF1F1C93FF1FCA
:104150004887FF1F38B5164D164A1748294604F000
:104160005BF818B1154B1B68012B00D038BD12212C
:104170001348144C06F0ACFB2968134800231022A6
:1041800006F0F2FE104806F0DFFE04F1080514F810
:10419000011F0D4800230A2206F0E6FE092006F062
:1041A0001BFCA542F3D10848BDE8384006F0CCBE60
:1041B0000893FF1F0C93FF1F2095FF1F1C95FF1FE7
:1041C0008C1501000B93FF1FDC87FF1FFA2810B529
:1041D00004461BD0B0F5FA7F0FD11021134804F02C
:1041E000E1F8C8B10F21124806F072FB114806F041
:1041F000ABFE114BA3F8C44010BD0F210F4806F0D1
:1042000067FB0C48BDE8104006F09EBE0F21074832
:1042100004F0C8F80028E5D11121094806F058FB40
:104220000448BDE8104006F08FBE00BF2095FF1F78
:10423000A0150100DC87FF1F6093FF1FC41501005C
:10424000B015010010B50146044600230A22324889
:1042500006F08AFE304806F077FEB4F5964F48D057
:1042600029D9B4F5164F14D0B4F5E13F38D1042163
:104270002A4804F0B3F82A4BC3F8C84005F0D6FA30
:1042800040F2413005F074F92448BDE8104004F0D4
:1042900079B80221214804F0A1F8214BC3F8C840A5
:1042A00005F0C4FA40F6C41005F062F91B48BDE8F9
:1042B000104004F067B8B4F5165F11D1002117481B
:1042C00004F08CF8164BC3F8C84005F0AFFA42F280
:1042D000107005F04DF91148BDE8104004F052B8D7
:1042E0000F21104806F0F4FA0B48BDE8104006F024
:1042F0002BBE0121094804F071F8094BC3F8C840EE
:1043000005F094FA41F2883005F032F90348BDE82F
:10431000104004F037B800BFDC87FF1F2095FF1F57
:104320006093FF1FD4150100F0B5954C954D83B0F7
:1043300006F068FA23682860042B00F09E82022BA6
:1043400029D0092B70D0082B40F09680322800F03D
:10435000EC83712800F09D80312840F09E8006F0AB
:104360008DFA002840F311878748884E06F07EFFBB
:10437000C0B286F84000022894BF01460021726C4A
:10438000834888BF86F84010FCF796FB012369201C
:104390002360286018E3A0F13102422A7DD8DFE8CB
:1043A00012F07F078B079907AB07F50704087C001D
:1043B00011087C007C007C007C007C007C007C0080
:1043C0007C007C007C007C007C007C007C007C000D
:1043D0007C007C007C007C007C007C007C007C00FD
:1043E0007C007C007C007C007C007C007C007C00ED
:1043F0007C007C007C007C007C007C007C007C00DD
:104400007C007C007C0079077C007C007C007C00C8
:104410007C007C007C007C007C007C007C007C00BC
:104420007C0078007C001E08332801F04C8410DCEE
:10443000312801F07A8432282FD10123236006F03D
:104440001DFA002815DD504806F010FFFFF7BEFEEC
:104450000FE034281BD10123236006F00FFA002857
:1044600007DD494806F002FF642303FB00F0FFF775
:10447000E9FE782023682860072B40F0AB803328C2
:1044800001F02A8440F38682342801F05C8471288C
:1044900003D10023732023602860732808BF002BFA
:1044A0000CBF01200020002867D0374806F04CFDE3
:1044B0000421384806F00CFA334806F045FD102177
:1044C000354806F005FA304806F03EFD1321334822
:1044D00006F0FEF9324B2C48196806F085FD2A4893
:1044E00006F032FD14212F4806F0F2F9264806F0B6
:1044F0002BFD1E212C4806F0EBF9234806F024FD85
:1045000015212A4806F0E4F91F4806F01DFD1E217A
:10451000274806F0DDF91C4806F016FD2021254845
:1045200006F0D6F9184806F00FFD1921224806F0CA
:10453000CFF9154806F008FD1621204806F0C8F905
:10454000114806F001FD12211D4806F0C1F90E4880
:1045500006F0FAFC0F211B4806F0BAF90A4806F0EB
:10456000F3FC0D21184806F0B3F9074806F0ECFCFF
:10457000164A002101231160236003B0F0BD00BF83
:10458000C494FF1F6092FF1FDC87FF1F6093FF1F13
:104590008495FF1F041F01000C1F0100201F010054
:1045A0002487FF1F341F01004C1F01006C1F0100F6
:1045B000841F0100A41F0100C81F0100E41F0100A7
:1045C000FC1F010010200100202001003C87FF1F7C
:1045D00023682868062B40F08D80A0F13102402A24
:1045E0003FF65BAF01A151F822F000BF315200004D
:1045F0009D510000C7510000ED5100001352000012
:104600005D520000815200009B4400009B4400006A
:104610009B4400009B4400009B4400009B4400001E
:104620009B4400009B4400009B4400009B4400000E
:104630009B4400009B4400009B4400009B440000FE
:104640009B4400009B4400009B4400009B440000EE
:104650009B4400009B4400009B4400009B440000DE
:104660009B4400009B4400009B4400009B440000CE
:104670009B4400009B4400009B4400009B440000BE
:104680009B4400009B4400009B4400009B440000AE
:104690009B4400009B4400009B4400009B4400009E
:1046A0009B4400009B4400009B4400009B4400008E
:1046B0009B4400009B4400009B4400009B4400007E
:1046C0009B4400009B4400009B4400009B4400006E
:1046D0009B4400009B4400009B4400009B4400005E
:1046E0009B4400009B4400009B4400009344000056
:1046F00023682868052B15D1332801F04C8340F33B
:104700009181352801F03183C1F2568371287FF4FD
:10471000C4AECF4A00237320136023602860BCE638
:1047200023682868032B40F0A480A0F13002422ABD
:104730003FF6B3AE01A151F822F000BF4948000096
:10474000435B00006B5B0000AF5A0000D15A0000D1
:10475000F35A00001B5B0000CD590000EB5900002C
:104760000F5A00009B4400009B4400009B44000043
:104770009B4400009B4400009B4400009B440000BD
:104780009B4400009B4400009B4400009B440000AD
:104790009B4400009B4400009B4400009B4400009D
:1047A0009B4400009B4400009B4400009B4400008D
:1047B0009B4400009B4400009B4400009B4400007D
:1047C0009B4400009B4400009B4400009B4400006D
:1047D0009B4400009B4400009B4400009B4400005D
:1047E0009B4400009B4400009B4400009B4400004D
:1047F0009B4400009B4400009B4400009B4400003D
:10480000375A0000F3540000915A0000555A000036
:10481000735A00004B590000A9540000CD54000009
:104820009B4400009B4400009B4400009B4400000C
:104830009B4400009B4400009B4400009B440000FC
:10484000C1590000A159000006F018F8002841F3F2
:1048500033828048804E06F009FD01270346014659
:1048600062227E48736527602A60FCF723F923687B
:104870002868012B7FF411AEA6E0A0F13002412A96
:104880003FF60BAE01A151F822F000BF8D5400009D
:10489000A5540000EF530000075400002D54000001
:1048A0007154000035540000475400004B54000080
:1048B0004F5400009B4400009B4400009B440000B8
:1048C0009B4400009B4400009B4400009B4400006C
:1048D0009B4400009B4400009B4400009B4400005C
:1048E0009B4400009B4400009B4400009B4400004C
:1048F0009B4400009B4400009B4400009B4400003C
:104900009B4400009B4400009B4400009B4400002B
:104910009B4400009B4400009B4400009B4400001B
:104920009B4400009B4400009B4400009B4400000B
:104930009B4400009B4400009B4400009B440000FB
:104940009B4400009B4400009B4400009B440000EB
:10495000315400009B4400009B4400009B44000035
:104960009B4400009B4400009B4400009B440000CB
:104970009B4400009B4400009B4400009B440000BB
:104980009B4400009B4400009B4400009B440000AB
:1049900093440000312801F0B28132287FF47DADCC
:1049A00005F06CFF00287FF713AE2A482A4E06F068
:1049B0005DFC07F01DFE2A4907F06EFE612301220F
:1049C000F06322602B601846A0F15203262B01F2FF
:1049D0006A81DFE813F0DE08680968096809680978
:1049E000680968096809680968096809680968093F
:1049F00068096809C1004C0B88022503A5016809F4
:104A0000680968093A026809490B68096809680970
:104A100068096809E3086809680968096809680994
:104A200068093501312801F0D58132287FF435AD90
:104A300005F024FF00287FF773AE0648064E06F007
:104A400015FC01226B23C6F89C0022602B600BE052
:104A50003493FF1FDC87FF1F6093FF1F8495FF1FA8
:104A60006F12833A05F0CEFE05F008FF0028F9D159
:104A7000914806F069FA904806F066FA8E4806F00A
:104A800063FA8D4806F060FA8B4806F05DFA212142
:104A90008A4805F01DFF884806F056FA1521884817
:104AA00005F016FFD6F89410834806F09DFA02210F
:104AB000844805F00DFF804806F046FA1E21824822
:104AC00005F006FFD6F89C107B4806F08DFA03210E
:104AD0007E4805F0FDFE784806F036FA1E217C4837
:104AE00005F0F6FED6F89810734806F07DFA724885
:104AF00006F02AFA1D21774805F0EAFED6F8A41040
:104B00006D4806F071FA6C4806F01EFA1E217248D4
:104B100005F0DEFED6F8A810674806F065FA66488C
:104B200006F012FA0523236027E505F0A7FE00280A
:104B300040F330836048694E06F098FB07F058FD5B
:104B4000674907F0A9FD0346024696F840106548FC
:104B5000736419E405F056FE05F090FE0546002842
:104B6000F8D155485D4E06F0EFF9534806F0ECF9E0
:104B7000514806F0E9F9504806F0E6F94E4806F0CB
:104B8000E3F91F21584805F0A3FE4B4806F0DCF975
:104B90001C21564805F09CFE706A554907F07CFDC3
:104BA00007F0D0F8009502460B46434806F024FA79
:104BB0000221504805F08CFE3F4806F0C5F923213C
:104BC0004D4805F085FEF06B494907F065FD07F09B
:104BD000B9F8009502460B46374806F00DFA022157
:104BE000444805F075FE344806F0AEF919214348F3
:104BF00005F06EFEB06B07F0A5F802250B460246E5
:104C000000952D4806F0F8F929463D4805F060FE6C
:104C1000294806F099F919213A4805F059FEB6F8E5
:104C2000B810254806F0E0F90321374805F050FE9A
:104C3000214806F089F9072323609EE405F0E2FD90
:104C400005F01CFE05460028F8D11B48234E06F04F
:104C50007BF9194806F078F9174806F075F91648F7
:104C600006F072F9144806F06FF91221274805F092
:104C70002FFE114806F068F90F4806F065F90E4856
:104C800006F062F91921224805F022FE96F8C2309A
:104C9000002B41F0C28004211E4805F019FE064891
:104CA00006F052F913211C4805F012FE024806F0E6
:104CB0004BF90923236060E4DC87FF1FFC18010027
:104CC000201901000C18010038190100C812010058
:104CD0005819010078190100981901006093FF1F0D
:104CE0006F12833A8495FF1F58180100781801004D
:104CF00000007A44F016010098180100BC18010069
:104D0000D8180100DC180100F8180100E81F0100A4
:104D100008160100241601009416010005F072FD2A
:104D200005F0ACFD05460028F8D1A548A54E06F0D3
:104D30000BF9A34806F008F9A14806F005F9A048C8
:104D400006F002F99E4806F0FFF811219E4805F092
:104D5000BFFD9B4806F0F8F828219C4805F0B8FDF7
:104D600070699B4907F098FC06F0ECFF009502463D
:104D70000B46934806F040F90221964805F0A8FD3D
:104D80008F4806F0E1F81621934805F0A1FDF0697F
:104D90008F4907F081FC06F0D5FF00950B460246CF
:104DA000874806F029F902218A4805F091FD8448D8
:104DB00006F0CAF8D6F8B030002B32DD1D21874846
:104DC00005F086FDF06D07F013FC854907F064FCE3
:104DD00006F0B8FF022502460B460095784806F01B
:104DE0000BF901217F4805F073FD754806F0ACF81A
:104DF0001F217D4805F06CFD306E07F0F9FB784906
:104E000007F04AFC06F09EFF009502460B466C48F0
:104E100006F0F2F80121734805F05AFD684806F0E3
:104E200093F81121714805F053FDD6F8B030062BE8
:104E300000F2E486DFE813F02D0732072807230786
:104E40001E071907DE0605F0DDFC05F017FD054617
:104E50000028F8D15A485B4E06F076F8584806F01C
:104E600073F8574806F070F8554806F06DF8544846
:104E700006F06AF815215E4805F02AFD504806F054
:104E800063F818215B4805F023FD2B460A2296F8AB
:104E900040104B4806F068F8494806F055F82821BC
:104EA000554805F015FD706C494907F0F5FB06F013
:104EB00049FF00950B460246414806F09DF8022145
:104EC000444805F005FD3E4806F03EF813214B48E6
:104ED00005F0FEFC3A4806F037F808232360FFF798
:104EE0004CBB05F08FFC05F0C9FC0028F9D1344813
:104EF000344E06F029F8324806F026F8304806F01D
:104F000023F82F4806F020F82D4806F01DF81F2141
:104F10003B4805F0DDFC2A4806F016F81E2139480A
:104F200005F0D6FC264806F00FF81A21364805F0A1
:104F3000CFFCF36F022B01F07880032B01F06C8023
:104F4000012B01F060800921304805F0C1FC1C48AC
:104F500005F0FAFF14212E481A4F05F0B9FCB16F85
:104F6000174806F041F8164805F0EEFF1C212948C5
:104F700005F0AEFCD6F88010114806F035F8104860
:104F800005F0E2FF1C21244805F0A2FCD6F8AC1085
:104F90000B4806F029F80A4805F0D6FFF56F25F012
:104FA0000205012D00F0C4871321144805F090FC80
:104FB000034805F0C9FF02232360FFF7DEBA00BFF4
:104FC000DC87FF1F6093FF1F701F0100F4160100B4
:104FD00000007A44F0160100201701003817010084
:104FE000CDCCCC3D341C01005817010078170100CE
:104FF000CC1F0100A8160100C41601009416010080
:10500000F41A0100141B0100341B0100AC1B010049
:10501000B81B0100D01B0100F01B010005F0F2FBE2
:1050200005F02CFC0028F9D1BD48BE4D05F08CFFE1
:10503000BB4805F089FFBA4805F086FFB84805F07F
:1050400083FFB74805F080FF1321B74805F040FC07
:10505000B34805F079FF0D21B44805F039FCB0489C
:1050600005F072FF0F21B24805F032FCB14BAC489D
:10507000196805F0B9FFAA4805F066FF1321AE488C
:1050800005F026FCAD4BA648196805F0ADFFA44815
:1050900005F05AFF1221AA4805F01AFCA94BA048B6
:1050A000196805F0A1FF9E4805F04EFF1121A648A2
:1050B00005F00EFCA54B9A48196805F095FF984835
:1050C00005F042FF0E21A24805F002FCD5F8A01021
:1050D000934805F089FF924805F036FF19219D4855
:1050E00005F0F6FB9C4B8E48196805F07DFF8C4857
:1050F00005F02AFF1121994805F0EAFB984B8848F2
:10510000196805F071FF864805F01EFF10219548CB
:1051100005F0DEFB944B8248196805F065FF804876
:1051200005F012FF1C21914805F0D2FB904B7C4802
:10513000196805F059FF7A4805F006FF1E218D48D1
:1051400005F0C6FB95F8C130002B00F0AC860D21B0
:10515000894805F0BDFB724805F0F6FE1521874829
:1051600005F0B6FB864B6E48196805F03DFF6C48AC
:1051700005F0EAFE1321834805F0AAFB684805F014
:10518000E3FE04232360FFF7F8B9664E96F840006B
:10519000FFF7F1B823682868FFF76EB905F06EFBDA
:1051A00000287FF7A5AA5E485E4E06F05FF807F07C
:1051B0001FFA754907F024FB65230122F061226084
:1051C0002B60184600E405F059FB00287FF790AAF1
:1051D0005348544E06F04AF800EB80004300012289
:1051E0006520F36522602860FFF7EEBB05F046FB03
:1051F00000287FF77DAA4A484A4E06F037F800EBB0
:105200008000430001226520336622602860FFF79A
:10521000DBBB444AD2F8B0300133062BC8BF0023B1
:10522000C2F8B0300123652023602860FFF7CCBBB3
:1052300005F024FB00287FF75BAA3948394E06F0B9
:1052400015F807F0D5F9504907F0DAFA652301227D
:10525000706122602B601846FFF7B6BB05F00EFBAD
:1052600000287FF745AA2E482E4E05F0FFFF652344
:105270000122C6F8B40022602B601846FFF7A4BBD9
:10528000284B93F8C020002A00F0C285002283F842
:10529000C020C7E7FDF774FF23682868FFF751B8FF
:1052A000204EB36FB3FA83F35B0901226320B36727
:1052B00022602860FFF788BB1A4ED6F88030B3FA18
:1052C00083F35B0901226320C6F8803022602860E6
:1052D000FFF77ABB0123236005F0D0FA002805DD33
:1052E0000F48104E05F0C2FFC6F8AC000123632042
:1052F00023602860FFF768BB0123236005F0BEFA36
:10530000002807DD0648074E05F0B0FF07F070F9EA
:10531000C6F88C00632028602368FFF714B800BF2C
:10532000DC87FF1F6093FF1FB8190100CC19010033
:10533000DC190100A894FF1FEC1901001495FF1F50
:10534000001A0100D094FF1F141A0100FC94FF1FE3
:10535000281A0100381A0100BC94FF1F541A0100DA
:105360003493FF1F681A01000493FF1F7C1A010089
:105370005C87FF1F9C1A0100BC1A0100DC1A0100A7
:105380001C95FF1F9416010000007A44012323603E
:1053900005F074FA0028BDDD5D485E4E05F066FF3D
:1053A00007F026F9C6F88800B4E70123236005F06A
:1053B00065FA0028AEDD5648564E05F057FFA6F8B0
:1053C000BA00A7E70123236005F058FA00288DDD15
:1053D0004F48504E05F04AFFC6F8900086E74D4A08
:1053E000D36F0133032BC8BF0023D3677EE74A4A3C
:1053F0001368B3FA83F35B09012164201360216011
:105400002860FFF7E1BA454A454F1368002B0CBFEF
:10541000012300234FF001001360206040F00E864E
:10542000034664222A606420FEF78BBF3D4ADFE713
:105430003D4ADDE701233D482360FBF759FA3C4A2A
:1054400023681060EDE73B4AD2E73B4AD0E70123EF
:10545000236005F013FA002800F32E85374B1A68F5
:10546000042AC4BF02221A6064232B602368DAE78F
:10547000284ED6F8A030B3FA83F35B0901226420EA
:10548000C6F8A03022602860FFF79EBA214E96F839
:10549000C13001225340642086F8C1302260286068
:1054A000FFF792BA264AA3E705F0E8F900280DDDD8
:1054B0001748184E05F0DAFE07F09AF8214907F070
:1054C0009FF901226223306222602B6005F0D6F939
:1054D00000280EDD0E480F4E05F0C8FE07F088F8D4
:1054E000184907F08DF901226223C6F8BC0022603A
:1054F0002B6005F0C3F9002840F3DE830448054E15
:1055000005F0B4FE01226223B06622602B601DE02C
:10551000DC87FF1F6093FF1F1495FF1FD094FF1FB0
:10552000C494FF1FFC94FF1F1C95FF1F8495FF1F51
:10553000BC94FF1F3493FF1F0493FF1F5C87FF1F62
:10554000A894FF1F00007A4405F05CF905F096F975
:1055500005460028F8D1C24805F0F6FCC04805F021
:10556000F3FCBF4805F0F0FCBD4805F0EDFCBC487D
:1055700005F0EAFC1521BB4805F0AAF9B84805F08A
:10558000E3FC1421B84805F0A3F9B54805F0DCFCAC
:105590001B21B64805F09CF9B14805F0D5FC132154
:1055A000B34805F095F9AE4805F0CEFCAC4805F0DF
:1055B000CBFCAB4805F0C8FC2021AE4805F088F9CB
:1055C000F068AD4907F068F806F0BCFB00950246AC
:1055D0000B46A34805F010FD0221A84805F078F914
:1055E0000221A74805F074F99D4805F0ADFC212182
:1055F000A44805F06DF930699F4907F04DF806F0B1
:10560000A1FB009502460B46954805F0F5FC0221EA
:105610009A4805F05DF90221994805F059F990483A
:1056200005F092FC1F21984805F052F9B06A06F087
:1056300089FB022702460B460097894805F0DCFCEF
:105640000121924805F044F939468D4805F040F9AA
:10565000834805F079FC20218D4805F039F9F06A7E
:1056600006F070FB009702460B467D4805F0C4FC2F
:105670000121864805F02CF93946814805F028F9C2
:10568000774805F061FC2321824805F021F9B06CD0
:10569000794907F001F806F055FB009502460B46E4
:1056A0006F4805F0A9FC3946744805F011F93946F0
:1056B000734805F00DF96A4805F046FC1F2176484D
:1056C00005F006F9F06C6C4906F0E6FF06F03AFBCF
:1056D000009502460B46624805F08EFC3946674845
:1056E00005F0F6F83946664805F0F2F85C4805F032
:1056F0002BFC1921694805F0EBF8B16D584805F00D
:1057000073FC3946664805F0E3F839465C4805F015
:10571000DFF8534805F018FC1821624805F0D8F866
:10572000706E06F065FF604906F0B6FF06F00AFBF2
:10573000009702460B464A4805F05EFC01215B4893
:1057400005F0C6F839464E4805F0C2F8444805F061
:10575000FBFB2B21564805F0BBF8B069464906F023
:105760009BFF06F0EFFA009502460B463C4805F019
:1057700043FC3946414805F0ABF83946404805F04E
:10578000A7F8374805F0E0FB1F214A4805F0A0F8CC
:10579000716D334805F028FC3946394805F098F812
:1057A0002F4805F0D1FB2021434805F091F8316DD9
:1057B0002B4805F019FC3946314805F089F828488E
:1057C00005F0C2FB10213D4805F082F8B16E244877
:1057D00005F00AFC3946294805F07AF83946284888
:1057E00005F076F81E4805F0AFFB1321344805F0AC
:1057F0006FF8F16E1A4805F0F7FB0121314805F00A
:1058000067F839461E4805F063F8154805F09CFB1B
:1058100010212D4805F05CF8316F114805F0E4FBCC
:105820003946164805F054F83946154805F050F841
:105830000B4805F089FB1421244805F049F8716FE5
:10584000074805F0D1FB01211E4805F041F8394613
:105850000B4805F03DF8024805F076FB162137E0CD
:10586000DC87FF1FA01C0100B81C0100D01C010038
:1058700094160100EC1C010000007A44F0160100AF
:105880008C140100101D0100341D0100541D010085
:10589000581D01007C1D0100A01D0100C01D01005C
:1058A000DC1D0100E01D0100CDCCCC3D341C01000D
:1058B000FC1D0100281E0100481E01006C1E010095
:1058C000801E0100941E0100981E0100AC1E010004
:1058D000BB4804F0FDFF306ABA4906F0DDFE06F071
:1058E00031FA009502460B46B74805F085FB39466C
:1058F000B64804F0EDFF3946B54804F0E9FFB24878
:1059000005F022FB2421B34804F0E2FFD6F8BC00E6
:10591000AC4906F0C1FE06F015FA00950B460246AA
:10592000A94805F069FB3946A84804F0D1FF39467B
:10593000A74804F0CDFFA44805F006FBA24805F0F7
:1059400003FB03232360FEF718BEFCF721F80221B6
:105950009F48A14E04F0BCFF9B4805F0F5FA0221D8
:105960009B4804F0B5FF984805F0EEFA02219848EC
:1059700004F0AEFF944805F0E7FA1721974804F0C9
:10598000A7FF914805F0E0FA0221914804F0A0FF3A
:105990008D4805F0D9FA0122622322602B60D5E5FB
:1059A0008F4B8B488C4E002202211A6004F090FF2E
:1059B000854805F0C9FA0B218A4804F089FFE3E71E
:1059C0000022732322602B60FEF76FBD04F056FFA8
:1059D000002840F371817C487F4E05F047FC01228E
:1059E0006223B06522602B60B0E504F047FF002819
:1059F00040F362817448784E05F038FC00EB80007B
:105A0000430001216222736621602A609EE504F052
:105A100035FF002840F350816B486F4E05F026FC9F
:105A200006F0E6FD674906F0EBFE01226223B06155
:105A300022602B608AE504F021FF002840F33C81BE
:105A40006148654E05F012FC012262233065226038
:105A50002B607BE504F012FF002840F32D815A48AB
:105A60005D4E05F003FC01226223306722602B604B
:105A70006CE504F003FF002840F31E815248564EA7
:105A800005F0F4FB01226223706722602B605DE564
:105A900004F0F4FE002840F30F814B484E4E05F011
:105AA000E5FB01226223F06622602B604EE504F0E4
:105AB000E5FE002840F300814348474E05F0D6FB41
:105AC00006F096FD01226223B06222602B603DE564
:105AD00004F0D4FE002840F3EF803B483E4E05F032
