:1000000000800020BD01000005780000BD770000E1
:10001000BD770000BD770000BD770000BD77000010
:10002000BD770000BD770000BD77000005780000B7
:1000300005780000BD770000ED950000F196000006
:1000400005780000057800000578000005780000BC
:1000500005780000057800000578000005780000AC
:10006000057800000578000005780000057800009C
:10007000057800000578000005780000057800008C
:10008000057800000578000005780000057800007C
:10009000057800000578000005780000057800006C
:1000A000057800000578000005780000057800005C
:1000B00005780000D96B0000E56B0000E96B0000DB
:1000C000F56B0000F96B0000FD6B00000578000087
:1000D000057800000578000005780000057800002C
:1000E000057800000578000005780000057800001C
:1000F00005780000FD9D000005780000A184000047
:10010000057800006D860000057800000578000085
:1001100005780000057800000578000005780000EB
:1001200005780000057800000578000005780000DB
:1001300005780000057800000578000005780000CB
:1001400005780000057800000578000005780000BB
:1001500005780000057800000578000005780000AB
:1001600005780000B98800000578000005780000D7
:10017000057800000578000005780000057800008B
:10018000057800000578000005780000057800007B
:10019000057800000578000005780000057800006B
:1001A000057800000578000005780000057800005B
:1001B000057800000578000005780000564B4CF2E9
:1001C000205210B51A804DF628121A8000BF00BFC9
:1001D00007F01CFB514B4FF010621A60504A9A60B6
:1001E000504ADA60504A136813F4807304D14F49BF
:1001F0000B604FF4A85313604D4B1A78110703D5C9
:100200001A7842F008021A704A4B4B492A221A7097
:100210004A4A4B4B8B4204D252F8040F43F8040B6A
:10022000F8E7484B484900228B4202D243F8042B9E
:10023000FAE74649464A002352F8230041F82300D2
:1002400001336F2BF8D1434B434A802103F8011B44
:100250009342FBD1414B3D4A1A60414B8A221A70AE
:10026000A3F5805324225A70A0221A709A7992071B
:10027000FCD59A79D406FCD43A4A937903F00C035E
:10028000082B384BF9D103221A7140225A719A79FE
:100290009006FCD5334A9179324B4906FBD5324A58
:1002A000324911600221516020221A709A7902F0BD
:1002B0000C020C2AFAD12E4B2E4A1A602E4B2F4AD2
:1002C0001A6000225A60072243F8042C2C4AC3F813
:1002D0000C2D62B607F050FD144B1B68DA0705D5EC
:1002E000284807F02DFB284B284A1A60284B1B781A
:1002F0005B0609D5244C254B22689A4204D121483B
:1003000007F01EFB002323600BF060F807F084FA6F
:1003100009F034FCFEE700BF0E20054030800440A9
:10032000823F04000100002B10D0034014D0034092
:1003300002D0074000E007402892FF1FA40E0100F2
:100340002087FF1F2892FF1F10C3FF1F0082FF1F7F
:100350000000000000E400E05FE400E008ED00E0E1
:100360000050064000400640448004400000030165
:1003700004800440C010050014E000E0FF76010096
:1003800000002020EF27575C1CE00340A5C3945ACF
:1003900000F00740FFFFFFFFFFFFFFFFFFFFFFFF32
:1003A000FFFFFFFFFFFFFFFFFFFFFFFFFFFFFFFF5D
:1003B000FFFFFFFFFFFFFFFFFFFFFFFFFFFFFFFF4D
:1003C000FFFFFFFFFFFFFFFFFFFFFFFFFFFFFFFF3D
:1003D000FFFFFFFFFFFFFFFFFFFFFFFFFFFFFFFF2D
:1003E000FFFFFFFFFFFFFFFFFFFFFFFFFFFFFFFF1D
:1003F000FFFFFFFFFFFFFFFFFFFFFFFFFFFFFFFF0D
:10040000FFFFFFFFFFFFFFFFFFFFFFFFDEF9FFFF23
:1004100010B5054C237833B9044B13B10448AFF33E
:1004200000800123237010BD2892FF1F00000000F0
:10043000A00E0100084B10B51BB108490848AFF3E6
:1004400000800848036803B910BD074B002BFBD0A0
:10045000BDE81040184700BF000000002C92FF1FAD
:10046000A00E01002892FF1F000000002DE9F041BE
:10047000002600F1600400F174074FF0000854F802
:10048000045F0E4928460AF04BFF0D4950B128463B
:100490000AF028FF30B1304629460AF07DFC08F109
:1004A0000108064640460AF02BFD014630460AF098
:1004B0002FFEBC420646E2D1BDE8F0810000A0C19B
:1004C00000001643F0B4124F0024031F00F11C017A
:1004D00000F13C0200F17C0643F8044FB34241F8BE
:1004E000047F4FF0000542F8044FF5D1094A0A494C
:1004F0000566002345668566C566C567026782672F
:10050000416780F8843080F89C30F0BC704700BFB1
:100510000000A040000048430000C8C290F88C00D2
:10052000704700BF90F88800704700BF90F89000B7
:10053000704700BF90F89400704700BF202994BF17
:1005400050F82100002070472DE9F0410B4E804605
:10055000041F00F17C0754F8045F314628460AF076
:10056000C1FE30B1D8F8801028460AF0D9FE00B19B
:100570002E46BC42EFD13046BDE8F081000020415C
:100580002DE9F041D0F880704FF00008041F00F111
:100590007C0654F8045F394628460AF0C1FE084933
:1005A00048B128460AF09EFE414620B128460AF08E
:1005B000B7FE00B1A846B442EBD14046BDE8F08199
:1005C000000070422DE9F047D0F8807082464FF06D
:1005D0000009041F00F17C064FF0000854F8045F86
:1005E000394628460AF09CFE0C4950B128460AF0CC
:1005F00079FE30B1484629460AF0CEFB08F10108E1
:100600008146B442EAD1CAF8A08040460AF078FC9C
:10061000014648460AF07CFDBDE8F08700007042C4
:10062000D0F8A000704700BFD0F8983070B50446ED
:100630006BBBFFF71BFF4FF07C510AF071FE28B334
:10064000666E4FF07C5130460AF06AFEA56E10BB14
:10065000E46E4FF07C5128460AF062FE58B12946FC
:1006600030460AF05DFE30B1214628460AF03AFED7
:1006700008B12C4624E04FF07C5120460AF050FE91
:1006800020B1284621460AF04BFE98B970BD00EB18
:100690008303186ECFE7304629460AF023FEE46E46
:1006A0000028D6D0304621460AF01CFE0028D0D0C3
:1006B000344605E0304621460AF032FE0028E5D0F7
:1006C000204670BD01392DE9F843814614460D29B5
:1006D00000F2A582DFE811F061009E00DB00180146
:1006E00055019801D5010F02A302A3024B02630238
:1006F0008B020E00107A537A00F003000833984002
:100700000AF0FEFBBD490AF04FFCBD490AF042FB6E
:10071000D9F87040D9F86850D9F87470D9F8646085
:10072000C9F878004846FFF77FFF214680460AF067
:10073000D9FD08B1C9F87080314628460AF0F0FDAD
:10074000002840F07182384631460AF0CBFD10B1E6
:100750003546C9F8745009F11C05A9F1040709F1DF
:100760003C0609F19C0857F8044F55F8040F214640
:100770000AF0D6FD30B1D9F8801020460AF0C6FD47
:1007800000B12C6056F8041F20460AF0C9FD00B1E4
:1007900034604545E7D1BDE8F883107A537A00F01C
:1007A0000F00083398400AF0ABFB96490AF0FCFBB7
:1007B000C9F80400A07AE37A00F00F0008339840EB
:1007C0000AF09EFB8F490AF0EFFBC9F80800207B76
:1007D000637B00F00F00083398400AF091FB8949D1
:1007E0000AF0E2FBC9F80C00A07BE37B00F00F00ED
:1007F000083398400AF084FB82490AF0D5FBD9F807
:100800007040C9F81000D9F86850D9F87470D9F858
:10081000646087E7107A537A00F00F00083398403D
:100820000AF06EFB77490AF0BFFBC9F81400A07A02
:10083000E37A00F00F00083398400AF061FB714939
:100840000AF0B2FBC9F81800207B637B00F00F00B0
:10085000083398400AF054FB6A490AF0A5FBC9F82E
:100860001C00A07BE37B00F00F00083398400AF0E7
:1008700047FB64490AF098FBD9F87040C9F820009A
:10088000D9F86850D9F87470D9F864604AE7107ADA
:10089000537A00F00F00083398400AF031FB5949B1
:1008A0000AF082FBC9F82400A07AE37A00F00F0076
:1008B000083398400AF024FB52490AF075FBC9F846
:1008C0002800207B637B00F00F00083398400AF07B
:1008D00017FB4C490AF068FBC9F82C00A07BE37BAE
:1008E00000F00F00083398400AF00AFB45490AF06F
:1008F0005BFBD9F87040C9F83000D9F86850D9F8D6
:100900007470D9F864600DE7107A537A00F00F0024
:10091000083398400AF0F4FA3A490AF045FBC9F85E
:100920003400A07AE37A00F00F00083398400AF010
:10093000E7FA34490AF038FBC9F83800207B637BBA
:1009400000F00F00083398400AF0DAFA2D490AF057
:100950002BFBC9F83C00A07BE37B00F00F000833C1
:1009600098400AF0CDFA27490AF01EFBD9F87040EA
:10097000C9F84000D9F86850D9F87470D9F86460A3
:10098000D0E6107A537A00F00F00083398400AF04E
:10099000B7FA1C490AF008FBC9F84400A07AE37AC8
:1009A00000F00F00083398400AF0AAFA15490AF03F
:1009B000FBFAC9F84800207B637B00F00F00083386
:1009C00098400AF09DFA0F490AF0EEFAC9F84C0077
:1009D000A07BE37B00F00F00083398400AF090FA08
:1009E00008490AF0E1FAD9F87040C9F85000D9F87E
:1009F0006850D9F87470D9F8646093E6D3BC633D4D
:100A00005839DE410AD7A33A107A537A00F00F0022
:100A1000083398400AF074FA87490AF0C5FAC9F811
:100A20005400A07AE37A00F00F00083398400AF0EF
:100A300067FA81490AF0B8FAC9F85800207B637B4D
:100A400000F00F00083398400AF05AFA7A490AF089
:100A5000ABFAC9F85C00A07BE37B00F00F00083321
:100A600098400AF04DFA74490AF09EFAD9F870409D
:100A7000C9F86000D9F86850D9F87470D9F8646082
:100A800050E6107A537A00F00F00083398400AF0CD
:100A900037FA69490AF088FAC9F86400E37A064629
:100AA000A07A083300F00F0098400AF029FA624952
:100AB0000AF07AFAC9F86800637B0546207B0833A0
:100AC00000F00F0098400AF01BFA5B490AF06CFA3C
:100AD000C9F86C00A07BE37B00F00F00083398405E
:100AE0000AF00EFA54490AF05FFAD9F87470C9F89E
:100AF0007000044616E6107A537A00F00F000833AF
:100B000098400AF0FDF94C490AF04EFAC9F8740011
:100B1000E37A0746A07A083300F00F0098400AF005
:100B2000EFF945490AF040FAC9F87800207B637B69
:100B300000F00F00083398400AF0E2F93E490AF04D
:100B400033FAC9F87C00A07BE37B00F00F00083388
:100B500098400AF0D5F938490AF026FAD9F87040D9
:100B6000C9F88000D9F86850D9F86460DAE5107ADD
:100B7000537A00F00300083398400AF0C1F92F4976
:100B80000AF012FA2E490AF005F9D9F87040C9F8AE
:100B900064000646D9F86850D9F87470C2E5107A36
:100BA000537A00F00300083398400AF0A9F923496A
:100BB0000AF0FAF922490AF0EDF8C9F86800637AF8
:100BC0000546207A083300F0030098400AF098F9AF
:100BD0001A490AF0E9F91A490AF0DCF8D9F8704024
:100BE000C9F86C00D9F87470D9F864609AE5107A85
:100BF000537A00F00300083398400AF081F90F4956
:100C00000AF0D2F90E490AF0C5F8D9F86850C9F8C7
:100C100070000446D9F87470D9F8646082E5046FF6
:100C2000856E476F466E7DE5394628460AF078FBAB
:100C300000283FF490AD8CE50AD7A33AD3BC633DBE
:100C40005839DE4138B5846E456E214628460AF093
:100C500049FB00B92C46204638BD00BFD0F898208B
:100C60000AB9FFF703BC00EB8203186E704700BFA0
:100C70002DE9F8430026D0F88080066681460446B8
:100C800000F1800754F8045B414628460AF048FB0F
:100C9000084950B128460AF025FB30B130462946B4
:100CA0000AF07AF80646C9F86000BC42EAD130463C
:100CB000BDE8F8830000704202299ABF00EB810072
:100CC000406E0020704700BF3E2998BF80F89C10FE
:100CD000704700BF90F88400704700BFC0F89810BC
:100CE000704700BF80F88410704700BF30B5C0F86F
:100CF000801083B0084609F0ADFC074C022502467F
:100D00000B460095204608F0FBFD204603B0BDE8E9
:100D1000304008F09BBD00BFCC87FF1F70B5064672
:100D200000F1280400F526552046A834FFF7CAFB39
:100D3000AC42F9D106F1D005012428460021FFF785
:100D4000D1FF214628460134FFF7BEFF3F2C05F1B5
:100D5000A805F2D142F6881400250548054A064B3D
:100D60003555002130617161B261F361304670BD6B
:100D700000007A44000048430000C8C242F68C13C9
:100D80002DE9F041002200F526578046C2500C376D
:100D900000F1D00400F5265602E0A834B4420DD08C
:100DA0002046FFF797FF0028F7D020463D68FFF761
:100DB00037FCA8342844B4423860F1D142F68C1391
:100DC00058F80300BDE8F08170B50D46096840F29F
:100DD0007643994200F006811ED940F2E3739942AE
:100DE00000F0128150D840F27D43994200F0F1802A
:100DF00062D9B1F5FC6F00F0018140F2D08040F281
:100E0000E173994200F0B68040F2E273994240F0FB
:100E1000C48001230C2692E040F26A43994200F01C
:100E2000FF8018D840F26443994200F0FC8054D906
:100E300040F26643994200F0F080C0F0E880B1F5DE
:100E40008D6F00F08B8040F26943994240F0A5809D
:100E500003231E4673E040F27143994200F0BC80C8
:100E60005CD940F27343994200F0C280C0F0BD806B
:100E700040F2744399427AD040F27543994240F06F
:100E80008C80022304265AE040F2E973994200F074
:100E9000A68033D940F2EC73994200F0978040F27B
:100EA0008B8040F2ED7399425BD040F2EE73994231
:100EB00073D104230D2642E040F27943994200F0B9
:100EC000A08060D940F27A43994259D040F27C43E5
:100ED000994262D10423012631E040F261439942F4
:100EE00000F0898062D940F26243994245D040F2D5
:100EF0006343994251D10123072620E040F2E57374
:100F000099421AD0C0F0868040F2E673994214D01C
:100F1000B1F5FD6F41D103230B2610E040F26D4384
:100F2000994250D035D940F26E4399421CD0B1F568
:100F30008E6F32D10123022601E002230C26A82461
:100F400004FB0304283420460121FFF7CBFE2A4688
:100F500031462046BDE87040FFF7B4BB03230126AD
:100F6000EDE704230C26EAE704231E46E7E7022305
:100F70001E46E4E701230D26E1E701230526DEE70F
:100F800003230626DBE7B1F58F6F06D10323022684
:100F9000D5E740F26C4399429CD00023CFE740F262
:100FA0007E439942F9D104230526C8E7B1F58C6F39
:100FB000F3D101231E46C2E740F2EA739942ECD115
:100FC00003230D26BBE704230226B8E704230B26E0
:100FD000B5E704230326B2E701230426AFE7032382
:100FE0000C26ACE702230626A9E701230626A6E77E
:100FF00001230826A3E701230326A0E701230B26EC
:101000009DE7032304269AE701230E2697E7022390
:10101000032694E702230B2691E7022305268EE799
:10102000032305268BE70223012688E7704700BFCC
:10103000704700BF2DE9F0430446002383B0064605
:1010400044F8D03B012504E001353F2D04F1A8040C
:1010500066D02046FFF73EFE0028F5D04E4800F04F
:10106000CDFC29464D4800F0C9FC2046FFF700FEA4
:1010700009F0F0FA02460B46494800F0BFFC204652
:10108000FFF762FA80462046FFF77AFA07464046A5
:1010900009F0E0FA80463846894609F0DBFA424614
:1010A0004B46CDE900013F4800F0A8FC0021204656
:1010B000FFF702FE012180462046FFF7FDFD0746AF
:1010C000404609F0C7FA80463846894609F0C2FA18
:1010D00042464B46CDE90001334800F08FFC2046E4
:1010E000FFF7C6FD0146306809F056FE3060204625
:1010F000FFF79AFAB1690AF0F5F8002833D12046D3
:10110000FFF7A0FDF1690AF00BF900289CD02046FA
:10111000FFF798FD01353F2DF06104F1A80498D147
:10112000706809F0EDFE0146306809F0F1FF716961
:10113000306004460AF0F4F800B174613169204669
:101140000AF0D0F800B134610B2006F091FD42F6B0
:101150008813F35C60B99BB142F688130122F25404
:1011600003B0BDE8F0832046FFF75EFAB061C6E742
:1011700053B942F688130022F25403B0BDE8F0835D
:101180000A4800F069FCE7E7094800F04FFC42F626
:1011900088130022F254F0E780F7000098F5000071
:1011A000D4F50000E8F5000014F6000030F6000069
:1011B00068F60000104B70B50646836000F1D0045D
:1011C00000F5265502E0A834AC4213D02046FFF7C4
:1011D00081FD0028F7D02046FFF7B6F9B1680AF084
:1011E00081F80028EFD02046FFF7AEF9A834AC42D2
:1011F000B060EBD1B06870BD0000A040002370B5B6
:101200000646C36000F1D00400F5265502E0A8347C
:10121000AC4213D02046FFF75DFD0028F7D02046F2
:10122000FFF7AEF9F1680AF07BF80028EFD020460E
:10123000FFF7A6F9A834AC42F060EBD1F06870BDBE
:101240000068704741607047F8B50F46164600F1D8
:10125000D004012504E001353F2D04F1A8041BD082
:101260002046FFF737FD0028F5D029460B4808F047
:101270003DFB0A4808F0EAFA782008F0D5F8204645
:101280003946FFF72BFD013520463146FFF72EFD8D
:101290003F2D04F1A804E3D1F8BD00BFCC87FF1FA8
:1012A0002DE9F84342F68413002700F526568046C0
:1012B000C7504FF00009043600F1D00400F5265560
:1012C00002E0A834A54213D02046FFF703FD002812
:1012D000F7D03368013333602046FFF7BFFC1D4968
:1012E0000AF01EF888B9A834A54207F10107EBD12E
:1012F00042F6841358F80300C01B09F001FE0146B2
:10130000484609F005FFBDE8F8832046FFF7A6FC34
:101310000146484609F040FD81462046FFF79EFC05
:10132000D8F8201009F0FCFF70B92046FFF796FCB2
:10133000D8F8241009F0D6FF0028C2D02046FFF7C5
:101340008DFCC8F82400BCE72046FFF787FCC8F8EE
:101350002000EAE700008CC2006A7047406A7047CC
:10136000F8B50746002600F1D00400F5265502E046
:10137000A834AC420FD02046FFF7ACFC0028F7D0D1
:101380002046FFF71FF90146304609F005FDA83455
:10139000AC420646EFD142F68413F85809F0B0FD8E
:1013A0000146304609F0B4FEF8BD00BF2DE9F04F0C
:1013B0008FB00446C8480C9100F0C8FAC64800F047
:1013C000C5FAC54800F0C2FA42F68413204654F824
:1013D00003A0FFF7D3FC63680D938146206809F0F2
:1013E00039F9064620460F46FFF7BAFF83462046E6
:1013F000D4F80C80A568FFF753FF09F02BF9CDE96D
:101400000A012946404609F0C5FCB44909F0CCFD63
:1014100009F020F9CDE90801404609F01BF9CDE9B2
:101420000601284609F016F9CDE90401584609F0ED
:1014300011F94A46CDE902010D9BA9485146CDE973
:10144000006700F083FAA44800F080FAD0344FF02F
:1014500001094FF0000807E009F10109B9F13F0F58
:1014600004F1A80400F02F812046FFF733FC002888
:10147000F2D02046FFF752F82046FFF753F82046F7
:10148000FFF754F82046FFF755F80821954807F074
:1014900047FF4946944808F029FAB9F1090F40F38B
:1014A00015810221914807F03BFF2046FFF7E0FB42
:1014B00009F0D0F89DF83070009702460B468A4834
:1014C00008F01EFA01218A4807F02AFF4646012546
:1014D0001FE00621874807F023FF3146824808F0C5
:1014E00005FA0221844807F01BFF29462046FFF732
:1014F00025F809F0AFF8009702460B467A4808F045
:10150000FFF9013501217A4807F00AFF0C2D09D0B7
:101510005E46092E06F1010BDBDC0121774807F05E
:10152000FFFED6E7704808F091F908F10B0A08F1C0
:1015300016050D261FE006216E4807F0F1FE514604
:10154000694808F0D3F902216B4807F0E9FE3146FB
:101550002046FEF7F3FF09F07DF8009702460B46A0
:10156000614808F0CDF9012161480E4407F0D8FE2A
:101570005D450AD0DA46BAF1090F0AF1010BDADC4F
:1015800001215E4807F0CCFED5E7574808F11D0859
:1015900008F05CF919261FE00621564807F0C0FE46
:1015A0002946514808F0A2F90221534807F0B8FE35
:1015B00031462046FEF7C2FF09F04CF8009702467C
:1015C0000B46494808F09CF9012149480E4407F0B0
:1015D000A7FED84509D05D46092D05F1010BDBDCDE
:1015E0000121464807F09CFED6E70921444807F050
:1015F00097FE00212046FFF75FFB09F02BF802253C
:1016000002460B460095384808F07AF90A213D4811
:1016100007F086FE01212046FFF74EFB09F01AF87D
:10162000009502460B46304808F06AF90A21364810
:1016300007F076FE29462046FFF73EFB09F00AF840
:10164000009502460B46284808F05AF901212F4818
:1016500007F066FE244808F0F9F80A212C4807F044
:101660005FFE03212046FFF727FB08F0F3FF0095FC
:1016700002460B461C4808F043F90121234807F0B5
:101680004FFE194808F0E2F80A21224807F048FE08
:1016900004212046FFF710FB08F0DCFF009502460E
:1016A0000B46114808F02CF90121184807F038FEC4
:1016B00009F101090C4808F0C9F8B9F13F0F04F12C
:1016C000A8047FF4D1AE0FB0BDE8F08F01210B4824
:1016D00007F026FEE5E600BF80F7000000007A4430
:1016E00018F90000B8F90000CC87FF1FBC07010003
:1016F000C4F90000C8F90000CCFB0000DCFB0000CE
:10170000D0F90000DCF90000E8F90000F4F900006D
:10171000F8F9000004FA00002DE9F04100F1D005CD
:1017200082B0012704E001373F2F05F1A80559D009
:101730002846FFF7CFFA0028F5D039462B4808F0A5
:10174000D5F801212A4807F0EBFD00244FF00208EC
:1017500021462846FEF7F2FE08F07CFFCDF8008017
:1017600002460B46214808F0CBF8013401212048FD
:1017700007F0D6FD082C4FF00206E9D100212846DB
:10178000FFF79AFA08F066FF009602460B461748E4
:1017900008F0B6F80121164807F0C2FD01212846DD
:1017A000FFF78AFA08F056FF009602460B460F48EC
:1017B00008F0A6F801210E4807F0B2FD3146284690
:1017C000FFF77AFA08F046FF009602460B460748F4
:1017D00008F096F80137054808F038F83F2F05F172
:1017E000A805A5D102B0BDE8F08100BFCC87FF1FDE
:1017F00010FA0000014B1870704700BF2087FF1FD0
:101800000278002A00F0908070B5034682B00D4641
:10181000252A2AD158785C1C08B325282FD0732894
:1018200031D0642824D0692822D066284FD07A2865
:1018300059D0782835D058282FD062283ED0422859
:1018400038D06C2814D0632812D0742857D054286C
:101850005FD007F0E9FD6278631C002AD8D13448D4
:1018600002B0BDE8704007F0F1BF18781C46F0E701
:101870002B1D29682E481D4608F038F8EBE7104666
:1018800007F0D2FDE7E72E6830460AF099FB0146E3
:101890003046043507F044FDDDE70221254807F016
:1018A0003FFD2E1D2968224800231022354607F0EF
:1018B000DDFFD0E70221204807F032FD2E1D296808
:1018C0001B4800230222354607F0D0FFC3E7073547
:1018D00025F007050321D5E90023154800910835B7
:1018E00008F00EF8B7E7073525F007050021D5E920
:1018F00000230F480091083508F002F8ABE729688B
:1019000001290EBF0D480E480121043507F008FDDE
:10191000A1E72B68012B07BF04210A480A480521CB
:10192000043507F0FDFC96E7014807F08FBF00BFC4
:10193000CC87FF1F14FA000018FA00001CFA000000
:1019400020FA000024FA00002CFA00000FB400B5C1
:1019500083B004A951F8040B0191FFF751FF03B0C4
:101960005DF804EB04B0704770B51B4B1B4C1B6853
:1019700082B00D460193019B236019460446002363
:10198000164617480A2207F071FF0321154807F091
:10199000C7FC032C07D8DFE804F01A151002052154
:1019A000114807F0BDFC0221104807F0B9FC314690
:1019B0002846FFF725FF02B070BD07210C4807F04D
:1019C000AFFCF0E704210B4807F0AAFCEBE7052188
:1019D000094807F0A5FCE6E718C0FF1F4492FF1F67
:1019E000CC87FF1F34FA000050FA0000CCFB000047
:1019F00048FA000040FA000038FA00000FB400B5C1
:101A0000094B187883B020B103B05DF804EB04B043
:101A1000704705AB1A4604990193FFF7A5FF03B081
:101A20005DF804EB04B070472087FF1F0FB4094B2B
:101A300000B51B78012B83B004D903B05DF804EB2B
:101A400004B0704705AB1A46049901930120FFF7D3
:101A50008BFFF2E72087FF1F0FB40B4B00B51B78FD
:101A6000032B83B004D903B05DF804EB04B07047D6
:101A700005AB1A46049901930320FFF775FF03B0E5
:101A80005DF804EB04B070472087FF1F30B4074DAA
:101A9000074C084900232B70236003654365836569
:101AA00080F85C300B6030BC704700BF5092FF1F65
:101AB0004C92FF1F4892FF1FF8B53948394F3A4DF5
:101AC0003A4E3B4CFFF742FF3A4B3B4A3B483C49BE
:101AD0005A60D8603B4A1F6100203B4F59615D62EC
:101AE0003A499E614FF07C55394E9C62394CDA621E
:101AF00018630C2238485F639963384F5D6440F681
:101B00001C410A259E64DC6441F204065A241A65CD
:101B1000186202220120C3F8B8709966304FDD6662
:101B2000002164251E675C674FF4967632245A7054
:101B30005A7218725865DF61DF6383F840105E6681
:101B4000DE651C664FF47A7E9D65264F9967264EAA
:101B5000DA67C3F88010C3F89440C3F8A040C3F814
:101B60009C10FF2441F28831C3F8A800C3F8AC20D0
:101B7000052040F2D662C3F8B050C3F898E0C3F82D
:101B80008870C3F88C60C3F8A440A3F8B600C3F80B
:101B90009010A3F8B410A3F88420A3F88620F8BD11
:101BA00058FA000000004040CDCCCC3DCDCC4C409C
:101BB000000082423C93FF1F48E8010066668640B1
:101BC00033338340000020C1000020420000A040C9
:101BD0009A9979400AD7233D333373409A99993EB5
:101BE000CDCC4C3E0000684200C02044F0B54FF41C
:101BF0007A6085B006F072F800210F2006F046F8F2
:101C000000210E2006F042F80021112006F03EF8D7
:101C10000021102006F03AF80021122006F036F8D4
:101C20000021132006F032F801210B2006F02EF8D7
:101C300001210C2006F02AF80121142006F026F8D4
:101C40000121152006F022F80121162006F01EF8C9
:101C50000121172006F01AF80121052006F016F8D8
:101C60008E4C8F4D0121062006F010F801210D2029
:101C700006F00CF8208809F03FF90146162005F01F
:101C80006FFF208809F038F90146172005F068FF3A
:101C9000208809F031F90146052005F061FF208810
:101CA00009F02AF900240146062005F059FF0094A6
:101CB00023467C4A7C497D4804F036FCE6B2324635
:101CC00077497A4804F0DEFB2B79754977486FF342
:101CD0000003013432462B7104F0CAFB082CEDD10D
:101CE0000924E6B232466E49704804F0CBFB2B79EA
:101CF0006B496E4843F00103013432462B7104F006
:101D0000B7FB0D2CEDD16A4C4FF0FF32206810214B
:101D100004F0D6FF20684FF0FF32102104F0A8FF36
:101D200020684FF0FF32022104F0B6FF20684FF028
:101D3000FF32022104F0BAFF00220F21206804F0D4
:101D4000C9FF0C215B4807F0EBFA5B4807F07EFD0A
:101D500014215A4807F0E4FA574807F077FD56482F
:101D600007F074FD1721564807F0DAFA524807F0D9
:101D70006DFD544B1B789A0600F1BE80514B1B78C9
:101D80001B0700F1C5804F4B1B785F0700F1CC802B
:101D90004C4B1B789E0700F1D3804B4B1B781D06E4
:101DA00000F1DA80484B1B785C0600F1E180464B7D
:101DB0001B78980600F1E880434B1B78590700F127
:101DC000EF80414B1B781A0700F1F6803E4B1B78E1
:101DD0009B0700F1FD80384807F038FD72B63B4A9A
:101DE0004CF220534DF628112024138023461180F5
:101DF000013BFDD1364D3748374900234FF480561B
:101E00002E8003800B8032F80E3C9BB243F0D3034C
:101E100022F80E3C62B69D2006F0C8FB21462F48F2
:101E20002F4D07F07DFA244807F010FD05F1BC06A0
:101E30002F462C46601B05F02FFC04F8010BB44222
:101E4000F8D13B78102B01D0FFF736FE2548FFF77D
:101E5000EFF80420FFF7CEFC234B224800221A6043
:101E6000FFF7E4F801210D2005F0FCFE796D1D4817
:101E7000FFF7E8F97A6C97F840101A48FFF7E4F991
:101E80001A4B1B491A68039203981B680293029A23
:101E9000184B08601A6005B0F0BD00BF2887FF1F0F
:101EA0000094FF1F0CC0FF1F48E8010070BEFF1F19
:101EB000AC94FF1F78FA0000CC87FF1F88FA00005F
:101EC000A0FA000001F0074000F007400E20054096
:101ED000042005400620054016200540A4FB000014
:101EE0003C93FF1FE094FF1F6492FF1F18C0FF1F69
:101EF000DC94FF1F0894FF1F2121394807F010FAD6
:101F0000384807F0A3FC384B1B781B077FF53BAF25
:101F10000C21364807F004FA324807F097FC324BA0
:101F20001B785F077FF534AF0E21314807F0F8F9D1
:101F30002C4807F08BFC2C4B1B789E077FF52DAFB0
:101F400017212C4807F0ECF9264807F07FFC2A4BB4
:101F50001B781D067FF526AF0E21284807F0E0F913
:101F6000204807F073FC244B1B785C067FF51FAFFD
:101F70001221234807F0D4F91A4807F067FC1E4BDA
:101F80001B7898067FF518AF13211E4807F0C8F993
:101F9000144807F05BFC184B1B7859077FF511AF0D
:101FA0001C21194807F0BCF90E4807F04FFC124BF2
:101FB0001B781A077FF50AAF1921144807F0B0F90A
:101FC000084807F043FC0C4B1B789B077FF503AFD9
:101FD00018210F4807F0A4F9024807F037FCFAE689
:101FE000B8FA0000CC87FF1F01F00740DCFA0000C0
:101FF000ECFA0000FCFA000000F0074014FB0000BF
:1020000024FB000038FB00004CFB00006CFB0000D0
:1020100088FB000070B5464C464D4748E6680023F3
:102020002B70FFF7EBF80146304609F05BF908B179
:1020300004232B704048FFF7BDF8216909F052F9DD
:1020400018B12B7843F010032B703B48FFF728F9A9
:10205000A16A09F065F918B12B7843F040032B70A1
:10206000002335486B70FFF71BF9E16A314E09F028
:1020700039F908B10123737000232F48EB70FFF783
:10208000BDF805462C482B4EFFF794F8014628462C
:1020900008F080FEE16B09F043F908B10123F37009
:1020A000264D254800232B70FFF7A8F8616A0646E5
:1020B000E06808F06FFE0146304609F031F908B1DA
:1020C00004232B701C48FFF775F8616A06462069E7
:1020D00008F062FE0146304609F004F918B12B7889
:1020E00043F010032B701448FFF7DAF8A16B064693
:1020F000A06A08F04FFE0146304609F011F918B108
:102100002B7843F040032B7000230B486B70FFF7D4
:10211000C7F8A16B0546E06A084C08F03DFE014691
:10212000284609F0DFF808B10123637070BD00BFD5
:102130003C93FF1F3893FF1FE094FF1F9C94FF1FE9
:102140002DE9F0417C4C2368012B82B031D0022B69
:1021500000F0A880032B00F0C8803BBB774B784A87
:10216000D3F8A010D3F8A43012685B1A632B0EDDED
:10217000744803FB02F380FB0302DB17C3EB62131B
:102180001944062002B0BDE8F04105F0EBBB6E48F3
:1021900003FB022380FB0302DB17C3EB2212114473
:1021A000062002B0BDE8F04105F0DCBB02B0BDE89E
:1021B000F081664E33680A33B3F57A7F00F3B78057
:1021C0001846336008F09CFE614908F0EDFE804639
:1021D0005A4DD5F8A00008F093FE0746D5F8A400A4
:1021E00008F08EFE394608F0D5FD414608F0DCFEC9
:1021F000584908F08DFF394608F0CEFD09F09AF8ED
:102200000146062005F0AEFB0221534807F088F88E
:10221000524807F01BFB0621514807F081F830684F
:1022200008F06EFE4A4908F0BFFE08F013FA0227D4
:1022300002460B460097494807F062FB0D214948CA
:1022400007F06EF8D5F8A00008F05AFE8046306816
:1022500008F056FE3E4908F0A7FE0646D5F8A40051
:1022600008F04EFE414608F095FD0146304608F064
:102270009BFE384908F04CFF414608F08DFD08F000
:10228000E9F900970B460246344807F039FB394616
:10229000314807F045F8314807F0D8FA2368022B97
:1022A0007FF458AF294B254E00221A60D6F8A000C3
:1022B00008F026FE0546D6F8A40008F021FE2946BF
:1022C00008F068FD002108F06FFE224908F020FFA9
:1022D000294608F061FD09F02DF80146062005F0B9
:1022E00041FB2368032B7FF438AF184B134E4FF498
:1022F0007A721A60D6F8A00008F002FE0546D6F8F9
:10230000A40008F0FDFD294608F044FD114908F03D
:102310004BFE104908F0FCFE294608F03DFD09F08F
:1023200009F80146062005F01DFB236815E7002388
:102330004FF0000833604BE78C94FF1F3C93FF1F66
:102340003487FF1F1F85EB51CBF08D286892FF1F4C
:10235000CDCCCC3D0000C842BC070100CC87FF1F9C
:10236000C8FB0000D0FB000070B5A248A24C07F0EB
:102370006DFAA04807F06AFA9E4807F067FA0D2147
:102380009E4806F0CDFFD4F89C30012B11D09C4C18
:102390009848217800230A2207F068FA2378052B51
:1023A00067D8DFE813F0E900EE00F300F800FD0065
:1023B000E4000921934806F0B3FF9348FEF7FAFEC4
:1023C000216908F08FFF18B10F21904806F0A8FF8F
:1023D0008D48FEF713FFE16808F0A2FF18B10E2147
:1023E0008B4806F09DFF8848FEF708FF05468648A3
:1023F000FEF7E0FE0146284608F0CCFCE16B08F051
:102400008FFF18B11121834806F08AFF7E48FEF73E
:1024100047FFA16A08F084FF18B10C217E4806F03E
:102420007FFF7948FEF73CFFE16A08F05BFF18B1D7
:102430000D217A4806F074FF794B73481B68012B15
:1024400000F0C280FEF7B6FE21696B4D08F068FF10
:1024500078B16D48FEF7D2FEE96808F043FF40B15D
:10246000674B1B78052B00F0C08008216D4806F0F3
:1024700057FF02216C4806F053FF122005F0F8FBCD
:10248000012800F09C80112005F0F2FB012800F0EB
:102490009180664B1B68012B00F087800221624807
:1024A00006F03EFF624B5348196807F01FFA514887
:1024B00007F0CCF904215F4806F032FF0B2005F04D
:1024C000D7FB002301460A224A4807F0CFF90C2027
:1024D00005F0CEFB002301460A22464807F0C6F964
:1024E000142005F0C5FB002301460A22414807F0ED
:1024F000BDF9152005F0BCFB002301460A223D482A
:1025000007F0B4F906214C4806F00AFF4B4B394856
:1025100019680222002307F0A9F90421484806F0AF
:10252000FFFE112005F0A4FB002301460A223148DA
:1025300007F09CF9102005F09BFB002301460A22BE
:102540002C4807F093F9122005F092FB0023014676
:102550000A22284807F08AF9132005F089FB002396
:1025600001460A222348BDE8704007F07FB90721E1
:10257000344806F0D5FE7CE70621334806F0D0FE4D
:1025800077E70721314806F0CBFE72E70721304894
:1025900006F0C6FE6DE708212E4806F0C1FE68E78A
:1025A0000B212D4806F0BCFE63E711212B4806F0F5
:1025B000B7FE73E70A212A4806F0B2FE69E70E214A
:1025C000284806F0ADFE5EE7FEF7F4FD216A08F04C
:1025D000A7FE00283FF449AF1621234806F0A0FECD
:1025E0000A21224806F09CFE43E70A211F4806F014
:1025F00097FE3EE7CC87FF1F3C93FF1FE0FB0000E8
:102600009894FF1FF0FB0000E094FF1FFCFB00000C
:102610000CFC00001CFC000030FC000040FC000032
:102620007492FF1F74FC0000BC070100B494FF1FEC
:102630009094FF1FE8FC0000F0FC0000F893FF1FDF
:10264000F8FC0000B0FC000080FC000088FC0000EA
:102650009CFC0000A4FC000090FC0000D4FC0000E6
:10266000C8FC0000B8FC000050FC000068FC000042
:102670002DE9F04F934C944FE36F012B8DB000F098
:102680004981032B50D0914E914DA36F9148012B5E
:1026900009BF2968296801F10041296004F0EEFEB4
:1026A0003368002B40F0CE808A4804F0BDFEE36F13
:1026B0003860012B064600F0D280874908F030FED2
:1026C00078B98649304608F00DFE50B9844A854BEA
:1026D00012680B920B9A1A6000232B600DB0BDE8B4
:1026E000F08FDFF8FC817F4CD8F800300A930A980D
:1026F00023687D4FC01A08F0FFFB314608F054FCF8
:102700007A4908F005FD794908F002FD396808F0BA
:1027100043FBD8F800300993099B236000233860FD
:102720002B600DB0BDE8F08FDFF8C881704DD8F890
:102730000000664E012300220F212B6004F0CAFA2C
:102740002B68012B336800F00381002B40F0A68139
:102750000021D8F80000DFF8B891664D04F00CFBBA
:1027600033681FFA80FBC9F800B0002B40F07B8172
:102770000021D8F80000564DDFF878A104F082FA65
:10278000B4F8863040F6E44101FB0BF1B1FBF0F008
:10279000C01A00B208F0B4FB57498346D4F8880049
:1027A00008F002FC0146584608F0B2FCD9F80030A7
:1027B0002860632BDFF858B100F3498100232B60B8
:1027C0003368002B3FF461AF02214C4806F0A8FDAE
:1027D000D9F80020D8F8000040F6E443002103FBBC
:1027E00002F804F04FFAB8FBF0F008F085FB8046E1
:1027F000B4F8860008F084FB0146404608F0CAFAA7
:1028000007F028FF4FF0020802460B46CDF8008083
:102810003B4807F075F84146384806F081FD2868C6
:1028200007F018FFCDF8008002460B46344807F049
:1028300067F84146334806F073FD41462F4806F0DD
:102840006FFD22E7234804F0EFFD07F003FF0226A7
:1028500002460B4600962A4807F052F824E7244B1C
:102860001B68012B00F02681022B7FF435AF26492F
:1028700008F056FD30B92549304608F033FD0028F0
:1028800000F04781DFF85880164CD8F800300793E5
:1028900007982368144FC01A08F02EFB314608F041
:1028A00083FB124908F034FC104908F031FC396808
:1028B00008F072FAD8F800300693069B386023605F
:1028C0000AE700BF3C93FF1F8092FF1FD894FF1FB1
:1028D0007092FF1F1493FF1F0000FA430000FAC319
:1028E00018C0FF1FA894FF1F8C92FF1F00007A449E
:1028F0005087FF1FAC94FF1F17B7D138BC070100EA
:10290000CC87FF1F3CFD000000C82F4800A08CC6EC
:102910003493FF1F3D689849284608F0E3FC30B126
:102920002846964908F0FCFC00287FF4FDAEDFF84D
:102930005882934DD8F80000924E022300220E21B7
:102940002B6004F0C7F92B68012B33687FF4FDAED0
:10295000002B40F000810021D8F80000DFF86C92D5
:10296000894D04F009FA33681FFA80FBC9F800B0FA
:10297000002B40F0D5800021D8F80000834D04F0F2
:1029800081F9B4F8843040F6E44A0AFB0BFBBBFB48
:10299000F0F0C01A00B208F0B3FA7D498346D4F8CB
:1029A0008C0008F001FB0146584608F0B1FBD9F84D
:1029B000003028600021D8F800000AFB03FA04F078
:1029C00061F9B4F88430BAFBF0F00FFA80FAC3EB87
:1029D0000A03002BB4F8B620B8BF5B429342BCBFD9
:1029E00000232B603368002B3FF44FAE022169486F
:1029F00006F096FCD9F80020D8F8000040F6E44331
:102A0000002103FB02F804F03DF9B4F88410B8FB90
:102A1000F0F000B2411A604806F068FF02215D48FC
:102A200006F07EFC286807F015FE4FF0020802460B
:102A30000B46CDF80080584806F062FF0321574846
:102A400006F06EFC4146534806F06AFC1DE6DAF8D3
:102A50000000002104F016F9DBF8003064389842D9
:102A6000FFF4ACAEACE60021286804F00BF940F6A8
:102A7000E44100230A2201FB0BF1B1FBF0F14648CF
:102A800006F0F4FE0221434806F04AFCB4F8861032
:102A9000414806F02BFFD9F800B069E63E4806F041
:102AA000D5FE0C213E4806F03BFC0C213D4806F0CB
:102AB00037FC4DE63C4908F033FC58B93B493046F9
:102AC00008F010FC30B93A4A3A4B12680592059A60
:102AD0001A6001E6DFF8D880364CD8F8003004934D
:102AE00004982368344FC01A08F006FA314608F0FB
:102AF0005BFA324908F00CFB304908F009FB3968F1
:102B000008F04AF9D8F800300393039B386023603B
:102B1000E2E5274A274B12680892089A1A60DBE51B
:102B20000021286804F0AEF840F6E44100230A22B0
:102B300001FB0BF1B1FBF0F1174806F097FE012104
:102B40001F4806F0EDFBB4F88410134806F0CEFEE3
:102B5000D9F800B00FE7104806F078FEE36F012BBC
:102B60004FF00B010CBF1748174806F0D9FB0C219A
:102B70000C4806F0D5FBEEE600709446007094C653
:102B80005087FF1FD894FF1FAC94FF1F7092FF1F48
:102B900017B7D138BC070100CC87FF1F28FD000004
:102BA0002CFD000018FD00000000FA430000FAC3ED
:102BB00018C0FF1FA894FF1F8C92FF1F00007A44CB
:102BC000DCFB000000FD00000CFD00003493FF1F43
:102BD0002DE9F047B24D2B6884B0002B7ED0B14C6C
:102BE000DFF8C882B04EE36FAE4D012B00F08F804E
:102BF000D4F88030AB4F012B00F0BC80D6F80090A9
:102C0000D7F858A07D6DA94F05FB0AF54FF47A70EF
:102C100000FB05F008F074F9A5490546484608F0A0
:102C2000C3F9294608F074FAA24908F0BDF908F082
:102C300081FB6328C8F800004BDD28469C4908F05A
:102C400067FA642330603B609B4B1B68002B3DD0D0
:102C5000E36F944D012B00F0BB80032B00F0098142
:102C6000022B00F00C810221944806F059FB944B92
:102C7000186807F0EFFC022402460B4600949148C6
:102C800006F03EFE2146904806F04AFB21468B485E
:102C900006F046FBD8F800108A4806F027FE062109
:102CA0008A4806F03DFB3068814908F07DF907F05D
:102CB000D1FC009402460B46824806F021FE032117
:102CC000834806F02DFB7F4806F0C0FD04B0BDE848
:102CD000F0870028BCBF00233B60B5E77D4E714CF8
:102CE00033680293029A42F228339A4200F2BA8081
:102CF00033680393039A42F210739A4274D8E36FD5
:102D0000DFF8A881684E674D012B7FF471AF7248E0
:102D1000FEF726FB7149D5F86890EF6E08F044F98C
:102D200008F02EFB2A6F6B6FC9EB0202DB1B80B22F
:102D30009A42C9EB000040F3AD8003FB0000531C36
:102D400090FBF3F31F44A06D636DC8F8007000FBA7
:102D500007F003FB00F000EB8000400008F0D0F823
:102D60005349504F08F0D4F9D4F880303060012B2B
:102D70007FF444AF5848FEF7F3FA5849D7F8689003
:102D8000FD6E08F011F908F0FBFA3A6F7B6FD4F88A
:102D900058A0C9EB02025B1B80B29A42C9EB00004B
:102DA000C6BF03FB00000132584390FBF2F02844F9
:102DB000656D00FB0AF005FB00F000EB80004000B1
:102DC00008F09EF83A4908F0A3F9814630601AE706
:102DD000434B1B68012B4FF00A010CBF414842488E
:102DE00006F09EFAEB6F38E73B48FEF7B9FA3B492D
:102DF000A76EE66E08F0D8F808F0C2FA226F636F8B
:102E0000D21B9B1B80B29A42A0EB07003CDD03FB68
:102E10000000531C90FBF3F39819A26DDFF88C802F
:102E2000636DC8F8000002FB00F003FB00F000EB4C
:102E30008000400008F064F81D491B4E08F068F956
:102E40000123306002211D482B6006F069FA1D48FD
:102E500006F0FCFC5921254806F062FA194806F0F4
:102E6000F5FCC0E61C48626C94F84010FEF7ECF9E3
:102E70003EE710211E4806F053FAE36FF0E6072103
:102E80001C4806F04DFAEEE603FB00F393FBF2F369
:102E90009819C2E703FB00F393FBF2F31F4452E7D8
:102EA0006C92FF1F3C93FF1F8C92FF1F3487FF1F04
:102EB000E4388E3E0000C8423C87FF1FBC0701007B
:102EC0008092FF1FCC87FF1F3CFD0000D0FD00005B
:102ED000D8FD000018C0FF1FE094FF1F00007A44D7
:102EE0005087FF1F9CFD0000A8FD000040FD000072
:102EF000B4FD0000C8FD0000F0B5112083B004F05F
:102F0000B7FE012813D000210B2004F0ABFE0021F6
:102F10000C2004F0A7FE0021152004F0A3FE1D499B
:102F20001D4B0120002208701A6003B0F0BD01465D
:102F30000446152004F096FE1849194A194B0968F1
:102F40000191D2F890001B680199134D03440226A9
:102F50008B422E6017D8D2F8980007F0D1FF124BA1
:102F6000196808F0BFF9074668B921460B2004F03C
:102F700079FE084A032339460C2016702B6004F0B2
:102F800071FE03B0F0BD01210C2004F06BFE03B014
:102F9000F0BD00BF9894FF1FD494FF1F18C0FF1FFF
:102FA0003C93FF1FDC94FF1F8092FF1FF0B5684E1B
:102FB000684D34682B689C4287B039D014F0010109
:102FC00055D014F0020149D014F004013DD0E307BC
:102FD0000ED52B68DF070BD45F4F3A68002A00F04C
:102FE00082805E4B1B680193019B93426DD83468CD
:102FF000A0070DD52B6899070AD4594F3A68002AC3
:103000004CD0564B1B680393039B934238D83468CB
:1030100062070DD52B685B070BD4524F3A68002A24
:103020007ED04E4B1B680593059B934268D834684D
:103030000CB107B0F0BD2146162004F093FC2146E8
:10304000172004F08FFC07B0F0BD052004F08AFCC7
:103050002B68346803F0FB032B60B8E7172004F0FB
:1030600081FC2B68346803F0FD032B60ACE716206D
:1030700004F078FC2B68346803F0FE032B60A0E7B3
:10308000394B1720D3F8941004F06CFC2B6834688B
:1030900043F0020300222B603A60B9E7334806F0A0
:1030A000D5FB0C21324806F03BF9304806F0CEFB48
:1030B000FF21172004F056FC284B2E4A1968029174
:1030C000029912680A443A609CE7274B1620D3F80D
:1030D000941004F047FC2B68346843F0010300228D
:1030E0002B603A6084E7FF21162004F03BFC1B4B69
:1030F000204A19680091009912680A443A6071E701
:10310000194B0520D3F8941004F02CFC2B6834687C
:1031100043F0040300222B603A60002C89D18AE737
:10312000124806F093FB0C21134806F0F9F80F48FB
:1031300006F08CFBFF21052004F014FC074B0D4A20
:1031400019680491049912680A443A606AE700BF5A
:10315000D494FF1FF893FF1F7094FF1F18C0FF1F28
:103160007494FF1F7894FF1F3C93FF1FCC87FF1FB1
:10317000DCFD00006887FF1FECFD00002DE9F04733
:10318000544EDFF87481DFF874913068524D00229C
:103190000F2103F09FFD0023012222214F48C8F890
:1031A0000030C9F8002006F0BBF8D8F80030132B27
:1031B00022DC40F6E44700213068B5F884A003F033
:1031C000DBFD00210446306803F05CFDA4B2012160
:1031D00007FB04F4B4FBF0F441485444A5F88440E0
:1031E00006F09EF8642004F079FDD8F80030013331
:1031F000132BC8F80030DEDDB5F88430394A3A4880
:10320000A2FB03129B1A02EB5303C3F30F131946DD
:10321000A5F8843006F06AFB1D21344806F080F8DA
:103220000221334806F07CF82F4806F00FFB0023FC
:103230001A460E213068C8F8003003F04BFD022317
:1032400022212648C9F8003006F06AF8D8F8003084
:10325000132B22DC40F6E44700213068B5F8869055
:1032600003F08AFD00210446306803F00BFDA4B290
:10327000012107FB04F4B4FBF0F419484C44A5F811
:10328000864006F04DF8642004F028FDD8F80030A0
:103290000133132BC8F80030DEDDB5F88630114A53
:1032A0001148A2FB03129B1A02EB5303C3F30F1343
:1032B0001946A5F8863006F019FB1D210D4806F0C9
:1032C0002FF802210A4806F02BF80748BDE8F0471E
:1032D00006F0BCBAAC94FF1F3C93FF1FFCFD00003E
:1032E00040FE000087611886CC87FF1F20FE00008B
:1032F000BC07010044FE00009494FF1F5087FF1F8D
:10330000A24B2DE9F0411B68A14CA24D40F2513176
:1033100008222160E271286D002B40F0E48007F064
:10332000EFFD6969064607F03FFE9B49994F07F09C
:103330003BFE08F025F880B203126372974A984B5F
:1033400012681B68A969A37215121B12E37222731B
:1033500020726573304607F027FE8F498C4E07F0C8
:1033600023FE08F00DF883B21A1231468D48A3737C
:10337000E27303F0D1FA8C4B8C4A1B681288A2725C
:10338000DDB205EB8501257203EB8305490045F3AA
:10339000D71540F2553E12124FF008081B12217348
:1033A0006573314600257F48C4F800E0E27263721D
:1033B000A573E57384F8078003F0AEFA40F2563344
:1033C0007B48236084F80780FDF73AFF794907F0CE
:1033D000EBFD07F0D5FF20727548FDF731FF754909
:1033E00007F0E2FD07F0CCFF734A7249C0F30723F0
:1033F0006372106807F08CFE07F09CFF40FA08F239
:1034000003466B48E272A372FDF74AFF624907F078
:10341000CBFD07F0B5FF20736548FDF741FF5E491E
:1034200007F0C2FD07F0ACFF3146C0F307235D484B
:103430006373A573E57303F06FFA022004F04EFC8A
:103440005E4B25731A7859786573A573E5732272FC
:103450009D78DA78617240F25A3331465148A5724C
:10346000E272236084F8078003F056FA544B4D480B
:103470001A785978227261729A78D978A272E172B8
:103480001A7959799D7922736173DA79E27340F27E
:103490005E3331462360A57384F8078003F03CFA5D
:1034A000022004F01BFC474B3E481A7859782272E0
:1034B00061729A78D978A272E1721A7959799D79F4
:1034C00022736173DA7984F807804FF45C733146B4
:1034D0002360A573E27303F01FFA3B4B1B68012BBB
:1034E00006D0BDE8F08107F00BFD296A06461AE711
:1034F0002F48FDF75FFEF96C07F04EFC05462C489F
:10350000FDF77CFE0146284607F0ECFE0028E8D0D7
:1035100040F2C333264886F807803360FDF74AFE41
:10352000BD6C294607F0DEFED0B12849284607F0D9
:103530003BFD07F025FF80B240FA08F3707233724A
:103540000023012604250322A672E5722273637309
:10355000A373E3730E491348BDE8F04103F0DCB9EF
:103560001348FDF727FE194907F01EFD07F008FF75
:10357000C0F307230E483372FDF71CFE134907F012
:1035800013FD07F0FDFE7072DAE700BF7492FF1FB3
:10359000C494FF1F3C93FF1F00002041A494FF1F11
:1035A0005C92FF1F70BEFF1F3487FF1F3887FF1F0D
:1035B000E094FF1F0000C8428092FF1F3893FF1F56
:1035C0002C87FF1F5487FF1FB494FF1F00007A440D
:1035D000F0B59C4C9C4D83B005F03CFE2368286000
:1035E000042B00F0AC82022B4BD0082B00F0928011
:1035F000072B40F05181332801F0C58300F3AD80E3
:10360000312801F0D383322840F0B08005F05EFE0F
:10361000002840F33F818D488D4E06F0ABFA07F04D
:103620006FFC8C4907F0C0FC61230122F06322602B
:103630002B601846A0F152031F2B01F29483DFE8A0
:1036400013F0360B920B920B920B920B920B920B88
:10365000920B920B920B920B920B920B920B920B82
:10366000B203AB0C3905A7057304920B920B920BB6
:103670002604920BAE0C920B920B920B920B920BB8
:10368000240BA0F13102422A70D8DFE812F02207A1
:103690002E07E606F306060715076F006F006F009A
:1036A0006F006F006F006F006F006F006F006F00A2
:1036B0006F006F006F006F006F006F006F006F0092
:1036C0006F006F006F006F006F006F006F006F0082
:1036D0006F006F006F006F006F006F006F006F0072
:1036E0006F006F006F006F006F006F006F006F0062
:1036F0006F00D3066F006F006F006F006F006F00E8
:103700006F006F006F006F006F006F006F006B0045
:103710006F00D906322800F02F83712822D031287B
:1037200024D105F0D3FD002840F342864748484E97
:1037300006F020FAC0B286F84000022894BF014685
:103740000021726C444888BF86F84010FDF77CFD6C
:1037500001236920236028606CE7342801F03C8352
:10376000712803D10023732023602860002B08BF39
:1037700073280CBF01200020002860D0334806F0D9
:1037800065F80421354805F0CBFD304806F05EF8B9
:103790001021334805F0C4FD2C4806F057F81321DA
:1037A000304805F0BDFD304B2848196806F09EF8FA
:1037B000264806F04BF814212C4805F0B1FD2348AB
:1037C00006F044F81E212A4805F0AAFD1F4806F01D
:1037D0003DF81521274805F0A3FD1C4806F036F8F2
:1037E0001E21254805F09CFD184806F02FF82021E1
:1037F000224805F095FD154806F028F819212048C3
:1038000005F08EFD114806F021F812211D4805F043
:1038100087FD0E4806F01AF80F211B4805F080FDC1
:103820000A4806F013F80D21184805F079FD0748FD
:1038300006F00CF8164A002101231160236003B042
:10384000F0BD00BF9092FF1F7C92FF1FCC87FF1F2F
:103850003C93FF1F6F12833AE094FF1F380601006C
:1038600040060100540601002487FF1F680601007E
:1038700080060100A0060100B8060100D80601007C
:10388000FC060100180701002C0701003C0701009D
:103890003C87FF1F23682868062B40F08D80A0F12D
:1038A0003102402A3FF662AF01A151F822F000BF79
:1038B000E7420000134300003F430000654300005F
:1038C0008B430000C34200006D3700006D370000DD
:1038D0006D3700006D3700006D3700006D37000058
:1038E0006D3700006D3700006D3700006D37000048
:1038F0006D3700006D3700006D3700006D37000038
:103900006D3700006D3700006D3700006D37000027
:103910006D3700006D3700006D3700006D37000017
:103920006D3700006D3700006D3700006D37000007
:103930006D3700006D3700006D3700006D370000F7
:103940006D3700006D3700006D3700006D370000E7
:103950006D3700006D3700006D3700006D370000D7
:103960006D3700006D3700006D3700006D370000C7
:103970006D3700006D3700006D3700006D370000B7
:103980006D3700006D3700006D3700006D370000A7
:103990006D3700006D3700006D3700006D37000097
:1039A0006D3700006D3700006D3700006D37000087
:1039B0006537000023682868052B15D1332801F0EE
:1039C000528240F34781352801F03F82C1F21682CE
:1039D00071287FF4CBAEDC4A002373201360236090
:1039E0002860C3E623682868032B40F0A480A0F178
:1039F0003002422A3FF6BAAE01A151F822F000BFD0
:103A00000D3B00003B4C0000634C00001F4B0000CE
:103A1000414B0000634B00008B4B0000B34B000098
:103A2000D14B0000F54B00006D3700006D370000F2
:103A30006D3700006D3700006D3700006D370000F6
:103A40006D3700006D3700006D3700006D370000E6
:103A50006D3700006D3700006D3700006D370000D6
:103A60006D3700006D3700006D3700006D370000C6
:103A70006D3700006D3700006D3700006D370000B6
:103A80006D3700006D3700006D3700006D370000A6
:103A90006D3700006D3700006D3700006D37000096
:103AA0006D3700006D3700006D3700006D37000086
:103AB0006D3700006D3700006D3700006D37000076
:103AC0006D3700001D4C0000EF450000434A000028
:103AD0006D4A00008B4A0000DF4A0000A545000047
:103AE000C94500006D3700006D3700006D370000DC
:103AF0006D3700006D3700006D3700006D37000036
:103B00006D370000614A0000A94A000005F0DEFBA5
:103B1000002841F331818D488D4E06F02BF80127A6
:103B20000346014662228B48736527602A60FDF7D1
:103B300089FB23682868012B7FF418AE7AE5A0F191
:103B40003102402A3FF612AE01A151F822F000BF27
:103B5000074500001F4500002345000049450000BF
:103B6000894500004D4500005F45000063450000A9
:103B7000674500006D3700006D3700006D370000AD
:103B80006D3700006D3700006D3700006D370000A5
:103B90006D3700006D3700006D3700006D37000095
:103BA0006D3700006D3700006D3700006D37000085
:103BB0006D3700006D3700006D3700006D37000075
:103BC0006D3700006D3700006D3700006D37000065
:103BD0006D3700006D3700006D3700006D37000055
:103BE0006D3700006D3700006D3700006D37000045
:103BF0006D3700006D3700006D3700006D37000035
:103C00006D3700006D3700006D3700006D37000024
:103C10006D3700006D3700006D3700006D37000014
:103C20006D3700006D3700006D3700006D37000004
:103C30006D3700006D3700006D3700006D370000F4
:103C40006D3700006D3700006D3700006D370000E4
:103C500065370000312801F0E78032287FF486AD17
:103C600005F034FB00287FF7BDAE3848384E05F02C
:103C700081FF01226B23C6F8980022602B6001E0CF
:103C800005F0E8FA05F022FB0028F9D12F4805F0ED
:103C9000DDFD2E4805F0DAFD2C4805F0D7FD2B4858
:103CA00005F0D4FD294805F0D1FD21212A4805F071
:103CB00037FB264805F0CAFD1521284805F030FBE2
:103CC000D6F89010214805F011FE0221244805F095
:103CD00027FB1E4805F0BAFD1E21224805F020FBF7
:103CE000D6F89810194805F001FE03211E4805F08A
:103CF00017FB164805F0AAFD1E211C4805F010FB15
:103D0000D6F89410114805F0F1FD104805F09EFD1D
:103D10001D21174805F004FBD6F8A0100B4805F04C
:103D2000E5FD0A4805F092FD1E21124805F0F8FA5B
:103D3000D6F8A410054805F0D9FD044805F086FD25
:103D4000052323607BE500BF8C94FF1FCC87FF1FFA
:103D50003C93FF1FE094FF1FB0000100D40001005E
:103D600008000100EC00010028FD00000C0101002A
:103D70002C0101004C01010005F0A8FA002840F3D5
:103D80001383B248B24E05F0F5FE07F0B9F8B14919
:103D900007F00AF90346024696F84010AE487364ED
:103DA000D4E405F057FA05F091FA05460028F8D159
:103DB000A648A74E05F04AFDA44805F047FDA348D4
:103DC00005F044FDA14805F041FDA04805F03EFD89
:103DD0001F21A24805F0A4FA9C4805F037FD1C21DC
:103DE0009F4805F09DFA706A9E4907F0DDF806F0DD
:103DF00031FC009502460B46944805F081FD0221F6
:103E0000994805F08DFA914805F020FD2321974847
:103E100005F086FAF06B934907F0C6F806F01AFC35
:103E2000009502460B46894805F06AFD02218E483E
:103E300005F076FA854805F009FD19218C4805F052
:103E40006FFAB06B06F006FC02250B4602460095A1
:103E50007E4805F055FD2946864805F061FA7B4805
:103E600005F0F4FC1921844805F05AFAB6F8B410AC
:103E7000764805F03BFD0321804805F051FA734870
:103E800005F0E4FC07232360D9E405F0E3F905F02D
:103E90001DFA05460028F8D16C486D4E05F0D6FC99
:103EA0006A4805F0D3FC694805F0D0FC674805F086
:103EB000CDFC664805F0CAFC1521714805F030FAC2
:103EC000624805F0C3FC18216E4805F029FA2B461C
:103ED0000A2296F840105D4805F0C8FC5B4805F0E2
:103EE000B5FC2821684805F01BFA706C5D4907F0A5
:103EF0005BF806F0AFFB00950B460246534805F011
:103F0000FFFC0221584805F00BFA504805F09EFCD2
:103F100013215E4805F004FA4C4805F097FC08238D
:103F200023608CE405F096F905F0D0F905460028E9
:103F3000F8D14648464E05F089FC444805F086FC19
:103F4000424805F083FC414805F080FC3F4805F0FD
:103F50007DFC11214E4805F0E3F93C4805F076FC64
:103F600028214C4805F0DCF970693E4907F01CF83F
:103F700006F070FB009502460B46344805F0C0FC85
:103F80000221394805F0CCF9304805F05FFC1621D4
:103F9000414805F0C5F9F069324907F005F806F027
:103FA00059FB00950B460246284805F0A9FC022162
:103FB0002D4805F0B5F9254805F048FCD6F8AC3099
:103FC000002B32DD1D21354805F0AAF9F06D06F011
:103FD00097FF334906F0E8FF06F03CFB0225024656
:103FE0000B460095194805F08BFC01212D4805F082
:103FF00097F9164805F02AFC1F212B4805F090F987
:10400000306E06F07DFF264906F0CEFF06F022FB5B
:10401000009502460B460D4805F072FC012121482F
:1040200005F07EF9094805F011FC11211F4805F043
:1040300077F9D6F8AC30052B00F25686DFE813F09E
:104040007F067A0650068E0689068406CC87FF1FF7
:104050003C93FF1F6F12833AE094FF1F0C00010096
:104060002C00010000007A44DCFE00004C0001003E
:10407000700001008C00010090000100AC00010004
:104080000007010094FE0000B0FE0000E0FE00000A
:10409000A4060100F4FE000020FF000038FF00002D
:1040A000CDCCCC3D9003010058FF000078FF00000C
:1040B00005F0D0F805F00AF90028F9D1BF48C04E44
:1040C00005F0C4FBBD4805F0C1FBBC4805F0BEFBD4
:1040D000BA4805F0BBFBB94805F0B8FB1F21B94849
:1040E00005F01EF9B54805F0B1FB1E21B64805F0F4
:1040F00017F9B24805F0AAFB1A21B44805F010F9E7
:10410000F36F022B00F01787032B00F00B87012BB6
:1041100000F01A870921AE4805F002F9A74805F01A
:1041200095FB1421AB48A64F05F0FAF8B16FA348F0
:1041300005F0DCFBA14805F089FB1C21A64805F031
:10414000EFF8D6F880109D4805F0D0FB9B4805F0AD
:104150007DFB1C21A14805F0E3F8D6F8A81097488C
:1041600005F0C4FB954805F071FBF56F25F00205DD
:10417000012D00F091861321994805F0D1F88F4860
:1041800005F064FB02232360FFF759BB05F062F8DA
:1041900005F09CF80028F9D1884805F057FB8748BE
:1041A00005F054FB854805F051FB844805F04EFBB3
:1041B000824805F04BFB13218A4805F0B1F87F488F
:1041C00005F044FB0D21884805F0AAF87B4805F06E
:1041D0003DFB0F21854805F0A3F8854B774819680A
:1041E00005F084FB754805F031FB1321814805F08B
:1041F00097F8814B7148196805F078FB6F4805F016
:1042000025FB12217D4805F08BF87D4B6B48196822
:1042100005F06CFB694805F019FB1121794805F0A0
:104220007FF8794B6548196805F060FB634805F035
:104230000DFB0E21754805F073F8614B5F48D3F80C
:104240009C1005F053FB5D4805F000FB19217048F8
:1042500005F066F86F4B5948196805F047FB574859
:1042600005F0F4FA11216C4805F05AF86B4B5348ED
:10427000196805F03BFB514805F0E8FA1021684841
:1042800005F04EF8674B4D48196805F02FFB4B4879
:1042900005F0DCFA1C21644805F042F8634B4748FE
:1042A000196805F023FB454805F0D0FA13214C4866
:1042B00005F036F8414805F0C9FA04232360FFF7FA
:1042C000BEBA05F003F800287FF774AB3B483C4EBC
:1042D00005F050FC65230122C6F8B00022602B6077
:1042E0001846FFF7A7B904F0F1FF00287FF762AB8B
:1042F0003248334E05F03EFC06F002FE4C4906F013
:1043000007FF65230122706122602B601846FFF7CA
:1043100091B904F0DBFF00287FF74CAB2748284E0B
:1043200005F028FC06F0ECFD414906F0F1FE65239E
:104330000122F06122602B601846FFF77BB904F080
:10434000C5FF00287FF736AB1C481D4E05F012FC58
:1043500000EB8000430001226520F36522602860A5
:10436000FFF768B904F0B2FF00287FF723AB1348CA
:10437000134E05F0FFFB00EB800043000122652097
:10438000336622602860FFF755B90D4AD2F8AC3089
:104390000133052BC8BF0023C2F8AC3065200123D0
:1043A00023602860FFF746B923682868FFF720B923
:1043B000034E96F84000FFF7C0B900BFCC87FF1F3F
:1043C0003C93FF1F500201007002010090020100A7
:1043D00008030100140301002C0301004C03010039
:1043E000E0FE00006C01010080010100900101006D
:1043F0006C94FF1FA0010100D894FF1FB4010100BD
:10440000BC94FF1FC8010100C094FF1FDC01010024
:10441000EC0101009094FF1F080201008C94FF1F23
:104420001C0201007892FF1F300201005C87FF1F11
:1044300000007A44FEF7A2FE23682868FFF7D5B88B
:10444000724AD36F0133032BC8BF0023D367012304
:10445000632023602860FFF7EDB80123236004F098
:1044600035FF0028F3DD6A48684E05F083FBC6F887
:10447000A800ECE70123236004F028FF002807DDF3
:104480006348624E05F076FB06F03AFDC6F88C00F4
:10449000632028602368FFF7ABB80123236004F092
:1044A00015FF0028F4DD5A48584E05F063FB06F06E
:1044B00027FDC6F88800EBE70123236004F006FF20
:1044C0000028E5DD5248514E05F054FBA6F8B60031
:1044D000DEE74E4EB36FB3FA83F35B09012263202C
:1044E000B36722602860FFF7A5B8484ED6F8803041
:1044F000B3FA83F35B0901226320C6F8803022609F
:104500002860FFF797B8434A1368B3FA83F35B094F
:1045100001216420136021602860FFF78BB83E4AB8
:10452000F2E73E4A3E4F1368002B0CBF01230023E5
:104530004FF001001360206040F0DE8403466422E7
:104540002A606420FFF751B8364ADDE70123364878
:104550002360FCF713FC354A23681060EFE7344A08
:10456000D2E7344AD0E70123236004F0AFFE0028ED
:1045700000F38A84304B1A68042AC4BF02221A60EE
:1045800064232B602368DCE7204ED6F89C30B3FA16
:1045900083F35B0901226420C6F89C302260286006
:1045A000FFF748B804F092FE00280DDD1848174EBA
:1045B00005F0E0FA06F0A4FC204906F0A9FD01226E
:1045C0006223306222602B6004F080FE00280EDD42
:1045D0000F480E4E05F0CEFA06F092FC174906F091
:1045E00097FD01226223C6F8B80022602B6004F018
:1045F0006DFE002840F3C0830548044E05F0BAFA6A
:1046000001226223B06622602B601BE03C93FF1FF7
:10461000CC87FF1F6C94FF1FD894FF1FBC94FF1F13
:104620009092FF1FC094FF1FE094FF1F9094FF1F04
:104630008C94FF1F7892FF1F5C87FF1F00007A4455
:1046400004F008FE04F042FE05460028F8D1C248F6
:1046500005F0FCF8C04805F0F9F8BF4805F0F6F899
:10466000BD4805F0F3F8BC4805F0F0F81521BB484B
:1046700004F056FEB84805F0E9F81421B84804F0F3
:104680004FFEB54805F0E2F81B21B64804F048FE9D
:10469000B14805F0DBF81321B34804F041FEAE4801
:1046A00005F0D4F8AC4805F0D1F8AB4805F0CEF8E9
:1046B0002021AE4804F034FEF068AD4906F074FCE9
:1046C00005F0C8FF009502460B46A34805F018F90F
:1046D0000221A84804F024FE0221A74804F020FE8D
:1046E0009D4805F0B3F82121A44804F019FE306973
:1046F0009F4906F059FC05F0ADFF009502460B46B8
:10470000954805F0FDF802219A4804F009FE0221BF
:10471000994804F005FE904805F098F81F21984844
:1047200004F0FEFDB06A05F095FF022702460B4635
:104730000097894805F0E4F80121924804F0F0FD63
:1047400039468D4804F0ECFD834805F07FF82021C0
:104750008D4804F0E5FDF06A05F07CFF0097024605
:104760000B467D4805F0CCF80121864804F0D8FDC1
:104770003946814804F0D4FD774805F067F82321D5
:10478000824804F0CDFDB06C794906F00DFC05F0CF
:1047900061FF009502460B466F4805F0B1F83946B7
:1047A000744804F0BDFD3946734804F0B9FD6A4809
:1047B00005F04CF81F21764804F0B2FDF06C6C490E
:1047C00006F0F2FB05F046FF009502460B466248F4
:1047D00005F096F83946674804F0A2FD3946664868
:1047E00004F09EFD5C4805F031F81921694804F099
:1047F00097FDB16D584805F079F83946664804F0E0
:104800008FFD39465C4804F08BFD534805F01EF8D7
:104810001821624804F084FD706E06F071FB604957
:1048200006F0C2FB05F016FF009702460B464A4809
:1048300005F066F801215B4804F072FD39464E48E8
:1048400004F06EFD444805F001F82B21564804F0B1
:1048500067FDB069464906F0A7FB05F0FBFE009531
:1048600002460B463C4805F04BF83946414804F0F7
:1048700057FD3946404804F053FD374804F0E6FF41
:104880001F214A4804F04CFD716D334805F02EF8A5
:104890003946394804F044FD2F4804F0D7FF202161
:1048A000434804F03DFD316D2B4805F01FF83946B3
:1048B000314804F035FD284804F0C8FF10213D4878
:1048C00004F02EFDB16E244805F010F83946294851
:1048D00004F026FD3946284804F022FD1E4804F065
:1048E000B5FF1321344804F01BFDF16E1A4804F0A3
:1048F000FDFF0121314804F013FD39461E4804F044
:104900000FFD154804F0A2FF10212D4804F008FD0A
:10491000316F114804F0EAFF3946164804F000FDF3
:104920003946154804F0FCFC0B4804F08FFF1421B5
:10493000244804F0F5FC716F074804F0D7FF01210B
:104940001E4804F0EDFC39460B4804F0E9FC02482F
:1049500004F07CFF162137E0CC87FF1FD80301004D
:10496000F003010008040100E0FE0000240401003F
:1049700000007A44DCFE0000BC070100480401008E
:104980006C040100F4F900008C040100B004010083
:10499000D4040100F4040100100501001405010015
:1049A000CDCCCC3D90030100300501005C05010039
:1049B0007C050100A0050100B4050100C805010047
:1049C000CC050100E0050100BA4804F0A9FC306AFA
:1049D000B94906F0E9FA05F03DFE009502460B469E
:1049E000B64804F08DFF3946B54804F099FC3946C5
:1049F000B44804F095FCB14804F028FF2421B248E3
:104A000004F08EFCD6F8B800AB4906F0CDFA05F0FC
:104A100021FE00950B460246A84804F071FF394676
:104A2000A74804F07DFC3946A64804F079FCA34869
:104A300004F00CFFA14804F009FF03232360FEF7F4
:104A4000FEBE04F043FC002840F396819B489F4E35
:104A500005F090F801226223F06622602B60F1E5F8
:104A60000022732322602B60FEF788BE04F02EFC28
:104A7000002840F381819148944E05F07BF8012293
:104A80006223306722602B60DCE504F01FFC002805
:104A900040F3728189488D4E05F06CF80122622343
:104AA000706722602B60CDE5894B8648874E0022D7
:104AB00002211A6004F034FC804804F0C7FE0B2188
:104AC000844804F02DFC02217E4804F029FC7B4838
:104AD00004F0BCFE0122622322602B60B2E5FCF7E9
:104AE000EBFF02217748794E04F01AFC734804F07A
:104AF000ADFE0221734804F013FC704804F0A6FEDA
:104B00000221704804F00CFC6C4804F09FFE172151
:104B1000714804F005FC694804F098FED3E704F0FE
:104B2000D5FB002840F328816448684E05F022F840
:104B300006F0E6F901226223B06222602B6081E573
:104B400004F0C4FB002840F317815C485F4E05F079
:104B500011F806F0D5F901226223F06222602B6081
:104B600070E504F0B3FB002840F306815348574E2C
:104B700005F000F806F0C4F94F4906F0C9FA012221
:104B80006223B06422602B605CE504F09FFB002888
:104B900040F3F28049484D4E04F0ECFF06F0B0F9C6
:104BA000454906F0B5FA01226223F06422602B60C9
:104BB00048E504F08BFB002840F3DE803F48434E7D
:104BC00004F0D8FF01226223B06522602B6039E532
:104BD00004F07CFB002840F3CF8038483B4E04F0C3
:104BE000C9FF00EB8000430001216222736621604F
:104BF0002A6027E504F06AFB002840F3BD802F48B7
:104C0000324E04F0B7FF06F07BF92B4906F080FA2C
:104C100001226223B06122602B6013E504F056FB91
:104C2000002840F3A9802548284E04F0A3FF012264
:104C30006223306522602B6004E504F047FB002806
:104C400040F39A801D48214E04F094FF06F058F975
:104C5000194906F05DFA01226223F06022602B60A0
:104C6000F0E404F033FB002840F386801348174E2D
:104C700004F080FF06F044F90F4906F049FA0122DA
:104C80006223306122602B60DCE4BC2200210F48EB
:104C900002F01CFD2868114AA0F1730001210023D5
:104CA000B0FA80F0400911602360FEF765BD03F0A3
:104CB00001FE00BFF805010000007A44CC87FF1F09
:104CC000DCFE0000BC070100100601003C93FF1F42
:104CD0006C92FF1F88FE000070FE00003C87FF1FE3
:104CE0000C21B04804F01CFBAF48B04D04F0AEFD01
:104CF000D6F8AC30002B0FDD1821AD4804F010FBC6
:104D0000D5F8B010A84804F0F1FD0221A94804F03C
:104D100007FBA54804F09AFDA34804F097FD132172
:104D2000A54804F0FDFAA04804F090FD0623236096
:104D3000FEF785BD0C21A14804F0F2FAD4E70D215D
:104D40009F4804F0EDFACFE70F219E4804F0E8FAFF
:104D5000CAE70D219C4804F0E3FAC5E70D219B4802
:104D600004F0DEFAC0E72368002B08BF73280CBFED
:104D700001200020FEF700BD23682868012B7EF487
:104D8000F5ACFEF757BC04F0A1FA00287EF782AD1F
:104D90008548864E04F0EEFE06F0B2F8612301224B
:104DA000B06322602B601846FEF744BC04F08EFA14
:104DB00000287EF76FAD7C487C4E04F0DBFE06F0E9
:104DC0009FF8834906F0F0F86123012270622260A7
:104DD0002B601846FEF72EBC04F078FA00287EF708
:104DE00059AD7148714E04F0C5FE61230122A6F849
:104DF000B40022602B601846FEF71CBC04F066FA73
:104E000000287EF7EFAD6848684E04F0B3FE714BA2
:104E1000C6F8A00002221A60FDF792F901226B2366
:104E200022602B60FEF72EBF04F050FA00287EF7B8
:104E3000D9AD5D485D4E04F09DFE01226B23C6F89E
:104E4000900022602B60FEF71DBF04F03FFA00289F
:104E50007EF7C8AD5448554E04F08CFE5D4BC6F845
:104E6000A4000322D7E704F031FA00287EF7BAAD98
:104E70004D484E4E04F07EFE01226B23C6F894008E
:104E800022602B60FEF7FEBE474804F073FE524BD3
:104E900002461860FFF770BB1C21504804F040FA2E
:104EA000D7F88C004E4906F07FF805F0D3FB00954B
:104EB00002460B463C4804F023FD0521494804F016
:104EC0002FFA394804F0C2FCFD6F012D45D0032DA7
:104ED0007FF451A91C21444804F022FAB6F8B61018
:104EE000314804F003FD0321404804F019FA2E482C
:104EF00004F0ACFCFFF73FB93D4B002631460B20D8
:104F00001E6002F0AFFE31460C2002F0ABFE3146CF
:104F1000142002F0A7FE3146152002F0A3FE3B68E4
:104F2000FFF70DBB2021334804F0FAF91E4804F0C6
:104F30008DFCFFF7F6B817212F4804F0F1F91A4855
:104F400004F084FCFFF7EDB81E212C4804F0E8F9CA
:104F5000154804F07BFCFFF7E4B81D21284804F055
:104F6000DFF9D7F888001E4906F01EF805F072FB3D
:104F700000950B4602460C4804F0C2FC0521194876
:104F800004F0CEF9084804F061FCFB6F23F0020343
:104F9000012B9FD0FFF7EFB8044EFFF753BB034E32
:104FA000FEF770BEACFF0000CC87FF1F3C93FF1FD5
:104FB000ECFF000008000100E0FE00009CFF000084
:104FC0008CFF0000DCFF0000CCFF0000BCFF0000F5
:104FD0006F12833A8C94FF1F5C87FF1F6C030100E4
:104FE000CDCCCC3D8C030100B4030100D4030100FF
:104FF000D494FF1FCC020100F0020100AC020100BA
:105000009403010038B5164C164A2368101D12F897
:10501000011F904241EA0323F9D12360124C03F1AE
:1050200000432360114BDB6F022B11D0104B1B6828
:10503000012B00D038BD0F4804F008FC21680D4852
:1050400004F054FC03210C48BDE8384004F068B972
:1050500020680A4D05F054FF2860FDF709FBE5E7DD
:105060005492FF1F8394FF1FA094FF1F3C93FF1FC8
:105070006C94FF1FCC87FF1F4C0701007092FF1F2D
:1050800030B5384C384883B0214601F03DFB2368E9
:1050900040F2C23293424BD06FF48062134440F22C
:1050A000FE3293423FD9314B1B68012B01D003B034
:1050B00030BD2F4B1B68012BF9D12E4B2E481B689E
:1050C00001930A220023019904F0D0FB2268254BAA
:1050D000002ADB793FDB2949294806F02DFF2848C3
:1050E00006F06EFF0146264804F01AF925681D4BAC
:1050F00015F0804520D1DB798BB1631921491A7AEB
:105100001F4806F019FF1E4806F05AFF01461C48CA
:1051100004F006F90135E379EDB2AB42EDD816485B
:1051200004F094FBC3E70F491748FBF74DFEBAE7BD
:10513000FFF768FF2368AFE7144D114C0FCD0FC484
:1051400095E8030044F8040B204620F814191521B3
:1051500004F0E6F8E3E70E49094822F0604206F061
:10516000EBFEBCE77C94FF1F70BEFF1F3C87FF1F58
:105170006C94FF1F18C0FF1FCC87FF1F780701002A
:105180009492FF1FA4070100E094FF1F8C07010009
:10519000500701002DE9F84F9A4B9B4C1B78052BCB
:1051A00008D09A48FCF77CF8E16A06F09BF80028E2
:1051B00000F09380964E974D002333602B60964B02
:1051C00092481B68904F012B45D0FCF717F8E16916
:1051D0008046606905F0DEFD0146404606F0A0F815
:1051E00000284CD18948FCF709F8E16806F098F8E6
:1051F00008B100232B608548834FFBF7DBFF216953
:1052000006F070F858B1002333602B68814A002BF8
:1052100001DBBDE8F88F00231360BDE8F88F7B4801
:10522000FBF7C8FFB96906F05DF80028EBD17748B5
:10523000FBF7C0FFD7F8B8100446B86905F0ACFD1D
:105240000146204606F06CF8002873D0786E306076
:105250000028D8DBD9E7FBF7D1FFE1698046206A57
:1052600005F098FD0146404606F05AF80028B9D0EE
:105270006648FBF7C3FFD7F82090834605E06348F4
:10528000FBF7BCFFD7F814908346F969484605F050
:1052900081FD8246F86D05F033FE8046386E05F0DC
:1052A0002FFE414605F076FD51460746584605F06B
:1052B00071FD0146384605F077FE514607464846DF
:1052C00005F068FD0146384605F022FF414605F02D
:1052D00063FD06F02FF8286084E74C48FBF7E0FFF9
:1052E000216B05F0FFFF002849D0494E636E474807
:1052F0003360FBF7D5FF8146E06DE76A454D05F069
:10530000FFFD39468046484605F044FD01464046CB
:1053100005F04AFE39468046206B05F03BFD01460C
:10532000404605F0F5FE002105F036FD06F002F8D6
:10533000286044E73548FBF73DFF8146F86DBC69BE
:1053400005F0DEFD21468046484605F023FD014676
:10535000404605F029FED7F8B8108046204605F0F3
:105360001BFD214605F016FD0146404605F0D0FE26
:10537000002105F011FD05F0DDFF306068E72348EE
:10538000FBF78EFF616B05F0ADFF30B1204E214D74
:10539000626EE36D32602B6011E71C48FBF780FF03
:1053A000A16A05F09FFF00283FF404AF1748184E8C
:1053B000184DFBF775FF8146606ED4F8348005F018
:1053C0009FFD41460746484605F0E4FC39468146C4
:1053D000002005F0DFFC0146484605F0E5FD4146AA
:1053E0008146A06A05F0D6FC0146484605F090FECD
:1053F000394605F0D1FC05F09DFFE36D30602B6070
:10540000DDE600BF9894FF1F3C93FF1FE094FF1F51
:10541000A494FF1F5C92FF1F7492FF1F08B52748DA
:1054200004F014FA0721264803F07AFF112002F055
:105430001FFC0621F8B1234803F072FF122002F08E
:1054400017FC062100B3204803F06AFF122002F087
:105450000FFC062108B31D4803F062FF132002F081
:1054600007FC062110BB1A4803F05AFF1348BDE899
:10547000084004F0EBB9174803F052FF122002F085
:10548000F7FB06210028DED1134803F049FF122064
:1054900002F0EEFB06210028DDD1104803F040FFAA
:1054A000132002F0E5FB06210028DCD00C4803F0B5
:1054B00037FF0248BDE8084004F0C8B9CC87FF1F99
:1054C000B0070100B8070100C8070100D8070100B4
:1054D000F0070100C0070100D0070100E00701004C
:1054E000E807010010B5254C2368042B27DC0121B7
:1054F0000B2002F0B7FB01210C2002F0B3FB0121CD
:10550000142002F0AFFB0121152002F0ABFBFF21BC
:10551000162002F027FAFF21172002F023FAFF21BC
:10552000052002F01FFAFF21062002F01BFA236873
:1055300001330A2B2360C4BF0023236010BD002168
:105540000B2002F08FFB00210C2002F08BFB0021CE
:10555000142002F087FB0021152002F083FB0021BC
:10556000162002F0FFF90021172002F0FBF90021BC
:10557000052002F0F7F90021D6E700BFB894FF1F1D
:1055800010B5092182B0974802F086FE222002F071
:105590002BFE954B1B78052B0BD8DFE813F00A0187
:1055A0000F01140119011E01060007218F4802F0A6
:1055B00073FE222002F018FEFF2002F015FEFF20ED
:1055C00002F012FE8A4CFF2002F00EFE08218948EC
:1055D00002F062FE2168884804F088F9FF2002F09A
:1055E00003FEFF2002F000FEFF2002F0FDFD092176
:1055F000824802F051FE21687F4804F077F9FF20CD
:1056000002F0F2FDFF2002F0EFFDFF2002F0ECFDC2
:105610000C217B4802F040FE7A4B1C68002120469A
:1056200005F07EFE002800F0C1802046764905F096
:105630006FFD05F00FF8002402460B4600946E48FB
:1056400004F05EF9FF2002F0CFFDFF2002F0CCFD58
:10565000FF2002F0C9FD09216C4802F01DFE6C48D4
:10566000FBF71EFE04F0F6FF009402460B4662486C
:1056700004F046F9FF2002F0B7FDFF2002F0B4FD70
:10568000FF2002F0B1FD0C21624802F005FE6048E7
:10569000FBF764FE04F0DEFF009402460B4656481A
:1056A00004F02EF9FF2002F09FFDFF2002F09CFD88
:1056B000FF2002F099FD0D21574802F0EDFD5448FE
:1056C000FBF74AFE04F0C6FF009402460B464A4828
:1056D00004F016F9FF2002F087FDFF2002F084FDA0
:1056E000FF2002F081FD09214C4802F0D5FD484819
:1056F000FBF7A6FD04F0AEFF009402460B463E48C1
:1057000004F0FEF8FF2002F06FFDFF2002F06CFDB8
:10571000FF2002F069FD0C21414802F0BDFD3C482C
:10572000FBF748FD384905F03FFC04F093FF009477
:1057300002460B46304804F0E3F8FF2002F054FD27
:10574000FF2002F051FDFF2002F04EFD0D213548F3
:1057500002F0A2FD2E48FBF751FD2B4905F024FC79
:1057600004F078FF009402460B46234804F0C8F882
:10577000FF2002F039FDFF2002F036FDFF2002F08D
:1057800033FD0921284802F087FD284B1A48196883
:1057900004F0ACF8FF2002F027FDFF2002F024FD0A
:1057A000FF2002B0BDE8104002F01EBD04F1004031
:1057B0003CE706211E4802F06FFDFAE607211D486E
:1057C00002F06AFDF5E607211B4802F065FDF0E6F0
:1057D00008211A4802F060FDEBE60B21184802F0A0
:1057E0005BFDE6E6F80701009894FF1FB0FC00009F
:1057F0003487FF1F04080100BC87FF1F1008010049
:105800001C0801008092FF1F00007A442C08010050
:10581000E094FF1F38080100480801005808010003
:105820006408010074080100840801002487FF1F38
:1058300080FC000088FC00009CFC0000A4FC000030
:1058400090FC00002DE9F0418D4DD5F8AC30042BD3
:105850003ED0032B6ED0012B00F09880022B01D09C
:10586000BDE8F081874C8848237240F20E32012354
:1058700021462260E37101F04FF8844B1B685B0006
:10588000FF2BC8BFFF23042140224FF4417020604A
:10589000E17122726372286D05F032FB696905F0CF
:1058A00083FB7B49054605F03BFD002800F0DE80C8
:1058B0002946284605F070FA05F062FD80B2031211
:1058C000E072A3726F497048BDE8F04101F024B85E
:1058D0006C4C704AA379226043F001030822E27104
:1058E000A371286D05F00CFB696905F05DFB6A4941
:1058F00005F05AFB05F044FD644B684A1B681268CA
:1059000093FBF2F380B200261A120712607221464E
:105910005D48E372A272277226736673A673E673FC
:1059200000F0FAFFA279D5F8AC3066F30002032B41
:10593000A27190D1534C286DA3720122E823072154
:1059400040F2FF26227263722660E17105F0D8FAF8
:10595000696905F029FB504905F026FB05F010FDAB
:105960004A4B4E4A1B68126893FBF2F382B21E1236
:105970001712214644486373E2722773A67300F03E
:10598000CBFFD5F8AC30012B7FF468AF444B3D4CD6
:105990001B682360072280231020E271237202F02B
:1059A00067F9002869D13F4B1B68DFF8E0803B4F67
:1059B000286D344E03EB83035B001A12A3726272EC
:1059C000D8F800303A6893FBF2F31A126273A373AB
:1059D00005F096FA696905F0E7FA334B196805F0A6
:1059E000D9F92D4905F0E0FA05F0CAFC80B203129E
:1059F000314620732448E37200F08EFF022002F04B
:105A00006DF92A4B1B682360072280231020E27166
:105A1000237202F02DF970BB224B1B68286D03EB3B
:105A200083035B001A127272B37205F069FA696936
:105A300005F0BAFA1E4B196805F0ACF9164905F0E5
:105A4000B3FA05F09DFC82B216123868D8F800301F
:105A5000227393FBF0F30B490B48A3731A12E672FF
:105A6000627300F059FFD5F8AC30F7E601229023BD
:105A7000A272E37226E70F4BCFE70E4B94E700BF0D
:105A80003C93FF1FC494FF1F70BEFF1F5C92FF1F5B
:105A900000004843F4E50618000020414C87FF1F32
:105AA0006087FF1F4487FF1FFC93FF1F6487FF1F52
:105AB0008892FF1F4887FF1F2DE9F0478EB001E055
:105AC000FFF7DEFAA54800F0E9FD0028F8D103F061
:105AD000FDFB002801DDFDF77BFDA14EA14D3368E4
