:1000000000800020BD010000D98E0000918E00000C
:10001000918E0000918E0000918E0000918E000064
:10002000918E0000918E0000918E0000D98E00000C
:10003000D98E0000918E0000A5830000A9840000E5
:10004000D98E0000D98E0000D98E0000D98E000014
:10005000D98E0000D98E0000D98E0000D98E000004
:10006000D98E0000D98E0000D98E0000D98E0000F4
:10007000D98E0000D98E0000D98E0000D98E0000E4
:10008000D98E0000D98E0000D98E0000D98E0000D4
:10009000D98E0000D98E0000D98E0000D98E0000C4
:1000A000D98E0000D98E0000D98E0000D98E0000B4
:1000B000D98E0000797700008577000089770000ED
:1000C00095770000997700009D770000D98E000099
:1000D000D98E0000D98E0000D98E0000D98E000084
:1000E000D98E0000D98E0000D98E0000D98E000074
:1000F000D98E0000D5B30000D98E0000CD9B000042
:10010000D98E000051A10000D98E0000D98E0000C8
:10011000D98E0000D98E0000D98E0000D98E000043
:10012000D98E0000D98E0000D98E0000D98E000033
:10013000D98E0000D98E0000D98E0000D98E000023
:10014000D98E0000D98E0000D98E0000D98E000013
:10015000D98E0000D98E0000D98E0000D98E000003
:10016000D98E0000E1A30000D98E0000D98E0000D6
:10017000D98E0000D98E0000D98E0000D98E0000E3
:10018000D98E0000D98E0000D98E0000D98E0000D3
:10019000D98E0000D98E0000D98E0000D98E0000C3
:1001A000D98E0000D98E0000D98E0000D98E0000B3
:1001B000D98E0000D98E0000D98E0000564B4CF22B
:1001C000205210B51A804DF628121A8000BF00BFC9
:1001D00008F086FE514B4FF010621A60504A9A6048
:1001E000504ADA60504A136813F4807304D14F49BF
:1001F0000B604FF4A85313604D4B1A78110703D5C9
:100200001A7842F008021A704A4B4B492A221A7097
:100210004A4A4B4B8B4204D252F8040F43F8040B6A
:10022000F8E7484B484900228B4202D243F8042B9E
:10023000FAE74649464A002352F8230041F82300D2
:1002400001336F2BF8D1434B434A802103F8011B44
:100250009342FBD1414B3D4A1A60414B8A221A70AE
:10026000A3F5805324225A70A0221A709A7992071B
:10027000FCD59A79D406FCD43A4A937903F00C035E
:10028000082B384BF9D103221A7140225A719A79FE
:100290009006FCD5334A9179324B4906FBD5324A58
:1002A000324911600221516020221A709A7902F0BD
:1002B0000C020C2AFAD12E4B2E4A1A602E4B2F4AD2
:1002C0001A6000225A60072243F8042C2C4AC3F813
:1002D0000C2D62B609F0E4F8144B1B68DA0705D55B
:1002E000284808F0C1FE284B284A1A60284B1B7882
:1002F0005B0609D5244C254B22689A4204D121483B
:1003000008F0B2FE002323600CF048FB08F0EEFD7D
:1003100008F01CFDFEE700BF0E20054030800440C1
:10032000823F04000100002B10D0034014D0034092
:1003300002D0074000E007403892FF1F0427010069
:100340002087FF1F3892FF1F38BAFF1F0082FF1F50
:100350000000000000E400E05FE400E008ED00E0E1
:100360000050064000400640448004400000030165
:1003700004800440C010050014E000E0FF76010096
:10038000000020208AA6835E1CE00340A5C3945A87
:1003900000F00740FFFFFFFFFFFFFFFFFFFFFFFF32
:1003A000FFFFFFFFFFFFFFFFFFFFFFFFFFFFFFFF5D
:1003B000FFFFFFFFFFFFFFFFFFFFFFFFFFFFFFFF4D
:1003C000FFFFFFFFFFFFFFFFFFFFFFFFFFFFFFFF3D
:1003D000FFFFFFFFFFFFFFFFFFFFFFFFFFFFFFFF2D
:1003E000FFFFFFFFFFFFFFFFFFFFFFFFFFFFFFFF1D
:1003F000FFFFFFFFFFFFFFFFFFFFFFFFFFFFFFFF0D
:10040000FFFFFFFFFFFFFFFFFFFFFFFFDEF9FFFF23
:1004100010B5054C237833B9044B13B10448AFF33E
:1004200000800123237010BD3892FF1F00000000E0
:1004300000270100084B10B51BB108490848AFF36D
:1004400000800848036803B910BD074B002BFBD0A0
:10045000BDE81040184700BF000000003C92FF1F9D
:10046000002701003892FF1F00000000F0B4154F74
:100470000024031F00F1800100F5827200F17C0668
:1004800043F8044FB34241F8047F4FF0000542F8AF
:10049000044FF5D100230C4A0C49C0F88C51C0F828
:1004A0009051C0F8B051C0F8A421C0F8AC21C0F8F8
:1004B000A81180F8B83180F8B93180F8D031F0BC9B
:1004C000704700BF0000A040000048430000C8C2C1
:1004D00038B590F8D0310B2B0546144607D8702953
:1004E00066D0E02931D0602900F09B8038BD7029AA
:1004F0003AD0E02929D06029F8D1137A507A1B022A
:1005000003F47063181805D00BF0E2FF63490CF098
:1005100033F86860A37AE07A1B0203F4706318185A
:1005200005D00BF0D5FF5D490CF026F8A860237BC1
:10053000607B1B0203F470631818D7D00BF0C8FF60
:1005400056490CF019F8E86038BDE37BA07B03EB5B
:1005500000200BF0BDFF52490CF00EF851490BF092
:1005600003FFC5F8900138BD137A507A1B0203F4DB
:10057000FE43181805D00BF0ABFF48490BF0FCFF09
:100580006861A07AE37A13EB002005D00BF0A0FF9E
:1005900042490BF0F1FFA861207B637B13EB002045
:1005A000A4D00BF095FF3D490BF0E6FFE86138BDA4
:1005B000137A507A1B0203F47063181805D00BF0FD
:1005C00087FF36490BF0D8FF6861A37AE07A1B02F7
:1005D000C34208D003F4706318440BF079FF2F492D
:1005E0000BF0CAFFA861237B607B1B02C34208D0CB
:1005F00003F4706318440BF06BFF28490BF0BCFF49
:10060000E861A37BE07B1B02C3423FF46FAF03F4BE
:10061000706318440BF05CFF20490BF0ADFF2862BB
:1006200038BD137A507A1B0203F4FE42C24208D04E
:1006300003F4706318440BF04BFF18490BF09CFF58
:100640006860A37AE07A1B02C34208D003F47063A7
:1006500018440BF03DFF11490BF08EFFA860237B7F
:10066000607B1B02C34208D003F4706318440BF094
:100670002FFF0A490BF080FFE860A37BE07B1B02A1
:10068000C3423FF433AF03F4706318440BF020FF10
:1006900002490BF071FF286138BD00BF0AD7A33AA9
:1006A000DDB504BD00001643D0F8DC01704700BF83
:1006B00090F8C001704700BF90F8BC01704700BFC0
:1006C00090F8C401704700BF90F8C801704700BFA0
:1006D000202994BF50F82100002070472DE9F041F7
:1006E0000B4E8046041F00F17C0754F8045F31462E
:1006F00028460CF0DFF830B1D8F8B41128460CF0D9
:10070000F7F800B12E46BC42EFD13046BDE8F0818B
:10071000000020412DE9F041D0F8B4714FF00008FD
:10072000041F00F17C0654F8045F394628460CF09B
:10073000DFF8084948B128460CF0BCF8414620B122
:1007400028460CF0D5F800B1A846B442EBD140469B
:10075000BDE8F0810000A0402DE9F0470023D0F86B
:10076000B471C0F8DC3182461C464FF0000998464F
:10077000061F56F8045F384629460CF09BF80E49D0
:1007800060B128460CF096F840B1484629460BF077
:10079000EBFD08F101088146CAF8DC410134202C48
:1007A000E7D1CAF8D48140460BF092FE0146484694
:1007B0000BF096FFBDE8F08700007042D0F8D4013E
:1007C000704700BFD0F89001704700BFD0F890018B
:1007D000704700BFD0F89001704700BF2DE9F84383
:1007E0004FF00008D0F8B471C0F88C818146041F26
:1007F00000F17C0654F8045F394628460CF078F87E
:10080000084950B128460CF055F830B14046294609
:100810000BF0AAFD8046C9F88C01B442EAD14046EB
:10082000BDE8F8830000704202299ABF643150F895
:1008300021000020704700BF102998BF80F8D01118
:10084000704700BF90F8B801704700BF90F8B90139
:10085000704700BFC0F8CC11704700BF80F8B811D6
:10086000704700BF80F8B911704700BF30B5C0F8BD
:10087000B41183B008460BF0D5F9074C02250246A7
:100880000B460095204607F0BBFF204603B0BDE8AD
:10089000304007F05DBF00BFD887FF1F70B500F57F
:1008A00000550646183500F13804204604F5F0746A
:1008B000FFF7DCFDAC42F8D106F5067501242846A9
:1008C0000021FFF7CBFF214628460134FFF7B4FF94
:1008D000112C05F5F075F2D142F2200400250548EF
:1008E000054A064B3555002130627162B262F362EF
:1008F000304670BD00007A44000048430000C8C282
:1009000070B500F5EC46583600F50674002508E091
:1009100001252046002104F5F074FFF7A3FFB4423F
:100920000AD02046FFF78EFF0028F2D02046FFF7BE
:100930008DFF0028ECD170BD284670BD42F2240323
:100940002DE9F041002200F5F15500F500578046F1
:10095000C2501835243700F5067403E004F5F0742E
:10096000AC420ED02046FFF76DFF0028F6D020469F
:100970003E68FFF723FF04F5F0743044AC42386062
:10098000F0D142F2240358F80300BDE8F08100BF23
:1009900070B50E460121356805F00F040C44C4EB18
:1009A000041400EB441000F138042046FFF756FF12
:1009B00020460121FFF756FF3246204605F0F001A0
:1009C000BDE87040FFF784BD70B5002300F5005608
:1009D00005460361183600F5067403E004F5F0746B
:1009E000A64223D02046FFF72DFF0028F6D0204650
:1009F000FFF7F4FE014628690BF0B6FC286120469B
:100A0000FFF7E0FEA96A0BF055FF20BB2046FFF779
:100A1000DDFEE96A0BF06CFF0028DFD02046FFF70F
:100A2000D5FE04F5F074A642E862DBD168690BF0EC
:100A30004FFD014628690BF053FE696A28610446A0
:100A40000BF056FF00B16C62296A20460BF032FFB2
:100A500000B12C6270BD2046FFF7B4FEA862D5E756
:100A600070B5124B836100F500550646183500F548
:100A7000067403E004F5F074AC4214D02046FFF78E
:100A8000E1FE0028F6D02046FFF728FEB1690BF002
:100A900011FF0028EED02046FFF720FE04F5F07489
:100AA000AC42B061EAD1B06970BD00BF0000A040A7
:100AB00070B5002300F500550646C361183500F5F2
:100AC000067403E004F5F074AC4214D02046FFF73E
:100AD000B9FE0028F6D02046FFF71CFEF1690BF0A6
:100AE00007FF0028EED02046FFF714FE04F5F0744F
:100AF000AC42F061EAD1F06970BD00BF0069704797
:100B000041617047F8B50F46164600F50674012599
:100B100004E00135112D04F5F0741BD02046FFF7D9
:100B200091FE0028F5D029460B4807F061FE0A48DF
:100B300007F00EFE78200AF06DFB20463946FFF7DD
:100B400089FE013520463146FFF790FE112D04F550
:100B5000F074E3D1F8BD00BFD887FF1F42F21C0339
:100B60002DE9F041002200F50055C2502F46274ADA
:100B7000274B426306464FF00008036318351C37C5
:100B800000F5067403E004F5F074AC422ED0204664
:100B9000FFF758FE0028F6D02046FFF71BFE002185
:100BA0000BF0A6FE0028EED03B6801333B602046E8
:100BB000FFF710FE014640460BF0D6FB804620466C
:100BC000FFF704FE316B0BF093FED0B92046FFF720
:100BD000F9FD716B0BF06EFE0028D4D02046FFF7B4
:100BE000F1FD04F5F074AC427063D0D142F21C0305
:100BF000F0580BF06DFC014640460BF071FDBDE86E
:100C0000F0812046FFF7E2FD3063DFE700C0794462
:100C100000C079C4006B7047406B7047F8B500F5B1
:100C2000005507460026183500F5067403E004F564
:100C3000F074AC4210D02046FFF704FE0028F6D036
:100C40002046FFF789FD014630460BF08DFB04F589
:100C5000F074AC420646EED142F21C03F8580BF099
:100C600037FC014630460BF03BFDF8BD2DE9F04F57
:100C700093B004460F91002A40F0D78115461046E4
:100C8000C84900F0E5FDC749284600F0E1FDC54927
:100C9000284600F0DDFD42F21C03204654F803B064
:100CA000FFF74CFE8146206966690AF0BBFFCDE97B
:100CB00010012046FFF7B2FF82462046A769D4F80C
:100CC0001C80FFF74BFF0AF0ADFFCDE90C01394660
:100CD00040460BF047FBB4490BF04EFC0AF0A2FF74
:100CE000CDE90A0140460AF09DFFCDE908013846EA
:100CF0000AF098FFCDE9060150460AF093FFDDE9BE
:100D00001023CDE90401CDE90223A84900964B4602
:100D10005A46284600F09CFDA249284600F098FD5E
:100D200004F506744FF0010ADDF83C9007E00AF183
:100D3000010ABAF1100F04F5F07400F0F7802046B4
:100D4000FFF780FD0028F2D02046FFF7B1FC2046D7
:100D5000FFF7B2FC2046FFF7B3FC2046FFF7B4FCD8
:100D6000082193480AF0D2F95146924807F040FD15
:100D7000BAF1090F03DC01218F480AF0C7F90221FB
:100D80008E480AF0C3F92046FFF728FD0AF04AFF13
:100D90005FFA89F802460B46CDF80080854807F0D7
:100DA0002FFD012186480AF0B1F92046FFF77CFCAF
:100DB0000C2800F3BE8001261EE0062181480AF0BF
:100DC000A5F929467B4807F013FD02217E480AF069
:100DD0009DF931462046FFF77BFC0AF023FFCDF852
:100DE000008002460B46734807F00AFD0121744853
:100DF0003D460E440AF08AF92046FFF755FC86422C
:100E000005F101076BDC092DD7DC01216A480AF0E6
:100E10007DF9D2E72046FFF747FC172800F3BE8094
:100E200035460D261CE00AF071F92946614807F0A5
:100E3000DFFC022164480AF069F931462046FFF7D9
:100E400047FC0AF0EFFECDF8008002460B465948F9
:100E500007F0D6FC01215A483D460E440AF056F9E7
:100E60002046FFF721FC86424FF00601554805F168
:100E70000107D8DD0F2155480AF048F94D4807F021
:100E800067FC2046FFF710FC192828DD19261CE016
:100E90000AF03CF92946474807F0AAFC02214A48D3
:100EA0000AF034F931462046FFF712FC0AF0BAFE88
:100EB000CDF8008002460B463E4807F0A1FC012118
:100EC0003F483D460E440AF021F92046FFF7ECFB6F
:100ED00086424FF006013B4805F10107D8DD0F219E
:100EE0003A480AF013F9334807F032FC0921384830
:100EF0000AF00CF900212046FFF796FC0AF092FE5A
:100F0000022602460B4600962A4807F079FC0F217C
:100F10002E480AF0FBF80AF1010A264807F018FCEF
:100F2000BAF1100F04F5F0747FF409AF13B0BDE807
:100F3000F08F2F46012620E0062122480AF0E6F82D
:100F400039461C4807F054FC02211F480AF0DEF81D
:100F500031462046FFF7BCFB0AF064FECDF8008066
:100F600002460B46134807F04BFC0136012114489A
:100F70000AF0CCF80C2E09D05F46092F07F1010BBF
:100F8000DADC01210C480AF0C1F8D5E72046FFF76A
:100F90008BFB0C2805F10B063FF73CAF16350D27F0
:100FA0003AE000BFC420010000007A44E00D0100D7
:100FB000800E0100D887FF1FEC1E01008013010086
:100FC0008C0E0100900E010068100100980E0100C7
:100FD000A80E01000621BD480AF098F83146BC4829
:100FE00007F006FC0221BB480AF090F8394620467B
:100FF000FFF76EFB0AF016FECDF8008002460B46A6
:10100000B34807F0FDFB0121B3480F440AF07EF816
:101010005D453FF42FAF5E46092E06F1010BD9DC8A
:101020000121AE480AF072F8D4E7AD49012000F082
:101030000FFCAB49012000F00BFCA949012000F096
:1010400007FC42F21C032046E2581092FFF776FCA0
:101050008246206966690AF0E5FD80462046894699
:10106000FFF7DCFD83462046A569E769FFF776FDBB
:101070000AF0D8FDCDE90C01294638460BF072F98B
:1010800098490BF079FA0AF0CDFDCDE90A0138460E
:101090000AF0C8FDCDE9080128460AF0C3FDCDE9F4
:1010A000060158460AF0BEFD5346CDE90401CDE9DC
:1010B0000289109A8C490096012000F0C9FB8849EA
:1010C000012000F0C5FB04F506744FF0010A00256D
:1010D000DDF83C9007E00AF1010ABAF1100F04F5BF
:1010E000F0743FF423AF2046FFF7ACFB0028F2D0AA
:1010F0002046FFF7DDFA2046FFF7DEFA2046FFF72D
:10110000DFFA2046FFF7E0FA0821784808F05AFC99
:101110005146774807F06CFBBAF1090F03DC012157
:101120006E4808F04FFC0221724808F04BFC204644
:10113000FFF754FB0AF076FD5FFA89F802460B468A
:10114000CDF800806A4807F05BFB0121624808F097
:1011500039FC2046FFF7A8FA0C2800F3B4800126DA
:101160001EE00621594808F02DFC2946604807F08A
:101170003FFB0221574808F025FC31462046FFF787
:10118000A7FA0AF04FFDCDF8008002460B465848FA
:1011900007F036FB012150483D460E4408F012FC92
:1011A0002046FFF781FA864205F101076BDC092D25
:1011B000D7DC0121494808F005FCD2E72046FFF7BB
:1011C00073FA172800F3CE8035460D261CE008F090
:1011D000F9FB2946464807F00BFB02213D4808F081
:1011E000F1FB31462046FFF773FA0AF01BFDCDF8FC
:1011F000008002460B463E4807F002FB01213648BC
:101200003D460E4408F0DEFB2046FFF74DFA8642CD
:101210004FF006012D4805F10107D8DD0F213648B2
:1012200008F0D0FB324807F093FA2046FFF73CFA6B
:10123000192828DD19261CE008F0C4FB29462C4893
:1012400007F0D6FA0221234808F0BCFB31462046BD
:10125000FFF73EFA0AF0E6FCCDF8008002460B46A6
:10126000234807F0CDFA01211B483D460E4408F003
:10127000A9FB2046FFF718FA86424FF006011348F3
:1012800005F10107D8DD0F211B4808F09BFB18482A
:1012900007F05EFA0921194808F094FB0021204666
:1012A000FFF7C2FA0AF0BEFC022602460B46009681
:1012B0000F4807F0A5FA0F210F4808F083FB0C48F0
:1012C00007F046FA07E72F4601263AE0900E0100A4
:1012D000D887FF1F681001008C0E0100EC1E010072
:1012E000C420010000007A44E00D0100800E0100DE
:1012F000AC87FF1F80130100980E0100A80E0100AB
:1013000006212F4808F05EFB39462E4807F070FA98
:1013100002212D4808F056FB31462046FFF7D8F948
:101320000AF080FCCDF8008002460B46254807F005
:1013300067FA01360121254808F044FB0C2E09D03C
:101340005F46092F07F1010BDADC0121204808F084
:1013500039FBD5E72046FFF7A7F90C2805F10B0666
:101360003FF72CAF16350D2721E00621144808F071
:1013700029FB3146134807F03BFA0221124808F0D6
:1013800021FB39462046FFF7A3F90AF04BFCCDF8C4
:10139000008002460B460B4807F032FA01210B4849
:1013A0000F4408F00FFB5D453FF438AF5E46092E51
:1013B00006F1010BD9DC0121054808F003FBD4E755
:1013C000900E0100AC87FF1F681001008C0E010019
:1013D000EC1E01002DE9F04F85B000F506758A4638
:1013E00003929B462E464FF0010806E008F10108E3
:1013F000B8F13F0F06F5F0767BD03046FFF722FAC2
:101400000028F3D000230A2251467D4807F0B0F9A6
:1014100001217C4809F07AFE03980AF003FC0023BE
:101420000246009376480B4607F0EAF90121754819
:1014300009F06CFE5946724807F0DAF9012171484B
:1014400009F064FE41466E4807F0D2F901216D486B
:1014500009F05CFE00244FF0020921463046FFF7F8
:1014600037F90AF0DFFBCDF8009002460B466448DE
:1014700007F0C6F901340121624809F047FE082C43
:101480004FF00207E9D100213046FFF7CDF90AF00D
:10149000C9FB009702460B46594807F0B1F90121F4
:1014A000584809F033FE01213046FFF7BDF90AF034
:1014B000B9FB009702460B46514807F0A1F90121FC
:1014C000504809F023FE39463046FFF7ADF90AF0DF
:1014D000A9FB009702460B46494807F091F908F12D
:1014E0000108474807F034F9B8F13F0F06F5F076E8
:1014F00083D101274FF0000904E001373F2F05F5A4
:10150000F07579D02846FFF79DF90028F5D0002323
:101510000A2251463C4807F02BF90121394808F0CE
:1015200051FA03980AF07EFBCDF8009002460B4674
:10153000354807F065F90121324808F043FA594669
:10154000314807F055F901212E4808F03BFA394699
:101550002D4807F04DF901212A4808F033FA0024FC
:101560004FF0020821462846FFF7B2F80AF05AFB6E
:10157000CDF8008002460B46234807F041F90134BC
:101580000121204808F01EFA082C4FF00206E9D18C
:1015900000212846FFF748F90AF044FB009602466E
:1015A0000B46194807F02CF90121164808F00AFAF1
:1015B00001212846FFF738F90AF034FB009602466D
:1015C0000B46114807F01CF901210E4808F0FAF902
:1015D00031462846FFF728F90AF024FB0096024618
:1015E0000B46094807F00CF90137074807F0B0F837
:1015F0003F2F05F5F07585D105B0BDE8F08F00BF30
:10160000D887FF1FB40E0100AC87FF1F70B50446DA
:1016100008460D460BF0B4FF2368024629462046D3
:101620005B68BDE870401847014B1870704700BFF9
:101630002087FF1FF0B51546027883B062B10346DC
:101640000E46252A16D018781C4685B909F0E2FD09
:101650006278631C002AF4D1002D5CD0744803B07A
:10166000BDE8F04007F074B81046002DEED008F049
:1016700051F9EDE758785C1C0028EDD02528F3D00F
:1016800073282FD0642825D0692823D0662848D015
:101690007A2853D078285ED0582800F085806228B8
:1016A00000F09180422866D06C2813D0632811D0B6
:1016B000742800F098805428C7D133680436002D70
:1016C00040F0A480012B00F0A8800521594809F0C2
:1016D0001DFDBDE7331D316885B957481E4607F02B
:1016E00087F8B5E7371D3668304665B90BF048FF17
:1016F000014630463E4609F009FDA9E74C481E4622
:1017000007F076F8A4E70BF03BFF014630463E4673
:1017100008F058F99CE7484803B0BDE8F04007F0EE
:1017200017B8073626F007060321D6E900230091F3
:1017300065B94148083607F063F889E7073626F0AF
:101740000706D6E9002385B1002100913848083604
:1017500007F056F87CE7371D3168F5B900231022F1
:1017600035483E4607F004F872E7009532480836DF
:1017700007F046F86CE7022130487DBB09F0C6FC53
:101780003168371D2B4602222B483E4606F0F0FFFB
:101790005EE708F017F93168371D0023102224484E
:1017A0003E4606F0E5FF53E702212548002DF0D123
:1017B00009F0ACFC371D31681F482B4610223E460D
:1017C00006F0D6FF44E7371D3168002DDAD000233C
:1017D000022217483E4606F0CBFF39E708F0F2F840
:1017E000371D3168F3E7316804363DB901290EBF72
:1017F00014481548012109F089FC29E701290EBF89
:1018000010481148012108F0DDF821E7012B09D02B
:101810000521084808F0D6F81AE70C490648FFF7F2
:10182000F5FE15E709490248FFF7F0FE10E700BF93
:10183000AC87FF1FF40E0100D887FF1FE00E0100E8
:10184000DC0E0100E40E0100E80E0100EC0E0100C8
:101850000EB400B582B003A9024651F8040B019101
:10186000FFF7E8FE02B05DF804EB03B0704700BF7D
:1018700030B4074D074C084900232B7023600365E3
:101880004365836580F85C300B6030BC704700BFF7
:101890005C92FF1F5892FF1F5492FF1F0A4A0B4988
:1018A000906D536D03FB00F34FF47A7000FB03F06F
:1018B000642310B50B600AF00BFE0549054C0AF0D5
:1018C0000FFF206010BD00BF6093FF1F3487FF1F14
:1018D000E4388E3E2093FF1F2DE9F0414249434FEB
:1018E000434D444E444C0020FFF7B2FF434B444A63
:1018F00044485A60DF601222002743491A70186179
:10190000424A43485D615E62424D9C614FF07C56A5
:10191000414C1F63414F9962DA62414958630C227E
:1019200040489D635E6440F61C450A269C641F6225
:1019300041F204043C4FD9641A6502210122C3F824
:10194000B8009D6600206425DE661C674FF496761D
:101950003224DF61DF635A27597059721A725A654F
:1019600083F840005E66DE651C669D655F6798676C
:10197000C3F88000C3F89C008C204FF47A78DFF81D
:10198000ACC0D967C3F89440C3F8A040DFF8A0E02A
:10199000C3F8A820FF27C3F8AC10052641F2883110
:1019A0004FF4FA7483F8BC2083F8BD2083F8BE207E
:1019B00083F8C20040F2D662C3F8B050C3F89880F2
:1019C000C3F888C0C3F88CE0C3F8A470A3F8B6606D
:1019D000A3F8C040C3F89010A3F8B410A3F8842073
:1019E000A3F88620BDE8F081FC0E01006666864003
:1019F00033338340CDCCCC3DCDCC4C406093FF1FE6
:101A000048E801000000404000008242000020C180
:101A1000000020420000A0409A997940333373407F
:101A20000AD7233D9A99993ECDCC4C3E000068429E
:101A300000C02044F0B54FF47A6085B007F0E2FCB6
:101A400000210F2007F0B6FC00210E2007F0B2FCA9
:101A50000021112007F0AEFC0021102007F0AAFCA5
:101A60000021122007F0A6FC0021132007F0A2FCA1
:101A700001210B2007F09EFC01210C2007F09AFCAD
:101A80000121142007F096FC0121152007F092FC9B
:101A90000121162007F08EFC0121172007F08AFC97
:101AA0000121052007F086FC8D4C8E4D012106207A
:101AB00007F080FC01210D2007F07CFC20880AF053
:101AC00003FD0146162007F0DFFB20880AF0FCFC2E
:101AD0000146172007F0D8FB20880AF0F5FC0146E4
:101AE000052007F0D1FB20880AF0EEFC0024014617
:101AF000062007F0C9FB009423467B4A7B497C48BB
:101B000005F0E2FAE6B232467649794805F08AFAFB
:101B10002B79744976486FF30003013432462B71F8
:101B200005F076FA082CEDD10924E6B232466D496B
:101B30006F4805F077FA2B796A496D4843F0010345
:101B4000013432462B7105F063FA0D2CEDD1694C4E
:101B50004FF0FF322068102105F082FE20684FF020
:101B6000FF32102105F054FE20684FF0FF320221B1
:101B700005F062FE20684FF0FF32022105F066FE9C
:101B800000220F21206805F075FE0C215A4809F04B
:101B9000BDFA5A4806F0DCFD1621594809F0B6FA9C
:101BA000564806F0D5FD40F2836007F0E9FC40F2AC
:101BB000413008F0E3F8514806F0CAFD17215148BA
:101BC00009F0A4FA4D4806F0C3FD4F4B1B789A0666
:101BD00000F1B4804C4B1B781B0700F1BB804A4BD3
:101BE0001B785F0700F1C280474B1B789E0700F10E
:101BF000C980464B1B781D0600F1D080434B1B78F3
:101C00005C0600F1D780414B1B78980600F1DE801E
:101C10003E4B1B78590700F1E5803C4B1B781A07B7
:101C200000F1EC80394B1B789B0700F1F3803348BF
:101C300006F08EFD72B6364A4CF220504DF6281151
:101C4000108020231180013BFDD1324C32483349B2
:101C500000234FF48055258003800B8032F80E3C22
:101C60009BB243F0D30322F80E3C62B618212C48F5
:101C70002C4D09F04BFA214806F06AFD05F1C40627
:101C80002F462C46601B06F0CFFF04F8010BB44230
:101C9000F8D13B78122B01D0FFF71EFE0420FFF78E
:101CA000C3FC214B002201210D201A6007F06EFBBE
:101CB000796D1E48FEF724FF7A6C97F840101B4898
:101CC000FEF720FF1A4B1B491A68039203981B6802
:101CD0000293029A184B08601A6005B0F0BD00BF6D
:101CE0002887FF1F2C94FF1F38B7FF1F48E801000B
:101CF0009CB5FF1FD894FF1F1C0F0100D887FF1F42
:101D00002C0F0100440F010001F0074000F00740D4
:101D10000E20054004200540062005401620054001
:101D2000481001006093FF1F7092FF1F7495FF1F02
:101D300060B7FF1F0895FF1F3494FF1F212139480A
:101D400009F0E4F9384806F003FD384B1B781B070F
:101D50007FF545AF0C21364809F0D8F9324806F036
:101D6000F7FC324B1B785F077FF53EAF0E21314801
:101D700009F0CCF92C4806F0EBFC2C4B1B789E07A5
:101D80007FF537AF17212C4809F0C0F9264806F037
:101D9000DFFC2A4B1B781D067FF530AF0E2128484B
:101DA00009F0B4F9204806F0D3FC244B1B785C06FC
:101DB0007FF529AF1221234809F0A8F91A4806F047
:101DC000C7FC1E4B1B7898067FF522AF13211E48D7
:101DD00009F09CF9144806F0BBFC184B1B78590716
:101DE0007FF51BAF1C21194809F090F90E4806F049
:101DF000AFFC124B1B781A077FF514AF192114485A
:101E000009F084F9084806F0A3FC0C4B1B789B07EB
:101E10007FF50DAF18210F4809F078F9024806F058
:101E200097FC04E75C0F0100D887FF1F01F0074013
:101E3000800F0100900F0100A00F010000F007408B
:101E4000B80F0100C80F0100DC0F0100F00F010006
:101E5000101001002C10010070B5464C464D47484B
:101E6000E66800232B70FEF723FE014630460AF099
:101E700021FD08B104232B704048FEF7F1FD2169D4
:101E80000AF018FD18B12B7843F010032B703B4873
:101E9000FEF7C0FEA16A0AF02BFD18B12B7843F0C3
:101EA00040032B70002335486B70FEF7B5FEE16AE6
:101EB000314E0AF0FFFC08B10123737000232F4854
:101EC000EB70FEF7F5FD05462C482B4EFEF7C8FDDE
:101ED000014628460AF046FAE16B0AF009FD08B10E
:101EE0000123F370264D254800232B70FEF7E0FDFB
:101EF000616A0646E0680AF035FA014630460AF0A3
:101F0000F7FC08B104232B701C48FEF7A9FD616A99
:101F1000064620690AF028FA014630460AF0CAFC53
:101F200018B12B7843F010032B701448FEF772FEA3
:101F3000A16B0646A06A0AF015FA014630460AF07F
:101F4000D7FC18B12B7843F040032B7000230B48CB
:101F50006B70FEF761FEA16B0546E06A084C0AF063
:101F600003FA014628460AF0A5FC08B10123637074
:101F700070BD00BF6093FF1F5C93FF1F7495FF1F30
:101F8000C894FF1F2DE9F0417C4C2368012B82B0DF
:101F900031D0022B00F0A880032B00F0C8803BBB9F
:101FA000774B784AD3F8A010D3F8A43012685B1AA4
:101FB000632B0EDD744803FB02F380FB0302DB1787
:101FC000C3EB62131944062002B0BDE8F04107F0EC
:101FD0005DB86E4803FB022380FB0302DB17C3EBF3
:101FE00022121144062002B0BDE8F04107F04EB8BD
:101FF00002B0BDE8F081664E33680A33B3F57A7FEC
:1020000000F3B780184633600AF062FA61490AF0BB
:10201000B3FA80465A4DD5F8A0000AF059FA07469F
:10202000D5F8A4000AF054FA39460AF09BF9414663
:102030000AF0A2FA58490AF053FB39460AF094F91B
:102040000AF060FC0146062007F020F80221534800
:1020500009F05CF8524806F07BFB0621514809F074
:1020600055F830680AF034FA4A490AF085FA09F05E
:10207000D9FD022702460B460097494806F0C0FBEF
:102080000D21494809F042F8D5F8A0000AF020FADD
:10209000804630680AF01CFA3E490AF06DFA06469E
:1020A000D5F8A4000AF014FA41460AF05BF901469B
:1020B00030460AF061FA38490AF012FB41460AF04C
:1020C00053F909F0AFFD00970B460246344806F07D
:1020D00097FB3946314809F019F8314806F038FBCA
:1020E0002368022B7FF458AF294B254E00221A603B
:1020F000D6F8A0000AF0ECF90546D6F8A4000AF0DC
:10210000E7F929460AF02EF900210AF035FA2249AA
:102110000AF0E6FA29460AF027F90AF0F3FB01462D
:10212000062006F0B3FF2368032B7FF438AF184B6B
:10213000134E4FF47A721A60D6F8A0000AF0C8F96C
:102140000546D6F8A4000AF0C3F929460AF00AF9B0
:1021500011490AF011FA10490AF0C2FA29460AF0A8
:1021600003F90AF0CFFB0146062006F08FFF236833
:1021700015E700234FF0000833604BE73493FF1F4F
:102180006093FF1F3487FF1F1F85EB51CBF08D2815
:102190007492FF1FCDCCCC3D0000C84280130100DB
:1021A000D887FF1F641001006C10010070B5B8489B
:1021B000B84C06F0CDFAB64806F0CAFAB44806F0B4
:1021C000C7FA0D21B44808F0A1FFD4F89C30012BC8
:1021D00011D0B24CAE48217800230A2206F0C8FA8A
:1021E0002378052B67D8DFE813F00B0110011501E8
:1021F0001A011F0101010921A94808F087FFA94818
:10220000FEF72EFC21690AF055FB18B10F21A648F4
:1022100008F07CFFA348FEF74BFCE1680AF068FB7E
:1022200018B10E21A14808F071FF9E48FEF740FC4E
:1022300005469C48FEF714FC014628460AF092F831
:10224000E16B0AF055FB18B11121994808F05EFFC7
:102250009448FEF783FCA16A0AF04AFB18B10C21EE
:10226000944808F053FF8F48FEF778FCE16A0AF0C3
:1022700021FB18B10D21904808F048FF8F4B894889
:102280001B68012B00F0ED80FEF7EAFB2169814D10
:102290000AF02EFB78B18348FEF70AFCE9680AF0E1
:1022A00009FB40B17D4B1B78052B00F0EB8008212A
:1022B000834808F02BFF0221824808F027FF1220F4
:1022C00007F06AF8012800F0B480112007F064F8E4
:1022D000012800F0B8807C4B1B68012B00F0BC800B
:1022E00002217848794C08F011FF794B6848196849
:1022F00006F07EFA664806F02BFA0421754808F0CD
:1023000005FF0B2007F048F8002301460A22604829
:1023100006F02EFA0C2007F03FF8002301460A22AF
:102320005B4806F025FA142007F036F80023014632
:102330000A22574806F01CFA152007F02DF80A2249
:1023400000230146524806F013FA0621624808F0BD
:10235000DDFE2368DD074FF001014CBF5F48604898
:1023600008F0D4FE236898074FF001014CBF5B488A
:102370005B4808F0CBFE23685A074FF001014CBFC1
:102380005648574808F0C2FE23681B074CBF534805
:102390005348012108F0BAFE0421524808F0B6FE65
:1023A000112006F0F9FF002301460A22384806F002
:1023B000DFF9102006F0F0FF002301460A2234481E
:1023C00006F0D6F9122006F0E7FF002301460A22A4
:1023D0002F4806F0CDF9132006F0DEFF002301465A
:1023E0000A222B48BDE8704006F0C2B907213E48DA
:1023F00008F08CFE3D4B2648196806F0F9F95AE7BB
:1024000006213B4808F082FE55E70721394808F0CD
:102410007DFE50E70721384808F078FE4BE7082199
:10242000364808F073FE46E70B21354808F06EFE8B
:1024300041E70E21334808F069FE112006F0ACFF99
:1024400001287FF448AF0A212F4808F05FFE1E4B99
:102450001B68012B7FF444AF11212C4808F056FE75
:102460003EE7FEF7FDFA216A0AF042FA00283FF43F
:102470001EAF1621264808F049FE0A21254808F01B
:1024800045FE18E70A21234808F040FE13E700BF85
:10249000D887FF1F6093FF1F7C100100C494FF1FAB
:1024A0008C1001007495FF1F98100100A810010006
:1024B000B8100100CC100100DC1001000093FF1FD8
:1024C0001011010080130100E094FF1F2494FF1FEE
:1024D000AC94FF1F841101008C11010094110100C4
:1024E000A01F0100981101004C110100E494FF1F8E
:1024F0001C110100241101003811010040110100DC
:102500002C1101005411010064110100701101002F
:10251000EC100100041101002DE9F04F9B4C9C4F81
:10252000E36F012B8DB000F05981032B5AD0994EE7
:10253000994DA36F9948012B09BF2968296801F1BA
:102540000041296005F088FD3368002B40F0D880F9
:10255000924805F057FDE36F3860012B064600F006
:10256000DC808F490AF0C4F9B8B98E4930460AF0C8
:10257000A1F990B98C4A8D4B12680B920B9A1A6094
:10258000D4F8A80009F0A4FF314609F0F5FF0023B4
:1025900038602B600DB0BDE8F08FDFF80CA2DFF8DB
:1025A0000C82DAF800300A930A98D8F80030DFF885
:1025B0002492C01A09F088FF314609F0DDFF7C49FA
:1025C0000AF08EF87A490AF08BF8D9F8001009F071
:1025D000CBFEDAF800300993099BC9F80000C8F86F
:1025E0000030CDE7DFF8D081724DD8F80000694E99
:1025F000012300220F212B6005F03CF92B68012BF1
:10260000336800F00981002B40F0AC810021D8F83C
:102610000000DFF8C491684D05F07EF933681FFAB9
:1026200080FBC9F800B0002B40F081810021D8F870
:102630000000594DDFF880A105F0F4F8B4F88630B9
:1026400040F6E44101FB0BF1B1FBF0F0C01A00B21F
:1026500009F03EFF59498346D4F8880009F08CFF01
:10266000014658460AF03CF8D9F800302860632B40
:10267000DFF864B100F34F8100232B603368002B37
:102680003FF457AF02214E4808F040FDD9F8002032
:10269000D8F8000040F6E443002103FB02F805F0FF
:1026A000C1F8B8FBF0F009F00FFF8046B4F88600DF
:1026B00009F00EFF0146404609F054FE09F0B2FA57
:1026C0004FF0020802460B46CDF800803D4806F068
:1026D00097F841463A4808F019FD286809F0A2FA2F
:1026E000CDF8008002460B46364806F089F8414690
:1026F000354808F00BFD4146314808F007FD18E762
:10270000264805F07FFC09F08DFA022602460B46AA
:1027100000962C4806F074F81AE7264B1B68012B2C
:1027200000F02C81022B7FF42BAF28490AF0E0F84F
:1027300030B9274930460AF0BDF8002800F053812F
:10274000DFF864A0DFF86480DAF8003007930798B8
:10275000D8F80030DFF87C90C01A09F0B5FE314699
:1027600009F00AFF124909F0BBFF114909F0B8FF4F
:10277000D9F8001009F0F8FDDAF800300693069B4E
:10278000C9F80000C8F80030FAE600BF6093FF1FE8
:102790001493FF1F0495FF1F7C92FF1F3893FF1FA8
:1027A0000000FA430000FAC360B7FF1FD494FF1F74
:1027B00000007A445087FF1FD894FF1F17B7D13805
:1027C00080130100D887FF1FDC11010000C82F48CB
:1027D00000A08CC62093FF1F5893FF1F3D689B49A4
:1027E00028460AF067F830B1284699490AF080F87F
:1027F00000287FF4F7AEDFF86482964DD8F8000029
:10280000954E022300220E212B6005F033F82B6831
:10281000012B33687FF4F7AE002B40F006810021D6
:10282000D8F80000DFF874928C4D05F075F8336825
:102830001FFA80FBC9F800B0002B40F0DB800021BC
:10284000D8F80000864D04F0EDFFB4F8843040F66F
:10285000E44A0AFB0BFBBBFBF0F0C01A00B209F024
:1028600037FE80498346D4F88C0009F085FE014686
:10287000584609F035FFD9F8003028600021D8F813
:1028800000000AFB03FA04F0CDFFB4F88430BAFB71
:10289000F0F00FFA80FAC3EB0A03002BB4F8B6206D
:1028A000B8BF5B429342BCBF00232B603368002B50
:1028B0003FF43FAE02216C4808F028FCD9F8002014
:1028C000D8F8000040F6E443002103FB02F804F0CE
:1028D000A9FFB4F88410B8FBF0F000B2411A6348C5
:1028E00005F086FF0221604808F010FC286809F016
:1028F00099F94FF0020802460B46CDF800805B487C
:1029000005F07EFF03215A4808F000FC4146564876
:1029100008F0FCFB0DE6DAF80000002104F082FF6D
:10292000DBF8003064389842FFF4A6AEA6E600213A
:10293000286804F077FF40F6E44100230A2201FBF7
:102940000BF1B1FBF0F1494805F012FF02214648B6
:1029500008F0DCFBB4F88610444805F049FFD9F8CC
:1029600000B063E6414805F0F3FE0C21414808F051
:10297000CDFB0C21404808F0C9FB47E63F4909F070
:10298000B7FF58B93E49304609F094FF30B93D4A87
:102990003D4B12680592059A1A60F1E5DFF8E4A054
:1029A000DFF8E480DAF8003004930498D8F80030B7
:1029B000DFF8EC90C01A09F087FD314609F0DCFD24
:1029C000324909F08DFE314909F08AFED9F800102C
:1029D00009F0CAFCDAF800300393039BC9F8000041
:1029E000C8F80030CCE5274A274B12680892089AAD
:1029F0001A60C5E50021286804F014FF40F6E441A0
:102A000000230A2201FB0BF1B1FBF0F1174805F09E
:102A1000AFFE01211E4808F079FBB4F8841013487A
:102A200005F0E6FED9F800B009E7104805F090FE81
:102A3000E36F012B4FF00B010CBF1648164808F04E
:102A400065FB0C210C4808F061FBE8E60070944639
:102A5000007094C65087FF1F0495FF1FD894FF1F76
:102A60007C92FF1F17B7D13880130100D887FF1F52
:102A7000C8110100CC110100B81101000000FA4397
:102A80000000FAC360B7FF1FD494FF1F00007A4410
:102A9000EC1E0100A0110100AC1101005893FF1FB2
:102AA0002093FF1F2DE9F04F994C236885B0002B30
:102AB0007BD0984DDFF86482974FDFF8A892D5F865
:102AC0008030944E012B00F08B80D7F800A0D6F810
:102AD00058B0746D914E04FB0BF44FF47A7000FB08
:102AE00004F009F0F5FC8E490446504609F044FD17
:102AF000214609F0F5FD8B4909F03EFD09F002FF82
:102B00006328C8F800004BDD2046854909F0E8FD40
:102B1000642338603360D9F80030002B3DD0EB6F70
:102B20007C4C012B00F08A80032B00F0DF80022B0D
:102B300000F0E28002217C4808F0E8FA7B4B18683C
:102B400009F070F8022402460B460094784805F01C
:102B500057FE2146774808F0D9FA2146724808F016
:102B6000D5FAD8F80010724805F042FE06217248E6
:102B700008F0CCFA38686A4909F0FEFC09F052F80E
:102B8000009402460B466A4805F03AFE03216B4862
:102B900008F0BCFA664805F0DBFD05B0BDE8F08F33
:102BA0000028BCBF00233360B5E7654E594D33683C
:102BB0000293029A42F228339A424BD83368039325
:102BC000039A42F210739A424BD8D5F88030DFF85E
:102BD0004C81514FDFF88C914E4E012B7FF475AF35
:102BE0005848FEF71BF85849D6F868A0F46E09F06B
:102BF000C3FC09F0ADFE326F736FD5F858B0CAEB65
:102C000002021B1B80B29A42CAEB0000C6BF03FB44
:102C100000000132584390FBF2F020446C6D00FB41
:102C20000BF004FB00F000EB8000400009F050FCCA
:102C30003B4909F055FD824638604BE7434B1B6822
:102C4000012B4FF00A010CBF4148424808F05EFAE0
:102C5000E36F69E73B486A6C95F84010FDF752FF57
:102C6000ACE73848FDF7DAFF3749AF6EEE6E09F092
:102C700083FC09F06DFE2A6F6B6FD21B9B1B80B229
:102C80009A42A0EB07003CDD03FB0000531C90FBC5
:102C9000F3F31E44A86D6B6DDFF88080DFF8C490FD
:102CA000C8F8006000FB06F003FB00F000EB8000BA
:102CB000400009F00DFC1A49174F09F011FDD9F831
:102CC0000030386001222260002B3FF4F8AE022170
:102CD000154808F01BFA164805F03AFD59211E4820
:102CE00008F014FA124805F033FDE8E610211B48FD
:102CF00008F00CFAEB6F1AE70721194808F006FAFA
:102D000018E703FB00F393FBF2F31E44C2E700BF96
:102D10007892FF1F6093FF1F2093FF1F3487FF1FD0
:102D2000E4388E3E0000C842801301001493FF1F58
:102D3000D887FF1FDC11010070120100781201001A
:102D400060B7FF1F7495FF1F00007A445087FF1F74
:102D50003C12010048120100E01101005412010070
:102D6000681201003C87FF1FF0B5112083B006F008
:102D700013FB012813D000210B2006F007FB0021D4
:102D80000C2006F003FB0021152006F0FFFA1D4978
:102D90001D4B0120002208701A6003B0F0BD0146EF
:102DA0000446152006F0F2FA1849194A194B096829
:102DB0000191D2F890001B680199134D034402263B
:102DC0008B422E6017D8D2F8980009F081FB124B85
:102DD000196809F06FFD074668B921460B2006F017
:102DE000D5FA084A032339460C2016702B6006F0EA
:102DF000CDFA03B0F0BD01210C2006F0C7FA03B0F4
:102E0000F0BD00BFC494FF1F0095FF1F60B7FF1FF8
:102E10006093FF1F0895FF1F1493FF1FF0B56D4EC1
:102E20006D4D34682B689C4287B03AD014F0010194
:102E300056D014F002014AD014F004013ED0E3074A
:102E40000FD52B68DF070CD4644F3A68002A00F0D6
:102E50009E80634B1B680193019B934200F2898023
:102E60003468A0070DD52B6899070AD45D4F3A68DE
:102E7000002A3ED05A4B1B680393039B93425AD8B7
:102E8000346862070DD52B685B070BD4564F3A6840
:102E9000002A3FD0524B1B680593059B934258D89C
:102EA00034680CB107B0F0BD2146162006F0EEF8EC
:102EB0002146172006F0EAF807B0F0BD052006F01D
:102EC000E5F82B68346803F0FB032B60B7E71720A5
:102ED00006F0DCF82B68346803F0FD032B60ABE7E9
:102EE000162006F0D3F82B68346803F0FE032B603D
:102EF0009FE73E4B1B68002B56D1FF21172006F0A1
:102F0000C5F8374B3A4A19680291029912680A4487
:102F10003A60B0E7354B1B68002B50D1FF210520EC
:102F200006F0B4F82E4B324A1968049104991268DD
:102F30000A443A60AFE72F4B1720D3F8941006F0FD
:102F4000A5F82B68346843F0020300222B603A6036
:102F500097E7284B0520D3F8941006F097F82B68D4
:102F6000346843F0040300222B603A60002C99D1AE
:102F70009AE7204B1620D3F8941006F087F82B68B8
:102F8000346843F0010300222B603A6069E7FF21B7
:102F9000162006F07BF8124B154A1968009100992B
:102FA00012680A443A6055E7134805F0D1FB0C213A
:102FB000124808F0ABF8104805F0CAFB9DE70E4830
:102FC00005F0C6FB0C210E4808F0A0F80A4805F0F1
:102FD000BFFBA3E70095FF1F2494FF1F9C94FF1FD6
:102FE00060B7FF1FA094FF1FA494FF1F3C87FF1F23
:102FF0006887FF1F6093FF1FD887FF1F7C120100A7
:103000008C1201002DE9F047544EDFF87481DFF88F
:1030100074913068524D00220F2104F02BFC0023E4
:10302000012222214F48C8F80030C9F8002008F0DA
:103030006DF8D8F80030132B22DC40F6E44700216D
:103040003068B5F884A004F067FC002104463068BD
:1030500004F0E8FBA4B2012107FB04F4B4FBF0F494
:1030600041485444A5F8844008F050F8642006F024
:10307000C9F9D8F800300133132BC8F80030DEDD71
:10308000B5F88430394A3A48A2FB03129B1A02EB86
:103090005303C3F30F131946A5F8843005F0A8FBBA
:1030A0001D21344808F032F80221334808F02EF888
:1030B0002F4805F04DFB00231A460E213068C8F852
:1030C000003004F0D7FB022322212648C9F8003043
:1030D00008F01CF8D8F80030132B22DC40F6E44747
:1030E00000213068B5F8869004F016FC00210446F3
:1030F000306804F097FBA4B2012107FB04F4B4FB91
:10310000F0F419484C44A5F8864007F0FFFF64200E
:1031100006F078F9D8F800300133132BC8F80030E6
:10312000DEDDB5F88630114A1148A2FB03129B1A66
:1031300002EB5303C3F30F131946A5F8863005F0CD
:1031400057FB1D210D4807F0E1FF02210A4807F057
:10315000DDFF0748BDE8F04705F0FABAD894FF1F35
:103160006093FF1F9C120100E01201008761188626
:10317000D887FF1FC012010080130100E412010074
:10318000B094FF1F5087FF1FA64B2DE9F0411B682D
:10319000A54CA64D40F2513108222160E271286D04
:1031A000002B40F0EE8009F093F96969064609F0BA
:1031B000E3F99F499D4F09F0DFF909F0C9FB80B29F
:1031C000031263729B4A9C4B12681B68A969A37225
:1031D00015121B12E372227320726573304609F0D8
:1031E000CBF99349904D09F0C7F909F0B1FB83B2CF
:1031F0001A1229469148A373E27304F05DF9904BCB
:10320000904A1B681288A272DEB206EB8601267213
:1032100003EB8306490046F3D71640F2553E1212DF
:103220004FF000081B122173667329460826834855
:10323000C4F800E0E2726372E67184F80E8084F8EC
:103240000F8004F039F940F256337F482360E6716D
:10325000FDF754FC7D4909F08FF909F079FB2072E4
:103260007948FDF74BFC794909F086F909F070FBC4
:10327000774A7649C0F307236372106809F030FA81
:1032800009F040FB40FA06F203466F48E272A3726F
:10329000FDF764FC664909F06FF909F033FB207310
:1032A0006948FDF75BFC624909F066F909F02AFB01
:1032B000294640F307236148637384F80E8084F83D
:1032C0000F8004F0F9F8022006F09CF8614A624B86
:1032D00010785178207290786172D2781978A07243
:1032E000987893F801E0E2722173DA78A07340F2E3
:1032F0005A332946514884F80DE0E2732360E671A1
:1033000004F0DAF8554B4D481A78597822726172F8
:103310009A78D978A272E1721A79597993F806E00D
:1033200022736173DA7984F80EE040F25E33294645
:10333000E2732360E67104F0BFF8022006F062F841
:10334000474B3E481A785978227261729A78D97838
:10335000A272E1721A79597993F806E022736173C7
:10336000DA79E6714FF45C732946236084F80EE045
:10337000E27304F0A1F83B4B1B68012B06D0BDE8BB
:10338000F08109F0A5F8296A064610E72E48FDF7F6
:1033900067FBF96C08F0E8FF80462B48FDF788FBD7
:1033A0000146404609F086FA0028E8D040F2C333CF
:1033B0002548EE712B60FDF753FBBE6C314609F0DA
:1033C00079FAC8B12849304609F0D6F809F0C0FAB0
:1033D00080B2031268722B72002301260425032297
:1033E000A672E57222736373A373E3730E491348E5
:1033F000BDE8F04104F060B81348FDF731FB1A490D
:1034000009F0BAF809F0A4FAC0F307230E482B72AA
:10341000FDF726FB144909F0AFF809F099FA687234
:10342000DAE700BF0093FF1FF094FF1F6093FF1FB8
:1034300000002041D094FF1F6492FF1F9CB5FF1F26
:103440003487FF1F3887FF1F7495FF1F0000C84295
:103450001493FF1F5C93FF1FC894FF1F2C87FF1F4F
:103460005487FF1FE094FF1F00007A4438B5164CC4
:10347000164A2368101D12F8011F904241EA0323E7
:10348000F9D12360124C03F100432360114BDB6F31
:10349000022B11D0104B1B68012B00D038BD0F48F8
:1034A00005F056F921680D4805F0A2F903210C48F2
:1034B000BDE8384007F02ABE20680A4D09F008F838
:1034C0002860FFF729F8E5E7A894FF1F2B93FF1F5B
:1034D000CC94FF1F6093FF1F9894FF1FD887FF1F96
:1034E000101301007C92FF1F30B53C4C3C4883B068
:1034F000214603F0D9FE236840F2C232934252D0F3
:10350000A3F58C621F2A48D9A3F5FC630F2B3FD982
:10351000344B1B68012B01D003B030BD324B1B680C
:10352000012BF9D1314B32481B6801930A22002349
:10353000019905F01DF92268284B002ADB7945DB4B
:103540002C492D4809F0E0FF2B480AF019F80146F4
:10355000294807F0DBFD2568204B15F0804526D172
:10356000DB798BB1631925491A7A234809F0CCFF1E
:1035700021480AF005F801461F4807F0C7FD01354C
:10358000E379EDB2AB42EDD8194805F0E1F8C3E7B5
:1035900012491B48FDF7FCF9BAE710491848FDF736
:1035A000F7F92368B0E7FFF761FF2368A8E7154D37
:1035B000114C0FCD0FC495E8030044F8040B2046CE
:1035C00020F81419152107F0A1FDDDE70E490A487E
:1035D00022F0604209F098FFB6E700BF2493FF1F76
:1035E0009CB5FF1F3C87FF1F9894FF1F60B7FF1F0C
:1035F000D887FF1F3C1301008092FF1F6813010052
:103600007495FF1F5013010014130100A24B1B7887
:10361000052B00F0A1802DE9F04FA04CA04EA14D4C
:10362000626EE36DA048326083B02B60FDF7F4FA60
:10363000E16A09F03FF908B100232B609A48FDF7D1
:10364000E9FAA16A09F054F910B1002333602B6044
:103650009548FDF72DFAE16809F04AF908B1002311
:103660002B609148FDF724FAE16809F041F908B1AF
:1036700000232B608C48894FFDF7F2F9216909F08E
:1036800019F900286ED0002333602B68854F002B7A
:1036900053DD8548DFF80482FDF7BCFA216B09F0A1
:1036A00009F9002840F0C480804B7F481B687B4F9D
:1036B000012B00F0FD80FDF7FBF9E16980466069B0
:1036C00008F050FE0146404609F012F9002834D0B7
:1036D000286808F0FDFE82467348FDF7E9F9D7F83F
:1036E00014808346F969404608F03CFE8146386EF6
:1036F00008F0EEFE0446F86D08F0EAFE214608F0F8
:1037000031FE49460746584608F02CFE0146384629
:1037100008F032FF49460746404608F023FE0146BE
:10372000384608F0DDFF214608F01EFE01465046EF
:1037300008F018FE09F0E6F828603368584A002BB4
:10374000AFBF2B682B6800211160002B01DA00232A
:103750002B6003B0BDE8F08F5149524A00230B6043
:10376000136070475048FDF77BF9B96909F0A2F87A
:10377000002888D13368DFF82891002B85DD4A487E
:10378000FDF74AFA796B09F0B3F8002840F0B380EE
:103790004548424FFDF764F9216909F0A9F800286E
:1037A00000F09F804048DFF8F480FDF759F9D4F825
:1037B000B8100746A06908F0D7FD0146384609F061
:1037C00079F800283FF461AF306808F081FE824646
:1037D0003548FDF745F98346D8F86400D8F81870E5
:1037E00008F076FE39468146584608F0BBFD49464A
:1037F0008346002008F0B6FD0146584608F0BCFE9E
:10380000D8F8B8108346384608F0AEFD394608F0BF
:10381000A9FD0146584608F063FF494608F0A4FD9B
:103820000146504608F09EFD09F06CF830602CE728
:10383000386808F04DFE83461B48FDF7EBF9019010
:10384000D8F85C00D8F82CA008F042FE019B814615
:103850005146184608F086FD49460190002008F0C0
:1038600081FD019B0146184608F086FE51460190F5
:10387000D8F8300008F076FD019B0146184608F0A4
:103880002FFF494608F070FD0146584608F06AFDD2
:1038900009F038F8386007E7C494FF1F6093FF1FF2
:1038A000D094FF1F6492FF1F7495FF1F0093FF1FAA
:1038B000FDF7FEF8E1698046206A08F053FD0146F5
:1038C000404609F015F800283FF437AF286808F0A3
:1038D000FFFD82461E48FDF7EBF8D7F820808346AF
:1038E00000E71B48FDF7BCF8B96909F001F80028AA
:1038F0007FF458AFC9E6D9F8000008F0E9FD824628
:103900001348FDF789F90190786ED7F8348008F0F4
:10391000DFFD019B83464146184608F023FD014622
:10392000584608F029FE41468346B86A08F01AFD59
:103930000146584608F0D4FE002108F015FD014666
:10394000504608F00FFD08F0DDFFC9F800001FE742
:103950007495FF1F08B5274804F0FAFE0721264892
:1039600007F0D4FB112005F017FD0621F8B123481C
:1039700007F0CCFB122005F00FFD062100B3204814
:1039800007F0C4FB122005F007FD062108B31D480F
:1039900007F0BCFB132005F0FFFC062110BB1A4802
:1039A00007F0B4FB1348BDE8084004F0D1BE174847
:1039B00007F0ACFB122005F0EFFC06210028DED159
:1039C000134807F0A3FB122005F0E6FC06210028AF
:1039D000DDD1104807F09AFB132005F0DDFC06212D
:1039E0000028DCD00C4807F091FB0248BDE80840F5
:1039F00004F0AEBED887FF1F741301007C130100D2
:103A00008C1301009C130100B41301008413010006
:103A100094130100A4130100AC13010010B5254C50
:103A20002368042B27DC01210B2005F0AFFC0121CA
:103A30000C2005F0ABFC0121142005F0A7FC0121AE
:103A4000152005F0A3FCFF21162005F01FFBFF2128
:103A5000172005F01BFBFF21052005F017FBFF21B8
:103A6000062005F013FB236801330A2B2360C4BF33
:103A70000023236010BD00210B2005F087FC0021EE
:103A80000C2005F083FC0021142005F07FFC0021B0
:103A9000152005F07BFC0021162005F0F7FA002127
:103AA000172005F0F3FA0021052005F0EFFA0021B8
:103AB000D6E700BFE894FF1F10B5092182B09B48EC
:103AC00005F080FF222005F025FF994BD3F89C30AC
:103AD000012B984B1B7809D0052B10D8DFE813F089
:103AE00007010C0116011B0111010B00002B00F056
:103AF0001781052B03D107218F4805F063FF222092
:103B000005F008FFFF2005F005FFFF2005F002FF8C
:103B10008A4CFF2005F0FEFE0821894805F052FF7F
:103B20002168884804F064FEFF2005F0F3FEFF20C2
:103B300005F0F0FEFF2005F0EDFE0921824805F0BA
:103B400041FF21687F4804F053FEFF2005F0E2FEAC
:103B5000FF2005F0DFFEFF2005F0DCFE0C217B4896
:103B600005F030FF7A4B7B49186808F0B9FD08F082
:103B700059F8002402460B460094724804F040FEB7
:103B8000FF2005F0C7FEFF2005F0C4FEFF2005F072
:103B9000C1FE0921704805F015FF7048FCF7DEFFF3
:103BA00008F040F8009402460B46664804F028FEF0
:103BB000FF2005F0AFFEFF2005F0ACFEFF2005F072
:103BC000A9FE0C21664805F0FDFE6448FDF724F8C7
:103BD00008F028F8009402460B465A4804F010FEFC
:103BE000FF2005F097FEFF2005F094FEFF2005F072
:103BF00091FE0D215B4805F0E5FE5848FDF70AF8F7
:103C000008F010F8009402460B464E4804F0F8FD08
:103C1000FF2005F07FFEFF2005F07CFEFF2005F071
:103C200079FE0921504805F0CDFE4C48FCF766FFAF
:103C30004E4908F0A1FC07F0F5FF009402460B4640
:103C4000404804F0DDFDFF2005F064FEFF2005F094
:103C500061FEFF2005F05EFE0C21454805F0B2FE36
:103C60003E48FCF7FDFE434908F086FC07F0DAFF0A
:103C7000009402460B46334804F0C2FDFF2005F0D5
:103C800049FEFF2005F046FEFF2005F043FE0D2112
:103C9000394805F097FE3148FCF70AFF354908F02E
:103CA0006BFC07F0BFFF009402460B46254804F06A
:103CB000A7FDFF2005F02EFEFF2005F02BFEFF20C4
:103CC00005F028FE09212D4805F07CFE2C4B1D48EF
:103CD000196804F08DFDFF2005F01CFEFF2005F0A3
:103CE00019FEFF2002B0BDE8104005F013BE06210A
:103CF000244805F067FE02E70721234805F062FE2D
:103D0000FDE60B21214805F05DFEF8E6072120487D
:103D100005F058FEF3E608211E4805F053FEEEE6D6
:103D200008211D4805F04EFEE9E600BFBC13010066
:103D30006093FF1FC494FF1F4C1101003487FF1FC5
:103D4000D4130100AC87FF1FE0130100EC13010046
:103D50001493FF1F0000C842FC1301007495FF1F5D
:103D6000081401001814010028140100000020416B
:103D70003414010000007A4444140100541401007A
:103D80002487FF1F1C110100241101002C110100C8
:103D90003811010040110100C81301002DE9F04164
:103DA0008D4DD5F8AC30042B3ED0032B6ED0012BBB
:103DB00000F09880022B01D0BDE8F081874C884844
:103DC000237240F20E32012321462260E37103F098
:103DD00073FB844B1B685B00FF2BC8BFFF230421D0
:103DE00040224FF441702060E17122726372286DAD
:103DF00008F06EFB696908F0BFFB7B49054608F0D7
:103E000077FD002800F0DE802946284608F0ACFA4D
:103E100008F09EFD80B20312E072A3726F497048F1
:103E2000BDE8F04103F048BB6C4C704AA3792260B6
:103E300043F001030822E271A371286D08F048FBEA
:103E4000696908F099FB6A4908F096FB08F080FD63
:103E5000644B684A1B68126893FBF2F380B2002639
:103E60001A120712607221465D48E372A27227722D
:103E700026736673A673E67303F01EFBA279D5F86A
:103E8000AC3066F30002032BA27190D1534C286D25
:103E9000A3720122E823072140F2FF2622726372F7
:103EA0002660E17108F014FB696908F065FB504970
:103EB00008F062FB08F04CFD4A4B4E4A1B68126842
:103EC00093FBF2F382B21E12171221464448637329
:103ED000E2722773A67303F0EFFAD5F8AC30012B2A
:103EE0007FF468AF444B3D4C1B682360072280235E
:103EF0001020E271237205F04FFA002869D13F4B80
:103F00001B68DFF8E0803B4F286D344E03EB8303E2
:103F10005B001A12A3726272D8F800303A6893FB01
:103F2000F2F31A126273A37308F0D2FA696908F007
:103F300023FB334B196808F015FA2D4908F01CFBD8
:103F400008F006FD80B20312314620732448E37264
:103F500003F0B2FA022005F055FA2A4B1B682360E1
:103F6000072280231020E271237205F015FA70BB3E
:103F7000224B1B68286D03EB83035B001A127272DD
:103F8000B37208F0A5FA696908F0F6FA1E4B1968D1
:103F900008F0E8F9164908F0EFFA08F0D9FC82B207
:103FA00016123868D8F80030227393FBF0F30B49EF
:103FB0000B48A3731A12E672627303F07DFAD5F808
:103FC000AC30F7E601229023A272E37226E70F4B92
:103FD000CFE70E4B94E700BF6093FF1FF094FF1FE5
:103FE0009CB5FF1F6492FF1F00004843F4E50618CC
:103FF000000020414C87FF1F6087FF1F4487FF1F81
:104000002894FF1F6487FF1F1C93FF1F4887FF1F13
:104010002DE9F041974ED6F8AC40042C82B04BD03D
:10402000032C77D0012C00F0A480022C02D002B027
:10403000BDE8F081904D019500274FF00408CDF8C0
:10404000008040F20E313B463A462C708B486F7030
:10405000AF70EF7004F038F8404605F0D3F9884BA4
:10406000306D1B685B00FF2BC8BFFF2340222A7006
:104070006B7008F02DFA716908F07EFA81490446E8
:1040800008F036FC002800F0EB802146204608F0BE
:104090006BF908F05DFC80B20312E870AB7000238E
:1040A00004228DE824004FF441711A46734804F04D
:1040B0000BF802B0BDE8F081306D6F4C724F08F024
:1040C00007FA716908F058FA704908F055FA08F0D3
:1040D0003FFC6B4B0194082180B2002540FA01F2AD
:1040E0001B683F6893FBF7F747FA01FE00912B46E8
:1040F00022706070E77084F802E025716571A57127
:10410000E571012262495D4803F0DEFFD6F8AC405C
:10411000032C87D1584D306DAC700122E8232A70F2
:104120006B7008F0D5F97169574C08F025FA5749BA
:1041300008F022FA08F00CFC514A019580B212688E
:10414000246892FBF4F44FEA202E07210023271263
:1041500000911A46E8706C7140F2FF2185F804E086
:104160004648AF7103F0B0FFD6F8AC40012C7FF4A5
:104170005CAF414D802310202B7005F00DF9002815
:1041800075D1444B1B683E4F3F4C306DDFF8E880E3
:1041900003EB83035B001A12AB706A703B68226802
:1041A00093FBF2F31A126A71AB7108F091F971691D
:1041B00008F0E2F9384B196808F0D4F8334908F0F0
:1041C000DBF908F0C5FB354B019580B219684FEA61
:1041D000202E0023072200921A46287185F803E05A
:1041E000264803F071FF042005F00CF9802310200D
:1041F0002B7005F0D1F8002837D1264B1B68306DA5
:1042000003EB83035B001A1288F8012088F8023060
:1042100008F05EF9716908F0AFF9214B196808F0F0
:10422000A1F81A4908F0A8F908F092FB1D4B3A686A
:104230001968246892FBF4F480B2072700974FEACC
:10424000202E0023271201951A462871AC7185F89B
:1042500003E00A486F7103F037FFD6F8AC40E4E69C
:1042600001229023AA70EB7019E70F4BC6E70E4BA3
:1042700088E700BF6093FF1F0C93FF1F1095FF1F7F
:104280006492FF1F000048434C87FF1F000020413D
:10429000F4E506184487FF1F2894FF1F6087FF1F5F
:1042A0001C93FF1F6487FF1F4887FF1F38B5164DFB
:1042B000164A1748294603F03BFF18B1154B1B68F7
:1042C000012B00D038BD12211348144C06F01EFFFC
:1042D000296813480023102204F04AFA104804F019
:1042E00037FA04F1080514F8011F0D4800230A22CB
:1042F00004F03EFA092006F08DFFA542F3D10848EC
:10430000BDE8384004F024BA0893FF1F0C93FF1F48
:104310001095FF1F0C95FF1F601401000B93FF1FEA
:10432000D887FF1FFA2810B504461BD0B0F5FA7FD6
:104330000FD11021134803F0B1FFC8B10F2112486B
:1043400006F0E4FE114804F003FA114BA3F8C04054
:1043500010BD0F210F4806F0D9FE0C48BDE81040F3
:1043600004F0F6B90F21074803F098FF0028E5D1C3
:104370001121094806F0CAFE0448BDE8104004F0C7
:10438000E7B900BF1095FF1F74140100D887FF1F05
:104390006093FF1F9814010084140100F0B5924C43
:1043A000924D83B006F04CFE23682860042B00F089
:1043B0009A82022B20D0092B67D0082B40F0F28084
:1043C000322800F0B283712868D031286AD106F013
:1043D00073FE002840F31C878548864E04F04AFB94
:1043E000C0B286F8400002288ABF0021014686F844
:1043F0004010726C8048ACE3A0F13102422A51D8DF
:10440000DFE812F0CC07D807E607F8070B081A0810
:10441000500050005000500050005000500050001C
:10442000500050005000500050005000500050000C
:1044300050005000500050005000500050005000FC
:1044400050005000500050005000500050005000EC
:1044500050005000500050005000500050005000DC
:1044600050005000500050002708500050005000ED
:1044700050005000500050005000500050005000BC
:10448000500050004C0050002D0832287CD040F3E2
:104490006783332800F0AB86712803D10023732093
:1044A00023602860732808BF002B0CBF0120002068
:1044B000002867D04E4804F04BF904214F4806F01D
:1044C00025FE4B4804F044F910214D4806F01EFE2D
:1044D000474804F03DF913214A4806F017FE4A4BBD
:1044E0004348196804F084F9414804F031F9142173
:1044F000464806F00BFE3E4804F02AF91E214448C7
:1045000006F004FE3A4804F023F91521414806F06C
:10451000FDFD374804F01CF91E213F4806F0F6FD6A
:10452000334804F015F920213C4806F0EFFD3048EF
:1045300004F00EF919213A4806F0E8FD2C4804F081
:1045400007F91621374806F0E1FD294804F000F983
:104550001221354806F0DAFD254804F0F9F80F215C
:10456000324806F0D3FD224804F0F2F80D2130481D
:1045700006F0CCFD1E4804F0EBF82E4A0021012382
:104580001160236003B0F0BD0123236006F094FDA9
:10459000002804DD164804F06DFAFFF7C3FE78200A
:1045A00023682860072B4BD1332801F0C58300F323
:1045B0002782312801F0D38332287FF473AF06F0CD
:1045C0007BFD00283ADD0A480A4E04F053FA07F052
:1045D0007FFF194907F0D0FF61230122F0632260B9
:1045E0002B601846CBE200BFB494FF1F6092FF1F00
:1045F000D887FF1F6093FF1F7495FF1F841D010064
:104600008C1D0100A01D01002487FF1FB41D0100A7
:10461000CC1D0100EC1D0100041E0100241E010040
:10462000481E0100641E01007C1E0100901E010056
:10463000A01E01003C87FF1F6F12833A2368286881
:10464000062B40F08D80A0F13102402A3FF62AAFC0
:1046500001A151F822F000BF155300006152000083
:10466000775300003F5300006353000023520000C3
:1046700045520000A5440000A5440000A5440000E8
:10468000A5440000A5440000A5440000A544000086
:10469000A5440000A5440000A5440000A544000076
:1046A000A5440000A5440000A5440000A544000066
:1046B000A5440000A5440000A5440000A544000056
:1046C000A5440000A5440000A5440000A544000046
:1046D000A5440000A5440000A5440000A544000036
:1046E000A5440000A5440000A5440000A544000026
:1046F000A5440000A5440000A5440000A544000016
:10470000A5440000A5440000A5440000A544000005
:10471000A5440000A5440000A5440000A5440000F5
:10472000A5440000A5440000A5440000A5440000E5
:10473000A5440000A5440000A5440000A5440000D5
:10474000A5440000A5440000A5440000A5440000C5
:10475000A5440000A54400009D440000236828688B
:10476000052B15D1332801F0108340F35D813528E6
:1047700001F04383C1F22B8371287FF493AEB54AD5
:10478000002373201360236028608BE62368286869
:10479000032B40F0A480A0F13002422A3FF682AE03
:1047A00001A151F822F000BFB5480000555B0000A0
:1047B0007D5B0000395A00005B5A00007D5A000002
:1047C000A55A0000CD5A0000EB5A00000F5B000014
:1047D000A5440000A5440000A5440000A544000035
:1047E000A5440000A5440000A5440000A544000025
:1047F000A5440000A5440000A5440000A544000015
:10480000A5440000A5440000A5440000A544000004
:10481000A5440000A5440000A5440000A5440000F4
:10482000A5440000A5440000A5440000A5440000E4
:10483000A5440000A5440000A5440000A5440000D4
:10484000A5440000A5440000A5440000A5440000C4
:10485000A5440000A5440000A5440000A5440000B4
:10486000A5440000A5440000A5440000375B0000FB
:104870007B550000DF590000FD5900001B5A000065
:10488000DB5B00003155000055550000A5440000D9
:10489000A5440000A5440000A5440000A544000074
:1048A000A5440000A5440000A5440000D359000021
:1048B000A55B000006F000FC002841F33682664844
:1048C000664E04F0D7F80127034601466222644889
:1048D000736527602A60FCF713F923682868012BA9
:1048E0007FF4E0AD4BE1A0F13002412A3FF6DAADB2
:1048F00001A151F822F000BFF75400002D5500002F
:10490000CB5400000F550000D3540000D7540000D2
:1049100077540000CF54000091540000A9540000C7
:10492000A5440000A5440000A5440000A5440000E3
:10493000A5440000A5440000A5440000A5440000D3
:10494000A5440000A5440000A5440000A5440000C3
:10495000A5440000A5440000A5440000A5440000B3
:10496000A5440000A5440000A5440000A5440000A3
:10497000A5440000A5440000A5440000A544000093
:10498000A5440000A5440000A5440000A544000083
:10499000A5440000A5440000A5440000A544000073
:1049A000A5440000A5440000A5440000A544000063
:1049B000A5440000A5440000A5440000F3540000F5
:1049C000A5440000A5440000A5440000A544000043
:1049D000A5440000A5440000A5440000A544000033
:1049E000A5440000A5440000A5440000A544000023
:1049F000A5440000A5440000A54400009D4400001B
:104A000034287FF449AD06F057FB00287FF716AE37
:104A10001148124E04F02EF861230122A6F8B400CA
:104A200022602B601846AAE0312801F0BF813228AD
:104A30007FF438AD06F040FB00287FF7A7AE0648AC
:104A4000064E04F017F801226B23C6F89800226086
:104A50002B6009E03493FF1FD887FF1F6093FF1F6F
:104A60007495FF1F06F0ECFA06F026FB0028F9D13A
:104A7000B24803F06DFEB14803F06AFEAF4803F0A0
:104A800067FEAE4803F064FEAC4803F061FE2121EE
:104A9000AB4806F03BFBA94803F05AFE1521A94894
:104AA00006F034FBD6F89010A44803F0A1FE0221D2
:104AB000A54806F02BFBA14803F04AFE1E21A3489F
:104AC00006F024FBD6F898109C4803F091FE0321D1
:104AD0009F4806F01BFB994803F03AFE1E219D48B3
:104AE00006F014FBD6F89410944803F081FE934826
:104AF00003F02EFE1D21984806F008FBD6F8A01002
:104B00008E4803F075FE8D4803F022FE1E21934867
:104B100006F0FCFAD6F8A410884803F069FE87482E
:104B200003F016FE052323602CE506F0C5FA0028E5
:104B300040F3738381488A4E03F09CFF07F0C8FC62
:104B4000884907F019FD96F840100346024686484A
:104B50007364FBF7D7FF01236920236028600EE010
:104B600031287FF49FAC7E4E96F8BE30B3FA83F3C3
:104B70005B090122782086F8BE3022602860A0F10F
:104B80005203262B01F2C880DFE813F04708C6085D
:104B9000C608C608C608C608C608C608C608C608A5
:104BA000C608C608C608C608C6082900550AC502B0
:104BB0000E025A01C608C608C6080C01C608520AE9
:104BC000C608C608C608C608C6084908C608C608F2
:104BD000C608C608C608C6089D0006F031FA06F0E9
:104BE0006BFA05460028F8D154485D4E03F0B0FD3D
:104BF000524803F0ADFD514803F0AAFD4F4803F0C1
:104C0000A7FD4E4803F0A4FD1F21584806F07EFA88
:104C10004A4803F09DFD1C21554806F077FA706A5A
:104C2000544907F0A9FC06F0FDFF009502460B462B
:104C3000424803F0E5FD02214F4806F067FA3F487D
:104C400003F086FD23214D4806F060FAF06B4949D8
:104C500007F092FC06F0E6FF009502460B46374847
:104C600003F0CEFD0221444806F050FA334803F029
:104C70006FFD1921424806F049FAB06B06F0D2FFE9
:104C800002250B46024600952C4803F0B9FD294643
:104C90003C4806F03BFA294803F05AFD19213A48EE
:104CA00006F034FAB6F8B410244803F0A1FD03214D
:104CB000364806F02BFA214803F04AFD072323600B
:104CC00060E406F0BDF906F0F7F90028F9D11B48B9
:104CD000234D03F03DFD194803F03AFD174803F05A
:104CE00037FD164803F034FD144803F031FD12215E
:104CF000274806F00BFA114803F02AFD0F4803F08D
:104D000027FD0E4803F024FD1921224806F0FEF984
:104D100095F8BE30002B41F08C8004211E4806F02F
:104D2000F5F9064803F014FD13211C4806F0EEF9CE
:104D3000024803F00DFD0923236023E4D887FF1FF9
:104D4000A0170100C4170100B0160100DC17010014
:104D5000C8110100FC1701001C1801003C180100DB
:104D60006093FF1F6F12833A7495FF1FFC160100BA
:104D70001C17010000007A449C1501003C1701003B
:104D8000601701007C170100801701009C170100CB
:104D9000681E0100CC140100E81401004015010058
:104DA00006F04EF906F088F905460028F8D16D485E
:104DB0006D4E03F0CDFC6B4803F0CAFC694803F06C
:104DC000C7FC684803F0C4FC664803F0C1FC152129
:104DD000664806F09BF9634803F0BAFC1821644862
:104DE00006F094F92B460A2296F840105D4803F02D
:104DF000BFFC5C4803F0ACFC28215E4806F086F955
:104E0000706C5D4907F0B8FB06F00CFF00950B468F
:104E10000246544803F0F4FC0221584806F076F9A3
:104E2000504803F095FC1321554806F06FF94D48A2
:104E300003F08EFC08232360FFF7A4BB06F000F903
:104E400006F03AF905460028F8D14648464E03F0E8
:104E50007FFC444803F07CFC424803F079FC414865
:104E600003F076FC3F4803F073FC1121454806F03F
:104E70004DF93C4803F06CFC2821434806F046F904
:104E800070693D4907F078FB06F0CCFE00950246BC
:104E90000B46344803F0B4FC0221384806F036F9DA
:104EA000304803F055FC1621384806F02FF9F06918
:104EB000314907F061FB06F0B5FE00950B4602464E
:104EC000284803F09DFC02212C4806F01FF92548D4
:104ED00003F03EFCD6F8AC30002B32DD1D212C480F
:104EE00006F014F9F06D07F0F3FA2A4907F044FBD5
:104EF00006F098FE022502460B460095194803F07D
:104F00007FFC0121244806F001F9164803F020FC3B
:104F10001F21224806F0FAF8306E07F0D9FA1D4931
:104F200007F02AFB06F07EFE009502460B460D4870
:104F300003F066FC0121184806F0E8F8094803F080
:104F400007FC1121164806F0E1F8D6F8AC30052B25
:104F500000F29286DFE813F0D606DB06D106CC0617
:104F6000C7068C06D887FF1F6093FF1F4C1E0100E9
:104F7000541501007015010000007A449C150100D1
:104F800040150100F01D0100A0150100CC15010025
:104F9000E4150100CDCCCC3DD81A01000416010067
:104FA0002416010006F04CF806F086F80028F9D126
:104FB000B648B74D03F0CCFBB44803F0C9FBB34887
:104FC00003F0C6FBB14803F0C3FBB04803F0C0FBDD
:104FD0001321B04806F09AF8AC4803F0B9FB0D2154
:104FE000AD4806F093F8A94803F0B2FB0F21AB4897
:104FF00006F08CF8AA4BA548196803F0F9FBA34802
:1050000003F0A6FB1321A74806F080F8A64B9F48A3
:10501000196803F0EDFB9D4803F09AFB1221A348A9
:1050200006F074F8A24B9948196803F0E1FB974821
:1050300003F08EFB11219F4806F068F89E4B9348C1
:10504000196803F0D5FB914803F082FB0E219B48C1
:1050500006F05CF8D5F89C108C4803F0C9FB8B482F
:1050600003F076FB1921964806F050F8954B8748D7
:10507000196803F0BDFB854803F06AFB11219248D3
:1050800006F044F8914B8148196803F0B1FB7F4862
:1050900003F05EFB10218E4806F038F88D4B7B48FC
:1050A000196803F0A5FB794803F052FB1C218A48DC
:1050B00006F02CF8894B7548196803F099FB734882
:1050C00003F046FB1E21864806F020F895F8BD3017
:1050D000002B00F0A5860D21824806F017F86B48DA
:1050E00003F036FB1521804806F010F87F4B674827
:1050F000196803F07DFB654803F02AFB13217C4807
:1051000006F004F8614803F023FB04232360FFF753
:1051100039BA05F095FF05F0CFFF0028F9D15B48BB
:105120005B4E03F015FB594803F012FB574803F0A0
:105130000FFB564803F00CFB544803F009FB1F21FA
:105140006C4805F0E3FF514803F002FB1E216A485A
:1051500005F0DCFF4D4803F0FBFA1A21674805F023
:10516000D5FFF36F022B00F0E386032B00F0D78608
:10517000012B00F0CB860921614805F0C7FF4348A9
:1051800003F0E6FA14215F48414F05F0BFFFB16F0D
:105190003E4803F02DFB3D4803F0DAFA1C215A4843
:1051A00005F0B4FFD6F88010384803F021FB3748EB
:1051B00003F0CEFA1C21554805F0A8FFD6F8A81038
:1051C000324803F015FB314803F0C2FAF56F25F0C1
:1051D0000205012D00F069861321454805F096FF70
:1051E0002A4803F0B5FA02232360FFF7CBB905F094
:1051F00063FF002840F33B812448254E03F03AFC2E
:105200007823012286F8C20022602B601846B6E49B
:105210001F4E96F84000FFF7E6B823682868FFF7AE
:10522000C1B905F049FF00287FF798AA1748184E22
:1052300003F020FC65230122C6F8B00022602B6039
:1052400018469CE4124B93F8BC20002A00F0E3853A
:10525000002283F8BC2001236520236028608EE4AF
:1052600005F02AFF00287FF779AA0848084E03F0C6
:1052700001FC07F02DF9264907F032FA65230122D7
:10528000F06122602B60184679E400BFD887FF1FC9
:105290006093FF1F5C180100701801008018010066
:1052A0009894FF1F901801000495FF1FA418010097
:1052B000C094FF1FB8180100EC94FF1FCC18010028
:1052C000DC180100AC94FF1FF81801003493FF1F95
:1052D0000C1901000493FF1F201901005C87FF1FB8
:1052E0004019010060190100801901000C95FF1F91
:1052F0004015010098190100B8190100D8190100E2
:10530000501A01005C1A0100741A0100941A01007D
:1053100000007A4405F0D0FE00287FF71FAA9E48BF
:105320009E4E03F0A7FB07F0D3F89D4907F0D8F98C
:1053300065230122706122602B6018461FE405F08E
:10534000BBFE00287FF70AAA9348944E03F092FB15
:1053500000EB800043000122652033662260286054
:105360000DE48E4AD2F8AC300133052BC8BF0023C0
:10537000C2F8AC306FE705F09FFE00287FF7EEA97A
:105380008548864E03F076FB00EB80004300012247
:105390006520F36522602860FFF7F1BB7F4EB36F95
:1053A000B3FA83F35B0901226320B36722602860AC
:1053B000FFF7E5BB794ED6F88030B3FA83F35B098B
:1053C00001226320C6F8803022602860FFF7D7BB37
:1053D0000123236005F070FE002805DD6E486F4E46
:1053E00003F048FBC6F8A80001236320236028606F
:1053F000FFF7C5BB0123236005F05EFE002807DD33
:105400006548664E03F036FB07F062F8C6F88C007C
:10541000632028602368FEF7D0BF0123236005F0D6
:105420004BFE0028F4DD5C485C4E03F023FB07F0E4
:105430004FF8C6F88800EBE70123236005F03CFE37
:105440000028E5DD5448554E03F014FBA6F8B600DD
:10545000DEE7FDF7D7FD23682868FEF7ACBF4F4AAB
:10546000D36F0133032BC8BF0023D367BCE7236886
:105470002868FEF7A2BF01234A482360FBF75EFAC3
:10548000494A2368106064222A606420FEF793BFB3
:10549000464A1368B3FA83F35B0901216420136061
:1054A00021602860FFF76BBB0123236005F004FE39
:1054B000002800F3F2843E4B1A68042AC4BF02227B
:1054C0001A6064232B602368DFE73A4AE1E73A4A2F
:1054D000DFE73A4ADDE7314ED6F89C30B3FA83F382
:1054E0005B0901226420C6F89C3022602860FFF727
:1054F00046BB334ACDE7294E96F8BD3001225340D2
:10550000642086F8BD3022602860FFF738BB2D4A42
:105510002D4F1368002B0CBF012300234FF0010017
:105520001360206040F00D850346ACE7274AB0E7E2
:1055300005F0C2FD00280DDD1748184E03F09AFA59
:1055400006F0C6FF164907F0CBF80122622330624D
:1055500022602B6005F0B0FD00280EDD0E480F4ED6
:1055600003F088FA06F0B4FF0D4907F0B9F80122FC
:105570006223C6F8B80022602B6005F09DFD00286C
:1055800040F3D3830448054E03F074FA01226223EA
:10559000B06622602B601DE0D887FF1F6093FF1F5D
:1055A00000007A447495FF1FAC94FF1F0493FF1F03
:1055B0005C87FF1F0495FF1F3493FF1FEC94FF1FB0
:1055C0000C95FF1FC094FF1FB494FF1F9894FF1FFA
:1055D00005F036FD05F070FD05460028F8D1C248FB
:1055E00003F0B6F8C04803F0B3F8BF4803F0B0F8D2
:1055F000BD4803F0ADF8BC4803F0AAF81521BB483C
:1056000005F084FDB84803F0A3F81421B84805F06C
:105610007DFDB54803F09CF81B21B64805F076FDEA
:10562000B14803F095F81321B34805F06FFDAE487B
:1056300003F08EF8AC4803F08BF8AB4803F088F821
:105640002021AE4805F062FDF068AD4906F094FFF8
:1056500006F0E8FA009502460B46A34803F0D0F89E
:105660000221A84805F052FD0221A74805F04EFD91
:105670009D4803F06DF82121A44805F047FD3069ED
:105680009F4906F079FF06F0CDFA009502460B46D9
:10569000954803F0B5F802219A4805F037FD02213C
:1056A000994805F033FD904803F052F81F219848BF
:1056B00005F02CFDB06A06F0B5FA022702460B464B
:1056C0000097894803F09CF80121924805F01EFDDF
:1056D00039468D4805F01AFD834803F039F820213A
:1056E0008D4805F013FDF06A06F09CFA009702461B
:1056F0000B467D4803F084F80121864805F006FD3D
:105700003946814805F002FD774803F021F823214E
:10571000824805F0FBFCB06C794906F02DFF06F0DD
:1057200081FA009502460B466F4803F069F8394646
:10573000744805F0EBFC3946734805F0E7FC6A480D
:1057400003F006F81F21764805F0E0FCF06C6C4988
:1057500006F012FF06F066FA009502460B46624814
:1057600003F04EF83946674805F0D0FC39466648E4
:1057700005F0CCFC5C4802F0EBFF1921694805F00C
:10578000C5FCB16D584803F033F83946664805F05A
:10579000BDFC39465C4805F0B9FC534802F0D8FF1F
:1057A0001821624805F0B2FC706E06F091FE604967
:1057B00006F0E2FE06F036FA009702460B464A482B
:1057C00003F01EF801215B4805F0A0FC39464E4865
:1057D00005F09CFC444802F0BBFF2B21564805F025
:1057E00095FCB069464906F0C7FE06F01BFA009525
:1057F00002460B463C4803F003F83946414805F0A1
:1058000085FC3946404805F081FC374802F0A0FF8E
:105810001F214A4805F07AFC716D334802F0E8FF19
:105820003946394805F072FC2F4802F091FF2021DB
:10583000434805F06BFC316D2B4802F0D9FF394627
:10584000314805F063FC284802F082FF10213D48F2
:1058500005F05CFCB16E244802F0CAFF39462948C5
:1058600005F054FC3946284805F050FC1E4802F06B
:105870006FFF1321344805F049FCF16E1A4802F01D
:10588000B7FF0121314805F041FC39461E4805F0BB
:105890003DFC154802F05CFF10212D4805F036FC58
:1058A000316F114802F0A4FF3946164805F02EFC6E
:1058B0003946154805F02AFC0B4802F049FF14212F
:1058C000244805F023FC716F074802F091FF012185
:1058D0001E4805F01BFC39460B4805F017FC024832
:1058E00002F036FF162137E0D887FF1F201B01008A
:1058F000381B0100501B0100401501006C1B01000A
:1059000000007A449C15010080130100901B0100E7
:10591000B41B0100D41B0100D81B0100FC1B0100BB
:10592000201C0100401C01005C1C0100601C0100E7
:10593000CDCCCC3DD81A01007C1C0100A81C010074
:10594000C81C0100EC1C0100001D0100141D010019
:10595000181D01002C1D0100BA4805F0D7FB306A64
:10596000B94906F009FE06F05DF9009502460B46BE
:10597000B64802F045FF3946B54805F0C7FB394641
:10598000B44805F0C3FBB14802F0E2FE2421B2485E
:1059900005F0BCFBD6F8B800AB4906F0EDFD06F00B
:1059A00041F900950B460246A84802F029FF394606
:1059B000A74805F0ABFB3946A64805F0A7FBA3486E
:1059C00002F0C6FEA14802F0C3FE03232360FEF7E7
:1059D000D9BD0022732322602B60FEF76BBD05F05A
:1059E0006BFB002840F3A18198489C4E03F042F8DD
:1059F00001226223F06622602B60EBE505F05CFB80
:105A0000002840F392819148944E03F033F801222C
:105A10006223306722602B60DCE505F04DFB002837
:105A200040F3838189488D4E03F024F801226223DC
:105A3000706722602B60CDE505F03EFB002840F347
:105A400074818248854E03F015F806F041FD01226D
:105A50006223B06222602B60BCE505F02DFB0028BC
:105A600040F3638179487D4E03F004F806F030FD81
:105A700001226223F06222602B60ABE505F01CFB83
:105A8000002840F352817148744E02F0F3FF06F093
:105A90001FFD6D4906F024FE01226223B0642260DE
:105AA0002B6097E505F008FB002840F33E8167482E
:105AB0006A4E02F0DFFF06F00BFD634906F010FEB0
:105AC00001226223F06422602B6083E505F0F4FA82
:105AD000002840F32A815D48604E02F0CBFF01228E
