:1000000000800020BD010000CD7400008574000058
:1000100085740000857400008574000085740000FC
:10002000857400008574000085740000CD740000A4
:10003000CD74000085740000B5920000B9930000F3
:10004000CD740000CD740000CD740000CD740000AC
:10005000CD740000CD740000CD740000CD7400009C
:10006000CD740000CD740000CD740000CD7400008C
:10007000CD740000CD740000CD740000CD7400007C
:10008000CD740000CD740000CD740000CD7400006C
:10009000CD740000CD740000CD740000CD7400005C
:1000A000CD740000CD740000CD740000CD7400004C
:1000B000CD740000A1680000AD680000B1680000C8
:1000C000BD680000C1680000C5680000CD74000074
:1000D000CD740000CD740000CD740000CD7400001C
:1000E000CD740000CD740000CD740000CD7400000C
:1000F000CD740000C59A0000CD7400006981000035
:10010000CD74000035830000CD740000CD74000074
:10011000CD740000CD740000CD740000CD740000DB
:10012000CD740000CD740000CD740000CD740000CB
:10013000CD740000CD740000CD740000CD740000BB
:10014000CD740000CD740000CD740000CD740000AB
:10015000CD740000CD740000CD740000CD7400009B
:10016000CD74000081850000CD740000CD740000C6
:10017000CD740000CD740000CD740000CD7400007B
:10018000CD740000CD740000CD740000CD7400006B
:10019000CD740000CD740000CD740000CD7400005B
:1001A000CD740000CD740000CD740000CD7400004B
:1001B000CD740000CD740000CD740000564B4CF29D
:1001C000205210B51A804DF628121A8000BF00BFC9
:1001D00007F080F9514B4FF010621A60504A9A6054
:1001E000504ADA60504A136813F4807304D14F49BF
:1001F0000B604FF4A85313604D4B1A78110703D5C9
:100200001A7842F008021A704A4B4B492A221A7097
:100210004A4A4B4B8B4204D252F8040F43F8040B6A
:10022000F8E7484B484900228B4202D243F8042B9E
:10023000FAE74649464A002352F8230041F82300D2
:1002400001336F2BF8D1434B434A802103F8011B44
:100250009342FBD1414B3D4A1A60414B8A221A70AE
:10026000A3F5805324225A70A0221A709A7992071B
:10027000FCD59A79D406FCD43A4A937903F00C035E
:10028000082B384BF9D103221A7140225A719A79FE
:100290009006FCD5334A9179324B4906FBD5324A58
:1002A000324911600221516020221A709A7902F0BD
:1002B0000C020C2AFAD12E4B2E4A1A602E4B2F4AD2
:1002C0001A6000225A60072243F8042C2C4AC3F813
:1002D0000C2D62B607F0B4FB144B1B68DA0705D58A
:1002E000284807F091F9284B284A1A60284B1B78B8
:1002F0005B0609D5244C254B22689A4204D121483B
:1003000007F082F9002323600AF0C4FE07F0E8F842
:1003100009F098FAFEE700BF0E2005403080044047
:10032000823F04000100002B10D0034014D0034092
:1003300002D0074000E007402892FF1FDC0A0100BE
:100340002087FF1F2892FF1FA4B9FF1F0082FF1FF5
:100350000000000000E400E05FE400E008ED00E0E1
:100360000050064000400640448004400000030165
:1003700004800440C010050014E000E0FF76010096
:1003800000002020CCB8865C1CE00340A5C3945A32
:1003900000F00740FFFFFFFFFFFFFFFFFFFFFFFF32
:1003A000FFFFFFFFFFFFFFFFFFFFFFFFFFFFFFFF5D
:1003B000FFFFFFFFFFFFFFFFFFFFFFFFFFFFFFFF4D
:1003C000FFFFFFFFFFFFFFFFFFFFFFFFFFFFFFFF3D
:1003D000FFFFFFFFFFFFFFFFFFFFFFFFFFFFFFFF2D
:1003E000FFFFFFFFFFFFFFFFFFFFFFFFFFFFFFFF1D
:1003F000FFFFFFFFFFFFFFFFFFFFFFFFFFFFFFFF0D
:10040000FFFFFFFFFFFFFFFFFFFFFFFFDEF9FFFF23
:1004100010B5054C237833B9044B13B10448AFF33E
:1004200000800123237010BD2892FF1F00000000F0
:10043000D80A0100084B10B51BB108490848AFF3B2
:1004400000800848036803B910BD074B002BFBD0A0
:10045000BDE81040184700BF000000002C92FF1FAD
:10046000D80A01002892FF1F000000002DE9F0418A
:10047000002600F5C67400F5D0774FF0000854F858
:10048000045F0E4928460AF0AFFD0D4950B12846D9
:100490000AF08CFD30B1304629460AF0E1FA08F145
:1004A0000108064640460AF08FFB014630460AF036
:1004B00093FCBC420646E2D1BDE8F0810000A0C139
:1004C00000001643F0B4194F0024031F00F180010F
:1004D00000F5827200F17C0643F8044FB34241F804
:1004E000047F4FF0000542F8044FF5D10023104A75
:1004F0001049C0F88C51C0F89051C0F89451C0F820
:100500009851C0F89C51C0F8A051C0F8B051C0F843
:10051000A421C0F8AC21C0F8A81180F8B83180F847
:10052000B93180F8D031F0BC704700BF0000A04066
:10053000000048430000C8C238B590F8D0310B2BFA
:100540000546144607D870294ED0E02900F0B18046
:10055000602974D038BD702925D0E02900F09A8038
:100560006029F7D1137A507A1B0203F4FE43184432
:100570000AF02AFB53490AF07BFB6860E37AA07A11
:1005800003EB00200AF020FB4E490AF071FBA86043
:10059000637B207B03EB00200AF016FB49490AF03D
:1005A00067FBE86038BD137A507A1B0203F4FE4300
:1005B00018440AF009FB43490AF05AFB2861E37A20
:1005C000A07A03EB00200AF0FFFA3E490AF050FB44
:1005D0006861637B207B03EB00200AF0F5FA394960
:1005E0000AF046FBA86138BD137A507A1B0203F467
:1005F000FE4318440AF0E8FA32490AF039FB686110
:10060000E37AA07A03EB00200AF0DEFA2D490AF023
:100610002FFBA861637B207B03EB00200AF0D4FA58
:1006200028490AF025FBE861E37BA07B03EB00206F
:100630000AF0CAFA23490AF01BFB286238BD137A74
:10064000507A1B0203F4FE4318440AF0BDFA1D4918
:100650000AF00EFB6860E37AA07A03EB00200AF050
:10066000B3FA18490AF004FBA860637B207B03EB14
:1006700000200AF0A9FA13490AF0FAFAE860E37BCD
:10068000A07B03EB00200AF09FFA0E490AF0F0FA73
:10069000286138BD107A537A03EB00200AF094FAEF
:1006A00009490AF0E5FA09490AF0DAF9C5F89001B2
:1006B00038BD107A537A03EB00200AF085FAC5F8AA
:1006C000900138BD0AD7A33ADDB504BD0000EC4265
:1006D000D0F8DC01704700BF90F8C001704700BF40
:1006E00090F8BC01704700BF90F8C401704700BF8C
:1006F00090F8C801704700BF202994BF50F821002E
:10070000002070472DE9F0410B4E8046041F00F198
:100710007C0754F8045F314628460AF047FC30B1A4
:10072000D8F8B41128460AF05FFC00B12E46BC424E
:10073000EFD13046BDE8F081000020412DE9F041C5
:10074000D0F8B4714FF00008041F00F17C0654F893
:10075000045F394628460AF047FC084948B1284654
:100760000AF024FC414620B128460AF03DFC00B1C5
:10077000A846B442EBD14046BDE8F0810000A0405D
:100780002DE9F0470023D0F8B471C0F8DC3182467F
:100790001C464FF000099846061F56F8045F38467D
:1007A00029460AF003FC0E4960B128460AF0FEFB18
:1007B00040B1484629460AF053F908F1010881463C
:1007C000CAF8DC410134202CE7D1CAF8D481404674
:1007D0000AF0FAF9014648460AF0FEFABDE8F08749
:1007E00000007042D0F8D401704700BFD0F8CC317F
:1007F00070B5044683BBFFF739FE4FF07C510AF019
:10080000F3FB40B3D4F890614FF07C5130460AF0CE
:10081000EBFBD4F8945118BBD4F898414FF07C51BD
:1008200028460AF0E1FB58B1294630460AF0DCFBC5
:1008300030B1214628460AF0B9FB08B12C4625E024
:100840004FF07C5120460AF0CFFB20B128462146CC
:100850000AF0CAFBA0B970BD633350F82300CCE79F
:10086000304629460AF0A2FBD4F898410028D5D09A
:10087000304621460AF09AFB0028CFD0344605E0E6
:10088000304621460AF0B0FB0028E4D0204670BD77
:1008900038B5D0F89441D0F89051214628460AF056
:1008A00085FB00B92C46204638BD00BFD0F8CC31BE
:1008B0000BB9FFF7DBBD633350F82300704700BF6F
:1008C0002DE9F8434FF00008D0F8B471C0F88C81DE
:1008D0008146041F00F17C0654F8045F394628461F
:1008E0000AF082FB084950B128460AF05FFB30B19C
:1008F000404629460AF0B4F88046C9F88C01B44253
:10090000EAD14046BDE8F8830000704202299ABF50
:10091000643150F821000020704700BF102998BFB3
:1009200080F8D011704700BF90F8D001704700BF29
:1009300090F8B801704700BF90F8B901704700BF48
:10094000C0F8CC11704700BF80F8B811704700BFE5
:1009500080F8B911704700BF30B5C0F8B41183B04A
:10096000084609F0DBFC074C022502460B460095C1
:10097000204608F029FE204603B0BDE8304008F0CC
:10098000C9BD00BFCC87FF1F70B500F500550646F6
:10099000083500F12804204604F5F074FFF792FDB5
:1009A000AC42F8D106F50275012428460021FFF774
:1009B000CBFF214628460134FFF7B0FF112C05F587
:1009C000F075F2D142F2100400250548054A064BA5
:1009D0003555002130617161B261F361304670BDFF
:1009E00000007A44000048430000C8C270B500F51A
:1009F000EC46483600F50274002508E00125204643
:100A0000002104F5F074FFF7A3FFB4420AD020469A
:100A1000FFF78EFF0028F2D02046FFF78DFF002859
:100A2000ECD170BD284670BD42F214032DE9F041AF
:100A3000002200F5F15500F500578046C2500835F8
:100A4000143700F5027403E004F5F074AC420ED0E4
:100A50002046FFF76DFF0028F6D020463E68FFF7DE
:100A6000C1FE04F5F0743044AC423860F0D142F27B
:100A7000140358F80300BDE8F08100BFF8B50F4635
:100A8000096801F00F050135C5EB051400EB4410B2
:100A900000F12804204601F0F006FFF745FF8542EB
:100AA00003D029462046FFF739FF20460121FFF7F2
:100AB0004BFF20460121FFF74BFF3A4631462046C7
:100AC000BDE8F840FFF738BD70B5002300F50056CB
:100AD00005460360083600F5027403E004F5F0747F
:100AE000A64223D02046FFF723FF0028F6D0204659
:100AF000FFF7E6FE0146286809F0B2FF28602046AD
:100B0000FFF774FEA9690AF051FA20BB2046FFF7EF
:100B1000BFFEE9690AF068FA0028DFD02046FFF737
:100B2000B7FE04F5F074A642E861DBD168680AF00C
:100B30004BF8014628680AF04FF9696928600446B5
:100B40000AF052FA00B16C61296920460AF02EFAC7
:100B500000B12C6170BD2046FFF748FEA861D5E7C3
:100B600070B5124B836000F500550646083500F558
:100B7000027403E004F5F074AC4214D02046FFF791
:100B8000D7FE0028F6D02046FFF7BCFDB1680AF07A
:100B90000DFA0028EED02046FFF7B4FD04F5F074FE
:100BA000AC42B060EAD1B06870BD00BF0000A040A8
:100BB00070B5002300F500550646C360083500F502
:100BC000027403E004F5F074AC4214D02046FFF741
:100BD000AFFE0028F6D02046FFF7B0FDF1680AF01E
:100BE00003FA0028EED02046FFF7A8FD04F5F074C4
:100BF000AC42F060EAD1F06870BD00BF0068704799
:100C000041607047F8B50F46164600F5027401259D
:100C100004E00135112D04F5F0741BD02046FFF7D8
:100C200087FE0028F5D029460B4808F0C3FC0A4887
:100C300008F070FC782008F05BFA20463946FFF790
:100C40007FFE013520463146FFF786FE112D04F563
:100C5000F074E3D1F8BD00BFCC87FF1F2DE9F84346
:100C600000F5005542F20C032E4600278046C7507F
:100C70004FF0000908350C3600F5027403E004F566
:100C8000F074A54214D02046FFF752FE0028F6D09B
:100C90003368013333602046FFF708FE1D490AF030
:100CA000A3F990B904F5F074A54207F10107EAD160
:100CB00042F20C0358F80300C01B09F085FF0146FF
:100CC00048460AF089F8BDE8F8832046FFF7EEFDB4
:100CD0000146484609F0C4FE81462046FFF7E6FD7E
:100CE000D8F820100AF080F970B92046FFF7DEFD31
:100CF000D8F824100AF05AF90028C0D02046FFF78F
:100D0000D5FDC8F82400BAE72046FFF7CFFDC8F8A4
:100D10002000EAE700008CC2006A7047406A704712
:100D2000F8B500F5005507460026083500F50274B1
:100D300003E004F5F074AC4210D02046FFF7F8FD54
:100D40000028F6D02046FFF71BFD0146304609F08B
:100D500087FE04F5F074AC420646EED142F20C0375
:100D6000F85809F031FF014630460AF035F8F8BD71
:100D70002DE9F04F04468FB0C6488A4600F0A0FB2C
:100D8000C44800F09DFBC34800F09AFB42F20C03FC
:100D90002046E2580D92FFF747FE63680C938146A8
:100DA000206809F0BBFA064620460F46FFF7B8FF59
:100DB00083462046A568D4F80C80FFF74FFF09F062
:100DC000ADFACDE90A012946404609F047FEB2498D
:100DD00009F04EFF09F0A2FACDE90801404609F0FA
:100DE0009DFACDE90601284609F098FACDE90401FB
:100DF000584609F093FA0D9A0C9BCDE90201CDE912
:100E000000671146A5484A4600F05AFBA14800F089
:100E100057FB04F502744FF00109002507E009F1C2
:100E20000109B9F1100F04F5F07400F0F7802046C5
:100E3000FFF77EFD0028F2D02046FFF74DFC20464C
:100E4000FFF74EFC2046FFF74FFC2046FFF750FC13
:100E50000821934808F0C8F84946924808F0AAFBD0
:100E6000B9F1090F03DC01218F4808F0BDF8022118
:100E70008E4808F0B9F82046FFF722FD09F04EFA37
:100E80005FFA8AF802460B46CDF80080854808F0E4
:100E90009BFB0121864808F0A7F82046FFF718FCC5
:100EA0000C2800F3BE8001261EE00621814808F0D0
:100EB0009BF829467B4808F07DFB02217E4808F01C
:100EC00093F831462046FFF717FC09F027FACDF8D2
:100ED000008002460B46734808F076FB01217448F7
:100EE0003D460E4408F080F82046FFF7F1FB8642AD
:100EF00005F101076BDC092DD7DC01216A4808F0F8
:100F000073F8D2E72046FFF7E3FB172800F3BE8013
:100F100035460D261CE008F067F82946614808F0C0
:100F200049FB0221644808F05FF831462046FFF78C
:100F3000E3FB09F0F3F9CDF8008002460B4659486F
:100F400008F042FB01215A483D460E4408F04CF897
:100F50002046FFF7BDFB86424FF00601554805F1DC
:100F60000107D8DD0F21554808F03EF84D4808F03C
:100F7000D1FA2046FFF7ACFB192828DD19261CE022
:100F800008F032F82946474808F014FB02214A4885
:100F900008F02AF831462046FFF7AEFB09F0BEF90B
:100FA000CDF8008002460B463E4808F00DFB0121BB
:100FB0003F483D460E4408F017F82046FFF788FBEF
:100FC00086424FF006013B4805F10107D8DD0F21AD
:100FD0003A4808F009F8334808F09CFA09213848E3
:100FE00008F002F800212046FFF790FC09F096F97E
:100FF000022602460B4600962A4808F0E5FA0F2121
:101000002E4807F0F1FF09F10109264808F082FA9D
:10101000B9F1100F04F5F0747FF409AF0FB0BDE81B
:10102000F08F2F46012620E00621224807F0DCFF42
:1010300039461C4808F0BEFA02211F4807F0D4FFC9
:1010400031462046FFF758FB09F068F9CDF80080DB
:1010500002460B46134808F0B7FA0136012114483E
:1010600007F0C2FF0C2E09D05F46092F07F1010BD4
:10107000DADC01210C4807F0B7FFD5E72046FFF77F
:1010800027FB0C2805F10B063FF73CAF16350D2763
:101090003AE000BF48F3000000007A44E0F40000AA
:1010A00080F50000CC87FF1F80F70000940301004B
:1010B0008CF5000090F5000070F7000098F5000036
:1010C000A8F500000621154807F08EFF31461448A8
:1010D00008F070FA0221134807F086FF39462046CF
:1010E000FFF70AFB09F01AF9CDF8008002460B461B
:1010F0000B4808F069FA01210B480F4407F074FF10
:10110000AB453FF42FAF5E46092E06F1010BD9DC4B
:101110000121064807F068FFD4E700BF90F5000002
:10112000CC87FF1F70F700008CF5000080F70000EF
:101130002DE9F04F85B000F502758A4603929B4673
:101140002E464FF0010806E008F10108B8F13F0F04
:1011500006F5F0767BD03046FFF7EAFB0028F3D0A7
:1011600000230A2251467D4808F0E4F901217C4819
:1011700007F03AFF039809F0D1F8002302460093E4
:1011800076480B4608F020FA0121754807F02CFF3D
:101190005946724808F00EFA0121714807F024FF01
:1011A00041466E4808F006FA01216D4807F01CFF21
:1011B00000244FF0020921463046FFF79DFA09F05E
:1011C000ADF8CDF8009002460B46644808F0FCF9F3
:1011D00001340121624807F007FF082C4FF0020795
:1011E000E9D100213046FFF791FB09F097F800970D
:1011F00002460B46594808F0E7F90121584807F024
:10120000F3FE01213046FFF781FB09F087F80097D4
:1012100002460B46514808F0D7F90121504807F023
:10122000E3FE39463046FFF771FB09F077F8009787
:1012300002460B46494808F0C7F908F1010847483B
:1012400008F068F9B8F13F0F06F5F07683D1012771
:101250004FF0000904E001373F2F05F5F07579D014
:101260002846FFF765FB0028F5D000230A225146E7
:101270003C4808F05FF90121394806F071FE0398F7
:1012800009F04CF8CDF8009002460B46354808F0BE
:101290009BF90121324806F063FE5946314808F0B7
:1012A00089F901212E4806F05BFE39462D4808F0E9
:1012B00081F901212A4806F053FE00244FF002086C
:1012C00021462846FFF718FA09F028F8CDF80080E3
:1012D00002460B46234808F077F9013401212048E3
:1012E00006F03EFE082C4FF00206E9D10021284608
:1012F000FFF70CFB09F012F8009602460B4619485E
:1013000008F062F90121164806F02AFE012128465C
:10131000FFF7FCFA09F002F8009602460B46114866
:1013200008F052F901210E4806F01AFE314628460F
:10133000FFF7ECFA08F0F2FF009602460B46094868
:1013400008F042F90137074808F0E4F83F2F05F5A7
:10135000F07585D105B0BDE8F08F00BFCC87FF1FC9
:10136000B4F50000BC87FF1F014B1870704700BF29
:101370002087FF1F0278002A00F0908070B5034696
:1013800082B00D46252A2AD158785C1C08B325283E
:101390002FD0732831D0642824D0692822D0662821
:1013A0004FD07A2859D0782835D058282FD06228A5
:1013B0003ED0422838D06C2814D0632812D074282C
:1013C00057D054285FD007F093FE6278631C002A40
:1013D000D8D1344802B0BDE8704008F09BB8187806
:1013E0001C46F0E72B1D29682E481D4608F0E2F840
:1013F000EBE7104607F07CFEE7E72E6830460AF080
:101400003FFC01463046043507F0EEFDDDE70221E2
:10141000254807F0E9FD2E1D2968224800231022E7
:10142000354608F087F8D0E70221204807F0DCFDB8
:101430002E1D29681B4800230222354608F07AF841
:10144000C3E7073525F007050321D5E90023154833
:101450000091083508F0B8F8B7E7073525F007051B
:101460000021D5E900230F480091083508F0ACF8B9
:10147000ABE7296801290EBF0D480E48012104354C
:1014800007F0B2FDA1E72B68012B07BF04210A4832
:101490000A480521043507F0A7FD96E7014808F042
:1014A00039B800BFCC87FF1FB8F50000BCF50000BD
:1014B000C0F50000C4F50000C8F50000D0F500003C
:1014C0000FB400B583B004A951F8040B0191FFF7E4
:1014D00051FF03B05DF804EB04B0704730B4074D22
:1014E000074C084900232B7023600365436583651F
:1014F00080F85C300B6030BC704700BF4C92FF1F1F
:101500004892FF1F4492FF1FF8B53A483A4F3B4DAF
:101510003B4E3C4CFFF7D4FF3B4B3C493C4A3D48DB
:101520005960DA603C491F6100223C4F58615D629E
:101530003B489E614FF07C553A4E9C623A4CD962D2
:101540001A630C21394A5F639863394F5D6440F632
:101550001C400A259E64DC6441F204065A24196585
:101560001A6202210122C3F8B8709866314FDD6615
:10157000002064251E675C674FF49676322459700C
:1015800059721A725A65DF61DF6383F840005E6644
:10159000DE651C664FF47A7E9D65274F9867274E5F
:1015A000D967C3F88000C3F89440C3F8A040C3F8DB
:1015B0009C00FF24C3F8A820C3F8AC10052041F21A
:1015C000883183F8BC2040F2D662C3F8B050C3F82B
:1015D00098E0C3F88870C3F88C60C3F8A440A3F8FF
:1015E000B600C3F89010A3F8B410A3F88420A3F8B1
:1015F0008620F8BDFCF5000000004040CDCCCC3D7D
:10160000CDCC4C40000082423C93FF1F48E80100D3
:101610006666864033338340000020C100002042CC
:101620000000A0409A9979400AD7233D3333734094
:101630009A99993ECDCC4C3E0000684200C02044AF
:10164000F0B54FF47A6085B006F0ACF900210F20B8
:1016500006F080F900210E2006F07CF9002111200F
:1016600006F078F90021102006F074F9002112200C
:1016700006F070F90021132006F06CF901210B200F
:1016800006F068F901210C2006F064F9012114200C
:1016900006F060F90121152006F05CF90121162001
:1016A00006F058F90121172006F054F90121052010
:1016B00006F050F98B4C8C4D0121062006F04AF9BA
:1016C00001210D2006F046F9208809F079FA01463B
:1016D000162006F0A9F8208809F072FA01461720B2
:1016E00006F0A2F8208809F06BFA0146052006F002
:1016F0009BF8208809F064FA00240146062006F0D1
:1017000093F800942346794A79497A4804F070FDA9
:10171000E6B232467449774804F018FD2B797249D5
:1017200074486FF30003013432462B7104F004FD5A
:10173000082CEDD10924E6B232466B496D4804F01D
:1017400005FD2B7968496B4843F0010301343246AB
:101750002B7104F0F1FC0D2CEDD1674C4FF0FF32F2
:101760002068102105F010F920684FF0FF32102199
:1017700005F0E2F820684FF0FF32022105F0F0F8A2
:1017800020684FF0FF32022105F0F4F800220F210B
:10179000206805F003F90C21584807F025FC58484B
:1017A00007F0B8FE1421574807F01EFC544807F014
:1017B000B1FE534807F0AEFE1721534807F014FC62
:1017C0004F4807F0A7FE514B1B789A0600F1B880EE
:1017D0004E4B1B781B0700F1BF804C4B1B785F07FB
:1017E00000F1C680494B1B789E0700F1CD80484B25
:1017F0001B781D0600F1D480454B1B785C0600F178
:10180000DB80434B1B78980600F1E280404B1B784D
:10181000590700F1E9803E4B1B781A0700F1F08070
:101820003B4B1B789B0700F1F780354807F072FEB1
:1018300072B6384A4CF220534DF6281120241380FA
:1018400023461180013BFDD1334D344834490023F8
:101850004FF480562E8003800B8032F80E3C9BB2F2
:1018600043F0D30322F80E3C62B69D2006F002FD41
:1018700021462C482C4D07F0B7FB214807F04AFEC3
:1018800005F1C0062F462C46601B05F069FD04F8E3
:10189000010BB442F8D13B78102B01D0FFF734FE96
:1018A0000420FFF761FD214B002201210D201A6069
:1018B00006F03CF8796D1E48FFF7A2F97A6C97F8AC
:1018C00040101B48FFF79EF91A4B1B491A680392F8
:1018D00003981B680293029A184B08601A6005B0BF
:1018E000F0BD00BF2887FF1F0894FF1FA0B6FF1F91
:1018F00048E8010004B5FF1FB894FF1F1CF6000064
:10190000CC87FF1F2CF6000044F6000001F00740D2
:1019100000F007400E200540042005400620054049
:101920001620054048F700003C93FF1F6492FF1FFC
:10193000EC94FF1FACB6FF1FE894FF1F1094FF1F2D
:101940002121394807F050FB384807F0E3FD384BB8
:101950001B781B077FF541AF0C21364807F044FB8D
:10196000324807F0D7FD324B1B785F077FF53AAF5F
:101970000E21314807F038FB2C4807F0CBFD2C4BEB
:101980001B789E077FF533AF17212C4807F02CFBFF
:10199000264807F0BFFD2A4B1B781D067FF52CAFAC
:1019A0000E21284807F020FB204807F0B3FD244B08
:1019B0001B785C067FF525AF1221234807F014FB46
:1019C0001A4807F0A7FD1E4B1B7898067FF51EAF3F
:1019D00013211E4807F008FB144807F09BFD184B25
:1019E0001B7859077FF517AF1C21194807F0FCFA3F
:1019F0000E4807F08FFD124B1B781A077FF510AFCA
:101A00001921144807F0F0FA084807F083FD0C4B41
:101A10001B789B077FF509AF18210F4807F0E4FA00
:101A2000024807F077FD00E75CF60000CC87FF1F57
:101A300001F0074080F6000090F60000A0F60000DC
:101A400000F00740B8F60000C8F60000DCF6000021
:101A5000F0F6000010F700002CF7000070B5464CBF
:101A6000464D4748E66800232B70FFF7A1F8014672
:101A7000304609F09BFA08B104232B704048FFF769
:101A80006FF8216909F092FA18B12B7843F010032E
:101A90002B703B48FFF7E2F8A16A09F0A5FA18B1EC
:101AA0002B7843F040032B70002335486B70FFF711
:101AB000D5F8E16A314E09F079FA08B10123737063
:101AC00000232F48EB70FFF773F805462C482B4E88
:101AD000FFF746F80146284608F0C0FFE16B09F021
:101AE00083FA08B10123F370264D254800232B709B
:101AF000FFF75EF8616A0646E06808F0AFFF01464E
:101B0000304609F071FA08B104232B701C48FFF726
:101B100027F8616A0646206908F0A2FF01463046B0
:101B200009F044FA18B12B7843F010032B701448D5
:101B3000FFF794F8A16B0646A06A08F08FFF0146F4
:101B4000304609F051FA18B12B7843F040032B705E
:101B500000230B486B70FFF781F8A16B0546E06A24
:101B6000084C08F07DFF0146284609F01FFA08B12D
:101B70000123637070BD00BF3C93FF1F3893FF1FAC
:101B8000EC94FF1FA894FF1F2DE9F0417C4C2368C3
:101B9000012B82B031D0022B00F0A880032B00F083
:101BA000C8803BBB774B784AD3F8A010D3F8A43059
:101BB00012685B1A632B0EDD744803FB02F380FB93
:101BC0000302DB17C3EB62131944062002B0BDE821
:101BD000F04105F02BBD6E4803FB022380FB03029E
:101BE000DB17C3EB22121144062002B0BDE8F0411E
:101BF00005F01CBD02B0BDE8F081664E33680A33C3
:101C0000B3F57A7F00F3B7801846336008F0DCFF45
:101C1000614909F02DF880465A4DD5F8A00008F02A
:101C2000D3FF0746D5F8A40008F0CEFF394608F0E8
:101C300015FF414609F01CF8584909F0CDF839461E
:101C400008F00EFF09F0DAF90146062005F0EEFC77
:101C50000221534807F0C8F9524807F05BFC0621FF
:101C6000514807F0C1F9306808F0AEFF4A4908F062
:101C7000FFFF08F053FB022702460B460097494836
:101C800007F0A2FC0D21494807F0AEF9D5F8A000F5
:101C900008F09AFF8046306808F096FF3E4908F049
:101CA000E7FF0646D5F8A40008F08EFF414608F08D
:101CB000D5FE0146304608F0DBFF384909F08CF8C4
:101CC000414608F0CDFE08F029FB00970B4602467E
:101CD000344807F079FC3946314807F085F9314836
:101CE00007F018FC2368022B7FF458AF294B254ED0
:101CF00000221A60D6F8A00008F066FF0546D6F864
:101D0000A40008F061FF294608F0A8FE002108F0B1
:101D1000AFFF224909F060F8294608F0A1FE09F05A
:101D20006DF90146062005F081FC2368032B7FF442
:101D300038AF184B134E4FF47A721A60D6F8A000E1
:101D400008F042FF0546D6F8A40008F03DFF2946FA
:101D500008F084FE114908F08BFF104909F03CF8A7
:101D6000294608F07DFE09F049F90146062005F0F4
:101D70005DFC236815E700234FF0000833604BE754
:101D80009494FF1F3C93FF1F3487FF1F1F85EB5167
:101D9000CBF08D286892FF1FCDCCCC3D0000C8420F
:101DA00094030100CC87FF1F6CF7000074F700005C
:101DB00070B59D489D4C07F0ADFB9B4807F0AAFB12
:101DC000994807F0A7FB0D21994807F00DF9D4F8C1
:101DD0009C30012B11D0974C9348217800230A2284
:101DE00007F0A8FB2378052B67D8DFE813F0E400A1
:101DF000E900EE00F300F800DF0009218E4807F04B
:101E0000F3F88E48FEF7ACFE216909F0CFF818B15F
:101E10000F218B4807F0E8F88848FEF7C9FEE16813
:101E200009F0E2F818B10E21864807F0DDF8834882
:101E3000FEF7BEFE05468148FEF792FE01462846A3
:101E400008F00CFEE16B09F0CFF818B111217E48C3
:101E500007F0CAF87948FEF701FFA16A09F0C4F853
:101E600018B10C21794807F0BFF87448FEF7F6FE68
:101E7000E16A09F09BF818B10D21754807F0B4F834
:101E8000744B6E481B68012B00F0B880FEF768FEAB
:101E90002169664D09F0A8F878B16848FEF788FE18
:101EA000E96809F083F840B1624B1B78052B00F01C
:101EB000B6800821684807F097F80221674807F0C4
:101EC00093F8122005F038FD012800F092801120CF
:101ED00005F032FD012800F0878002215F4807F0FD
:101EE00083F85F4B5048196807F064FB4E4807F0D1
:101EF00011FB04215B4807F077F80B2005F01CFD6F
:101F0000002301460A22484807F014FB0C2005F084
:101F100013FD002301460A22434807F00BFB14205F
:101F200005F00AFD002301460A223F4807F002FBA4
:101F3000152005F001FD002301460A223A4807F06A
:101F4000F9FA0621484807F04FF8484B3648196817
:101F50000222002307F0EEFA0421454807F044F876
:101F6000112005F0E9FC002301460A222E4807F063
:101F7000E1FA102005F0E0FC002301460A222A487D
:101F800007F0D8FA122005F0D7FC002301460A22F8
:101F9000254807F0CFFA132005F0CEFC00230146B8
:101FA0000A222148BDE8704007F0C4BA0721314831
:101FB00007F01AF881E706212F4807F015F87CE7AB
:101FC00007212E4807F010F877E707212C4807F083
:101FD0000BF872E708212B4807F006F86DE70B2194
:101FE000294807F001F868E70A21284806F0FCFFB5
:101FF00073E70E21264806F0F7FF68E7FEF7B0FD0D
:10200000216A08F0F1FF00283FF453AF1621214860
:1020100006F0EAFF0A21204806F0E6FF4DE70A2114
:102020001D4806F0E1FF48E7CC87FF1F3C93FF1FE8
:1020300084F70000A494FF1F94F70000EC94FF1FA6
:10204000A0F70000B0F70000C0F70000D4F70000D0
:10205000E4F700007492FF1F18F8000094030100D9
:102060009894FF1F78F8000080F80000FC93FF1F91
:1020700088F8000054F8000024F800002CF8000054
:1020800040F8000048F8000034F800006CF8000048
:102090005CF80000F4F700000CF800002DE9F04FA8
:1020A000934C944FE36F012B8DB000F04981032BCB
:1020B00050D0914E914DA36F9148012B09BF2968D3
:1020C000296801F10041296005F03CF83368002BD4
:1020D00040F0CE808A4805F00BF8E36F3860012BA2
:1020E000064600F0D280874908F07EFF78B986491D
:1020F000304608F05BFF50B9844A854B12680B925A
:102100000B9A1A6000232B600DB0BDE8F08FDFF84A
:10211000FC817F4CD8F800300A930A9823687D4FE1
:10212000C01A08F04DFD314608F0A2FD7A4908F0CA
:1021300053FE794908F050FE396808F091FCD8F850
:1021400000300993099B2360002338602B600DB099
:10215000BDE8F08FDFF8C881704DD8F80000664EFA
:10216000012300220F212B6004F018FC2B68012BA7
:10217000336800F00381002B40F0A6810021D8F8DD
:102180000000DFF8B891664D04F05AFC33681FFA7E
:1021900080FBC9F800B0002B40F07B810021D8F80B
:1021A0000000564DDFF878A104F0D0FBB4F886307B
:1021B00040F6E44101FB0BF1B1FBF0F0C01A00B2B4
:1021C00008F002FD57498346D4F8880008F050FD16
:1021D0000146584608F000FED9F800302860632B0D
:1021E000DFF858B100F3498100232B603368002BDE
:1021F0003FF461AF02214C4806F0F6FED9F800200A
:10220000D8F8000040F6E443002103FB02F804F094
:102210009DFBB8FBF0F008F0D3FC8046B4F88600D4
:1022200008F0D2FC0146404608F018FC08F076F8A9
:102230004FF0020802460B46CDF800803B4807F0FD
:10224000C3F94146384806F0CFFE286808F066F822
:10225000CDF8008002460B46344807F0B5F94146F8
:10226000334806F0C1FE41462F4806F0BDFE22E786
:10227000234804F03DFF08F051F8022602460B46C1
:1022800000962A4807F0A0F924E7244B1B68012B8D
:1022900000F02681022B7FF435AF264908F0A4FE1A
:1022A00030B92549304608F081FE002800F047810A
:1022B000DFF85880164CD8F8003007930798236849
:1022C000144FC01A08F07CFC314608F0D1FC1249CA
:1022D00008F082FD104908F07FFD396808F0C0FB66
:1022E000D8F800300693069B386023600AE700BFE9
:1022F0003C93FF1F8092FF1FE494FF1F7092FF1F0B
:102300001493FF1F0000FA430000FAC3ACB6FF1F8E
:10231000B494FF1F8C92FF1F00007A445087FF1F68
:10232000B894FF1F17B7D13894030100CC87FF1F63
:10233000CCF8000000C82F4800A08CC63493FF1FC3
:102340003D689849284608F031FE30B12846964944
:1023500008F04AFE00287FF4FDAEDFF85882934D66
:10236000D8F80000924E022300220E212B6004F0C8
:1023700015FB2B68012B33687FF4FDAE002B40F07A
:1023800000810021D8F80000DFF86C92894D04F03C
:1023900057FB33681FFA80FBC9F800B0002B40F0F0
:1023A000D5800021D8F80000834D04F0CFFAB4F8AE
:1023B000843040F6E44A0AFB0BFBBBFBF0F0C01A8A
:1023C00000B208F001FC7D498346D4F88C0008F087
:1023D0004FFC0146584608F0FFFCD9F80030286051
:1023E0000021D8F800000AFB03FA04F0AFFAB4F8B1
:1023F0008430BAFBF0F00FFA80FAC3EB0A03002B2B
:10240000B4F8B620B8BF5B429342BCBF00232B6038
:102410003368002B3FF44FAE0221694806F0E4FD1B
:10242000D9F80020D8F8000040F6E443002103FB6F
:1024300002F804F08BFAB4F88410B8FBF0F000B2A4
:10244000411A604807F0B6F802215D4806F0CCFD5D
:10245000286807F063FF4FF0020802460B46CDF8EC
:102460000080584807F0B0F80321574806F0BCFD3B
:102470004146534806F0B8FD1DE6DAF80000002199
:1024800004F064FADBF8003064389842FFF4ACAE34
:10249000ACE60021286804F059FA40F6E441002334
:1024A0000A2201FB0BF1B1FBF0F1464807F042F8BC
:1024B0000221434806F098FDB4F88610414807F021
:1024C00079F8D9F800B069E63E4807F023F80C2106
:1024D0003E4806F089FD0C213D4806F085FD4DE69D
:1024E0003C4908F081FD58B93B49304608F05EFD93
:1024F00030B93A4A3A4B12680592059A1A6001E6D9
:10250000DFF8D880364CD8F800300493049823685C
:10251000344FC01A08F054FB314608F0A9FB324989
:1025200008F05AFC304908F057FC396808F098FA6E
:10253000D8F800300393039B38602360E2E5274A14
:10254000274B12680892089A1A60DBE50021286878
:1025500004F0FCF940F6E44100230A2201FB0BF1F0
:10256000B1FBF0F1174806F0E5FF01211F4806F026
:102570003BFDB4F88410134807F01CF8D9F800B0FC
:102580000FE7104806F0C6FFE36F012B4FF00B0179
:102590000CBF1748174806F027FD0C210C4806F021
:1025A00023FDEEE600709446007094C65087FF1F2E
:1025B000E494FF1FB894FF1F7092FF1F17B7D13824
:1025C00094030100CC87FF1FB8F80000BCF800009E
:1025D000A8F800000000FA430000FAC3ACB6FF1FE1
:1025E000B494FF1F8C92FF1F00007A4480F7000014
:1025F00090F800009CF800003493FF1F2DE9F0478D
:10260000B24D2B6884B0002B7ED0B14CDFF8C8826D
:10261000B04EE36FAE4D012B00F08F80D4F88030C8
:10262000AB4F012B00F0BC80D6F80090D7F858A033
:102630007D6DA94F05FB0AF54FF47A7000FB05F09C
:1026400008F0C2FAA5490546484608F011FB29469C
:1026500008F0C2FBA24908F00BFB08F0CFFC63288E
:10266000C8F800004BDD28469C4908F0B5FB642300
:1026700030603B609B4B1B68002B3DD0E36F944D5B
:10268000012B00F0BB80032B00F00981022B00F02E
:102690000C810221944806F0A7FC944B186807F0BF
:1026A0003DFE022402460B460094914806F08CFF42
:1026B0002146904806F098FC21468B4806F094FC91
:1026C000D8F800108A4806F075FF06218A4806F0FF
:1026D0008BFC3068814908F0CBFA07F01FFE0094AC
:1026E00002460B46824806F06FFF0321834806F03E
:1026F0007BFC7F4806F00EFF04B0BDE8F0870028A1
:10270000BCBF00233B60B5E77D4E714C336802933C
:10271000029A42F228339A4200F2BA803368039355
:10272000039A42F210739A4274D8E36FDFF8A881DB
:10273000684E674D012B7FF471AF7248FEF7F0FAD7
:102740007149D5F86890EF6E08F092FA08F07CFCB9
:102750002A6F6B6FC9EB0202DB1B80B29A42C9EB96
:10276000000040F3AD8003FB0000531C90FBF3F32B
:102770001F44A06D636DC8F8007000FB07F003FBF9
:1027800000F000EB8000400008F01EFA5349504F63
:1027900008F022FBD4F880303060012B7FF444AF86
:1027A0005848FEF7BDFA5849D7F86890FD6E08F012
:1027B0005FFA08F049FC3A6F7B6FD4F858A0C9EB78
:1027C00002025B1B80B29A42C9EB0000C6BF03FB4A
:1027D00000000132584390FBF2F02844656D00FB85
:1027E0000AF005FB00F000EB8000400008F0ECF977
:1027F0003A4908F0F1FA814630601AE7434B1B680A
:10280000012B4FF00A010CBF4148424806F0ECFB97
:10281000EB6F38E73B48FEF783FA3B49A76EE66E5D
:1028200008F026FA08F010FC226F636FD21B9B1B86
:1028300080B29A42A0EB07003CDD03FB0000531C72
:1028400090FBF3F39819A26DDFF88C80636DC8F8E4
:10285000000002FB00F003FB00F000EB80004000F2
:1028600008F0B2F91D491B4E08F0B6FA012330609A
:1028700002211D482B6006F0B7FB1D4806F04AFEFA
:102880005921254806F0B0FB194806F043FEC0E682
:102890001C48626C94F84010FEF7B4F93EE7102132
:1028A0001E4806F0A1FBE36FF0E607211C4806F086
:1028B0009BFBEEE603FB00F393FBF2F39819C2E7F0
:1028C00003FB00F393FBF2F31F4452E76C92FF1FEC
:1028D0003C93FF1F8C92FF1F3487FF1FE4388E3E0E
:1028E0000000C8423C87FF1F940301008092FF1F35
:1028F000CC87FF1FCCF8000060F9000068F90000E9
:10290000ACB6FF1FEC94FF1F00007A445087FF1FF6
:102910002CF9000038F90000D0F8000044F900005C
:1029200058F90000F0B5112083B005F005F8012832
:1029300013D000210B2004F0F9FF00210C2004F03B
:10294000F5FF0021152004F0F1FF1D491D4B01206A
:10295000002208701A6003B0F0BD0146044615203D
:1029600004F0E4FF1849194A194B09680191D2F89B
:1029700090001B680199134D034402268B422E6080
:1029800017D8D2F8980008F01FF9124B196808F010
:102990000DFB074668B921460B2004F0C7FF084A23
:1029A000032339460C2016702B6004F0BFFF03B0E0
:1029B000F0BD01210C2004F0B9FF03B0F0BD00BF51
:1029C000A494FF1FE094FF1FACB6FF1F3C93FF1FB2
:1029D000E894FF1F8092FF1FF0B5684E684D346881
:1029E0002B689C4287B039D014F0010155D014F007
:1029F000020149D014F004013DD0E3070ED52B6845
:102A0000DF070BD45F4F3A68002A00F082805E4BEC
:102A10001B680193019B93426DD83468A0070DD5C4
:102A20002B6899070AD4594F3A68002A4CD0564B64
:102A30001B680393039B934238D8346862070DD513
:102A40002B685B070BD4524F3A68002A7ED04E4B5E
:102A50001B680593059B934268D834680CB107B096
:102A6000F0BD2146162004F0E1FD2146172004F0B8
:102A7000DDFD07B0F0BD052004F0D8FD2B683468FB
:102A800003F0FB032B60B8E7172004F0CFFD2B68A1
:102A9000346803F0FD032B60ACE7162004F0C6FD9C
:102AA0002B68346803F0FE032B60A0E7394B172036
:102AB000D3F8941004F0BAFD2B68346843F0020395
:102AC00000222B603A60B9E7334806F023FD0C2161
:102AD000324806F089FA304806F01CFDFF21172025
:102AE00004F0A4FD284B2E4A19680291029912683D
:102AF0000A443A609CE7274B1620D3F8941004F060
:102B000095FD2B68346843F0010300222B603A6086
:102B100084E7FF21162004F089FD1B4B204A196829
:102B20000091009912680A443A6071E7194B052038
:102B3000D3F8941004F07AFD2B68346843F0040352
:102B400000222B603A60002C89D18AE7124806F0F7
:102B5000E1FC0C21134806F047FA0F4806F0DAFCB6
:102B6000FF21052004F062FD074B0D4A196804910E
:102B7000049912680A443A606AE700BFE094FF1FB4
:102B8000FC93FF1F7894FF1FACB6FF1F7C94FF1FC0
:102B90008094FF1F3C93FF1FCC87FF1F6CF9000040
:102BA0006887FF1F7CF900002DE9F047544EDFF8DD
:102BB0007481DFF874913068524D00220F2103F0C8
:102BC000EDFE0023012222214F48C8F80030C9F849
:102BD000002006F009FAD8F80030132B22DC40F66A
:102BE000E44700213068B5F884A003F029FF0021F4
:102BF0000446306803F0AAFEA4B2012107FB04F4E6
:102C0000B4FBF0F441485444A5F8844006F0ECF9D4
:102C1000642004F0C7FED8F800300133132BC8F845
:102C20000030DEDDB5F88430394A3A48A2FB0312A1
:102C30009B1A02EB5303C3F30F131946A5F8843014
:102C400006F0B8FC1D21344806F0CEF902213348C5
:102C500006F0CAF92F4806F05DFC00231A460E2143
:102C60003068C8F8003003F099FE0223222126487C
:102C7000C9F8003006F0B8F9D8F80030132B22DC80
:102C800040F6E44700213068B5F8869003F0D8FE9E
:102C900000210446306803F059FEA4B2012107FB6D
:102CA00004F4B4FBF0F419484C44A5F8864006F04F
:102CB0009BF9642004F076FED8F800300133132B22
:102CC000C8F80030DEDDB5F88630114A1148A2FBA5
:102CD00003129B1A02EB5303C3F30F131946A5F813
:102CE000863006F067FC1D210D4806F07DF90221B3
:102CF0000A4806F079F90748BDE8F04706F00ABC33
:102D0000B894FF1F3C93FF1F8CF90000D0F900001E
:102D100087611886CC87FF1FB0F90000940301007B
:102D2000D4F900009C94FF1F5087FF1FA24B2DE990
:102D3000F0411B68A14CA24D40F2513108222160A4
:102D4000E271286D002B40F0E48007F03DFF6969D7
:102D5000064607F08DFF9B49994F07F089FF08F061
:102D600073F980B203126372974A984B12681B681A
:102D7000A969A37215121B12E37222732072657384
:102D8000304607F075FF8F498C4E07F071FF08F051
:102D90005BF983B21A1231468D48A373E27303F0D4
:102DA0001FFC8C4B8C4A1B681288A272DDB205EBAB
:102DB0008501257203EB8305490045F3D71540F2E1
:102DC000553E12124FF008081B12217365733146ED
:102DD00000257F48C4F800E0E2726372A573E573D2
:102DE00084F8078003F0FCFB40F256337B482360F5
:102DF00084F80780FDF702FF794907F039FF08F0F2
:102E000023F920727548FDF7F9FE754907F030FF88
:102E100008F01AF9734A7249C0F307236372106805
:102E200007F0DAFF08F0EAF840FA08F203466B48C8
:102E3000E272A372FDF712FF624907F019FF08F072
:102E400003F920736548FDF709FF5E4907F010FF9D
:102E500008F0FAF83146C0F307235D486373A573A1
:102E6000E57303F0BDFB022004F09CFD5E4B25736F
:102E70001A7859786573A573E57322729D78DA78AC
:102E8000617240F25A3331465148A572E2722360B2
:102E900084F8078003F0A4FB544B4D481A78597806
:102EA000227261729A78D978A272E1721A7959798C
:102EB0009D7922736173DA79E27340F25E333146B1
:102EC0002360A57384F8078003F08AFB022004F0D6
:102ED00069FD474B3E481A785978227261729A7898
:102EE000D978A272E1721A7959799D792273617346
:102EF000DA7984F807804FF45C7331462360A57358
:102F0000E27303F06DFB3B4B1B68012B06D0BDE861
:102F1000F08107F059FE296A06461AE72F48FDF7A7
:102F20001FFEF96C07F09CFD05462C48FDF740FE9E
:102F30000146284608F03AF80028E8D040F2C333AA
:102F4000264886F807803360FDF70AFEBD6C2946E7
:102F500008F02CF8D0B12849284607F089FE08F07F
:102F600073F880B240FA08F37072337200230126BE
:102F700004250322A672E57222736373A373E373BD
:102F80000E491348BDE8F04103F02ABB1348FDF792
:102F9000E7FD194907F06CFE08F056F8C0F3072367
:102FA0000E483372FDF7DCFD134907F061FE08F0AF
:102FB0004BF87072DAE700BF7492FF1FD094FF1FC6
:102FC0003C93FF1F00002041B094FF1F5892FF1F49
:102FD00004B5FF1F3487FF1F3887FF1FEC94FF1FC6
:102FE0000000C8428092FF1F3893FF1F2C87FF1FED
:102FF0005487FF1FC094FF1F00007A44F0B59C4C1B
:103000009C4D83B005F08AFF23682860042B00F0F4
:10301000AC82022B4BD0082B00F09280072B40F0A3
:103020005181332801F0F28300F3AD80312801F0A3
:103030000084322840F0B08005F0ACFF002840F357
:103040003F818D488D4E06F0F9FB07F0BDFD8C49A0
:1030500007F00EFE61230122F06322602B60184608
:10306000A0F152031F2B01F2AF83DFE813F02E0B08
:10307000AD0BAD0BAD0BAD0BAD0BAD0BAD0BAD0B90
:10308000AD0BAD0BAD0BAD0BAD0BAD0BB203CB0C64
:103090003905A7057304AD0BAD0BAD0B2604AD0BC5
:1030A000CE0CAD0BAD0BAD0BAD0BAD0B300BA0F1E2
:1030B0003102422A70D8DFE812F0F006FC060A0757
:1030C00017072A0739076F006F006F006F006F0046
:1030D0006F006F006F006F006F006F006F006F0078
:1030E0006F006F006F006F006F006F006F006F0068
:1030F0006F006F006F006F006F006F006F006F0058
:103100006F006F006F006F006F006F006F006F0047
:103110006F006F006F006F006F006F006F00DD06C3
:103120006F006F006F006F006F006F006F006F0027
:103130006F006F006F006F006F006B006F00E306A1
:10314000322800F02F83712822D0312824D105F0B5
:1031500021FF002840F3CF854748484E06F06EFB1C
:10316000C0B286F84000022894BF01460021726C6C
:10317000444888BF86F84010FDF744FD01236920CC
:10318000236028606CE7342801F02E83712803D176
:103190000023732023602860002B08BF73280CBF16
:1031A00001200020002860D0334806F0B3F9042144
:1031B000354805F019FF304806F0ACF910213348C6
:1031C00005F012FF2C4806F0A5F91321304805F050
:1031D0000BFF304B2848196806F0ECF9264806F03A
:1031E00099F914212C4805F0FFFE234806F092F9C6
:1031F0001E212A4805F0F8FE1F4806F08BF915211C
:10320000274805F0F1FE1C4806F084F91E212548E8
:1032100005F0EAFE184806F07DF92021224805F065
:10322000E3FE154806F076F91921204805F0DCFE8A
:10323000114806F06FF912211D4805F0D5FE0E4821
:1032400006F068F90F211B4805F0CEFE0A4806F08B
:1032500061F90D21184805F0C7FE074806F05AF934
:10326000164A002101231160236003B0F0BD00BFA6
:103270009092FF1F7C92FF1FCC87FF1F3C93FF1F84
:103280006F12833AEC94FF1F100201001802010034
:103290002C0201002487FF1F400201005802010098
:1032A0007802010090020100B0020100D402010086
:1032B000F002010004030100140301003C87FF1F1A
:1032C00023682868062B40F08D80A0F13102402A47
:1032D0003FF662AF01A151F822F000BF013D0000AE
:1032E0002D3D0000593D00007F3D0000A53D000040
:1032F000C33D0000613E000099310000993100009B
:103300009931000099310000993100009931000095
:103310009931000099310000993100009931000085
:103320009931000099310000993100009931000075
:103330009931000099310000993100009931000065
:103340009931000099310000993100009931000055
:103350009931000099310000993100009931000045
:103360009931000099310000993100009931000035
:103370009931000099310000993100009931000025
:103380009931000099310000993100009931000015
:103390009931000099310000993100009931000005
:1033A00099310000993100009931000099310000F5
:1033B00099310000993100009931000099310000E5
:1033C00099310000993100009931000099310000D5
:1033D00099310000993100009931000091310000CD
:1033E00023682868052B15D1332801F0498240F362
:1033F0004781352801F06B82C1F2538271287FF436
:10340000CBAEDC4A00237320136023602860C3E640
:1034100023682868032B40F0A480A0F13002422AE0
:103420003FF6BAAE01A151F822F000BF39350000D5
:10343000D545000083440000AB440000CD440000AB
:10344000EF440000FD450000254600004346000013
:103450006746000099310000993100009931000061
:103460009931000099310000993100009931000034
:103470009931000099310000993100009931000024
:103480009931000099310000993100009931000014
:103490009931000099310000993100009931000004
:1034A00099310000993100009931000099310000F4
:1034B00099310000993100009931000099310000E4
:1034C00099310000993100009931000099310000D4
:1034D00099310000993100009931000099310000C4
:1034E00099310000993100009931000099310000B4
:1034F000174500002F4000008F460000AD46000039
:103500007745000095450000E53F000009400000B8
:103510009931000099310000993100009931000083
:103520009931000099310000993100009931000073
:10353000354500004145000005F02CFD002841F311
:103540004C818D488D4E06F079F9012703460146DE
:1035500062228B48736527602A60FDF751FB236860
:103560002868012B7FF418AE7AE5A0F13102402AD9
:103570003FF612AE01A151F822F000BF473F000014
:103580005F3F0000633F0000893F0000C93F00002B
:103590008D3F00009F3F0000A33F0000A73F0000B9
:1035A00099310000993100009931000099310000F3
:1035B00099310000993100009931000099310000E3
:1035C00099310000993100009931000099310000D3
:1035D00099310000993100009931000099310000C3
:1035E00099310000993100009931000099310000B3
:1035F00099310000993100009931000099310000A3
:103600009931000099310000993100009931000092
:103610009931000099310000993100009931000082
:103620009931000099310000993100009931000072
:103630009931000099310000993100009931000062
:103640009931000099310000993100009931000052
:103650009931000099310000993100009931000042
:103660009931000099310000993100009931000032
:10367000993100009931000099310000913100002A
:10368000312801F0EC8032287FF486AD05F082FC11
:1036900000287FF7BDAE3848384E06F0CFF801223B
:1036A0006B23C6F8980022602B6001E005F036FC21
:1036B00005F070FC0028F9D12F4805F02BFF2E48AB
:1036C00005F028FF2C4805F025FF2B4805F022FFC8
:1036D000294805F01FFF21212A4805F085FC2648CE
:1036E00005F018FF1521284805F07EFCD6F890104B
:1036F000214805F05FFF0221244805F075FC1E48B3
:1037000005F008FF1E21224805F06EFCD6F898103F
:10371000194805F04FFF03211E4805F065FC1648C7
:1037200005F0F8FE1E211C4805F05EFCD6F894104A
:10373000114805F03FFF104805F0ECFE1D21174829
:1037400005F052FCD6F8A0100B4805F033FF0A48EC
:1037500005F0E0FE1E21124805F046FCD6F8A41044
:10376000054805F027FF044805F0D4FE0523236033
:103770007BE500BF9494FF1FCC87FF1F3C93FF1F86
:10378000EC94FF1F84FC0000A8FC000094FB0000E8
:10379000C0FC0000B8F80000E0FC000000FD0000E4
:1037A00020FD000005F0F6FB002840F3A082B2489F
:1037B000B24E06F043F807F007FAB14907F058FA9D
:1037C0000346024696F84010AE487364D4E405F010
:1037D000A5FB05F0DFFB05460028F8D1A648A74E5B
:1037E00005F098FEA44805F095FEA34805F092FE6A
:1037F000A14805F08FFEA04805F08CFE1F21A248CD
:1038000005F0F2FB9C4805F085FE1C219F4805F061
:10381000EBFB706A9E4907F02BFA06F07FFD0095DE
:1038200002460B46944805F0CFFE0221994805F068
:10383000DBFB914805F06EFE2321974805F0D4FB91
:10384000F06B934907F014FA06F068FD0095024604
:103850000B46894805F0B8FE02218E4805F0C4FBEE
:10386000854805F057FE19218C4805F0BDFBB06B6B
:1038700006F054FD02250B46024600957E4805F0F1
:10388000A3FE2946864805F0AFFB7B4805F042FEC3
:103890001921844805F0A8FBB6F8B410764805F065
:1038A00089FE0321804805F09FFB734805F032FE36
:1038B00007232360D9E405F031FB05F06BFB0546D7
:1038C0000028F8D16C486D4E05F024FE6A4805F0DA
:1038D00021FE694805F01EFE674805F01BFE66489C
:1038E00005F018FE1521714805F07EFB624805F0D1
:1038F00011FE18216E4805F077FB2B460A2296F838
:1039000040105D4805F016FE5B4805F003FE2821D7
:10391000684805F069FB706C5D4907F0A9F906F08D
:10392000FDFC00950B460246534805F04DFE022172
:10393000584805F059FB504805F0ECFD13215E484E
:1039400005F052FB4C4805F0E5FD082323608CE4AC
:1039500005F0E4FA05F01EFB05460028F8D14648BC
:10396000464E05F0D7FD444805F0D4FD424805F029
:10397000D1FD414805F0CEFD3F4805F0CBFD1121BA
:103980004E4805F031FB3C4805F0C4FD28214C4869
:1039900005F02AFB70693E4907F06AF906F0BEFCA3
:1039A000009502460B46344805F00EFE02213948C8
:1039B00005F01AFB304805F0ADFD1621414805F031
:1039C00013FBF069324907F053F906F0A7FC0095A4
:1039D0000B460246284805F0F7FD02212D4805F068
:1039E00003FB254805F096FDD6F8AC30002B32DD00
:1039F0001D21354805F0F8FAF06D07F0E5F8334978
:103A000007F036F906F08AFC022502460B460095BF
:103A1000194805F0D9FD01212D4805F0E5FA1648B1
:103A200005F078FD1F212B4805F0DEFA306E07F017
:103A3000CBF8264907F01CF906F070FC0095024609
:103A40000B460D4805F0C0FD0121214805F0CCFAD8
:103A5000094805F05FFD11211F4805F0C5FAD6F8A9
:103A6000AC30052B00F26086DFE813F095069A066D
:103A70005A06A906A4069F06CC87FF1F3C93FF1F8A
:103A80006F12833AEC94FF1FE0FB000000FC000083
:103A900000007A446CFA000020FC000044FC0000A6
:103AA00060FC000064FC000080FC0000D802010003
:103AB00024FA000040FA000070FA00007C020100C5
:103AC00084FA0000B0FA0000C8FA0000CDCCCC3D6A
:103AD00064FF0000E8FA000008FB000005F01EFA91
:103AE00005F058FA0028F9D1BF48C04E05F012FD84
:103AF000BD4805F00FFDBC4805F00CFDBA4805F0C7
:103B000009FDB94805F006FD1F21B94805F06CFA1A
:103B1000B54805F0FFFC1E21B64805F065FAB2482D
:103B200005F0F8FC1A21B44805F05EFAF36F022B99
:103B300000F03787032B00F02B87012B00F03A872A
:103B40000921AE4805F050FAA74805F0E3FC14211E
:103B5000AB48A64F05F048FAB16FA34805F02AFD1F
:103B6000A14805F0D7FC1C21A64805F03DFAD6F87F
:103B700080109D4805F01EFD9B4805F0CBFC1C21E4
:103B8000A14805F031FAD6F8A810974805F012FDC3
:103B9000954805F0BFFCF56F25F00205012D00F0FA
:103BA000B1861321994805F01FFA8F4805F0B2FC41
:103BB00002232360FFF759BB05F0B0F905F0EAF9DD
:103BC0000028F9D1884805F0A5FC874805F0A2FC3B
:103BD000854805F09FFC844805F09CFC824805F070
:103BE00099FC13218A4805F0FFF97F4805F092FC03
:103BF0000D21884805F0F8F97B4805F08BFC0F2172
:103C0000854805F0F1F9854B7748196805F0D2FC35
:103C1000754805F07FFC1321814805F0E5F9814BDB
:103C20007148196805F0C6FC6F4805F073FC122155
:103C30007D4805F0D9F97D4B6B48196805F0BAFC51
:103C4000694805F067FC1121794805F0CDF9794BF9
:103C50006548196805F0AEFC634805F05BFC0E2171
:103C6000754805F0C1F9614B5F48D3F89C1005F029
:103C7000A1FC5D4805F04EFC1921704805F0B4F92F
:103C80006F4B5948196805F095FC574805F042FC00
:103C900011216C4805F0A8F96B4B5348196805F0E1
:103CA00089FC514805F036FC1021684805F09CF964
:103CB000674B4D48196805F07DFC4B4805F02AFC20
:103CC0001C21644805F090F9634B4748196805F0DA
:103CD00071FC454805F01EFC13214C4805F084F9A1
:103CE000414805F017FC04232360FFF7BEBA2368A0
:103CF0002868FFF793B93D4E96F84000FFF733BAB6
:103D000005F048F900287FF76BAB3748374E05F0D0
:103D100095FD06F059FF514907F05EF86523012231
:103D2000706122602B601846FFF79AB905F032F9EE
:103D300000287FF755AB2C482C4E05F07FFD06F090
:103D400043FF464907F048F865230122F0612260ED
:103D50002B601846FFF784B905F01CF900287FF79F
:103D60003FAB2148214E05F069FD00EB8000430088
:103D700001226520F36522602860FFF771B905F024
:103D800009F900287FF72CAB1748184E05F056FDAF
:103D900000EB80004300012265203366226028602A
:103DA000FFF75EB9114AD2F8AC300133052BC8BF1A
:103DB0000023C2F8AC300123652023602860FFF7A0
:103DC0004FB905F0E7F800287FF70AAB0648074E21
:103DD00005F034FD65230122C6F8B00022602B6097
:103DE0001846FFF73DB900BFCC87FF1F3C93FF1F6C
:103DF00024FE000044FE000064FE0000DCFE000023
:103E0000E8FE000000FF000020FF000070FA000044
:103E100040FD000054FD000064FD00007494FF1F8D
:103E200074FD0000E494FF1F88FD0000C894FF1F8C
:103E30009CFD0000CC94FF1FB0FD0000C0FD000001
:103E40009894FF1FDCFD00009494FF1FF0FD00001C
:103E50007892FF1F04FE00005C87FF1F00007A4479
:103E60007A4B93F8BC20002A00F03F85002283F8AB
:103E7000BC20A0E7FEF798FE23682868FFF7CBB8C0
:103E8000724AD36F0133032BC8BF0023D3670123CA
:103E9000632023602860FFF7E3B86C4EB36FB3FA7A
:103EA00083F35B0901226320B36722602860FFF778
:103EB000D7B8664ED6F88030B3FA83F35B09012297
:103EC0006320C6F8803022602860FFF7C9B801235C
:103ED000236005F05FF80028D9DD5D485B4E05F0F2
:103EE000ADFCC6F8A800D2E70123236005F052F824
:103EF000002807DD5648554E05F0A0FC06F064FE8C
:103F0000C6F88C00632028602368FFF787B8012378
:103F1000236005F03FF80028F4DD4D484B4E05F0D6
:103F20008DFC06F051FEC6F88800EBE70123236004
:103F300005F030F80028E5DD4548444E05F07EFCEC
:103F4000A6F8B600DEE7434A1368B3FA83F35B09C9
:103F500001216420136021602860FFF781B83E4A88
:103F6000F2E73E4A3E4F1368002B0CBF01230023AB
:103F70004FF001001360206040F0F4840346642297
:103F80002A606420FFF747B8364ADDE70123364848
:103F90002360FCF749FD354A23681060EFE7344A97
:103FA000D2E7344AD0E70123236004F0F3FF00286E
:103FB00000F3A084304B1A68042AC4BF02221A609E
:103FC00064232B602368DCE7204ED6F89C30B3FADC
:103FD00083F35B0901226420C6F89C3022602860CC
:103FE000FFF73EB804F0D6FF00280DDD1848174E45
:103FF00005F024FC06F0E8FD204906F0EDFE012264
:104000006223306222602B6004F0C4FF00280EDDC2
:104010000F480E4E05F012FC06F0D6FD174906F0CB
:10402000DBFE01226223C6F8B80022602B6004F098
:10403000B1FF002840F3D1830548044E05F0FEFB94
:1040400001226223B06622602B601BE03C93FF1FBD
:10405000CC87FF1F7494FF1FE494FF1FC894FF1FB9
:104060009092FF1FCC94FF1FEC94FF1F9894FF1FAA
:104070009494FF1F7892FF1F5C87FF1F00007A4413
:1040800004F04CFF04F086FF05460028F8D1C24832
:1040900005F040FAC04805F03DFABF4805F03AFA8D
:1040A000BD4805F037FABC4805F034FA1521BB4885
:1040B00004F09AFFB84805F02DFA1421B84804F02E
:1040C00093FFB54805F026FA1B21B64804F08CFF93
:1040D000B14805F01FFA1321B34804F085FFAE483C
:1040E00005F018FAAC4805F015FAAB4805F012FADD
:1040F0002021AE4804F078FFF068AD4906F0B8FD25
:1041000006F00CF9009502460B46A34805F05CFA50
:104110000221A84804F068FF0221A74804F064FFC8
:104120009D4805F0F7F92121A44804F05DFF3069AE
:104130009F4906F09DFD06F0F1F8009502460B46FA
:10414000954805F041FA02219A4804F04DFF0221FA
:10415000994804F049FF904805F0DCF91F21984880
:1041600004F042FFB06A06F0D9F8022702460B4677
:104170000097894805F028FA0121924804F034FF9D
:1041800039468D4804F030FF834805F0C3F92021FB
:104190008D4804F029FFF06A06F0C0F80097024647
:1041A0000B467D4805F010FA0121864804F01CFFFB
:1041B0003946814804F018FF774805F0ABF9232110
:1041C000824804F011FFB06C794906F051FD06F009
:1041D000A5F8009502460B466F4805F0F5F93946FB
:1041E000744804F001FF3946734804F0FDFE6A4844
:1041F00005F090F91F21764804F0F6FEF06C6C494A
:1042000006F036FD06F08AF8009502460B46624835
:1042100005F0DAF93946674804F0E6FE39466648A3
:1042200004F0E2FE5C4805F075F91921694804F0D4
:10423000DBFEB16D584805F0BDF93946664804F01B
:10424000D3FE39465C4804F0CFFE534805F062F9CE
:104250001821624804F0C8FE706E06F0B5FC604993
:1042600006F006FD06F05AF8009702460B464A484B
:1042700005F0AAF901215B4804F0B6FE39464E4824
:1042800004F0B2FE444805F045F92B21564804F0ED
:10429000ABFEB069464906F0EBFC06F03FF800952E
:1042A00002460B463C4805F08FF93946414804F078
:1042B0009BFE3946404804F097FE374805F02AF93E
:1042C0001F214A4804F090FE716D334805F072F9E1
:1042D0003946394804F088FE2F4805F01BF92021A3
:1042E000434804F081FE316D2B4805F063F93946EF
:1042F000314804F079FE284805F00CF910213D48BA
:1043000004F072FEB16E244805F054F9394629488C
:1043100004F06AFE3946284804F066FE1E4805F09F
:10432000F9F81321344804F05FFEF16E1A4805F0E5
:1043300041F90121314804F057FE39461E4804F086
:1043400053FE154805F0E6F810212D4804F04CFE08
:10435000316F114805F02EF93946164804F044FE35
:104360003946154804F040FE0B4805F0D3F81421F7
:10437000244804F039FE716F074805F01BF901214C
:104380001E4804F031FE39460B4804F02DFE024869
:1043900005F0C0F8162137E0CC87FF1FACFF000006
:1043A000C4FF0000DCFF000070FA0000F8FF00000E
:1043B00000007A446CFA0000940301001C00010024
:1043C000400001006000010064000100880001005D
:1043D000AC000100CC000100E8000100EC0001008D
:1043E000CDCCCC3D64FF0000080101003401010088
:1043F00054010100780101008C010100A0010100BD
:10440000A4010100B8010100BA4804F0EDFD306AD2
:10441000B94906F02DFC05F081FF009502460B46D8
:10442000B64805F0D1F83946B54804F0DDFD394607
:10443000B44804F0D9FDB14805F06CF82421B24825
:1044400004F0D2FDD6F8B800AB4906F011FC05F037
:1044500065FF00950B460246A84805F0B5F83946B9
:10446000A74804F0C1FD3946A64804F0BDFDA348A5
:1044700005F050F8A14805F04DF803232360FEF73E
:10448000F4BE04F087FD002840F3A7819B489F4EAF
:1044900005F0D4F906F098FB974906F09DFC01223F
:1044A0006223306122602B60ECE504F073FD00288C
:1044B00040F393819148954E05F0C0F906F084FBD6
:1044C00001226223B06222602B60DBE504F062FD12
:1044D000002840F3828189488C4E05F0AFF906F040
:1044E00073FB01226223F06222602B60CAE504F0B4
:1044F00051FD002840F371818048844E05F09EF9FB
:1045000006F062FB7C4906F067FC01226223B0647E
:1045100022602B60B6E504F03DFD002840F35D818C
:1045200076487A4E05F08AF90122622330652260CE
:104530002B60A7E50022732322602B60FEF734BEB8
:10454000734B7048714E002202211A6004F04CFD3A
:104550006A4804F0DFFF0B216E4804F045FD02219C
:10456000684804F041FD654804F0D4FF012262234D
:1045700022602B6086E504F00DFD002840F32D81BC
:104580005E48624E05F05AF901226223706722608C
:104590002B6077E5FCF7B8FF02215A485B4E04F028
:1045A00023FD564804F0B6FF0221564804F01CFDD6
:1045B000524804F0AFFF0221524804F015FD4F4865
:1045C00004F0A8FF1721544804F00EFD4B4804F0F6
:1045D000A1FFC4E704F0DEFC002840F3FE8047485A
:1045E0004A4E05F02BF906F0EFFA434906F0F4FBCA
:1045F00001226223F06022602B6043E504F0CAFCD4
:10460000002840F3EA803D48404E05F017F906F0D7
:10461000DBFA394906F0E0FB01226223F0642260F4
:104620002B602FE504F0B6FC002840F3D680334819
:10463000364E05F003F901226223B06522602B603B
:1046400020E504F0A7FC002840F3C7802B482F4E3C
:1046500005F0F4F800EB800043000121622273664C
:1046600021602A600EE504F095FC002840F3B58037
:104670002248264E05F0E2F806F0A6FA1E4906F09A
:10468000ABFB01226223B06122602B60FAE404F0EC
:1046900081FC002840F3A18018481C4E05F0CEF89C
:1046A00001226223F06622602B60EBE404F072FCCE
:1046B000002840F392801148144E05F0BFF8012203
:1046C0006223306722602B60DCE403F057FFC022D6
:1046D00000210E4802F05EFE2868104AA0F1730027
:1046E00001210023B0FA80F0400911602360FEF739
:1046F00059BD00BFD001010000007A44CC87FF1FE4
:104700006CFA000094030100E80101003C93FF1FD4
:104710006C92FF1F18FA000000FA00003C87FF1F90
:104720000C21BB4804F060FCBA48BB4D04F0F2FE1B
:10473000D6F8AC30002B12DD1821B84804F054FC38
:10474000D5F8B010B34804F035FF0221B44804F0A6
:104750004BFCB04804F0DEFEAE4804F0DBFE1B214B
:10476000B04804F041FC96F8BC30012B15BF122173
:104770001421AD48AD4804F037FCA64804F0CAFE49
:104780001321AB4804F030FCA24804F0C3FE06231A
:104790002360FEF76ABD0D21A64804F025FCC3E79F
:1047A0000C21A54804F020FCBEE70B21A34804F02F
:1047B0001BFCB9E70D21A24804F016FCB4E70D215B
:1047C000A04804F011FCAFE72368002B08BF732852
:1047D0000CBF01200020FEF7E5BC23682868012BF0
:1047E0007EF4DAACFEF73CBC04F0D4FB00287EF784
:1047F00067AD8848884E05F021F861230122A6F8AC
:10480000B40022602B601846FEF72ABC04F0C2FBFD
:1048100000287EF755AD7F487F4E05F00FF806F073
:10482000D3F961230122B06322602B601846FEF7A2
:1048300017BC04F0AFFB00287EF742AD7548764EFA
:1048400004F0FCFF06F0C0F97F4906F011FA61237D
:104850000122706222602B601846FEF701BC04F052
:1048600099FB00287EF7D4AD6A486B4E04F0E6FF52
:1048700001226B23C6F8900022602B60FEF718BF60
:1048800004F088FB00287EF7C3AD6248624E04F056
:10489000D5FF01226B23C6F8940022602B60FEF73F
:1048A00007BF04F077FB00287EF7B2AD59485A4E97
:1048B00004F0C4FF654BC6F8A00002221A60FDF7A1
:1048C00063F901226B2322602B60FEF7F1BE04F036
:1048D00061FB00287EF79CAD4E484F4E04F0AEFFC2
:1048E0005A4BC6F8A4000322E8E7012283F8BC2053
:1048F000FFF761BA474804F0A1FF554B0246186024
:10490000FFF75ABB1C21534804F06EFBD7F88C000C
:10491000514906F0ADF905F001FD009502460B4640
:104920003C4804F051FE05214C4804F05DFB394839
:1049300004F0F0FDFD6F012D45D0032D7FF431A96A
:104940001C21474804F050FBB6F8B610314804F07B
:1049500031FE0321434804F047FB2E4804F0DAFD02
:10496000FFF71FB9404B002631460B201E6002F0B6
:10497000DDFF31460C2002F0D9FF3146142002F051
:10498000D5FF3146152002F0D1FF3B68FFF7F7BA9B
:104990002021364804F028FB1E4804F0BBFDFFF739
:1049A000D6B81721324804F01FFB1A4804F0B2FDB4
:1049B000FFF7CDB81E212F4804F016FB154804F070
:1049C000A9FDFFF7C4B81D212B4804F00DFBD7F853
:1049D0008800214906F04CF905F0A0FC00950B4633
:1049E00002460C4804F0F0FD05211C4804F0FCFAD6
:1049F000084804F08FFDFB6F23F00203012B9FD0CA
:104A0000FFF7CFB8044EFFF73DBB034EFEF750BE95
:104A10003CFB0000CC87FF1F3C93FF1F78FB00008E
:104A200094FB000098FB0000B4FB0000C8FB0000F2
:104A300070FA00001CFB00002CFB00006CFB000067
:104A40005CFB00004CFB00006F12833A9494FF1F44
:104A50005C87FF1F40FF0000CDCCCC3D60FF000015
:104A600088FF0000A8FF0000E094FF1FA0FE0000E8
:104A7000C4FE000080FE000068FF000038B5164C40
:104A8000164A2368101D12F8011F904241EA0323C1
:104A9000F9D12360124C03F100432360114BDB6F0B
:104AA000022B11D0104B1B68012B00D038BD0F48D2
:104AB00004F030FD21680D4804F07CFD03210C4812
:104AC000BDE8384004F090BA20680A4D06F07CF842
:104AD0002860FDF7E3FAE5E75092FF1F8B94FF1F74
:104AE000AC94FF1F3C93FF1F7494FF1FCC87FF1FE4
:104AF000240301007092FF1F30B53C4C3C4883B04A
:104B0000214601F065FC236840F2C232934252D044
:104B1000A3F58C621F2A48D9A3F5FC630F2B3FD95C
:104B2000344B1B68012B01D003B030BD324B1B68E6
:104B3000012BF9D1314B32481B6801930A22002323
:104B4000019904F0F7FC2268284B002ADB7945DB49
:104B50002C492D4807F054F82B4807F091F80146EE
:104B6000294804F041FA2568204B15F0804526D1EC
:104B7000DB798BB1631925491A7A234807F040F88D
:104B8000214807F07DF801461F4804F02DFA013551
:104B9000E379EDB2AB42EDD8194804F0BBFCC3E7B2
:104BA00012491B48FBF76AFFBAE710491848FBF7A0
:104BB00065FF2368B0E7FFF761FF2368A8E7154D9D
:104BC000114C0FCD0FC495E8030044F8040B2046A8
:104BD00020F81419152104F007FADDE70E490A48F8
:104BE00022F0604207F00CF8B6E700BF8494FF1F84
:104BF00004B5FF1F3C87FF1F7494FF1FACB6FF1F57
:104C0000CC87FF1F500301009492FF1F7C0301001B
:104C1000EC94FF1F64030100280301002DE9F84F05
:104C20009A4B9B4C1B78052B08D09A48FCF716F83A
:104C3000E16A06F0BBF9002800F09380964E974D8C
:104C4000002333602B60964B92481B68904F012BDA
:104C500045D0FBF7ADFFE1698046606905F0FEFED7
:104C60000146404606F0C0F900284CD18948FBF7C0
:104C70009FFFE16806F0B8F908B100232B60854872
:104C8000834FFBF76DFF216906F090F958B10023BF
:104C900033602B68814A002B01DBBDE8F88F0023CD
:104CA0001360BDE8F88F7B48FBF75AFFB96906F03F
:104CB0007DF90028EBD17748FBF752FFD7F8B81001
:104CC0000446B86905F0CCFE0146204606F08CF992
:104CD000002873D0786E30600028D8DBD9E7FBF766
:104CE00067FFE1698046206A05F0B8FE014640464C
:104CF00006F07AF90028B9D06648FBF759FFD7F8D3
:104D00002090834605E06348FBF752FFD7F81490E4
:104D10008346F969484605F0A1FE8246F86D05F024
:104D200053FF8046386E05F04FFF414605F096FE72
:104D300051460746584605F091FE0146384605F0B3
:104D400097FF51460746484605F088FE014638461B
:104D500006F042F8414605F083FE06F04FF9286060
:104D600084E74C48FBF77AFF216B06F01FF9002817
:104D700049D0494E636E47483360FBF76FFF814669
:104D8000E06DE76A454D05F01FFF3946804648460D
:104D900005F064FE0146404605F06AFF394680464C
:104DA000206B05F05BFE0146404606F015F8002139
:104DB00005F056FE06F022F9286044E73548FBF777
:104DC000CFFE8146F86DBC6905F0FEFE21468046A7
:104DD000484605F043FE0146404605F049FFD7F836
:104DE000B8108046204605F03BFE214605F036FE11
:104DF0000146404605F0F0FF002105F031FE06F0C7
:104E0000FDF8306068E72348FBF728FF616B06F088
:104E1000CDF830B1204E214D626EE36D32602B60D3
:104E200011E71C48FBF71AFFA16A06F0BFF800283B
:104E30003FF404AF1748184E184DFBF70FFF81469B
:104E4000606ED4F8348005F0BFFE41460746484600
:104E500005F004FE39468146002005F0FFFD0146BD
:104E6000484605F005FF41468146A06A05F0F6FD7B
:104E70000146484605F0B0FF394605F0F1FD06F061
:104E8000BDF8E36D30602B60DDE600BFA494FF1F2A
:104E90003C93FF1FEC94FF1FB094FF1F5892FF1F1D
:104EA0007492FF1F08B5274804F034FB07212648F9
:104EB00004F09AF8112002F03FFD0621F8B12348D2
:104EC00004F092F8122002F037FD062100B32048CA
:104ED00004F08AF8122002F02FFD062108B31D48C5
:104EE00004F082F8132002F027FD062110BB1A48B7
:104EF00004F07AF81348BDE8084004F00BBB1748EB
:104F000004F072F8122002F017FD06210028DED10D
:104F1000134804F069F8122002F00EFD0621002863
:104F2000DDD1104804F060F8132002F005FD0621E1
:104F30000028DCD00C4804F057F80248BDE80840CF
:104F400004F0E8BACC87FF1F88030100900301003A
:104F5000A0030100B0030100C80301009803010091
:104F6000A8030100B8030100C003010010B5254CDF
:104F70002368042B27DC01210B2002F0D7FC012140
:104F80000C2002F0D3FC0121142002F0CFFC0121FF
:104F9000152002F0CBFCFF21162002F047FBFF2179
:104FA000172002F043FBFF21052002F03FFBFF2109
:104FB000062002F03BFB236801330A2B2360C4BFA9
:104FC0000023236010BD00210B2002F0AFFC002164
:104FD0000C2002F0ABFC0021142002F0A7FC002101
:104FE000152002F0A3FC0021162002F01FFB002177
:104FF000172002F01BFB0021052002F017FB002107
:10500000D6E700BFC494FF1F10B5092182B09748AE
:1050100002F0A6FF222002F04BFF954B1B78052BD8
:105020000BD8DFE813F00A010F01140119011E016A
:10503000060007218F4802F093FF222002F038FF7C
:10504000FF2002F035FFFF2002F032FF8A4CFF20E4
:1050500002F02EFF0821894802F082FF216888486B
:1050600004F0A8FAFF2002F023FFFF2002F020FF47
:10507000FF2002F01DFF0921824802F071FF216824
:105080007F4804F097FAFF2002F012FFFF2002F0A1
:105090000FFFFF2002F00CFF0C217B4802F060FFA5
:1050A0007A4B1C680021204605F09EFF002800F086
:1050B000C1802046764905F08FFE05F02FF90024C7
:1050C00002460B4600946E4804F07EFAFF2002F080
:1050D000EFFEFF2002F0ECFEFF2002F0E9FE0921C6
:1050E0006C4802F03DFF6C48FBF7B8FD05F016F97F
:1050F000009402460B46624804F066FAFF2002F074
:10510000D7FEFF2002F0D4FEFF2002F0D1FE0C21DA
:10511000624802F025FF6048FBF700FE05F0FEF84C
:10512000009402460B46564804F04EFAFF2002F067
:10513000BFFEFF2002F0BCFEFF2002F0B9FE0D21F1
:10514000574802F00DFF5448FBF7E6FD05F0E6F87E
:10515000009402460B464A4804F036FAFF2002F05B
:10516000A7FEFF2002F0A4FEFF2002F0A1FE09210D
:105170004C4802F0F5FE4848FBF740FD05F0CEF83C
:10518000009402460B463E4804F01EFAFF2002F04F
:105190008FFEFF2002F08CFEFF2002F089FE0C2122
:1051A000414802F0DDFE3C48FBF7DAFC384905F0E7
:1051B0005FFD05F0B3F8009402460B46304804F05A
:1051C00003FAFF2002F074FEFF2002F071FEFF20C0
:1051D00002F06EFE0D21354802F0C2FE2E48FBF7AC
:1051E000E7FC2B4905F044FD05F098F800940246D1
:1051F0000B46234804F0E8F9FF2002F059FEFF2097
:1052000002F056FEFF2002F053FE0921284802F06A
:10521000A7FE284B1A48196804F0CCF9FF2002F0C9
:1052200047FEFF2002F044FEFF2002B0BDE8104020
:1052300002F03EBE04F100403CE706211E4802F0A9
:105240008FFEFAE607211D4802F08AFEF5E60721E7
:105250001B4802F085FEF0E608211A4802F080FEA5
:10526000EBE60B21184802F07BFEE6E6D0030100D6
:10527000A494FF1F54F800003487FF1FDC030100D3
:10528000BC87FF1FE8030100F40301008092FF1FA9
:1052900000007A4404040100EC94FF1F1004010094
:1052A00020040100300401003C0401004C04010012
:1052B0005C0401002487FF1F24F800002CF8000084
:1052C00040F8000048F8000034F800002DE9F041F3
:1052D0008D4DD5F8AC30042B3ED0032B6ED0012B76
:1052E00000F09880022B01D0BDE8F081874C8848FF
:1052F000237240F20E32012321462260E37101F055
:105300006FF9844B1B685B00FF2BC8BFFF23042190
:1053100040224FF441702060E17122726372286D67
:1053200005F052FC696905F0A3FC7B49054605F0D0
:105330005BFE002800F0DE802946284605F090FB41
:1053400005F082FE80B20312E072A3726F497048CA
:10535000BDE8F04101F044B96C4C704AA379226079
:1053600043F001030822E271A371286D05F02CFCC3
:10537000696905F07DFC6A4905F07AFC05F064FE78
:10538000644B684A1B68126893FBF2F380B20026F4
:105390001A120712607221465D48E372A2722772E8
:1053A00026736673A673E67301F01AF9A279D5F82D
:1053B000AC3066F30002032BA27190D1534C286DE0
:1053C000A3720122E823072140F2FF2622726372B2
:1053D0002660E17105F0F8FB696905F049FC504968
:1053E00005F046FC05F030FE4A4B4E4A1B68126839
:1053F00093FBF2F382B21E121712214644486373E4
:10540000E2722773A67301F0EBF8D5F8AC30012BEC
:105410007FF468AF444B3D4C1B6823600722802318
:105420001020E271237202F087FA002869D13F4B05
:105430001B68DFF8E0803B4F286D344E03EB83039D
:105440005B001A12A3726272D8F800303A6893FBBC
:10545000F2F31A126273A37305F0B6FB696905F0E3
:1054600007FC334B196805F0F9FA2D4905F000FCEB
:1054700005F0EAFD80B20312314620732448E3723E
:1054800001F0AEF8022002F08DFA2A4B1B6823606F
:10549000072280231020E271237202F04DFA70BBC4
:1054A000224B1B68286D03EB83035B001A12727298
:1054B000B37205F089FB696905F0DAFB1E4B1968C8
:1054C00005F0CCFA164905F0D3FB05F0BDFD82B21C
:1054D00016123868D8F80030227393FBF0F30B49AA
:1054E0000B48A3731A12E672627301F079F8D5F8CB
:1054F000AC30F7E601229023A272E37226E70F4B4D
:10550000CFE70E4B94E700BF3C93FF1FD094FF1FE3
:1055100004B5FF1F5892FF1F00004843F4E506182A
:10552000000020414C87FF1F6087FF1F4487FF1F3B
:105530000494FF1F6487FF1F8892FF1F4887FF1F87
:105540002DE9F04F93B001E0FFF7D6FAA34800F041
:1055500009FF0028F8D103F01DFD002801DDFDF74B
:105560004DFD9F4E9F4D3368012B13D0FDF734FA4C
:10557000D5F89C40012C00F0AF819B4F3B78052B68
:1055800000F2D780DFE813F08C0154010B01E60034
:10559000D700BA00954C2368954A0993099B116876
:1055A000924F5B1AB3F5FA7F36D82368914E0E936B
:1055B0000E9B316841F288325B1A93421CD82368F3
:1055C0008D4A1093109B1068D5F8B010854C874D0C
:1055D0001B1A8B420DD92B681193D4F89C3011996A
:1055E0001160012B00F0E6817F4B1B78032B00F04C
:1055F000E18113B0BDE8F08F8048FBF7F7F9002890
:1056000000F00282784B1A78052A00F0D0812368D6
:105610000F930F9B3360D2E73B680A930A9B77484E
:105620001360FBF751FAD5F89C30DFF8B881012BF5
:1056300017D07248FBF794FAD8F8101005F0B6FCB2
:10564000002800F0408223686D4A0B930B9B126880
:105650009A420BD964496B4B0520022208701A60EC
:1056600004E0694B1B68002B40F06882674B1B68A5
:10567000002B40F0ED81664F3B68002B40F0DD8150
:10568000644B1B68002B40F0BC813368002B00F09A
:105690009681FFF76BFCFCF7B1FFFFF7BFFAFDF750
:1056A00045FB5D4B5D4E4D484FF400721A60194644
:1056B00000224FF003094FF0020883F8079083F8A7
:1056C00008805A729A7200F08BFF33684B48002BA7
:1056D00040F07881FBF7A8F93060FCF7BFF93B6830
:1056E000012B01D0FFF790FC72B64D4B4AF20261DC
:1056F0004BF2804219801A8062B656E7494B00246B
:10570000214615201C6002F011F92146142002F0F8
:105710000DF921460C2002F009F90B20214602F078
:1057200005F9414B11201C6002F006F9002800F039
:10573000B6812E4C05E03B4B2C4C00221A60FDF745
:10574000F1F8EB6F23F00203012B7FF424AFFCF799
:10575000A5FC20E7334B0022012114201A6002F03F
:10576000E5F82648FBF724FAA96C05F03DFC2F4B21
:10577000002840F07B81186020481A4CFBF718FA8B
:10578000696905F031FC002840F05982122002F0CE
:10579000D3F80028CDD101233B70144CD1E7214B25
:1057A000012411201C6002F0C7F800B93C701220DF
:1057B00002F0C2F80128BCD11048FBF7F9F9E969F9
:1057C0000446686905F04AF90146204605F0EEFBFB
:1057D0000028AED003233B70044CB2E704B5FF1F92
:1057E000C894FF1F3C93FF1FA494FF1FACB6FF1F7C
:1057F0006092FF1F5C92FF1F8492FF1FEC94FF1FBB
:105800005492FF1F0094FF1F6C92FF1F3C87FF1FE5
:105810007892FF1FCC94FF1FD094FF1F9894FF1F16
:105820000C200540BC94FF1FE094FF1FC094FF1F95
:10583000AE4BDFF8D0820024214615201C6002F018
:1058400075F82146142002F071F821460C2002F070
:105850006DF821460B2002F069F8A54BA5481C60A5
:10586000FBF7A6F9A96C05F0BFFB002840F0018109
:10587000A14B00221A60122002F05EF8012800F00D
:1058800039829E4C112002F057F801287FF459AF5D
:10589000236808939A4B089A1A6004233B7050E7D8
:1058A000924B964C4FF0000841461520C3F80080FB
:1058B00002F03CF84146142002F038F841460C2032
:1058C00002F034F841460B2002F030F8884A0123F8
:1058D000C2F800803B7034E7854FDFF85C823B689C
:1058E000112043F004033B6002F026F8D8F80030A2
:1058F000002800F0B5800BB9C8F800407D48814C05
:10590000FBF756F9A96C05F06FFB002840F0828187
:10591000794B00221A60D8F800807648B8F1010F60
:1059200000F06481FBF744F9E968DFF8D88105F0FD
:105930005BFB002800F09B81704C0021142001F0DB
:10594000F5FF22683B6803926D4A0398106003F0EC
:10595000FD036D496D4A3B600120642308601360BC
:105960006448DFF8A081FBF7FBF8296905F01EFB0E
:10597000002800F0068100210B2001F0D7FF2268EB
:105980003B680592624A0599116003F0FE033B6093
:1059900058485C4FFBF7E4F8296905F007FB00283D
:1059A00000F00D8101210C2001F0C0FFC9E60022AA
:1059B0001A702CE6FFF78AFC13B0BDE8F08FFCF7F5
:1059C000E3F868E6FBF730F8336898423FF485AEB9
:1059D0004146504803F008FB4F4803F09BFD1D2152
:1059E0004E4803F001FB41464A4803F0FDFA4A489D
:1059F00003F090FD4A4A4B4B05211170C3F800900B
:105A00006BE6FFF74FFA40E60221424803F0ECFA5A
:105A1000414803F07FFD1921434803F0E5FA0221D4
:105A20003C4803F0E1FA3C4803F074FD3C493D4B2F
:105A30000520042208701A60E9E523680D933B4AAB
:105A4000324B0D991B6812682A48FBF771FB17E669
:105A5000FCF7AEF9364B27481968FBF789F90AE6D7
:105A6000012B7FF44BAFC8F8000047E701221A6012
:105A700082E62048FBF79CF804461E48FBF770F8C6
:105A8000D8F84C1004F0ECFF0146204605F0ACFAC3
:105A900000283FF4EDAE184B01221A60EBE61548E2
:105AA000184CFBF75DF8296905F094FA00283FF4DB
:105AB00040AE1048FBF77CF8E16805F08BFA00284F
:105AC0007FF469AE35E60B48FBF772F8D8F8101092
:105AD00005F06CFA00287FF4B6AD3B680C93B8F87B
