:1000000000800020BD01000035760000ED75000085
:10001000ED750000ED750000ED750000ED75000058
:10002000ED750000ED750000ED75000035760000FF
:1000300035760000ED7500001D940000219500004C
:100040003576000035760000357600003576000004
:1000500035760000357600003576000035760000F4
:1000600035760000357600003576000035760000E4
:1000700035760000357600003576000035760000D4
:1000800035760000357600003576000035760000C4
:1000900035760000357600003576000035760000B4
:1000A00035760000357600003576000035760000A4
:1000B00035760000096A0000156A0000196A000020
:1000C000256A0000296A00002D6A000035760000CC
:1000D0003576000035760000357600003576000074
:1000E0003576000035760000357600003576000064
:1000F000357600002D9C000035760000D18200008E
:10010000357600009D8400003576000035760000CD
:100110003576000035760000357600003576000033
:100120003576000035760000357600003576000023
:100130003576000035760000357600003576000013
:100140003576000035760000357600003576000003
:1001500035760000357600003576000035760000F3
:1001600035760000E986000035760000357600001F
:1001700035760000357600003576000035760000D3
:1001800035760000357600003576000035760000C3
:1001900035760000357600003576000035760000B3
:1001A00035760000357600003576000035760000A3
:1001B000357600003576000035760000564B4CF25F
:1001C000205210B51A804DF628121A8000BF00BFC9
:1001D00007F034FA514B4FF010621A60504A9A609F
:1001E000504ADA60504A136813F4807304D14F49BF
:1001F0000B604FF4A85313604D4B1A78110703D5C9
:100200001A7842F008021A704A4B4B492A221A7097
:100210004A4A4B4B8B4204D252F8040F43F8040B6A
:10022000F8E7484B484900228B4202D243F8042B9E
:10023000FAE74649464A002352F8230041F82300D2
:1002400001336F2BF8D1434B434A802103F8011B44
:100250009342FBD1414B3D4A1A60414B8A221A70AE
:10026000A3F5805324225A70A0221A709A7992071B
:10027000FCD59A79D406FCD43A4A937903F00C035E
:10028000082B384BF9D103221A7140225A719A79FE
:100290009006FCD5334A9179324B4906FBD5324A58
:1002A000324911600221516020221A709A7902F0BD
:1002B0000C020C2AFAD12E4B2E4A1A602E4B2F4AD2
:1002C0001A6000225A60072243F8042C2C4AC3F813
:1002D0000C2D62B607F068FC144B1B68DA0705D5D5
:1002E000284807F045FA284B284A1A60284B1B7803
:1002F0005B0609D5244C254B22689A4204D121483B
:1003000007F036FA002323600AF078FF07F09CF923
:1003100009F04CFBFEE700BF0E2005403080044092
:10032000823F04000100002B10D0034014D0034092
:1003300002D0074000E007402892FF1F340C010064
:100340002087FF1F2892FF1FB4B9FF1F0082FF1FE5
:100350000000000000E400E05FE400E008ED00E0E1
:100360000050064000400640448004400000030165
:1003700004800440C010050014E000E0FF76010096
:10038000000020207C96BF5C1CE00340A5C3945A6B
:1003900000F00740FFFFFFFFFFFFFFFFFFFFFFFF32
:1003A000FFFFFFFFFFFFFFFFFFFFFFFFFFFFFFFF5D
:1003B000FFFFFFFFFFFFFFFFFFFFFFFFFFFFFFFF4D
:1003C000FFFFFFFFFFFFFFFFFFFFFFFFFFFFFFFF3D
:1003D000FFFFFFFFFFFFFFFFFFFFFFFFFFFFFFFF2D
:1003E000FFFFFFFFFFFFFFFFFFFFFFFFFFFFFFFF1D
:1003F000FFFFFFFFFFFFFFFFFFFFFFFFFFFFFFFF0D
:10040000FFFFFFFFFFFFFFFFFFFFFFFFDEF9FFFF23
:1004100010B5054C237833B9044B13B10448AFF33E
:1004200000800123237010BD2892FF1F00000000F0
:10043000300C0100084B10B51BB108490848AFF358
:1004400000800848036803B910BD074B002BFBD0A0
:10045000BDE81040184700BF000000002C92FF1FAD
:10046000300C01002892FF1F000000002DE9F04130
:10047000002600F5C67400F5D0774FF0000854F858
:10048000045F0E4928460AF063FE0D4950B1284624
:100490000AF040FE30B1304629460AF095FB08F1DB
:1004A0000108064640460AF043FC014630460AF081
:1004B00047FDBC420646E2D1BDE8F0810000A0C184
:1004C00000001643F0B4194F0024031F00F180010F
:1004D00000F5827200F17C0643F8044FB34241F804
:1004E000047F4FF0000542F8044FF5D10023104A75
:1004F0001049C0F88C51C0F89051C0F89451C0F820
:100500009851C0F89C51C0F8A051C0F8B051C0F843
:10051000A421C0F8AC21C0F8A81180F8B83180F847
:10052000B93180F8D031F0BC704700BF0000A04066
:10053000000048430000C8C238B590F8D0310B2BFA
:100540000546144607D8702966D0E02931D06029C5
:1005500000F09B8038BD70293AD0E02929D060296D
:10056000F8D1137A507A1B0203F47063181805D07F
:100570000AF0DEFB63490AF02FFC6860A37AE07A98
:100580001B0203F47063181805D00AF0D1FB5D4913
:100590000AF022FCA860237B607B1B0203F47063DB
:1005A0001818D7D00AF0C4FB56490AF015FCE860C9
:1005B00038BDE37BA07B03EB00200AF0B9FB524976
:1005C0000AF00AFC51490AF0FFFAC5F8900138BD5B
:1005D000137A507A1B0203F4FE43181805D00AF070
:1005E000A7FB48490AF0F8FB6861A07AE37A13EBAD
:1005F000002005D00AF09CFB42490AF0EDFBA861FF
:10060000207B637B13EB0020A4D00AF091FB3D49D3
:100610000AF0E2FBE86138BD137A507A1B0203F45A
:100620007063181805D00AF083FB36490AF0D4FB32
:100630006861A37AE07A1B02C34208D003F47063B6
:1006400018440AF075FB2F490AF0C6FBA861237B0A
:10065000607B1B02C34208D003F4706318440AF0A5
:1006600067FB28490AF0B8FBE861A37BE07B1B022B
:10067000C3423FF46FAF03F4706318440AF058FBB1
:1006800020490AF0A9FB286238BD137A507A1B0270
:1006900003F4FE42C24208D003F4706318440AF027
:1006A00047FB18490AF098FB6860A37AE07A1B02BE
:1006B000C34208D003F4706318440AF039FB1149AF
:1006C0000AF08AFBA860237B607B1B02C34208D030
:1006D00003F4706318440AF02BFB0A490AF07CFB10
:1006E000E860A37BE07B1B02C3423FF433AF03F41B
:1006F000706318440AF01CFB02490AF06DFB286184
:1007000038BD00BF0AD7A33ADDB504BD00001643CB
:10071000D0F8DC01704700BF90F8C001704700BFFF
:1007200090F8BC01704700BF90F8C401704700BF4B
:1007300090F8C801704700BF202994BF50F82100ED
:10074000002070472DE9F0410B4E8046041F00F158
:100750007C0754F8045F314628460AF0DBFC30B1D0
:10076000D8F8B41128460AF0F3FC00B12E46BC427A
:10077000EFD13046BDE8F081000020412DE9F04185
:10078000D0F8B4714FF00008041F00F17C0654F853
:10079000045F394628460AF0DBFC084948B1284680
:1007A0000AF0B8FC414620B128460AF0D1FC00B15D
:1007B000A846B442EBD14046BDE8F0810000A0401D
:1007C0002DE9F0470023D0F8B471C0F8DC3182463F
:1007D0001C464FF000099846061F56F8045F38463D
:1007E00029460AF097FC0E4960B128460AF092FCAF
:1007F00040B1484629460AF0E7F908F10108814668
:10080000CAF8DC410134202CE7D1CAF8D481404633
:100810000AF08EFA014648460AF092FBBDE8F087DE
:1008200000007042D0F8D401704700BFD0F8CC313E
:1008300070B5044683BBFFF719FE4FF07C510AF0F8
:1008400087FC40B3D4F890614FF07C5130460AF0F9
:100850007FFCD4F8945118BBD4F898414FF07C51E8
:1008600028460AF075FC58B1294630460AF070FC5B
:1008700030B1214628460AF04DFC08B12C4625E04F
:100880004FF07C5120460AF063FC20B128462146F7
:100890000AF05EFCA0B970BD633350F82300CCE7CA
:1008A000304629460AF036FCD4F898410028D5D0C5
:1008B000304621460AF02EFC0028CFD0344605E011
:1008C000304621460AF044FC0028E4D0204670BDA2
:1008D00038B5D0F89441D0F89051214628460AF016
:1008E00019FC00B92C46204638BD00BFD0F8CC31E9
:1008F0000BB9FFF7BBBD633350F82300704700BF4F
:100900002DE9F8434FF00008D0F8B471C0F88C819D
:100910008146041F00F17C0654F8045F39462846DE
:100920000AF016FC084950B128460AF0F3FB30B132
:10093000404629460AF048F98046C9F88C01B4427D
:10094000EAD14046BDE8F8830000704202299ABF10
:10095000643150F821000020704700BF102998BF73
:1009600080F8D011704700BF90F8D001704700BFE9
:1009700090F8B801704700BF90F8B901704700BF08
:10098000C0F8CC11704700BF80F8B811704700BFA5
:1009900080F8B911704700BF30B5C0F8B41183B00A
:1009A000084609F06FFD074C022502460B460095EC
:1009B000204608F0BDFE204603B0BDE8304008F0F8
:1009C0005DBE00BFCC87FF1F70B500F50055064621
:1009D000183500F13804204604F5F074FFF772FD75
:1009E000AC42F8D106F50675012428460021FFF730
:1009F000CBFF214628460134FFF7B0FF112C05F547
:100A0000F075F2D142F2200400250548054A064B54
:100A10003555002130627162B262F362304670BDBA
:100A200000007A44000048430000C8C270B500F5D9
:100A3000EC46583600F50674002508E001252046EE
:100A4000002104F5F074FFF7A3FFB4420AD020465A
:100A5000FFF78EFF0028F2D02046FFF78DFF002819
:100A6000ECD170BD284670BD42F224032DE9F0415F
:100A7000002200F5F15500F500578046C2501835A8
:100A8000243700F5067403E004F5F074AC420ED090
:100A90002046FFF76DFF0028F6D020463E68FFF79E
:100AA000C1FE04F5F0743044AC423860F0D142F23B
:100AB000240358F80300BDE8F08100BFF8B50F46E5
:100AC000096801F00F050135C5EB051400EB441072
:100AD00000F13804204601F0F006FFF745FF85429B
:100AE00003D029462046FFF739FF20460121FFF7B2
:100AF0004BFF20460121FFF74BFF3A463146204687
:100B0000BDE8F840FFF718BD70B5002300F50056AA
:100B100005460361183600F5067403E004F5F07429
:100B2000A64223D02046FFF723FF0028F6D0204618
:100B3000FFF7E6FE014628690AF046F828612046DC
:100B4000FFF774FEA96A0AF0E5FA20BB2046FFF71A
:100B5000BFFEE96A0AF0FCFA0028DFD02046FFF762
:100B6000B7FE04F5F074A642E862DBD168690AF0CA
:100B7000DFF8014628690AF0E3F9696A286104464A
:100B80000AF0E6FA00B16C62296A20460AF0C2FA5D
:100B900000B12C6270BD2046FFF748FEA862D5E781
:100BA00070B5124B836100F500550646183500F507
:100BB000067403E004F5F074AC4214D02046FFF74D
:100BC000D7FE0028F6D02046FFF7BCFDB1690AF039
:100BD000A1FA0028EED02046FFF7B4FD04F5F0742A
:100BE000AC42B061EAD1B06970BD00BF0000A04066
:100BF0002DE9F04F83B000F10F0200F10709114613
:100C0000009204464B46002203F8012F9942FBD183
:100C100004F5067504F110032E4604F108089B46FE
:100C200001953046FFF7A4FEC0B101274FF0000A3E
:100C30002046FFF7B5FF394605463046FFF77CFDF5
:100C4000014628460AF066FA18B10123BB404AEA79
:100C5000030A0137092FEBD188F800A008F1010839
:100C6000C34506F5F076DCD14FF4407208232260CC
:100C7000E37121462048019D05F066FD009A00239E
:100C800009F8013F4A45FBD104F5885B0BF1180BCD
:100C900004F101094FF0010A2846FFF769FEC0B1CF
:100CA00001264FF000082046FFF77AFF314607463D
:100CB0002846FFF741FD014638460AF02BFA18B1E5
:100CC0000AFA06F348EA03080136092EEBD189F83F
:100CD000008005F5F0755D4509F10109DCD1064894
:100CE0004FF44472052321462260E37103B0BDE84E
:100CF000F04F05F029BD00BF14B5FF1F70B50023EC
:100D000000F500550646C361183500F5067403E08A
:100D100004F5F074AC4214D02046FFF729FE0028F9
:100D2000F6D02046FFF72AFDF1690AF011FA0028F3
:100D3000EED02046FFF722FD04F5F074AC42F061DE
:100D4000EAD1F06970BD00BF00697047416170472A
:100D5000F8B50F46164600F50674012504E0013586
:100D6000112D04F5F0741BD02046FFF701FE00287A
:100D7000F5D029460B4808F0D1FC0A4808F07EFC63
:100D8000782008F069FA20463946FFF7F9FD013569
:100D900020463146FFF700FE112D04F5F074E3D133
:100DA000F8BD00BFCC87FF1F2DE9F84300F50055C3
:100DB00042F21C032E4600278046C7504FF0000920
:100DC00018351C3600F5067403E004F5F074A542EE
:100DD00014D02046FFF7CCFD0028F6D0336801334D
:100DE00033602046FFF782FD1D490AF0B1F990B942
:100DF00004F5F074A54207F10107EAD142F21C03A1
:100E000058F80300C01B09F093FF014648460AF05A
:100E100097F8BDE8F8832046FFF768FD014648468D
:100E200009F0D2FE81462046FFF760FDD8F8301069
:100E30000AF08EF970B92046FFF758FDD8F8341043
:100E40000AF068F90028C0D02046FFF74FFDC8F827
:100E50003400BAE72046FFF749FDC8F83000EAE75A
:100E600000008CC2006B7047406B7047F8B500F50E
:100E7000005507460026183500F5067403E004F512
:100E8000F074AC4210D02046FFF772FD0028F6D077
:100E90002046FFF795FC0146304609F095FE04F523
:100EA000F074AC420646EED142F21C03F85809F049
:100EB0003FFF014630460AF043F8F8BD2DE9F04FF8
:100EC00004468FB0C6488A4600F0A0FBC44800F034
:100ED0009DFBC34800F09AFB42F21C032046E258F7
:100EE0000D92FFF7C1FD63690C938146206909F0FB
:100EF000C9FA064620460F46FFF7B8FF834620464C
:100F0000A569D4F81C80FFF74FFF09F0BBFACDE9C3
:100F10000A012946404609F055FEB24909F05CFF36
:100F200009F0B0FACDE90801404609F0ABFACDE985
:100F30000601284609F0A6FACDE90401584609F051
:100F4000A1FA0D9A0C9BCDE90201CDE9006711468B
:100F5000A5484A4600F05AFBA14800F057FB04F5AB
:100F600006744FF00109002507E009F10109B9F104
:100F7000100F04F5F07400F0F7802046FFF7F8FC3E
:100F80000028F2D02046FFF7C7FB2046FFF7C8FB3A
:100F90002046FFF7C9FB2046FFF7CAFB082193480C
:100FA00008F0D6F84946924808F0B8FBB9F1090FA5
:100FB00003DC01218F4808F0CBF802218E4808F0AD
:100FC000C7F82046FFF79CFC09F05CFA5FFA8AF844
:100FD00002460B46CDF80080854808F0A9FB0121A8
:100FE000864808F0B5F82046FFF792FB0C2800F37E
:100FF000BE8001261EE00621814808F0A9F8294696
:101000007B4808F08BFB02217E4808F0A1F83146AE
:101010002046FFF791FB09F035FACDF80080024633
:101020000B46734808F084FB012174483D460E448A
:1010300008F08EF82046FFF76BFB864205F10107AA
:101040006BDC092DD7DC01216A4808F081F8D2E772
:101050002046FFF75DFB172800F3BE8035460D26BE
:101060001CE008F075F82946614808F057FB02219A
:10107000644808F06DF831462046FFF75DFB09F043
:1010800001FACDF8008002460B46594808F050FBA3
:1010900001215A483D460E4408F05AF82046FFF711
:1010A00037FB86424FF00601554805F10107D8DDB0
:1010B0000F21554808F04CF84D4808F0DFFA20465B
:1010C000FFF726FB192828DD19261CE008F040F858
:1010D0002946474808F022FB02214A4808F038F820
:1010E00031462046FFF728FB09F0CCF9CDF8008007
:1010F00002460B463E4808F01BFB01213F483D4697
:101100000E4408F025F82046FFF702FB86424FF018
:1011100006013B4805F10107D8DD0F213A4808F0E8
:1011200017F8334808F0AAFA0921384808F010F8EF
:1011300000212046FFF70AFC09F0A4F90226024626
:101140000B4600962A4808F0F3FA0F212E4807F0C4
:10115000FFFF09F10109264808F090FAB9F1100FD4
:1011600004F5F0747FF409AF0FB0BDE8F08F2F469F
:10117000012620E00621224807F0EAFF39461C48F4
:1011800008F0CCFA02211F4807F0E2FF3146204662
:10119000FFF7D2FA09F076F9CDF8008002460B4647
:1011A000134808F0C5FA01360121144807F0D0FFB2
:1011B0000C2E09D05F46092F07F1010BDADC012163
:1011C0000C4807F0C5FFD5E72046FFF7A1FA0C2829
:1011D00005F10B063FF73CAF16350D273AE000BF8F
:1011E00088F4000000007A4420F60000C0F60000F9
:1011F000CC87FF1FC0F80000EC040100CCF6000013
:10120000D0F60000B0F80000D8F60000E8F60000C4
:101210000621154807F09CFF3146144808F07EFA75
:101220000221134807F094FF39462046FFF784FA5D
:1012300009F028F9CDF8008002460B460B4808F06B
:1012400077FA01210B480F4407F082FFAB453FF4CA
:101250002FAF5E46092E06F1010BD9DC01210648AD
:1012600007F076FFD4E700BFD0F60000CC87FF1F61
:10127000B0F80000CCF60000C0F800002DE9F04FF7
:1012800085B000F506758A4603929B462E464FF0C0
:10129000010806E008F10108B8F13F0F06F5F07605
:1012A0007BD03046FFF764FB0028F3D000230A22EE
:1012B00051467D4808F0F2F901217C4807F048FFCB
:1012C000039809F0DFF800230246009376480B46A6
:1012D00008F02EFA0121754807F03AFF5946724886
:1012E00008F01CFA0121714807F032FF41466E48B0
:1012F00008F014FA01216D4807F02AFF00244FF08E
:10130000020921463046FFF717FA09F0BBF8CDF87D
:10131000009002460B46644808F00AFA01340121A5
:10132000624807F015FF082C4FF00207E9D10021B1
:101330003046FFF70BFB09F0A5F8009702460B4675
:10134000594808F0F5F90121584807F001FF01213B
:101350003046FFF7FBFA09F095F8009702460B4676
:10136000514808F0E5F90121504807F0F1FE3946EF
:101370003046FFF7EBFA09F085F8009702460B4676
:10138000494808F0D5F908F10108474808F076F90E
:10139000B8F13F0F06F5F07683D101274FF0000931
:1013A00004E001373F2F05F5F07579D02846FFF7A7
:1013B000DFFA0028F5D000230A2251463C4808F005
:1013C0006DF90121394806F07FFE039809F05AF8BB
:1013D000CDF8009002460B46354808F0A9F90121E6
:1013E000324806F071FE5946314808F097F901215C
:1013F0002E4806F069FE39462D4808F08FF9012184
:101400002A4806F061FE00244FF0020821462846D3
:10141000FFF792F909F036F8CDF8008002460B4646
:10142000234808F085F901340121204806F04CFEDC
:10143000082C4FF00206E9D100212846FFF786FA72
:1014400009F020F8009602460B46194808F070F99A
:101450000121164806F038FE01212846FFF776FAEA
:1014600009F010F8009602460B46114808F060F9A2
:1014700001210E4806F028FE31462846FFF766FA9D
:1014800009F000F8009602460B46094808F050F9AA
:101490000137074808F0F2F83F2F05F5F07585D1C0
:1014A00005B0BDE8F08F00BFCC87FF1FF4F6000049
:1014B000BC87FF1F014B1870704700BF2087FF1FBC
:1014C0000278002A00F0908070B5034682B00D4685
:1014D000252A2AD158785C1C08B325282FD07328D8
:1014E00031D0642824D0692822D066284FD07A28A9
:1014F00059D0782835D058282FD062283ED042289D
:1015000038D06C2814D0632812D0742857D05428AF
:101510005FD007F0A1FE6278631C002AD8D134485E
:1015200002B0BDE8704008F0A9B818781C46F0E792
:101530002B1D29682E481D4608F0F0F8EBE71046F1
:1015400007F08AFEE7E72E6830460AF039FC0146CC
:101550003046043507F0FCFDDDE70221254807F0A1
:10156000F7FD2E1D2968224800231022354608F079
:1015700095F8D0E70221204807F0EAFD2E1D2968E2
:101580001B4800230222354608F088F8C3E70735D8
:1015900025F007050321D5E90023154800910835FA
:1015A00008F0C6F8B7E7073525F007050021D5E9AB
:1015B00000230F480091083508F0BAF8ABE7296816
:1015C00001290EBF0D480E480121043507F0C0FD6A
:1015D000A1E72B68012B07BF04210A480A4805210F
:1015E000043507F0B5FD96E7014808F047B800BF9D
:1015F000CC87FF1FF8F60000FCF6000000F70000A3
:1016000004F7000008F7000010F700000FB400B561
:1016100083B004A951F8040B0191FFF751FF03B007
:101620005DF804EB04B0704730B4074D074C08492F
:1016300000232B70236003654365836580F85C306D
:101640000B6030BC704700BF4C92FF1F4892FF1FD9
:101650004492FF1FF8B53A483A4F3B4D3B4E3C4C45
:10166000FFF7D4FF3B4B3C493C4A3D485960DA60A8
:101670003C491F6100223C4F58615D623B489E61BE
:101680004FF07C553A4E9C623A4CD9621A630C2159
:10169000394A5F639863394F5D6440F61C400A2500
:1016A0009E64DC6441F204065A2419651A62022120
:1016B0000122C3F8B8709866314FDD6600206425BA
:1016C0001E675C674FF496763224597059721A720D
:1016D0005A65DF61DF6383F840005E66DE651C6685
:1016E0004FF47A7E9D65274F9867274ED967C3F8D8
:1016F0008000C3F89440C3F8A040C3F89C00FF24C6
:10170000C3F8A820C3F8AC10052041F2883183F853
:10171000BC2040F2D662C3F8B050C3F898E0C3F8DA
:101720008870C3F88C60C3F8A440A3F8B600C3F86F
:101730009010A3F8B410A3F88420A3F88620F8BD75
:101740003CF7000000004040CDCCCC3DCDCC4C401F
:10175000000082423C93FF1F48E801006666864015
:1017600033338340000020C1000020420000A0402D
:101770009A9979400AD7233D333373409A99993E19
:10178000CDCC4C3E0000684200C02044F0B54FF480
:101790007A6085B006F0BAF900210F2006F08EF9C4
:1017A00000210E2006F08AF90021112006F086F9AA
:1017B0000021102006F082F90021122006F07EF9A7
:1017C0000021132006F07AF901210B2006F076F9AA
:1017D00001210C2006F072F90121142006F06EF9A7
:1017E0000121152006F06AF90121162006F066F99C
:1017F0000121172006F062F90121052006F05EF9AB
:101800008D4C8E4D0121062006F058F901210D2046
:1018100006F054F9208809F087FA0146162006F0F0
:10182000B7F8208809F080FA0146172006F0B0F8D2
:10183000208809F079FA0146052006F0A9F82088E9
:1018400009F072FA00240146062006F0A1F800947F
:1018500023467B4A7B497C4804F07EFDE6B2324653
:101860007649794804F026FD2B79744976486FF360
:101870000003013432462B7104F012FD082CEDD127
:101880000924E6B232466D496F4804F013FD2B7906
:101890006A496D4843F00103013432462B7104F06C
:1018A000FFFC0D2CEDD1694C4FF0FF322068102168
:1018B00005F01EF920684FF0FF32102105F0F0F816
:1018C00020684FF0FF32022105F0FEF820684FF04B
:1018D000FF32022105F002F900220F21206805F0F5
:1018E00011F90C215A4807F033FC5A4807F0C6FE9C
:1018F0001421594807F02CFC564807F0BFFE40F26F
:10190000836006F0C1F9534807F0B8FE1721534829
:1019100007F01EFC4F4807F0B1FE514B1B789A06AA
:1019200000F1B8804E4B1B781B0700F1BF804C4B79
:101930001B785F0700F1C680494B1B789E0700F1BA
:10194000CD80484B1B781D0600F1D480454B1B7899
:101950005C0600F1DB80434B1B78980600F1E280C7
:10196000404B1B78590700F1E9803E4B1B781A0762
:1019700000F1F0803B4B1B789B0700F1F780354866
:1019800007F07CFE72B6384A4CF220534DF628110F
:101990002024138023461180013BFDD1334D344870
:1019A000344900234FF480562E8003800B8032F898
:1019B0000E3C9BB243F0D30322F80E3C62B69D204E
:1019C00006F00CFD21462C482C4D07F0C1FB2148A8
:1019D00007F054FE05F1C0062F462C46601B05F0AB
:1019E00073FD04F8010BB442F8D13B78102B01D001
:1019F000FFF730FE0420FFF75DFD214B002201219F
:101A00000D201A6006F046F8796D1E48FFF79EF922
:101A10007A6C97F840101B48FFF79AF91A4B1B494C
:101A20001A68039203981B680293029A184B086085
:101A30001A6005B0F0BD00BF2887FF1F0894FF1F84
:101A4000B0B6FF1F48E8010014B5FF1FB894FF1F90
:101A50005CF70000CC87FF1F6CF7000084F70000E4
:101A600001F0074000F007400E200540042005402B
:101A7000062005401620054088F800003C93FF1F13
:101A80006492FF1FEC94FF1FBCB6FF1FE894FF1F7A
:101A90001094FF1F2121394807F05AFB384807F0FE
:101AA000EDFD384B1B781B077FF541AF0C21364805
:101AB00007F04EFB324807F0E1FD324B1B785F0721
:101AC0007FF53AAF0E21314807F042FB2C4807F072
:101AD000D5FD2C4B1B789E077FF533AF17212C4883
:101AE00007F036FB264807F0C9FD2A4B1B781D0678
:101AF0007FF52CAF0E21284807F02AFB204807F07D
:101B0000BDFD244B1B785C067FF525AF12212348D1
:101B100007F01EFB1A4807F0B1FD1E4B1B78980614
:101B20007FF51EAF13211E4807F012FB144807F083
:101B3000A5FD184B1B7859077FF517AF1C211948D5
:101B400007F006FB0E4807F099FD124B1B781A07A9
:101B50007FF510AF1921144807F0FAFA084807F08A
:101B60008DFD0C4B1B789B077FF509AF18210F48A3
:101B700007F0EEFA024807F081FD00E79CF700004D
:101B8000CC87FF1F01F00740C0F70000D0F700002E
:101B9000E0F7000000F00740F8F7000008F8000048
:101BA0001CF8000030F8000050F800006CF800004D
:101BB00070B5464C464D4748E66800232B70FFF74A
:101BC0009DF80146304609F0A5FA08B104232B70B0
:101BD0004048FEF7E5FF216909F09CFA18B12B781F
:101BE00043F010032B703B48FFF7DEF8A16A09F0C1
:101BF000AFFA18B12B7843F040032B70002335481F
:101C00006B70FFF7D1F8E16A314E09F083FA08B141
:101C10000123737000232F48EB70FFF76FF8054620
:101C20002C482B4EFEF7BCFF0146284608F0CAFFA1
:101C3000E16B09F08DFA08B10123F370264D2548B8
:101C400000232B70FFF75AF8616A0646E06808F037
:101C5000B9FF0146304609F07BFA08B104232B7026
:101C60001C48FEF79DFF616A0646206908F0ACFF3C
:101C70000146304609F04EFA18B12B7843F01003B4
:101C80002B701448FFF790F8A16B0646A06A08F085
:101C900099FF0146304609F05BFA18B12B7843F002
:101CA00040032B7000230B486B70FFF77DF8A16B8E
:101CB0000546E06A084C08F087FF0146284609F00F
:101CC00029FA08B10123637070BD00BF3C93FF1F68
:101CD0003893FF1FEC94FF1FA894FF1F2DE9F041DC
:101CE0007C4C2368012B82B031D0022B00F0A880FD
:101CF000032B00F0C8803BBB774B784AD3F8A01089
:101D0000D3F8A43012685B1A632B0EDD744803FB12
:101D100002F380FB0302DB17C3EB621319440620B6
:101D200002B0BDE8F04105F035BD6E4803FB02236B
:101D300080FB0302DB17C3EB22121144062002B022
:101D4000BDE8F04105F026BD02B0BDE8F081664E69
:101D500033680A33B3F57A7F00F3B78018463360EF
:101D600008F0E6FF614909F037F880465A4DD5F88A
:101D7000A00008F0DDFF0746D5F8A40008F0D8FF62
:101D8000394608F01FFF414609F026F8584909F086
:101D9000D7F8394608F018FF09F0E4F901460620A3
:101DA00005F0F8FC0221534807F0D2F9524807F039
:101DB00065FC0621514807F0CBF9306808F0B8FF00
:101DC0004A4909F009F808F05DFB022702460B4674
:101DD0000097494807F0ACFC0D21494807F0B8F9D5
:101DE000D5F8A00008F0A4FF8046306808F0A0FFF6
:101DF0003E4908F0F1FF0646D5F8A40008F098FF28
:101E0000414608F0DFFE0146304608F0E5FF38495C
:101E100009F096F8414608F0D7FE08F033FB00972A
:101E20000B460246344807F083FC3946314807F038
:101E30008FF9314807F022FC2368022B7FF458AF5A
:101E4000294B254E00221A60D6F8A00008F070FF3A
:101E50000546D6F8A40008F06BFF294608F0B2FE4C
:101E6000002108F0B9FF224909F06AF8294608F074
:101E7000ABFE09F077F90146062005F08BFC2368DC
:101E8000032B7FF438AF184B134E4FF47A721A605D
:101E9000D6F8A00008F04CFF0546D6F8A40008F0DC
:101EA00047FF294608F08EFE114908F095FF1049BA
:101EB00009F046F8294608F087FE09F053F9014673
:101EC000062005F067FC236815E700234FF00008A3
:101ED00033604BE79494FF1F3C93FF1F3487FF1F31
:101EE0001F85EB51CBF08D286892FF1FCDCCCC3DE8
:101EF0000000C842EC040100CC87FF1FACF80000D2
:101F0000B4F8000070B5B548B54C07F0B7FBB3485E
:101F100007F0B4FBB14807F0B1FB0D21B14807F061
:101F200017F9D4F89C30012B11D0AF4CAB48217875
:101F300000230A2207F0B2FB2378052B67D8DFE8DD
:101F400013F006010B01100115011A01010109210D
:101F5000A64807F0FDF8A648FEF722FE216909F021
:101F6000D9F818B10F21A34807F0F2F8A048FEF7FE
:101F7000C5FEE16809F0ECF818B10E219E4807F0A3
:101F8000E7F89B48FEF7BAFE05469948FEF708FEBB
:101F90000146284608F016FEE16B09F0D9F818B1A1
:101FA0001121964807F0D4F89148FEF7FDFEA16A8A
:101FB00009F0CEF818B10C21914807F0C9F88C4807
:101FC000FEF7F2FEE16A09F0A5F818B10D218D487F
:101FD00007F0BEF88C4B86481B68012B00F0E880A8
:101FE000FEF7DEFD21697E4D09F0B2F878B1804838
:101FF000FEF784FEE96809F08DF840B17A4B1B7852
:10200000052B00F0E6800821804807F0A1F80221A6
:102010007F4807F09DF8122005F042FD012800F0EE
:10202000AF80112005F03CFD012800F0B380794B12
:102030001B68012B00F0B78002217548764C07F031
:1020400087F8764B6548196807F068FB634807F026
:1020500015FB0421724807F07BF80B2005F020FDEA
:10206000002301460A225D4807F018FB0C2005F00A
:1020700017FD002301460A22584807F00FFB1420E1
:1020800005F00EFD002301460A22544807F006FB26
:10209000152005F005FD0A22002301464F4807F0F0
:1020A000FDFA06215F4807F053F82368DD074FF07B
:1020B00001014CBF5C485D4807F04AF82368980767
:1020C0004FF001014CBF5848584807F041F82368C9
:1020D0005A074FF001014CBF5348544807F038F8F5
:1020E00023681B074CBF50485048012107F030F8C7
:1020F00004214F4807F02CF8112005F0D1FC0023F3
:1021000001460A22354807F0C9FA102005F0C8FC3C
:10211000002301460A22314807F0C0FA122005F0D8
:10212000BFFC002301460A222C4807F0B7FA13200F
:1021300005F0B6FC002301460A222848BDE870409D
:1021400007F0ACBA07213B4807F002F85FE7062129
:10215000394806F0FDFF5AE70721384806F0F8FF36
:1021600055E70721364806F0F3FF50E708213548C8
:1021700006F0EEFF4BE70B21334806F0E9FF46E798
:102180000E21324806F0E4FF112005F089FC0128F9
:102190007FF44DAF0A212E4806F0DAFF1D4B1B6875
:1021A000012B7FF449AF11212A4806F0D1FF43E704
:1021B000FEF7F6FC216A08F0CBFF00283FF423AFBE
:1021C0001621254806F0C4FF0A21244806F0C0FF66
:1021D0001DE70A21214806F0BBFF18E7CC87FF1F47
:1021E0003C93FF1FC4F80000A494FF1FD4F8000024
:1021F000EC94FF1FE0F80000F0F8000000F9000088
:1022000014F9000024F900007492FF1F58F900002F
:10221000EC040100C094FF1FFC93FF1F9894FF1F64
:10222000CCF90000D4F90000DCF9000090060100B0
:10223000E0F9000094F9000064F900006CF9000076
:1022400080F9000088F9000074F900009CF9000092
:10225000ACF90000B8F9000034F900004CF90000B6
:102260002DE9F04F934C944FE36F012B8DB000F0AC
:102270004981032B50D0914E914DA36F9148012B72
:1022800009BF2968296801F10041296005F00EF8AD
:102290003368002B40F0CE808A4804F0DDFFE36F06
:1022A0003860012B064600F0D280874908F050FFC5
:1022B00078B98649304608F02DFF50B9844A854BDD
:1022C00012680B920B9A1A6000232B600DB0BDE8C8
:1022D000F08FDFF8FC817F4CD8F800300A930A9821
:1022E00023687D4FC01A08F01FFD314608F074FDC9
:1022F0007A4908F025FE794908F022FE396808F08D
:1023000063FCD8F800300993099B236000233860F0
:102310002B600DB0BDE8F08FDFF8C881704DD8F8A4
:102320000000664E012300220F212B6004F0EAFB1F
:102330002B68012B336800F00381002B40F0A6814D
:102340000021D8F80000DFF8B891664D04F02CFCAD
:1023500033681FFA80FBC9F800B0002B40F07B8186
:102360000021D8F80000564DDFF878A104F0A2FB58
:10237000B4F8863040F6E44101FB0BF1B1FBF0F01C
:10238000C01A00B208F0D4FC57498346D4F888003C
:1023900008F022FD0146584608F0D2FDD9F8003079
:1023A0002860632BDFF858B100F3498100232B60CC
:1023B0003368002B3FF461AF02214C4806F0C8FEA1
:1023C000D9F80020D8F8000040F6E443002103FBD0
:1023D00002F804F06FFBB8FBF0F008F0A5FC8046B3
:1023E000B4F8860008F0A4FC0146404608F0EAFB79
:1023F00008F048F84FF0020802460B46CDF800807E
:102400003B4807F095F94146384806F0A1FE286898
:1024100008F038F8CDF8008002460B46344807F043
:1024200087F94146334806F093FE41462F4806F0AF
:102430008FFE22E7234804F00FFF08F023F802265E
:1024400002460B4600962A4807F072F924E7244B0F
:102450001B68012B00F02681022B7FF435AF264943
:1024600008F076FE30B92549304608F053FE0028C2
:1024700000F04781DFF85880164CD8F800300793F9
:1024800007982368144FC01A08F04EFC314608F034
:10249000A3FC124908F054FD104908F051FD3968B9
:1024A00008F092FBD8F800300693069B3860236052
:1024B0000AE700BF3C93FF1F8092FF1FE494FF1FB9
:1024C0007092FF1F1493FF1F0000FA430000FAC32D
:1024D000BCB6FF1FB494FF1F8C92FF1F00007A440C
:1024E0005087FF1FB894FF1F17B7D138EC040100C5
:1024F000CC87FF1F24FA000000C82F4800A08CC61C
:102500003493FF1F3D689849284608F003FE30B118
:102510002846964908F01CFE00287FF4FDAEDFF83F
:102520005882934DD8F80000924E022300220E21CB
:102530002B6004F0E7FA2B68012B33687FF4FDAEC3
:10254000002B40F000810021D8F80000DFF86C92E9
:10255000894D04F029FB33681FFA80FBC9F800B0ED
:10256000002B40F0D5800021D8F80000834D04F006
:10257000A1FAB4F8843040F6E44A0AFB0BFBBBFB3B
:10258000F0F0C01A00B208F0D3FB7D498346D4F8BE
:102590008C0008F021FC0146584608F0D1FCD9F81F
:1025A000003028600021D8F800000AFB03FA04F08C
:1025B00081FAB4F88430BAFBF0F00FFA80FAC3EB7A
:1025C0000A03002BB4F8B620B8BF5B429342BCBFED
:1025D00000232B603368002B3FF44FAE0221694883
:1025E00006F0B6FDD9F80020D8F8000040F6E44324
:1025F000002103FB02F804F05DFAB4F88410B8FB84
:10260000F0F000B2411A604807F088F802215D48F6
:1026100006F09EFD286807F035FF4FF002080246DD
:102620000B46CDF80080584807F082F80321574840
:1026300006F08EFD4146534806F08AFD1DE6DAF8A5
:102640000000002104F036FADBF8003064389842CC
:10265000FFF4ACAEACE60021286804F02BFA40F69B
:10266000E44100230A2201FB0BF1B1FBF0F14648E3
:1026700007F014F80221434806F06AFDB4F886100A
:10268000414807F04BF8D9F800B069E63E4806F03B
:10269000F5FF0C213E4806F05BFD0C213D4806F09D
:1026A00057FD4DE63C4908F053FD58B93B493046CB
:1026B00008F030FD30B93A4A3A4B12680592059A53
:1026C0001A6001E6DFF8D880364CD8F80030049361
:1026D00004982368344FC01A08F026FB314608F0EE
:1026E0007BFB324908F02CFC304908F029FC3968A2
:1026F00008F06AFAD8F800300393039B386023602F
:10270000E2E5274A274B12680892089A1A60DBE52F
:102710000021286804F0CEF940F6E44100230A22A3
:1027200001FB0BF1B1FBF0F1174806F0B7FF0121F7
:102730001F4806F00DFDB4F88410134806F0EEFFB4
:10274000D9F800B00FE7104806F098FFE36F012BAF
:102750004FF00B010CBF1748174806F0F9FC0C218D
:102760000C4806F0F5FCEEE600709446007094C646
:102770005087FF1FE494FF1FB894FF1F7092FF1F44
:1027800017B7D138EC040100CC87FF1F10FA000006
:1027900014FA000000FA00000000FA430000FAC337
:1027A000BCB6FF1FB494FF1F8C92FF1F00007A4439
:1027B000C0F80000E8F90000F4F900003493FF1FAE
:1027C0002DE9F047B24D2B6884B0002B7ED0B14C80
:1027D000DFF8C882B04EE36FAE4D012B00F08F8062
:1027E000D4F88030AB4F012B00F0BC80D6F80090BD
:1027F000D7F858A07D6DA94F05FB0AF54FF47A7004
:1028000000FB05F008F094FAA5490546484608F093
:10281000E3FA294608F094FBA24908F0DDFA08F033
:10282000A1FC6328C8F800004BDD28469C4908F04D
:1028300087FB642330603B609B4B1B68002B3DD0C3
:10284000E36F944D012B00F0BB80032B00F0098156
:10285000022B00F00C810221944806F079FC944B85
:10286000186807F00FFE022402460B4600949148B8
:1028700006F05EFF2146904806F06AFC21468B4830
:1028800006F066FCD8F800108A4806F047FF0621DB
:102890008A4806F05DFC3068814908F09DFA07F02F
:1028A000F1FD009402460B46824806F041FF0321E9
:1028B000834806F04DFC7F4806F0E0FE04B0BDE81A
:1028C000F0870028BCBF00233B60B5E77D4E714C0C
:1028D00033680293029A42F228339A4200F2BA8095
:1028E00033680393039A42F210739A4274D8E36FE9
:1028F000DFF8A881684E674D012B7FF471AF7248F5
:10290000FEF7B4FA7149D5F86890EF6E08F064FAF2
:1029100008F04EFC2A6F6B6FC9EB0202DB1B80B222
:102920009A42C9EB000040F3AD8003FB0000531C4A
:1029300090FBF3F31F44A06D636DC8F8007000FBBB
:1029400007F003FB00F000EB8000400008F0F0F916
:102950005349504F08F0F4FAD4F880303060012B1E
:102960007FF444AF5848FEF781FA5849D7F8689089
:10297000FD6E08F031FA08F01BFC3A6F7B6FD4F85B
:1029800058A0C9EB02025B1B80B29A42C9EB00005F
:10299000C6BF03FB00000132584390FBF2F028440D
:1029A000656D00FB0AF005FB00F000EB80004000C5
:1029B00008F0BEF93A4908F0C3FA814630601AE7D8
:1029C000434B1B68012B4FF00A010CBF41484248A2
:1029D00006F0BEFBEB6F38E73B48FEF747FA3B4992
:1029E000A76EE66E08F0F8F908F0E2FB226F636F5D
:1029F000D21B9B1B80B29A42A0EB07003CDD03FB7D
:102A00000000531C90FBF3F39819A26DDFF88C8043
:102A1000636DC8F8000002FB00F003FB00F000EB60
:102A20008000400008F084F91D491B4E08F088FA28
:102A30000123306002211D482B6006F089FB1D48F0
:102A400006F01CFE5921254806F082FB194806F0C5
:102A500015FEC0E61C48626C94F84010FEF778F949
:102A60003EE710211E4806F073FBE36FF0E60721F6
:102A70001C4806F06DFBEEE603FB00F393FBF2F35C
:102A80009819C2E703FB00F393FBF2F31F4452E7EC
:102A90006C92FF1F3C93FF1F8C92FF1F3487FF1F18
:102AA000E4388E3E0000C8423C87FF1FEC04010062
:102AB0008092FF1FCC87FF1F24FA0000B8FA0000A5
:102AC000C0FA0000BCB6FF1FEC94FF1F00007A4460
:102AD0005087FF1F84FA000090FA000028FA0000D7
:102AE0009CFA0000B0FA0000F0B5112083B004F0A9
:102AF000D7FF012813D000210B2004F0CBFF0021C9
:102B00000C2004F0C7FF0021152004F0C3FF1D496D
:102B10001D4B0120002208701A6003B0F0BD014671
:102B20000446152004F0B6FF1849194A194B0968E4
:102B30000191D2F890001B680199134D03440226BD
:102B40008B422E6017D8D2F8980008F0F1F8124B9B
:102B5000196808F0DFFA074668B921460B2004F02F
:102B600099FF084A032339460C2016702B6004F0A5
:102B700091FF03B0F0BD01210C2004F08BFF03B0E6
:102B8000F0BD00BFA494FF1FE094FF1FBCB6FF1F61
:102B90003C93FF1FE894FF1F8092FF1FF0B5684E23
:102BA000684D34682B689C4287B039D014F001011D
:102BB00055D014F0020149D014F004013DD0E307D0
:102BC0000ED52B68DF070BD45F4F3A68002A00F060
:102BD00082805E4B1B680193019B93426DD83468E1
:102BE000A0070DD52B6899070AD4594F3A68002AD7
:102BF0004CD0564B1B680393039B934238D83468E0
:102C000062070DD52B685B070BD4524F3A68002A38
:102C10007ED04E4B1B680593059B934268D8346861
:102C20000CB107B0F0BD2146162004F0B3FD2146DB
:102C3000172004F0AFFD07B0F0BD052004F0AAFD99
:102C40002B68346803F0FB032B60B8E7172004F00F
:102C5000A1FD2B68346803F0FD032B60ACE7162060
:102C600004F098FD2B68346803F0FE032B60A0E7A6
:102C7000394B1720D3F8941004F08CFD2B6834687E
:102C800043F0020300222B603A60B9E7334806F0B4
:102C9000F5FC0C21324806F05BFA304806F0EEFCF9
:102CA000FF21172004F076FD284B2E4A1968029167
:102CB000029912680A443A609CE7274B1620D3F821
:102CC000941004F067FD2B68346843F00103002280
:102CD0002B603A6084E7FF21162004F05BFD1B4B5C
:102CE000204A19680091009912680A443A6071E715
:102CF000194B0520D3F8941004F04CFD2B68346870
:102D000043F0040300222B603A60002C89D18AE74B
:102D1000124806F0B3FC0C21134806F019FA0F48CC
:102D200006F0ACFCFF21052004F034FD074B0D4AF2
:102D300019680491049912680A443A606AE700BF6E
:102D4000E094FF1FFC93FF1F7894FF1FBCB6FF1F8A
:102D50007C94FF1F8094FF1F3C93FF1FCC87FF1FB5
:102D6000C4FA00006887FF1FD4FA00002DE9F0477D
:102D7000544EDFF87481DFF874913068524D0022B0
:102D80000F2103F0BFFE0023012222214F48C8F883
:102D90000030C9F8002006F0DBF9D8F80030132B1A
:102DA00022DC40F6E44700213068B5F884A003F047
:102DB000FBFE00210446306803F07CFEA4B2012132
:102DC00007FB04F4B4FBF0F441485444A5F88440F4
:102DD00006F0BEF9642004F099FED8F80030013303
:102DE000132BC8F80030DEDDB5F88430394A3A4894
:102DF000A2FB03129B1A02EB5303C3F30F131946F2
:102E0000A5F8843006F08AFC1D21344806F0A0F9AC
:102E10000221334806F09CF92F4806F02FFC0023CE
:102E20001A460E213068C8F8003003F06BFE02230A
:102E300022212648C9F8003006F08AF9D8F8003077
:102E4000132B22DC40F6E44700213068B5F8869069
:102E500003F0AAFE00210446306803F02BFEA4B262
:102E6000012107FB04F4B4FBF0F419484C44A5F825
:102E7000864006F06DF9642004F048FED8F8003072
:102E80000133132BC8F80030DEDDB5F88630114A67
:102E90001148A2FB03129B1A02EB5303C3F30F1357
:102EA0001946A5F8863006F039FC1D210D4806F0BC
:102EB0004FF902210A4806F04BF90748BDE8F047F0
:102EC00006F0DCBBB894FF1F3C93FF1FE4FA000040
:102ED00028FB000087611886CC87FF1F08FB0000D5
:102EE000EC0401002CFB00009C94FF1F5087FF1F87
:102EF000F8B57B4B7B4C7C4D1B68286D40F2513103
:102F000008222160E271002B40F0E08007F010FF02
:102F10006969064607F060FF744907F05DFF08F035
:102F200047F980B203126372714A724B12681B68D0
:102F3000A969A37215121B12E372227320726573C2
:102F4000304607F049FF694907F046FF08F030F9BD
:102F500083B21A1263496848A373E27303F0F4FB67
:102F6000664B674A1B6812885E49A272DFB207EBA4
:102F7000870603EB8305760045F3D71512121B1263
:102F80002772267340F25537082665735A48E27255
:102F9000002563722760E671A573E57303F0D4FB27
:102FA00040F2563357482360E671FDF7CDFE56498F
:102FB00007F012FF08F0FCF820725248FDF7C4FE3B
:102FC000514907F009FF08F0F3F8504A4E49C0F3A1
:102FD00007236372106807F0B3FF08F0C3F840FAE4
:102FE00006F203464748E272A372FDF7DDFE3F4951
:102FF00007F0F2FE08F0DCF820734248FDF7D4FE3B
:103000003A4907F0E9FE08F0D3F83649A573C0F352
:10301000072339486373E57303F096FB022004F03D
:1030200075FD3B4B2F49187893F801E09F78DA78CB
:10303000207240F25A333048E67125736573A573E8
:10304000E57384F809E0A772E272236003F07CFB69
:10305000304B244918785D789A782072187993F863
:1030600003E05F796572A2729D79DA79207340F28C
:103070005E33214884F80BE0E2732360E6716773E6
:10308000A57303F061FB022004F040FD224BE671C2
:103090001D785A78D87893F802E01F795E79257206
:1030A00062729D79DA79E0724FF45C730D491248CF
:1030B000236084F80AE027736673A573E27303F054
:1030C00043FB164B1B68012B05D0F8BD07F030FE03
:1030D000296A06461EE70B48BDE8F840FDF788BDA3
:1030E0007492FF1FD094FF1F3C93FF1F00002041EC
:1030F000B094FF1F5892FF1F14B5FF1F3487FF1FA6
:103100003887FF1FEC94FF1F0000C8428092FF1F0A
:103110003893FF1F2C87FF1F5487FF1FC094FF1F8A
:10312000F0B59C4C9C4D83B005F0ACFF2368286043
:10313000042B00F0AC82022B4BD0082B00F09280C5
:10314000072B40F05181332801F0F28300F3AD806A
:10315000312801F00084322840F0B08005F0CEFF25
:10316000002840F33F818D488D4E06F01BFC07F090
:10317000DFFD8C4907F030FE61230122F0632260FD
:103180002B601846A0F152031F2B01F2AF83DFE83A
:1031900013F02E0BAD0BAD0BAD0BAD0BAD0BAD0BA3
:1031A000AD0BAD0BAD0BAD0BAD0BAD0BAD0BAD0B5F
:1031B000B203CB0C3905A7057304AD0BAD0BAD0BFA
:1031C0002604AD0BCE0CAD0BAD0BAD0BAD0BAD0BAB
:1031D000300BA0F13102422A70D8DFE812F0F0067D
:1031E000FC060A0717072A0739076F006F006F00F0
:1031F0006F006F006F006F006F006F006F006F0057
:103200006F006F006F006F006F006F006F006F0046
:103210006F006F006F006F006F006F006F006F0036
:103220006F006F006F006F006F006F006F006F0026
:103230006F006F006F006F006F006F006F006F0016
:103240006F00DD066F006F006F006F006F006F0092
:103250006F006F006F006F006F006F006F006B00FA
:103260006F00E306322800F02F83712822D0312826
:1032700024D105F043FF002840F3CF854748484E4E
:1032800006F090FBC0B286F84000022894BF0146C9
:103290000021726C444888BF86F84010FDF758FD45
:1032A00001236920236028606CE7342801F02E8315
:1032B000712803D10023732023602860002B08BFEE
:1032C00073280CBF01200020002860D0334806F08E
:1032D000D5F90421354805F03BFF304806F0CEF91A
:1032E0001021334805F034FF2C4806F0C7F91321AC
:1032F000304805F02DFF304B2848196806F00EFACB
:10330000264806F0BBF914212C4805F021FF23487C
:1033100006F0B4F91E212A4805F01AFF1F4806F0EE
:10332000ADF91521274805F013FF1C4806F0A6F952
:103330001E21254805F00CFF184806F09FF92021B2
:10334000224805F005FF154806F098F91921204894
:1033500005F0FEFE114806F091F912211D4805F016
:10336000F7FE0E4806F08AF90F211B4805F0F0FE23
:103370000A4806F083F90D21184805F0E9FE0748D0
:1033800006F07CF9164A002101231160236003B086
:10339000F0BD00BF9092FF1F7C92FF1FCC87FF1FE4
:1033A0003C93FF1F6F12833AEC94FF1F68030100E8
:1033B00070030100840301002487FF1F98030100AC
:1033C000B0030100D0030100E8030100080401007C
:1033D0002C040100480401005C0401006C0401009D
:1033E0003C87FF1F23682868062B40F08D80A0F1E2
:1033F0003102402A3FF662AF01A151F822F000BF2E
:10340000253E0000513E00007D3E0000A33E00002E
:10341000C93E0000E73E0000853F0000BD320000CD
:10342000BD320000BD320000BD320000BD320000E0
:10343000BD320000BD320000BD320000BD320000D0
:10344000BD320000BD320000BD320000BD320000C0
:10345000BD320000BD320000BD320000BD320000B0
:10346000BD320000BD320000BD320000BD320000A0
:10347000BD320000BD320000BD320000BD32000090
:10348000BD320000BD320000BD320000BD32000080
:10349000BD320000BD320000BD320000BD32000070
:1034A000BD320000BD320000BD320000BD32000060
:1034B000BD320000BD320000BD320000BD32000050
:1034C000BD320000BD320000BD320000BD32000040
:1034D000BD320000BD320000BD320000BD32000030
:1034E000BD320000BD320000BD320000BD32000020
:1034F000BD320000BD320000BD320000BD32000010
:10350000B532000023682868052B15D1332801F057
:10351000498240F34781352801F06B82C1F2538222
:1035200071287FF4CBAEDC4A002373201360236044
:103530002860C3E623682868032B40F0A480A0F12C
:103540003002422A3FF6BAAE01A151F822F000BF84
:103550005D360000F9460000A7450000CF45000099
:10356000F1450000134600002147000049470000D4
:10357000674700008B470000BD320000BD320000ED
:10358000BD320000BD320000BD320000BD3200007F
:10359000BD320000BD320000BD320000BD3200006F
:1035A000BD320000BD320000BD320000BD3200005F
:1035B000BD320000BD320000BD320000BD3200004F
:1035C000BD320000BD320000BD320000BD3200003F
:1035D000BD320000BD320000BD320000BD3200002F
:1035E000BD320000BD320000BD320000BD3200001F
:1035F000BD320000BD320000BD320000BD3200000F
:10360000BD320000BD320000BD320000BD320000FE
:10361000BD3200003B46000053410000B3470000AC
:10362000D14700009B460000B94600000941000058
:103630002D410000BD320000BD320000BD3200004F
:10364000BD320000BD320000BD320000BD320000BE
:10365000BD320000594600006546000005F04EFDF1
:10366000002841F34C818D488D4E06F09BF90127CF
:103670000346014662228B48736527602A60FDF786
:1036800065FB23682868012B7FF418AE7AE5A0F16A
:103690003102402A3FF612AE01A151F822F000BFDC
:1036A0006B4000008340000087400000AD400000F8
:1036B000ED400000B1400000C3400000C7400000E2
:1036C000CB400000BD320000BD320000BD32000022
:1036D000BD320000BD320000BD320000BD3200002E
:1036E000BD320000BD320000BD320000BD3200001E
:1036F000BD320000BD320000BD320000BD3200000E
:10370000BD320000BD320000BD320000BD320000FD
:10371000BD320000BD320000BD320000BD320000ED
:10372000BD320000BD320000BD320000BD320000DD
:10373000BD320000BD320000BD320000BD320000CD
:10374000BD320000BD320000BD320000BD320000BD
:10375000BD320000BD320000BD320000BD320000AD
:10376000BD320000BD320000BD320000BD3200009D
:10377000BD320000BD320000BD320000BD3200008D
:10378000BD320000BD320000BD320000BD3200007D
:10379000BD320000BD320000BD320000BD3200006D
:1037A000B5320000312801F0EC8032287FF486AD7C
:1037B00005F0A4FC00287FF7BDAE3848384E06F06F
:1037C000F1F801226B23C6F8980022602B6001E01B
:1037D00005F058FC05F092FC0028F9D12F4805F0BF
:1037E0004DFF2E4805F04AFF2C4805F047FF2B48B7
:1037F00005F044FF294805F041FF21212A4805F042
:10380000A7FC264805F03AFF1521284805F0A0FC42
:10381000D6F89010214805F081FF0221244805F0D8
:1038200097FC1E4805F02AFF1E21224805F090FC57
:10383000D6F89810194805F071FF03211E4805F0CD
:1038400087FC164805F01AFF1E211C4805F080FC75
:10385000D6F89410114805F061FF104805F00EFFEE
:103860001D21174805F074FCD6F8A0100B4805F090
:1038700055FF0A4805F002FF1E21124805F068FCBA
:10388000D6F8A410054805F049FF044805F0F6FEF7
:10389000052323607BE500BF9494FF1FCC87FF1FA7
:1038A0003C93FF1FEC94FF1FDCFD000000FE0000B6
:1038B000ECFC000018FE000010FA000038FE0000CA
:1038C00058FE000078FE000005F018FC002840F3C8
:1038D000A082B248B24E06F065F807F029FAB14965
:1038E00007F07AFA0346024696F84010AE48736431
:1038F000D4E405F0C7FB05F001FC05460028F8D12B
:10390000A648A74E05F0BAFEA44805F0B7FEA348A6
:1039100005F0B4FEA14805F0B1FEA04805F0AEFEEA
:103920001F21A24805F014FC9C4805F0A7FE1C21AD
:103930009F4805F00DFC706A9E4907F04DFA06F0AD
:10394000A1FD009502460B46944805F0F1FE0221C8
:10395000994805F0FDFB914805F090FE232197481A
:1039600005F0F6FBF06B934907F036FA06F08AFD96
:10397000009502460B46894805F0DAFE02218E4882
:1039800005F0E6FB854805F079FE19218C4805F025
:10399000DFFBB06B06F076FD02250B460246009574
:1039A0007E4805F0C5FE2946864805F0D1FB7B48D8
:1039B00005F064FE1921844805F0CAFBB6F8B4107E
:1039C000764805F0ABFE0321804805F0C1FB734843
:1039D00005F054FE07232360D9E405F053FB05F0FE
:1039E0008DFB05460028F8D16C486D4E05F046FE6B
:1039F0006A4805F043FE694805F040FE674805F057
:103A00003DFE664805F03AFE1521714805F0A0FB21
:103A1000624805F033FE18216E4805F099FB2B46ED
:103A20000A2296F840105D4805F038FE5B4805F024
:103A300025FE2821684805F08BFB706C5D4907F076
:103A4000CBF906F01FFD00950B460246534805F0E2
:103A50006FFE0221584805F07BFB504805F00EFE32
:103A600013215E4805F074FB4C4805F007FE08235F
:103A700023608CE405F006FB05F040FB05460028BA
:103A8000F8D14648464E05F0F9FD444805F0F6FDEC
:103A9000424805F0F3FD414805F0F0FD3F4805F0D0
:103AA000EDFD11214E4805F053FB3C4805F0E6FDC5
:103AB00028214C4805F04CFB70693E4907F08CF911
:103AC00006F0E0FC009502460B46344805F030FE57
:103AD0000221394805F03CFB304805F0CFFD1621A6
:103AE000414805F035FBF069324907F075F906F0F9
:103AF000C9FC00950B460246284805F019FE022134
:103B00002D4805F025FB254805F0B8FDD6F8AC306A
:103B1000002B32DD1D21354805F01AFBF06D07F052
:103B200007F9334907F058F906F0ACFC02250246C4
:103B30000B460095194805F0FBFD01212D4805F0C5
:103B400007FB164805F09AFD1F212B4805F000FBE6
:103B5000306E07F0EDF8264907F03EF906F092FCCA
:103B6000009502460B460D4805F0E2FD0121214873
:103B700005F0EEFA094805F081FD11211F4805F016
:103B8000E7FAD6F8AC30052B00F26086DFE813F0D8
:103B900095069A065A06A906A4069F06CC87FF1F1B
:103BA0003C93FF1F6F12833AEC94FF1F38FD000017
:103BB00058FD000000007A44C4FB000078FD0000BE
:103BC0009CFD0000B8FD0000BCFD0000D8FD000019
:103BD000300401007CFB000098FB0000C8FB0000E3
:103BE000D4030100DCFB000008FC000020FC000006
:103BF000CDCCCC3DBC00010040FC000060FC0000CE
:103C000005F040FA05F07AFA0028F9D1BF48C04E15
:103C100005F034FDBD4805F031FDBC4805F02EFD32
:103C2000BA4805F02BFDB94805F028FD1F21B94819
:103C300005F08EFAB54805F021FD1E21B64805F0C5
:103C400087FAB24805F01AFD1A21B44805F080FA47
:103C5000F36F022B00F03787032B00F02B87012B2B
:103C600000F03A870921AE4805F072FAA74805F03E
:103C700005FD1421AB48A64F05F06AFAB16FA348C1
:103C800005F04CFDA14805F0F9FC1C21A64805F003
:103C90005FFAD6F880109D4805F040FD9B4805F07E
:103CA000EDFC1C21A14805F053FAD6F8A81097485E
:103CB00005F034FD954805F0E1FCF56F25F00205AF
:103CC000012D00F0B1861321994805F041FA8F4883
:103CD00005F0D4FC02232360FFF759BB05F0D2F9AD
:103CE00005F00CFA0028F9D1884805F0C7FC874890
:103CF00005F0C4FC854805F0C1FC844805F0BEFC15
:103D0000824805F0BBFC13218A4805F021FA7F4860
:103D100005F0B4FC0D21884805F01AFA7B4805F03F
:103D2000ADFC0F21854805F013FA854B77481968DB
:103D300005F0F4FC754805F0A1FC1321814805F05D
:103D400007FA814B7148196805F0E8FC6F4805F0E7
:103D500095FC12217D4805F0FBF97D4B6B481968F5
:103D600005F0DCFC694805F089FC1121794805F073
:103D7000EFF9794B6548196805F0D0FC634805F008
:103D80007DFC0E21754805F0E3F9614B5F48D3F8DF
:103D90009C1005F0C3FC5D4805F070FC19217048CB
:103DA00005F0D6F96F4B5948196805F0B7FC57482C
:103DB00005F064FC11216C4805F0CAF96B4B5348BF
:103DC000196805F0ABFC514805F058FC1021684813
:103DD00005F0BEF9674B4D48196805F09FFC4B484C
:103DE00005F04CFC1C21644805F0B2F9634B4748D0
:103DF000196805F093FC454805F040FC13214C4838
:103E000005F0A6F9414805F039FC04232360FFF7CB
:103E1000BEBA23682868FFF793B93D4E96F8400074
:103E2000FFF733BA05F06AF900287FF76BAB374824
:103E3000374E05F0B7FD06F07BFF514907F080F8DB
:103E400065230122706122602B601846FFF79AB942
:103E500005F054F900287FF755AB2C482C4E05F09F
:103E6000A1FD06F065FF464907F06AF865230122C7
:103E7000F06122602B601846FFF784B905F03EF927
:103E800000287FF73FAB2148214E05F08BFD00EB6A
:103E90008000430001226520F36522602860FFF75F
:103EA00071B905F02BF900287FF72CAB1748184E95
:103EB00005F078FD00EB80004300012265203366A9
:103EC00022602860FFF75EB9114AD2F8AC300133A6
:103ED000052BC8BF0023C2F8AC3001236520236046
:103EE0002860FFF74FB905F009F900287FF70AAB02
:103EF0000648074E05F056FD65230122C6F8B000BE
:103F000022602B601846FFF73DB900BFCC87FF1F2A
:103F10003C93FF1F7CFF00009CFF0000BCFF0000E3
:103F20003400010040000100580001007800010049
:103F3000C8FB000098FE0000ACFE0000BCFE0000C4
:103F40007494FF1FCCFE0000E494FF1FE0FE00000D
:103F5000C894FF1FF4FE0000CC94FF1F08FF000070
:103F600018FF00009894FF1F34FF00009494FF1F77
:103F700048FF00007892FF1F5CFF00005C87FF1F76
:103F800000007A447A4B93F8BC20002A00F03F8569
:103F9000002283F8BC20A0E7FEF7E8FE236828682B
:103FA000FFF7CBB8724AD36F0133032BC8BF00238E
:103FB000D3670123632023602860FFF7E3B86C4ECA
:103FC000B36FB3FA83F35B0901226320B367226006
:103FD0002860FFF7D7B8664ED6F88030B3FA83F37F
:103FE0005B0901226320C6F8803022602860FFF759
:103FF000C9B80123236005F081F80028D9DD5D48A8
:104000005B4E05F0CFFCC6F8A800D2E70123236081
:1040100005F074F8002807DD5648554E05F0C2FC3F
:1040200006F086FEC6F88C00632028602368FFF740
:1040300087B80123236005F061F80028F4DD4D48BE
:104040004B4E05F0AFFC06F073FEC6F88800EBE7B8
:104050000123236005F052F80028E5DD4548444E71
:1040600005F0A0FCA6F8B600DEE7434A1368B3FAF1
:1040700083F35B0901216420136021602860FFF74E
:1040800081B83E4AF2E73E4A3E4F1368002B0CBF10
:10409000012300234FF001001360206040F0F484FE
:1040A000034664222A606420FFF747B8364ADDE7FA
:1040B000012336482360FCF7D7FC354A236810609B
:1040C000EFE7344AD2E7344AD0E70123236005F012
:1040D00015F8002800F3A084304B1A68042AC4BFE6
:1040E00002221A6064232B602368DCE7204ED6F896
:1040F0009C30B3FA83F35B0901226420C6F89C303C
:1041000022602860FFF73EB804F0F8FF00280DDDBC
:104110001848174E05F046FC06F00AFE204906F046
:104120000FFF01226223306222602B6004F0E6FF61
:1041300000280EDD0F480E4E05F034FC06F0F8FDA9
:10414000174906F0FDFE01226223C6F8B80022607E
:104150002B6004F0D3FF002840F3D1830548044EC0
:1041600005F020FC01226223B06622602B601BE078
:104170003C93FF1FCC87FF1F7494FF1FE494FF1F25
:10418000C894FF1F9092FF1FCC94FF1FEC94FF1F59
:104190009894FF1F9494FF1F7892FF1F5C87FF1F66
:1041A00000007A4404F06EFF04F0A8FF05460028E2
:1041B000F8D1C24805F062FAC04805F05FFABF487E
:1041C00005F05CFABD4805F059FABC4805F056FA0E
:1041D0001521BB4804F0BCFFB84805F04FFA142184
:1041E000B84804F0B5FFB54805F048FA1B21B648B9
:1041F00004F0AEFFB14805F041FA1321B34804F0D2
:10420000A7FFAE4805F03AFAAC4805F037FAAB48DC
:1042100005F034FA2021AE4804F09AFFF068AD4969
:1042200006F0DAFD06F02EF9009502460B46A3488B
:1042300005F07EFA0221A84804F08AFF0221A7486F
:1042400004F086FF9D4805F019FA2121A44804F0E6
:104250007FFF30699F4906F0BFFD06F013F9009516
:1042600002460B46954805F063FA02219A4804F08D
:104270006FFF0221994804F06BFF904805F0FEF9AA
:104280001F21984804F064FFB06A06F0FBF802278B
:1042900002460B460097894805F04AFA01219248E8
:1042A00004F056FF39468D4804F052FF834805F06C
:1042B000E5F920218D4804F04BFFF06A06F0E2F8A2
:1042C000009702460B467D4805F032FA01218648E8
:1042D00004F03EFF3946814804F03AFF774805F084
:1042E000CDF92321824804F033FFB06C794906F000
:1042F00073FD06F0C7F8009502460B466F4805F0BF
:1043000017FA3946744804F023FF3946734804F01D
:104310001FFF6A4805F0B2F91F21764804F018FF24
:10432000F06C6C4906F058FD06F0ACF800950246BA
:104330000B46624805F0FCF93946674804F008FF6F
:104340003946664804F004FF5C4805F097F91921E6
:10435000694804F0FDFEB16D584805F0DFF93946B3
:10436000664804F0F5FE39465C4804F0F1FE534817
:1043700005F084F91821624804F0EAFE706E06F038
:10438000D7FC604906F028FD06F07CF8009702464D
:104390000B464A4805F0CCF901215B4804F0D8FEF1
:1043A00039464E4804F0D4FE444805F067F92B2105
:1043B000564804F0CDFEB069464906F00DFD06F002
:1043C00061F8009502460B463C4805F0B1F93946C4
:1043D000414804F0BDFE3946404804F0B9FE374874
:1043E00005F04CF91F214A4804F0B2FE716D3348C4
:1043F00005F094F93946394804F0AAFE2F4805F033
:104400003DF92021434804F0A3FE316D2B4805F00F
:1044100085F93946314804F09BFE284805F02EF90D
:1044200010213D4804F094FEB16E244805F076F961
:104430003946294804F08CFE3946284804F088FEA5
:104440001E4805F01BF91321344804F081FEF16E7B
:104450001A4805F063F90121314804F079FE394624
:104460001E4804F075FE154805F008F910212D4886
:1044700004F06EFE316F114805F050F939461648C8
:1044800004F066FE3946154804F062FE0B4805F05C
:10449000F5F81421244804F05BFE716F074805F01D
:1044A0003DF901211E4804F053FE39460B4804F043
:1044B0004FFE024805F0E2F8162137E0CC87FF1FD7
:1044C000040101001C01010034010100C8FB0000CF
:1044D0005001010000007A44C4FB0000EC0401001C
:1044E0007401010098010100B8010100BC01010044
:1044F000E001010004020100240201004002010069
:1045000044020100CDCCCC3DBC00010060020100A2
:104510008C020100AC020100D0020100E4020100A3
:10452000F8020100FC02010010030100BA4804F087
:104530000FFE306AB94906F04FFC05F0A3FF009565
:1045400002460B46B64805F0F3F83946B54804F084
:10455000FFFD3946B44804F0FBFDB14805F08EF884
:104560002421B24804F0F4FDD6F8B800AB4906F0B7
:1045700033FC05F087FF00950B460246A84805F07E
:10458000D7F83946A74804F0E3FD3946A64804F0B9
:10459000DFFDA34805F072F8A14805F06FF803238A
:1045A0002360FEF7F4BE04F0A9FD002840F3A781C4
:1045B0009B489F4E05F0F6F906F0BAFB974906F0C6
:1045C000BFFC01226223306122602B60ECE504F025
:1045D00095FD002840F393819148954E05F0E2F94E
:1045E00006F0A6FB01226223B06222602B60DBE5AD
:1045F00004F084FD002840F3828189488C4E05F048
:10460000D1F906F095FB01226223F06222602B6053
:10461000CAE504F073FD002840F371818048844EA0
:1046200005F0C0F906F084FB7C4906F089FC012204
:104630006223B06422602B60B6E504F05FFD0028C1
:1046400040F35D8176487A4E05F0ACF90122622391
:10465000306522602B60A7E50022732322602B6067
:10466000FEF734BE734B7048714E002202211A606F
:1046700004F06EFD6A4805F001F80B216E4804F065
:1046800067FD0221684804F063FD654804F0F6FF09
:104690000122622322602B6086E504F02FFD0028B2
:1046A00040F32D815E48624E05F07CF901226223C1
:1046B000706722602B6077E5FCF7CCFF02215A4837
:1046C0005B4E04F045FD564804F0D8FF02215648E1
:1046D00004F03EFD524804F0D1FF0221524804F09C
:1046E00037FD4F4804F0CAFF1721544804F030FD4D
:1046F0004B4804F0C3FFC4E704F000FD002840F37A
:10470000FE8047484A4E05F04DF906F011FB43493B
:1047100006F016FC01226223F06022602B6043E564
:1047200004F0ECFC002840F3EA803D48404E05F0E0
:1047300039F906F0FDFA394906F002FC012262233C
:10474000F06422602B602FE504F0D8FC002840F3D1
:10475000D6803348364E05F025F901226223B06534
:1047600022602B6020E504F0C9FC002840F3C780DC
:104770002B482F4E05F016F900EB80004300012175
:104780006222736621602A600EE504F0B7FC0028FF
:1047900040F3B5802248264E05F004F906F0C8FA29
:1047A0001E4906F0CDFB01226223B06122602B601E
:1047B000FAE404F0A3FC002840F3A18018481C4E42
:1047C00005F0F0F801226223F06622602B60EBE432
:1047D00004F094FC002840F392801148144E05F038
:1047E000E1F801226223306722602B60DCE403F0F1
:1047F00079FFC02200210E4802F080FE2868104A8E
:10480000A0F1730001210023B0FA80F0400911608B
:104810002360FEF759BD00BF2803010000007A4461
:10482000CC87FF1FC4FB0000EC0401004003010023
:104830003C93FF1F6C92FF1F70FB000058FB0000B1
:104840003C87FF1F0C21BB4804F082FCBA48BB4DDB
:1048500004F014FFD6F8AC30002B12DD1821B84854
:1048600004F076FCD5F8B010B34804F057FF0221ED
:10487000B44804F06DFCB04804F000FFAE4804F00A
:10488000FDFE1B21B04804F063FC96F8BC30012B00
:1048900015BF12211421AD48AD4804F059FCA648BB
:1048A00004F0ECFE1321AB4804F052FCA24804F0E3
:1048B000E5FE06232360FEF76ABD0D21A64804F03D
:1048C00047FCC3E70C21A54804F042FCBEE70B21DE
:1048D000A34804F03DFCB9E70D21A24804F038FCE0
:1048E000B4E70D21A04804F033FCAFE72368002BA8
:1048F00008BF73280CBF01200020FEF7E5BC236829
:104900002868012B7EF4DAACFEF73CBC04F0F6FB21
:1049100000287EF767AD8848884E05F043F861238C
:104920000122A6F8B40022602B601846FEF72ABCCC
:1049300004F0E4FB00287EF755AD7F487F4E05F07C
:1049400031F806F0F5F961230122B06322602B6093
:104950001846FEF717BC04F0D1FB00287EF742ADE5
:104960007548764E05F01EF806F0E2F97F4906F02C
:1049700033FA61230122706222602B601846FEF731
:1049800001BC04F0BBFB00287EF7D4AD6A486B4E37
:1049900005F008F801226B23C6F8900022602B6016
:1049A000FEF718BF04F0AAFB00287EF7C3AD6248EB
:1049B000624E04F0F7FF01226B23C6F894002260D8
:1049C0002B60FEF707BF04F099FB00287EF7B2AD1D
:1049D00059485A4E04F0E6FF654BC6F8A000022283
:1049E0001A60FDF77BF901226B2322602B60FEF732
:1049F000F1BE04F083FB00287EF79CAD4E484F4E7D
:104A000004F0D0FF5A4BC6F8A4000322E8E70122C5
:104A100083F8BC20FFF761BA474804F0C3FF554B49
:104A200002461860FFF75ABB1C21534804F090FB64
:104A3000D7F88C00514906F0CFF905F023FD009519
:104A400002460B463C4804F073FE05214C4804F036
:104A50007FFB394804F012FEFD6F012D45D0032D78
:104A60007FF431A91C21474804F072FBB6F8B61058
:104A7000314804F053FE0321434804F069FB2E48FB
:104A800004F0FCFDFFF71FB9404B002631460B2018
:104A90001E6002F0FFFF31460C2002F0FBFF3146A2
:104AA000142002F0F7FF3146152002F0F3FF3B68B7
:104AB000FFF7F7BA2021364804F04AFB1E4804F0FD
:104AC000DDFDFFF7D6B81721324804F041FB1A4844
:104AD00004F0D4FDFFF7CDB81E212F4804F038FBB9
:104AE000154804F0CBFDFFF7C4B81D212B4804F096
:104AF0002FFBD7F88800214906F06EF905F0C2FCBB
:104B000000950B4602460C4804F012FE05211C4895
:104B100004F01EFB084804F0B1FDFB6F23F0020314
:104B2000012B9FD0FFF7CFB8044EFFF73DBB034EDC
:104B3000FEF750BE94FC0000CC87FF1F3C93FF1F84
:104B4000D0FC0000ECFC0000F0FC00000CFD0000BC
:104B500020FD0000C8FB000074FC000084FC000085
:104B6000C4FC0000B4FC0000A4FC00006F12833AF7
:104B70009494FF1F5C87FF1F98000100CDCCCC3DB3
:104B8000B8000100E000010000010100E094FF1FF7
:104B9000F8FF00001C000100D8FF0000C000010069
:104BA00038B5164C164A2368101D12F8011F9042A2
:104BB00041EA0323F9D12360124C03F1004323603F
:104BC000114BDB6F022B11D0104B1B68012B00D057
:104BD00038BD0F4804F052FD21680D4804F09EFDD9
:104BE00003210C48BDE8384004F0B2BA20680A4DF1
:104BF00006F09EF82860FDF733FBE5E75092FF1FB3
:104C00008B94FF1FAC94FF1F3C93FF1F7494FF1FF6
:104C1000CC87FF1F7C0401007092FF1F30B53C4C15
:104C20003C4883B0214601F087FC236840F2C23241
:104C3000934252D0A3F58C621F2A48D9A3F5FC6396
:104C40000F2B3FD9344B1B68012B01D003B030BD73
:104C5000324B1B68012BF9D1314B32481B68019351
:104C60000A220023019904F019FD2268284B002A2A
:104C7000DB7945DB2C492D4807F076F82B4807F007
:104C80009FF80146294804F063FA2568204B15F087
:104C9000804526D1DB798BB1631925491A7A2348DF
:104CA00007F062F8214807F08BF801461F4804F02E
:104CB0004FFA0135E379EDB2AB42EDD8194804F073
:104CC000DDFCC3E712491B48FBF7F8FEBAE71049C1
:104CD0001848FBF7F3FE2368B0E7FFF761FF23688E
:104CE000A8E7154D114C0FCD0FC495E8030044F80B
:104CF000040B204620F81419152104F029FADDE7E9
:104D00000E490A4822F0604207F02EF8B6E700BFCD
:104D10008494FF1F14B5FF1F3C87FF1F7494FF1F6F
:104D2000BCB6FF1FCC87FF1FA80401009492FF1F91
:104D3000D4040100EC94FF1FBC04010080040100B6
:104D40002DE9F84F9A4B9B4C1B78052B08D09A48BD
:104D5000FCF72AF8E16A06F0DDF9002800F09380FC
:104D6000964E974D002333602B60964B92481B68FC
:104D7000904F012B45D0FBF7C1FFE1698046606988
:104D800005F020FF0146404606F0E2F900284CD12C
:104D90008948FBF7B3FFE16806F0DAF908B10023B0
:104DA0002B608548834FFBF7FBFE216906F0B2F9C3
:104DB00058B1002333602B68814A002B01DBBDE82A
:104DC000F88F00231360BDE8F88F7B48FBF7E8FEFF
:104DD000B96906F09FF90028EBD17748FBF7E0FEB0
:104DE000D7F8B8100446B86905F0EEFE0146204633
:104DF00006F0AEF9002873D0786E30600028D8DB5A
:104E0000D9E7FBF77BFFE1698046206A05F0DAFE0F
:104E10000146404606F09CF90028B9D06648FBF7E9
:104E20006DFFD7F82090834605E06348FBF766FFE7
:104E3000D7F814908346F969484605F0C3FE8246C8
:104E4000F86D05F075FF8046386E05F071FF41463C
:104E500005F0B8FE51460746584605F0B3FE014638
:104E6000384605F0B9FF51460746484605F0AAFE08
:104E70000146384606F064F8414605F0A5FE06F006
:104E800071F9286084E74C48FBF78EFF216B06F030
:104E900041F9002849D0494E636E47483360FBF71B
:104EA00083FF8146E06DE76A454D05F041FF3946D5
:104EB0008046484605F086FE0146404605F08CFFD8
:104EC00039468046206B05F07DFE0146404606F0DF
:104ED00037F8002105F078FE06F044F9286044E731
:104EE0003548FBF75DFE8146F86DBC6905F020FF93
:104EF00021468046484605F065FE0146404605F0DD
:104F00006BFFD7F8B8108046204605F05DFE2146BD
:104F100005F058FE0146404606F012F8002105F063
:104F200053FE06F01FF9306068E72348FBF73CFFAB
:104F3000616B06F0EFF830B1204E214D626EE36DEB
:104F400032602B6011E71C48FBF72EFFA16A06F0C8
:104F5000E1F800283FF404AF1748184E184DFBF74E
:104F600023FF8146606ED4F8348005F0E1FE4146AF
:104F70000746484605F026FE39468146002005F0E2
:104F800021FE0146484605F027FF41468146A06ABA
:104F900005F018FE0146484605F0D2FF394605F0F7
:104FA00013FE06F0DFF8E36D30602B60DDE600BF36
:104FB000A494FF1F3C93FF1FEC94FF1FB094FF1FAE
:104FC0005892FF1F7492FF1F08B5274804F056FB44
:104FD0000721264804F0BCF8112002F061FD0621EB
:104FE000F8B1234804F0B4F8122002F059FD06216C
:104FF00000B3204804F0ACF8122002F051FD062165
:1050000008B31D4804F0A4F8132002F049FD06215E
:1050100010BB1A4804F09CF81348BDE8084004F09F
:105020002DBB174804F094F8122002F039FD062138
:105030000028DED1134804F08BF8122002F030FD76
:1050400006210028DDD1104804F082F8132002F078
:1050500027FD06210028DCD00C4804F079F802482E
:10506000BDE8084004F00ABBCC87FF1FE004010044
:10507000E8040100F8040100080501002005010012
:10508000F0040100000501001005010018050100F1
:1050900010B5254C2368042B27DC01210B2002F0DE
:1050A000F9FC01210C2002F0F5FC0121142002F092
:1050B000F1FC0121152002F0EDFCFF21162002F089
:1050C00069FBFF21172002F065FBFF21052002F09C
:1050D00061FBFF21062002F05DFB236801330A2BF0
:1050E0002360C4BF0023236010BD00210B2002F009
:1050F000D1FC00210C2002F0CDFC0021142002F094
:10510000C9FC0021152002F0C5FC0021162002F088
:1051100041FB0021172002F03DFB0021052002F099
:1051200039FB0021D6E700BFC494FF1F10B5092149
:1051300082B0974802F0C8FF222002F06DFF954B25
:105140001B78052B0BD8DFE813F00A010F011401BF
:1051500019011E01060007218F4802F0B5FF222029
:1051600002F05AFFFF2002F057FFFF2002F054FF29
:105170008A4CFF2002F050FF0821894802F0A4FF6A
:105180002168884804F0CAFAFF2002F045FFFF209A
:1051900002F042FFFF2002F03FFF0921824802F0A7
:1051A00093FF21687F4804F0B9FAFF2002F034FF32
:1051B000FF2002F031FFFF2002F02EFF0C217B4880
:1051C00002F082FF7A4B1C680021204605F0C0FFE8
:1051D000002800F0C1802046764905F0B1FE05F0B8
:1051E00051F9002402460B4600946E4804F0A0FAE0
:1051F000FF2002F011FFFF2002F00EFFFF2002F05F
:105200000BFF09216C4802F05FFF6C48FBF7CCFDF7
:1052100005F038F9009402460B46624804F088FA1B
:10522000FF2002F0F9FEFF2002F0F6FEFF2002F060
:10523000F3FE0C21624802F047FF6048FBF714FEC2
:1052400005F020F9009402460B46564804F070FA27
:10525000FF2002F0E1FEFF2002F0DEFEFF2002F060
:10526000DBFE0D21574802F02FFF5448FBF7FAFDF3
:1052700005F008F9009402460B464A4804F058FA33
:10528000FF2002F0C9FEFF2002F0C6FEFF2002F060
:10529000C3FE09214C4802F017FF4848FBF754FDB4
:1052A00005F0F0F8009402460B463E4804F040FA40
:1052B000FF2002F0B1FEFF2002F0AEFEFF2002F060
:1052C000ABFE0C21414802F0FFFE3C48FBF768FCB6
:1052D000384905F081FD05F0D5F8009402460B46EB
:1052E000304804F025FAFF2002F096FEFF2002F07D
:1052F00093FEFF2002F090FE0D21354802F0E4FEFF
:105300002E48FBF7FBFC2B4905F066FD05F0BAF8CB
:10531000009402460B46234804F00AFAFF2002F0EC
:105320007BFEFF2002F078FEFF2002F075FE0921CF
:10533000284802F0C9FE284B1A48196804F0EEF913
:10534000FF2002F069FEFF2002F066FEFF2002B09F
:10535000BDE8104002F060BE04F100403CE70621C9
:105360001E4802F0B1FEFAE607211D4802F0ACFE2D
:10537000F5E607211B4802F0A7FEF0E608211A48CF
:1053800002F0A2FEEBE60B21184802F09DFEE6E6D5
:1053900028050100A494FF1F94F900003487FF1F23
:1053A00034050100BC87FF1F400501004C050100CA
:1053B0008092FF1F00007A445C050100EC94FF1FFF
:1053C00068050100780501008805010094050100C9
:1053D000A4050100B40501002487FF1F64F9000043
:1053E0006CF9000080F9000088F9000074F90000F1
:1053F0002DE9F0418D4DD5F8AC30042B3ED0032B78
:105400006ED0012B00F09880022B01D0BDE8F08116
:10541000874C8848237240F20E32012321462260D5
:10542000E37101F091F9844B1B685B00FF2BC8BF4F
:10543000FF23042140224FF441702060E171227269
:105440006372286D05F074FC696905F0C5FC7B4941
:10545000054605F07DFE002800F0DE80294628463E
:1054600005F0B2FB05F0A4FE80B20312E072A37255
:105470006F497048BDE8F04101F066B96C4C704A64
:10548000A379226043F001030822E271A371286D21
:1054900005F04EFC696905F09FFC6A4905F09CFC2B
:1054A00005F086FE644B684A1B68126893FBF2F3B2
:1054B00080B200261A120712607221465D48E3721C
:1054C000A272277226736673A673E67301F03CF925
:1054D000A279D5F8AC3066F30002032BA27190D10B
:1054E000534C286DA3720122E823072140F2FF26C6
:1054F000227263722660E17105F01AFC696905F099
:105500006BFC504905F068FC05F052FE4A4B4E4AD0
:105510001B68126893FBF2F382B21E121712214627
:1055200044486373E2722773A67301F00DF9D5F84E
:10553000AC30012B7FF468AF444B3D4C1B682360BB
:10554000072280231020E271237202F0A9FA0028BA
:1055500069D13F4B1B68DFF8E0803B4F286D344E2C
:1055600003EB83035B001A12A3726272D8F8003057
:105570003A6893FBF2F31A126273A37305F0D8FB37
:10558000696905F029FC334B196805F01BFB2D49AF
:1055900005F022FC05F00CFE80B2031231462073A8
:1055A0002448E37201F0D0F8022002F0AFFA2A4B4F
:1055B0001B682360072280231020E271237202F00F
:1055C0006FFA70BB224B1B68286D03EB83035B00F3
:1055D0001A127272B37205F0ABFB696905F0FCFB3D
:1055E0001E4B196805F0EEFA164905F0F5FB05F0BB
:1055F000DFFD82B216123868D8F80030227393FBB0
:10560000F0F30B490B48A3731A12E672627301F0B0
:105610009BF8D5F8AC30F7E601229023A272E37232
:1056200026E70F4BCFE70E4B94E700BF3C93FF1FDD
:10563000D094FF1F14B5FF1F5892FF1F000048436E
:10564000F4E50618000020414C87FF1F6087FF1F0C
:105650004487FF1F0494FF1F6487FF1F8892FF1F6A
:105660004887FF1F2DE9F04F95B001E0FFF7D6FA0C
:10567000AB4800F02BFF0028F8D103F03FFD0028D5
:1056800001DDFDF74DFDA74EA74D3368012B12D06C
:10569000FDF784FAD5F89C40012C74D0A34F3B78D9
:1056A000052B00F23B81DFE813F0A6016F012B010F
:1056B000FE01CA01D1019E4C23689E4A0B930B9BAD
:1056C00011689B4F5B1AB3F5FA7F36D823689A4E60
:1056D0001093109B316841F288325B1A93421CD8B8
:1056E0002368964A1293129B1068D5F8B0108E4C1E
:1056F0008F4D1B1A8B420DD92B681393D4F89C3015
:1057000013991160012B00F0F681884B1B78032B55
:1057100000F0F18115B0BDE8F08F8948FBF786F9FC
:10572000002800F01782814B1A78052A00F0E081EA
:1057300023681193119B3360D2E73B680C930C9B59
:105740007F481360FBF7E0F9D5F89C30DFF8D8818B
:10575000012B00F088807A48FBF722FAD8F8101065
:1057600005F0D8FC002800F04E822368754A0D939E
:105770000D9B12689A427BD96C49734B052002221B
:1057800008701A6074E0694B1B78052B00F0C68026
:105790006E4FDFF8F0813B68112043F004033B605B
:1057A00002F07EF9D8F80030002800F0FA810BB939
:1057B000C8F8004062485C4CFBF7A0FAA96C05F001
:1057C000C7FC002840F0D882614B00221A60D8F84C
:1057D00000805B48B8F1010F00F0A582FBF78EFA5C
:1057E000E968DFF8448105F0B3FC002800F0F1829D
:1057F0004F4C0021142002F04DF922683B680492BE
:10580000544A0498106003F0FD035349534A3B6027
:1058100001206423086013604948DFF80C81FBF71E
:10582000BFF9296905F076FC002800F05E820021AE
:105830000B2002F02FF922683B680792484A07992B
:10584000116003F0FE033B603D48374FFBF7A8F9BA
:10585000296905F05FFC002800F0308201210C204E
:1058600002F018F9E2E03F4B1B68002B40F0DE81AC
:105870003D4B1B68002B40F065813C4F3B68002B83
:1058800040F084813A4B1B68002B40F07C813368E8
:10589000002B00F05481FFF7FBFBFCF791FFFFF7B3
:1058A0004FFAFDF725FB334B334E1D484FF4007282
:1058B0001A60194600224FF003094FF0020883F8DE
:1058C000079083F808805A729A7200F03DFF33689F
:1058D0001B48002B40F01481FBF7C6F83060FCF742
:1058E00067F93B68012B01D0FFF720FC72B6234B10
:1058F0004AF202614BF2804219801A8062B6E5E6F4
:105900001F4B012411201C6002F0CAF800B93C7042
:10591000122002F0C5F8012800F06281044C85E0F5
:1059200014B5FF1FC894FF1F3C93FF1FA494FF1FD3
:10593000BCB6FF1F6092FF1F5C92FF1F8492FF1F87
:10594000EC94FF1F5492FF1F0094FF1FE094FF1F71
:10595000C094FF1FE894FF1FA094FF1F3487FF1F10
:105960001094FF1F6C92FF1F3C87FF1F7892FF1F50
:10597000CC94FF1FD094FF1F9894FF1F0C2005406C
:10598000BC94FF1F7492FF1FBA4BDFF80083002402
:10599000214615201C6002F07DF82146142002F0FB
:1059A00079F821460C2002F075F821460B2002F010
:1059B00071F8B14BB1481C60FBF7A0F9A96C05F078
:1059C000C7FB002840F0F680AD4B00221A60122081
:1059D00002F066F8012800F03F82AA4C112002F084
:1059E0005FF8012822D123680A93A74B0A9A1A600C
:1059F00004233B701AE09F4BA24C4FF00008414635
:105A00001520C3F8008002F045F84146142002F04A
:105A100041F841460C2002F03DF841460B2002F0CF
:105A200039F8954A0123C2F800803B70EB6F23F0F0
:105A30000203012B7FF440AEFCF712FC3CE68D4BD9
:105A4000904C00221A60FDF74FF8EFE7894B0024D5
:105A5000214615201C6002F01DF82146142002F09A
:105A600019F821460C2002F015F80B20214602F00F
:105A700011F8814B11201C6002F012F800287FF40D
:105A80004DAF7E48814CFBF78BF8296905F056FB3A
:105A900000283FF443AF7948FBF730F9E16805F09F
:105AA0004DFB08BB3AE7734B0022012114201A601A
:105AB00001F0F0FF7148FBF721F9A96C05F048FBF4
:105AC0006F4B002873D118606C48704CFBF716F9C7
:105AD000696905F03DFB002840F06381122001F068
