:1000000000800020BD010000E1850000998500000E
:100010009985000099850000998500009985000068
:10002000998500009985000099850000E185000010
:10003000E185000099850000F97B0000FD7C00004F
:10004000E1850000E1850000E1850000E185000018
:10005000E1850000E1850000E1850000E185000008
:10006000E1850000E1850000E1850000E1850000F8
:10007000E1850000E1850000E1850000E1850000E8
:10008000E1850000E1850000E1850000E1850000D8
:10009000E1850000E1850000E1850000E1850000C8
:1000A000E1850000E1850000E1850000E1850000B8
:1000B000E1850000E5710000F1710000F5710000BC
:1000C000017200000572000009720000E185000065
:1000D000E1850000E1850000E1850000E185000088
:1000E000E1850000E1850000E1850000E185000078
:1000F000E185000029A70000E1850000D5920000FD
:10010000E1850000A1940000E1850000E185000088
:10011000E1850000E1850000E1850000E185000047
:10012000E1850000E1850000E1850000E185000037
:10013000E1850000E1850000E1850000E185000027
:10014000E1850000E1850000E1850000E185000017
:10015000E1850000E1850000E1850000E185000007
:10016000E185000031970000E1850000E185000095
:10017000E1850000E1850000E1850000E1850000E7
:10018000E1850000E1850000E1850000E1850000D7
:10019000E1850000E1850000E1850000E1850000C7
:1001A000E1850000E1850000E1850000E1850000B7
:1001B000E1850000E1850000E1850000564B4CF22E
:1001C000205210B51A804DF628121A8000BF00BFC9
:1001D00008F00AFA514B4FF010621A60504A9A60C8
:1001E000504ADA60504A136813F4807304D14F49BF
:1001F0000B604FF4A85313604D4B1A78110703D5C9
:100200001A7842F008021A704A4B4B492A221A7097
:100210004A4A4B4B8B4204D252F8040F43F8040B6A
:10022000F8E7484B484900228B4202D243F8042B9E
:10023000FAE74649464A002352F8230041F82300D2
:1002400001336F2BF8D1434B434A802103F8011B44
:100250009342FBD1414B3D4A1A60414B8A221A70AE
:10026000A3F5805324225A70A0221A709A7992071B
:10027000FCD59A79D406FCD43A4A937903F00C035E
:10028000082B384BF9D103221A7140225A719A79FE
:100290009006FCD5334A9179324B4906FBD5324A58
:1002A000324911600221516020221A709A7902F0BD
:1002B0000C020C2AFAD12E4B2E4A1A602E4B2F4AD2
:1002C0001A6000225A60072243F8042C2C4AC3F813
:1002D0000C2D62B608F068FC144B1B68DA0705D5D4
:1002E000284808F045FA284B284A1A60284B1B7802
:1002F0005B0609D5244C254B22689A4204D121483B
:1003000008F036FA002323600BF0F0FC08F072F9D5
:1003100008F0A0F8FEE700BF0E2005403080044042
:10032000823F04000100002B10D0034014D0034092
:1003300002D0074000E007402892FF1F3417010059
:100340002087FF1F2892FF1FB0B9FF1F0082FF1FE9
:100350000000000000E400E05FE400E008ED00E0E1
:100360000050064000400640448004400000030165
:1003700004800440C010050014E000E0FF76010096
:10038000000020202149D85D1CE00340A5C3945AF9
:1003900000F00740FFFFFFFFFFFFFFFFFFFFFFFF32
:1003A000FFFFFFFFFFFFFFFFFFFFFFFFFFFFFFFF5D
:1003B000FFFFFFFFFFFFFFFFFFFFFFFFFFFFFFFF4D
:1003C000FFFFFFFFFFFFFFFFFFFFFFFFFFFFFFFF3D
:1003D000FFFFFFFFFFFFFFFFFFFFFFFFFFFFFFFF2D
:1003E000FFFFFFFFFFFFFFFFFFFFFFFFFFFFFFFF1D
:1003F000FFFFFFFFFFFFFFFFFFFFFFFFFFFFFFFF0D
:10040000FFFFFFFFFFFFFFFFFFFFFFFFDEF9FFFF23
:1004100010B5054C237833B9044B13B10448AFF33E
:1004200000800123237010BD2892FF1F00000000F0
:1004300030170100084B10B51BB108490848AFF34D
:1004400000800848036803B910BD074B002BFBD0A0
:10045000BDE81040184700BF000000002C92FF1FAD
:10046000301701002892FF1F000000002DE9F04125
:10047000002600F5C67400F5D0774FF0000854F858
:10048000045F0E4928460BF0DBFB0D4950B12846AE
:100490000BF0B8FB30B1304629460BF00DF908F1EE
:1004A0000108064640460BF0BBF9014630460BF00A
:1004B000BFFABC420646E2D1BDE8F0810000A0C10F
:1004C00000001643F0B4194F0024031F00F180010F
:1004D00000F5827200F17C0643F8044FB34241F804
:1004E000047F4FF0000542F8044FF5D10023104A75
:1004F0001049C0F88C51C0F89051C0F89451C0F820
:100500009851C0F89C51C0F8A051C0F8B051C0F843
:10051000A421C0F8AC21C0F8A81180F8B83180F847
:10052000B93180F8D031F0BC704700BF0000A04066
:10053000000048430000C8C238B590F8D0310B2BFA
:100540000546144607D8702966D0E02931D06029C5
:1005500000F09B8038BD70293AD0E02929D060296D
:10056000F8D1137A507A1B0203F47063181805D07F
:100570000BF056F963490BF0A7F96860A37AE07AAB
:100580001B0203F47063181805D00BF049F95D499C
:100590000BF09AF9A860237B607B1B0203F4706365
:1005A0001818D7D00BF03CF956490BF08DF9E860DC
:1005B00038BDE37BA07B03EB00200BF031F95249FF
:1005C0000BF082F951490BF077F8C5F8900138BD6E
:1005D000137A507A1B0203F4FE43181805D00BF06F
:1005E0001FF948490BF070F96861A07AE37A13EBC0
:1005F000002005D00BF014F942490BF065F9A86111
:10060000207B637B13EB0020A4D00BF009F93D495C
:100610000BF05AF9E86138BD137A507A1B0203F4E3
:100620007063181805D00BF0FBF836490BF04CF945
:100630006861A37AE07A1B02C34208D003F47063B6
:1006400018440BF0EDF82F490BF03EF9A861237B1D
:10065000607B1B02C34208D003F4706318440BF0A4
:10066000DFF828490BF030F9E861A37BE07B1B023F
:10067000C3423FF46FAF03F4706318440BF0D0F83B
:1006800020490BF021F9286238BD137A507A1B02F9
:1006900003F4FE42C24208D003F4706318440BF026
:1006A000BFF818490BF010F96860A37AE07A1B02D2
:1006B000C34208D003F4706318440BF0B1F8114939
:1006C0000BF002F9A860237B607B1B02C34208D0B9
:1006D00003F4706318440BF0A3F80A490BF0F4F824
:1006E000E860A37BE07B1B02C3423FF433AF03F41B
:1006F000706318440BF094F802490BF0E5F8286198
:1007000038BD00BF0AD7A33ADDB504BD00001643CB
:10071000D0F8DC01704700BF90F8C001704700BFFF
:1007200090F8BC01704700BF90F8C401704700BF4B
:1007300090F8C801704700BF202994BF50F82100ED
:10074000002070472DE9F0410B4E8046041F00F158
:100750007C0754F8045F314628460BF053FA30B159
:10076000D8F8B41128460BF06BFA00B12E46BC4203
:10077000EFD13046BDE8F081000020412DE9F04185
:10078000D0F8B4714FF00008041F00F17C0654F853
:10079000045F394628460BF053FA084948B1284609
:1007A0000BF030FA414620B128460BF049FA00B16F
:1007B000A846B442EBD14046BDE8F0810000A0401D
:1007C0002DE9F0470023D0F8B471C0F8DC3182463F
:1007D0001C464FF000099846061F56F8045F38463D
:1007E00029460BF00FFA0E4960B128460BF00AFAC1
:1007F00040B1484629460AF05FFF08F101088146EA
:10080000CAF8DC410134202CE7D1CAF8D481404633
:100810000BF006F8014648460BF00AF9BDE8F087F0
:1008200000007042D0F8D401704700BFD0F8CC313E
:1008300070B5044683BBFFF719FE4FF07C510BF0F7
:10084000FFF940B3D4F890614FF07C5130460BF083
:10085000F7F9D4F8945118BBD4F898414FF07C5173
:1008600028460BF0EDF958B1294630460BF0E8F96F
:1008700030B1214628460BF0C5F908B12C4625E0D9
:100880004FF07C5120460BF0DBF920B12846214681
:100890000BF0D6F9A0B970BD633350F82300CCE754
:1008A000304629460BF0AEF9D4F898410028D5D04F
:1008B000304621460BF0A6F90028CFD0344605E09B
:1008C000304621460BF0BCF90028E4D0204670BD2C
:1008D00038B5D0F89441D0F89051214628460BF015
:1008E00091F900B92C46204638BD00BFD0F8CC3174
:1008F0000BB9FFF7BBBD633350F82300704700BF4F
:100900002DE9F8434FF00008D0F8B471C0F88C819D
:100910008146041F00F17C0654F8045F39462846DE
:100920000BF08EF9084950B128460BF06BF930B145
:10093000404629460AF0C0FE8046C9F88C01B44200
:10094000EAD14046BDE8F8830000704202299ABF10
:10095000643150F821000020704700BF102998BF73
:1009600080F8D011704700BF90F8D001704700BFE9
:1009700090F8B801704700BFC0F8CC11704700BFB5
:1009800080F8B811704700BF80F8B911704700BFF8
:1009900030B5C0F8B41183B008460AF0EBFA074C42
:1009A000022502460B460095204607F0ADFA204688
:1009B00003B0BDE8304007F04FBA00BFC887FF1F43
:1009C00070B500F500550646183500F1380420468C
:1009D00004F5F074FFF776FDAC42F8D106F5067524
:1009E000012428460021FFF7CBFF21462846013489
:1009F000FFF7B4FF112C05F5F075F2D142F2200497
:100A000000250548054A064B3555002130627162C4
:100A1000B262F362304670BD00007A440000484381
:100A20000000C8C242F224032DE9F041002200F583
:100A3000F15500F500578046C2501835243700F5AF
:100A4000067403E004F5F074AC420ED02046FFF7C4
:100A50008FFF0028F6D020463E68FFF7E3FE04F53E
:100A6000F0743044AC423860F0D142F2240358F8BC
:100A70000300BDE8F08100BFF8B50F46096801F03A
:100A80000F050135C5EB051400EB441000F13804E7
:100A9000204601F0F006FFF767FF854203D02946A4
:100AA0002046FFF75BFF20460121FFF769FF204644
:100AB0000121FFF769FF3A4631462046BDE8F8407C
:100AC000FFF73ABD70B5002300F5005605460361F7
:100AD000183600F5067403E004F5F074A64223D03E
:100AE0002046FFF745FF0028F6D02046FFF708FF15
:100AF000014628690AF0E0FD28612046FFF796FECE
:100B0000A96A0BF07FF820BB2046FFF7E1FEE96AF7
:100B10000BF096F80028DFD02046FFF7D9FE04F549
:100B2000F074A642E862DBD168690AF079FE0146FA
:100B300028690AF07DFF696A286104460BF080F895
:100B400000B16C62296A20460BF05CF800B12C629F
:100B500070BD2046FFF76AFEA862D5E770B5124B5C
:100B6000836100F500550646183500F5067403E06C
:100B700004F5F074AC4214D02046FFF7F9FE0028CB
:100B8000F6D02046FFF7DEFDB1690BF03BF80028F8
:100B9000EED02046FFF7D6FD04F5F074AC42B0610C
:100BA000EAD1B06970BD00BF0000A04070B500235D
:100BB00000F500550646C361183500F5067403E0DC
:100BC00004F5F074AC4214D02046FFF7D1FE0028A3
:100BD000F6D02046FFF7D2FDF1690BF031F800287E
:100BE000EED02046FFF7CAFD04F5F074AC42F06188
:100BF000EAD1F06970BD00BF00697047416170477C
:100C0000F8B50F46164600F50674012504E00135D7
:100C1000112D04F5F0741BD02046FFF7A9FE002823
:100C2000F5D029460B4807F067F90A4807F014F990
:100C3000782009F097FC20463946FFF79DFE0135E4
:100C400020463146FFF7A4FE112D04F5F074E3D1E0
:100C5000F8BD00BFC887FF1F2DE9F84300F5005518
:100C600042F21C032E4600278046C7504FF0000971
:100C700018351C3600F5067403E004F5F074A5423F
:100C800014D02046FFF774FE0028F6D033680133F5
:100C900033602046FFF72AFE1D490AF0D1FF90B9C4
:100CA00004F5F074A54207F10107EAD142F21C03F2
:100CB00058F80300C01B0AF0B3FD014648460AF08D
:100CC000B7FEBDE8F8832046FFF710FE0146484610
:100CD0000AF0F2FC81462046FFF708FED8F83010F3
:100CE0000AF0AEFF70B92046FFF700FED8F83410C6
:100CF0000AF088FF0028C0D02046FFF7F7FDC8F8AB
:100D00003400BAE72046FFF7F1FDC8F83000EAE703
:100D100000008CC2006B7047406B7047F8B500F55F
:100D2000005507460026183500F5067403E004F563
:100D3000F074AC4210D02046FFF71AFE0028F6D01F
:100D40002046FFF73DFD014630460AF0B5FC04F5AC
:100D5000F074AC420646EED142F21C03F8580AF099
:100D60005FFD014630460AF063FEF8BD2DE9F04F05
:100D700093B004460F91002A40F0D78115461046E3
:100D8000C84900F0E5FDC749284600F0E1FDC54926
:100D9000284600F0DDFD42F21C03204654F803B063
:100DA000FFF740FE8146206966690AF0E3F8CDE965
:100DB00010012046FFF7B2FF82462046A769D4F80B
:100DC0001C80FFF749FF0AF0D5F8CDE90C01394640
:100DD00040460AF06FFCB4490AF076FD0AF0CAF802
:100DE000CDE90A0140460AF0C5F8CDE908013846C8
:100DF0000AF0C0F8CDE9060150460AF0BBF8DDE97B
:100E00001023CDE90401CDE90223A84900964B4601
:100E10005A46284600F09CFDA249284600F098FD5D
:100E200004F506744FF0010ADDF83C9007E00AF182
:100E3000010ABAF1100F04F5F07400F0F7802046B3
:100E4000FFF796FD0028F2D02046FFF765FC20460C
:100E5000FFF766FC2046FFF767FC2046FFF768FCBB
:100E60000821934809F0FAFA5146924807F044F8ED
:100E7000BAF1090F03DC01218F4809F0EFFA0221D2
:100E80008E4809F0EBFA2046FFF73AFD0AF072F8B7
:100E90005FFA89F802460B46CDF80080854807F0D6
:100EA00033F80121864809F0D9FA2046FFF730FCD3
:100EB0000C2800F3BE8001261EE00621814809F0BF
:100EC000CDFA29467B4807F017F802217E4809F041
:100ED000C5FA31462046FFF72FFC0AF04BF8CDF853
:100EE000008002460B46734807F00EF80121744853
:100EF0003D460E4409F0B2FA2046FFF709FC86424F
:100F000005F101076BDC092DD7DC01216A4809F0E6
:100F1000A5FAD2E72046FFF7FBFB172800F3BE80B7
:100F200035460D261CE009F099FA2946614806F07D
:100F3000E3FF0221644809F091FA31462046FFF7A9
:100F4000FBFB0AF017F8CDF8008002460B46594823
:100F500006F0DAFF01215A483D460E4409F07EFAB8
:100F60002046FFF7D5FB86424FF00601554805F1B4
:100F70000107D8DD0F21554809F070FA4D4806F0F9
:100F80006BFF2046FFF7C4FB192828DD19261CE05B
:100F900009F064FA2946474806F0AEFF02214A48A4
:100FA00009F05CFA31462046FFF7C6FB09F0E2FF84
:100FB000CDF8008002460B463E4806F0A5FF012111
:100FC0003F483D460E4409F049FA2046FFF7A0FB92
:100FD00086424FF006013B4805F10107D8DD0F219D
:100FE0003A4809F03BFA334806F036FF0921384801
:100FF00009F034FA00212046FFF7A8FC09F0BAFFF7
:10100000022602460B4600962A4806F07DFF0F2175
:101010002E4809F023FA0AF1010A264806F01CFFBF
:10102000BAF1100F04F5F0747FF409AF13B0BDE806
:10103000F08F2F46012620E00621224809F00EFA03
:1010400039461C4806F058FF02211F4809F006FAED
:1010500031462046FFF770FB09F08CFFCDF8008089
:1010600002460B46134806F04FFF01360121144893
:1010700009F0F4F90C2E09D05F46092F07F1010B96
:10108000DADC01210C4809F0E9F9D5E72046FFF741
:101090003FFB0C2805F10B063FF73CAF16350D273B
:1010A0003AE000BF88FF000000007A442001010000
:1010B000C0010100C887FF1FC00301002C10010000
:1010C000CC010100D0010100B0030100D8010100F2
:1010D000E80101000621BD4809F0C0F93146BC48CD
:1010E00006F00AFF0221BB4809F0B8F9394620464C
:1010F000FFF722FB09F03EFFCDF8008002460B46C9
:10110000B34806F001FF0121B3480F4409F0A6F9E6
:101110005D453FF42FAF5E46092E06F1010BD9DC89
:101120000121AE4809F09AF9D4E7AD49012000F059
:101130000FFCAB49012000F00BFCA949012000F095
:1011400007FC42F21C032046E2581092FFF76AFCAB
:1011500082462069666909F00DFF8046204689466F
:10116000FFF7DCFD83462046A569E769FFF774FDBC
:1011700009F000FFCDE90C01294638460AF09AFA39
:1011800098490AF0A1FB09F0F5FECDE90A013846BD
:1011900009F0F0FECDE90801284609F0EBFECDE9A3
:1011A0000601584609F0E6FE5346CDE90401CDE9B3
:1011B0000289109A8C490096012000F0C9FB8849E9
:1011C000012000F0C5FB04F506744FF0010A00256C
:1011D000DDF83C9007E00AF1010ABAF1100F04F5BE
:1011E000F0743FF423AF2046FFF7C2FB0028F2D093
:1011F0002046FFF791FA2046FFF792FA2046FFF7C4
:1012000093FA2046FFF794FA0821784807F05EFF2A
:101210005146774806F070FEBAF1090F03DC012150
:101220006E4807F053FF0221724807F04FFF204637
:10123000FFF766FB09F09EFE5FFA89F802460B464F
:10124000CDF800806A4806F05FFE0121624807F091
:101250003DFF2046FFF75CFA0C2800F3B48001261E
:101260001EE00621594807F031FF2946604806F084
:1012700043FE0221574807F029FF31462046FFF779
:101280005BFA09F077FECDF8008002460B4658481D
:1012900006F03AFE012150483D460E4407F016FF85
:1012A0002046FFF735FA864205F101076BDC092D70
:1012B000D7DC0121494807F009FFD2E72046FFF7B4
:1012C00027FA172800F3CE8035460D261CE007F0DC
:1012D000FDFE2946464806F00FFE02213D4807F074
:1012E000F5FE31462046FFF727FA09F043FECDF818
:1012F000008002460B463E4806F006FE01213648B5
:101300003D460E4407F0E2FE2046FFF701FA864212
:101310004FF006012D4805F10107D8DD0F213648B1
:1013200007F0D4FE324806F097FD2046FFF7F0F9AB
:10133000192828DD19261CE007F0C8FE29462C488C
:1013400006F0DAFD0221234807F0C0FE31462046B0
:10135000FFF7F2F909F00EFECDF8008002460B46C9
:10136000234806F0D1FD01211B483D460E4407F0FD
:10137000ADFE2046FFF7CCF986424FF00601134838
:1013800005F10107D8DD0F211B4807F09FFE184823
:1013900006F062FD0921194807F098FE0021204659
:1013A000FFF7D4FA09F0E6FD022602460B46009646
:1013B0000F4806F0A9FD0F210F4807F087FE0C48E3
:1013C00006F04AFD07E72F4601263AE0D00101006A
:1013D000C887FF1FB0030100CC010100C00301005A
:1013E00088FF000000007A4420010100C0010100D4
:1013F000AC87FF1F2C100100D8010100E80101009B
:1014000006212F4807F062FE39462E4806F074FD8B
:1014100002212D4807F05AFE31462046FFF78CF98D
:1014200009F0A8FDCDF8008002460B46254806F0DD
:101430006BFD01360121254807F048FE0C2E09D02E
:101440005F46092F07F1010BDADC0121204807F084
:101450003DFED5E72046FFF75BF90C2805F10B06AA
:101460003FF72CAF16350D2721E00621144807F071
:101470002DFE3146134806F03FFD0221124807F0C9
:1014800025FE39462046FFF757F909F073FDCDF8E0
:10149000008002460B460B4806F036FD01210B4842
:1014A0000F4407F013FE5D453FF438AF5E46092E4A
:1014B00006F1010BD9DC0121054807F007FED4E74E
:1014C000D0010100AC87FF1FB0030100CC01010077
:1014D000C00301002DE9F04F85B000F506758A467E
:1014E00003929B462E464FF0010806E008F10108E2
:1014F000B8F13F0F06F5F0767BD03046FFF738FAAB
:101500000028F3D000230A2251467D4806F0B4FC9F
:1015100001217C4808F0A2FF039809F02BFD00236D
:101520000246009376480B4606F0EEFC0121754812
:1015300008F094FF5946724806F0DEFC012171481C
:1015400008F08CFF41466E4806F0D6FC01216D483C
:1015500008F084FF00244FF0020921463046FFF7CF
:10156000EBF809F007FDCDF8009002460B46644801
:1015700006F0CAFC01340121624808F06FFF082C14
:101580004FF00207E9D100213046FFF7DFF909F0FB
:10159000F1FC009702460B46594806F0B5FC0121C4
:1015A000584808F05BFF01213046FFF7CFF909F0FA
:1015B000E1FC009702460B46514806F0A5FC0121CC
:1015C000504808F04BFF39463046FFF7BFF909F0A5
:1015D000D1FC009702460B46494806F095FC08F1FD
:1015E0000108474806F038FCB8F13F0F06F5F076E1
:1015F00083D101274FF0000904E001373F2F05F5A3
:10160000F07579D02846FFF7B3F90028F5D000230C
:101610000A2251463C4806F02FFC0121394807F0C8
:1016200055FD039809F0A6FCCDF8009002460B4644
:10163000354806F069FC0121324807F047FD59465C
:10164000314806F059FC01212E4807F03FFD39468C
:101650002D4806F051FC01212A4807F037FD0024EF
:101660004FF0020821462846FFF766F809F082FC91
:10167000CDF8008002460B46234806F045FC0134B5
:101680000121204807F022FD082C4FF00206E9D185
:1016900000212846FFF75AF909F06CFC0096024633
:1016A0000B46194806F030FC0121164807F00EFDE4
:1016B00001212846FFF74AF909F05CFC0096024632
:1016C0000B46114806F020FC01210E4807F0FEFCF5
:1016D00031462846FFF73AF909F04CFC00960246DD
:1016E0000B46094806F010FC0137074806F0B4FB2A
:1016F0003F2F05F5F07585D105B0BDE8F08F00BF2F
:10170000C887FF1FF4010100AC87FF1F70B50446B6
:1017100008460D460BF0D4F82368024629462046B9
:101720005B68BDE870401847014B1870704700BFF8
:101730002087FF1FF0B51546027883B062B10346DB
:101740000E46252A16D018781C4685B908F00AFFDF
:101750006278631C002AF4D1002D5CD0744803B079
:10176000BDE8F04006F078BB1046002DEED007F043
:1017700055FCEDE758785C1C0028EDD02528F3D007
:1017800073282FD0642825D0692823D0662848D014
:101790007A2853D078285ED0582800F085806228B7
:1017A00000F09180422866D06C2813D0632811D0B5
:1017B000742800F098805428C7D133680436002D6F
:1017C00040F0A480012B00F0A8800521594808F0C2
:1017D00045FEBDE7331D316885B957481E4606F002
:1017E0008BFBB5E7371D3668304665B90BF068F8F6
:1017F000014630463E4608F031FEA9E74C481E46F9
:1018000006F07AFBA4E70BF05BF8014630463E4653
:1018100007F05CFC9CE7484803B0BDE8F04006F0E8
:101820001BBB073626F007060321D6E900230091EB
:1018300065B94148083606F067FB89E7073626F0A8
:101840000706D6E9002385B1002100913848083603
:1018500006F05AFB7CE7371D3168F5B900231022EA
:1018600035483E4606F008FB72E7009532480836D8
:1018700006F04AFB6CE7022130487DBB08F0EEFD24
:101880003168371D2B4602222B483E4606F0F4FAFB
:101890005EE707F01BFC3168371D00231022244847
:1018A0003E4606F0E9FA53E702212548002DF0D123
:1018B00008F0D4FD371D31681F482B4610223E46E4
:1018C00006F0DAFA44E7371D3168002DDAD000233C
:1018D000022217483E4606F0CFFA39E707F0F6FB3A
:1018E000371D3168F3E7316804363DB901290EBF71
:1018F00014481548012108F0B1FD29E701290EBF60
:1019000010481148012107F0E1FB21E7012B09D024
:101910000521084807F0DAFB1AE70C490648FFF7EB
:10192000F5FE15E709490248FFF7F0FE10E700BF92
:10193000AC87FF1F34020100C887FF1F200201008F
:101940001C02010024020100280201002C020100F7
:101950000EB400B582B003A9024651F8040B019100
:10196000FFF7E8FE02B05DF804EB03B0704700BF7C
:1019700030B4074D074C084900232B7023600365E2
:101980004365836580F85C300B6030BC704700BFF6
:101990004C92FF1F4892FF1F4492FF1FF8B53C492D
:1019A0003C4F3D4D3D4E3E4C0020FFF7D1FF3D4B9F
:1019B0003D483E493E4A5860D9603E481F6100217B
:1019C0003D4F5A615D623D4A9E614FF07C553C4EF1
:1019D0009C623C4CD86219630C203B495F639A635C
:1019E0003A4F5D6440F61C420A259E64DC6441F275
:1019F00004065A241865196202200121C3F8B87040
:101A00009A66334FDD66002264251E675C674FF4DB
:101A1000967632245870587219725965DF61DF6307
:101A200083F840205E66DE651C664FF47A7E9D6515
:101A3000284F9A67284ED867C3F88020C3F894408F
:101A4000C3F8A040C3F89C20C3F8A810C3F8AC00AA
:101A5000FF24052083F8BC1083F8BD2041F28831B3
:101A600040F2D662C3F8B050C3F898E0C3F888706B
:101A7000C3F88C60C3F8A440A3F8B600C3F8901074
:101A8000A3F8B410A3F88420A3F88620F8BD00BF03
:101A90003C02010000004040CDCCCC3DCDCC4C40C0
:101AA000000082423C93FF1F48E8010066668640C2
:101AB00033338340000020C1000020420000A040DA
:101AC0009A9979400AD7233D333373409A99993EC6
:101AD000CDCC4C3E0000684200C02044F0B54FF42D
:101AE0007A6085B007F012F800210F2006F0E6FFBB
:101AF00000210E2006F0E2FF0021112006F0DEFF9B
:101B00000021102006F0DAFF0021122006F0D6FF97
:101B10000021132006F0D2FF01210B2006F0CEFF9A
:101B200001210C2006F0CAFF0121142006F0C6FF97
:101B30000121152006F0C2FF0121162006F0BEFF8C
:101B40000121172006F0BAFF0121052006F0B6FF9B
:101B50008D4C8E4D0121062006F0B0FF01210D2095
:101B600006F0ACFF208809F057FE0146162006F06B
:101B70000FFF208809F050FE0146172006F008FFED
:101B8000208809F049FE0146052006F001FF208863
:101B900009F042FE00240146062006F0F9FE0094FA
:101BA00023467B4A7B497C4804F0C4FFE6B23246B8
:101BB0007649794804F06CFF2B79744976486FF3C5
:101BC0000003013432462B7104F058FF082CEDD18C
:101BD0000924E6B232466D496F4804F059FF2B796B
:101BE0006A496D4843F00103013432462B7104F019
:101BF00045FF0D2CEDD1694C4FF0FF3220681021CC
:101C000005F064FB20684FF0FF32102105F036FB31
:101C100020684FF0FF32022105F044FB20684FF0AE
:101C2000FF32022105F048FB00220F21206805F059
:101C300057FB0C215A4808F011FC5A4806F00CF9E1
:101C40001621594808F00AFC564806F005F940F2FA
:101C5000836007F019F8534806F0FEF8172153483F
:101C600008F0FCFB4F4806F0F7F8514B1B789A063A
:101C700000F1B8804E4B1B781B0700F1BF804C4B26
:101C80001B785F0700F1C680494B1B789E0700F167
:101C9000CD80484B1B781D0600F1D480454B1B7846
:101CA0005C0600F1DB80434B1B78980600F1E28074
:101CB000404B1B78590700F1E9803E4B1B781A070F
:101CC00000F1F0803B4B1B789B0700F1F780354813
:101CD00006F0C2F872B6384A4CF220534DF628117D
:101CE0002024138023461180013BFDD1334D34481D
:101CF000344900234FF480562E8003800B8032F845
:101D00000E3C9BB243F0D30322F80E3C62B69D20FA
:101D100007F066FB21462C482C4D08F09FFB21481C
:101D200006F09AF805F1C0062F462C46601B06F017
:101D3000FFFA04F8010BB442F8D13B78102B01D024
:101D4000FFF72CFE0420FFF7EFFC214B00220121BE
:101D50000D201A6006F09EFE796D1E48FEF74EFFBC
:101D60007A6C97F840101B48FEF74AFF1A4B1B4944
:101D70001A68039203981B680293029A184B086032
:101D80001A6005B0F0BD00BF2887FF1F0494FF1F35
:101D9000B0B6FF1F48E8010014B5FF1FB494FF1F41
:101DA0005C020100C887FF1F6C0201008402010071
:101DB00001F0074000F007400E20054004200540D8
:101DC0000620054016200540880301003C93FF1FB4
:101DD0006492FF1FEC94FF1FD8B6FF1FE894FF1F0B
:101DE0000C94FF1F2121394808F038FB384806F0D1
:101DF00033F8384B1B781B077FF541AF0C21364871
:101E000008F02CFB324806F027F8324B1B785F07AE
:101E10007FF53AAF0E21314808F020FB2C4806F040
:101E20001BF82C4B1B789E077FF533AF17212C48EE
:101E300008F014FB264806F00FF82A4B1B781D0605
:101E40007FF52CAF0E21284808F008FB204806F04B
:101E500003F8244B1B785C067FF525AF122123483D
:101E600008F0FCFA1A4805F0F7FF1E4B1B7898069D
:101E70007FF51EAF13211E4808F0F0FA144805F054
:101E8000EBFF184B1B7859077FF517AF1C2119483A
:101E900008F0E4FA0E4805F0DFFF124B1B781A0732
:101EA0007FF510AF1921144808F0D8FA084805F05A
:101EB000D3FF0C4B1B789B077FF509AF18210F4808
:101EC00008F0CCFA024805F0C7FF00E79C020100C9
:101ED000C887FF1F01F00740C0020100D0020100C7
:101EE000E002010000F00740F802010008030100D1
:101EF0001C03010030030100500301006C030100CA
:101F000070B5464C464D4748E66800232B70FEF7F7
:101F10004DFE0146304609F075FE08B104232B70D2
:101F20004048FEF71BFE216909F06CFE18B12B78C2
:101F300043F010032B703B48FEF7ECFEA16A09F05A
:101F40007FFE18B12B7843F040032B7000233548F7
:101F50006B70FEF7E1FEE16A314E09F053FE08B105
:101F60000123737000232F48EB70FEF71FFE054618
:101F70002C482B4EFEF7F2FD0146284609F09AFB4D
:101F8000E16B09F05DFE08B10123F370264D254891
:101F900000232B70FEF70AFE616A0646E06809F02E
:101FA00089FB0146304609F04BFE08B104232B7033
:101FB0001C48FEF7D3FD616A0646206909F07CFBE8
:101FC0000146304609F01EFE18B12B7843F010038D
:101FD0002B701448FEF79EFEA16B0646A06A09F01E
:101FE00069FB0146304609F02BFE18B12B7843F00F
:101FF00040032B7000230B486B70FEF78DFEA16B26
:102000000546E06A084C09F057FB0146284609F0EE
:10201000F9FD08B10123637070BD00BF3C93FF1F41
:102020003893FF1FEC94FF1FA494FF1F2DE9F0418C
:102030007C4C2368012B82B031D0022B00F0A880A9
:10204000032B00F0C8803BBB774B784AD3F8A01035
:10205000D3F8A43012685B1A632B0EDD744803FBBF
:1020600002F380FB0302DB17C3EB62131944062063
:1020700002B0BDE8F04106F08DBB6E4803FB0223C1
:1020800080FB0302DB17C3EB22121144062002B0CF
:10209000BDE8F04106F07EBB02B0BDE8F081664EBF
:1020A00033680A33B3F57A7F00F3B780184633609C
:1020B00009F0B6FB614909F007FC80465A4DD5F896
:1020C000A00009F0ADFB0746D5F8A40009F0A8FB75
:1020D000394609F0EFFA414609F0F6FB584909F094
:1020E000A7FC394609F0E8FA09F0B4FD01460620DC
:1020F00006F050FB0221534808F0B0F9524805F0B1
:10210000ABFE0621514808F0A9F9306809F088FBB8
:102110004A4909F0D9FB08F02DFF022702460B4679
:102120000097494805F0F0FE0D21494808F096F95E
:10213000D5F8A00009F074FB8046306809F070FB08
:102140003E4909F0C1FB0646D5F8A40009F068FB3A
:10215000414609F0AFFA0146304609F0B5FB38496F
:1021600009F066FC414609F0A7FA08F003FF009762
:102170000B460246344805F0C7FE3946314808F0A0
:102180006DF9314805F068FE2368022B7FF458AFE3
:10219000294B254E00221A60D6F8A00009F040FB1A
:1021A0000546D6F8A40009F03BFB294609F082FA5F
:1021B000002109F089FB224909F03AFC294609F07F
:1021C0007BFA09F047FD0146062006F0E3FA236892
:1021D000032B7FF438AF184B134E4FF47A721A600A
:1021E000D6F8A00009F01CFB0546D6F8A40009F0BB
:1021F00017FB294609F05EFA114909F065FB104901
:1022000009F016FC294609F057FA09F023FD0146AA
:10221000062006F0BFFA236815E700234FF00008F8
:1022200033604BE79094FF1F3C93FF1F3487FF1FE1
:102230001F85EB51CBF08D286892FF1FCDCCCC3D94
:102240000000C8422C100100C887FF1FAC0301002A
:10225000B403010070B5B848B84C05F0FDFDB648B0
:1022600005F0FAFDB44805F0F7FD0D21B44808F07B
:10227000F5F8D4F89C30012B11D0B24CAE4821783F
:1022800000230A2205F0F8FD2378052B67D8DFE844
:1022900013F00B01100115011A011F0101010921A1
:1022A000A94808F0DBF8A948FEF758FC216909F0B5
:1022B000A9FC18B10F21A64808F0D0F8A348FEF7F2
:1022C00075FCE16809F0BCFC18B10E21A14808F0CA
:1022D000C5F89E48FEF76AFC05469C48FEF73EFCA2
:1022E0000146284609F0E6F9E16B09F0A9FC18B1AE
:1022F0001121994808F0B2F89448FEF7ADFCA16AA4
:1023000009F09EFC18B10C21944808F0A7F88F48FA
:10231000FEF7A2FCE16A09F075FC18B10D219048A6
:1023200008F09CF88F4B89481B68012B00F0ED806A
:10233000FEF714FC2169814D09F082FC78B18348D5
:10234000FEF734FCE96809F05DFC40B17D4B1B7879
:10235000052B00F0EB800821834808F07FF802216C
:10236000824808F07BF8122006F09AFB012800F062
:10237000B480112006F094FB012800F0B8807C4B5B
:102380001B68012B00F0BC8002217848794C08F0D2
:1023900065F8794B6848196805F0AEFD664805F0A8
:1023A0005BFD0421754808F059F80B2006F078FB16
:1023B000002301460A22604805F05EFD0C2006F06D
:1023C0006FFB002301460A225B4805F055FD1420EF
:1023D00006F066FB002301460A22574805F04CFD33
:1023E000152006F05DFB0A2200230146524805F045
:1023F00043FD0621624808F031F82368DD074FF0FD
:1024000001014CBF5F48604808F028F8236898072E
:102410004FF001014CBF5B485B4808F01FF8236890
:102420005A074FF001014CBF5648574808F016F8BC
:1024300023681B074CBF53485348012108F00EF88E
:102440000421524808F00AF8112006F029FB002365
:1024500001460A22384805F00FFD102006F020FB47
:10246000002301460A22344805F006FD122006F03A
:1024700017FB002301460A222F4805F0FDFC13201C
:1024800006F00EFB002301460A222B48BDE87040EF
:1024900005F0F2BC07213E4807F0E0FF3D4B26481F
:1024A000196805F029FD5AE706213B4807F0D6FFD9
:1024B00055E70721394807F0D1FF50E70721384891
:1024C00007F0CCFF4BE70821364807F0C7FF46E787
:1024D0000B21354807F0C2FF41E70E21334807F0D2
:1024E000BDFF112006F0DCFA01287FF448AF0A2175
:1024F0002F4807F0B3FF1E4B1B68012B7FF444AF3E
:1025000011212C4807F0AAFF3EE7FEF727FB216ABE
:1025100009F096FB00283FF41EAF1621264807F06D
:102520009DFF0A21254807F099FF18E70A21234853
:1025300007F094FF13E700BFC887FF1F3C93FF1FFE
:10254000C4030100A094FF1FD4030100EC94FF1FFB
:10255000E0030100F0030100000401001404010085
:10256000240401007492FF1F580401002C10010084
:10257000BC94FF1FFC93FF1F9494FF1FCC04010029
:10258000D4040100DC04010094110100E004010006
:1025900094040100C094FF1F640401006C04010056
:1025A0008004010088040100740401009C040100FF
:1025B000AC040100B8040100340401004C04010023
:1025C0002DE9F04F9B4C9C4FE36F012B8DB000F039
:1025D0005981032B5AD0994E994DA36F9948012BDD
:1025E00009BF2968296801F10041296005F06AFAEC
:1025F0003368002B40F0D880924805F039FAE36F39
:102600003860012B064600F0DC808F4909F018FB8A
:10261000B8B98E49304609F0F5FA90B98C4A8D4B1D
:1026200012680B920B9A1A60D4F8A80009F0F8F817
:10263000314609F049F9002338602B600DB0BDE840
:10264000F08FDFF80CA2DFF80C82DAF800300A9382
:102650000A98D8F80030DFF82492C01A09F0DCF8A4
:10266000314609F031F97C4909F0E2F97A4909F07B
:10267000DFF9D9F8001009F01FF8DAF800300993F3
:10268000099BC9F80000C8F80030CDE7DFF8D08119
:10269000724DD8F80000694E012300220F212B60F3
:1026A00004F01EFE2B68012B336800F00981002B1B
:1026B00040F0AC810021D8F80000DFF8C491684DEB
:1026C00004F060FE33681FFA80FBC9F800B0002BED
:1026D00040F081810021D8F80000594DDFF880A139
:1026E00004F0D6FDB4F8863040F6E44101FB0BF16E
:1026F000B1FBF0F0C01A00B209F092F859498346D4
:10270000D4F8880009F0E0F80146584609F090F93D
:10271000D9F800302860632BDFF864B100F34F81F3
:1027200000232B603368002B3FF457AF02214E4843
:1027300007F094FED9F80020D8F8000040F6E443F2
:10274000002103FB02F804F0A3FDB8FBF0F009F050
:1027500063F88046B4F8860009F062F80146404606
:1027600008F0A8FF08F006FC4FF0020802460B46EE
:10277000CDF800803D4805F0C7FB41463A4807F0D8
:102780006DFE286808F0F6FBCDF8008002460B4687
:10279000364805F0B9FB4146354807F05FFE414633
:1027A000314807F05BFE18E7264805F061F908F0AC
:1027B000E1FB022602460B4600962C4805F0A4FBDE
:1027C0001AE7264B1B68012B00F02C81022B7FF4AB
:1027D0002BAF284909F034FA30B92749304609F0BF
:1027E00011FA002800F05381DFF864A0DFF864805C
:1027F000DAF8003007930798D8F80030DFF87C90BB
:10280000C01A09F009F8314609F05EF8124909F0DA
:102810000FF9114909F00CF9D9F8001008F04CFF34
:10282000DAF800300693069BC9F80000C8F80030BB
:10283000FAE600BF3C93FF1F8092FF1FE094FF1F4A
:102840007092FF1F1493FF1F0000FA430000FAC3A9
:10285000D8B6FF1FB094FF1F00007A445087FF1FB7
:10286000B494FF1F17B7D1382C100100C887FF1F81
:102870002405010000C82F4800A08CC68C92FF1FC1
:102880003493FF1F3D689B49284609F0BBF930B1DE
:102890002846994909F0D4F900287FF4F7AEDFF80B
:1028A0006482964DD8F80000954E022300220E2136
:1028B0002B6004F015FD2B68012B33687FF4F7AE15
:1028C000002B40F006810021D8F80000DFF8749258
:1028D0008C4D04F057FD33681FFA80FBC9F800B037
:1028E000002B40F0DB800021D8F80000864D04F07A
:1028F000CFFCB4F8843040F6E44A0AFB0BFBBBFB88
:10290000F0F0C01A00B208F08BFF80498346D4F87B
:102910008C0008F0D9FF0146584609F089F8D9F82B
:10292000003028600021D8F800000AFB03FA04F008
:10293000AFFCB4F88430BAFBF0F00FFA80FAC3EBC6
:102940000A03002BB4F8B620B8BF5B429342BCBF69
:1029500000232B603368002B3FF43FAE02216C480C
:1029600007F07CFDD9F80020D8F8000040F6E443D9
:10297000002103FB02F804F08BFCB4F88410B8FBD0
:10298000F0F000B2411A634805F0B6FA022160483F
:1029900007F064FD286808F0EDFA4FF002080246DF
:1029A0000B46CDF800805B4805F0AEFA03215A488B
:1029B00007F054FD4146564807F050FD0DE6DAF8A1
:1029C0000000002104F064FCDBF800306438984219
:1029D000FFF4A6AEA6E60021286804F059FC40F6F4
:1029E000E44100230A2201FB0BF1B1FBF0F149485D
:1029F00005F042FA0221464807F030FDB4F886108F
:102A0000444805F079FAD9F800B063E6414805F08A
:102A100023FA0C21414807F021FD0C21404807F022
:102A20001DFD47E63F4909F00BF958B93E493046CC
:102A300009F0E8F830B93D4A3D4B12680592059A15
:102A40001A60F1E5DFF8E4A0DFF8E480DAF800309E
:102A500004930498D8F80030DFF8EC90C01A08F01E
:102A6000DBFE314608F030FF324908F0E1FF314922
:102A700008F0DEFFD9F8001008F01EFEDAF800308A
:102A80000393039BC9F80000C8F80030CCE5274A3F
:102A9000274B12680892089A1A60C5E50021286839
:102AA00004F0F6FB40F6E44100230A2201FB0BF19F
:102AB000B1FBF0F1174805F0DFF901211E4807F0DE
:102AC000CDFCB4F88410134805F016FAD9F800B01C
:102AD00009E7104805F0C0F9E36F012B4FF00B0137
:102AE0000CBF1648164807F0B9FC0C210C4807F03B
:102AF000B5FCE8E600709446007094C65087FF1F4E
:102B0000E094FF1FB494FF1F7092FF1F17B7D138D6
:102B10002C100100C887FF1F1005010014050100DB
:102B2000000501000000FA430000FAC3D8B6FF1FF9
:102B3000B094FF1F00007A44C0030100E8040100C4
:102B4000F40401003493FF1F8C92FF1F2DE9F0471E
:102B5000934C236884B0002B79D0924DDFF84C82DF
:102B6000914FD5F880308F4E012B00F08980D7F837
:102B70000090D6F858A0746D8C4E04FB0AF44FF404
:102B80007A7000FB04F008F04BFE89490446484681
:102B900008F09AFE214608F04BFF864908F094FEA3
:102BA00009F058F86328C8F800004BDD204680493A
:102BB00008F03EFF6423386033607F4B1B68002BB6
:102BC0003DD0EB6F774C012B00F08880032B00F099
:102BD000D680022B00F0D9800221784807F03EFC15
:102BE000774B186808F0C6F9022402460B46009499
:102BF000744805F089F92146734807F02FFC2146F7
:102C00006E4807F02BFCD8F800106E4805F074F9F8
:102C100006216E4807F022FC3868654908F054FE2A
:102C200008F0A8F9009402460B46664805F06CF9D6
:102C30000321674807F012FC624805F00DF904B063
:102C4000BDE8F0870028BCBF00233360B5E7614EC4
:102C5000544D33680293029A42F228339A4249D87B
:102C600033680393039A42F210739A4249D8D5F815
:102C70008030DFF838814C4F4A4E012B7FF477AF1C
:102C80005548FEF74BF85549D6F86890F46E08F0B1
:102C90001BFE09F005F8326F736FD5F858A0C9EB29
:102CA00002021B1B80B29A42C9EB0000C6BF03FBA5
:102CB00000000132584390FBF2F020446C6D00FBA1
:102CC0000AF004FB00F000EB8000400008F0A8FDD3
:102CD000374908F0ADFE814638604DE7404B1B6830
:102CE000012B4FF00A010CBF3E483F4807F0B6FBEE
:102CF000E36F6BE738486A6C95F84010FDF780FF8A
:102D0000AEE73548FEF70AF83449AF6EEE6E08F0CC
:102D1000DBFD08F0C5FF2A6F6B6FD21B9B1B80B2D7
:102D20009A42A0EB070035DD03FB0000531C90FB2B
:102D3000F3F31E44A86D6B6DDFF870801A4FC8F86E
:102D4000006000FB06F003FB00F000EB8000400099
:102D500008F066FD164908F06BFE01233860022179
:102D60001648236007F07AFB164805F075F85921DC
:102D70001E4807F073FB134805F06EF8F1E61021CA
:102D80001B4807F06BFBEB6F23E70721194807F09F
:102D900065FB21E703FB00F393FBF2F31E44C9E755
:102DA0006C92FF1F3C93FF1F8C92FF1F3487FF1F05
:102DB000E4388E3E0000C8423C87FF1F2C10010003
:102DC0008092FF1FC887FF1F24050100B80501007E
:102DD000C0050100D8B6FF1FEC94FF1F00007A4425
:102DE0005087FF1F840501009005010028050100A0
:102DF0009C050100B0050100F0B5112083B005F07D
:102E00004FFE012813D000210B2005F043FE0021C6
:102E10000C2005F03FFE0021152005F03BFE1D496A
:102E20001D4B0120002208701A6003B0F0BD01465E
:102E30000446152005F02EFE1849194A194B096859
:102E40000191D2F890001B680199134D03440226AA
:102E50008B422E6017D8D2F8980008F0E1FC124B94
:102E6000196808F0CFFE074668B921460B2005F027
:102E700011FE084A032339460C2016702B6005F01A
:102E800009FE03B0F0BD01210C2005F003FE03B0E4
:102E9000F0BD00BFA094FF1FDC94FF1FD8B6FF1F3A
:102EA0003C93FF1FE894FF1F8092FF1FF0B5684E10
:102EB000684D34682B689C4287B039D014F001010A
:102EC00055D014F0020149D014F004013DD0E307BD
:102ED0000ED52B68DF070BD45F4F3A68002A00F04D
:102EE00082805E4B1B680193019B93426DD83468CE
:102EF000A0070DD52B6899070AD4594F3A68002AC4
:102F00004CD0564B1B680393039B934238D83468CC
:102F100062070DD52B685B070BD4524F3A68002A25
:102F20007ED04E4B1B680593059B934268D834684E
:102F30000CB107B0F0BD2146162005F02BFC214650
:102F4000172005F027FC07B0F0BD052005F022FC96
:102F50002B68346803F0FB032B60B8E7172005F0FB
:102F600019FC2B68346803F0FD032B60ACE71620D6
:102F700005F010FC2B68346803F0FE032B60A0E71B
:102F8000394B1720D3F8941005F004FC2B683468F3
:102F900043F0020300222B603A60B9E7334804F0A3
:102FA0005BFF0C21324807F059FA304804F054FF17
:102FB000FF21172005F0EEFB284B2E4A19680291DD
:102FC000029912680A443A609CE7274B1620D3F80E
:102FD000941005F0DFFB2B68346843F001030022F6
:102FE0002B603A6084E7FF21162005F0D3FB1B4BD2
:102FF000204A19680091009912680A443A6071E702
:10300000194B0520D3F8941005F0C4FB2B683468E5
:1030100043F0040300222B603A60002C89D18AE738
:10302000124804F019FF0C21134807F017FA0F4853
:1030300004F012FFFF21052005F0ACFB074B0D4A01
:1030400019680491049912680A443A606AE700BF5B
:10305000DC94FF1FFC93FF1F7494FF1FD8B6FF1F63
:103060007894FF1F7C94FF1F3C93FF1FC887FF1FAE
:10307000C40501006887FF1FD40501002DE9F04752
:10308000544EDFF87481DFF874913068524D00229D
:103090000F2104F025F90023012222214F48C8F80E
:1030A0000030C9F8002007F0D9F9D8F80030132B08
:1030B00022DC40F6E44700213068B5F884A004F033
:1030C00061F900210446306804F0E2F8A4B201215D
:1030D00007FB04F4B4FBF0F441485444A5F88440E1
:1030E00007F0BCF9642005F011FDD8F80030013379
:1030F000132BC8F80030DEDDB5F88430394A3A4881
:10310000A2FB03129B1A02EB5303C3F30F131946DE
:10311000A5F8843004F0F0FE1D21344807F09EF934
:103120000221334807F09AF92F4804F095FE002356
:103130001A460E213068C8F8003004F0D1F8022396
:1031400022212648C9F8003007F088F9D8F8003065
:10315000132B22DC40F6E44700213068B5F8869056
:1031600004F010F900210446306804F091F8A4B28C
:10317000012107FB04F4B4FBF0F419484C44A5F812
:10318000864007F06BF9642005F0C0FCD8F80030E9
:103190000133132BC8F80030DEDDB5F88630114A54
:1031A0001148A2FB03129B1A02EB5303C3F30F1344
:1031B0001946A5F8863004F09FFE1D210D4807F042
:1031C0004DF902210A4807F049F90748BDE8F047E0
:1031D00004F042BEB494FF1F3C93FF1FE4050100BE
:1031E0002806010087611886C887FF1F08060100AE
:1031F0002C1001002C0601009894FF1F5087FF1F20
:10320000A64B2DE9F0411B68A54CA64D40F251316B
:1032100008222160E271286D002B40F0EE8008F05A
:10322000FFFA6969064608F04FFB9F499D4F08F079
:103230004BFB08F035FD80B2031263729B4A9C4B36
:1032400012681B68A969A37215121B12E37222731C
:1032500020726573304608F037FB9349904D08F0B3
:1032600033FB08F01DFD83B21A1229469148A3735F
:10327000E27303F057FE904B904A1B681288A272CB
:10328000DEB206EB8601267203EB8306490046F3A5
:10329000D71640F2553E12124FF000081B12217350
:1032A0006673294608268348C4F800E0E272637218
:1032B000E67184F80E8084F80F8003F033FE40F24C
:1032C00056337F482360E671FDF796FC7D4908F090
:1032D000FBFA08F0E5FC20727948FDF78DFC79498E
:1032E00008F0F2FA08F0DCFC774A7649C0F30723CD
:1032F0006372106808F09CFB08F0ACFC40FA06F220
:1033000003466F48E272A372FDF7A6FC664908F017
:10331000DBFA08F09FFC20736948FDF79DFC6249C9
:1033200008F0D2FA08F096FC294640F307236148DA
:10333000637384F80E8084F80F8003F0F3FD02209D
:1033400005F0E4FB614A624B107851782072907866
:103350006172D2781978A072987893F801E0E272DD
:103360002173DA78A07340F25A332946514884F821
:103370000DE0E2732360E67103F0D4FD554B4D4838
:103380001A785978227261729A78D978A272E172A9
:103390001A79597993F806E022736173DA7984F81F
:1033A0000EE040F25E332946E2732360E67103F0DB
:1033B000B9FD022005F0AAFB474B3E481A78597820
:1033C000227261729A78D978A272E1721A79597967
:1033D00093F806E022736173DA79E6714FF45C7357
:1033E0002946236084F80EE0E27303F09BFD3B4B1B
:1033F0001B68012B06D0BDE8F08108F011FA296A9C
:10340000064610E72E48FDF7A9FBF96C08F054F9C1
:1034100080462B48FDF7CAFB0146404608F0F2FB08
:103420000028E8D040F2C3332548EE712B60FDF749
:1034300095FBBE6C314608F0E5FBC8B12849304623
:1034400008F042FA08F02CFC80B2031268722B726A
:103450000023012604250322A672E57222736373FA
:10346000A373E3730E491348BDE8F04103F05ABD5E
:103470001348FDF773FB1A4908F026FA08F010FC10
:10348000C0F307230E482B72FDF768FB144908F0C0
:103490001BFA08F005FC6872DAE700BF7492FF1FA0
:1034A000CC94FF1F3C93FF1F00002041AC94FF1FF2
:1034B0005892FF1F14B5FF1F3487FF1F3887FF1F67
:1034C000EC94FF1F0000C8428092FF1F3893FF1F3B
:1034D000A494FF1F2C87FF1F5487FF1FBC94FF1F5E
:1034E00000007A44F0B58A4C8A4D83B006F050FF54
:1034F00023682860042B00F08682022B4BD0082B17
:1035000000F09280072B40F02B81332801F03484A7
:1035100000F30683312801F00784322840F08D80C3
:1035200006F072FF002840F319817B487B4E04F0BF
:1035300025FE08F075F97A4908F0C6F961230122E1
:10354000F06322602B601846A0F152031F2B01F29A
:10355000DB83DFE813F06C0BD90BD90BD90BD90B3C
:10356000D90BD90BD90BD90BD90BD90BD90BD90B3B
:10357000D90BD90BA403030D2B05C1059704D90B57
:10358000D90BD90B1804D90B000DD90BD90BD90BBA
:10359000D90BD90B5A0BA0F13102422A4DD8DFE8E2
:1035A00012F0DA06E606F40606075507C9064C00CF
:1035B0004C004C004C004C004C004C004C004C00AB
:1035C0004C004C004C004C004C004C004C004C009B
:1035D0004C004C004C004C004C004C004C004C008B
:1035E0004C004C004C004C004C004C004C004C007B
:1035F0004C004C004C004C004C004C004C004C006B
:103600004C004C004C004F074C004C004C004C0050
:103610004C004C004C004C004C004C004C004C004A
:103620004C00C5024C004707322800F00683712881
:1036300000F07C82312800F01B83002B08BF732828
:103640000CBF01200020002860D0334804F004FCA7
:103650000421344806F002FF2F4804F0FDFB10213E
:10366000314806F0FBFE2C4804F0F6FB13212F48EE
:1036700006F0F4FE2E4B2848196804F03DFC26485D
:1036800004F0EAFB14212B4806F0E8FE224804F07F
:10369000E3FB1E21284806F0E1FE1F4804F0DCFB96
:1036A0001521264806F0DAFE1B4804F0D5FB1E2142
:1036B000234806F0D3FE184804F0CEFB2021214811
:1036C00006F0CCFE144804F0C7FB19211E4806F092
:1036D000C5FE114804F0C0FB12211C4806F0BEFED6
:1036E0000D4804F0B9FB0F21194806F0B7FE0A484F
:1036F00004F0B2FB0D21174806F0B0FE064804F0B6
:10370000ABFB154A002101231160236003B0F0BD1B
:103710009092FF1F7C92FF1FC887FF1F3C93FF1FE3
:103720006F12833AA80E0100B00E0100C40E010012
:103730002487FF1FD80E0100F00E0100100F0100BA
:10374000280F0100480F01006C0F0100880F0100D5
:103750009C0F0100AC0F01003C87FF1F2368286805
:10376000062B40F08D80A0F13102402A3FF665AF74
:1037700001A151F822F000BF3B4200006742000067
:103780000F43000093420000B9420000D7420000FE
:10379000FB4200003B3600003B3600003B36000099
:1037A0003B3600003B3600003B3600003B36000055
:1037B0003B3600003B3600003B3600003B36000045
:1037C0003B3600003B3600003B3600003B36000035
:1037D0003B3600003B3600003B3600003B36000025
:1037E0003B3600003B3600003B3600003B36000015
:1037F0003B3600003B3600003B3600003B36000005
:103800003B3600003B3600003B3600003B360000F4
:103810003B3600003B3600003B3600003B360000E4
:103820003B3600003B3600003B3600003B360000D4
:103830003B3600003B3600003B3600003B360000C4
:103840003B3600003B3600003B3600003B360000B4
:103850003B3600003B3600003B3600003B360000A4
:103860003B3600003B3600003B3600003B36000094
:103870003B3600003B3600002D3B000023682868E3
:10388000052B15D1332801F0A08240F3548135284F
:1038900001F08582C1F2BB8271287FF4CEAEB14ABD
:1038A00000237320136023602860C6E6236828681D
:1038B000032B40F0A480A0F13002422A3FF6BDAEB7
:1038C00001A151F822F000BFD5390000934A000051
:1038D000094A0000314A0000534A0000C349000071
:1038E0005B4B0000834B0000A14B0000C54B000068
:1038F0003B3600003B3600003B3600003B36000004
:103900003B3600003B3600003B3600003B360000F3
:103910003B3600003B3600003B3600003B360000E3
:103920003B3600003B3600003B3600003B360000D3
:103930003B3600003B3600003B3600003B360000C3
:103940003B3600003B3600003B3600003B360000B3
:103950003B3600003B3600003B3600003B360000A3
:103960003B3600003B3600003B3600003B36000093
:103970003B3600003B3600003B3600003B36000083
:103980003B3600003B3600003B360000EB490000B0
:103990006D450000ED4B0000754A0000FD4A000037
:1039A0001B4B000023450000474500003B3600004C
:1039B0003B3600003B3600003B3600003B36000043
:1039C0003B3600003B3600003B360000BB4A00009F
:1039D000C74A000006F018FD002841F39E816248A6
:1039E000624E04F0CBFB0127034601466222604889
:1039F000736527602A60FDF701F923682868012BA9
:103A00007FF41BAEA0E5A0F13002412A3FF615AECF
:103A100001A151F822F000BF0B4500006D440000E9
:103A20008544000089440000AF440000D5440000F4
:103A3000F9440000F1440000F5440000B3440000E4
:103A40003B3600003B3600003B3600003B360000B2
:103A50003B3600003B3600003B3600003B360000A2
:103A60003B3600003B3600003B3600003B36000092
:103A70003B3600003B3600003B3600003B36000082
:103A80003B3600003B3600003B3600003B36000072
:103A90003B3600003B3600003B3600003B36000062
:103AA0003B3600003B3600003B3600003B36000052
:103AB0003B3600003B3600003B3600003B36000042
:103AC0003B3600003B3600003B3600003B36000032
:103AD0003B3600003B3600003B3600003B36000022
:103AE0003B3600003B3600003B3600003B36000012
:103AF0003B3600003B3600003B3600003B36000002
:103B00003B3600003B3600003B3600003B360000F1
:103B10003B3600003B3600003B3600002D3B0000EA
:103B2000342801F0178171287FF487AD00237320BA
:103B30002360286081E5312801F0588132287FF424
:103B40007CAD06F061FC00287FF7B0AE0648074E5A
:103B500004F014FB01226B23C6F8980022602B604E
:103B60000AE000BF9094FF1FC887FF1F3C93FF1F10
:103B7000EC94FF1F06F00CFC06F046FC0028F9D17F
:103B8000A64804F069F9A54804F066F9A34804F0D2
:103B900063F9A24804F060F9A04804F05DF921211E
:103BA0009F4806F05BFC9D4804F056F915219D489E
:103BB00006F054FCD6F89010984804F09DF90221C4
:103BC000994806F04BFC954804F046F91E219748A9
:103BD00006F044FCD6F89810904804F08DF90321C3
:103BE000934806F03BFC8D4804F036F91E219148BD
:103BF00006F034FCD6F89410884804F07DF9874824
:103C000004F02AF91D218C4806F028FCD6F8A010F3
:103C1000824804F071F9814804F01EF91E2187489A
:103C200006F01CFCD6F8A4107C4804F065F97B482B
:103C300004F012F90523236068E506F0E5FB00288F
:103C400040F3F38275487E4E04F098FA07F0E8FDE1
:103C50007C4907F039FE96F84010034602467A4840
:103C60007364FCF7CDFF01236920236028606BE4B7
:103C700006F0CAFB002840F3DC826848704E04F06E
:103C80007DFAC0B286F8400002288ABF00210146B2
:103C900086F84010726C6C48E3E706F079FB06F09A
:103CA000B3FB05460028F8D15C48654E04F0D4F813
:103CB0005A4804F0D1F8594804F0CEF8574804F0B7
:103CC000CBF8564804F0C8F81F21604806F0C6FB40
:103CD000524804F0C1F81C215D4806F0BFFB706A31
:103CE0005C4907F0F1FD07F045F9009502460B46E7
:103CF0004A4804F009F90221574806F0AFFB47484B
:103D000004F0AAF82321554806F0A8FBF06B5149AE
:103D100007F0DAFD07F02EF9009502460B463F4802
:103D200004F0F2F802214C4806F098FB3B4804F0FE
:103D300093F819214A4806F091FBB06B07F01AF985
:103D400002250B4602460095344804F0DDF829466A
:103D5000444806F083FB314804F07EF819214248BC
:103D600006F07CFBB6F8B4102C4804F0C5F803212B
:103D70003E4806F073FB294804F06EF807232360E1
:103D8000C4E406F005FB06F03FFB05460028F8D129
:103D900022482B4E04F060F8204804F05DF81F48DC
:103DA00004F05AF81D4804F057F81C4804F054F881
:103DB00015212F4806F052FB184804F04DF8182141
:103DC0002C4806F04BFB2B460A2296F8401013486D
:103DD00004F052F8114804F03FF82821264806F074
:103DE0003DFB706C1B4907F06FFD07F0C3F80095B1
:103DF0000B460246094804F087F80221164806F0EF
:103E00002DFB064804F028F813211C4806F026FB79
:103E1000024804F021F80823236077E4C887FF1FD5
:103E2000DC08010000090100EC070100180901008D
:103E30001005010038090100580901007809010046
:103E40003C93FF1F6F12833AEC94FF1F3808010068
:103E50005808010000007A44C406010078080100F7
:103E60009C080100B8080100BC080100D808010046
:103E7000700F01007C06010098060100C8060100D1
:103E800006F086FA06F0C0FA05460028F8D17D480B
:103E90007D4E03F0E1FF7B4803F0DEFF794803F03D
:103EA000DBFF784803F0D8FF764803F0D5FF1121F7
:103EB000764806F0D3FA734803F0CEFF2821744801
:103EC00006F0CCFA7069734907F0FEFC07F052F86F
:103ED000009502460B466B4804F016F802216E4826
:103EE00006F0BCFA674803F0B7FF16216B4806F0EE
:103EF000B5FAF069674907F0E7FC07F03BF8009571
:103F00000B4602465F4803F0FFFF0221624806F0BD
:103F1000A5FA5C4803F0A0FFD6F8AC30002B32DDE8
:103F20001D215F4806F09AFAF06D07F079FC5D49B3
:103F300007F0CAFC07F01EF8022502460B46009562
:103F4000504803F0E1FF0121574806F087FA4D4839
:103F500003F082FF1F21554806F080FA306E07F00B
:103F60005FFC504907F0B0FC07F004F800950246EA
:103F70000B46444803F0C8FF01214B4806F06EFA97
:103F8000404803F069FF1121494806F067FAD6F866
:103F9000AC30052B00F26886DFE813F0AC06B10602
:103FA000A706A2069D06620606F0F2F906F02CFAB4
:103FB0000028F9D13348344E03F04EFF314803F066
:103FC0004BFF304803F048FF2E4803F045FF2D48D3
:103FD00003F042FF1F21374806F040FA294803F05A
:103FE0003BFF1E21344806F039FA264803F034FF1F
:103FF0001A21324806F032FAF36F022B00F06D8777
:10400000032B00F06187012B00F0558709212C4814
:1040100006F024FA1B4803F01FFF142129481A4F09
:1040200006F01CFAB16F174803F066FF154803F05D
:1040300013FF1C21244806F011FAD6F8801011480D
:1040400003F05AFF0F4803F007FF1C211F4806F03A
:1040500005FAD6F8A8100B4803F04EFF094803F004
:10406000FBFEF56F25F00205012D00F0F48613210B
:10407000174806F0F3F9034803F0EEFE022323602D
:10408000FFF744BBC887FF1F3C93FF1F140F0100BD
:10409000DC06010000007A44C406010008070100A4
:1040A00020070100CDCCCC3DFC0B010040070100F6
:1040B00060070100BC0A0100DC0A0100FC0A0100E3
:1040C000740B0100800B0100980B0100B80B01007C
:1040D000C806010006F05CF906F096F90028F9D14F
:1040E000BA48BB4D03F0B8FEB84803F0B5FEB74878
:1040F00003F0B2FEB54803F0AFFEB44803F0ACFEE7
:104100001321B44806F0AAF9B04803F0A5FE0D212A
:10411000B14806F0A3F9AD4803F09EFE0F21AF4869
:1041200006F09CF9AE4BA948196803F0E5FEA748D4
:1041300003F092FE1321AB4806F090F9AA4BA34876
:10414000196803F0D9FEA14803F086FE1221A748A2
:1041500006F084F9A64B9D48196803F0CDFE9B48F4
:1041600003F07AFE1121A34806F078F9A24B974894
:10417000196803F0C1FE954803F06EFE0E219F48BA
:1041800006F06CF9D5F89C10904803F0B5FE8F4806
:1041900003F062FE19219A4806F060F9994B8B48AA
:1041A000196803F0A9FE894803F056FE11219648CC
:1041B00006F054F9954B8548196803F09DFE834835
:1041C00003F04AFE1021924806F048F9914B7F48CF
:1041D000196803F091FE7D4803F03EFE1C218E48D5
:1041E00006F03CF98D4B7948196803F085FE774855
:1041F00003F032FE1E218A4806F030F995F8BD30F2
:10420000002B00F017860D21864806F027F96F482D
:1042100003F022FE1321844806F020F96B4803F0D6
:104220001BFE04232360FFF771BA23682868FFF799
:1042300069B9674E96F8400026E506F0E5F80028D3
:104240007FF71CAB6148624E03F098FF07F0E8FA75
:10425000764907F0EDFB65230122706122602B6037
:104260001846FFF771B906F0CFF800287FF706ABC4
:104270005648574E03F082FF07F0D2FA6B4907F019
:10428000D7FB65230122F06122602B601846FFF7FF
:104290005BB906F0B9F800287FF7F0AA4B484C4EFE
:1042A00003F06CFF00EB80004300012265203366C1
:1042B00022602860FFF748B9454AD2F8AC30013394
:1042C000052BC8BF0023C2F8AC3001236520236052
:1042D0002860FFF739B906F097F800287FF7CEAAD3
:1042E0003A483B4E03F04AFF65230122C6F8B0006E
:1042F00022602B601846FFF727B9354B93F8BC2096
:10430000002A00F09285002283F8BC20DDE706F049
:104310007BF800287FF7B2AA2C482D4E03F02EFF21
:1043200000EB8000430001226520F36522602860D5
:10433000FFF70AB90123236006F066F8002805DDBF
:104340002248234E03F01AFFA6F8B6006320286027
:104350002368FFF7D7B81E4EB36FB3FA83F35B0938
:1043600001226320B36722602860FFF7EDB8184E82
:10437000D6F88030B3FA83F35B0901226320C6F8D4
:10438000803022602860FFF7DFB80123236006F049
:104390003BF8002805DD0D480D4E03F0EFFEC6F892
:1043A000A8000123632023602860FFF7CDB8012314
:1043B000236006F029F80028C8DD0448044E03F005
:1043C000DDFE07F02DFAC6F88C00BFE7C887FF1F97
:1043D0003C93FF1F98090100AC090100BC090100D2
:1043E0007094FF1FCC090100E094FF1FE009010059
:1043F000C494FF1FF4090100C894FF1F080A0100BC
:10440000180A01009494FF1F340A01009094FF1FC2
:10441000480A01007892FF1F5C0A01005C87FF1FB9
:104420007C0A01009C0A0100C806010000007A44D1
:10443000564AD36F0133032BC8BF0023D367B0E7BD
:10444000FEF71CFE23682868FFF759B80123236094
:1044500005F0DAFF00287FF779AF4D484B4E03F0A7
:104460008DFE07F0DDF9C6F888006FE7494A13684A
:10447000B3FA83F35B090121642013602160286093
:10448000FFF762B8444AF2E7444A454F1368002BED
:104490000CBF012300234FF001001360206040F0A7
:1044A0002585034664222A606420FFF728B83D4A28
:1044B000DDE70123236005F0A7FF002800F3C38494
:1044C000394B1A68042AC4BF02221A6064232B6085
:1044D0002368E9E72D4ED6F89C30B3FA83F35B09E5
:1044E00001226420C6F89C3022602860FFF72CB8B7
:1044F0002E4ABCE72E4ABAE701232E482360FCF778
:1045000091FA2D4A23681060CCE7204E96F8BD3012
:1045100001225340642086F8BD3022602860FFF7F6
:1045200013B805F071FF00280DDD1948174E03F090
:1045300025FE07F075F9214907F07AFA0122622376
:10454000306222602B6005F05FFF00280EDD10480E
:104550000E4E03F013FE07F063F9184907F068FAEE
:1045600001226223C6F8B80022602B6005F04CFFE0
:10457000002840F3D2830648044E03F0FFFD0122D9
:104580006223B06622602B601CE000BF3C93FF1FDB
:10459000C887FF1F7094FF1FE094FF1FC494FF1F84
:1045A0009092FF1FC894FF1F5C87FF1F9094FF1F0E
:1045B0007892FF1FEC94FF1F9494FF1F00007A4431
:1045C00005F0E6FE05F020FF05460028F8D1C248B8
:1045D00003F042FCC04803F03FFCBF4803F03CFC42
:1045E000BD4803F039FCBC4803F036FC1521BB483C
:1045F00005F034FFB84803F02FFC1421B84805F04B
:104600002DFFB54803F028FC1B21B64805F026FF16
:10461000B14803F021FC1321B34805F01FFFAE4859
:1046200003F01AFCAC4803F017FCAB4803F014FC91
:104630002021AE4805F012FFF068AD4907F044F9BB
:1046400006F098FC009502460B46A34803F05CFC7C
:104650000221A84805F002FF0221A74805F0FEFE4E
:104660009D4803F0F9FB2121A44805F0F7FE3069CD
:104670009F4907F029F906F07DFC009502460B469C
:10468000954803F041FC02219A4805F0E7FE02211B
:10469000994805F0E3FE904803F0DEFB1F2198489F
:1046A00005F0DCFEB06A06F065FC022702460B4608
:1046B0000097894803F028FC0121924805F0CEFEBE
:1046C00039468D4805F0CAFE834803F0C5FB20211A
:1046D0008D4805F0C3FEF06A06F04CFC00970246D8
:1046E0000B467D4803F010FC0121864805F0B6FE1C
:1046F0003946814805F0B2FE774803F0ADFB23212F
:10470000824805F0ABFEB06C794907F0DDF806F0A1
:1047100031FC009502460B466F4803F0F5FB394625
:10472000744805F09BFE3946734805F097FE6A48C9
:1047300003F092FB1F21764805F090FEF06C6C4967
:1047400007F0C2F806F016FC009502460B466248D8
:1047500003F0DAFB3946674805F080FE39466648C3
:1047600005F07CFE5C4803F077FB1921694805F0F1
:1047700075FEB16D584803F0BFFB3946664805F039
:104780006DFE39465C4805F069FE534803F064FB52
:104790001821624805F062FE706E07F041F860492A
:1047A00007F092F806F0E6FB009702460B464A48EF
:1047B00003F0AAFB01215B4805F050FE39464E4844
:1047C00005F04CFE444803F047FB2B21564805F00A
:1047D00045FEB069464907F077F806F0CBFB009537
:1047E00002460B463C4803F08FFB3946414805F032
:1047F00035FE3946404805F031FE374803F02CFBC2
:104800001F214A4805F02AFE716D334803F074FBFE
:104810003946394805F022FE2F4803F01DFB2021C0
:10482000434805F01BFE316D2B4803F065FB39460C
:10483000314805F013FE284803F00EFB10213D48D7
:1048400005F00CFEB16E244803F056FB39462948AA
:1048500005F004FE3946284805F000FE1E4803F026
:10486000FBFA1321344805F0F9FDF16E1A4803F004
:1048700043FB0121314805F0F1FD39461E4805F0A2
:10488000EDFD154803F0E8FA10212D4805F0E6FD8E
:10489000316F114803F030FB3946164805F0DEFD54
:1048A0003946154805F0DAFD0B4803F0D5FA142116
:1048B000244805F0D3FD716F074803F01DFB01216B
:1048C0001E4805F0CBFD39460B4805F0C7FD0248F0
:1048D00003F0C2FA162137E0C887FF1F440C01001D
:1048E0005C0C0100740C0100C8060100900C010072
:1048F00000007A44C40601002C100100B40C010031
:10490000D80C0100F80C0100FC0C0100200D010086
:10491000440D0100640D0100800D0100840D0100B3
:10492000CDCCCC3DFC0B0100A00D0100CC0D010055
:10493000EC0D0100100E0100240E0100380E0100E4
:104940003C0E0100500E0100BA4805F087FD306AA8
:10495000B94906F0B9FF06F00DFB009502460B467B
:10496000B64803F0D1FA3946B54805F077FD394627
:10497000B44805F073FDB14803F06EFA2421B24843
:1049800005F06CFDD6F8B800AB4906F09DFF06F0C7
:10499000F1FA00950B460246A84803F0B5FA3946ED
:1049A000A74805F05BFD3946A64805F057FDA3482A
:1049B00003F052FAA14803F04FFA03232360FEF7F5
:1049C000A5BE05F021FD002840F3A7819B489F4E1E
:1049D00003F0D4FB06F024FF974907F029F80122E1
:1049E0006223B06422602B60ECE505F00DFD002829
:1049F00040F393819148954E03F0C0FB012262235E
:104A0000306522602B60DDE505F0FEFC002840F3F8
:104A100084818A488D4E03F0B1FB06F001FF864980
:104A200007F006F801226223306122602B60C9E59D
:104A300005F0EAFC002840F370818048834E03F0C3
:104A40009DFB06F0EDFE01226223B06222602B6026
:104A5000B8E505F0D9FC002840F35F8177487B4E2C
:104A600003F08CFB06F0DCFE01226223F062226080
:104A70002B60A7E505F0C8FC002840F34E816F4885
:104A8000724E03F07BFB01226223306722602B60B1
:104A900098E505F0B9FC002840F33F8167486B4E6C
:104AA00003F06CFB06F0BCFE634906F0C1FF012277
:104AB0006223F06022602B6084E500227323226071
:104AC0002B60FEF7C2BD624B5E48604E00220221A1
:104AD0001A6005F0C3FC594803F0BEF90B215D488C
:104AE00005F0BCFC0221574805F0B8FC534803F020
:104AF000B3F90122622322602B6063E505F084FC98
:104B0000002840F30A814D48504E03F037FB012244
:104B10006223706722602B6054E5FCF73FFF02219F
:104B200048484A4E05F09AFC444803F095F90221A2
:104B3000444805F093FC414803F08EF902214148B6
:104B400005F08CFC3D4803F087F91721424805F039
:104B500085FC3A4803F080F9C4E705F055FC0028CD
:104B600040F3DB803548394E03F008FB06F058FE71
:104B7000314906F05DFF01226223F06422602B6060
:104B800020E505F041FC002840F3C7802B482F4E5C
:104B900003F0F4FA01226223B06522602B6011E574
:104BA00005F032FC002840F3B8802448274E03F07B
:104BB000E5FA00EB80004300012162227366216068
:104BC0002A60FFE405F020FC002840F3A6801B4883
:104BD0001E4E03F0D3FA06F023FE174906F028FF15
:104BE00001226223B06122602B60EBE405F00CFC33
:104BF000002840F392801148144E03F0BFFA0122BE
:104C00006223F06622602B60DCE4C02200210F48A2
:104C100003F0A8FB2868114AA0F1730001210023CA
:104C2000B0FA80F0400911602360FEF70CBD04F07B
:104C30007DFD00BF680E010000007A44C887FF1F99
:104C4000C40601002C100100800E01003C93FF1FE0
:104C50006C92FF1F70060100580601003C87FF1F81
:104C60000B21C04805F0FAFBBF48C04D03F0F4F833
:104C7000D6F8AC30002B12DD1821BD4805F0EEFB54
:104C8000D5F8B010B84803F037F90221B94805F05B
:104C9000E5FBB54803F0E0F8B34803F0DDF81B216D
:104CA000B54805F0DBFB96F8BC30012B15BF12218F
:104CB0001421B248B24805F0D1FBAB4803F0CCF860
:104CC0001321B04805F0CAFBA74803F0C5F8062336
:104CD0002360FEF71BBD0D21AB4805F0BFFBC3E70A
:104CE0000D21AA4805F0BAFBBEE70C21A84805F043
:104CF000B5FBB9E70D21A74805F0B0FBB4E70C21DF
:104D0000A54805F0ABFBAFE72368002B08BF73286D
:104D10000CBF01200020FEF796BC23682868012BF9
:104D20007EF48BACFEF710BC05F06EFB00287EF71E
:104D300015AD8D488D4E03F021FA06F071FD9749AF
:104D400006F0C2FD61230122706222602B601846CA
:104D5000FEF7FABB05F058FB00287EF7FFAC82484F
:104D6000824E03F00BFA61230122A6F8B400226000
:104D70002B601846FEF7E8BB05F046FB00287EF7DF
:104D8000EDAC7948794E03F0F9F906F049FD61235D
:104D90000122B06322602B601846FEF7D5BB05F0F8
:104DA00033FB00287EF782AD6F48704E03F0E6F9C2
:104DB0007B4BC6F8A40003221A60FDF737F90122E5
:104DC0006B2322602B60FEF7D7BE05F01DFB002889
:104DD0007EF76CAD6448654E03F0D0F901226B2379
:104DE000C6F8940022602B60FEF7C6BE05F00CFBEF
:104DF00000287EF75BAD5C485C4E03F0BFF90122F2
:104E00006B23C6F8900022602B60FEF7B5BE05F05C
:104E1000FBFA00287EF74AAD5348544E03F0AEF932
:104E20005F4BC6F8A0000222C6E7012283F8BC202F
:104E3000FFF74BBA0E215B4805F010FB4A4803F020
:104E40000BF8FFF7E7B9484803F098F9564B0246CC
:104E50001860FFF737BB1C21544805F0FFFAD7F85C
:104E60008C00534906F030FD06F084F800950246A8
:104E70000B463D4803F048F805214E4805F0EEFA90
:104E8000394802F0E9FFFD6F012D45D0032D7FF475
:104E9000EEA81C21484805F0E1FAB6F8B6103248F1
:104EA00003F02AF80321454805F0D8FA2E4802F00D
:104EB000D3FFFFF7DCB81E21414805F0CFFA2A489E
:104EC00002F0CAFFFFF7A9B820213E4805F0C6FA54
:104ED000254802F0C1FFFFF7A0B817213A4805F0B6
:104EE000BDFA214802F0B8FFFFF797B8374B00260C
:104EF00031460B201E6003F0CDFD31460C2003F03F
:104F0000C9FD3146142003F0C5FD3146152003F0DC
:104F1000C1FD3B68FFF7C6BA1D212D4805F09EFA7A
:104F2000D7F88800224906F0CFFC06F023F8009558
:104F30000B4602460C4802F0E7FF05211D4805F02C
:104F40008DFA094802F088FFFB6F23F00203012B62
:104F50009FD0FFF78CB8054EFEF70EBE034EFFF74D
:104F600031BB00BFC4070100C887FF1F3C93FF1F70
:104F7000D0070100EC070100F00701000C08010058
:104F800020080100C8060100B4070100A4070100C1
:104F90009407010074070100840701006F12833A2F
:104FA0009094FF1FAC0A01005C87FF1FD80B010023
:104FB000CDCCCC3DF80B0100200C0100400C0100D1
:104FC000180B0100380B01005C0B0100DC94FF1F83
:104FD000000C010038B5164C164A2368101D12F853
:104FE000011F904241EA0323F9D12360124C03F1DF
:104FF00000432360114BDB6F022B11D0104B1B6859
:10500000012B00D038BD0F4802F026FF21680D4863
:1050100002F072FF03210C48BDE8384005F01EBACB
:1050200020680A4D06F0FCFB2860FDF7C9FAE5E7A9
:105030005092FF1F8794FF1FA894FF1F3C93FF1FF0
:105040007094FF1FC887FF1FBC0F01007092FF1FE5
:1050500030B53C4C3C4883B0214601F05BFE2368F0
:1050600040F2C232934252D0A3F58C621F2A48D933
:10507000A3F5FC630F2B3FD9344B1B68012B01D0E8
:1050800003B030BD324B1B68012BF9D1314B324894
:105090001B6801930A220023019902F0EDFE2268A9
:1050A000284B002ADB7945DB2C492D4807F0D4FB3F
:1050B0002B4807F005FC0146294805F0CFF9256883
:1050C000204B15F0804526D1DB798BB1631925493A
:1050D0001A7A234807F0C0FB214807F0F1FB01468C
:1050E0001F4805F0BBF90135E379EDB2AB42EDD8CD
:1050F000194802F0B1FEC3E712491B48FBF7BCFC9C
:10510000BAE710491848FBF7B7FC2368B0E7FFF788
:1051100061FF2368A8E7154D114C0FCD0FC495E82A
:10512000030044F8040B204620F81419152105F05B
:1051300095F9DDE70E490A4822F0604207F08CFB42
:10514000B6E700BF8094FF1F14B5FF1F3C87FF1F09
:105150007094FF1FD8B6FF1FC887FF1FE80F01001C
:105160009492FF1F14100100EC94FF1FFC0F01002C
:10517000C00F0100A24B1B78052B00F0A1802DE988
:10518000F04FA04CA04EA14D626EE36DA04832607E
:1051900083B02B60FBF7C0FDE16A06F033FD08B178
:1051A00000232B609A48FBF7B5FDA16A06F048FD85
:1051B00010B1002333602B609548FBF7F7FCE168E2
:1051C00006F03EFD08B100232B609148FBF7EEFC92
:1051D000E16806F035FD08B100232B608C48894F4B
:1051E000FBF7BCFC216906F00DFD00286ED0002302
:1051F00033602B68854F002B53DD8548DFF8048230
:10520000FBF788FD216B06F0FDFC002840F0C48010
:10521000804B7F481B687B4F012B00F0FD80FBF724
:10522000C5FCE1698046606906F044FA01464046E3
:1052300006F006FD002834D0286806F0F1FA824610
:105240007348FBF7B3FCD7F814808346F9694046EE
:1052500006F030FA8146386E06F0E2FA0446F86D40
:1052600006F0DEFA214606F025FA4946074658467A
:1052700006F020FA0146384606F026FB4946074666
:10528000404606F017FA0146384606F0D1FB2146A3
:1052900006F012FA0146504606F00CFA06F0DAFC67
:1052A00028603368584A002BAFBF2B682B68002159
:1052B0001160002B01DA00232B6003B0BDE8F08FF2
:1052C0005149524A00230B60136070475048FBF766
:1052D00045FCB96906F096FC002888D13368DFF8F0
:1052E0002891002B85DD4A48FBF716FD796B06F007
:1052F000A7FC002840F0B3804548424FFBF72EFC46
:10530000216906F09DFC002800F09F804048DFF8EE
:10531000F480FBF723FCD4F8B8100746A06906F028
:10532000CBF90146384606F06DFC00283FF461AF2A
:10533000306806F075FA82463548FBF70FFC834665
:10534000D8F85C00D8F8187006F06AFA3946814639
:10535000584606F0AFF949468346002006F0AAF900
:105360000146584606F0B0FAD8F8B81083463846D9
:1053700006F0A2F9394606F09DF90146584606F0B6
:1053800057FB494606F098F90146504606F092F957
:1053900006F060FC30602CE7386806F041FA83467E
:1053A0001B48FBF7B7FC0190D8F85C00D8F82CA09C
:1053B00006F036FA019B81465146184606F07AF906
:1053C00049460190002006F075F9019B01461846F8
:1053D00006F07AFA51460190D8F8300006F06AF9E2
:1053E000019B0146184606F023FB494606F064F986
:1053F0000146584606F05EF906F02CFC386007E7D7
:10540000A094FF1F3C93FF1FAC94FF1F5892FF1FF7
:10541000EC94FF1F7492FF1FFBF7C8FBE169804605
:10542000206A06F047F90146404606F009FC0028CC
:105430003FF437AF286806F0F3F982461E48FBF7C1
:10544000B5FBD7F82080834600E71B48FBF786FBB7
:10545000B96906F0F5FB00287FF458AFC9E6D9F822
:10546000000006F0DDF982461348FBF755FC019079
:10547000786ED7F8348006F0D3F9019B8346414615
:10548000184606F017F90146584606F01DFA41463F
:105490008346B86A06F00EF90146584606F0C8FA87
:1054A000002106F009F90146504606F003F906F01E
:1054B000D1FBC9F800001FE7EC94FF1F08B527488F
:1054C00002F0CAFC0721264804F0C8FF112003F0AF
:1054D000E7FA0621F8B1234804F0C0FF122003F0D8
:1054E000DFFA062100B3204804F0B8FF122003F0D1
:1054F000D7FA062108B31D4804F0B0FF132003F0CB
:10550000CFFA062110BB1A4804F0A8FF1348BDE8E3
:10551000084002F0A1BC174804F0A0FF122003F0DD
:10552000BFFA06210028DED1134804F097FF1220AD
:1055300003F0B6FA06210028DDD1104804F08EFFF2
:10554000132003F0ADFA06210028DCD00C4804F04B
:1055500085FF0248BDE8084002F07EBCC887FF1FF7
:10556000201001002810010038100100481001002F
:1055700060100100301001004010010050100100C7
:105580005810010010B5254C2368042B27DC01219D
:105590000B2003F07FFA01210C2003F07BFA01219C
:1055A000142003F077FA0121152003F073FAFF218C
:1055B000162003F0EFF8FF21172003F0EBF8FF218E
:1055C000052003F0E7F8FF21062003F0E3F8236845
:1055D00001330A2B2360C4BF0023236010BD0021C8
:1055E0000B2003F057FA00210C2003F053FA00219E
:1055F000142003F04FFA0021152003F04BFA00218C
:10560000162003F0C7F80021172003F0C3F800218B
:10561000052003F0BFF80021D6E700BFE494FF1F88
:1056200030B59F4C94F8BD5083B0002D00F014812C
:1056300009219C4803F04AFD222003F0EFFC9A4B1D
:105640001B78052B0BD8DFE813F057025C026102D0
:105650004D02520206000721944803F037FD222034
:1056600003F0DCFCFF2003F0D9FCFF2003F0D6FCA4
:105670008F4CFF2003F0D2FC08218E4803F026FD5A
:1056800021688D4802F038FCFF2003F0C7FCFF20A2
:1056900003F0C4FCFF2003F0C1FC0921874803F09C
:1056A00015FD2168844802F027FCFF2003F0B6FCBA
:1056B000FF2003F0B3FCFF2003F0B0FC0C21804876
:1056C00003F004FD7F4B1C680021204606F0B8FA69
:1056D000002800F0048220467B4906F0A9F905F075
:1056E00049FC002402460B460094734802F00CFC6F
:1056F000FF2003F093FCFF2003F090FCFF2003F059
:105700008DFC0921714803F0E1FC7148FBF7A4FA14
:1057100005F030FC009402460B46674802F0F4FBAB
:10572000FF2003F07BFCFF2003F078FCFF2003F058
:1057300075FC0C21674803F0C9FC6548FBF7ECFADF
:1057400005F018FC009402460B465B4802F0DCFBB7
:10575000FF2003F063FCFF2003F060FCFF2003F058
:105760005DFC0D215C4803F0B1FC5948FBF7D2FA0F
:1057700005F000FC009402460B464F4802F0C4FBC3
:10578000FF2003F04BFCFF2003F048FCFF2003F058
:1057900045FC0921514803F099FC4D48FBF72CFAD0
:1057A00005F0E8FB009402460B46434802F0ACFBD0
:1057B000FF2003F033FCFF2003F030FCFF2003F058
:1057C0002DFC0C21464803F081FC4148FBF7C6F94B
:1057D0003D4906F079F805F0CDFB009402460B46F2
:1057E000354802F091FBFF2003F018FCFF2003F086
:1057F00015FCFF2003F012FC0D213A4803F066FC73
:105800003348FBF7D3F9304906F05EF805F0B2FBF8
:10581000009402460B46284802F076FBFF2003F076
:10582000FDFBFF2003F0FAFBFF2003F0F7FB09214B
:105830002D4803F04BFC2D4B1F48196802F05CFB10
:10584000FF2003F0EBFBFF2003F0E8FBFF2003B099
:10585000BDE8304003F0E2BB174802F0FDFA1648FD
:1058600002F0FAFA144802F0F7FA0D21204803F08A
:105870002DFCD4F89C30012B3CD00B4C0E482178E9
:105880002B460A2202F0F8FA2378052B00F28880D2
:10589000DFE813F05A01550150014B014601410167
:1058A0003C93FF1F68100100A094FF1F94040100A7
:1058B0003487FF1F74100100AC87FF1F80100100A8
:1058C0008C1001008092FF1F00007A449C100100A0
:1058D000EC94FF1FA8100100B8100100C8100100CF
:1058E000D4100100E4100100F41001002487FF1F10
:1058F000C40301000921B64803F0E8FBB548FBF7F3
:105900002DF9216906F07EF9002840F04581B14863
:10591000FBF74CF9E16806F093F9002840F0378175
:10592000AC48FBF743F90546AA48FBF717F90146CF
:10593000284605F0BFFEE16B06F082F9002840F032
:105940002181A448FBF788F9A16A06F079F90028BB
:1059500040F013819F48FBF77FF9E16A06F052F9A6
:10596000002840F005819C4B9A481B68012B00F0F1
:105970001881FBF7F3F82169984D06F061F978B1C9
:105980009448FBF713F9E96806F03CF940B1944BF1
:105990001B78052B00F016810821924803F096FB36
:1059A0000221914803F092FB122003F079F80128BC
:1059B00000F0CF80112003F073F8012800F0D380AD
:1059C0008A4B1B68012B00F0C98002218648884C55
:1059D00003F07CFB874B8848196802F08DFA8648F3
:1059E00002F03AFA0421854803F070FB0B2003F023
:1059F00057F8002301460A227F4802F03DFA0C20A6
:105A000003F04EF8002301460A227B4802F034FAE4
:105A1000142003F045F8002301460A22764802F0DC
:105A20002BFA152003F03CF80A22002301467248A5
:105A300002F022FA7248062103F048FB2368DD07D2
:105A40004CBF70487048012103F040FB2368980761
:105A50004CBF6C486C48012103F038FB23685A079F
:105A60004CBF68486848012103F030FB23681B07DE
:105A70004CBF64486448012103F028FB04216348BB
:105A800003F024FB112003F00BF8002301460A2247
:105A9000594802F0F1F9102003F002F80023014602
:105AA0000A22554802F0E8F9122002F0F9FF00231B
:105AB00001460A22504802F0DFF9132002F0F0FFFD
:105AC000002301460A224C4802F0D6F9504B4148C7
:105AD0001968012203B0BDE83040FBF747B904F173
