:1000000000800020BD010000018F0000B98E0000BB
:10001000B98E0000B98E0000B98E0000B98E0000C4
:10002000B98E0000B98E0000B98E0000018F00006B
:10003000018F0000B98E0000C9830000CD8400004C
:10004000018F0000018F0000018F0000018F000070
:10005000018F0000018F0000018F0000018F000060
:10006000018F0000018F0000018F0000018F000050
:10007000018F0000018F0000018F0000018F000040
:10008000018F0000018F0000018F0000018F000030
:10009000018F0000018F0000018F0000018F000020
:1000A000018F0000018F0000018F0000018F000010
:1000B000018F00009D770000A9770000AD77000058
:1000C000B9770000BD770000C1770000018F000004
:1000D000018F0000018F0000018F0000018F0000E0
:1000E000018F0000018F0000018F0000018F0000D0
:1000F000018F0000FDB30000018F0000F59B0000A0
:10010000018F000079A10000018F0000018F000025
:10011000018F0000018F0000018F0000018F00009F
:10012000018F0000018F0000018F0000018F00008F
:10013000018F0000018F0000018F0000018F00007F
:10014000018F0000018F0000018F0000018F00006F
:10015000018F0000018F0000018F0000018F00005F
:10016000018F000009A40000018F0000018F000032
:10017000018F0000018F0000018F0000018F00003F
:10018000018F0000018F0000018F0000018F00002F
:10019000018F0000018F0000018F0000018F00001F
:1001A000018F0000018F0000018F0000018F00000F
:1001B000018F0000018F0000018F0000564B4CF2B0
:1001C000205210B51A804DF628121A8000BF00BFC9
:1001D00008F09AFE514B4FF010621A60504A9A6034
:1001E000504ADA60504A136813F4807304D14F49BF
:1001F0000B604FF4A85313604D4B1A78110703D5C9
:100200001A7842F008021A704A4B4B492A221A7097
:100210004A4A4B4B8B4204D252F8040F43F8040B6A
:10022000F8E7484B484900228B4202D243F8042B9E
:10023000FAE74649464A002352F8230041F82300D2
:1002400001336F2BF8D1434B434A802103F8011B44
:100250009342FBD1414B3D4A1A60414B8A221A70AE
:10026000A3F5805324225A70A0221A709A7992071B
:10027000FCD59A79D406FCD43A4A937903F00C035E
:10028000082B384BF9D103221A7140225A719A79FE
:100290009006FCD5334A9179324B4906FBD5324A58
:1002A000324911600221516020221A709A7902F0BD
:1002B0000C020C2AFAD12E4B2E4A1A602E4B2F4AD2
:1002C0001A6000225A60072243F8042C2C4AC3F813
:1002D0000C2D62B609F0F8F8144B1B68DA0705D547
:1002E000284808F0D5FE284B284A1A60284B1B786E
:1002F0005B0609D5244C254B22689A4204D121483B
:1003000008F0C6FE002323600CF05CFB08F002FE40
:1003100008F030FDFEE700BF0E20054030800440AD
:10032000823F04000100002B10D0034014D0034092
:1003300002D0074000E007403892FF1F0427010069
:100340002087FF1F3892FF1F38BAFF1F0082FF1F50
:100350000000000000E400E05FE400E008ED00E0E1
:100360000050064000400640448004400000030165
:1003700004800440C010050014E000E0FF76010096
:1003800000002020DB517A5E1CE00340A5C3945A94
:1003900000F00740FFFFFFFFFFFFFFFFFFFFFFFF32
:1003A000FFFFFFFFFFFFFFFFFFFFFFFFFFFFFFFF5D
:1003B000FFFFFFFFFFFFFFFFFFFFFFFFFFFFFFFF4D
:1003C000FFFFFFFFFFFFFFFFFFFFFFFFFFFFFFFF3D
:1003D000FFFFFFFFFFFFFFFFFFFFFFFFFFFFFFFF2D
:1003E000FFFFFFFFFFFFFFFFFFFFFFFFFFFFFFFF1D
:1003F000FFFFFFFFFFFFFFFFFFFFFFFFFFFFFFFF0D
:10040000FFFFFFFFFFFFFFFFFFFFFFFFDEF9FFFF23
:1004100010B5054C237833B9044B13B10448AFF33E
:1004200000800123237010BD3892FF1F00000000E0
:1004300000270100084B10B51BB108490848AFF36D
:1004400000800848036803B910BD074B002BFBD0A0
:10045000BDE81040184700BF000000003C92FF1F9D
:10046000002701003892FF1F00000000F0B4194F70
:100470000024031F00F1800100F5827200F17C0668
:1004800043F8044FB34241F8047F4FF0000542F8AF
:10049000044FF5D10023104A1049C0F88C51C0F820
:1004A0009051C0F89451C0F89851C0F89C51C0F8D0
:1004B000A051C0F8B051C0F8A421C0F8AC21C0F8D8
:1004C000A81180F8B83180F8B93180F8D031F0BC8B
:1004D000704700BF0000A040000048430000C8C2B1
:1004E00038B590F8D0310B2B0546144607D8702943
:1004F00066D0E02931D0602900F09B8038BD70299A
:100500003AD0E02929D06029F8D1137A507A1B0219
:1005100003F47063181805D00BF0EEFF63490CF07C
:100520003FF86860A37AE07A1B0203F4706318183E
:1005300005D00BF0E1FF5D490CF032F8A860237B99
:10054000607B1B0203F470631818D7D00BF0D4FF44
:1005500056490CF025F8E86038BDE37BA07B03EB3F
:1005600000200BF0C9FF52490CF01AF851490BF06A
:100570000FFFC5F8900138BD137A507A1B0203F4BF
:10058000FE43181805D00BF0B7FF48490CF008F8E7
:100590006861A07AE37A13EB002005D00BF0ACFF82
:1005A00042490BF0FDFFA861207B637B13EB002029
:1005B000A4D00BF0A1FF3D490BF0F2FFE86138BD7C
:1005C000137A507A1B0203F47063181805D00BF0ED
:1005D00093FF36490BF0E4FF6861A37AE07A1B02CF
:1005E000C34208D003F4706318440BF085FF2F4911
:1005F0000BF0D6FFA861237B607B1B02C34208D0AF
:1006000003F4706318440BF077FF28490BF0C8FF20
:10061000E861A37BE07B1B02C3423FF46FAF03F4AE
:10062000706318440BF068FF20490BF0B9FF286293
:1006300038BD137A507A1B0203F4FE42C24208D03E
:1006400003F4706318440BF057FF18490BF0A8FF30
:100650006860A37AE07A1B02C34208D003F4706397
:1006600018440BF049FF11490BF09AFFA860237B57
:10067000607B1B02C34208D003F4706318440BF084
:100680003BFF0A490BF08CFFE860A37BE07B1B0279
:10069000C3423FF433AF03F4706318440BF02CFFF4
:1006A00002490BF07DFF286138BD00BF0AD7A33A8D
:1006B000DDB504BD00001643D0F8DC01704700BF73
:1006C00090F8C001704700BF90F8BC01704700BFB0
:1006D00090F8C401704700BF90F8C801704700BF90
:1006E000202994BF50F82100002070472DE9F041E7
:1006F0000B4E8046041F00F17C0754F8045F31461E
:1007000028460CF0EBF830B1D8F8B41128460CF0BC
:1007100003F900B12E46BC42EFD13046BDE8F0816E
:10072000000020412DE9F041D0F8B4714FF00008ED
:10073000041F00F17C0654F8045F394628460CF08B
:10074000EBF8084948B128460CF0C8F8414620B1FA
:1007500028460CF0E1F800B1A846B442EBD140467F
:10076000BDE8F0810000A0402DE9F0470023D0F85B
:10077000B471C0F8DC3182461C464FF0000998463F
:10078000061F56F8045F384629460CF0A7F80E49B4
:1007900060B128460CF0A2F840B1484629460BF05B
:1007A000F7FD08F101088146CAF8DC410134202C2C
:1007B000E7D1CAF8D48140460BF09EFE0146484678
:1007C0000BF0A2FFBDE8F08700007042D0F8D40122
:1007D000704700BFD0F89001704700BFD0F890017B
:1007E000704700BFD0F89001704700BF2DE9F84373
:1007F0004FF00008D0F8B471C0F88C818146041F16
:1008000000F17C0654F8045F394628460CF084F861
:10081000084950B128460CF061F830B140462946ED
:100820000BF0B6FD8046C9F88C01B442EAD14046CF
:10083000BDE8F8830000704202299ABF643150F885
:1008400021000020704700BF102998BF80F8D01108
:10085000704700BF90F8B801704700BF90F8B90129
:10086000704700BFC0F8CC11704700BF80F8B811C6
:10087000704700BF80F8B911704700BF30B5C0F8AD
:10088000B41183B008460BF0E1F9074C022502468B
:100890000B460095204607F0C7FF204603B0BDE891
:1008A000304007F067BF00BFD887FF1F70B500F565
:1008B00000550646183500F13804204604F5F0745A
:1008C000FFF7D4FDAC42F8D106F5067501242846A1
:1008D0000021FFF7CBFF214628460134FFF7B4FF84
:1008E000112C05F5F075F2D142F2200400250548DF
:1008F000054A064B3555002130627162B262F362DF
:10090000304670BD00007A44000048430000C8C271
:1009100070B500F5EC46583600F50674002508E081
:1009200001252046002104F5F074FFF7A3FFB4422F
:100930000AD02046FFF78EFF0028F2D02046FFF7AE
:100940008DFF0028ECD170BD284670BD42F2240313
:100950002DE9F041002200F5F15500F500578046E1
:10096000C2501835243700F5067403E004F5F0741E
:10097000AC420ED02046FFF76DFF0028F6D020468F
:100980003E68FFF723FF04F5F0743044AC42386052
:10099000F0D142F2240358F80300BDE8F08100BF13
:1009A00070B50E460121356805F00F040C44C4EB08
:1009B000041400EB441000F138042046FFF756FF02
:1009C00020460121FFF756FF3246204605F0F00190
:1009D000BDE87040FFF784BD70B5002300F50056F8
:1009E00005460361183600F5067403E004F5F0745B
:1009F000A64223D02046FFF72DFF0028F6D0204640
:100A0000FFF7F4FE014628690BF0C2FC286120467E
:100A1000FFF7E0FEA96A0BF061FF20BB2046FFF75D
:100A2000DDFEE96A0BF078FF0028DFD02046FFF7F3
:100A3000D5FE04F5F074A642E862DBD168690BF0DC
:100A40005BFD014628690BF05FFE696A2861044678
:100A50000BF062FF00B16C62296A20460BF03EFF8A
:100A600000B12C6270BD2046FFF7B4FEA862D5E746
:100A700070B5124B836100F500550646183500F538
:100A8000067403E004F5F074AC4214D02046FFF77E
:100A9000E1FE0028F6D02046FFF728FEB1690BF0F2
:100AA0001DFF0028EED02046FFF720FE04F5F0746D
:100AB000AC42B061EAD1B06970BD00BF0000A04097
:100AC00070B5002300F500550646C361183500F5E2
:100AD000067403E004F5F074AC4214D02046FFF72E
:100AE000B9FE0028F6D02046FFF71CFEF1690BF096
:100AF00013FF0028EED02046FFF714FE04F5F07433
:100B0000AC42F061EAD1F06970BD00BF0069704786
:100B100041617047F8B50F46164600F50674012589
:100B200004E00135112D04F5F0741BD02046FFF7C9
:100B300091FE0028F5D029460B4807F06BFE0A48C5
:100B400007F018FE78200AF079FB20463946FFF7B7
:100B500089FE013520463146FFF790FE112D04F540
:100B6000F074E3D1F8BD00BFD887FF1F2DE9F8432B
:100B700042F21C0300F500550027C7502E462B4AB1
:100B80002B4B426380464FF00009036318351C3637
:100B900000F5067403E004F5F074A54214D0204675
:100BA000FFF758FE0028F6D0336801333360204643
:100BB000FFF718FE1F490BF0AFFE90B904F5F07473
:100BC000A54207F10107EAD142F21C0358F80300DD
:100BD000C01B0BF091FC014648460BF095FDBDE8AB
:100BE000F8832046FFF7FEFD014648460BF0D0FB98
:100BF00081462046FFF7F2FDD8F830100BF08CFE4E
:100C000070B92046FFF7E6FDD8F834100BF066FE09
:100C10000028C0D02046FFF7DDFDC8F83400BAE751
:100C20002046FFF7DBFDC8F83000EAE700C0794452
:100C300000C079C400008CC2006B7047406B7047E5
:100C4000F8B500F5005507460026183500F506747E
:100C500003E004F5F074AC4210D02046FFF7FAFD33
:100C60000028F6D02046FFF77FFD014630460BF006
:100C70008FFB04F5F074AC420646EED142F21C0341
:100C8000F8580BF039FC014630460BF03DFDF8BD3D
:100C90002DE9F04F93B004460F91002A40F0D78120
:100CA00015461046C84900F0E5FDC749284600F042
:100CB000E1FDC549284600F0DDFD42F21C03204657
:100CC00054F803B0FFF742FE8146206966690AF0D6
:100CD000BDFFCDE910012046FFF7B2FF8246204656
:100CE000A769D4F81C80FFF741FF0AF0AFFFCDE9F8
:100CF0000C01394640460BF049FBB4490BF050FC5F
:100D00000AF0A4FFCDE90A0140460AF09FFFCDE9B1
:100D1000080138460AF09AFFCDE9060150460AF06C
:100D200095FFDDE91023CDE90401CDE90223A849AF
:100D300000964B465A46284600F09CFDA24928469C
:100D400000F098FD04F506744FF0010ADDF83C90C0
:100D500007E00AF1010ABAF1100F04F5F07400F08F
:100D6000F7802046FFF776FD0028F2D02046FFF7F7
:100D7000A7FC2046FFF7A8FC2046FFF7A9FC204669
:100D8000FFF7AAFC082193480AF0D4F9514692488B
:100D900007F040FDBAF1090F03DC01218F480AF08A
:100DA000C9F902218E480AF0C5F92046FFF71EFD59
:100DB0000AF04CFF5FFA89F802460B46CDF8008036
:100DC000854807F031FD012186480AF0B3F9204635
:100DD000FFF772FC0C2800F3BE8001261EE00621FE
:100DE00081480AF0A7F929467B4807F013FD022144
:100DF0007E480AF09FF931462046FFF771FC0AF061
:100E000025FFCDF8008002460B46734807F00CFD25
:100E1000012174483D460E440AF08CF92046FFF744
:100E20004BFC864205F101076BDC092DD7DC012163
:100E30006A480AF07FF9D2E72046FFF73DFC172801
:100E400000F3BE8035460D261CE00AF073F92946F2
:100E5000614807F0DFFC022164480AF06BF9314673
:100E60002046FFF73DFC0AF0F1FECDF80080024677
:100E70000B46594807F0D8FC01215A483D460E441C
:100E80000AF058F92046FFF717FC86424FF006019A
:100E9000554805F10107D8DD0F2155480AF04AF9F8
:100EA0004D4807F067FC2046FFF706FC192828DDAF
:100EB00019261CE00AF03EF92946474807F0AAFC2B
:100EC00002214A480AF036F931462046FFF708FC6D
:100ED0000AF0BCFECDF8008002460B463E4807F003
:100EE000A3FC01213F483D460E440AF023F9204669
:100EF000FFF7E2FB86424FF006013B4805F1010790
:100F0000D8DD0F213A480AF015F9334807F032FCD2
:100F1000092138480AF00EF900212046FFF78CFC21
:100F20000AF094FE022602460B4600962A4807F075
:100F30007BFC0F212E480AF0FDF80AF1010A264831
:100F400007F018FCBAF1100F04F5F0747FF409AF44
:100F500013B0BDE8F08F2F46012620E0062122487D
:100F60000AF0E8F839461C4807F054FC02211F48F3
:100F70000AF0E0F831462046FFF7B2FB0AF066FEC1
:100F8000CDF8008002460B46134807F04DFC0136B1
:100F9000012114480AF0CEF80C2E09D05F46092F23
:100FA00007F1010BDADC01210C480AF0C3F8D5E7A0
:100FB0002046FFF781FB0C2805F10B063FF73CAFFD
:100FC00016350D273AE000BFC420010000007A4426
:100FD000E00D0100800E0100D887FF1FEC1E01000C
:100FE000801301008C0E0100900E010068100100BA
:100FF000980E0100A80E01000621BD480AF09AF8DB
:101000003146BC4807F006FC0221BB480AF092F8C2
:1010100039462046FFF764FB0AF018FECDF8008041
:1010200002460B46B34807F0FFFB0121B3480F44CB
:101030000AF080F85D453FF42FAF5E46092E06F1B9
:10104000010BD9DC0121AE480AF074F8D4E7AD49B0
:10105000012000F00FFCAB49012000F00BFCA94976
:10106000012000F007FC42F21C032046E2581092D7
:10107000FFF76CFC8246206966690AF0E7FD80464E
:1010800020468946FFF7DCFD83462046A569E769CF
:10109000FFF76CFD0AF0DAFDCDE90C012946384670
:1010A0000BF074F998490BF07BFA0AF0CFFDCDE90B
:1010B0000A0138460AF0CAFDCDE9080128460AF0BF
:1010C000C5FDCDE9060158460AF0C0FD5346CDE9FD
:1010D0000401CDE90289109A8C490096012000F0A4
:1010E000C9FB8849012000F0C5FB04F506744FF0E8
:1010F000010A0025DDF83C9007E00AF1010ABAF187
:10110000100F04F5F0743FF423AF2046FFF7A2FB65
:101110000028F2D02046FFF7D3FA2046FFF7D4FA92
:101120002046FFF7D5FA2046FFF7D6FA082178487F
:1011300008F05CFC5146774807F06CFBBAF1090FE8
:1011400003DC01216E4808F051FC0221724808F0CE
:101150004DFC2046FFF74AFB0AF078FD5FFA89F85C
:1011600002460B46CDF800806A4807F05DFB01217E
:10117000624808F03BFC2046FFF79EFA0C2800F37B
:10118000B48001261EE00621594808F02FFC2946AC
:10119000604807F03FFB0221574808F027FC314622
:1011A0002046FFF79DFA0AF051FDCDF80080024677
:1011B0000B46584807F038FB012150483D460E4485
:1011C00008F014FC2046FFF777FA864205F1010784
:1011D0006BDC092DD7DC0121494808F007FCD2E778
:1011E0002046FFF769FA172800F3CE8035460D2612
:1011F0001CE008F0FBFB2946464807F00BFB0221E8
:101200003D4808F0F3FB31462046FFF769FA0AF043
:101210001DFDCDF8008002460B463E4807F004FB5A
:10122000012136483D460E4408F0E0FB2046FFF71A
:1012300043FA86424FF006012D4805F10107D8DD3B
:101240000F21364808F0D2FB324807F093FA2046C7
:10125000FFF732FA192828DD19261CE008F0C6FB32
:1012600029462C4807F0D6FA0221234808F0BEFB95
:1012700031462046FFF734FA0AF0E8FCCDF800804A
:1012800002460B46234807F0CFFA01211B483D4692
:101290000E4408F0ABFB2046FFF70EFA86424FF0F3
:1012A0000601134805F10107D8DD0F211B4808F09E
:1012B0009DFB184807F05EFA0921194808F096FBD3
:1012C00000212046FFF7B8FA0AF0C0FC02260246C9
:1012D0000B4600960F4807F0A7FA0F210F4808F0B9
:1012E00085FB0C4807F046FA07E72F4601263AE04F
:1012F000900E0100D887FF1F681001008C0E0100BE
:10130000EC1E0100C420010000007A44E00D010041
:10131000800E0100AC87FF1F80130100980E0100B2
:10132000A80E010006212F4808F060FB39462E4820
:1013300007F070FA02212D4808F058FB314620468C
:10134000FFF7CEF90AF082FCCDF8008002460B468A
:10135000254807F069FA01360121254808F046FBC7
:101360000C2E09D05F46092F07F1010BDADC0121B1
:10137000204808F03BFBD5E72046FFF79DF90C28F5
:1013800005F10B063FF72CAF16350D2721E006219E
:10139000144808F02BFB3146134807F03BFA0221B2
:1013A000124808F023FB39462046FFF799F90AF066
:1013B0004DFCCDF8008002460B460B4807F034FA8E
:1013C00001210B480F4408F011FB5D453FF438AF95
:1013D0005E46092E06F1010BD9DC0121054808F013
:1013E00005FBD4E7900E0100AC87FF1F68100100D9
:1013F0008C0E0100EC1E01002DE9F04F85B000F5C8
:1014000006758A4603929B462E464FF0010806E079
:1014100008F10108B8F13F0F06F5F0767BD03046B1
:10142000FFF718FA0028F3D000230A2251467D481E
:1014300007F0B0F901217C4809F07CFE03980AF01E
:1014400005FC00230246009376480B4607F0ECF9B2
:101450000121754809F06EFE5946724807F0DAF925
:101460000121714809F066FE41466E4807F0D2F945
:1014700001216D4809F05EFE00244FF0020921466B
:101480003046FFF72DF90AF0E1FBCDF80090024657
:101490000B46644807F0C8F901340121624809F09D
:1014A00049FE082C4FF00207E9D100213046FFF732
:1014B000C3F90AF0CBFB009702460B46594807F0E8
:1014C000B3F90121584809F035FE01213046FFF7F4
:1014D000B3F90AF0BBFB009702460B46514807F0F0
:1014E000A3F90121504809F025FE39463046FFF79F
:1014F000A3F90AF0ABFB009702460B46494807F0F8
:1015000093F908F10108474807F034F9B8F13F0FA3
:1015100006F5F07683D101274FF0000904E001378A
:101520003F2F05F5F07579D02846FFF793F900288D
:10153000F5D000230A2251463C4807F02BF901213F
:10154000394808F053FA03980AF080FBCDF8009070
:1015500002460B46354807F067F90121324808F08A
:1015600045FA5946314807F055F901212E4808F04F
:101570003DFA39462D4807F04DF901212A4808F077
:1015800035FA00244FF0020821462846FFF7A8F854
:101590000AF05CFBCDF8008002460B46234807F0BA
:1015A00043F901340121204808F020FA082C4FF0BB
:1015B0000206E9D100212846FFF73EF90AF046FB72
:1015C000009602460B46194807F02EF901211648ED
:1015D00008F00CFA01212846FFF72EF90AF036FB35
:1015E000009602460B46114807F01EF901210E48ED
:1015F00008F0FCF931462846FFF71EF90AF026FBF1
:10160000009602460B46094807F00EF901370748D5
:1016100007F0B0F83F2F05F5F07585D105B0BDE8AE
:10162000F08F00BFD887FF1FB40E0100AC87FF1FEB
:1016300070B5044608460D460BF0A2FF236802462B
:10164000294620465B68BDE870401847014B18707A
:10165000704700BF2087FF1FF0B51546027883B0A2
:1016600062B103460E46252A16D018781C4685B965
:1016700009F0E4FD6278631C002AF4D1002D5CD0EF
:10168000744803B0BDE8F04007F074B81046002D70
:10169000EED008F053F9EDE758785C1C0028EDD047
:1016A0002528F3D073282FD0642825D0692823D08B
:1016B000662848D07A2853D078285ED0582800F081
:1016C0008580622800F09180422866D06C2813D073
:1016D000632811D0742800F098805428C7D133684B
:1016E0000436002D40F0A480012B00F0A8800521D5
:1016F000594809F01FFDBDE7331D316885B95748CA
:101700001E4607F087F8B5E7371D3668304665B9DD
:101710000BF036FF014630463E4609F00BFDA9E7C7
:101720004C481E4607F076F8A4E70BF029FF014667
:1017300030463E4608F05AF99CE7484803B0BDE8F9
:10174000F04007F017B8073626F007060321D6E960
:101750000023009165B94148083607F065F889E72C
:10176000073626F00706D6E9002385B1002100914F
:101770003848083607F058F87CE7371D3168F5B966
:101780000023102235483E4607F004F872E7009522
:101790003248083607F048F86CE7022130487DBB34
:1017A00009F0C8FC3168371D2B4602222B483E4603
:1017B00006F0F0FF5EE708F019F93168371D0023E5
:1017C000102224483E4606F0E5FF53E70221254853
:1017D000002DF0D109F0AEFC371D31681F482B46B3
:1017E00010223E4606F0D6FF44E7371D3168002D33
:1017F000DAD00023022217483E4606F0CBFF39E735
:1018000008F0F4F8371D3168F3E7316804363DB964
:1018100001290EBF14481548012109F08BFC29E766
:1018200001290EBF10481148012108F0DFF821E717
:10183000012B09D00521084808F0D8F81AE70C490F
:101840000648FFF7F5FE15E709490248FFF7F0FEE5
:1018500010E700BFAC87FF1FF40E0100D887FF1F01
:10186000E00E0100DC0E0100E40E0100E80E0100B4
:10187000EC0E01000EB400B582B003A9024651F887
:10188000040B0191FFF7E8FE02B05DF804EB03B032
:10189000704700BF30B4074D074C084900232B7038
:1018A000236003654365836580F85C300B6030BC62
:1018B000704700BF5C92FF1F5892FF1F5492FF1F9A
:1018C0000A4A0B49906D536D03FB00F34FF47A7095
:1018D00000FB03F0642310B50B600AF00DFE054910
:1018E000054C0AF011FF206010BD00BF6093FF1F80
:1018F0003487FF1FE4388E3E2093FF1F2DE9F0410F
:101900004249434F434D444E444C0020FFF7B2FF41
:10191000434B444A44485A60DF601222002743493F
:101920001A701861424A43485D615E62424D9C6193
:101930004FF07C56414C1F63414F9962DA62414936
:1019400058630C2240489D635E6440F61C450A269D
:101950009C641F6241F204043C4FD9641A65022161
:101960000122C3F8B8009D6600206425DE661C676E
:101970004FF496763224DF61DF635A27597059722B
:101980001A725A6583F840005E66DE651C669D65C6
:101990005F679867C3F88000C3F89C008C204FF401
:1019A0007A78DFF8ACC0D967C3F89440C3F8A04098
:1019B000DFF8A0E0C3F8A820FF27C3F8AC10052685
:1019C00041F288314FF4FA7483F8BC2083F8BD20CB
:1019D00083F8BE2083F8C20040F2D662C3F8B0504C
:1019E000C3F89880C3F888C0C3F88CE0C3F8A4702B
:1019F000A3F8B660A3F8C040C3F89010A3F8B410E1
:101A0000A3F88420A3F88620BDE8F081FC0E010035
:101A10006666864033338340CDCCCC3DCDCC4C4044
:101A20006093FF1F48E80100000040400000824230
:101A3000000020C1000020420000A0409A99794097
:101A4000333373400AD7233D9A99993ECDCC4C3E0F
:101A50000000684200C02044F0B54FF47A6085B0C1
:101A600007F0E4FC00210F2007F0B8FC00210E2055
:101A700007F0B4FC0021112007F0B0FC0021102079
:101A800007F0ACFC0021122007F0A8FC0021132075
:101A900007F0A4FC01210B2007F0A0FC01210C2081
:101AA00007F09CFC0121142007F098FC012115206F
:101AB00007F094FC0121162007F090FC012117206B
:101AC00007F08CFC0121052007F088FC8D4C8E4D21
:101AD0000121062007F082FC01210D2007F07EFC89
:101AE00020880AF005FD0146162007F0E1FB20885A
:101AF0000AF0FEFC0146172007F0DAFB20880AF006
:101B0000F7FC0146052007F0D3FB20880AF0F0FC23
:101B100000240146062007F0CBFB009423467B4AB5
:101B20007B497C4805F0E2FAE6B2324676497948CC
:101B300005F08AFA2B79744976486FF30003013473
:101B400032462B7105F076FA082CEDD10924E6B265
:101B500032466D496F4805F077FA2B796A496D482E
:101B600043F00103013432462B7105F063FA0D2C6A
:101B7000EDD1694C4FF0FF322068102105F082FE54
:101B800020684FF0FF32102105F054FE20684FF01E
:101B9000FF32022105F062FE20684FF0FF32022181
:101BA00005F066FE00220F21206805F075FE0C216D
:101BB0005A4809F0BFFA5A4806F0DCFD1621594888
:101BC00009F0B8FA564806F0D5FD40F2836007F0F8
:101BD000EBFC40F2413008F0E5F8514806F0CAFD50
:101BE0001721514809F0A6FA4D4806F0C3FD4F4BA6
:101BF0001B789A0600F1B4804C4B1B781B0700F150
:101C0000BB804A4B1B785F0700F1C280474B1B78B3
:101C10009E0700F1C980464B1B781D0600F1D0805D
:101C2000434B1B785C0600F1D780414B1B7898062C
:101C300000F1DE803E4B1B78590700F1E5803C4BFC
:101C40001B781A0700F1EC80394B1B789B0700F1D9
:101C5000F380334806F08EFD72B6364A4CF22050BF
:101C60004DF62811108020231180013BFDD1324C0C
:101C70003248334900234FF48055258003800B8080
:101C800032F80E3C9BB243F0D30322F80E3C62B60E
:101C900018212C482C4D09F04DFA214806F06AFD18
:101CA00005F1C4062F462C46601B06F0D1FF04F850
:101CB000010BB442F8D13B78122B01D0FFF71EFE86
:101CC0000420FFF7C3FC214B002201210D201A60E4
:101CD00007F070FB796D1E48FEF71AFF7A6C97F8D3
:101CE00040101B48FEF716FF1A4B1B491A68039257
:101CF00003981B680293029A184B08601A6005B09B
:101D0000F0BD00BF2887FF1F2C94FF1F38B7FF1FAF
:101D100048E801009CB5FF1FD894FF1F1C0F01006D
:101D2000D887FF1F2C0F0100440F010001F007406E
:101D300000F007400E200540042005400620054025
:101D400016200540481001006093FF1F7092FF1F8E
:101D50007495FF1F60B7FF1F0895FF1F3494FF1F86
:101D60002121394809F0E6F9384806F003FD384BDF
:101D70001B781B077FF545AF0C21364809F0DAF9CF
:101D8000324806F0F7FC324B1B785F077FF53EAF19
:101D90000E21314809F0CEF92C4806F0EBFC2C4B13
:101DA0001B789E077FF537AF17212C4809F0C2F941
:101DB000264806F0DFFC2A4B1B781D067FF530AF66
:101DC0000E21284809F0B6F9204806F0D3FC244B30
:101DD0001B785C067FF529AF1221234809F0AAF988
:101DE0001A4806F0C7FC1E4B1B7898067FF522AFF9
:101DF00013211E4809F09EF9144806F0BBFC184B4D
:101E00001B7859077FF51BAF1C21194809F092F97F
:101E10000E4806F0AFFC124B1B781A077FF514AF83
:101E20001921144809F086F9084806F0A3FC0C4B68
:101E30001B789B077FF50DAF18210F4809F07AF941
:101E4000024806F097FC04E75C0F0100D887FF1FEB
:101E500001F00740800F0100900F0100A00F01006A
:101E600000F00740B80F0100C80F0100DC0F0100AF
:101E7000F00F0100101001002C10010070B5464C4D
:101E8000464D4748E66800232B70FEF719FE0146D1
:101E900030460AF023FD08B104232B704048FEF7BA
:101EA000E7FD21690AF01AFD18B12B7843F0100301
:101EB0002B703B48FEF7C0FEA16A0AF02DFD18B159
:101EC0002B7843F040032B70002335486B70FEF7EE
:101ED000B5FEE16A314E0AF001FD08B101237370CD
:101EE00000232F48EB70FEF7EBFD05462C482B4EE8
:101EF000FEF7BEFD014628460AF048FAE16B0AF0FB
:101F00000BFD08B10123F370264D254800232B70EB
:101F1000FEF7D6FD616A0646E0680AF037FA014628
:101F200030460AF0F9FC08B104232B701C48FEF778
:101F30009FFD616A064620690AF02AFA014630468A
:101F40000AF0CCFC18B12B7843F010032B70144826
:101F5000FEF772FEA16B0646A06A0AF017FA014668
:101F600030460AF0D9FC18B12B7843F040032B70AF
:101F700000230B486B70FEF761FEA16B0546E06A1B
:101F8000084C0AF005FA014628460AF0A7FC08B1F9
:101F90000123637070BD00BF6093FF1F5C93FF1F40
:101FA0007495FF1FC894FF1F2DE9F0417C4C2368F6
:101FB000012B82B031D0022B00F0A880032B00F05F
:101FC000C8803BBB774B784AD3F8A010D3F8A43035
:101FD00012685B1A632B0EDD744803FB02F380FB6F
:101FE0000302DB17C3EB62131944062002B0BDE8FD
:101FF000F04107F05FB86E4803FB022380FB030249
:10200000DB17C3EB22121144062002B0BDE8F041F9
:1020100007F050B802B0BDE8F081664E33680A336D
:10202000B3F57A7F00F3B780184633600AF064FA9C
:1020300061490AF0B5FA80465A4DD5F8A0000AF079
:102040005BFA0746D5F8A4000AF056FA39460AF0BA
:102050009DF941460AF0A4FA58490AF055FB394661
:102060000AF096F90AF062FC0146062007F022F811
:102070000221534809F05EF8524806F07BFB062126
:10208000514809F057F830680AF036FA4A490AF020
:1020900087FA09F0DBFD022702460B460097494804
:1020A00006F0C2FB0D21494809F044F8D5F8A0001C
:1020B0000AF022FA804630680AF01EFA3E490AF019
:1020C0006FFA0646D5F8A4000AF016FA41460AF05F
:1020D0005DF9014630460AF063FA38490AF014FB0C
:1020E00041460AF055F909F0B1FD00970B4602464A
:1020F000344806F099FB3946314809F01BF831485D
:1021000006F038FB2368022B7FF458AF294B254E8D
:1021100000221A60D6F8A0000AF0EEF90546D6F8BB
:10212000A4000AF0E9F929460AF030F900210AF082
:1021300037FA22490AF0E8FA29460AF029F90AF0A2
:10214000F5FB0146062006F0B5FF2368032B7FF45C
:1021500038AF184B134E4FF47A721A60D6F8A000BD
:102160000AF0CAF90546D6F8A4000AF0C5F92946CE
:102170000AF00CF911490AF013FA10490AF0C4FAEE
:1021800029460AF005F90AF0D1FB0146062006F0BF
:1021900091FF236815E700234FF0000833604BE7F9
:1021A0003493FF1F6093FF1F3487FF1F1F85EB5180
:1021B000CBF08D287492FF1FCDCCCC3D0000C842DF
:1021C00080130100D887FF1F641001006C1001000C
:1021D00070B5B848B84C06F0CDFAB64806F0CAFA61
:1021E000B44806F0C7FA0D21B44808F0A3FFD4F8AC
:1021F0009C30012B11D0B24CAE48217800230A222A
:1022000006F0C8FA2378052B67D8DFE813F00B0136
:10221000100115011A011F0101010921A94808F047
:1022200089FFA948FEF724FC21690AF057FB18B181
:102230000F21A64808F07EFFA348FEF741FCE168A5
:102240000AF06AFB18B10E21A14808F073FF9E48FE
:10225000FEF736FC05469C48FEF70AFC0146284678
:102260000AF094F8E16B0AF057FB18B11121994874
:1022700008F060FF9448FEF779FCA16A0AF04CFB75
:1022800018B10C21944808F055FF8F48FEF76EFCFA
:10229000E16A0AF023FB18B10D21904808F04AFFCB
:1022A0008F4B89481B68012B00F0ED80FEF7E0FBA7
:1022B0002169814D0AF030FB78B18348FEF700FCBC
:1022C000E9680AF00BFB40B17D4B1B78052B00F051
:1022D000EB800821834808F02DFF0221824808F096
:1022E00029FF122007F06CF8012800F0B4801120BB
:1022F00007F066F8012800F0B8807C4B1B68012BC2
:1023000000F0BC8002217848794C08F013FF794B2B
:102310006848196806F07EFA664806F02BFA042130
:10232000754808F007FF0B2007F04AF80023014624
:102330000A22604806F02EFA0C2007F041F800232C
:1023400001460A225B4806F025FA142007F038F807
:10235000002301460A22574806F01CFA152007F010
:102360002FF80A2200230146524806F013FA0621EC
:10237000624808F0DFFE2368DD074FF001014CBF23
:102380005F48604808F0D6FE236898074FF00101C7
:102390004CBF5B485B4808F0CDFE23685A074FF0FE
:1023A00001014CBF5648574808F0C4FE23681B077C
:1023B0004CBF53485348012108F0BCFE0421524849
:1023C00008F0B8FE112006F0FBFF002301460A22A8
:1023D000384806F0DFF9102006F0F2FF002301462E
:1023E0000A22344806F0D6F9122006F0E9FF00234D
:1023F00001460A222F4806F0CDF9132006F0E0FF2F
:10240000002301460A222B48BDE8704006F0C2B9FD
:1024100007213E4808F08EFE3D4B2648196806F01D
:10242000F9F95AE706213B4808F084FE55E70721F1
:10243000394808F07FFE50E70721384808F07AFE57
:102440004BE70821364808F075FE46E70B21354872
:1024500008F070FE41E70E21334808F06BFE1120B2
:1024600006F0AEFF01287FF448AF0A212F4808F09C
:1024700061FE1E4B1B68012B7FF444AF11212C48D9
:1024800008F058FE3EE7FEF7F3FA216A0AF044FA34
:1024900000283FF41EAF1621264808F04BFE0A2103
:1024A000254808F047FE18E70A21234808F042FEB5
:1024B00013E700BFD887FF1F6093FF1F7C10010048
:1024C000C494FF1F8C1001007495FF1F9810010029
:1024D000A8100100B8100100CC100100DC100100B0
:1024E0000093FF1F1011010080130100E094FF1FF3
:1024F0002494FF1FAC94FF1F841101008C11010074
:1025000094110100A01F0100981101004C1101005D
:10251000E494FF1F1C110100241101003811010077
:10252000401101002C11010054110100641101003F
:1025300070110100EC100100041101002DE9F04FB1
:102540009B4C9C4FE36F012B8DB000F05981032B06
:102550005AD0994E994DA36F9948012B09BF29680C
:10256000296801F10041296005F088FD3368002BDE
:1025700040F0D880924805F057FDE36F3860012B9A
:10258000064600F0DC808F490AF0C6F9B8B98E49DA
:1025900030460AF0A3F990B98C4A8D4B12680B9221
:1025A0000B9A1A60D4F8A80009F0A6FF314609F08A
:1025B000F7FF002338602B600DB0BDE8F08FDFF827
:1025C0000CA2DFF80C82DAF800300A930A98D8F8E7
:1025D0000030DFF82492C01A09F08AFF314609F072
:1025E000DFFF7C490AF090F87A490AF08DF8D9F8B3
:1025F000001009F0CDFEDAF800300993099BC9F804
:102600000000C8F80030CDE7DFF8D081724DD8F86F
:102610000000694E012300220F212B6005F03CF9D8
:102620002B68012B336800F00981002B40F0AC814E
:102630000021D8F80000DFF8C491684D05F07EF95C
:1026400033681FFA80FBC9F800B0002B40F081818D
:102650000021D8F80000594DDFF880A105F0F4F80A
:10266000B4F8863040F6E44101FB0BF1B1FBF0F029
:10267000C01A00B209F040FF59498346D4F88800D7
:1026800009F08EFF014658460AF03EF8D9F80030AE
:102690002860632BDFF864B100F34F8100232B60C7
:1026A0003368002B3FF457AF02214E4808F042FD3B
:1026B000D9F80020D8F8000040F6E443002103FBDD
:1026C00002F805F0C1F8B8FBF0F009F011FF804600
:1026D000B4F8860009F010FF0146404609F056FEA6
:1026E00009F0B4FA4FF0020802460B46CDF800801C
:1026F0003D4806F099F841463A4808F01BFD286825
:1027000009F0A4FACDF8008002460B46364806F0E0
:102710008BF84146354808F00DFD4146314808F038
:1027200009FD18E7264805F07FFC09F08FFA02261C
:1027300002460B4600962C4806F076F81AE7264B20
:102740001B68012B00F02C81022B7FF42BAF284952
:102750000AF0E2F830B9274930460AF0BFF80028FD
:1027600000F05381DFF864A0DFF86480DAF800300D
:1027700007930798D8F80030DFF87C90C01A09F06A
:10278000B7FE314609F00CFF124909F0BDFF1149AF
:1027900009F0BAFFD9F8001009F0FAFDDAF80030B4
:1027A0000693069BC9F80000C8F80030FAE600BF9F
:1027B0006093FF1F1493FF1F0495FF1F7C92FF1F60
:1027C0003893FF1F0000FA430000FAC360B7FF1FF1
:1027D000D494FF1F00007A445087FF1FD894FF1F36
:1027E00017B7D13880130100D887FF1FDC11010013
:1027F00000C82F4800A08CC62093FF1F5893FF1FCE
:102800003D689B4928460AF069F830B12846994945
:102810000AF082F800287FF4F7AEDFF86482964D64
:10282000D8F80000954E022300220E212B6005F0FF
:1028300033F82B68012B33687FF4F7AE002B40F0A0
:1028400006810021D8F80000DFF874928C4D05F065
:1028500075F833681FFA80FBC9F800B0002B40F010
:10286000DB800021D8F80000864D04F0EDFFB4F8BD
:10287000843040F6E44A0AFB0BFBBBFBF0F0C01AC5
:1028800000B209F039FE80498346D4F88C0009F083
:1028900087FE0146584609F037FFD9F80030286016
:1028A0000021D8F800000AFB03FA04F0CDFFB4F8C9
:1028B0008430BAFBF0F00FFA80FAC3EB0A03002B66
:1028C000B4F8B620B8BF5B429342BCBF00232B6074
:1028D0003368002B3FF43FAE02216C4808F02AFC1D
:1028E000D9F80020D8F8000040F6E443002103FBAB
:1028F00002F804F0A9FFB4F88410B8FBF0F000B2BD
:10290000411A634805F086FF0221604808F012FC76
:10291000286809F09BF94FF0020802460B46CDF8F3
:1029200000805B4805F080FF03215A4808F002FC54
:102930004146564808F0FEFB0DE6DAF8000000219B
:1029400004F082FFDBF8003064389842FFF4A6AE52
:10295000A6E60021286804F077FF40F6E441002352
:102960000A2201FB0BF1B1FBF0F1494805F012FF1F
:102970000221464808F0DEFBB4F88610444805F012
:1029800049FFD9F800B063E6414805F0F3FE0C2199
:10299000414808F0CFFB0C21404808F0CBFB47E64C
:1029A0003F4909F0B9FF58B93E49304609F096FF52
:1029B00030B93D4A3D4B12680592059A1A60F1E51F
:1029C000DFF8E4A0DFF8E480DAF80030049304983C
:1029D000D8F80030DFF8EC90C01A09F089FD3146D4
:1029E00009F0DEFD324909F08FFE314909F08CFE15
:1029F000D9F8001009F0CCFCDAF800300393039BFF
:102A0000C9F80000C8F80030CCE5274A274B126807
:102A10000892089A1A60C5E50021286804F014FF9E
:102A200040F6E44100230A2201FB0BF1B1FBF0F177
:102A3000174805F0AFFE01211E4808F07BFBB4F8F3
:102A40008410134805F0E6FED9F800B009E71048F5
:102A500005F090FEE36F012B4FF00B010CBF164801
:102A6000164808F067FB0C210C4808F063FBE8E609
:102A700000709446007094C65087FF1F0495FF1F96
:102A8000D894FF1F7C92FF1F17B7D1388013010025
:102A9000D887FF1FC8110100CC110100B811010037
:102AA0000000FA430000FAC360B7FF1FD494FF1F71
:102AB00000007A44EC1E0100A0110100AC110100DD
:102AC0005893FF1F2093FF1F2DE9F04F994C236867
:102AD00085B0002B7BD0984DDFF86482974FDFF8EC
:102AE000A892D5F88030944E012B00F08B80D7F857
:102AF00000A0D6F858B0746D914E04FB0BF44FF45F
:102B00007A7000FB04F009F0F7FC8E490446504649
:102B100009F046FD214609F0F7FD8B4909F040FD1B
:102B200009F004FF6328C8F800004BDD2046854902
:102B300009F0EAFD642338603360D9F80030002BD7
:102B40003DD0EB6F7C4C012B00F08A80032B00F012
:102B5000DF80022B00F0E28002217C4808F0EAFAD4
:102B60007B4B186809F072F8022402460B46009469
:102B7000784805F059FE2146774808F0DBFA2146EF
:102B8000724808F0D7FAD8F80010724805F042FEF3
:102B90000621724808F0CEFA38686A4909F000FD4B
:102BA00009F054F8009402460B466A4805F03CFED2
:102BB00003216B4808F0BEFA664805F0DBFD05B05E
:102BC000BDE8F08F0028BCBF00233360B5E7654E39
:102BD000594D33680293029A42F228339A424BD8F5
:102BE00033680393039A42F210739A424BD8D5F894
:102BF0008030DFF84C81514FDFF88C914E4E012B25
:102C00007FF475AF5848FEF71BF85849D6F868A00E
:102C1000F46E09F0C5FC09F0AFFE326F736FD5F8A2
:102C200058B0CAEB02021B1B80B29A42CAEB0000EA
:102C3000C6BF03FB00000132584390FBF2F0204472
:102C40006C6D00FB0BF004FB00F000EB800040001B
:102C500009F052FC3B4909F057FD824638604BE7CA
:102C6000434B1B68012B4FF00A010CBF41484248FF
:102C700008F060FAE36F69E73B486A6C95F840102A
:102C8000FDF748FFACE73848FDF7DAFF3749AF6E8C
:102C9000EE6E09F085FC09F06FFE2A6F6B6FD21B98
:102CA0009B1B80B29A42A0EB07003CDD03FB0000B7
:102CB000531C90FBF3F31E44A86D6B6DDFF880800E
:102CC000DFF8C490C8F8006000FB06F003FB00F0DA
:102CD00000EB8000400009F00FFC1A49174F09F083
:102CE00013FDD9F80030386001222260002B3FF438
:102CF000F8AE0221154808F01DFA164805F03AFD15
:102D000059211E4808F016FA124805F033FDE8E68E
:102D100010211B4808F00EFAEB6F1AE7072119483B
:102D200008F008FA18E703FB00F393FBF2F31E44E4
:102D3000C2E700BF7892FF1F6093FF1F2093FF1F21
:102D40003487FF1FE4388E3E0000C8428013010024
:102D50001493FF1FD887FF1FDC11010070120100C0
:102D60007812010060B7FF1F7495FF1F00007A44BE
:102D70005087FF1F3C12010048120100E0110100C2
:102D800054120100681201003C87FF1FF0B51120AA
:102D900083B006F015FB012813D000210B2006F0AC
:102DA00009FB00210C2006F005FB0021152006F090
:102DB00001FB1D491D4B0120002208701A6003B061
:102DC000F0BD01460446152006F0F4FA1849194AE8
:102DD000194B09680191D2F890001B680199134DB5
:102DE000034402268B422E6017D8D2F8980009F0CF
:102DF00083FB124B196809F071FD074668B921463B
:102E00000B2006F0D7FA084A032339460C20167027
:102E10002B6006F0CFFA03B0F0BD01210C2006F0C4
:102E2000C9FA03B0F0BD00BFC494FF1F0095FF1F97
:102E300060B7FF1F6093FF1F0895FF1F1493FF1FCC
:102E4000F0B56D4E6D4D34682B689C4287B03AD01A
:102E500014F0010156D014F002014AD014F004011C
:102E60003ED0E3070FD52B68DF070CD4644F3A68D8
:102E7000002A00F09E80634B1B680193019B9342E4
:102E800000F289803468A0070DD52B6899070AD411
:102E90005D4F3A68002A3ED05A4B1B680393039B50
:102EA00093425AD8346862070DD52B685B070BD460
:102EB000564F3A68002A3FD0524B1B680593059B3A
:102EC000934258D834680CB107B0F0BD21461620A3
:102ED00006F0F0F82146172006F0ECF807B0F0BD38
:102EE000052006F0E7F82B68346803F0FB032B603D
:102EF000B7E7172006F0DEF82B68346803F0FD030F
:102F00002B60ABE7162006F0D5F82B68346803F089
:102F1000FE032B609FE73E4B1B68002B56D1FF2121
:102F2000172006F0C7F8374B3A4A19680291029900
:102F300012680A443A60B0E7354B1B68002B50D149
:102F4000FF21052006F0B6F82E4B324A196804918D
:102F5000049912680A443A60AFE72F4B1720D3F860
:102F6000941006F0A7F82B68346843F0020300229F
:102F70002B603A6097E7284B0520D3F8941006F0B1
:102F800099F82B68346843F0040300222B603A6000
:102F9000002C99D19AE7204B1620D3F8941006F014
:102FA00089F82B68346843F0010300222B603A60F3
:102FB00069E7FF21162006F07DF8124B154A1968C3
:102FC0000091009912680A443A6055E7134805F0E9
:102FD000D1FB0C21124808F0ADF8104805F0CAFBEF
:102FE0009DE70E4805F0C6FB0C210E4808F0A2F83C
:102FF0000A4805F0BFFBA3E70095FF1F2494FF1FBD
:103000009C94FF1F60B7FF1FA094FF1FA494FF1F95
:103010003C87FF1F6887FF1F6093FF1FD887FF1F34
:103020007C1201008C1201002DE9F047544EDFF8AC
:103030007481DFF874913068524D00220F2104F042
:103040002BFC0023012222214F48C8F80030C9F888
:10305000002008F06FF8D8F80030132B22DC40F67F
:10306000E44700213068B5F884A004F067FC002133
:103070000446306804F0E8FBA4B2012107FB04F425
:10308000B4FBF0F441485444A5F8844008F052F8E9
:10309000642006F0CBF9D8F800300133132BC8F8C0
:1030A0000030DEDDB5F88430394A3A48A2FB03121D
:1030B0009B1A02EB5303C3F30F131946A5F8843090
:1030C00005F0A8FB1D21344808F034F802213348EC
:1030D00008F030F82F4805F04DFB00231A460E216A
:1030E0003068C8F8003004F0D7FB022322212648BC
:1030F000C9F8003008F01EF8D8F80030132B22DC95
:1031000040F6E44700213068B5F8869004F016FCDC
:1031100000210446306804F097FBA4B2012107FBAC
:1031200004F4B4FBF0F419484C44A5F8864008F0C8
:1031300001F8642006F07AF9D8F800300133132B37
:10314000C8F80030DEDDB5F88630114A1148A2FB20
:1031500003129B1A02EB5303C3F30F131946A5F88E
:10316000863005F057FB1D210D4807F0E3FF0221D3
:103170000A4807F0DFFF0748BDE8F04705F0FABA54
:10318000D894FF1F6093FF1F9C120100E012010002
:1031900087611886D887FF1FC012010080130100C5
:1031A000E4120100B094FF1F5087FF1FA64B2DE9CA
:1031B000F0411B68A54CA64D40F251310822216018
:1031C000E271286D002B40F0EE8009F095F96969F5
:1031D000064609F0E5F99F499D4F09F0E1F909F02C
:1031E000CBFB80B2031263729B4A9C4B12681B6834
:1031F000A969A37215121B12E37222732072657300
:10320000304609F0CDF99349904D09F0C9F909F01C
:10321000B3FB83B21A1229469148A373E27304F0F8
:103220005DF9904B904A1B681288A272DEB206EBE1
:103230008601267203EB8306490046F3D71640F257
:10324000553E12124FF000081B1221736673294677
:1032500008268348C4F800E0E2726372E67184F8DD
:103260000E8084F80F8004F039F940F256337F481D
:103270002360E671FDF74AFC7D4909F091F909F0F8
:103280007BFB20727948FDF741FC794909F088F908
:1032900009F072FB774A7649C0F30723637210681E
:1032A00009F032FA09F042FB40FA06F203466F4891
:1032B000E272A372FDF75AFC664909F071F909F050
:1032C00035FB20736948FDF751FC624909F068F944
:1032D00009F02CFB294640F307236148637384F807
:1032E0000E8084F80F8004F0F9F8022006F09EF8B2
:1032F000614A624B10785178207290786172D2786E
:103300001978A072987893F801E0E2722173DA7864
:10331000A07340F25A332946514884F80DE0E27315
:103320002360E67104F0DAF8554B4D481A78597865
:10333000227261729A78D978A272E1721A795979F7
:1033400093F806E022736173DA7984F80EE040F2B4
:103350005E332946E2732360E67104F0BFF8022071
:1033600006F064F8474B3E481A7859782272617229
:103370009A78D978A272E1721A79597993F806E0AD
:1033800022736173DA79E6714FF45C732946236026
:1033900084F80EE0E27304F0A1F83B4B1B68012BAC
:1033A00006D0BDE8F08109F0A7F8296A064610E7C3
:1033B0002E48FDF75DFBF96C08F0EAFF80462B48CC
:1033C000FDF77EFB0146404609F088FA0028E8D068
:1033D00040F2C3332548EE712B60FDF749FBBE6C0C
:1033E000314609F07BFAC8B12849304609F0D8F8CF
:1033F00009F0C2FA80B2031268722B720023012610
:1034000004250322A672E57222736373A373E37328
:103410000E491348BDE8F04104F060B81348FDF7C9
:1034200027FB1A4909F0BCF809F0A6FAC0F30723F4
:103430000E482B72FDF71CFB144909F0B1F809F096
:103440009BFA6872DAE700BF0093FF1FF094FF1F3A
:103450006093FF1F00002041D094FF1F6492FF1F64
:103460009CB5FF1F3487FF1F3887FF1F7495FF1F10
:103470000000C8421493FF1F5C93FF1FC894FF1FF6
:103480002C87FF1F5487FF1FE094FF1F00007A4422
:1034900038B5164C164A2368101D12F8011F9042C9
:1034A00041EA0323F9D12360124C03F10043236066
:1034B000114BDB6F022B11D0104B1B68012B00D07E
:1034C00038BD0F4805F056F921680D4805F0A2F9FE
:1034D00003210C48BDE8384007F02CBE20680A4D97
:1034E00009F00AF82860FFF729F8E5E7A894FF1F1C
:1034F0002B93FF1FCC94FF1F6093FF1F9894FF1F17
:10350000D887FF1F101301007C92FF1F30B53C4C81
:103510003C4883B0214603F0D9FE236840F2C23212
:10352000934252D0A3F58C621F2A48D9A3F5FC63BD
:103530000F2B3FD9344B1B68012B01D003B030BD9A
:10354000324B1B68012BF9D1314B32481B68019378
:103550000A220023019905F01DF92268284B002A50
:10356000DB7945DB2C492D4809F0E2FF2B480AF0B6
:1035700007F80146294807F0DDFD2568204B15F0C6
:10358000804526D1DB798BB1631925491A7A234806
:1035900009F0CEFF214809F0F3FF01461F4807F06C
:1035A000C9FD0135E379EDB2AB42EDD8194805F01C
:1035B000E1F8C3E712491B48FDF7F2F9BAE71049F1
:1035C0001848FDF7EDF92368B0E7FFF761FF2368BE
:1035D000A8E7154D114C0FCD0FC495E8030044F832
:1035E000040B204620F81419152107F0A3FDDDE790
:1035F0000E490A4822F0604209F09AFFB6E700BF80
:103600002493FF1F9CB5FF1F3C87FF1F9894FF1F4B
:1036100060B7FF1FD887FF1F3C1301008092FF1F78
:10362000681301007495FF1F50130100141301006B
:10363000A24B1B78052B00F0A1802DE9F04FA04C88
:10364000A04EA14D626EE36DA048326083B02B6046
:10365000FDF7F4FAE16A09F041F908B100232B60A3
:103660009A48FDF7E9FAA16A09F056F910B100236A
:1036700033602B609548FDF723FAE16809F04CF9B7
:1036800008B100232B609148FDF71AFAE16809F0B0
:1036900043F908B100232B608C48894FFDF7E8F906
:1036A000216909F01BF900286ED0002333602B68D4
:1036B000854F002B53DD8548DFF80482FDF7BCFA07
:1036C000216B09F00BF9002840F0C480804B7F4843
:1036D0001B687B4F012B00F0FD80FDF7F1F9E169DC
:1036E0008046606908F052FE0146404609F014F930
:1036F000002834D0286808F0FFFE82467348FDF7A2
:10370000DFF9D7F814808346F969404608F03EFE99
:103710008146386E08F0F0FE0446F86D08F0ECFEC5
:10372000214608F033FE49460746584608F02EFE6B
:103730000146384608F034FF49460746404608F03F
:1037400025FE0146384608F0DFFF214608F020FE3E
:103750000146504608F01AFE09F0E8F82860336880
:10376000584A002BAFBF2B682B6800211160002B3B
:1037700001DA00232B6003B0BDE8F08F5149524AB3
:1037800000230B60136070475048FDF771F9B96969
:1037900009F0A4F8002888D13368DFF82891002BBD
:1037A00085DD4A48FDF74AFA796B09F0B5F800283B
:1037B00040F0B3804548424FFDF75AF9216909F0BE
:1037C000ABF8002800F09F804048DFF8F480FDF758
:1037D0004FF9D4F8B8100746A06908F0D9FD0146A2
:1037E000384609F07BF800283FF461AF306808F0F4
:1037F00083FE82463548FDF73BF98346D8F86400DE
:10380000D8F8187008F078FE39468146584608F016
:10381000BDFD49468346002008F0B8FD01465846E4
:1038200008F0BEFED8F8B8108346384608F0B0FD60
:10383000394608F0ABFD0146584608F065FF494699
:1038400008F0A6FD0146504608F0A0FD09F06EF80C
:1038500030602CE7386808F04FFE83461B48FDF7C0
:10386000EBF90190D8F85C00D8F82CA008F044FEE1
:10387000019B81465146184608F088FD4946019053
:10388000002008F083FD019B0146184608F088FEE1
:1038900051460190D8F8300008F078FD019B0146B0
:1038A000184608F031FF494608F072FD01465846B7
:1038B00008F06CFD09F03AF8386007E7C494FF1F80
:1038C0006093FF1FD094FF1F6492FF1F7495FF1F2A
:1038D0000093FF1FFDF7F4F8E1698046206A08F0C5
:1038E00055FD0146404609F017F800283FF437AF70
:1038F000286808F001FE82461E48FDF7E1F8D7F877
:103900002080834600E71B48FDF7B2F8B96909F04B
:1039100003F800287FF458AFC9E6D9F8000008F092
:10392000EBFD82461348FDF789F90190786ED7F8D0
:10393000348008F0E1FD019B83464146184608F0BB
:1039400025FD0146584608F02BFE41468346B86ADD
:1039500008F01CFD0146584608F0D6FE002108F08C
:1039600017FD0146504608F011FD08F0DFFFC9F8C9
:1039700000001FE77495FF1F08B5274804F0FAFE02
:103980000721264807F0D6FB112005F019FD062176
:10399000F8B1234807F0CEFB122005F011FD0621F7
:1039A00000B3204807F0C6FB122005F009FD0621F0
:1039B00008B31D4807F0BEFB132005F001FD0621EA
:1039C00010BB1A4807F0B6FB1348BDE8084004F0E6
:1039D000D1BE174807F0AEFB122005F0F1FC06211E
:1039E0000028DED1134807F0A5FB122005F0E8FC03
:1039F00006210028DDD1104807F09CFB132005F0BC
:103A0000DFFC06210028DCD00C4807F093FB0248BD
:103A1000BDE8084004F0AEBED887FF1F7413010054
:103A20007C1301008C1301009C130100B4130100EE
:103A30008413010094130100A4130100AC130100CE
:103A400010B5254C2368042B27DC01210B2005F041
:103A5000B1FC01210C2005F0ADFC0121142005F082
:103A6000A9FC0121152005F0A5FCFF21162005F079
:103A700021FBFF21172005F01DFBFF21052005F08C
:103A800019FBFF21062005F015FB236801330A2BE3
:103A90002360C4BF0023236010BD00210B2005F06C
:103AA00089FC00210C2005F085FC0021142005F084
:103AB00081FC0021152005F07DFC0021162005F079
:103AC000F9FA0021172005F0F5FA0021052005F08C
:103AD000F1FA0021D6E700BFE894FF1F10B50921D5
:103AE00082B09B4805F082FF222005F027FF994B0A
:103AF000D3F89C30012B984B1B7809D0052B10D89C
:103B0000DFE813F007010C0116011B0111010B0086
:103B1000002B00F01781052B03D107218F4805F0FA
:103B200065FF222005F00AFFFF2005F007FFFF20B8
:103B300005F004FF8A4CFF2005F000FF08218948AA
:103B400005F054FF2168884804F064FEFF2005F06A
:103B5000F5FEFF2005F0F2FEFF2005F0EFFE092143
:103B6000824805F043FF21687F4804F053FEFF20A0
:103B700005F0E4FEFF2005F0E1FEFF2005F0DEFE8B
:103B80000C217B4805F032FF7A4B7B49186808F01E
:103B9000BBFD08F05BF8002402460B460094724817
:103BA00004F042FEFF2005F0C9FEFF2005F0C6FE2E
:103BB000FF2005F0C3FE0921704805F017FF70488B
:103BC000FCF7D4FF08F042F8009402460B46664822
:103BD00004F02AFEFF2005F0B1FEFF2005F0AEFE46
:103BE000FF2005F0ABFE0C21664805F0FFFE64489F
:103BF000FDF724F808F02AF8009402460B465A48CC
:103C000004F012FEFF2005F099FEFF2005F096FE5D
:103C1000FF2005F093FE0D215B4805F0E7FE5848B4
:103C2000FDF70AF808F012F8009402460B464E48D9
:103C300004F0FAFDFF2005F081FEFF2005F07EFE76
:103C4000FF2005F07BFE0921504805F0CFFE4C48CF
:103C5000FCF75CFF4E4908F0A3FC07F0F7FF009467
:103C600002460B46404804F0DFFDFF2005F066FEEB
:103C7000FF2005F063FEFF2005F060FE0C214548A3
:103C800005F0B4FE3E48FCF7F3FE434908F088FC1B
:103C900007F0DCFF009402460B46334804F0C4FDF5
:103CA000FF2005F04BFEFF2005F048FEFF2005F049
:103CB00045FE0D21394805F099FE3148FCF700FF1B
:103CC000354908F06DFC07F0C1FF009402460B4631
:103CD000254804F0A9FDFF2005F030FEFF2005F087
:103CE0002DFEFF2005F02AFE09212D4805F07EFE5D
:103CF0002C4B1D48196804F08DFDFF2005F01EFEB9
:103D0000FF2005F01BFEFF2002B0BDE8104005F0CB
:103D100015BE0621244805F069FE02E70721234865
:103D200005F064FEFDE60B21214805F05FFEF8E694
:103D30000721204805F05AFEF3E608211E4805F049
:103D400055FEEEE608211D4805F050FEE9E600BFED
:103D5000BC1301006093FF1FC494FF1F4C110100AE
:103D60003487FF1FD4130100AC87FF1FE01301004D
:103D7000EC1301001493FF1F0000C842FC13010064
:103D80007495FF1F08140100181401002814010085
:103D9000000020413414010000007A444414010062
:103DA000541401002487FF1F1C110100241101007D
:103DB0002C1101003811010040110100C81301004D
:103DC0002DE9F0418D4DD5F8AC30042B3ED0032BBE
:103DD0006ED0012B00F09880022B01D0BDE8F0815D
:103DE000874C8848237240F20E320123214622601C
:103DF000E37103F073FB844B1B685B00FF2BC8BFB0
:103E0000FF23042140224FF441702060E1712272AF
:103E10006372286D08F070FB696908F0C1FB7B498B
:103E2000054608F079FD002800F0DE802946284686
:103E300008F0AEFA08F0A0FD80B20312E072A3729F
:103E40006F497048BDE8F04103F048BB6C4C704AC4
:103E5000A379226043F001030822E271A371286D67
:103E600008F04AFB696908F09BFB6A4908F098FB77
:103E700008F082FD644B684A1B68126893FBF2F3FA
:103E800080B200261A120712607221465D48E37262
:103E9000A272277226736673A673E67303F01EFB85
:103EA000A279D5F8AC3066F30002032BA27190D151
:103EB000534C286DA3720122E823072140F2FF260C
:103EC000227263722660E17108F016FB696908F0DE
:103ED00067FB504908F064FB08F04EFD4A4B4E4A20
:103EE0001B68126893FBF2F382B21E12171221466E
:103EF00044486373E2722773A67303F0EFFAD5F8B0
:103F0000AC30012B7FF468AF444B3D4C1B68236001
:103F1000072280231020E271237205F051FA002855
:103F200069D13F4B1B68DFF8E0803B4F286D344E72
:103F300003EB83035B001A12A3726272D8F800309D
:103F40003A6893FBF2F31A126273A37308F0D4FA7F
:103F5000696908F025FB334B196808F017FA2D49F9
:103F600008F01EFB08F008FD80B2031231462073F2
:103F70002448E37203F0B2FA022005F057FA2A4B04
:103F80001B682360072280231020E271237205F052
:103F900017FA70BB224B1B68286D03EB83035B0091
:103FA0001A127272B37208F0A7FA696908F0F8FA87
:103FB0001E4B196808F0EAF9164908F0F1FA08F002
:103FC000DBFC82B216123868D8F80030227393FBFB
:103FD000F0F30B490B48A3731A12E672627303F0F5
:103FE0007DFAD5F8AC30F7E601229023A272E37295
:103FF00026E70F4BCFE70E4B94E700BF6093FF1F00
:10400000F094FF1F9CB5FF1F6492FF1F0000484300
:10401000F4E50618000020414C87FF1F6087FF1F52
:104020004487FF1F2894FF1F6487FF1F1C93FF1FF7
:104030004887FF1F2DE9F041974ED6F8AC40042C7D
:1040400082B04BD0032C77D0012C00F0A480022C3E
:1040500002D002B0BDE8F081904D019500274FF0ED
:104060000408CDF8008040F20E313B463A462C70F1
:104070008B486F70AF70EF7004F038F8404605F071
:10408000D5F9884B306D1B685B00FF2BC8BFFF2341
:1040900040222A706B7008F02FFA716908F080FADC
:1040A0008149044608F038FC002800F0EB802146E6
:1040B000204608F06DF908F05FFC80B20312E8704A
:1040C000AB70002304228DE824004FF441711A469E
:1040D000734804F00BF802B0BDE8F081306D6F4C0E
:1040E000724F08F009FA716908F05AFA704908F03D
:1040F00057FA08F041FC6B4B0194082180B200256F
:1041000040FA01F21B683F6893FBF7F747FA01FE9C
:1041100000912B4622706070E77084F802E02571F0
:104120006571A571E571012262495D4803F0DEFF0A
:10413000D6F8AC40032C87D1584D306DAC700122BD
:10414000E8232A706B7008F0D7F97169574C08F0B2
:1041500027FA574908F024FA08F00EFC514A019555
:1041600080B21268246892FBF4F44FEA202E0721F3
:104170000023271200911A46E8706C7140F2FF216B
:1041800085F804E04648AF7103F0B0FFD6F8AC40C4
:10419000012C7FF45CAF414D802310202B7005F083
:1041A0000FF9002875D1444B1B683E4F3F4C306DD2
:1041B000DFF8E88003EB83035B001A12AB706A70D0
:1041C0003B68226893FBF2F31A126A71AB7108F034
:1041D00093F9716908F0E4F9384B196808F0D6F8DA
:1041E000334908F0DDF908F0C7FB354B019580B283
:1041F00019684FEA202E0023072200921A462871E0
:1042000085F803E0264803F071FF042005F00EF95D
:10421000802310202B7005F0D3F8002837D1264BCF
:104220001B68306D03EB83035B001A1288F80120D2
:1042300088F8023008F060F9716908F0B1F9214B93
:10424000196808F0A3F81A4908F0AAF908F094FBD5
:104250001D4B3A681968246892FBF4F480B2072772
:1042600000974FEA202E0023271201951A46287145
:10427000AC7185F803E00A486F7103F037FFD6F898
:10428000AC40E4E601229023AA70EB7019E70F4BD3
:10429000C6E70E4B88E700BF6093FF1F0C93FF1F1C
:1042A0001095FF1F6492FF1F000048434C87FF1FBB
:1042B00000002041F4E506184487FF1F2894FF1FE3
:1042C0006087FF1F1C93FF1F6487FF1F4887FF1F26
:1042D00038B5164D164A1748294603F03BFF18B16A
:1042E000154B1B68012B00D038BD12211348144C0C
:1042F00006F020FF296813480023102204F04AFA30
:10430000104804F037FA04F1080514F8011F0D48AD
:1043100000230A2204F03EFA092006F08FFFA5428E
:10432000F3D10848BDE8384004F024BA0893FF1FD1
:104330000C93FF1F1095FF1F0C95FF1F60140100C9
:104340000B93FF1FD887FF1FFA2810B504461BD018
:10435000B0F5FA7F0FD11021134803F0B1FFC8B1B7
:104360000F21124806F0E6FE114804F003FA114B43
:10437000A3F8C04010BD0F210F4806F0DBFE0C482B
:10438000BDE8104004F0F6B90F21074803F098FF8C
:104390000028E5D11121094806F0CCFE0448BDE80B
:1043A000104004F0E7B900BF1095FF1F741401001E
:1043B000D887FF1F6093FF1F981401008414010029
:1043C000F0B5924C924D83B006F04EFE2368286003
:1043D000042B00F09A82022B20D0092B67D0082BE7
:1043E00040F0F280322800F0B283712868D0312882
:1043F0006AD106F075FE002840F31C878548864E7A
:1044000004F04CFBC0B286F8400002288ABF0021AD
:10441000014686F84010726C8048ACE3A0F131028E
:10442000422A51D8DFE812F0CC07D807E607F80790
:104430000B081A0850005000500050005000500067
:1044400050005000500050005000500050005000EC
:1044500050005000500050005000500050005000DC
:1044600050005000500050005000500050005000CC
:1044700050005000500050005000500050005000BC
:1044800050005000500050005000500027085000CD
:10449000500050005000500050005000500050009C
:1044A00050005000500050004C0050002D083228A1
:1044B0007CD040F36783332800F0AB86712803D1AA
:1044C0000023732023602860732808BF002B0CBFD3
:1044D00001200020002867D04E4804F04BF9042149
:1044E0004F4806F027FE4B4804F044F910214D4890
:1044F00006F020FE474804F03DF913214A4806F033
:1045000019FE4A4B4348196804F084F9414804F005
:1045100031F91421464806F00DFE3E4804F02AF910
:104520001E21444806F006FE3A4804F023F91521FE
:10453000414806F0FFFD374804F01CF91E213F48B2
:1045400006F0F8FD334804F015F920213C4806F048
:10455000F1FD304804F00EF919213A4806F0EAFD61
:104560002C4804F007F91621374806F0E3FD2948E6
:1045700004F000F91221354806F0DCFD254804F06E
:10458000F9F80F21324806F0D5FD224804F0F2F880
:104590000D21304806F0CEFD1E4804F0EBF82E4AFF
:1045A000002101231160236003B0F0BD01232360CB
:1045B00006F096FD002804DD164804F06FFAFFF7B8
:1045C000C3FE782023682860072B4BD1332801F0E5
:1045D000C58300F32782312801F0D38332287FF48A
:1045E00073AF06F07DFD00283ADD0A480A4E04F05C
:1045F00055FA07F081FF194907F0D2FF6123012224
:10460000F06322602B601846CBE200BFB494FF1F1A
:104610006092FF1FD887FF1F6093FF1F7495FF1FD5
:10462000841D01008C1D0100A01D01002487FF1FB7
:10463000B41D0100CC1D0100EC1D0100041E010091
:10464000241E0100481E0100641E01007C1E0100A2
:10465000901E0100A01E01003C87FF1F6F12833ACD
:1046600023682868062B40F08D80A0F13102402A93
:104670003FF62AAF01A151F822F000BF39530000E4
:10468000855200009B5300006353000087530000D5
:104690004752000069520000C9440000C9440000AC
:1046A000C9440000C9440000C9440000C9440000D6
:1046B000C9440000C9440000C9440000C9440000C6
:1046C000C9440000C9440000C9440000C9440000B6
:1046D000C9440000C9440000C9440000C9440000A6
:1046E000C9440000C9440000C9440000C944000096
:1046F000C9440000C9440000C9440000C944000086
:10470000C9440000C9440000C9440000C944000075
:10471000C9440000C9440000C9440000C944000065
:10472000C9440000C9440000C9440000C944000055
:10473000C9440000C9440000C9440000C944000045
:10474000C9440000C9440000C9440000C944000035
:10475000C9440000C9440000C9440000C944000025
:10476000C9440000C9440000C9440000C944000015
:10477000C9440000C9440000C9440000C14400000D
:1047800023682868052B15D1332801F0108340F3E6
:104790005D81352801F04383C1F22B8371287FF4BA
:1047A00093AEB54A002373201360236028608BE624
:1047B00023682868032B40F0A480A0F13002422A2D
:1047C0003FF682AE01A151F822F000BFD9480000A7
:1047D000795B0000A15B00005D5A00007F5A000079
:1047E000A15A0000C95A0000F15A00000F5B0000F6
:1047F000335B0000C9440000C9440000C944000004
:10480000C9440000C9440000C9440000C944000074
:10481000C9440000C9440000C9440000C944000064
:10482000C9440000C9440000C9440000C944000054
:10483000C9440000C9440000C9440000C944000044
:10484000C9440000C9440000C9440000C944000034
:10485000C9440000C9440000C9440000C944000024
:10486000C9440000C9440000C9440000C944000014
:10487000C9440000C9440000C9440000C944000004
:10488000C9440000C9440000C9440000C9440000F4
:104890005B5B00009F550000035A0000215A000096
:1048A0003F5A0000FF5B000055550000795500009D
:1048B000C9440000C9440000C9440000C9440000C4
:1048C000C9440000C9440000C9440000C9440000B4
:1048D000F7590000C95B000006F002FC002841F314
:1048E00036826648664E04F0D9F801270346014631
:1048F00062226448736527602A60FCF709F923681F
:104900002868012B7FF4E0AD4BE1A0F13002412A91
:104910003FF6DAAD01A151F822F000BF1B550000AF
:1049200051550000EF54000033550000F7540000CB
:10493000FB5400009B540000F3540000B5540000E9
:10494000CD540000C9440000C9440000C94400001F
:10495000C9440000C9440000C9440000C944000023
:10496000C9440000C9440000C9440000C944000013
:10497000C9440000C9440000C9440000C944000003
:10498000C9440000C9440000C9440000C9440000F3
:10499000C9440000C9440000C9440000C9440000E3
:1049A000C9440000C9440000C9440000C9440000D3
:1049B000C9440000C9440000C9440000C9440000C3
:1049C000C9440000C9440000C9440000C9440000B3
:1049D000C9440000C9440000C9440000C9440000A3
:1049E00017550000C9440000C9440000C944000034
:1049F000C9440000C9440000C9440000C944000083
:104A0000C9440000C9440000C9440000C944000072
:104A1000C9440000C9440000C9440000C944000062
:104A2000C144000034287FF449AD06F059FB00284A
:104A30007FF716AE1148124E04F030F861230122C0
:104A4000A6F8B40022602B601846AAE0312801F0D5
:104A5000BF8132287FF438AD06F042FB00287FF793
:104A6000A7AE0648064E04F019F801226B23C6F8DB
:104A7000980022602B6009E03493FF1FD887FF1F46
:104A80006093FF1F7495FF1F06F0EEFA06F028FBF7
:104A90000028F9D1B24803F06DFEB14803F06AFE78
:104AA000AF4803F067FEAE4803F064FEAC4803F085
:104AB00061FE2121AB4806F03DFBA94803F05AFEF8
:104AC0001521A94806F036FBD6F89010A44803F04B
:104AD000A1FE0221A54806F02DFBA14803F04AFEE5
:104AE0001E21A34806F026FBD6F898109C4803F038
:104AF00091FE03219F4806F01DFB994803F03AFE02
:104B00001E219D4806F016FBD6F89410944803F039
:104B100081FE934803F02EFE1D21984806F00AFB03
:104B2000D6F8A0108E4803F075FE8D4803F022FEE3
:104B30001E21934806F0FEFAD6F8A410884803F028
:104B400069FE874803F016FE052323602CE506F076
:104B5000C7FA002840F3738381488A4E03F09EFF12
:104B600007F0CAFC884907F01BFD96F84010034681
:104B7000024686487364FBF7CDFF0123692023605A
:104B800028600EE031287FF49FAC7E4E96F8BE3050
:104B9000B3FA83F35B090122782086F8BE302260E5
:104BA0002860A0F15203262B01F2C880DFE813F041
:104BB0004708C608C608C608C608C608C608C60804
:104BC000C608C608C608C608C608C608C60829001A
:104BD000550AC5020E025A01C608C608C6080C01CD
:104BE000C608520AC608C608C608C608C608490844
:104BF000C608C608C608C608C608C6089D0006F04E
:104C000033FA06F06DFA05460028F8D154485D4E97
:104C100003F0B0FD524803F0ADFD514803F0AAFD8A
:104C20004F4803F0A7FD4E4803F0A4FD1F2158484C
:104C300006F080FA4A4803F09DFD1C21554806F015
:104C400079FA706A544907F0ABFC06F0FFFF009553
:104C500002460B46424803F0E7FD02214F4806F0AA
:104C600069FA3F4803F086FD23214D4806F062FAB9
:104C7000F06B494907F094FC06F0E8FF0095024606
:104C80000B46374803F0D0FD0221444806F052FAA3
:104C9000334803F06FFD1921424806F04BFAB06B20
:104CA00006F0D4FF02250B46024600952C4803F07F
:104CB000BBFD29463C4806F03DFA294803F05AFD61
:104CC00019213A4806F036FAB6F8B410244803F031
:104CD000A1FD0321364806F02DFA214803F04AFDD4
:104CE0000723236060E406F0BFF906F0F9F9002815
:104CF000F9D11B48234D03F03DFD194803F03AFD5F
:104D0000174803F037FD164803F034FD144803F04C
:104D100031FD1221274806F00DFA114803F02AFD53
:104D20000F4803F027FD0E4803F024FD1921224807
:104D300006F000FA95F8BE30002B41F08C8004217B
:104D40001E4806F0F7F9064803F014FD13211C482D
:104D500006F0F0F9024803F00DFD0923236023E477
:104D6000D887FF1FA0170100C4170100B01601006B
:104D7000DC170100C8110100FC1701001C1801001C
:104D80003C1801006093FF1F6F12833A7495FF1F58
:104D9000FC1601001C17010000007A449C1501005C
:104DA0003C170100601701007C170100801701000B
:104DB0009C170100681E0100CC140100E8140100DA
:104DC0004015010006F050F906F08AF90546002862
:104DD000F8D16D486D4E03F0CDFC6B4803F0CAFC72
:104DE000694803F0C7FC684803F0C4FC664803F058
:104DF000C1FC1521664806F09DF9634803F0BAFC32
:104E00001821644806F096F92B460A2296F84010BD
:104E10005D4803F0BFFC5C4803F0ACFC28215E4811
:104E200006F088F9706C5D4907F0BAFB06F00EFFDA
:104E300000950B460246544803F0F6FC0221584800
:104E400006F078F9504803F095FC1321554806F018
:104E500071F94D4803F08EFC08232360FFF7A4BBD3
:104E600006F002F906F03CF905460028F8D146485C
:104E7000464E03F07FFC444803F07CFC424803F0BC
:104E800079FC414803F076FC3F4803F073FC1121A4
:104E9000454806F04FF93C4803F06CFC2821434894
:104EA00006F048F970693D4907F07AFB06F0CEFE3E
:104EB000009502460B46344803F0B6FC0221384800
:104EC00006F038F9304803F055FC1621384806F052
:104ED00031F9F069314907F063FB06F0B7FE009540
:104EE0000B460246284803F09FFC02212C4806F09E
:104EF00021F9254803F03EFCD6F8AC30002B32DD1A
:104F00001D212C4806F016F9F06D07F0F5FA2A4934
:104F100007F046FB06F09AFE022502460B46009576
:104F2000194803F081FC0121244806F003F91648D2
:104F300003F020FC1F21224806F0FCF8306E07F039
:104F4000DBFA1D4907F02CFB06F080FE00950246B7
:104F50000B460D4803F068FC0121184806F0EAF8FA
:104F6000094803F007FC1121164806F0E3F8D6F8CB
:104F7000AC30052B00F29286DFE813F0D606DB0694
:104F8000D106CC06C7068C06D887FF1F6093FF1F8B
:104F90004C1E0100541501007015010000007A44F8
:104FA0009C15010040150100F01D0100A015010035
:104FB000CC150100E4150100CDCCCC3DD81A010080
:104FC000041601002416010006F04EF806F088F8D9
:104FD0000028F9D1B648B74D03F0CCFBB44803F034
:104FE000C9FBB34803F0C6FBB14803F0C3FBB048AC
:104FF00003F0C0FB1321B04806F09CF8AC4803F066
:10500000B9FB0D21AD4806F095F8A94803F0B2FBB5
:105010000F21AB4806F08EF8AA4BA548196803F09B
:10502000F9FBA34803F0A6FB1321A74806F082F87A
:10503000A64B9F48196803F0EDFB9D4803F09AFBCF
:105040001221A34806F076F8A24B9948196803F09C
:10505000E1FB974803F08EFB11219F4806F06AF8A8
:105060009E4B9348196803F0D5FB914803F082FBEF
:105070000E219B4806F05EF8D5F89C108C4803F092
:10508000C9FB8B4803F076FB1921964806F052F8CD
:10509000954B8748196803F0BDFB854803F06AFB10
:1050A0001121924806F046F8914B8148196803F0A7
:1050B000B1FB7F4803F05EFB10218E4806F03AF802
:1050C0008D4B7B48196803F0A5FB794803F052FB30
:1050D0001C218A4806F02EF8894B7548196803F0A0
:1050E00099FB734803F046FB1E21864806F022F820
:1050F00095F8BD30002B00F0A5860D21824806F002
:1051000019F86B4803F036FB1521804806F012F8B9
:105110007F4B6748196803F07DFB654803F02AFB65
:1051200013217C4806F006F8614803F023FB0423B2
:105130002360FFF739BA05F097FF05F0D1FF00288B
:10514000F9D15B485B4E03F015FB594803F012FBA5
:10515000574803F00FFB564803F00CFB544803F08C
:1051600009FB1F216C4805F0E5FF514803F002FBE5
:105170001E216A4805F0DEFF4D4803F0FBFA1A21B4
:10518000674805F0D7FFF36F022B00F0E386032B8F
:1051900000F0D786012B00F0CB860921614805F08D
:1051A000C9FF434803F0E6FA14215F48414F05F078
:1051B000C1FFB16F3E4803F02DFB3D4803F0DAFA22
:1051C0001C215A4805F0B6FFD6F88010384803F085
:1051D00021FB374803F0CEFA1C21554805F0AAFF01
:1051E000D6F8A810324803F015FB314803F0C2FA94
:1051F000F56F25F00205012D00F069861321454861
:1052000005F098FF2A4803F0B5FA02232360FFF760
:10521000CBB905F065FF002840F33B812448254EBB
:1052200003F03CFC7823012286F8C20022602B6048
:105230001846B6E41F4E96F84000FFF7E6B823681C
:105240002868FFF7C1B905F04BFF00287FF798AA3F
:105250001748184E03F022FC65230122C6F8B0005F
:1052600022602B6018469CE4124B93F8BC20002A65
:1052700000F0E385002283F8BC2001236520236031
:1052800028608EE405F02CFF00287FF779AA0848F3
:10529000084E03F003FC07F02FF9264907F034FA13
:1052A00065230122F06122602B60184679E400BF7B
:1052B000D887FF1F6093FF1F5C1801007018010062
:1052C000801801009894FF1F901801000495FF1F9B
:1052D000A4180100C094FF1FB8180100EC94FF1F30
:1052E000CC180100DC180100AC94FF1FF818010075
:1052F0003493FF1F0C1901000493FF1F20190100B4
:105300005C87FF1F4019010060190100801901002E
:105310000C95FF1F4015010098190100B8190100F4
:10532000D8190100501A01005C1A0100741A01001A
:10533000941A010000007A4405F0D2FE00287FF79D
:105340001FAA9E489E4E03F0A9FB07F0D5F89D4981
:1053500007F0DAF965230122706122602B6018469C
:105360001FE405F0BDFE00287FF70AAA9348944E7B
:1053700003F094FB00EB80004300012265203366BC
:10538000226028600DE48E4AD2F8AC300133052B40
:10539000C8BF0023C2F8AC306FE705F0A1FE0028BB
:1053A0007FF7EEA98548864E03F078FB00EB80007E
:1053B000430001226520F36522602860FFF7F1BBFE
:1053C0007F4EB36FB3FA83F35B0901226320B367A7
:1053D00022602860FFF7E5BB794ED6F88030B3FA3B
:1053E00083F35B0901226320C6F8803022602860C5
:1053F000FFF7D7BB0123236005F072FE002805DD0F
:105400006E486F4E03F04AFBC6F8A80001236320E4
:1054100023602860FFF7C5BB0123236005F060FE11
:10542000002807DD6548664E03F038FB07F064F896
:10543000C6F88C00632028602368FEF7D0BF0123E4
:10544000236005F04DFE0028F4DD5C485C4E03F05F
:1054500025FB07F051F8C6F88800EBE7012323602D
:1054600005F03EFE0028E5DD5448554E03F016FBDE
:10547000A6F8B600DEE7FDF7D7FD23682868FEF73B
:10548000ACBF4F4AD36F0133032BC8BF0023D36790
:10549000BCE723682868FEF7A2BF01234A482360BF
:1054A000FBF754FA494A2368106064222A6064209A
:1054B000FEF793BF464A1368B3FA83F35B090121F1
:1054C0006420136021602860FFF76BBB0123236019
:1054D00005F006FE002800F3F2843E4B1A68042A09
:1054E000C4BF02221A6064232B602368DFE73A4AB4
:1054F000E1E73A4ADFE73A4ADDE7314ED6F89C3039
:10550000B3FA83F35B0901226420C6F89C30226061
:105510002860FFF746BB334ACDE7294E96F8BD30E9
:1055200001225340642086F8BD3022602860FFF7D6
:1055300038BB2D4A2D4F1368002B0CBF01230023CD
:105540004FF001001360206040F00D850346ACE78A
:10555000274AB0E705F0C4FD00280DDD1748184EB6
:1055600003F09CFA06F0C8FF164907F0CDF80122B7
:105570006223306222602B6005F0B2FD00280EDD50
:105580000E480F4E03F08AFA06F0B6FF0D4907F0F9
:10559000BBF801226223C6F8B80022602B6005F038
:1055A0009FFD002840F3D3830448054E03F076FAAC
:1055B00001226223B06622602B601DE0D887FF1FA6
:1055C0006093FF1F00007A447495FF1FAC94FF1F87
:1055D0000493FF1F5C87FF1F0495FF1F3493FF1F79
:1055E000EC94FF1F0C95FF1FC094FF1FB494FF1F86
:1055F0009894FF1F05F038FD05F072FD0546002860
:10560000F8D1C24803F0B6F8C04803F0B3F8BF4879
:1056100003F0B0F8BD4803F0ADF8BC4803F0AAF8B9
:105620001521BB4805F086FDB84803F0A3F8142106
:10563000B84805F07FFDB54803F09CF81B21B6483B
:1056400005F078FDB14803F095F81321B34805F053
:1056500071FDAE4803F08EF8AC4803F08BF8AB4810
:1056600003F088F82021AE4805F064FDF068AD49EC
:1056700006F096FF06F0EAFA009502460B46A348AC
:1056800003F0D2F80221A84805F054FD0221A748F2
:1056900005F050FD9D4803F06DF82121A44805F068
:1056A00049FD30699F4906F07BFF06F0CFFA00956F
:1056B00002460B46954803F0B7F802219A4805F0D8
:1056C00039FD0221994805F035FD904803F052F864
:1056D0001F21984805F02EFDB06A06F0B7FA0227A0
:1056E00002460B460097894803F09EF80121924834
:1056F00005F020FD39468D4805F01CFD834803F078
:1057000039F820218D4805F015FDF06A06F09EFA63
:10571000009702460B467D4803F086F80121864833
:1057200005F008FD3946814805F004FD774803F08F
:1057300021F82321824805F0FDFCB06C794906F080
:105740002FFF06F083FA009502460B466F4803F0E0
:105750006BF83946744805F0EDFC3946734805F09E
:10576000E9FC6A4803F006F81F21764805F0E2FCE0
:10577000F06C6C4906F014FF06F068FA00950246DA
:105780000B46624803F050F83946674805F0D2FCF2
:105790003946664805F0CEFC5C4802F0EBFF192163
:1057A000694805F0C7FCB16D584803F033F8394635
:1057B000664805F0BFFC39465C4805F0BBFC534821
:1057C00002F0D8FF1821624805F0B4FC706E06F0B4
:1057D00093FE604906F0E4FE06F038FA00970246B0
:1057E0000B464A4803F020F801215B4805F0A2FC73
:1057F00039464E4805F09EFC444802F0BBFF2B2181
:10580000564805F097FCB069464906F0C9FE06F017
:105810001DFA009502460B463C4803F005F8394650
:10582000414805F087FC3946404805F083FC37487D
:1058300002F0A0FF1F214A4805F07CFC716D33483F
:1058400002F0E8FF3946394805F074FC2F4802F0B1
:1058500091FF2021434805F06DFC316D2B4802F08B
:10586000D9FF3946314805F065FC284802F082FF2F
:1058700010213D4805F05EFCB16E244802F0CAFFDD
:105880003946294805F056FC3946284805F052FCAF
:105890001E4802F06FFF1321344805F04BFCF16EF7
:1058A0001A4802F0B7FF0121314805F043FC3946A0
:1058B0001E4805F03FFC154802F05CFF10212D4802
:1058C00005F038FC316F114802F0A4FF3946164844
:1058D00005F030FC3946154805F02CFC0B4802F069
:1058E00049FF1421244805F025FC716F074802F098
:1058F00091FF01211E4805F01DFC39460B4805F0BB
:1059000019FC024802F036FF162137E0D887FF1F46
:10591000201B0100381B0100501B01004015010035
:105920006C1B010000007A449C15010080130100EB
:10593000901B0100B41B0100D41B0100D81B010007
:10594000FC1B0100201C0100401C01005C1C01002C
:10595000601C0100CDCCCC3DD81A01007C1C01009C
:10596000A81C0100C81C0100EC1C0100001D010066
:10597000141D0100181D01002C1D0100BA4805F07E
:10598000D9FB306AB94906F00BFE06F05FF90095C5
:1059900002460B46B64802F047FF3946B54805F0C7
:1059A000C9FB3946B44805F0C5FBB14802F0E2FE38
:1059B0002421B24805F0BEFBD6F8B800AB4906F08A
:1059C000EFFD06F043F900950B460246A84802F0A9
:1059D0002BFF3946A74805F0ADFB3946A64805F030
:1059E000A9FBA34802F0C6FEA14802F0C3FE0323B0
:1059F0002360FEF7D9BD0022732322602B60FEF7DF
:105A00006BBD05F06DFB002840F3A18198489C4ECA
:105A100003F044F801226223F06622602B60EBE57C
:105A200005F05EFB002840F392819148944E03F00C
:105A300035F801226223306722602B60DCE505F037
:105A40004FFB002840F3838189488D4E03F026F8F0
:105A500001226223706722602B60CDE505F040FBD8
:105A6000002840F374818248854E03F017F806F051
:105A700043FD01226223B06222602B60BCE505F089
:105A80002FFB002840F3638179487D4E03F006F830
:105A900006F032FD01226223F06222602B60ABE54A
:105AA00005F01EFB002840F352817148744E02F04D
:105AB000F5FF06F021FD6D4906F026FE0122622366
:105AC000B06422602B6097E505F00AFB002840F3E4
:105AD0003E8167486A4E02F0E1FF06F00DFD634922
