:1000000000800020BD010000C1850000798500004E
:1000100079850000798500007985000079850000E8
:10002000798500007985000079850000C185000090
:10003000C185000079850000D57B0000D97C0000D7
:10004000C1850000C1850000C1850000C185000098
:10005000C1850000C1850000C1850000C185000088
:10006000C1850000C1850000C1850000C185000078
:10007000C1850000C1850000C1850000C185000068
:10008000C1850000C1850000C1850000C185000058
:10009000C1850000C1850000C1850000C185000048
:1000A000C1850000C1850000C1850000C185000038
:1000B000C1850000C1710000CD710000D171000048
:1000C000DD710000E1710000E5710000C1850000F4
:1000D000C1850000C1850000C1850000C185000008
:1000E000C1850000C1850000C1850000C1850000F8
:1000F000C185000009A70000C1850000B59200007D
:10010000C185000081940000C1850000C185000008
:10011000C1850000C1850000C1850000C1850000C7
:10012000C1850000C1850000C1850000C1850000B7
:10013000C1850000C1850000C1850000C1850000A7
:10014000C1850000C1850000C1850000C185000097
:10015000C1850000C1850000C1850000C185000087
:10016000C185000011970000C1850000C185000015
:10017000C1850000C1850000C1850000C185000067
:10018000C1850000C1850000C1850000C185000057
:10019000C1850000C1850000C1850000C185000047
:1001A000C1850000C1850000C1850000C185000037
:1001B000C1850000C1850000C1850000564B4CF28E
:1001C000205210B51A804DF628121A8000BF00BFC9
:1001D00008F0FAF9514B4FF010621A60504A9A60D9
:1001E000504ADA60504A136813F4807304D14F49BF
:1001F0000B604FF4A85313604D4B1A78110703D5C9
:100200001A7842F008021A704A4B4B492A221A7097
:100210004A4A4B4B8B4204D252F8040F43F8040B6A
:10022000F8E7484B484900228B4202D243F8042B9E
:10023000FAE74649464A002352F8230041F82300D2
:1002400001336F2BF8D1434B434A802103F8011B44
:100250009342FBD1414B3D4A1A60414B8A221A70AE
:10026000A3F5805324225A70A0221A709A7992071B
:10027000FCD59A79D406FCD43A4A937903F00C035E
:10028000082B384BF9D103221A7140225A719A79FE
:100290009006FCD5334A9179324B4906FBD5324A58
:1002A000324911600221516020221A709A7902F0BD
:1002B0000C020C2AFAD12E4B2E4A1A602E4B2F4AD2
:1002C0001A6000225A60072243F8042C2C4AC3F813
:1002D0000C2D62B608F058FC144B1B68DA0705D5E4
:1002E000284808F035FA284B284A1A60284B1B7812
:1002F0005B0609D5244C254B22689A4204D121483B
:1003000008F026FA002323600BF0E0FC08F062F905
:1003100008F090F8FEE700BF0E2005403080044052
:10032000823F04000100002B10D0034014D0034092
:1003300002D0074000E007402892FF1F5417010039
:100340002087FF1F2892FF1FB0B9FF1F0082FF1FE9
:100350000000000000E400E05FE400E008ED00E0E1
:100360000050064000400640448004400000030165
:1003700004800440C010050014E000E0FF76010096
:1003800000002020D70E155D1CE00340A5C3945A41
:1003900000F00740FFFFFFFFFFFFFFFFFFFFFFFF32
:1003A000FFFFFFFFFFFFFFFFFFFFFFFFFFFFFFFF5D
:1003B000FFFFFFFFFFFFFFFFFFFFFFFFFFFFFFFF4D
:1003C000FFFFFFFFFFFFFFFFFFFFFFFFFFFFFFFF3D
:1003D000FFFFFFFFFFFFFFFFFFFFFFFFFFFFFFFF2D
:1003E000FFFFFFFFFFFFFFFFFFFFFFFFFFFFFFFF1D
:1003F000FFFFFFFFFFFFFFFFFFFFFFFFFFFFFFFF0D
:10040000FFFFFFFFFFFFFFFFFFFFFFFFDEF9FFFF23
:1004100010B5054C237833B9044B13B10448AFF33E
:1004200000800123237010BD2892FF1F00000000F0
:1004300050170100084B10B51BB108490848AFF32D
:1004400000800848036803B910BD074B002BFBD0A0
:10045000BDE81040184700BF000000002C92FF1FAD
:10046000501701002892FF1F000000002DE9F04105
:10047000002600F5C67400F5D0774FF0000854F858
:10048000045F0E4928460BF0CBFB0D4950B12846BE
:100490000BF0A8FB30B1304629460BF0FDF808F10F
:1004A0000108064640460BF0ABF9014630460BF01A
:1004B000AFFABC420646E2D1BDE8F0810000A0C11F
:1004C00000001643F0B4194F0024031F00F180010F
:1004D00000F5827200F17C0643F8044FB34241F804
:1004E000047F4FF0000542F8044FF5D10023104A75
:1004F0001049C0F88C51C0F89051C0F89451C0F820
:100500009851C0F89C51C0F8A051C0F8B051C0F843
:10051000A421C0F8AC21C0F8A81180F8B83180F847
:10052000B93180F8D031F0BC704700BF0000A04066
:10053000000048430000C8C238B590F8D0310B2BFA
:100540000546144607D8702966D0E02931D06029C5
:1005500000F09B8038BD70293AD0E02929D060296D
:10056000F8D1137A507A1B0203F47063181805D07F
:100570000BF046F963490BF097F96860A37AE07ACB
:100580001B0203F47063181805D00BF039F95D49AC
:100590000BF08AF9A860237B607B1B0203F4706375
:1005A0001818D7D00BF02CF956490BF07DF9E860FC
:1005B00038BDE37BA07B03EB00200BF021F952490F
:1005C0000BF072F951490BF067F8C5F8900138BD8E
:1005D000137A507A1B0203F4FE43181805D00BF06F
:1005E0000FF948490BF060F96861A07AE37A13EBE0
:1005F000002005D00BF004F942490BF055F9A86131
:10060000207B637B13EB0020A4D00BF0F9F83D496D
:100610000BF04AF9E86138BD137A507A1B0203F4F3
:100620007063181805D00BF0EBF836490BF03CF965
:100630006861A37AE07A1B02C34208D003F47063B6
:1006400018440BF0DDF82F490BF02EF9A861237B3D
:10065000607B1B02C34208D003F4706318440BF0A4
:10066000CFF828490BF020F9E861A37BE07B1B025F
:10067000C3423FF46FAF03F4706318440BF0C0F84B
:1006800020490BF011F9286238BD137A507A1B0209
:1006900003F4FE42C24208D003F4706318440BF026
:1006A000AFF818490BF000F96860A37AE07A1B02F2
:1006B000C34208D003F4706318440BF0A1F8114949
:1006C0000BF0F2F8A860237B607B1B02C34208D0CA
:1006D00003F4706318440BF093F80A490BF0E4F844
:1006E000E860A37BE07B1B02C3423FF433AF03F41B
:1006F000706318440BF084F802490BF0D5F82861B8
:1007000038BD00BF0AD7A33ADDB504BD00001643CB
:10071000D0F8DC01704700BF90F8C001704700BFFF
:1007200090F8BC01704700BF90F8C401704700BF4B
:1007300090F8C801704700BF202994BF50F82100ED
:10074000002070472DE9F0410B4E8046041F00F158
:100750007C0754F8045F314628460BF043FA30B169
:10076000D8F8B41128460BF05BFA00B12E46BC4213
:10077000EFD13046BDE8F081000020412DE9F04185
:10078000D0F8B4714FF00008041F00F17C0654F853
:10079000045F394628460BF043FA084948B1284619
:1007A0000BF020FA414620B128460BF039FA00B18F
:1007B000A846B442EBD14046BDE8F0810000A0401D
:1007C0002DE9F0470023D0F8B471C0F8DC3182463F
:1007D0001C464FF000099846061F56F8045F38463D
:1007E00029460BF0FFF90E4960B128460BF0FAF9E3
:1007F00040B1484629460AF04FFF08F101088146FA
:10080000CAF8DC410134202CE7D1CAF8D481404633
:100810000AF0F6FF014648460BF0FAF8BDE8F0870B
:1008200000007042D0F8D401704700BFD0F8CC313E
:1008300070B5044683BBFFF719FE4FF07C510BF0F7
:10084000EFF940B3D4F890614FF07C5130460BF093
:10085000E7F9D4F8945118BBD4F898414FF07C5183
:1008600028460BF0DDF958B1294630460BF0D8F98F
:1008700030B1214628460BF0B5F908B12C4625E0E9
:100880004FF07C5120460BF0CBF920B12846214691
:100890000BF0C6F9A0B970BD633350F82300CCE764
:1008A000304629460BF09EF9D4F898410028D5D05F
:1008B000304621460BF096F90028CFD0344605E0AB
:1008C000304621460BF0ACF90028E4D0204670BD3C
:1008D00038B5D0F89441D0F89051214628460BF015
:1008E00081F900B92C46204638BD00BFD0F8CC3184
:1008F0000BB9FFF7BBBD633350F82300704700BF4F
:100900002DE9F8434FF00008D0F8B471C0F88C819D
:100910008146041F00F17C0654F8045F39462846DE
:100920000BF07EF9084950B128460BF05BF930B165
:10093000404629460AF0B0FE8046C9F88C01B44210
:10094000EAD14046BDE8F8830000704202299ABF10
:10095000643150F821000020704700BF102998BF73
:1009600080F8D011704700BF90F8D001704700BFE9
:1009700090F8B801704700BFC0F8CC11704700BFB5
:1009800080F8B811704700BF80F8B911704700BFF8
:1009900030B5C0F8B41183B008460AF0DBFA074C52
:1009A000022502460B460095204607F09DFA204698
:1009B00003B0BDE8304007F03DBA00BFC887FF1F55
:1009C00070B500F500550646183500F1380420468C
:1009D00004F5F074FFF776FDAC42F8D106F5067524
:1009E000012428460021FFF7CBFF21462846013489
:1009F000FFF7B4FF112C05F5F075F2D142F2200497
:100A000000250548054A064B3555002130627162C4
:100A1000B262F362304670BD00007A440000484381
:100A20000000C8C242F224032DE9F041002200F583
:100A3000F15500F500578046C2501835243700F5AF
:100A4000067403E004F5F074AC420ED02046FFF7C4
:100A50008FFF0028F6D020463E68FFF7E3FE04F53E
:100A6000F0743044AC423860F0D142F2240358F8BC
:100A70000300BDE8F08100BFF8B50F46096801F03A
:100A80000F050135C5EB051400EB441000F13804E7
:100A9000204601F0F006FFF767FF854203D02946A4
:100AA0002046FFF75BFF20460121FFF769FF204644
:100AB0000121FFF769FF3A4631462046BDE8F8407C
:100AC000FFF73ABD70B5002300F5005605460361F7
:100AD000183600F5067403E004F5F074A64223D03E
:100AE0002046FFF745FF0028F6D02046FFF708FF15
:100AF000014628690AF0D0FD28612046FFF796FEDE
:100B0000A96A0BF06FF820BB2046FFF7E1FEE96A07
:100B10000BF086F80028DFD02046FFF7D9FE04F559
:100B2000F074A642E862DBD168690AF069FE01460A
:100B300028690AF06DFF696A286104460BF070F8B5
:100B400000B16C62296A20460BF04CF800B12C62AF
:100B500070BD2046FFF76AFEA862D5E770B5124B5C
:100B6000836100F500550646183500F5067403E06C
:100B700004F5F074AC4214D02046FFF7F9FE0028CB
:100B8000F6D02046FFF7DEFDB1690BF02BF8002808
:100B9000EED02046FFF7D6FD04F5F074AC42B0610C
:100BA000EAD1B06970BD00BF0000A0402DE9F04F50
:100BB00083B000F10F0200F10709114600920446CC
:100BC0004B46002203F8012F9942FBD104F506752C
:100BD00004F110032E4604F108089B4601953046A7
:100BE000FFF7C6FEC0B101274FF0000A2046FFF70D
:100BF000B5FF394605463046FFF79EFD01462846BB
:100C00000AF0F0FF18B10123BB404AEA030A01379A
:100C1000092FEBD188F800A008F10108C34506F5BB
:100C2000F076DCD14FF4407208232260E371214654
:100C30002048019D06F064F9009A002309F8013F5D
:100C40004A45FBD104F5885B0BF1180B04F101094F
:100C50004FF0010A2846FFF78BFEC0B101264FF086
:100C600000082046FFF77AFF314607462846FFF77F
:100C700063FD014638460AF0B5FF18B10AFA06F3DB
:100C800048EA03080136092EEBD189F8008005F502
:100C9000F0755D4509F10109DCD106484FF4447255
:100CA000052321462260E37103B0BDE8F04F06F052
:100CB00027B900BF14B5FF1F70B5002300F500551C
:100CC0000646C361183500F5067403E004F5F074B8
:100CD000AC4214D02046FFF74BFE0028F6D0204649
:100CE000FFF74CFDF1690AF09BFF0028EED020468B
:100CF000FFF744FD04F5F074AC42F061EAD1F0690D
:100D000070BD00BF0069704741617047F8B50F467C
:100D1000164600F50674012504E00135112D04F591
:100D2000F0741BD02046FFF723FE0028F5D029469B
:100D30000B4807F0CFF80A4807F07CF8782009F054
:100D400001FC20463946FFF717FE013520463146A3
:100D5000FFF71EFE112D04F5F074E3D1F8BD00BFBE
:100D6000C887FF1F2DE9F84300F5005542F21C0328
:100D70002E4600278046C7504FF0000918351C3614
:100D800000F5067403E004F5F074A54214D0204683
:100D9000FFF7EEFD0028F6D03368013333602046BC
:100DA000FFF7A4FD1D490AF03BFF90B904F5F0746C
:100DB000A54207F10107EAD142F21C0358F80300EB
:100DC000C01B0AF01DFD014648460AF021FEBDE8A1
:100DD000F8832046FFF78AFD014648460AF05CFC8E
:100DE00081462046FFF782FDD8F830100AF018FF40
:100DF00070B92046FFF77AFDD8F834100AF0F2FEF9
:100E00000028C0D02046FFF771FDC8F83400BAE7CB
:100E10002046FFF76BFDC8F83000EAE700008CC2FF
:100E2000006B7047406B7047F8B500F500550746FA
:100E30000026183500F5067403E004F5F074AC42A2
:100E400010D02046FFF794FD0028F6D02046FFF78B
:100E5000B7FC014630460AF01FFC04F5F074AC42C2
:100E60000646EED142F21C03F8580AF0C9FC0146CE
:100E700030460AF0CDFDF8BD2DE9F04F93B00446A1
:100E80000F91002A40F0D78115461046C84900F05E
:100E9000E5FDC749284600F0E1FDC549284600F0B8
:100EA000DDFD42F21C03204654F803B0FFF7BAFD03
:100EB0008146206966690AF04DF8CDE910012046A7
:100EC000FFF7B2FF82462046A769D4F81C80FFF7DF
:100ED00049FF0AF03FF8CDE90C01394640460AF0D7
:100EE000D9FBB4490AF0E0FC0AF034F8CDE90A0174
:100EF00040460AF02FF8CDE9080138460AF02AF8F2
:100F0000CDE9060150460AF025F8DDE91023CDE9C8
:100F10000401CDE90223A84900964B465A462846CB
:100F200000F09CFDA249284600F098FD04F50674E7
:100F30004FF0010ADDF83C9007E00AF1010ABAF12E
:100F4000100F04F5F07400F0F7802046FFF710FD55
:100F50000028F2D02046FFF7DFFB2046FFF7E0FB3A
:100F60002046FFF7E1FB2046FFF7E2FB082193480C
:100F700009F064FA5146924806F0ACFFBAF1090F45
:100F800003DC01218F4809F059FA02218E4809F04B
:100F900055FA2046FFF7B4FC09F0DCFF5FFA89F848
:100FA00002460B46CDF80080854806F09DFF0121E2
:100FB000864809F043FA2046FFF7AAFB0C2800F305
:100FC000BE8001261EE00621814809F037FA294635
:100FD0007B4806F07FFF02217E4809F02FFA314658
:100FE0002046FFF7A9FB09F0B5FFCDF800800246C7
:100FF0000B46734806F078FF012174483D460E44C5
:1010000009F01CFA2046FFF783FB864205F1010731
:101010006BDC092DD7DC01216A4809F00FFAD2E711
:101020002046FFF775FB172800F3BE8035460D26D6
:101030001CE009F003FA2946614806F04BFF022143
:10104000644809F0FBF931462046FFF775FB09F0CB
:1010500081FFCDF8008002460B46594806F044FF58
:1010600001215A483D460E4409F0E8F92046FFF7B1
:101070004FFB86424FF00601554805F10107D8DDC8
:101080000F21554809F0DAF94D4806F0D3FE204605
:10109000FFF73EFB192828DD19261CE009F0CEF9E0
:1010A0002946474806F016FF02214A4809F0C6F9CA
:1010B00031462046FFF740FB09F04CFFCDF8008099
:1010C00002460B463E4806F00FFF01213F483D46D1
:1010D0000E4409F0B3F92046FFF71AFB86424FF0A1
:1010E00006013B4805F10107D8DD0F213A4809F018
:1010F000A5F9334806F09EFE0921384809F09EF90B
:1011000000212046FFF722FC09F024FF02260246B8
:101110000B4600962A4806F0E7FE0F212E4809F0FC
:101120008DF90AF1010A264806F084FEBAF1100F83
:1011300004F5F0747FF409AF13B0BDE8F08F2F46CB
:10114000012620E00621224809F078F939461C489A
:1011500006F0C0FE02211F4809F070F93146204612
:10116000FFF7EAFA09F0F6FECDF8008002460B46DA
:10117000134806F0B9FE01360121144809F05EF962
:101180000C2E09D05F46092F07F1010BDADC012193
:101190000C4809F053F9D5E72046FFF7B9FA0C28B7
:1011A00005F10B063FF73CAF16350D273AE000BFBF
:1011B00088FF000000007A4420010100C001010006
:1011C000C887FF1FC00301002C100100CC010100E3
:1011D000D0010100B0030100D8010100E8010100C5
:1011E0000621BD4809F02AF93146BC4806F072FED6
:1011F0000221BB4809F022F939462046FFF79CFA44
:1012000009F0A8FECDF8008002460B46B34806F070
:101210006BFE0121B3480F4409F010F95D453FF41E
:101220002FAF5E46092E06F1010BD9DC0121AE4835
:1012300009F004F9D4E7AD49012000F00FFCAB49F7
:10124000012000F00BFCA949012000F007FC42F24C
:101250001C032046E2581092FFF7E4FB8246206907
:10126000666909F077FE804620468946FFF7DCFD77
:1012700083462046A569E769FFF774FD09F06AFE19
:10128000CDE90C01294638460AF004FA98490AF0DB
:101290000BFB09F05FFECDE90A01384609F05AFE62
:1012A000CDE90801284609F055FECDE9060158466A
:1012B00009F050FE5346CDE90401CDE90289109AA8
:1012C0008C490096012000F0C9FB8849012000F0FC
:1012D000C5FB04F506744FF0010A0025DDF83C90CB
:1012E00007E00AF1010ABAF1100F04F5F0743FF4B7
:1012F00023AF2046FFF73CFB0028F2D02046FFF743
:101300000BFA2046FFF70CFA2046FFF70DFA2046AD
:10131000FFF70EFA0821784807F0C8FE51467748D3
:1013200006F0D8FDBAF1090F03DC01216E4807F081
:10133000BDFE0221724807F0B9FE2046FFF7E0FA31
:1013400009F008FE5FFA89F802460B46CDF80080E6
:101350006A4806F0C9FD0121624807F0A7FE204651
:10136000FFF7D6F90C2800F3B48001261EE0062111
:10137000594807F09BFE2946604806F0ABFD022164
:10138000574807F093FE31462046FFF7D5F909F09C
:10139000E1FDCDF8008002460B46584806F0A4FD5A
:1013A000012150483D460E4407F080FE2046FFF7DD
:1013B000AFF9864205F101076BDC092DD7DC01216D
:1013C000494807F073FED2E72046FFF7A1F9172836
:1013D00000F3CE8035460D261CE007F067FE294657
:1013E000464806F077FD02213D4807F05FFE314692
:1013F0002046FFF7A1F909F0ADFDCDF800800246C7
:101400000B463E4806F070FD012136483D460E442D
:1014100007F04CFE2046FFF77BF986424FF00601AD
:101420002D4805F10107D8DD0F21364807F03EFEB3
:10143000324806F0FFFC2046FFF76AF9192828DD3C
:1014400019261CE007F032FE29462C4806F042FD22
:101450000221234807F02AFE31462046FFF76CF9A7
:1014600009F078FDCDF8008002460B46234806F0CF
:101470003BFD01211B483D460E4407F017FE204668
:10148000FFF746F986424FF00601134805F10107C0
:10149000D8DD0F211B4807F009FE184806F0CAFCEA
:1014A0000921194807F002FE00212046FFF74EFAF5
:1014B00009F050FD022602460B4600960F4806F042
:1014C00013FD0F210F4807F0F1FD0C4806F0B2FCA8
:1014D00007E72F4601263AE0D0010100C887FF1F29
:1014E000B0030100CC010100C003010088FF00002F
:1014F00000007A4420010100C0010100AC87FF1FF9
:101500002C100100D8010100E801010006212F483C
:1015100007F0CCFD39462E4806F0DCFC02212D48B0
:1015200007F0C4FD31462046FFF706F909F012FD29
:10153000CDF8008002460B46254806F0D5FC013662
:101540000121254807F0B2FD0C2E09D05F46092F76
:1015500007F1010BDADC0121204807F0A7FDD5E7F0
:101560002046FFF7D5F80C2805F10B063FF72CAF06
:1015700016350D2721E00621144807F097FD314666
:10158000134806F0A7FC0221124807F08FFD3946E8
:101590002046FFF7D1F809F0DDFCCDF800800246C7
:1015A0000B460B4806F0A0FC01210B480F4407F046
:1015B0007DFD5D453FF438AF5E46092E06F1010B17
:1015C000D9DC0121054807F071FDD4E7D001010005
:1015D000AC87FF1FB0030100CC010100C003010074
:1015E0002DE9F04F85B000F506758A4603929B46BB
:1015F0002E464FF0010806E008F10108B8F13F0F50
:1016000006F5F0767BD03046FFF7B2F90028F3D02C
:1016100000230A2251467D4806F01CFC01217C482B
:1016200008F00CFF039809F095FC00230246009394
:1016300076480B4606F058FC0121754808F0FEFE7E
:101640005946724806F046FC0121714808F0F6FE42
:1016500041466E4806F03EFC01216D4808F0EEFE62
:1016600000244FF0020921463046FFF765F809F0E3
:1016700071FCCDF8009002460B46644806F034FC3D
:1016800001340121624808F0D9FE082C4FF002070E
:10169000E9D100213046FFF759F909F05BFC0097CA
:1016A00002460B46594806F01FFC0121584808F035
:1016B000C5FE01213046FFF749F909F04BFC0097C0
:1016C00002460B46514806F00FFC0121504808F035
:1016D000B5FE39463046FFF739F909F03BFC009773
:1016E00002460B46494806F0FFFB08F1010847484F
:1016F00006F0A0FBB8F13F0F06F5F07683D1012785
:101700004FF0000904E001373F2F05F5F07579D05F
:101710002846FFF72DF90028F5D000230A2251466C
:101720003C4806F097FB0121394807F0BFFC0398BD
:1017300009F010FCCDF8009002460B46354806F043
:10174000D3FB0121324807F0B1FC5946314806F07D
:10175000C1FB01212E4807F0A9FC39462D4806F0AF
:10176000B9FB01212A4807F0A1FC00244FF0020830
:1017700021462846FEF7E0FF09F0ECFBCDF800809B
:1017800002460B46234806F0AFFB013401212048F6
:1017900007F08CFC082C4FF00206E9D10021284606
:1017A000FFF7D4F809F0D6FB009602460B4619481D
:1017B00006F09AFB0121164807F078FC0121284623
:1017C000FFF7C4F809F0C6FB009602460B46114825
:1017D00006F08AFB01210E4807F068FC31462846D6
:1017E000FFF7B4F809F0B6FB009602460B4609482D
:1017F00006F07AFB0137074806F01CFB3F2F05F582
:10180000F07585D105B0BDE8F08F00BFC887FF1F18
:10181000F4010100AC87FF1F70B5044608460D4671
:101820000BF04EF823680246294620465B68BDE867
:1018300070401847014B1870704700BF2087FF1F8A
:10184000F0B51546027883B062B103460E46252AEC
:1018500016D018781C4685B908F074FE6278631CAF
:10186000002AF4D1002D5CD0744803B0BDE8F040EC
:1018700006F0E0BA1046002DEED007F0BFFBEDE712
:1018800058785C1C0028EDD02528F3D073282FD081
:10189000642825D0692823D0662848D07A2853D0D8
:1018A00078285ED0582800F08580622800F091806A
:1018B000422866D06C2813D0632811D0742800F019
:1018C00098805428C7D133680436002D40F0A48096
:1018D000012B00F0A8800521594808F0AFFDBDE7B5
:1018E000331D316885B957481E4606F0F3FAB5E74F
:1018F000371D3668304665B90AF0E2FF01463046CA
:101900003E4608F09BFDA9E74C481E4606F0E2FA69
:10191000A4E70AF0D5FF014630463E4607F0C6FB75
:101920009CE7484803B0BDE8F04006F083BA0736AC
:1019300026F007060321D6E90023009165B9414846
:10194000083606F0D1FA89E7073626F00706D6E909
:10195000002385B1002100913848083606F0C4FA0A
:101960007CE7371D3168F5B90023102235483E4623
:1019700006F070FA72E700953248083606F0B4FABD
:101980006CE7022130487DBB08F058FD3168371DF7
:101990002B4602222B483E4606F05CFA5EE707F033
:1019A00085FB3168371D0023102224483E4606F08F
:1019B00051FA53E702212548002DF0D108F03EFDF1
:1019C000371D31681F482B4610223E4606F042FA6A
:1019D00044E7371D3168002DDAD000230222174872
:1019E0003E4606F037FA39E707F060FB371D3168ED
:1019F000F3E7316804363DB901290EBF1448154894
:101A0000012108F01BFD29E701290EBF10481148EC
:101A1000012107F04BFB21E7012B09D005210848E4
:101A200007F044FB1AE70C490648FFF7F5FE15E7F7
:101A300009490248FFF7F0FE10E700BFAC87FF1F1F
:101A400034020100C887FF1F200201001C020100B0
:101A500024020100280201002C0201000EB400B58E
:101A600082B003A9024651F8040B0191FFF7E8FE8A
:101A700002B05DF804EB03B0704700BF30B4074D0F
:101A8000074C084900232B70236003654365836579
:101A900080F85C300B6030BC704700BF4C92FF1F79
:101AA0004892FF1F4492FF1FF8B53C493C4F3D4D03
:101AB0003D4E3E4C0020FFF7D1FF3D4B3D483E4997
:101AC0003E4A5860D9603E481F6100213D4F5A612F
:101AD0005D623D4A9E614FF07C553C4E9C623C4CA1
:101AE000D86219630C203B495F639A633A4F5D6487
:101AF00040F61C420A259E64DC6441F204065A2426
:101B00001865196202200121C3F8B8709A66334F34
:101B1000DD66002264251E675C674FF496763224EA
:101B20005870587219725965DF61DF6383F840207D
:101B30005E66DE651C664FF47A7E9D65284F9A6767
:101B4000284ED867C3F88020C3F89440C3F8A0405B
:101B5000C3F89C20C3F8A810C3F8AC00FF240520EC
:101B600083F8BC1083F8BD2041F2883140F2D66280
:101B7000C3F8B050C3F898E0C3F88870C3F88C601D
:101B8000C3F8A440A3F8B600C3F89010A3F8B410AB
:101B9000A3F88420A3F88620F8BD00BF3C02010012
:101BA00000004040CDCCCC3DCDCC4C40000082422A
:101BB0003C93FF1F48E8010066668640333383404C
:101BC000000020C1000020420000A0409A99794006
:101BD0000AD7233D333373409A99993ECDCC4C3E7E
:101BE0000000684200C02044F0B54FF47A6085B030
:101BF00006F07CFF00210F2006F050FF00210E2090
:101C000006F04CFF0021112006F048FF00211020B3
:101C100006F044FF0021122006F040FF00211320AF
:101C200006F03CFF01210B2006F038FF01210C20BB
:101C300006F034FF0121142006F030FF01211520A9
:101C400006F02CFF0121162006F028FF01211720A5
:101C500006F024FF0121052006F020FF8D4C8E4D5B
:101C60000121062006F01AFF01210D2006F016FFC3
:101C7000208809F0C1FD0146162006F079FE208873
:101C800009F0BAFD0146172006F072FE208809F01F
:101C9000B3FD0146052006F06BFE208809F0ACFD7F
:101CA00000240146062006F063FE009423467B4A8A
:101CB0007B497C4804F02CFFE6B2324676497948ED
:101CC00004F0D4FE2B79744976486FF30003013495
:101CD00032462B7104F0C0FE082CEDD10924E6B287
:101CE00032466D496F4804F0C1FE2B796A496D4850
:101CF00043F00103013432462B7104F0ADFE0D2C8C
:101D0000EDD1694C4FF0FF322068102105F0CCFA7C
:101D100020684FF0FF32102105F09EFA20684FF046
:101D2000FF32022105F0ACFA20684FF0FF320221A9
:101D300005F0B0FA00220F21206805F0BFFA0C214F
:101D40005A4808F07BFB5A4806F074F814215948A9
:101D500008F074FB564806F06DF840F2836006F018
:101D600083FF534806F066F81721534808F066FBD6
:101D70004F4806F05FF8514B1B789A0600F1B88087
:101D80004E4B1B781B0700F1BF804C4B1B785F0745
:101D900000F1C680494B1B789E0700F1CD80484B6F
:101DA0001B781D0600F1D480454B1B785C0600F1C2
:101DB000DB80434B1B78980600F1E280404B1B7898
:101DC000590700F1E9803E4B1B781A0700F1F080BB
:101DD0003B4B1B789B0700F1F780354806F02AF84B
:101DE00072B6384A4CF220534DF628112024138045
:101DF00023461180013BFDD1334D34483449002343
:101E00004FF480562E8003800B8032F80E3C9BB23C
:101E100043F0D30322F80E3C62B69D2007F0D0FABF
:101E200021462C482C4D08F009FB214806F002F809
:101E300005F1C0062F462C46601B06F069FA04F82F
:101E4000010BB442F8D13B78102B01D0FFF72CFEE8
:101E50000420FFF7EFFC214B002201210D201A6026
:101E600006F008FE796D1E48FEF74EFF7A6C97F873
:101E700040101B48FEF74AFF1A4B1B491A68039291
:101E800003981B680293029A184B08601A6005B009
:101E9000F0BD00BF2887FF1F0894FF1FB0B6FF1FCB
:101EA00048E8010014B5FF1FB894FF1F5C02010051
:101EB000C887FF1F6C0201008402010001F0074087
:101EC00000F007400E200540042005400620054094
:101ED00016200540880301003C93FF1F6492FF1FFA
:101EE000EC94FF1FD8B6FF1FE894FF1F1094FF1F4C
:101EF0002121394808F0A2FA384805F09BFF384BF9
:101F00001B781B077FF541AF0C21364808F096FA85
:101F1000324805F08FFF324B1B785F077FF53AAFF1
:101F20000E21314808F08AFA2C4805F083FF2C4B2B
:101F30001B789E077FF533AF17212C4808F07EFAF7
:101F4000264805F077FF2A4B1B781D067FF52CAF3E
:101F50000E21284808F072FA204805F06BFF244B48
:101F60001B785C067FF525AF1221234808F066FA3E
:101F70001A4805F05FFF1E4B1B7898067FF51EAFD1
:101F800013211E4808F05AFA144805F053FF184B65
:101F90001B7859077FF517AF1C21194808F04EFA36
:101FA0000E4805F047FF124B1B781A077FF510AF5C
:101FB0001921144808F042FA084805F03BFF0C4B81
:101FC0001B789B077FF509AF18210F4808F036FAF8
:101FD000024805F02FFF00E79C020100C887FF1FA1
:101FE00001F00740C0020100D0020100E002010040
:101FF00000F00740F8020100080301001C03010083
:1020000030030100500301006C03010070B5464C21
:10201000464D4748E66800232B70FEF74DFE01460B
:10202000304609F0DFFD08B104232B704048FEF76D
:1020300095FD216909F0D6FD18B12B7843F0100306
:102040002B703B48FEF78EFEA16A09F0E9FD18B13E
:102050002B7843F040032B70002335486B70FEF75C
:1020600081FEE16A314E09F0BDFD08B101237370B4
:1020700000232F48EB70FEF71FFE05462C482B4E21
:10208000FEF76CFD0146284609F004FBE16B09F000
:10209000C7FD08B10123F370264D254800232B709E
:1020A000FEF70AFE616A0646E06809F0F3FA0146A7
:1020B000304609F0B5FD08B104232B701C48FEF72B
:1020C0004DFD616A0646206909F0E6FA0146304690
:1020D00009F088FD18B12B7843F010032B701448D9
:1020E000FEF740FEA16B0646A06A09F0D3FA01464E
:1020F000304609F095FD18B12B7843F040032B7062
:1021000000230B486B70FEF72DFEA16B0546E06ABD
:10211000084C09F0C1FA0146284609F063FD08B1F0
:102120000123637070BD00BF3C93FF1F3893FF1FF6
:10213000EC94FF1FA894FF1F2DE9F0417C4C23680D
:10214000012B82B031D0022B00F0A880032B00F0CD
:10215000C8803BBB774B784AD3F8A010D3F8A430A3
:1021600012685B1A632B0EDD744803FB02F380FBDD
:102170000302DB17C3EB62131944062002B0BDE86B
:10218000F04106F0F7BA6E4803FB022380FB03021E
:10219000DB17C3EB22121144062002B0BDE8F04168
:1021A00006F0E8BA02B0BDE8F081664E33680A3343
:1021B000B3F57A7F00F3B7801846336009F020FB4F
:1021C000614909F071FB80465A4DD5F8A00009F02D
:1021D00017FB0746D5F8A40009F012FB394609F0B1
:1021E00059FA414609F060FB584909F011FC39469B
:1021F00009F052FA09F01EFD0146062006F0BAFA6F
:102200000221534808F01AF9524805F013FE06213E
:10221000514808F013F9306809F0F2FA4A4909F018
:1022200043FB08F097FE022702460B4600974948F9
:1022300005F05AFE0D21494808F000F9D5F8A00034
:1022400009F0DEFA8046306809F0DAFA3E4909F012
:102250002BFB0646D5F8A40009F0D2FA414609F056
:1022600019FA0146304609F01FFB384909F0D0FB46
:10227000414609F011FA08F06DFE00970B46024640
:10228000344805F031FE3946314808F0D7F8314876
:1022900005F0D0FD2368022B7FF458AF294B254E63
:1022A00000221A60D6F8A00009F0AAFA0546D6F86E
:1022B000A40009F0A5FA294609F0ECF9002109F07B
:1022C000F3FA224909F0A4FB294609F0E5F909F0DF
:1022D000B1FC0146062006F04DFA2368032B7FF47B
:1022E00038AF184B134E4FF47A721A60D6F8A0002C
:1022F00009F086FA0546D6F8A40009F081FA2946C5
:1023000009F0C8F9114909F0CFFA104909F080FB2A
:10231000294609F0C1F909F08DFC0146062006F0B6
:1023200029FA236815E700234FF0000833604BE7D4
:102330009494FF1F3C93FF1F3487FF1F1F85EB51B1
:10234000CBF08D286892FF1FCDCCCC3D0000C84259
:102350002C100100C887FF1FAC030100B40301006B
:1023600070B5B548B54C05F065FDB34805F062FDA4
:10237000B14805F05FFD0D21B14808F05FF8D4F8D1
:102380009C30012B11D0AF4CAB48217800230A229E
:1023900005F060FD2378052B67D8DFE813F0060110
:1023A0000B01100115011A0101010921A64808F0CD
:1023B00045F8A648FEF7D2FB216909F013FC18B1D5
:1023C0000F21A34808F03AF8A048FEF775FCE16831
:1023D00009F026FC18B10E219E4808F02FF89B4802
:1023E000FEF76AFC05469948FEF7B8FB0146284609
:1023F00009F050F9E16B09F013FC18B1112196486E
:1024000008F01CF89148FEF7ADFCA16A09F008FC41
:1024100018B10C21914808F011F88C48FEF7A2FC85
:10242000E16A09F0DFFB18B10D218D4808F006F8CC
:102430008C4B86481B68012B00F0E880FEF78EFB72
:1024400021697E4D09F0ECFB78B18048FEF734FC41
:10245000E96809F0C7FB40B17A4B1B78052B00F007
:10246000E6800821804807F0E9FF02217F4807F055
:10247000E5FF122006F004FB012800F0AF801120D8
:1024800006F0FEFA012800F0B380794B1B68012B9F
:1024900000F0B78002217548764C07F0CFFF764BED
:1024A0006548196805F016FD634805F0C3FC042172
:1024B000724807F0C3FF0B2006F0E2FA0023014642
:1024C0000A225D4805F0C6FC0C2006F0D9FA00236C
:1024D00001460A22584805F0BDFC142006F0D0FA47
:1024E000002301460A22544805F0B4FC152006F0EA
:1024F000C7FA0A22002301464F4805F0ABFC06212B
:102500005F4807F09BFF2368DD074FF001014CBFD8
:102510005C485D4807F092FF236898074FF001017F
:102520004CBF5848584807F089FF23685A074FF0B6
:1025300001014CBF5348544807F080FF23681B0734
:102540004CBF50485048012107F078FF04214F4804
:1025500007F074FF112006F093FA002301460A22C7
:10256000354805F077FC102006F08AFA0023014672
:102570000A22314805F06EFC122006F081FA002391
:1025800001460A222C4805F065FC132006F078FA73
:10259000002301460A222848BDE8704005F05ABCD5
:1025A00007213B4807F04AFF5FE70621394807F05B
:1025B00045FF5AE70721384807F040FF55E7072154
:1025C000364807F03BFF50E70821354807F036FF53
:1025D0004BE70B21334807F031FF46E70E21324825
:1025E00007F02CFF112006F04BFA01287FF44DAFC5
:1025F0000A212E4807F022FF1D4B1B68012B7FF498
:1026000049AF11212A4807F019FF43E7FEF7A6FA60
:10261000216A09F005FB00283FF423AF1621254865
:1026200007F00CFF0A21244807F008FF1DE70A21E4
:10263000214807F003FF18E7C887FF1F3C93FF1FDF
:10264000C4030100A494FF1FD4030100EC94FF1FF6
:10265000E0030100F0030100000401001404010084
:10266000240401007492FF1F580401002C10010083
:10267000C094FF1FFC93FF1F9894FF1FCC04010020
:10268000D4040100DC040100B4110100E0040100E5
:1026900094040100640401006C0401008004010042
:1026A00088040100740401009C040100AC040100D2
:1026B000B8040100340401004C0401002DE9F04F7E
:1026C0009B4C9C4FE36F012B8DB000F05981032B85
:1026D0005AD0994E994DA36F9948012B09BF29688B
:1026E000296801F10041296005F0DAF93368002B0F
:1026F00040F0D880924805F0A9F9E36F3860012BCB
:10270000064600F0DC808F4909F08AFAB8B98E4994
:10271000304609F067FA90B98C4A8D4B12680B92DB
:102720000B9A1A60D4F8A80009F06AF8314609F04B
:10273000BBF8002338602B600DB0BDE8F08FDFF8E8
:102740000CA2DFF80C82DAF800300A930A98D8F865
:102750000030DFF82492C01A09F04EF8314609F033
:10276000A3F87C4909F054F97A4909F051F9D9F8EC
:10277000001008F091FFDAF800300993099BC9F8BE
:102780000000C8F80030CDE7DFF8D081724DD8F8EE
:102790000000694E012300220F212B6004F08EFD02
:1027A0002B68012B336800F00981002B40F0AC81CD
:1027B0000021D8F80000DFF8C491684D04F0D0FD86
:1027C00033681FFA80FBC9F800B0002B40F081810C
:1027D0000021D8F80000594DDFF880A104F046FD33
:1027E000B4F8863040F6E44101FB0BF1B1FBF0F0A8
:1027F000C01A00B209F004F859498346D4F8880099
:1028000009F052F80146584609F002F9D9F80030AB
:102810002860632BDFF864B100F34F8100232B6045
:102820003368002B3FF457AF02214E4807F006FEF5
:10283000D9F80020D8F8000040F6E443002103FB5B
:1028400002F804F013FDB8FBF0F008F0D5FF804665
:10285000B4F8860008F0D4FF0146404608F01AFF9D
:1028600008F078FB4FF0020802460B46CDF80080D6
:102870003D4805F039FB41463A4807F0DFFD28683E
:1028800008F068FBCDF8008002460B46364805F09C
:102890002BFB4146354807F0D1FD4146314807F052
:1028A000CDFD18E7264805F0D1F808F053FB0226C5
:1028B00002460B4600962C4805F016FB1AE7264BFD
:1028C0001B68012B00F02C81022B7FF42BAF2849D1
:1028D00009F0A6F930B92749304609F083F90028F4
:1028E00000F05381DFF864A0DFF86480DAF800308C
:1028F00007930798D8F80030DFF87C90C01A08F0EA
:102900007BFF314608F0D0FF124909F081F81149E8
:1029100009F07EF8D9F8001008F0BEFEDAF80030B1
:102920000693069BC9F80000C8F80030FAE600BF1D
:102930003C93FF1F8092FF1FE494FF1F7092FF1FC4
:102940001493FF1F0000FA430000FAC3D8B6FF1F1C
:10295000B494FF1F00007A445087FF1FB894FF1FF4
:1029600017B7D1382C100100C887FF1F24050100BC
:1029700000C82F4800A08CC68C92FF1F3493FF1F05
:102980003D689B49284609F02DF930B12846994900
:1029900009F046F900287FF4F7AEDFF86482964D1F
:1029A000D8F80000954E022300220E212B6004F07F
:1029B00085FC2B68012B33687FF4F7AE002B40F0C9
:1029C00006810021D8F80000DFF874928C4D04F0E5
:1029D000C7FC33681FFA80FBC9F800B0002B40F039
:1029E000DB800021D8F80000864D04F03FFCB4F8ED
:1029F000843040F6E44A0AFB0BFBBBFBF0F0C01A44
:102A000000B208F0FDFE80498346D4F88C0008F03F
:102A10004BFF0146584608F0FBFFD9F8003028600C
:102A20000021D8F800000AFB03FA04F01FFCB4F8F8
:102A30008430BAFBF0F00FFA80FAC3EB0A03002BE4
:102A4000B4F8B620B8BF5B429342BCBF00232B60F2
:102A50003368002B3FF43FAE02216C4807F0EEFCD8
:102A6000D9F80020D8F8000040F6E443002103FB29
:102A700002F804F0FBFBB4F88410B8FBF0F000B2ED
:102A8000411A634805F026FA0221604807F0D6FC97
:102A9000286808F05FFA4FF0020802460B46CDF8AE
:102AA00000805B4805F020FA03215A4807F0C6FC75
:102AB0004146564807F0C2FC0DE6DAF80000002156
:102AC00004F0D4FBDBF8003064389842FFF4A6AE83
:102AD000A6E60021286804F0C9FB40F6E441002383
:102AE0000A2201FB0BF1B1FBF0F1494805F0B2F904
:102AF0000221464807F0A2FCB4F88610444805F0CD
:102B0000E9F9D9F800B063E6414805F093F90C21E2
:102B1000414807F093FC0C21404807F08FFC47E642
:102B20003F4909F07DF858B93E49304609F05AF856
:102B300030B93D4A3D4B12680592059A1A60F1E59D
:102B4000DFF8E4A0DFF8E480DAF8003004930498BA
:102B5000D8F80030DFF8EC90C01A08F04DFE31468E
:102B600008F0A2FE324908F053FF314908F050FF47
:102B7000D9F8001008F090FDDAF800300393039BB9
:102B8000C9F80000C8F80030CCE5274A274B126886
:102B90000892089A1A60C5E50021286804F066FBCF
:102BA00040F6E44100230A2201FB0BF1B1FBF0F1F6
:102BB000174805F04FF901211E4807F03FFCB4F813
:102BC0008410134805F086F9D9F800B009E71048D9
:102BD00005F030F9E36F012B4FF00B010CBF1648E5
:102BE000164807F02BFC0C210C4807F027FCE8E600
:102BF00000709446007094C65087FF1FE494FF1F36
:102C0000B894FF1F7092FF1F17B7D1382C10010026
:102C1000C887FF1F10050100140501000005010011
:102C20000000FA430000FAC3D8B6FF1FB494FF1F98
:102C300000007A44C0030100E8040100F40401002C
:102C40003493FF1F8C92FF1F2DE9F047934C2368AC
:102C500084B0002B79D0924DDFF84C82914FD5F89B
:102C600080308F4E012B00F08980D7F80090D6F885
:102C700058A0746D8C4E04FB0AF44FF47A7000FB7C
:102C800004F008F0BDFD89490446484608F00CFEF2
:102C9000214608F0BDFE864908F006FE08F0CAFF8E
:102CA0006328C8F800004BDD2046804908F0B0FEDC
:102CB0006423386033607F4B1B68002B3DD0EB6F83
:102CC000774C012B00F08880032B00F0D680022B7C
:102CD00000F0D9800221784807F0B0FB774B1868E4
:102CE00008F038F9022402460B460094744805F0B7
:102CF000FBF82146734807F0A1FB21466E4807F018
:102D00009DFBD8F800106E4805F0E4F806216E48E7
:102D100007F094FB3868654908F0C6FD08F01AF919
:102D2000009402460B46664805F0DEF8032167482A
:102D300007F084FB624805F07DF804B0BDE8F08739
:102D40000028BCBF00233360B5E7614E544D3368A3
:102D50000293029A42F228339A4249D83368039385
:102D6000039A42F210739A4249D8D5F88030DFF8BE
:102D700038814C4F4A4E012B7FF477AF5548FEF710
:102D800053F85549D6F86890F46E08F08DFD08F0B8
:102D900077FF326F736FD5F858A0C9EB02021B1B87
:102DA00080B29A42C9EB0000C6BF03FB00000132AB
:102DB000584390FBF2F020446C6D00FB0AF004FBDA
:102DC00000F000EB8000400008F01AFD374908F0E1
:102DD0001FFE814638604DE7404B1B68012B4FF0CA
:102DE0000A010CBF3E483F4807F028FBE36F6BE742
:102DF00038486A6C95F84010FDF788FFAEE7354813
:102E0000FEF712F83449AF6EEE6E08F04DFD08F093
:102E100037FF2A6F6B6FD21B9B1B80B29A42A0EBCD
:102E2000070035DD03FB0000531C90FBF3F31E4449
:102E3000A86D6B6DDFF870801A4FC8F8006000FB5A
:102E400006F003FB00F000EB8000400008F0D8FC27
:102E5000164908F0DDFD0123386002211648236081
:102E600007F0ECFA164804F0E5FF59211E4807F078
:102E7000E5FA134804F0DEFFF1E610211B4807F0E5
:102E8000DDFAEB6F23E70721194807F0D7FA21E7AE
:102E900003FB00F393FBF2F31E44C9E76C92FF1FA0
:102EA0003C93FF1F8C92FF1F3487FF1FE4388E3E38
:102EB0000000C8423C87FF1F2C1001008092FF1FBA
:102EC000C887FF1F24050100B8050100C0050100E7
:102ED000D8B6FF1FEC94FF1F00007A445087FF1FF5
:102EE0008405010090050100280501009C050100F2
:102EF000B0050100F0B5112083B005F0C1FD012837
:102F000013D000210B2005F0B5FD00210C2005F0A9
:102F1000B1FD0021152005F0ADFD1D491D4B01201F
:102F2000002208701A6003B0F0BD01460446152067
:102F300005F0A0FD1849194A194B09680191D2F80A
:102F400090001B680199134D034402268B422E60AA
:102F500017D8D2F8980008F053FC124B196808F003
:102F600041FE074668B921460B2005F083FD084A5B
:102F7000032339460C2016702B6005F07BFD03B04F
:102F8000F0BD01210C2005F075FD03B0F0BD00BFC0
:102F9000A494FF1FE094FF1FD8B6FF1F3C93FF1FB0
:102FA000E894FF1F8092FF1FF0B5684E684D3468AB
:102FB0002B689C4287B039D014F0010155D014F031
:102FC000020149D014F004013DD0E3070ED52B686F
:102FD000DF070BD45F4F3A68002A00F082805E4B17
:102FE0001B680193019B93426DD83468A0070DD5EF
:102FF0002B6899070AD4594F3A68002A4CD0564B8F
:103000001B680393039B934238D8346862070DD53D
:103010002B685B070BD4524F3A68002A7ED04E4B88
:103020001B680593059B934268D834680CB107B0C0
:10303000F0BD2146162005F09DFB2146172005F026
:1030400099FB07B0F0BD052005F094FB2B683468B0
:1030500003F0FB032B60B8E7172005F08BFB2B6810
:10306000346803F0FD032B60ACE7162005F082FB0B
:103070002B68346803F0FE032B60A0E7394B172060
:10308000D3F8941005F076FB2B68346843F0020304
:1030900000222B603A60B9E7334804F0CBFE0C21E4
:1030A000324807F0CBF9304804F0C4FEFF21172066
:1030B00005F060FB284B2E4A1968029102991268AC
:1030C0000A443A609CE7274B1620D3F8941005F089
:1030D00051FB2B68346843F0010300222B603A60F7
:1030E00084E7FF21162005F045FB1B4B204A196899
:1030F0000091009912680A443A6071E7194B052063
:10310000D3F8941005F036FB2B68346843F00403C1
:1031100000222B603A60002C89D18AE7124804F023
:1031200089FE0C21134807F089F90F4804F082FE4C
:10313000FF21052005F01EFB074B0D4A196804917D
:10314000049912680A443A606AE700BFE094FF1FDE
:10315000FC93FF1F7894FF1FD8B6FF1F7C94FF1FBE
:103160008094FF1F3C93FF1FC887FF1FC405010009
:103170006887FF1FD40501002DE9F047544EDFF8A2
:103180007481DFF874913068524D00220F2104F0F1
:1031900095F80023012222214F48C8F80030C9F8D1
:1031A000002007F04BF9D8F80030132B22DC40F652
:1031B000E44700213068B5F884A004F0D1F800217C
:1031C0000446306804F052F8A4B2012107FB04F46D
:1031D000B4FBF0F441485444A5F8844007F02EF9BC
:1031E000642005F083FCD8F800300133132BC8F8B5
:1031F0000030DEDDB5F88430394A3A48A2FB0312CC
:103200009B1A02EB5303C3F30F131946A5F884303E
:1032100004F060FE1D21344807F010F90221334804
:1032200007F00CF92F4804F005FE00231A460E2182
:103230003068C8F8003004F041F802232221264803
:10324000C9F8003007F0FAF8D8F80030132B22DC68
:1032500040F6E44700213068B5F8869004F080F825
:1032600000210446306804F001F8A4B2012107FBF4
:1032700004F4B4FBF0F419484C44A5F8864007F078
:10328000DDF8642005F032FCD8F800300133132B50
:10329000C8F80030DEDDB5F88630114A1148A2FBCF
:1032A00003129B1A02EB5303C3F30F131946A5F83D
:1032B000863004F00FFE1D210D4807F0BFF80221F3
:1032C0000A4807F0BBF80748BDE8F04704F0B2BD74
:1032D000B894FF1F3C93FF1FE4050100280601007E
:1032E00087611886C887FF1F080601002C1001009F
:1032F0002C0601009C94FF1F5087FF1FF8B57B4BE5
:103300007B4C7C4D1B68286D40F2513108222160B6
:10331000E271002B40F0E08008F072FA696906461D
:1033200008F0C2FA744908F0BFFA08F0A9FC80B2AC
:1033300003126372714A724B12681B68A969A37207
:1033400015121B12E372227320726573304608F067
:10335000ABFA694908F0A8FA08F092FC83B21A1295
:1033600063496848A373E27303F0CAFD664B674A7A
:103370001B6812885E49A272DFB207EB870603EB77
:103380008305760045F3D71512121B122772267398
:1033900040F25537082665735A48E2720025637279
:1033A0002760E671A573E57303F0AAFD40F256337A
:1033B00057482360E671FDF7A5FC564908F074FAFA
:1033C00008F05EFC20725248FDF79CFC514908F061
:1033D0006BFA08F055FC504A4E49C0F3072363725C
:1033E000106808F015FB08F025FC40FA06F20346C9
:1033F0004748E272A372FDF7B5FC3F4908F054FA62
:1034000008F03EFC20734248FDF7ACFC3A4908F056
:103410004BFA08F035FC3649A573C0F30723394849
:103420006373E57303F06CFD022005F05FFB3B4B1B
:103430002F49187893F801E09F78DA78207240F2EB
:103440005A333048E67125736573A573E57384F8C4
:1034500009E0A772E272236003F052FD304B244969
:1034600018785D789A782072187993F803E05F797C
:103470006572A2729D79DA79207340F25E33214839
:1034800084F80BE0E2732360E6716773A57303F0C1
:1034900037FD022005F02AFB224BE6711D785A7891
:1034A000D87893F802E01F795E79257262729D796F
:1034B000DA79E0724FF45C730D491248236084F8A6
:1034C0000AE027736673A573E27303F019FD164BC8
:1034D0001B68012B05D0F8BD08F092F9296A064651
:1034E0001EE70B48BDE8F840FDF760BB7492FF1F74
:1034F000D094FF1F3C93FF1F00002041B094FF1F9A
:103500005892FF1F14B5FF1F3487FF1F3887FF1F16
:10351000EC94FF1F0000C8428092FF1F3893FF1FEA
:103520002C87FF1F5487FF1FC094FF1FF0B58A4CE4
:103530008A4D83B006F01CFF23682860042B00F03E
:103540008682022B4BD0082B00F09280072B40F094
:103550002B81332801F0348400F30683312801F0F5
:103560000784322840F08D8006F03EFF002840F3AB
:1035700019817B487B4E04F0F1FD08F041F97A494E
:1035800008F092F961230122F06322602B60184653
:10359000A0F152031F2B01F2DB83DFE813F06C0B69
:1035A000D90BD90BD90BD90BD90BD90BD90BD90BFB
:1035B000D90BD90BD90BD90BD90BD90BA403030DFC
:1035C0002B05C1059704D90BD90BD90B1804D90BBE
:1035D000000DD90BD90BD90BD90BD90B5A0BA0F174
:1035E0003102422A4DD8DFE812F0DA06E606F40688
:1035F00006075507C9064C004C004C004C004C0017
:103600004C004C004C004C004C004C004C004C005A
:103610004C004C004C004C004C004C004C004C004A
:103620004C004C004C004C004C004C004C004C003A
:103630004C004C004C004C004C004C004C004C002A
:103640004C004C004C004C004C004C004C004F0710
:103650004C004C004C004C004C004C004C004C000A
:103660004C004C004C004C004C00C5024C0047077D
:10367000322800F00683712800F07C82312800F0A7
:103680001B83002B08BF73280CBF012000200028DB
:1036900060D0334804F0CEFB0421344806F0CEFE5F
:1036A0002F4804F0C7FB1021314806F0C7FE2C4814
:1036B00004F0C0FB13212F4806F0C0FE2E4B284813
:1036C000196804F007FC264804F0B4FB14212B48C9
:1036D00006F0B4FE224804F0ADFB1E21284806F097
:1036E000ADFE1F4804F0A6FB1521264806F0A6FEF5
:1036F0001B4804F09FFB1E21234806F09FFE18483C
:1037000004F098FB2021214806F098FE144804F0AC
:1037100091FB19211E4806F091FE114804F08AFB26
:1037200012211C4806F08AFE0D4804F083FB0F218D
:10373000194806F083FE0A4804F07CFB0D21174867
:1037400006F07CFE064804F075FB154A00210123B3
:103750001160236003B0F0BD9092FF1F7C92FF1FA9
:10376000C887FF1F3C93FF1F6F12833AA80E01000A
:10377000B00E0100C40E01002487FF1FD80E010007
:10378000F00E0100100F0100280F0100480F01008A
:103790006C0F0100880F01009C0F0100AC0F0100AD
:1037A0003C87FF1F23682868062B40F08D80A0F11E
:1037B0003102402A3FF665AF01A151F822F000BF67
:1037C00083420000AF42000057430000DB4200008C
:1037D000014300001F430000434300008336000004
:1037E00083360000833600008336000083360000F5
:1037F00083360000833600008336000083360000E5
:1038000083360000833600008336000083360000D4
:1038100083360000833600008336000083360000C4
:1038200083360000833600008336000083360000B4
:1038300083360000833600008336000083360000A4
:103840008336000083360000833600008336000094
:103850008336000083360000833600008336000084
:103860008336000083360000833600008336000074
:103870008336000083360000833600008336000064
:103880008336000083360000833600008336000054
:103890008336000083360000833600008336000044
:1038A0008336000083360000833600008336000034
:1038B0008336000083360000833600008336000024
:1038C000753B000023682868052B15D1332801F0CB
:1038D000A08240F35481352801F08582C1F2BB8279
:1038E00071287FF4CEAEB14A0023732013602360A9
:1038F0002860C6E623682868032B40F0A480A0F166
:103900003002422A3FF6BDAE01A151F822F000BFBD
:103910001D3A0000DB4A0000514A0000794A0000CD
:103920009B4A00000B4A0000A34B0000CB4B000059
:10393000E94B00000D4C0000833600008336000088
:103940008336000083360000833600008336000093
:103950008336000083360000833600008336000083
:103960008336000083360000833600008336000073
:103970008336000083360000833600008336000063
:103980008336000083360000833600008336000053
:103990008336000083360000833600008336000043
:1039A0008336000083360000833600008336000033
:1039B0008336000083360000833600008336000023
:1039C0008336000083360000833600008336000013
:1039D00083360000334A0000B5450000354C000036
:1039E000BD4A0000454B0000634B00006B450000E2
:1039F0008F450000833600008336000083360000C8
:103A000083360000833600008336000083360000D2
:103A100083360000034B00000F4B000006F0E4FC6F
:103A2000002841F39E816248624E04F097FB012713
:103A30000346014662226048736527602A60FDF7ED
:103A400063F923682868012B7FF41BAEA0E5A0F181
:103A50003002412A3FF615AE01A151F822F000BF15
:103A600053450000B5440000CD440000D14400009F
:103A7000F74400001D4500004145000039450000A5
:103A80003D450000FB440000833600008336000003
:103A90008336000083360000833600008336000042
:103AA0008336000083360000833600008336000032
:103AB0008336000083360000833600008336000022
:103AC0008336000083360000833600008336000012
:103AD0008336000083360000833600008336000002
:103AE00083360000833600008336000083360000F2
:103AF00083360000833600008336000083360000E2
:103B000083360000833600008336000083360000D1
:103B100083360000833600008336000083360000C1
:103B200083360000833600008336000083360000B1
:103B300083360000833600008336000083360000A1
:103B40008336000083360000833600008336000091
:103B50008336000083360000833600008336000081
:103B600083360000753B0000342801F0178171286E
:103B70007FF487AD002373202360286081E531281E
:103B800001F0588132287FF47CAD06F02DFC00282E
:103B90007FF7B0AE0648074E04F0E0FA01226B232F
:103BA000C6F8980022602B600AE000BF9494FF1FC3
:103BB000C887FF1F3C93FF1FEC94FF1F06F0D8FB44
:103BC00006F012FC0028F9D1A64804F033F9A54804
:103BD00004F030F9A34804F02DF9A24804F02AF9C2
:103BE000A04804F027F921219F4806F027FC9D48B2
:103BF00004F020F915219D4806F020FCD6F890101D
:103C0000984804F067F90221994806F017FC954896
:103C100004F010F91E21974806F010FCD6F8981011
:103C2000904804F057F90321934806F007FC8D48AB
:103C300004F000F91E21914806F000FCD6F894101B
:103C4000884804F047F9874804F0F4F81D218C48AF
:103C500006F0F4FBD6F8A010824804F03BF9814846
:103C600004F0E8F81E21874806F0E8FBD6F8A41017
:103C70007C4804F02FF97B4804F0DCF8052323602E
:103C800068E506F0B1FB002840F3F38275487E4EEC
:103C900004F064FA07F0B4FD7C4907F005FE96F8DD
:103CA0004010034602467A487364FDF72FF801235B
:103CB0006920236028606BE406F096FB002840F33F
:103CC000DC826848704E04F049FAC0B286F84000C1
:103CD00002288ABF0021014686F84010726C6C48A9
:103CE000E3E706F045FB06F07FFB05460028F8D128
:103CF0005C48654E04F09EF85A4804F09BF8594819
:103D000004F098F8574804F095F8564804F092F8F3
:103D10001F21604806F092FB524804F08BF81C21EA
:103D20005D4806F08BFB706A5C4907F0BDFD07F04B
:103D300011F9009502460B464A4804F0D5F80221D5
:103D4000574806F07BFB474804F074F82321554898
:103D500006F074FBF06B514907F0A6FD07F0FAF886
:103D6000009502460B463F4804F0BEF802214C483D
:103D700006F064FB3B4804F05DF819214A4806F060
:103D80005DFBB06B07F0E6F802250B460246009596
:103D9000344804F0A9F82946444806F04FFB31485E
:103DA00004F048F81921424806F048FBB6F8B41070
:103DB0002C4804F08FF803213E4806F03FFB2948C9
:103DC00004F038F807232360C4E406F0D1FA06F0C3
:103DD0000BFB05460028F8D122482B4E04F02AF8A8
:103DE000204804F027F81F4804F024F81D4804F088
:103DF00021F81C4804F01EF815212F4806F01EFB80
:103E0000184804F017F818212C4806F017FB2B4629
:103E10000A2296F84010134804F01CF8114804F0E8
:103E200009F82821264806F009FB706C1B4907F0A9
:103E30003BFD07F08FF800950B460246094804F059
:103E400053F80221164806F0F9FA064803F0F2FF8B
:103E500013211C4806F0F2FA024803F0EBFF082396
:103E6000236077E4C887FF1FDC0801000009010018
:103E7000EC070100180901001005010038090100D4
:103E800058090100780901003C93FF1F6F12833A23
:103E9000EC94FF1F380801005808010000007A4424
:103EA000C4060100780801009C080100B808010060
:103EB000BC080100D8080100700F01007C06010059
:103EC00098060100C806010006F052FA06F08CFAC6
:103ED00005460028F8D17D487D4E03F0ABFF7B48B6
:103EE00003F0A8FF794803F0A5FF784803F0A2FF8C
:103EF000764803F09FFF1121764806F09FFA734839
:103F000003F098FF2821744806F098FA7069734905
:103F100007F0CAFC07F01EF8009502460B466B48F6
:103F200003F0E2FF02216E4806F088FA674803F0CA
:103F300081FF16216B4806F081FAF069674907F0A6
:103F4000B3FC07F007F800950B4602465F4803F004
:103F5000CBFF0221624806F071FA5C4803F06AFF69
:103F6000D6F8AC30002B32DD1D215F4806F066FA32
:103F7000F06D07F045FC5D4907F096FC06F0EAFF9E
:103F8000022502460B460095504803F0ADFF012183
:103F9000574806F053FA4D4803F04CFF1F2155488F
:103FA00006F04CFA306E07F02BFC504907F07CFC11
:103FB00006F0D0FF009502460B46444803F094FFFC
:103FC00001214B4806F03AFA404803F033FF112133
:103FD000494806F033FAD6F8AC30052B00F2688673
:103FE000DFE813F0AC06B106A706A2069D0662063E
:103FF00006F0BEF906F0F8F90028F9D13348344E3E
:1040000003F018FF314803F015FF304803F012FFAA
:104010002E4803F00FFF2D4803F00CFF1F213748F7
:1040200006F00CFA294803F005FF1E21344806F07B
:1040300005FA264803F0FEFE1A21324806F0FEF982
:10404000F36F022B00F06D87032B00F06187012BCB
:1040500000F0558709212C4806F0F0F91B4803F0C1
:10406000E9FE142129481A4F06F0E8F9B16F174804
:1040700003F030FF154803F0DDFE1C21244806F054
:10408000DDF9D6F88010114803F024FF0F4803F043
:10409000D1FE1C211F4806F0D1F9D6F8A8100B4814
:1040A00003F018FF094803F0C5FEF56F25F002057F
:1040B000012D00F0F4861321174806F0BFF90348DC
:1040C00003F0B8FE02232360FFF744BBC887FF1F3D
:1040D0003C93FF1F140F0100DC06010000007A442E
:1040E000C40601000807010020070100CDCCCC3D2B
:1040F000FC0B01004007010060070100BC0A010041
:10410000DC0A0100FC0A0100740B0100800B0100B5
:10411000980B0100B80B0100C806010006F028F951
:1041200006F062F90028F9D1BA48BB4D03F082FECF
:10413000B84803F07FFEB74803F07CFEB54803F0B3
:1041400079FEB44803F076FE1321B44806F076F900
:10415000B04803F06FFE0D21B14806F06FF9AD488D
:1041600003F068FE0F21AF4806F068F9AE4BA9488E
:10417000196803F0AFFEA74803F05CFE1321AB48BB
:1041800006F05CF9AA4BA348196803F0A3FEA14806
:1041900003F050FE1221A74806F050F9A64B9D48A7
:1041A000196803F097FE9B4803F044FE1121A348D1
:1041B00006F044F9A24B9748196803F08BFE954826
:1041C00003F038FE0E219F4806F038F9D5F89C1010
:1041D000904803F07FFE8F4803F02CFE19219A4887
:1041E00006F02CF9994B8B48196803F073FE894847
:1041F00003F020FE1121964806F020F9954B8548E2
:10420000196803F067FE834803F014FE10219248FA
:1042100006F014F9914B7F48196803F05BFE7D4866
:1042200003F008FE1C218E4806F008F98D4B7948F2
:10423000196803F04FFE774803F0FCFD1E218A4801
:1042400006F0FCF895F8BD30002B00F017860D2124
:10425000864806F0F3F86F4803F0ECFD132184481C
:1042600006F0ECF86B4803F0E5FD04232360FFF74C
:1042700071BA23682868FFF769B9674E96F840005D
:1042800026E506F0B1F800287FF71CAB6148624EC6
:1042900003F064FF07F0B4FA764907F0B9FB652331
:1042A0000122706122602B601846FFF771B906F099
:1042B0009BF800287FF706AB5648574E03F04EFF99
:1042C00007F09EFA6B4907F0A3FB65230122F0611A
:1042D00022602B601846FFF75BB906F085F80028CE
:1042E0007FF7F0AA4B484C4E03F038FF00EB8000FC
:1042F000430001226520336622602860FFF748B939
:10430000454AD2F8AC300133052BC8BF0023C2F8B0
:10431000AC300123652023602860FFF739B906F02F
:1043200063F800287FF7CEAA3A483B4E03F016FF09
:1043300065230122C6F8B00022602B601846FFF703
:1043400027B9354B93F8BC20002A00F09285002253
:1043500083F8BC20DDE706F047F800287FF7B2AA13
:104360002C482D4E03F0FAFE00EB800043000122A2
:104370006520F36522602860FFF70AB901232360F6
:1043800006F032F8002805DD2248234E03F0E6FE51
:10439000A6F8B600632028602368FFF7D7B81E4E42
:1043A000B36FB3FA83F35B0901226320B367226022
:1043B0002860FFF7EDB8184ED6F88030B3FA83F3D3
:1043C0005B0901226320C6F8803022602860FFF775
:1043D000DFB80123236006F007F8002805DD0D484B
:1043E0000D4E03F0BBFEC6F8A80001236320236036
:1043F0002860FFF7CDB80123236005F0F5FF002802
:10440000C8DD0448044E03F0A9FE07F0F9F9C6F828
:104410008C00BFE7C887FF1F3C93FF1F980901006E
:10442000AC090100BC0901007494FF1FCC09010014
:10443000E494FF1FE0090100C894FF1FF409010084
:10444000CC94FF1F080A0100180A01009894FF1F6E
:10445000340A01009494FF1F480A01007892FF1F5C
:104460005C0A01005C87FF1F7C0A01009C0A0100B6
:10447000C806010000007A44564AD36F0133032B6B
:10448000C8BF0023D367B0E7FEF776FE236828682D
:10449000FFF759B80123236005F0A6FF00287FF736
:1044A00079AF4D484B4E03F059FE07F0A9F9C6F815
:1044B00088006FE7494A1368B3FA83F35B09012167
:1044C0006420136021602860FFF762B8444AF2E775
:1044D000444A454F1368002B0CBF012300234FF0C3
:1044E00001001360206040F02585034664222A60A5
:1044F0006420FFF728B83D4ADDE70123236005F07B
:1045000073FF002800F3C384394B1A68042AC4BF20
:1045100002221A6064232B602368E9E72D4ED6F847
:104520009C30B3FA83F35B0901226420C6F89C3007
:1045300022602860FFF72CB82E4ABCE72E4ABAE763
:1045400001232E482360FCF76DFA2D4A2368106082
:10455000CCE7204E96F8BD3001225340642086F807
:10456000BD3022602860FFF713B805F03DFF00283A
:104570000DDD1948174E03F0F1FD07F041F921490F
:1045800007F046FA01226223306222602B6005F0B8
:104590002BFF00280EDD10480E4E03F0DFFD07F064
:1045A0002FF9184907F034FA01226223C6F8B8003F
:1045B00022602B6005F018FF002840F3D2830648E4
:1045C000044E03F0CBFD01226223B06622602B6013
:1045D0001CE000BF3C93FF1FC887FF1F7494FF1FA0
:1045E000E494FF1FC894FF1F9092FF1FCC94FF1FFD
:1045F0005C87FF1F9494FF1F7892FF1FEC94FF1FAE
:104600009894FF1F00007A4405F0B2FE05F0ECFE1E
:1046100005460028F8D1C24803F00CFCC04803F05E
:1046200009FCBF4803F006FCBD4803F003FCBC488E
:1046300003F000FC1521BB4805F000FFB84803F06B
:10464000F9FB1421B84805F0F9FEB54803F0F2FB78
:104650001B21B64805F0F2FEB14803F0EBFB132135
:10466000B34805F0EBFEAE4803F0E4FBAC4803F0C2
:10467000E1FBAB4803F0DEFB2021AE4805F0DEFE97
:10468000F068AD4907F010F906F064FC00950246A9
:104690000B46A34803F028FC0221A84805F0CEFEF3
:1046A0000221A74805F0CAFE9D4803F0C3FB212163
:1046B000A44805F0C3FE30699F4907F0F5F806F0FD
:1046C00049FC009502460B46954803F00DFC02217B
:1046D0009A4805F0B3FE0221994805F0AFFE9048D4
:1046E00003F0A8FB1F21984805F0A8FEB06A06F069
:1046F00031FC022702460B460097894803F0F4FB81
:104700000121924805F09AFE39468D4805F096FE43
:10471000834803F08FFB20218D4805F08FFEF06A5F
:1047200006F018FC009702460B467D4803F0DCFBC0
:104730000121864805F082FE3946814805F07EFE5B
:10474000774803F077FB2321824805F077FEB06CB1
:10475000794907F0A9F806F0FDFB009502460B46E3
:104760006F4803F0C1FB3946744805F067FE3946CF
:10477000734805F063FE6A4803F05CFB1F2176482E
:1047800005F05CFEF06C6C4907F08EF806F0E2FB79
:10479000009502460B46624803F0A6FB394667487F
:1047A00005F04CFE3946664805F048FE5C4803F0CB
:1047B00041FB1921694805F041FEB16D584803F0ED
:1047C00089FB3946664805F039FE39465C4805F0F4
:1047D00035FE534803F02EFB1821624805F02EFEEB
:1047E000706E07F00DF8604907F05EF806F0B2FB56
:1047F000009702460B464A4803F076FB01215B48CE
:1048000005F01CFE39464E4805F018FE444803F0FA
:1048100011FB2B21564805F011FEB069464907F0FF
:1048200043F806F097FB009502460B463C4803F020
:104830005BFB3946414805F001FE3946404805F02A
:10484000FDFD374803F0F6FA1F214A4805F0F6FD52
:10485000716D334803F03EFB3946394805F0EEFDF3
:104860002F4803F0E7FA2021434805F0E7FD316DBA
:104870002B4803F02FFB3946314805F0DFFD28486F
:1048800003F0D8FA10213D4805F0D8FDB16E244858
:1048900003F020FB3946294805F0D0FD3946284869
:1048A00005F0CCFD1E4803F0C5FA1321344805F08D
:1048B000C5FDF16E1A4803F00DFB0121314805F0EA
:1048C000BDFD39461E4805F0B9FD154803F0B2FAA2
:1048D00010212D4805F0B2FD316F114803F0FAFAAE
:1048E0003946164805F0AAFD3946154805F0A6FDDB
:1048F0000B4803F09FFA1421244805F09FFD716FC7
:10490000074803F0E7FA01211E4805F097FD3946F4
:104910000B4805F093FD024803F08CFA162137E0AE
:10492000C887FF1F440C01005C0C0100740C0100DF
:10493000C8060100900C010000007A44C406010082
:104940002C100100B40C0100D80C0100F80C01007F
:10495000FC0C0100200D0100440D0100640D01005C
:10496000800D0100840D0100CDCCCC3DFC0B01007D
:10497000A00D0100CC0D0100EC0D0100100E010096
:10498000240E0100380E01003C0E0100500E010003
:10499000BA4805F053FD306AB94906F085FF06F0C4
:1049A000D9FA009502460B46B64803F09DFA3946FF
:1049B000B54805F043FD3946B44805F03FFDB14820
:1049C00003F038FA2421B24805F038FDD6F8B800D3
:1049D000AB4906F069FF06F0BDFA00950B460246AA
:1049E000A84803F081FA3946A74805F027FD394663
:1049F000A64805F023FDA34803F01CFAA14803F0E4
:104A000019FA03232360FEF7A5BE05F0EDFC00288C
:104A100040F3A7819B489F4E03F0A0FB06F0F0FEF9
:104A2000974906F0F5FF01226223B06422602B60F3
:104A3000ECE505F0D9FC002840F393819148954EB0
:104A400003F08CFB01226223306522602B60DDE5E0
:104A500005F0CAFC002840F384818A488D4E03F09B
:104A60007DFB06F0CDFE864906F0D2FF01226223CF
:104A7000306122602B60C9E505F0B6FC002840F3E8
:104A800070818048834E03F069FB06F0B9FE012275
:104A90006223B06222602B60B8E505F0A5FC002817
:104AA00040F35F8177487B4E03F058FB06F0A8FE89
:104AB00001226223F06222602B60A7E505F094FCDE
:104AC000002840F34E816F48724E03F047FB0122ED
:104AD0006223306722602B6098E505F085FC002892
:104AE00040F33F8167486B4E03F038FB06F088FEC9
:104AF000634906F08DFF01226223F06022602B6083
:104B000084E50022732322602B60FEF7C2BD624B56
:104B10005E48604E002202211A6005F08FFC594861
:104B200003F088F90B215D4805F088FC0221574805
:104B300005F084FC534803F07DF9012262232260D2
:104B40002B6063E505F050FC002840F30A814D48D6
:104B5000504E03F003FB01226223706722602B603A
:104B600054E5FCF7A1FF022148484A4E05F066FCD7
:104B7000444803F05FF90221444805F05FFC4148D6
:104B800003F058F90221414805F058FC3D4803F074
:104B900051F91721424805F051FC3A4803F04AF90F
:104BA000C4E705F021FC002840F3DB803548394E8E
:104BB00003F0D4FA06F024FE314906F029FF012261
:104BC0006223F06422602B6020E505F00DFC0028D4
:104BD00040F3C7802B482F4E03F0C0FA0122622316
:104BE000B06522602B6011E505F0FEFB002840F364
:104BF000B8802448274E03F0B1FA00EB8000430050
:104C000001216222736621602A60FFE405F0ECFB5B
:104C1000002840F3A6801B481E4E03F09FFA06F0C2
:104C2000EFFD174906F0F4FE01226223B061226015
:104C30002B60EBE405F0D8FB002840F3928011488C
:104C4000144E03F08BFA01226223F06622602B607F
:104C5000DCE4C02200210F4803F074FB2868114AED
:104C6000A0F1730001210023B0FA80F04009116027
:104C70002360FEF70CBD04F049FD00BF680E010083
:104C800000007A44C887FF1FC40601002C100100F1
:104C9000800E01003C93FF1F6C92FF1F7006010005
:104CA000580601003C87FF1F0B21C04805F0C6FBDA
:104CB000BF48C04D03F0BEF8D6F8AC30002B12DD73
:104CC0001821BD4805F0BAFBD5F8B010B84803F07C
:104CD00001F90221B94805F0B1FBB54803F0AAF883
:104CE000B34803F0A7F81B21B54805F0A7FB96F8D9
:104CF000BC30012B15BF12211421B248B24805F077
:104D00009DFBAB4803F096F81321B04805F096FBE5
:104D1000A74803F08FF806232360FEF71BBD0D2183
:104D2000AB4805F08BFBC3E70D21AA4805F086FBD5
:104D3000BEE70C21A84805F081FBB9E70D21A74883
:104D400005F07CFBB4E70C21A54805F077FBAFE745
:104D50002368002B08BF73280CBF01200020FEF73A
:104D600096BC23682868012B7EF48BACFEF710BC40
:104D700005F03AFB00287EF715AD8D488D4E03F007
:104D8000EDF906F03DFD974906F08EFD6123012205
:104D9000706222602B601846FEF7FABB05F024FB18
:104DA00000287EF7FFAC8248824E03F0D7F96123DA
:104DB0000122A6F8B40022602B601846FEF7E8BB7B
:104DC00005F012FB00287EF7EDAC7948794E03F030
:104DD000C5F906F015FD61230122B06322602B6046
:104DE0001846FEF7D5BB05F0FFFA00287EF782AD26
:104DF0006F48704E03F0B2F97B4BC6F8A400032253
:104E00001A60FDF799F901226B2322602B60FEF7EF
:104E1000D7BE05F0E9FA00287EF76CAD6448654E10
:104E200003F09CF901226B23C6F8940022602B60EA
:104E3000FEF7C6BE05F0D8FA00287EF75BAD5C48E9
:104E40005C4E03F08BF901226B23C6F890002260C0
:104E50002B60FEF7B5BE05F0C7FA00287EF74AAD15
:104E60005348544E03F07AF95F4BC6F8A000022273
:104E7000C6E7012283F8BC20FFF74BBA0E215B483E
:104E800005F0DCFA4A4802F0D5FFFFF7E7B94848D9
:104E900003F064F9564B02461860FFF737BB1C213C
:104EA000544805F0CBFAD7F88C00534906F0FCFCC7
:104EB00006F050F8009502460B463D4803F014F802
:104EC00005214E4805F0BAFA394802F0B3FFFD6FEC
:104ED000012D45D0032D7FF4EEA81C21484805F094
:104EE000ADFAB6F8B610324802F0F4FF0321454897
:104EF00005F0A4FA2E4802F09DFFFFF7DCB81E2152
:104F0000414805F09BFA2A4802F094FFFFF7A9B840
:104F100020213E4805F092FA254802F08BFFFFF76A
:104F2000A0B817213A4805F089FA214802F082FF1B
:104F3000FFF797B8374B002631460B201E6003F071
:104F400099FD31460C2003F095FD3146142003F005
:104F500091FD3146152003F08DFD3B68FFF7C6BA81
:104F60001D212D4805F06AFAD7F88800224906F07D
:104F70009BFC05F0EFFF00950B4602460C4802F043
:104F8000B3FF05211D4805F059FA094802F052FF08
:104F9000FB6F23F00203012B9FD0FFF78CB8054E67
:104FA000FEF70EBE034EFFF731BB00BFC407010082
:104FB000C887FF1F3C93FF1FD0070100EC070100CB
:104FC000F00701000C08010020080100C8060100DC
:104FD000B4070100A4070100940701007407010051
:104FE000840701006F12833A9494FF1FAC0A0100FA
:104FF0005C87FF1FD80B0100CDCCCC3DF80B010026
:10500000200C0100400C0100180B0100380B0100BE
:105010005C0B0100E094FF1F000C010038B5164C3A
:10502000164A2368101D12F8011F904241EA03231B
:10503000F9D12360124C03F100432360114BDB6F65
:10504000022B11D0104B1B68012B00D038BD0F482C
:1050500002F0F0FE21680D4802F03CFF03210C48ED
:10506000BDE8384005F0EAB920680A4D06F0C8FBF3
:105070002860FDF723FBE5E75092FF1F8B94FF1F8D
:10508000AC94FF1F3C93FF1F7494FF1FC887FF1F42
:10509000BC0F01007092FF1F30B53C4C3C4883B000
:1050A000214601F025FE236840F2C232934252D0DD
:1050B000A3F58C621F2A48D9A3F5FC630F2B3FD9B7
:1050C000344B1B68012B01D003B030BD324B1B6841
:1050D000012BF9D1314B32481B6801930A2200237E
:1050E000019902F0B7FE2268284B002ADB7945DBE4
:1050F0002C492D4807F0A0FB2B4807F0E1FB0146A7
:10510000294805F09BF92568204B15F0804526D1EC
:10511000DB798BB1631925491A7A234807F08CFB98
:10512000214807F0CDFB01461F4805F087F90135FE
:10513000E379EDB2AB42EDD8194802F07BFEC3E74C
:1051400012491B48FBF798FCBAE710491848FBF7CF
:1051500093FC2368B0E7FFF761FF2368A8E7154DCC
:10516000114C0FCD0FC495E8030044F8040B204602
:1051700020F81419152105F061F9DDE70E490A48F8
:1051800022F0604207F058FBB6E700BF8494FF1F8F
:1051900014B5FF1F3C87FF1F7494FF1FD8B6FF1F75
:1051A000C887FF1FE80F01009492FF1F1410010031
:1051B000EC94FF1FFC0F0100C00F01002DE9F84F18
:1051C0009A4B9B4C1B78052B08D09A48FBF7CAFDDD
:1051D000E16A06F007FD002800F09380964E974D97
:1051E000002333602B60964B92481B68904F012B35
:1051F00045D0FBF761FDE1698046606906F04AFA37
:105200000146404606F00CFD00284CD18948FBF7CA
:1052100053FDE16806F004FD08B100232B608548CA
:10522000834FFBF79BFC216906F0DCFC58B100239F
:1052300033602B68814A002B01DBBDE8F88F002327
:105240001360BDE8F88F7B48FBF788FCB96906F06E
:10525000C9FC0028EBD17748FBF780FCD7F8B810E1
:105260000446B86906F018FA0146204606F0D8FC54
:10527000002873D0786E30600028D8DBD9E7FBF7C0
:105280001BFDE1698046206A06F004FA01464046AB
:1052900006F0C6FC0028B9D06648FBF70DFDD7F82C
:1052A0002090834605E06348FBF706FDD7F814908D
:1052B0008346F969484606F0EDF98246F86D06F036
:1052C0009FFA8046386E06F09BFA414606F0E2F9F6
:1052D00051460746584606F0DDF90146384606F0C5
:1052E000E3FA51460746484606F0D4F901463846E7
:1052F00006F08EFB414606F0CFF906F09BFC2860D5
:1053000084E74C48FBF72EFD216B06F06BFC002870
:1053100049D0494E636E47483360FBF723FD814611
:10532000E06DE76A454D06F06BFA3946804648461F
:1053300006F0B0F90146404606F0B6FA3946804616
:10534000206B06F0A7F90146404606F061FB0021FC
:1053500006F0A2F906F06EFC286044E73548FBF73A
:10536000FDFB8146F86DBC6906F04AFA214680468D
:10537000484606F08FF90146404606F095FAD7F800
:10538000B8108046204606F087F9214606F082F9DB
:105390000146404606F03CFB002106F07DF906F090
:1053A00049FC306068E72348FBF7DCFC616B06F0E2
:1053B00019FC30B1204E214D626EE36D32602B60DE
:1053C00011E71C48FBF7CEFCA16A06F00BFC002895
:1053D0003FF404AF1748184E184DFBF7C3FC814645
:1053E000606ED4F8348006F00BFA41460746484612
:1053F00006F050F939468146002006F04BF9014687
:10540000484606F051FA41468146A06A06F042F944
:105410000146484606F0FCFA394606F03DF906F02A
:1054200009FCE36D30602B60DDE600BFA494FF1F34
:105430003C93FF1FEC94FF1FB094FF1F5892FF1F77
:105440007492FF1F08B5274802F0F4FC0721264894
:1054500004F0F4FF112003F013FB0621F8B12348F8
:1054600004F0ECFF122003F00BFB062100B32048F0
:1054700004F0E4FF122003F003FB062108B31D48EB
:1054800004F0DCFF132003F0FBFA062110BB1A48DE
:1054900004F0D4FF1348BDE8084002F0CBBC174825
:1054A00004F0CCFF122003F0EBFA06210028DED135
:1054B000134804F0C3FF122003F0E2FA062100288B
:1054C000DDD1104804F0BAFF132003F0D9FA062109
:1054D0000028DCD00C4804F0B1FF0248BDE80840C9
:1054E00002F0A8BCC887FF1F20100100281001008F
:1054F0003810010048100100601001003010010058
:1055000040100100501001005810010010B5254C4A
:105510002368042B27DC01210B2003F0ABFA0121C7
:105520000C2003F0A7FA0121142003F0A3FA0121B3
:10553000152003F09FFAFF21162003F01BF9FF212D
:10554000172003F017F9FF21052003F013F9FF21BD
:10555000062003F00FF9236801330A2B2360C4BF30
:105560000023236010BD00210B2003F083FA0021EB
:105570000C2003F07FFA0021142003F07BFA0021B5
:10558000152003F077FA0021162003F0F3F800212C
:10559000172003F0EFF80021052003F0EBF80021BD
:1055A000D6E700BFC494FF1F30B59F4C94F8BD50A0
:1055B00083B0002D00F0148109219C4803F076FD92
:1055C000222003F01BFD9A4B1B78052B0BD8DFE83C
:1055D00013F057025C0261024D02520206000721DD
:1055E000944803F063FD222003F008FDFF2003F040
:1055F00005FDFF2003F002FD8F4CFF2003F0FEFCB1
:1056000008218E4803F052FD21688D4802F062FCAB
:10561000FF2003F0F3FCFF2003F0F0FCFF2003F079
:10562000EDFC0921874803F041FD2168844802F020
:1056300051FCFF2003F0E2FCFF2003F0DFFCFF2021
:1056400003F0DCFC0C21804803F030FD7F4B1C682C
:105650000021204606F0E4FA002800F004822046EB
:105660007B4906F0D5F905F075FC002402460B468F
:105670000094734802F038FCFF2003F0BFFCFF20C9
:1056800003F0BCFCFF2003F0B9FC0921714803F0D2
:105690000DFD7148FBF766FB05F05CFC00940246CB
:1056A0000B46674802F020FCFF2003F0A7FCFF2018
:1056B00003F0A4FCFF2003F0A1FC0C21674803F0D9
:1056C000F5FC6548FBF7AEFB05F044FC0094024690
:1056D0000B465B4802F008FCFF2003F08FFCFF2024
:1056E00003F08CFCFF2003F089FC0D215C4803F0E3
:1056F000DDFC5948FBF794FB05F02CFC00940246B6
:105700000B464F4802F0F0FBFF2003F077FCFF2030
:1057100003F074FCFF2003F071FC0921514803F0F1
:10572000C5FC4D48FBF7EEFA05F014FC0094024668
:105730000B46434802F0D8FBFF2003F05FFCFF203C
:1057400003F05CFCFF2003F059FC0C21464803F0F9
:10575000ADFC4148FBF702FA3D4906F0A5F805F01B
:10576000F9FB009402460B46354802F0BDFBFF20D2
:1057700003F044FCFF2003F041FCFF2003F03EFC5B
:105780000D213A4803F092FC3348FBF795FA304973
:1057900006F08AF805F0DEFB009402460B46284826
:1057A00002F0A2FBFF2003F029FCFF2003F026FCFF
:1057B000FF2003F023FC09212D4803F077FC2D4B3B
:1057C0001F48196802F086FBFF2003F017FCFF203A
:1057D00003F014FCFF2003B0BDE8304003F00EBC22
:1057E000174802F027FB164802F024FB144802F089
:1057F00021FB0D21204803F059FCD4F89C30012BEB
:105800003CD00B4C0E4821782B460A2202F022FB9A
:105810002378052B00F28880DFE813F05A01550148
:1058200050014B01460141013C93FF1F68100100EC
:10583000A494FF1F940401003487FF1F741001001B
:10584000AC87FF1F801001008C1001008092FF1FA9
:1058500000007A449C100100EC94FF1FA810010086
:10586000B8100100C8100100D4100100E4100100BC
:10587000F41001002487FF1FC40301000921B6486A
:1058800003F014FCB548FBF769F9216906F0AAF9A1
:10589000002840F04581B148FBF70EFAE16806F0B8
:1058A000BFF9002840F03781AC48FBF705FA054600
:1058B000AA48FBF753F90146284605F0EBFEE16BD9
:1058C00006F0AEF9002840F02181A448FBF74AFA1F
:1058D000A16A06F0A5F9002840F013819F48FBF764
:1058E00041FAE16A06F07EF9002840F005819C4B00
:1058F0009A481B68012B00F01881FBF72FF92169EA
:10590000984D06F08DF978B19448FBF7D5F9E96820
:1059100006F068F940B1944B1B78052B00F0168116
:105920000821924803F0C2FB0221914803F0BEFB1C
:10593000122003F0A5F8012800F0CF80112003F019
:105940009FF8012800F0D3808A4B1B68012B00F0E0
:10595000C98002218648884C03F0A8FB874B884801
:10596000196802F0B7FA864802F064FA0421854803
:1059700003F09CFB0B2003F083F8002301460A226E
:105980007F4802F067FA0C2003F07AF80023014602
:105990000A227B4802F05EFA142003F071F800231B
:1059A00001460A22764802F055FA152003F068F8FD
:1059B0000A2200230146724802F04CFA724806217E
:1059C00003F074FB2368DD074CBF70487048012169
:1059D00003F06CFB236898074CBF6C486C480121AE
:1059E00003F064FB23685A074CBF684868480121EC
:1059F00003F05CFB23681B074CBF6448644801212B
:105A000003F054FB0421634803F050FB112003F022
:105A100037F8002301460A22594802F01BFA1020E9
:105A200003F02EF8002301460A22554802F012FA2C
:105A3000122003F025F8002301460A22504802F004
:105A400009FA132003F01CF8002301460A224C48EF
:105A500002F000FA504B41481968012203B0BDE83A
:105A60003040FBF709BA04F10040F9E508214B4842
:105A700003F01CFBB7E50B21494803F017FBB2E527
:105A80000621484803F012FBADE50721464803F024
:105A90000DFBA8E50721454803F008FBA3E5072116
:105AA000434803F003FB3FE70B213D4803F0FEFAB8
:105AB0003AE70821394803F0F9FA35E707213B486E
:105AC00003F0F4FA30E70721374803F0EFFA2BE749
:105AD0000621344803F0EAFA26E70E21354803F0A0
