:1000000000800020BD0100007185000029850000EE
:100010002985000029850000298500002985000028
:1000200029850000298500002985000071850000D0
:100030007185000029850000EDA90000F1AA0000EB
:1000400071850000718500007185000071850000D8
:1000500071850000718500007185000071850000C8
:1000600071850000718500007185000071850000B8
:1000700071850000718500007185000071850000A8
:100080007185000071850000718500007185000098
:100090007185000071850000718500007185000088
:1000A0007185000071850000718500007185000078
:1000B00071850000017800000D78000011780000C3
:1000C0001D7800002178000025780000718500006F
:1000D0007185000071850000718500007185000048
:1000E0007185000071850000718500007185000038
:1000F0007185000045B30000718500001192000079
:1001000071850000959700007185000071850000E1
:100110007185000071850000718500007185000007
:1001200071850000718500007185000071850000F7
:1001300071850000718500007185000071850000E7
:1001400071850000718500007185000071850000D7
:1001500071850000718500007185000071850000C7
:1001600071850000219A00007185000071850000F2
:1001700071850000718500007185000071850000A7
:100180007185000071850000718500007185000097
:100190007185000071850000718500007185000087
:1001A0007185000071850000718500007185000077
:1001B000718500007185000071850000564B4CF27E
:1001C000205210B51A804DF628121A8000BF00BFC9
:1001D00008F0D2F9514B4FF010621A60504A9A6001
:1001E000504ADA60504A136813F4807304D14F49BF
:1001F0000B604FF4A85313604D4B1A78110703D5C9
:100200001A7842F008021A704A4B4B492A221A7097
:100210004A4A4B4B8B4204D252F8040F43F8040B6A
:10022000F8E7484B484900228B4202D243F8042B9E
:10023000FAE74649464A002352F8230041F82300D2
:1002400001336F2BF8D1434B434A802103F8011B44
:100250009342FBD1414B3D4A1A60414B8A221A70AE
:10026000A3F5805324225A70A0221A709A7992071B
:10027000FCD59A79D406FCD43A4A937903F00C035E
:10028000082B384BF9D103221A7140225A719A79FE
:100290009006FCD5334A9179324B4906FBD5324A58
:1002A000324911600221516020221A709A7902F0BD
:1002B0000C020C2AFAD12E4B2E4A1A602E4B2F4AD2
:1002C0001A6000225A60072243F8042C2C4AC3F813
:1002D0000C2D62B608F006FC144B1B68DA0705D536
:1002E000284808F0E3F9284B284A1A60284B1B7865
:1002F0005B0609D5244C254B22689A4204D121483B
:1003000008F0D4F9002323600CF000FB08F03AF960
:100310000AF0D8FEFEE700BF0E2005403080044002
:10032000823F04000100002B10D0034014D0034092
:1003300002D0074000E007403892FF1FA4260100CA
:100340002087FF1F3892FF1F4CBAFF1F0082FF1F3C
:100350000000000000E400E05FE400E008ED00E0E1
:100360000050064000400640448004400000030165
:1003700004800440C010050014E000E0FF76010096
:1003800000002020EFF6D75E1CE00340A5C3945A7E
:1003900000F00740FFFFFFFFFFFFFFFFFFFFFFFF32
:1003A000FFFFFFFFFFFFFFFFFFFFFFFFFFFFFFFF5D
:1003B000FFFFFFFFFFFFFFFFFFFFFFFFFFFFFFFF4D
:1003C000FFFFFFFFFFFFFFFFFFFFFFFFFFFFFFFF3D
:1003D000FFFFFFFFFFFFFFFFFFFFFFFFFFFFFFFF2D
:1003E000FFFFFFFFFFFFFFFFFFFFFFFFFFFFFFFF1D
:1003F000FFFFFFFFFFFFFFFFFFFFFFFFFFFFFFFF0D
:10040000FFFFFFFFFFFFFFFFFFFFFFFFDEF9FFFF23
:1004100010B5054C237833B9044B13B10448AFF33E
:1004200000800123237010BD3892FF1F00000000E0
:10043000A0260100084B10B51BB108490848AFF3CE
:1004400000800848036803B910BD074B002BFBD0A0
:10045000BDE81040184700BF000000003C92FF1F9D
:10046000A02601003892FF1F00000000F0B4154FD5
:100470000024031F00F1800100F5827200F17C0668
:1004800043F8044FB34241F8047F4FF0000542F8AF
:10049000044FF5D100230C4A0C49C0F88C51C0F828
:1004A0009051C0F8B051C0F8A421C0F8AC21C0F8F8
:1004B000A81180F8B83180F8B93180F8D031F0BC9B
:1004C000704700BF0000A040000048430000C8C2C1
:1004D00038B590F8D0310B2B0546144607D8702953
:1004E00066D0E02931D0602900F09B8038BD7029AA
:1004F0003AD0E02929D06029F8D1137A507A1B022A
:1005000003F47063181805D00BF09AFF63490BF0E1
:10051000EBFF6860A37AE07A1B0203F4706318189B
:1005200005D00BF08DFF5D490BF0DEFFA860237B4B
:10053000607B1B0203F470631818D7D00BF080FFA8
:1005400056490BF0D1FFE86038BDE37BA07B03EB9D
:1005500000200BF075FF52490BF0C6FF51490BF01C
:10056000BBFEC5F8900138BD137A507A1B0203F424
:10057000FE43181805D00BF063FF48490BF0B4FF99
:100580006861A07AE37A13EB002005D00BF058FFE6
:1005900042490BF0A9FFA861207B637B13EB00208D
:1005A000A4D00BF04DFF3D490BF09EFFE86138BD34
:1005B000137A507A1B0203F47063181805D00BF0FD
:1005C0003FFF36490BF090FF6861A37AE07A1B0287
:1005D000C34208D003F4706318440BF031FF2F4975
:1005E0000BF082FFA861237B607B1B02C34208D013
:1005F00003F4706318440BF023FF28490BF074FFD9
:10060000E861A37BE07B1B02C3423FF46FAF03F4BE
:10061000706318440BF014FF20490BF065FF28624B
:1006200038BD137A507A1B0203F4FE42C24208D04E
:1006300003F4706318440BF003FF18490BF054FFE8
:100640006860A37AE07A1B02C34208D003F47063A7
:1006500018440BF0F5FE11490BF046FFA860237B10
:10066000607B1B02C34208D003F4706318440BF094
:10067000E7FE0A490BF038FFE860A37BE07B1B0232
:10068000C3423FF433AF03F4706318440BF0D8FE59
:1006900002490BF029FF286138BD00BF0AD7A33AF1
:1006A000DDB504BD00001643D0F8DC01704700BF83
:1006B00090F8C001704700BF90F8BC01704700BFC0
:1006C00090F8C401704700BF90F8C801704700BFA0
:1006D000202994BF50F82100002070472DE9F041F7
:1006E0000B4E8046041F00F17C0754F8045F31462E
:1006F00028460CF097F830B1D8F8B41128460CF021
:10070000AFF800B12E46BC42EFD13046BDE8F081D3
:10071000000020412DE9F041D0F8B4714FF00008FD
:10072000041F00F17C0654F8045F394628460CF09B
:1007300097F8084948B128460CF074F8414620B1B2
:1007400028460CF08DF800B1A846B442EBD14046E3
:10075000BDE8F0810000A0402DE9F0470023D0F86B
:10076000B471C0F8DC3182461C464FF0000998464F
:10077000061F56F8045F384629460CF053F80E4918
:1007800060B128460CF04EF840B1484629460BF0BF
:10079000A3FD08F101088146CAF8DC410134202C90
:1007A000E7D1CAF8D48140460BF04AFE01464846DC
:1007B0000BF04EFFBDE8F08700007042D0F8D40186
:1007C000704700BFD0F89001704700BFD0F890018B
:1007D000704700BFD0F89001704700BF2DE9F84383
:1007E0004FF00008D0F8B471C0F88C818146041F26
:1007F00000F17C0654F8045F394628460CF030F8C6
:10080000084950B128460CF00DF830B14046294651
:100810000BF062FD8046C9F88C01B442EAD1404633
:10082000BDE8F8830000704202299ABF643150F895
:1008300021000020704700BF102998BF80F8D01118
:10084000704700BF90F8B801704700BFC0F8CC11E6
:10085000704700BF80F8B811704700BF80F8B91129
:10086000704700BF30B5C0F8B41183B008460BF034
:1008700091F9074C022502460B46009520460AF0E6
:10088000E3FA204603B0BDE830400AF085BA00BF65
:10089000DC87FF1F70B500F500550646183500F1DE
:1008A0003804204604F5F074FFF7E0FDAC42F8D1BF
:1008B00006F50675012428460021FFF7CBFF2146E7
:1008C00028460134FFF7B8FF112C05F5F075F2D179
:1008D00042F2200400250548054A064B3555002103
:1008E00030627162B262F362304670BD00007A44D9
:1008F000000048430000C8C242F224032DE9F04141
:10090000002200F5F15500F500578046C250183519
:10091000243700F5067403E004F5F074AC420ED001
:100920002046FFF78FFF0028F6D020463E68FFF7ED
:1009300045FF04F5F0743044AC423860F0D142F227
:10094000240358F80300BDE8F08100BF70B50E46DF
:100950000121356805F00F040C44C4EB041400EBCE
:10096000441000F138042046FFF774FF20460121AF
:10097000FFF774FF3246204605F0F001BDE87040F5
:10098000FFF7A6BD70B5002300F5005605460361CC
:10099000183600F5067403E004F5F074A64223D07F
:1009A0002046FFF74FFF0028F6D02046FFF716FF3E
:1009B000014628690BF090FC28612046FFF702FFF2
:1009C000A96A0BF02FFF20BB2046FFF7FFFEE96A64
:1009D0000BF046FF0028DFD02046FFF7F7FE04F5B6
:1009E000F074A642E862DBD168690BF029FD01468C
:1009F00028690BF02DFE696A286104460BF030FF70
:100A000000B16C62296A20460BF00CFF00B12C6229
:100A100070BD2046FFF7D6FEA862D5E770B5124B31
:100A2000836100F500550646183500F5067403E0AD
:100A300004F5F074AC4214D02046FFF703FF002801
:100A4000F6D02046FFF74AFEB1690BF0EBFE002816
:100A5000EED02046FFF742FE04F5F074AC42B061E0
:100A6000EAD1B06970BD00BF0000A04070B500239E
:100A700000F500550646C361183500F5067403E01D
:100A800004F5F074AC4214D02046FFF7DBFE0028DA
:100A9000F6D02046FFF73EFEF1690BF0E1FE00289C
:100AA000EED02046FFF736FE04F5F074AC42F0615C
:100AB000EAD1F06970BD00BF0069704741617047BD
:100AC000F8B50F46164600F50674012504E0013519
:100AD000112D04F5F0741BD02046FFF7B3FE00285B
:100AE000F5D029460B480AF0A7F90A480AF054F94C
:100AF000782009F099FE20463946FFF7A7FE013518
:100B000020463146FFF7AEFE112D04F5F074E3D117
:100B1000F8BD00BFDC87FF1F42F21C032DE9F04146
:100B2000002200F50055C2502F46274A274B42634A
:100B300006464FF00008036318351C3700F50674AD
:100B400003E004F5F074AC422ED02046FFF77AFEA5
:100B50000028F6D02046FFF73DFE00210BF080FE76
:100B60000028EED03B6801333B602046FFF732FEA1
:100B7000014640460BF0B0FB80462046FFF726FEBC
:100B8000316B0BF06DFED0B92046FFF71BFE716B89
:100B90000BF048FE0028D4D02046FFF713FE04F5E2
:100BA000F074AC427063D0D142F21C03F0580BF0E9
:100BB00047FC014640460BF04BFDBDE8F081204666
:100BC000FFF704FE3063DFE700C0794400C079C45A
:100BD000006B7047406B7047F8B500F5005507464D
:100BE0000026183500F5067403E004F5F074AC42F5
:100BF00010D02046FFF726FE0028F6D02046FFF74B
:100C0000ABFD014630460BF067FB04F5F074AC42D7
:100C10000646EED142F21C03F8580BF011FC0146D7
:100C200030460BF015FDF8BD2DE9F04F93B00446AA
:100C30000F91002A40F0D78115461046C84900F0B0
:100C4000E5FDC749284600F0E1FDC549284600F00A
:100C5000DDFD42F21C03204654F803B0FFF74CFEC2
:100C60008146206966690AF095FFCDE910012046AA
:100C7000FFF7B2FF82462046A769D4F81C80FFF731
:100C80004BFF0AF087FFCDE90C01394640460BF0D7
:100C900021FBB4490BF028FC0AF07CFFCDE90A01E6
:100CA00040460AF077FFCDE9080138460AF072FFA6
:100CB000CDE9060150460AF06DFFDDE91023CDE9CC
:100CC0000401CDE90223A84900964B465A4628461E
:100CD00000F09CFDA249284600F098FD04F506743A
:100CE0004FF0010ADDF83C9007E00AF1010ABAF181
:100CF000100F04F5F07400F0F7802046FFF7A2FD16
:100D00000028F2D02046FFF7D3FC2046FFF7D4FCA2
:100D10002046FFF7D5FC2046FFF7D6FC0821934874
:100D200009F0FEFC514692480AF086F8BAF1090F24
:100D300003DC01218F4809F0F3FC02218E4809F001
:100D4000EFFC2046FFF74AFD0AF024FF5FFA89F81E
:100D500002460B46CDF8008085480AF075F801215F
:100D6000864809F0DDFC2046FFF79EFC0C2800F3C6
:100D7000BE8001261EE00621814809F0D1FC2946EB
:100D80007B480AF059F802217E4809F0C9FC314637
:100D90002046FFF79DFC0AF0FDFECDF800800246DC
:100DA0000B4673480AF050F8012174483D460E4442
:100DB00009F0B6FC2046FFF777FC864205F10107F3
:100DC0006BDC092DD7DC01216A4809F0A9FCD2E7C8
:100DD0002046FFF769FC172800F3BE8035460D2634
:100DE0001CE009F09DFC294661480AF025F8022123
:100DF000644809F095FC31462046FFF769FC0AF08B
:100E0000C9FECDF8008002460B4659480AF01CF88E
:100E100001215A483D460E4409F082FC2046FFF766
:100E200043FC86424FF00601554805F10107D8DD25
:100E30000F21554809F074FC4D4809F0ADFF2046DC
:100E4000FFF732FC192828DD19261CE009F068FCA0
:100E50002946474809F0F0FF02214A4809F060FCA2
:100E600031462046FFF734FC0AF094FECDF80080AE
:100E700002460B463E4809F0E7FF01213F483D4648
:100E80000E4409F04DFC2046FFF70EFC86424FF061
:100E900006013B4805F10107D8DD0F213A4809F06A
:100EA0003FFC334809F078FF0921384809F038FC45
:100EB00000212046FFF7B8FC0AF06CFE022602462D
:100EC0000B4600962A4809F0BFFF0F212E4809F073
:100ED00027FC0AF1010A264809F05EFFBAF1100F5B
:100EE00004F5F0747FF409AF13B0BDE8F08F2F461E
:100EF000012620E00621224809F012FC39461C4850
:100F000009F09AFF02211F4809F00AFC31462046E9
:100F1000FFF7DEFB0AF03EFECDF8008002460B46EE
:100F2000134809F091FF01360121144809F0F8FB3C
:100F30000C2E09D05F46092F07F1010BDADC0121E5
:100F40000C4809F0EDFBD5E72046FFF7ADFB0C2878
:100F500005F10B063FF73CAF16350D273AE000BF11
:100F60006820010000007A44600D0100000E0100BD
:100F7000DC87FF1FF80F01000C1301000C0E0100AD
:100F8000100E0100E80F0100180E0100280E0100EC
:100F90000621BD4809F0C4FB3146BC4809F04CFFAE
:100FA0000221BB4809F0BCFB39462046FFF790FB05
:100FB0000AF0F0FDCDF8008002460B46B34809F078
:100FC00043FF0121B3480F4409F0AAFB5D453FF4FC
:100FD0002FAF5E46092E06F1010BD9DC0121AE4888
:100FE00009F09EFBD4E7AD49012000F00FFCAB49AE
:100FF000012000F00BFCA949012000F007FC42F29F
:101000001C032046E2581092FFF776FC82462069C6
:1010100066690AF0BFFD804620468946FFF7DCFD81
:1010200083462046A569E769FFF776FD0AF0B2FD21
:10103000CDE90C01294638460BF04CF998490BF0E4
:1010400053FA0AF0A7FDCDE90A0138460AF0A2FDDD
:10105000CDE9080128460AF09DFDCDE90601584674
:101060000AF098FD5346CDE90401CDE90289109AB2
:101070008C490096012000F0C9FB8849012000F04E
:10108000C5FB04F506744FF0010A0025DDF83C901D
:1010900007E00AF1010ABAF1100F04F5F0743FF409
:1010A00023AF2046FFF7CEFB0028F2D02046FFF703
:1010B000FFFA2046FFF700FB2046FFF701FB204622
:1010C000FFF702FB0821784807F09EFF514677485A
:1010D00009F0B2FEBAF1090F03DC01216E4807F0F6
:1010E00093FF0221724807F08FFF2046FFF776FB3F
:1010F0000AF050FD5FFA89F802460B46CDF80080F1
:101100006A4809F0A1FE0121624807F07DFF2046F0
:10111000FFF7CAFA0C2800F3B48001261EE006216E
:10112000594807F071FF2946604809F085FE022101
:10113000574807F069FF31462046FFF7C9FA0AF021
:1011400029FDCDF8008002460B46584809F07CFE88
:10115000012150483D460E4407F056FF2046FFF758
:10116000A3FA864205F101076BDC092DD7DC0121CA
:10117000494807F049FFD2E72046FFF795FA1728BC
:1011800000F3CE8035460D261CE007F03DFF2946D2
:10119000464809F051FE02213D4807F035FF31462F
:1011A0002046FFF795FA0AF0F5FCCDF800800246DC
:1011B0000B463E4809F048FE012136483D460E44A4
:1011C00007F022FF2046FFF76FFA86424FF0060134
:1011D0002D4805F10107D8DD0F21364807F014FF2F
:1011E000324809F0D9FD2046FFF75EFA192828DDBC
:1011F00019261CE007F008FF29462C4809F01CFEC0
:101200000221234807F000FF31462046FFF760FA2D
:101210000AF0C0FCCDF8008002460B46234809F0D6
:1012200013FE01211B483D460E4407F0EDFE20460B
:10123000FFF73AFA86424FF00601134805F101071D
:10124000D8DD0F211B4807F0DFFE184809F0A4FD88
:101250000921194807F0D8FE00212046FFF7E4FADB
:101260000AF098FC022602460B4600960F4809F049
:10127000EBFD0F210F4807F0C7FE0C4809F08CFD6D
:1012800007E72F4601263AE0100E0100DC87FF1F1A
:10129000E80F01000C0E0100F80F010068200100AA
:1012A00000007A44600D0100000E0100BC87FF1FA2
:1012B0000C130100180E0100280E010006212F4812
:1012C00007F0A2FE39462E4809F0B6FD02212D484E
:1012D00007F09AFE31462046FFF7FAF90AF05AFC69
:1012E000CDF8008002460B46254809F0ADFD0136D9
:1012F0000121254807F088FE0C2E09D05F46092FF2
:1013000007F1010BDADC0121204807F07DFED5E76B
:101310002046FFF7C9F90C2805F10B063FF72CAF63
:1013200016350D2721E00621144807F06DFE3146E1
:10133000134809F081FD0221124807F065FE394685
:101340002046FFF7C5F90AF025FCCDF800800246DB
:101350000B460B4809F078FD01210B480F4407F0BC
:1013600053FE5D453FF438AF5E46092E06F1010B92
:10137000D9DC0121054807F047FED4E7100E010033
:10138000BC87FF1FE80F01000C0E0100F80F0100E1
:101390002DE9F04F85B000F506758A4603929B460D
:1013A0002E464FF0010806E008F10108B8F13F0FA2
:1013B00006F5F0767BD03046FFF744FA0028F3D0EC
:1013C00000230A2251467D4809F0F6FC01217C48A1
:1013D00009F0A6F903980AF0DDFB0023024600930A
:1013E00076480B4609F030FD0121754809F098F95F
:1013F0005946724809F020FD0121714809F090F921
:1014000041466E4809F018FD01216D4809F088F940
:1014100000244FF0020921463046FFF759F90AF03F
:10142000B9FBCDF8009002460B46644809F00CFD6C
:1014300001340121624809F073F9082C4FF00207CA
:10144000E9D100213046FFF7EFF90AF0A3FB00973E
:1014500002460B46594809F0F7FC0121584809F0AB
:101460005FF901213046FFF7DFF90AF093FB00979F
:1014700002460B46514809F0E7FC0121504809F0AB
:101480004FF939463046FFF7CFF90AF083FB009752
:1014900002460B46494809F0D7FC08F101084748C5
:1014A00009F07AFCB8F13F0F06F5F07683D10127F9
:1014B0004FF0000904E001373F2F05F5F07579D0B2
:1014C0002846FFF7BFF90028F5D000230A2251462D
:1014D0003C4809F071FC0121394807F095FD03985B
:1014E0000AF058FBCDF8009002460B46354809F04B
:1014F000ABFC0121324807F087FD5946314809F01D
:101500009BFC01212E4807F07FFD39462D4809F04C
:1015100093FC01212A4807F077FD00244FF00208D0
:1015200021462846FFF7D4F80AF034FBCDF80080B6
:1015300002460B46234809F087FC0134012120486C
:1015400007F062FD082C4FF00206E9D10021284681
:10155000FFF76AF90AF01EFB009602460B4619488F
:1015600009F072FC0121164807F04EFD01212846C2
:10157000FFF75AF90AF00EFB009602460B46114897
:1015800009F062FC01210E4807F03EFD3146284675
:10159000FFF74AF90AF0FEFA009602460B460948A0
:1015A00009F052FC0137074809F0F6FB3F2F05F51B
:1015B000F07585D105B0BDE8F08F00BFDC87FF1F57
:1015C000340E0100BC87FF1F70B5044608460D4667
:1015D0000BF096FF23680246294620465B68BDE86B
:1015E00070401847014B1870704700BF2087FF1FDD
:1015F000F0B51546027883B062B103460E46252A3F
:1016000016D018781C4685B909F00EF96278631C6B
:10161000002AF4D1002D5CD0744803B0BDE8F0403E
:1016200009F0BABB1046002DEED007F095FCEDE7AF
:1016300058785C1C0028EDD02528F3D073282FD0D3
:10164000642825D0692823D0662848D07A2853D02A
:1016500078285ED0582800F08580622800F09180BC
:10166000422866D06C2813D0632811D0742800F06B
:1016700098805428C7D133680436002D40F0A480E8
:10168000012B00F0A8800521594809F049F8BDE771
:10169000331D316885B957481E4609F0CDFBB5E7C3
:1016A000371D3668304665B90BF02AFF01463046D3
:1016B0003E4609F035F8A9E74C481E4609F0BCFB48
:1016C000A4E70BF01DFF014630463E4607F09CFCA8
:1016D0009CE7484803B0BDE8F04009F05DBB073621
:1016E00026F007060321D6E90023009165B9414899
:1016F000083609F0A9FB89E7073626F00706D6E980
:10170000002385B1002100913848083609F09CFB80
:101710007CE7371D3168F5B90023102235483E4675
:1017200009F04AFB72E700953248083609F08CFB55
:101730006CE7022130487DBB08F0F2FF3168371DAD
:101740002B4602222B483E4609F036FB5EE707F0A7
:101750005BFC3168371D0023102224483E4609F007
:101760002BFB53E702212548002DF0D108F0D8FFCC
:10177000371D31681F482B4610223E4609F01CFBDE
:1017800044E7371D3168002DDAD0002302221748C4
:101790003E4609F011FB39E707F036FC371D31688A
:1017A000F3E7316804363DB901290EBF14481548E6
:1017B000012108F0B5FF29E701290EBF10481148A3
:1017C000012107F021FC21E7012B09D00521084860
:1017D00007F01AFC1AE70C490648FFF7F5FE15E773
:1017E00009490248FFF7F0FE10E700BFBC87FF1F62
:1017F000740E0100DC87FF1F600E01005C0E01000B
:10180000640E0100680E01006C0E01000EB400B5FC
:1018100082B003A9024651F8040B0191FFF7E8FEDC
:1018200002B05DF804EB03B0704700BF30B4074D61
:10183000074C084900232B702360036543658365CB
:1018400080F85C300B6030BC704700BF5C92FF1FBB
:101850005892FF1F5492FF1F0A4A0B49906D536D17
:1018600003FB00F34FF47A7000FB03F0642310B520
:101870000B600AF0E5FD0549054C0AF0E9FE206021
:1018800010BD00BF6093FF1F3487FF1FE4388E3EFA
:101890002093FF1F2DE9F8434649474F474D484ED7
:1018A000484CDFF854810020FFF7B0FF464B474A11
:1018B00047485A60DF601222002746491A701861B3
:1018C000454A46485D615E62454D9C614FF07C56DD
:1018D000444C1F63444F9962DA62444958630C22B6
:1018E00043489D635E6440F61C450A269C641F6263
:1018F00041F204043F4FD9641A6502210122C3F862
:10190000BC009D6600206425DE661C674FF4967659
:101910003224DF61DF635A27597059721A725A658F
:1019200083F840009D655E66DE651C665F67C3F8F0
:101930009840C3F8A4408C244FF47A799867D9670B
:10194000C3F88000DFF8B4C0C3F8A00044F6206EEE
:10195000C3F8AC20C3F8B010FF2741F28831C3F8B8
:10196000B450052683F8C02083F8C12083F8C22034
:101970004FF4FA7540F2D6624FF4964083F8CC40AB
:10198000C3F89C90C3F88880C3F88CC0C3F890E07B
:10199000C3F8A870A3F8BA60A3F8C450C3F8C8008D
:1019A000C3F89410A3F8B810A3F88420A3F88620F5
:1019B000BDE8F8837C0E01006666864033338340C1
:1019C000CDCCCC3DCDCC4C406093FF1F48E801000E
:1019D0000000404000008242000020C10000204280
:1019E0000000A0409A997940333373400AD7233DD1
:1019F0009A99993ECDCC4C3E0000684200C02044EC
:101A0000F0B54FF47A6085B007F01EF80021112080
:101A100006F0F2FF0021102006F0EEFF0021122058
:101A200006F0EAFF0021132006F0E6FF01210B205B
:101A300006F0E2FF01210C2006F0DEFF0121142058
:101A400006F0DAFF0121152006F0D6FF012116204D
:101A500006F0D2FF0121172006F0CEFF012105205C
:101A600006F0CAFF914C924D0121062006F0C4FFFA
:101A700001210D2006F0C0FF20880AF0DDFC0146A0
:101A8000162006F023FF20880AF0D6FC0146172016
:101A900006F01CFF20880AF0CFFC0146052006F066
:101AA00015FF20880AF0C8FC00240146062006F035
:101AB0000DFF009423467F4A7F49804805F048FB8C
:101AC000E6B232467A497D4805F0F0FA2B7978493A
:101AD0007A486FF30003013432462B7105F0DCFACB
:101AE000082CEDD10924E6B232467149734805F05D
:101AF000DDFA2B796E49714843F001030134324617
:101B00002B7105F0C9FA0D2CEDD16D4C2368102115
:101B1000D3F8840005F0EEFF23681021D3F8840089
:101B200006F07CF823680221D3F8840005F038FF22
:101B300023680221D3F8840006F0C0F823680F213F
:101B4000D3F8840006F0A8F90C215E4808F0E8FDFF
:101B50005D4809F021F916215C4808F0E1FD5A487A
:101B600009F01AF940F2836007F02CF8564809F0A2
:101B700013F91721564808F0D3FD534809F00CF922
:101B8000544B1B789A0600F1BF80524B1B781B0701
:101B900000F1C6804F4B1B785F0700F1CD804D4BA5
:101BA0001B789E0700F1D4804B4B1B781D0600F17B
:101BB000DB80494B1B785C0600F1E280464B1B78CA
:101BC000980600F1E980444B1B78590700F1F0803A
:101BD000414B1B781A0700F1F7803F4B1B789B079E
:101BE00000F1FE80384809F0D7F872B63B4A4CF253
:101BF00020504DF62811108020231180013BFDD18B
:101C0000374C3848384900234FF4805525800380ED
:101C10000B8032F80E3C9BB243F0D30322F80E3C0B
:101C200062B618213148324D08F07AFD264809F095
:101C3000B3F805F1D0062F462C46601B06F0E2FBF8
:101C400004F8010BA642F8D13B78122B01D0FFF724
:101C500021FED7F8C800430803F1B76303F55843E2
:101C6000B3FBF0F007F0ACFB0420FFF7BBFC214B0B
:101C7000002201210D201A6006F0AAFE796D1E488F
:101C8000FEF71CFF7A6C97F840101B48FEF718FF10
:101C90001A4B1B491A68039203981B680293029A15
:101CA000184B08601A6005B0F0BD00BF2887FF1F01
:101CB0003C94FF1F48B7FF1F48E80100ACB5FF1F69
:101CC000E894FF1F9C0E0100DC87FF1FAC0E010093
:101CD000C40E010001F0074000F007400E2005404F
:101CE000042005400620054016200540C80F0100CD
:101CF0006093FF1F7092FF1F8495FF1F54B7FF1F53
:101D00001895FF1F4494FF1F2121394808F008FD52
:101D1000384809F041F8384B1B781B077FF53AAF7C
:101D20000C21364808F0FCFC324809F035F8324BFB
:101D30001B785F077FF533AF0E21314808F0F0FCC8
:101D40002C4809F029F82C4B1B789E077FF52CAF07
:101D500017212C4808F0E4FC264809F01DF82A4B0E
:101D60001B781D067FF525AF0E21284808F0D8FC0A
:101D7000204809F011F8244B1B785C067FF51EAF54
:101D80001221234808F0CCFC1A4809F005F81E4B34
:101D90001B7898067FF517AF13211E4808F0C0FC8A
:101DA000144808F0F9FF184B1B7859077FF510AF5E
:101DB0001C21194808F0B4FC0E4808F0EDFF124B46
:101DC0001B781A077FF509AF1921144808F0A8FC01
:101DD000084808F0E1FF0C4B1B789B077FF502AF2A
:101DE00018210F4808F09CFC024808F0D5FFF9E6DE
:101DF000DC0E0100DC87FF1F01F00740000F01002F
:101E0000100F0100200F010000F00740380F010003
:101E1000480F01005C0F0100700F0100900F0100DE
:101E2000AC0F010070B5464C464D4748E6680023AC
:101E30002B70FEF71BFE014630460AF0F3FC08B19A
:101E400004232B704048FEF7E9FD21690AF0EAFC03
:101E500018B12B7843F010032B703B48FEF7B8FE07
:101E6000A16A0AF0FDFC18B12B7843F040032B70F7
:101E7000002335486B70FEF7ADFEE16A314E0AF083
:101E8000D1FC08B10123737000232F48EB70FEF7DB
:101E9000EDFD05462C482B4EFEF7C0FD01462846B9
:101EA0000AF018FAE16B0AF0DBFC08B10123F370C9
:101EB000264D254800232B70FEF7D8FD616A0646A3
:101EC000E0680AF007FA014630460AF0C9FC08B19A
:101ED00004232B701C48FEF7A1FD616A06462069A9
:101EE0000AF0FAF9014630460AF09CFC18B12B784A
:101EF00043F010032B701448FEF76AFEA16B0646F0
:101F0000A06A0AF0E7F9014630460AF0A9FC18B1C8
:101F10002B7843F040032B7000230B486B70FEF7C7
:101F200059FEA16B0546E06A084C0AF0D5F9014656
:101F300028460AF077FC08B10123637070BD00BF2A
:101F40006093FF1F5C93FF1F8495FF1FD894FF1FB2
:101F50002DE9F0417C4C2368012B82B031D0022B5B
:101F600000F0A880032B00F0C8803BBB774B784A79
:101F7000D3F8A410D3F8A83012685B1A632B0EDDD7
:101F8000744803FB02F380FB0302DB17C3EB62130D
:101F90001944062002B0BDE8F04106F099BB6E4836
:101FA00003FB022380FB0302DB17C3EB2212114465
:101FB000062002B0BDE8F04106F08ABB02B0BDE8E1
:101FC000F081664E33680A33B3F57A7F00F3B78049
:101FD000184633600AF034FA61490AF085FA8046FF
:101FE0005A4DD5F8A4000AF02BFA0746D5F8A800F8
:101FF0000AF026FA39460AF06DF941460AF074FAF9
:1020000058490AF025FB39460AF066F90AF032FC15
:102010000146062006F05CFB0221534808F080FBD5
:10202000524808F0B9FE0621514808F079FB3068A3
:102030000AF006FA4A490AF057FA09F0ABFD0227FE
:1020400002460B460097494808F0FEFE0D2149481C
:1020500008F066FBD5F8A4000AF0F2F98046306873
:102060000AF0EEF93E490AF03FFA0646D5F8A80014
:102070000AF0E6F941460AF02DF9014630460AF029
:1020800033FA38490AF0E4FA41460AF025F909F032
:1020900081FD00970B460246344808F0D5FE3946CC
:1020A000314808F03DFB314808F076FE2368022BEA
:1020B0007FF458AF294B254E00221A60D6F8A400B1
:1020C0000AF0BEF90546D6F8A8000AF0B9F9294683
:1020D0000AF000F900210AF007FA22490AF0B8FADA
:1020E00029460AF0F9F80AF0C5FB0146062006F079
:1020F000EFFA2368032B7FF438AF184B134E4FF4DD
:102100007A721A60D6F8A4000AF09AF90546D6F851
:10211000A8000AF095F929460AF0DCF811490AF0FE
:10212000E3F910490AF094FA29460AF0D5F80AF0C2
:10213000A1FB0146062006F0CBFA236815E7002331
:102140004FF0000833604BE73493FF1F6093FF1F8D
:102150003487FF1F1F85EB51CBF08D287492FF1F32
:10216000CDCCCC3D0000C8420C130100DC87FF1F22
:10217000E40F0100EC0F010070B5B848B84C08F04E
:102180000BFEB64808F008FEB44808F005FE0D2125
:10219000B44808F0C5FAD4F8A030012B11D0B24CE5
:1021A000AE48217800230A2208F006FE2378052B8A
:1021B00067D8DFE813F00B01100115011A011F01A8
:1021C00001010921A94808F0ABFAA948FEF726FC4D
:1021D00021690AF027FB18B10F21A64808F0A0FAE0
:1021E000A348FEF743FCE1680AF03AFB18B10E2160
:1021F000A14808F095FA9E48FEF738FC05469C4831
:10220000FEF70CFC014628460AF064F8E16B0AF080
:1022100027FB18B11121994808F082FA9448FEF77B
:102220007BFCA16A0AF01CFB18B10C21944808F051
:1022300077FA8F48FEF770FCE16A0AF0F3FA18B1FA
:102240000D21904808F06CFA8F4B89481B68012BD0
:1022500000F0ED80FEF7E2FB2169814D0AF000FB02
:1022600078B18348FEF702FCE9680AF0DBFA40B176
:102270007D4B1B78052B00F0EB800821834808F08C
:102280004FFA0221824808F04BFA122006F0A6FB12
:10229000012800F0B480112006F0A0FB012800F016
:1022A000B8807C4B1B68012B00F0BC800221784871
:1022B000794C08F035FA794B6848196808F0BCFD8C
:1022C000664808F069FD0421754808F029FA0B20DA
:1022D00006F084FB002301460A22604808F06CFDEA
:1022E0000C2006F07BFB002301460A225B4808F025
:1022F00063FD142006F072FB002301460A225748B2
:1023000008F05AFD152006F069FB0A220023014659
:10231000524808F051FD0621624808F001FA23688E
:10232000DD074FF001014CBF5F48604808F0F8F945
:10233000236898074FF001014CBF5B485B4808F0E9
:10234000EFF923685A074FF001014CBF5648574830
:1023500008F0E6F923681B074CBF53485348012196
:1023600008F0DEF90421524808F0DAF9112006F0ED
:1023700035FB002301460A22384808F01DFD1020D5
:1023800006F02CFB002301460A22344808F014FD15
:10239000122006F023FB002301460A222F4808F0F2
:1023A0000BFD132006F01AFB002301460A222B48DE
:1023B000BDE8704008F000BD07213E4808F0B0F9C4
:1023C0003D4B2648196808F037FD5AE706213B487F
:1023D00008F0A6F955E70721394808F0A1F950E7B8
:1023E0000721384808F09CF94BE70821364808F0E7
:1023F00097F946E70B21354808F092F941E70E219D
:10240000334808F08DF9112006F0E8FA01287FF42E
:1024100048AF0A212F4808F083F91E4B1B68012B97
:102420007FF444AF11212C4808F07AF93EE7FEF71B
:10243000F5FA216A0AF014FA00283FF41EAF1621BB
:10244000264808F06DF90A21254808F069F918E7CF
:102450000A21234808F064F913E700BFDC87FF1F57
:102460006093FF1FFC0F0100D494FF1F0C100100AC
:102470008495FF1F1810010028100100381001007A
:102480004C1001005C1001000093FF1F9010010030
:102490000C130100F094FF1F3094FF1FBC94FF1F2A
:1024A000041101000C11010014110100441F01006E
:1024B00018110100CC100100F494FF1F9C100100C2
:1024C000A4100100B8100100C0100100AC10010000
:1024D000D4100100E4100100F01001006C100100A4
:1024E000841001002DE9F04FA94CE66F012E8DB04C
:1024F00000F07681032E00F0CA80DFF8D882A54F65
:10250000A54EA36FA548012B09BF3168316801F1C1
:102510000041316005F03CFD3B68002B40F09D80A0
:102520009E48DFF8B09205F009FD3B68C8F800004E
:102530000546002B43D1E36F954A012B52D09849B1
:1025400028460AF08DF9C0B9964928460AF06AF97A
:1025500098B9954A954B12680B920B9A1A60D4F869
:10256000AC0009F06DFF294609F0BEFF0023C8F852
:10257000000033600DB0BDE8F08FDFF82CA28B4F68
:10258000DAF800300A930A983B68DFF84C92C01AD8
:1025900009F052FF294609F0A7FF85490AF058F8CB
:1025A00083490AF055F8D9F8001009F095FEDAF8D9
:1025B00000300993099BC9F800003B60CFE709F0A0
:1025C000E9FA022502460B4600957A4808F03CFCE1
:1025D0000421794808F0A4F8E36FD9F800506C4A58
:1025E000012BACD1754B1B68012B00F0D981022B5C
:1025F000B5D1D2F89070384609F022FF29460AF08A
:1026000011F940B9784209F01BFF29460AF028F970
:10261000002800F0F881DFF890A1644FDAF800306C
:10262000079307983B68DFF8B091C01A09F004FFE0
:10263000294609F059FF5E490AF00AF85C490AF098
:1026400007F8D9F8001009F047FEDAF800300693D1
:10265000069BC9F800003B6081E7504805F06EFC1E
:1026600009F098FA022502460B460095514808F0F9
:10267000EBFB0321524808F053F8D4F890104D4872
:1026800008F0DAFB03214E4808F04AF848E74D4DC0
:102690004A4F2B68DFF83C81D3F884000F210123D7
:1026A0003B6005F0F9FB3B683A4F012B3B6800F0BB
:1026B000BE80002B40F03C812B68DFF82091D3F8DE
:1026C0008400436B19698EB2C9F8006005F066F9A1
:1026D000B4F8862040F6E44303FB06F1B1FBF0F0CA
:1026E000801A00B209F0ACFE37492B4E8246D4F86E
:1026F000880009F0F9FE0146504609F0A9FFD9F813
:1027000000303060632BDFF8D4A000F30581002394
:1027100033603B68002B3FF4F4AE02212B4807F0F6
:10272000FFFF2B68D9F80050D3F8840040F6E4434B
:1027300003FB05F505F032F9B5FBF0F009F07CFE7E
:102740000546B4F8860009F07BFE0146284609F0EC
:10275000C1FD09F01FFA022502460B4600951548F7
:1027600008F072FB2946194807F0DAFF306809F0D3
:1027700011FA009502460B460E4808F065FB294603
:10278000134807F0CDFF2946104807F0C9FFB8E607
:102790006093FF1F1495FF1F7C92FF1F3893FF1F4C
:1027A0000000FA430000FAC354B7FF1FE494FF1F70
:1027B00000007A44DC87FF1F641101005087FF1F6F
:1027C00060110100E894FF1F9175DD360C130100C4
:1027D0005C1101001493FF1F2093FF1F5893FF1FEC
:1027E000DFF80483D4F89070D8F80050384609F028
:1027F00027FE29460AF034F848B1784209F020FE55
:10280000014628460AF02CF8002840F00381A44D28
:10281000A44F2A680223D2F884003B600E2105F001
:102820003BFB3B68A04F012B3B687FF442AF002B82
:1028300040F0FA802B68DFF8B492D3F88400436B41
:1028400019691FFA81FBC9F800B005F0A7F8B4F8C0
:102850008430964E40F6E44A0AFB0BFBBBFBF0F0DB
:10286000C01A00B209F0ECFD91498346D4F88C00FF
:1028700009F03AFE0146584609F0EAFE2A68D9F8FE
:1028800000303060D2F884000AFB03FA05F086F8C5
:10289000B4F88430BAFBF0F00FFA80FAC3EB0A0305
:1028A000002BB4F8BA20B8BF5B429342BCBF0023F0
:1028B00033603B68002B3FF424AE02217D4807F0D3
:1028C0002FFF2B68D9F80050D3F8840040F6E4437A
:1028D00003FB05F505F062F8B4F88410B5FBF0F0E1
:1028E00000B2411A744808F0A7FA0221714807F0B3
:1028F00017FF306809F04EF9022502460B46009595
:102900006D4808F0A1FA03216C4807F009FF294639
:10291000684807F005FFF4E52B68D3F8840005F05C
:102920003DF8DAF8003064389842FFF4F0AEF0E693
:102930006148DFF8B891DFF868A108F02DFA0C21A2
:102940005F4807F0EDFE0C215E4807F0E9FE2A68BB
:102950003B68D2F88400426B11698EB2C9F80060FE
:10296000002B3FF4B3AE05F019F840F6E441002324
:102970000A2201FB06F1B1FBF0F14F4808F01CFA06
:1029800002214C4807F0CCFEB4F886104A4808F003
:1029900053FADAF80030D9F80060D3F8840095E6ED
:1029A0004949284609F05CFF58B94849284609F0CA
:1029B00039FF30B9464A474B12680592059A1A60AA
:1029C000CDE5DFF80CA1434FDAF80030049304980A
:1029D0003B68DFF81C91C01A09F02EFD294609F06A
:1029E00083FD3D4909F034FE3B4909F031FED9F839
:1029F000001009F071FCDAF800300393039BC9F86A
:102A000000003B60ABE5324A324B12680892089AEC
:102A10001A60A4E5224D234F2B683E60D3F8840052
:102A20000F2105F039FA3EE62348DFF8C0901C4E2E
:102A300008F0B2F9E36F012B4FF00B010CBF2748F0
:102A4000274807F06DFE0C211E4807F069FE2A6832
:102A50003B68D2F88400426B11691FFA81FBC9F808
:102A600000B0002B3FF4F1AE04F098FF40F6E441D3
:102A700000230A2201FB0BF1B1FBF0F10E4808F034
:102A80009BF90121174807F04BFEB4F884100A485F
:102A900008F0D2F93368D9F800B0D3F88400D4E64E
:102AA000E894FF1F5087FF1F1495FF1F7C92FF1FA4
:102AB0009175DD360C130100DC87FF1F4811010002
:102AC0004C110100381101000000FA430000FAC364
:102AD00054B7FF1FE494FF1F00007A442011010047
:102AE0002C110100F80F01001493FF1F5893FF1FD2
:102AF0002093FF1F2DE9F04F994C236885B0002BE0
:102B00007BD0984DDFF86482974FDFF8A892D5F814
:102B10008030944E012B00F08B80D7F800A0D6F8BF
:102B200058B0746D914E04FB0BF44FF47A7000FBB7
:102B300004F009F085FC8E490446504609F0D4FCA7
:102B4000214609F085FD8B4909F0CEFC09F092FE83
:102B50006328C8F800004BDD2046854909F078FD60
:102B6000642338603360D9F80030002B3DD0EB6F20
:102B70007C4C012B00F08A80032B00F0DF80022BBD
:102B800000F0E28002217C4807F0CAFD7B4B186808
:102B900009F000F8022402460B460094784808F039
:102BA00053F92146774807F0BBFD2146724807F0EC
:102BB000B7FDD8F80010724808F03EF906217248B7
:102BC00007F0AEFD38686A4909F08EFC08F0E2FFB4
:102BD000009402460B466A4808F036F903216B4818
:102BE00007F09EFD664808F0D7F805B0BDE8F08F05
:102BF0000028BCBF00233360B5E7654E594D3368EC
:102C00000293029A42F228339A424BD833680393D4
:102C1000039A42F210739A424BD8D5F88030DFF80D
:102C20004C81514FDFF88C914E4E012B7FF475AFE4
:102C30005848FDF7D1FF5849D6F868A0F46E09F05E
:102C400053FC09F03DFE326F736FD5F858B0CAEBF4
:102C500002021B1B80B29A42CAEB0000C6BF03FBF4
:102C600000000132584390FBF2F020446C6D00FBF1
:102C70000BF004FB00F000EB8000400009F0E0FBEB
:102C80003B4909F0E5FC824638604BE7434B1B6843
:102C9000012B4FF00A010CBF4148424807F040FDAC
:102CA000E36F69E73B486A6C95F84010FDF708FF51
:102CB000ACE73848FDF790FF3749AF6EEE6E09F08C
:102CC00013FC09F0FDFD2A6F6B6FD21B9B1B80B2BA
:102CD0009A42A0EB07003CDD03FB0000531C90FB75
:102CE000F3F31E44A86D6B6DDFF88080DFF8C490AD
:102CF000C8F8006000FB06F003FB00F000EB80006A
:102D0000400009F09DFB1A49174F09F0A1FCD9F8C2
:102D10000030386001222260002B3FF4F8AE02211F
:102D2000154807F0FDFC164808F036F859211E48F2
:102D300007F0F6FC124808F02FF8E8E610211B48CF
:102D400007F0EEFCEB6F1AE70721194807F0E8FCE3
:102D500018E703FB00F393FBF2F31E44C2E700BF46
:102D60007892FF1F6093FF1F2093FF1F3487FF1F80
:102D7000E4388E3E0000C8420C1301001493FF1F7C
:102D8000DC87FF1F5C110100FC110100041201002F
:102D900054B7FF1F8495FF1F00007A445087FF1F20
:102DA000C8110100D41101006C110100E0110100F3
:102DB000F41101003C87FF1FF0B5112083B005F02E
:102DC0000DFE012813D000210B2005F001FE00218B
:102DD0000C2005F0FDFD0021152005F0F9FD1D4931
:102DE0001D4B0120002208701A6003B0F0BD01469F
:102DF0000446152005F0ECFD1849194A194B0968DD
:102E00000191D2F894001B680199134D03440226E6
:102E10008B422E6017D8D2F89C0009F011FB124BA0
:102E2000196809F0FFFC074668B921460B2005F038
:102E3000CFFD084A032339460C2016702B6005F09D
:102E4000C7FD03B0F0BD01210C2005F0C1FD03B0AA
:102E5000F0BD00BFD494FF1F1095FF1F54B7FF1F94
:102E60006093FF1F1895FF1F1493FF1FF0B56D4E61
:102E70006D4D34682B689C4287B03AD014F0010144
:102E800056D014F002014AD014F004013ED0E307FA
:102E90000FD52B68DF070CD4644F3A68002A00F086
:102EA0009E80634B1B680193019B934200F28980D3
:102EB0003468A0070DD52B6899070AD45D4F3A688E
:102EC000002A3ED05A4B1B680393039B93425AD867
:102ED000346862070DD52B685B070BD4564F3A68F0
:102EE000002A3FD0524B1B680593059B934258D84C
:102EF00034680CB107B0F0BD2146162005F0E8FBA0
:102F00002146172005F0E4FB07B0F0BD052005F0D1
:102F1000DFFB2B68346803F0FB032B60B7E7172057
:102F200005F0D6FB2B68346803F0FD032B60ABE79C
:102F3000162005F0CDFB2B68346803F0FE032B60F0
:102F40009FE73E4B1B68002B56D1FF21172005F051
:102F5000BFFB374B3A4A19680291029912680A443A
:102F60003A60B0E7354B1B68002B50D1FF2105209C
:102F700005F0AEFB2E4B324A196804910499126891
:102F80000A443A60AFE72F4B1720D3F8981005F0AA
:102F90009FFB2B68346843F0020300222B603A60E9
:102FA00097E7284B0520D3F8981005F091FB2B6884
:102FB000346843F0040300222B603A60002C99D15E
:102FC0009AE7204B1620D3F8981005F081FB2B6868
:102FD000346843F0010300222B603A6069E7FF2167
:102FE000162005F075FB124B154A196800910099DF
:102FF00012680A443A6055E7134807F0CDFE0C21E9
:10300000124807F08DFB104807F0C6FE9DE70E48FA
:1030100007F0C2FE0C210E4807F082FB0A4807F0B9
:10302000BBFEA3E71095FF1F3094FF1FAC94FF1F5A
:1030300054B7FF1FB094FF1FB494FF1F3C87FF1FBE
:103040006887FF1F6093FF1FDC87FF1F08120100C6
:10305000181201002DE9F047534EDFF870813368F4
:10306000DFF86C91D3F88400504D0F2104F014FF69
:103070000023012222214E48C8F80030C9F8002060
:1030800007F04EFBD8F80030132B20DC40F6E44765
:103090003368B5F884A0D3F88400436B1C6904F04E
:1030A0007DFCA4B2012107FB04F4B4FBF0F4414819
:1030B0005444A5F8844007F033FB642005F0C4FCB9
:1030C000D8F800300133132BC8F80030E0DDB5F834
:1030D0008430394A3948A2FB03129B1A02EB53038E
:1030E000C3F30F131946A5F8843007F0A5FE1D2180
:1030F000334807F015FB0221324807F011FB2F4837
:1031000007F04AFE00231A460E213068C8F8003046
:1031100004F0BEFB022322212548C9F8003007F045
:10312000FFFAD8F80030132B20DC40F6E447336870
:10313000B5F88690D3F88400436B1C6904F02EFC2C
:10314000A4B2012107FB04F4B4FBF0F419484C4489
:10315000A5F8864007F0E4FA642005F075FCD8F87D
:1031600000300133132BC8F80030E0DDB5F88630AD
:10317000114A1248A2FB03129B1A02EB5303C3F33A
:103180000F131946A5F8863007F056FE1D210E488C
:1031900007F0C6FA02210B4807F0C2FA0748BDE85B
:1031A000F04707F0F9BD00BFE894FF1F6093FF1FD1
:1031B000281201006C12010087611886DC87FF1F4E
:1031C0004C1201000C13010070120100C094FF1F8B
:1031D0005087FF1FA64B2DE9F0411B68A54CA64D5B
:1031E00040F2513108222160E271286D002B40F03D
:1031F000EE8009F025F96969064609F075F99F49DD
:103200009D4F09F071F909F05BFB80B20312637204
:103210009B4A9C4B12681B68A969A37215121B126A
:10322000E372227320726573304609F05DF99349A9
:10323000904D09F059F909F043FB83B21A1229465F
:103240009148A373E27304F07BF9904B904A1B689A
:103250001288A272DEB206EB8601267203EB8306A9
:10326000490046F3D71640F2553E12124FF00008BF
:103270001B1221736673294608268348C4F800E0B0
:10328000E2726372E67184F80E8084F80F8004F0B5
:1032900057F940F256337F482360E671FDF70CFC86
:1032A0007D4909F021F909F00BFB20727948FDF7FF
:1032B00003FC794909F018F909F002FB774A7649CD
:1032C000C0F307236372106809F0C2F909F0D2FA5B
:1032D00040FA06F203466F48E272A372FDF71CFC47
:1032E000664909F001F909F0C5FA20736948FDF74C
:1032F00013FC624909F0F8F809F0BCFA294640F3DA
:1033000007236148637384F80E8084F80F8004F00B
:1033100017F9022005F098FB614A624B107851784A
:10332000207290786172D2781978A072987893F8A8
:1033300001E0E2722173DA78A07340F25A33294631
:10334000514884F80DE0E2732360E67104F0F8F868
:10335000554B4D481A785978227261729A78D9780B
:10336000A272E1721A79597993F806E022736173B7
:10337000DA7984F80EE040F25E332946E273236086
:10338000E67104F0DDF8022005F05EFB474B3E4895
:103390001A785978227261729A78D978A272E17299
:1033A0001A79597993F806E022736173DA79E67134
:1033B0004FF45C732946236084F80EE0E27304F056
:1033C000BFF83B4B1B68012B06D0BDE8F08109F02C
:1033D00037F8296A064610E72E48FDF71FFBF96CFF
:1033E00008F07AFF80462B48FDF740FB0146404637
:1033F00009F018FA0028E8D040F2C3332548EE71EE
:103400002B60FDF70BFBBE6C314609F00BFAC8B11F
:103410002849304609F068F809F052FA80B20312E0
:1034200068722B720023012604250322A672E5721E
:1034300022736373A373E3730E491348BDE8F0412D
:1034400004F07EB81348FDF7E9FA1A4909F04CF880
:1034500009F036FAC0F307230E482B72FDF7DEFAA7
:10346000144909F041F809F02BFA6872DAE700BF55
:103470000093FF1F0095FF1F6093FF1F0000204176
:10348000E094FF1F6492FF1FACB5FF1F3487FF1F3E
:103490003887FF1F8495FF1F0000C8421493FF1F49
:1034A0005C93FF1FD894FF1F2C87FF1F5487FF1FBB
:1034B000F094FF1F00007A4438B5164C164A236872
:1034C000101D12F8011F904241EA0323F9D1236035
:1034D000124C03F100432360114BDB6F022B11D020
:1034E000104B1B68012B00D038BD0F4807F054FC6F
:1034F00021680D4807F0A0FC03210C48BDE83840C6
:1035000007F00EB920680A4D08F09AFF2860FEF710
:10351000E9FFE5E7B894FF1F2B93FF1FDC94FF1F23
:103520006093FF1FA894FF1FDC87FF1F9C12010000
:103530007C92FF1F30B53C4C3C4883B0214603F0E1
:10354000F7FE236840F2C232934252D0A3F58C6258
:103550001F2A48D9A3F5FC630F2B3FD9344B1B68B6
:10356000012B01D003B030BD324B1B68012BF9D1C8
:10357000314B32481B6801930A220023019907F05E
:103580001BFC2268284B002ADB7945DB2C492D489F
:1035900009F072FF2B4809F0B3FF0146294807F0F4
:1035A000BFF82568204B15F0804526D1DB798BB11B
:1035B000631925491A7A234809F05EFF214809F06A
:1035C0009FFF01461F4807F0ABF80135E379EDB2E4
:1035D000AB42EDD8194807F0DFFBC3E712491B489F
:1035E000FDF7B4F9BAE710491848FDF7AFF92368B9
:1035F000B0E7FFF761FF2368A8E7154D114C0FCD29
:103600000FC495E8030044F8040B204620F8141971
:10361000152107F085F8DDE70E490A4822F06042DF
:1036200009F02AFFB6E700BF2493FF1FACB5FF1FC8
:103630003C87FF1FA894FF1F54B7FF1FDC87FF1FA5
:10364000C81201008092FF1FF41201008495FF1F31
:10365000DC120100A0120100A24B1B78052B00F028
:10366000A1802DE9F04FA04CA04EA14D626EE36DFC
:10367000A048326083B02B60FDF7ACFAE16A09F034
:10368000D1F808B100232B609A48FDF7A1FAA16A8E
:1036900009F0E6F810B1002333602B609548FDF780
:1036A000E5F9E16809F0DCF808B100232B609148E6
:1036B000FDF7DCF9E16809F0D3F808B100232B60CD
:1036C0008C48894FFDF7AAF9216909F0ABF8002869
:1036D0006ED0002333602B68854F002B53DD854867
:1036E000DFF80482FDF774FA216B09F09BF80028DB
:1036F00040F0C480804B7F481B687B4F012B00F05B
:10370000FD80FDF7B3F9E1698046606908F0E2FDEC
:103710000146404609F0A4F8002834D0286808F093
:103720008FFE82467348FDF7A1F9D7F814808346CF
:10373000F969404608F0CEFD8146386E08F080FEFB
:103740000446F86D08F07CFE214608F0C3FD4946AA
:103750000746584608F0BEFD0146384608F0C4FE4C
:1037600049460746404608F0B5FD0146384608F090
:103770006FFF214608F0B0FD0146504608F0AAFD53
:1037800009F078F828603368584A002BAFBF2B68DF
:103790002B6800211160002B01DA00232B6003B09D
:1037A000BDE8F08F5149524A00230B601360704707
:1037B0005048FDF733F9B96909F034F8002888D189
:1037C0003368DFF82891002B85DD4A48FDF702FABF
:1037D000796B09F045F8002840F0B3804548424F26
:1037E000FDF71CF9216909F03BF8002800F09F80E3
:1037F0004048DFF8F480FDF711F9D4F8BC10074613
:10380000A06908F069FD0146384609F00BF8002868
:103810003FF461AF306808F013FE82463548FDF78B
:10382000FDF88346D8F86400D8F8187008F008FE50
:1038300039468146584608F04DFD494683460020EA
:1038400008F048FD0146584608F04EFED8F8BC1076
:103850008346384608F040FD394608F03BFD0146F6
:10386000584608F0F5FE494608F036FD0146504638
:1038700008F030FD08F0FEFF30602CE7386808F0F3
:10388000DFFD83461B48FDF7A3F90190D8F85C00E3
:10389000D8F82CA008F0D4FD019B8146514618466B
:1038A00008F018FD49460190002008F013FD019B27
:1038B0000146184608F018FE51460190D8F830002D
:1038C00008F008FD019B0146184608F0C1FE494674
:1038D00008F002FD0146584608F0FCFC08F0CAFF5B
:1038E000386007E7D494FF1F6093FF1FE094FF1F29
:1038F0006492FF1F8495FF1F0093FF1FFDF7B6F82A
:10390000E1698046206A08F0E5FC0146404608F07F
:10391000A7FF00283FF437AF286808F091FD8246E2
:103920001E48FDF7A3F8D7F82080834600E71B4820
:10393000FDF774F8B96908F093FF00287FF458AFD9
:10394000C9E6D9F8000008F07BFD82461348FDF770
:1039500041F90190786ED7F8348008F071FD019B31
:1039600083464146184608F0B5FC0146584608F023
:10397000BBFD41468346B86A08F0ACFC0146584698
:1039800008F066FE002108F0A7FC0146504608F04A
:10399000A1FC08F06FFFC9F800001FE78495FF1F26
:1039A00008B5274807F0F8F90721264806F0B8FEC1
:1039B000112005F013F80621F8B1234806F0B0FEF7
:1039C000122005F00BF8062100B3204806F0A8FEEF
:1039D000122005F003F8062108B31D4806F0A0FEEA
:1039E000132004F0FBFF062110BB1A4806F098FED6
:1039F0001348BDE8084007F0CFB9174806F090FE1D
:103A0000122004F0EBFF06210028DED1134806F057
:103A100087FE122004F0E2FF06210028DDD11048C5
:103A200006F07EFE132004F0D9FF06210028DCD02A
:103A30000C4806F075FE0248BDE8084007F0ACB936
:103A4000DC87FF1F00130100081301001813010099
:103A5000281301004013010010130100201301007E
:103A6000301301003813010010B5254C2368042BD6
:103A700027DC01210B2004F0ABFF01210C2004F016
:103A8000A7FF0121142004F0A3FF0121152004F059
:103A90009FFFFF21162004F01BFEFF21172004F0DA
:103AA00017FEFF21052004F013FEFF21062004F07D
:103AB0000FFE236801330A2B2360C4BF0023236059
:103AC00010BD00210B2004F083FF00210C2004F026
:103AD0007FFF0021142004F07BFF0021152004F05B
:103AE00077FF0021162004F0F3FD0021172004F0D9
:103AF000EFFD0021052004F0EBFD0021D6E700BF1B
:103B0000F894FF1F10B5092182B09B4805F07CFA9C
:103B1000222005F021FA994BD3F8A030012B984BC5
:103B20001B7809D0052B10D8DFE813F007010C0132
:103B300016011B0111010B00002B00F01781052B52
:103B400003D107218F4805F05FFA222005F004FA1F
:103B5000FF2005F001FAFF2005F0FEF98A4CFF2056
:103B600005F0FAF90821894805F04EFA21688848DD
:103B700007F062F9FF2005F0EFF9FF2005F0ECF9FE
:103B8000FF2005F0E9F90921824805F03DFA216896
:103B90007F4807F051F9FF2005F0DEF9FF2005F01E
:103BA000DBF9FF2005F0D8F90C217B4805F02CFA51
:103BB0007A4B7B49186808F04BFD07F0EBFF0024B7
:103BC00002460B460094724807F03EF9FF2005F0CC
:103BD000C3F9FF2005F0C0F9FF2005F0BDF9092168
:103BE000704805F011FA7048FCF796FF07F0D2FF15
:103BF000009402460B46664807F026F9FF2005F0C0
:103C0000ABF9FF2005F0A8F9FF2005F0A5F90C217C
:103C1000664805F0F9F96448FCF7DCFF07F0BAFFE5
:103C2000009402460B465A4807F00EF9FF2005F0B3
:103C300093F9FF2005F090F9FF2005F08DF90D2193
:103C40005B4805F0E1F95848FCF7C2FF07F0A2FF16
:103C5000009402460B464E4807F0F6F8FF2005F0A8
:103C60007BF9FF2005F078F9FF2005F075F90921AF
:103C7000504805F0C9F94C48FCF71EFF4E4908F0C2
:103C800033FC07F087FF009402460B46404807F0DC
:103C9000DBF8FF2005F060F9FF2005F05DF9FF205B
:103CA00005F05AF90C21454805F0AEF93E48FCF7FD
:103CB000B5FE434908F018FC07F06CFF009402467B
:103CC0000B46334807F0C0F8FF2005F045F9FF2008
:103CD00005F042F9FF2005F03FF90D21394805F0C4
:103CE00093F93148FCF7C2FE354908F0FDFB07F0B7
:103CF00051FF009402460B46254807F0A5F8FF2027
:103D000005F02AF9FF2005F027F9FF2005F024F936
:103D100009212D4805F078F92C4B1D48196807F04A
:103D20008BF8FF2005F018F9FF2005F015F9FF20AA
:103D300002B0BDE8104005F00FB90621244805F097
:103D400063F902E70721234805F05EF9FDE60B2140
:103D5000214805F059F9F8E60721204805F054F903
:103D6000F3E608211E4805F04FF9EEE608211D484C
:103D700005F04AF9E9E600BF481301006093FF1F10
:103D8000D494FF1FCC1001003487FF1F6013010083
:103D9000BC87FF1F6C130100781301001493FF1FF1
:103DA0000000C842881301008495FF1F941301008E
:103DB000A4130100B413010000002041C01301004E
:103DC00000007A44D0130100E01301002487FF1F94
:103DD0009C100100A4100100AC100100B8100100FB
:103DE000C0100100541301002DE9F0418D4DD5F8AC
:103DF000B030042B3ED0032B6ED0012B00F0988006
:103E0000022B01D0BDE8F081874C8848237240F234
:103E10000E32012321462260E37103F091FB844BB3
:103E20001B685B00FF2BC8BFFF23042140224FF417
:103E300041702060E17122726372286D08F000FB0E
:103E4000696908F051FB7B49054608F009FD002827
:103E500000F0DE802946284608F03EFA08F030FDE2
:103E600080B20312E072A3726F497048BDE8F0415E
:103E700003F066BB6C4C704AA379226043F00103E7
:103E80000822E271A371286D08F0DAFA696908F076
:103E90002BFB6A4908F028FB08F012FD644B684AC6
:103EA0001B68126893FBF2F380B200261A12071205
:103EB000607221465D48E372A272277226736673B0
:103EC000A673E67303F03CFBA279D5F8B03066F335
:103ED0000002032BA27190D1534C286DA3720122D2
:103EE000E823072140F2FF26227263722660E17107
:103EF00008F0A6FA696908F0F7FA504908F0F4FAF0
:103F000008F0DEFC4A4B4E4A1B68126893FBF2F342
:103F100082B21E121712214644486373E27227735D
:103F2000A67303F00DFBD5F8B030012B7FF468AF1A
:103F3000444B3D4C1B682360072280231020E27114
:103F4000237204F04BFD002869D13F4B1B68DFF85A
:103F5000E0803B4F286D344E03EB83035B001A1265
:103F6000A3726272D8F800303A6893FBF2F31A1227
:103F70006273A37308F064FA696908F0B5FA334B09
:103F8000196808F0A7F92D4908F0AEFA08F098FC76
:103F900080B20312314620732448E37203F0D0FA52
:103FA000022004F051FD2A4B1B6823600722802366
:103FB0001020E271237204F011FD70BB224B1B68CC
:103FC000286D03EB83035B001A127272B37208F060
:103FD00037FA696908F088FA1E4B196808F07AF90F
:103FE000164908F081FA08F06BFC82B216123868A4
:103FF000D8F80030227393FBF0F30B490B48A373FE
:104000001A12E672627303F09BFAD5F8B030F7E645
:1040100001229023A272E37226E70F4BCFE70E4BEB
:1040200094E700BF6093FF1F0095FF1FACB5FF1F13
:104030006492FF1F00004843F4E506180000204189
:104040004C87FF1F6087FF1F4487FF1F3494FF1FAB
:104050006487FF1F1C93FF1F4887FF1F38B5164D4D
:10406000164A1748294603F0FFFF18B1154B1B6885
:10407000012B00D038BD12211348144C06F050FB20
:10408000296813480023102206F096FE104806F017
:1040900083FE04F1080514F8011F0D4800230A22CD
:1040A00006F08AFE092006F0BFFBA542F3D10848BE
:1040B000BDE8384006F070BE0893FF1F0C93FF1F49
:1040C0002095FF1F1C95FF1FEC1301000B93FF1F92
:1040D000DC87FF1FFA2810B504461BD0B0F5FA7F25
:1040E0000FD11021134804F085F8C8B10F211248F0
:1040F00006F016FB114806F04FFE114BA3F8C44022
:1041000010BD0F210F4806F00BFB0C48BDE8104016
:1041100006F042BE0F21074804F06CF80028E5D1F4
:104120001121094806F0FCFA0448BDE8104006F0E9
:1041300033BE00BF2095FF1F00140100DC87FF1F66
:104140006093FF1F241401001014010010B50146F4
:10415000044600230A22324806F02EFE304806F0BC
:104160001BFEB4F5964F48D029D9B4F5164F14D09C
:10417000B4F5E13F38D104212A4804F057F82A4B1E
:10418000C3F8C84005F07AFA40F2413005F018F95A
:104190002448BDE8104004F01DB80221214804F075
:1041A00045F8214BC3F8C84005F068FA40F6C41042
:1041B00005F006F91B48BDE8104004F00BB8B4F553
:1041C000165F11D10021174804F030F8164BC3F8E0
:1041D000C84005F053FA42F2107005F0F1F81148AA
:1041E000BDE8104003F0F6BF0F21104806F098FA22
:1041F0000B48BDE8104006F0CFBD0121094804F08E
:1042000015F8094BC3F8C84005F038FA41F2883078
:1042100005F0D6F80348BDE8104003F0DBBF00BF4F
:10422000DC87FF1F2095FF1F6093FF1F34140100E0
:10423000F0B5954C954D83B006F00CFA23682860D4
:10424000042B00F09E82022B29D0092B70D0082B62
:1042500040F09680322800F0EC83712800F09D80B9
:10426000312840F09E8006F031FA002840F3118793
:104270008748884E06F022FFC0B286F84000022828
:1042800094BF01460021726C834888BF86F84010B5
:10429000FCF716FC012369202360286018E3A0F1D5
:1042A0003102422A7DD8DFE812F07F078B07990799
:1042B000AB07F50704087C0011087C007C007C003B
:1042C0007C007C007C007C007C007C007C007C000E
:1042D0007C007C007C007C007C007C007C007C00FE
:1042E0007C007C007C007C007C007C007C007C00EE
:1042F0007C007C007C007C007C007C007C007C00DE
:104300007C007C007C007C007C007C007C007907C9
:104310007C007C007C007C007C007C007C007C00BD
:104320007C007C007C007C007C0078007C001E0807
:10433000332801F04C8410DC312801F07A843228D3
:104340002FD10123236006F0C1F9002815DD504864
:1043500006F0B4FEFFF7BEFE0FE034281BD10123A8
:10436000236006F0B3F9002807DD494806F0A6FEF1
:10437000642303FB00F0FFF7E9FE78202368286040
:10438000072B40F0AB80332801F02A8440F386826B
:10439000342801F05C84712803D10023732023604A
:1043A0002860732808BF002B0CBF012000200028C4
:1043B00067D0374806F0F0FC0421384806F0B0F921
:1043C000334806F0E9FC1021354806F0A9F93048D9
:1043D00006F0E2FC1321334806F0A2F9324B2C48D8
:1043E000196806F029FD2A4806F0D6FC14212F484A
:1043F00006F096F9264806F0CFFC1E212C4806F060
:104400008FF9234806F0C8FC15212A4806F088F9E0
:104410001F4806F0C1FC1E21274806F081F91C4800
:1044200006F0BAFC2021254806F07AF9184806F073
:10443000B3FC1921224806F073F9154806F0ACFCCC
:104440001621204806F06CF9114806F0A5FC12214F
:104450001D4806F065F90E4806F09EFC0F211B482A
:1044600006F05EF90A4806F097FC0D21184806F0A0
:1044700057F9074806F090FC164A00210123116005
:10448000236003B0F0BD00BFC494FF1F6092FF1F04
:10449000DC87FF1F6093FF1F8495FF1F641D0100D1
:1044A0006C1D0100801D01002487FF1F941D010069
:1044B000AC1D0100CC1D0100E41D0100041E010023
:1044C000281E0100441E01005C1E0100701E010038
:1044D000801E01003C87FF1F23682868062B40F0E0
:1044E0008D80A0F13102402A3FF65BAF01A151F867
:1044F00022F000BF39510000A5500000CF5000004D
:10450000F55000001B51000065510000895100006A
:10451000A3430000A3430000A3430000A343000003
:10452000A3430000A3430000A3430000A3430000F3
:10453000A3430000A3430000A3430000A3430000E3
:10454000A3430000A3430000A3430000A3430000D3
:10455000A3430000A3430000A3430000A3430000C3
:10456000A3430000A3430000A3430000A3430000B3
:10457000A3430000A3430000A3430000A3430000A3
:10458000A3430000A3430000A3430000A343000093
:10459000A3430000A3430000A3430000A343000083
:1045A000A3430000A3430000A3430000A343000073
:1045B000A3430000A3430000A3430000A343000063
:1045C000A3430000A3430000A3430000A343000053
:1045D000A3430000A3430000A3430000A343000043
:1045E000A3430000A3430000A3430000A343000033
:1045F000A34300009B43000023682868052B15D1C6
:10460000332801F04C8340F39181352801F0318348
:10461000C1F2568371287FF4C4AECF4A00237320C1
:10462000136023602860BCE623682868032B40F0F1
:10463000A480A0F13002422A3FF6B3AE01A151F8A6
:1046400022F000BF514700004B5A0000735A00008F
:10465000B7590000D9590000FB590000235A000047
:10466000D5580000F358000017590000A34300007C
:10467000A3430000A3430000A3430000A3430000A2
:10468000A3430000A3430000A3430000A343000092
:10469000A3430000A3430000A3430000A343000082
:1046A000A3430000A3430000A3430000A343000072
:1046B000A3430000A3430000A3430000A343000062
:1046C000A3430000A3430000A3430000A343000052
:1046D000A3430000A3430000A3430000A343000042
:1046E000A3430000A3430000A3430000A343000032
:1046F000A3430000A3430000A3430000A343000022
:10470000A3430000A34300003F590000FB530000F7
:10471000995900005D5900007B5900005358000072
:10472000B1530000D5530000A3430000A343000091
:10473000A3430000A3430000A3430000A3430000E1
:10474000A3430000A3430000C9580000A95800007B
:1047500005F0BCFF002841F333828048804E06F00C
:10476000ADFC01270346014662227E48736527603F
:104770002A60FCF7A3F923682868012B7FF411AEA7
:10478000A6E0A0F13002412A3FF60BAE01A151F89C
:1047900022F000BF95530000AD530000F752000017
:1047A0000F53000035530000795300003D530000C3
:1047B0004F5300005353000057530000A343000021
:1047C000A3430000A3430000A3430000A343000051
:1047D000A3430000A3430000A3430000A343000041
:1047E000A3430000A3430000A3430000A343000031
:1047F000A3430000A3430000A3430000A343000021
:10480000A3430000A3430000A3430000A343000010
:10481000A3430000A3430000A3430000A343000000
:10482000A3430000A3430000A3430000A3430000F0
:10483000A3430000A3430000A3430000A3430000E0
:10484000A3430000A3430000A3430000A3430000D0
:10485000A3430000A343000039530000A34300001A
:10486000A3430000A3430000A3430000A3430000B0
:10487000A3430000A3430000A3430000A3430000A0
:10488000A3430000A3430000A3430000A343000090
:10489000A3430000A34300009B430000312801F024
:1048A000B28132287FF47DAD05F010FF00287FF73C
:1048B00013AE2A482A4E06F001FC07F0C1FD2A4932
:1048C00007F012FE61230122F06322602B6018467C
:1048D000A0F15203262B01F26A81DFE813F0DE0813
:1048E0006809680968096809680968096809680940
:1048F000680968096809680968096809C1004C0BFA
:1049000088022503A5016809680968093A0268094F
:10491000490B68096809680968096809E3086809B2
:10492000680968096809680968093501312801F0D2
:10493000D58132287FF435AD05F0C8FE00287FF719
:1049400073AE0648064E06F0B9FB01226B23C6F88B
:104950009C0022602B600BE03493FF1FDC87FF1F5D
:104960006093FF1F8495FF1F6F12833A05F072FE5C
:1049700005F0ACFE0028F9D1914806F00DFA9048F8
:1049800006F00AFA8E4806F007FA8D4806F004FA97
:104990008B4806F001FA21218A4805F0C1FE8848BB
:1049A00006F0FAF91521884805F0BAFED6F89410F9
:1049B000834806F041FA0221844805F0B1FE8048A0
:1049C00006F0EAF91E21824805F0AAFED6F89C10EE
:1049D0007B4806F031FA03217E4805F0A1FE7848B5
:1049E00006F0DAF91E217C4805F09AFED6F89810F8
:1049F000734806F021FA724806F0CEF91D21774877
:104A000005F08EFED6F8A4106D4806F015FA6C4835
:104A100006F0C2F91E21724805F082FED6F8A810F1
:104A2000674806F009FA664806F0B6F905232360E0
:104A300027E505F04BFE002840F330836048694EBF
:104A400006F03CFB07F0FCFC674907F04DFD034610
:104A5000024696F840106548736419E405F0FAFDC3
:104A600005F034FE05460028F8D155485D4E06F0A5
:104A700093F9534806F090F9514806F08DF95048E3
:104A800006F08AF94E4806F087F91F21584805F0CC
:104A900047FE4B4806F080F91C21564805F040FEC1
:104AA000706A554907F020FD07F074F8009502463A
:104AB0000B46434806F0C8F90221504805F030FE85
:104AC0003F4806F069F923214D4805F029FEF06BB7
:104AD000494907F009FD07F05DF8009502460B46CD
:104AE000374806F0B1F90221444805F019FE344870
:104AF00006F052F91921434805F012FEB06B07F099
:104B000049F802250B46024600952D4806F09CF90F
:104B100029463D4805F004FE294806F03DF91921D3
:104B20003A4805F0FDFDB6F8B810254806F084F9BE
:104B30000321374805F0F4FD214806F02DF907233D
:104B400023609EE405F086FD05F0C0FD05460028C3
:104B5000F8D11B48234E06F01FF9194806F01CF93E
:104B6000174806F019F9164806F016F9144806F029
:104B700013F91221274805F0D3FD114806F00CF96E
:104B80000F4806F009F90E4806F006F919212248E7
:104B900005F0C6FD96F8C230002B41F0C28004211A
:104BA0001E4805F0BDFD064806F0F6F813211C4826
:104BB00005F0B6FD024806F0EFF80923236060E433
:104BC000DC87FF1F5C170100801701006C160100D5
:104BD0009817010048110100B8170100D81701000B
:104BE000F81701006093FF1F6F12833A8495FF1F2F
:104BF000B8160100D816010000007A4450150100D3
:104C0000F81601001C170100381701003C170100BD
:104C100058170100481E01006814010084140100A7
:104C2000F414010005F016FD05F050FD05460028BE
:104C3000F8D1A548A54E06F0AFF8A34806F0ACF8A9
:104C4000A14806F0A9F8A04806F0A6F89E4806F08C
:104C5000A3F811219E4805F063FD9B4806F09CF8DF
:104C600028219C4805F05CFD70699B4907F03CFCDD
:104C700006F090FF009502460B46934806F0E4F8D4
:104C80000221964805F04CFD8F4806F085F8162164
:104C9000934805F045FDF0698F4907F025FC06F0C3
:104CA00079FF00950B460246874806F0CDF80221B1
:104CB0008A4805F035FD844806F06EF8D6F8B03025
:104CC000002B32DD1D21874805F02AFDF06D07F02D
:104CD000B7FB854907F008FC06F05CFF0225024699
:104CE0000B460095784806F0AFF801217F4805F0A3
:104CF00017FD754806F050F81F217D4805F010FD9E
:104D0000306E07F09DFB784907F0EEFB06F042FF9E
:104D1000009502460B466C4806F096F80121734850
:104D200005F0FEFC684806F037F81121714805F0DF
:104D3000F7FCD6F8B030062B00F2E486DFE813F07B
:104D40002D073207280723071E071907DE0605F07F
:104D500081FC05F0BBFC05460028F8D15A485B4EA3
:104D600006F01AF8584806F017F8574806F014F8F5
:104D7000554806F011F8544806F00EF815215E4823
:104D800005F0CEFC504806F007F818215B4805F006
:104D9000C7FC2B460A2296F840104B4806F00CF848
:104DA000494805F0F9FF2821554805F0B9FC706C19
:104DB000494907F099FB06F0EDFE00950B460246C7
:104DC000414806F041F80221444805F0A9FC3E485C
:104DD00005F0E2FF13214B4805F0A2FC3A4805F02C
:104DE000DBFF08232360FFF74CBB05F033FC05F025
:104DF0006DFC0028F9D13448344E05F0CDFF32481F
:104E000005F0CAFF304805F0C7FF2F4805F0C4FF82
:104E10002D4805F0C1FF1F213B4805F081FC2A48C1
:104E200005F0BAFF1E21394805F07AFC264805F046
:104E3000B3FF1A21364805F073FCF36F022B01F023
:104E40007880032B01F06C80012B01F06080092138
:104E5000304805F065FC1C4805F09EFF14212E48E3
:104E60001A4F05F05DFCB16F174805F0E5FF1648D5
:104E700005F092FF1C21294805F052FCD6F880105D
:104E8000114805F0D9FF104805F086FF1C21244881
:104E900005F046FCD6F8AC100B4805F0CDFF0A48EB
:104EA00005F07AFFF56F25F00205012D00F0C487AB
:104EB0001321144805F034FC034805F06DFF02236C
:104EC0002360FFF7DEBA00BFDC87FF1F6093FF1F80
:104ED000D01D01005415010000007A445015010056
:104EE0008015010098150100CDCCCC3D941A01002D
:104EF000B8150100D81501002C1E0100081501008D
:104F000024150100F4140100541901007419010062
:104F1000941901000C1A0100181A0100301A01003E
:104F2000501A010005F096FB05F0D0FB0028F9D1DE
:104F3000BD48BE4D05F030FFBB4805F02DFFBA4817
:104F400005F02AFFB84805F027FFB74805F024FF11
:104F50001321B74805F0E4FBB34805F01DFF0D2110
:104F6000B44805F0DDFBB04805F016FF0F21B2484C
:104F700005F0D6FBB14BAC48196805F05DFFAA48B7
:104F800005F00AFF1321AE4805F0CAFBAD4BA64859
:104F9000196805F051FFA44805F0FEFE1221AA4849
:104FA00005F0BEFBA94BA048196805F045FF9E48D7
:104FB00005F0F2FE1121A64805F0B2FBA54B9A4878
:104FC000196805F039FF984805F0E6FE0E21A24861
:104FD00005F0A6FBD5F8A010934805F02DFF9248E8
:104FE00005F0DAFE19219D4805F09AFB9C4B8E488E
:104FF000196805F021FF8C4805F0CEFE1121994873
:1050000005F08EFB984B8848196805F015FF864817
:1050100005F0C2FE1021954805F082FB944B8248B2
:10502000196805F009FF804805F0B6FE1C2191487B
:1050300005F076FB904B7C48196805F0FDFE7A4838
:1050400005F0AAFE1E218D4805F06AFB95F8C130D7
:10505000002B00F0AC860D21894805F061FB7248F9
:1050600005F09AFE1521874805F05AFB864B6E48DD
:10507000196805F0E1FE6C4805F08EFE13218348A7
:1050800005F04EFB684805F087FE04232360FFF718
:10509000F8B9664E96F84000FFF7F1B82368286823
:1050A000FFF76EB905F012FB00287FF7A5AA5E484E
:1050B0005E4E06F003F807F0C3F9754907F0C8FA29
:1050C00065230122F06122602B60184600E405F0A0
:1050D000FDFA00287FF790AA5348544E05F0EEFFE2
:1050E00000EB8000430001226520F3652260286008
:1050F000FFF7EEBB05F0EAFA00287FF77DAA4A48E1
:105100004A4E05F0DBFF00EB8000430001226520E2
:10511000336622602860FFF7DBBB444AD2F8B03028
:105120000133052BC8BF0023C2F8B030012365202E
:1051300023602860FFF7CCBB05F0C8FA00287FF792
:105140005BAA3948394E05F0B9FF07F079F95049A3
:1051500007F07EFA65230122706122602B601846F9
:10516000FFF7B6BB05F0B2FA00287FF745AA2E4834
:105170002E4E05F0A3FF65230122C6F8B40022607D
:105180002B601846FFF7A4BB284B93F8C020002AD9
:1051900000F0C285002283F8C020C7E7FDF75AFF60
:1051A00023682868FFF751B8204EB36FB3FA83F332
:1051B0005B0901226320B36722602860FFF788BB88
:1051C0001A4ED6F88030B3FA83F35B0901226320CC
:1051D000C6F8803022602860FFF77ABB0123236085
:1051E00005F074FA002805DD0F48104E05F066FF43
:1051F000C6F8AC000123632023602860FFF768BB7A
:105200000123236005F062FA002807DD0648074EF7
:1052100005F054FF07F014F9C6F88C0063202860ED
:105220002368FFF714B800BFDC87FF1F6093FF1FE0
:10523000181801002C1801003C180100A894FF1F49
:105240004C1801001495FF1F60180100D094FF1F37
:1052500074180100FC94FF1F8818010098180100C1
:10526000BC94FF1FB41801003493FF1FC81801003D
:105270000493FF1FDC1801005C87FF1FFC1801006E
:105280001C1901003C1901001C95FF1FF4140100BA
:1052900000007A440123236005F018FA0028BDDDE0
:1052A0005D485E4E05F00AFF07F0CAF8C6F88800B0
:1052B000B4E70123236005F009FA0028AEDD564863
:1052C000564E05F0FBFEA6F8BA00A7E701232360BF
:1052D00005F0FCF900288DDD4F48504E05F0EEFE3C
:1052E000C6F8900086E74D4AD36F0133032BC8BF41
:1052F0000023D3677EE74A4A1368B3FA83F35B0956
:1053000001216420136021602860FFF7E1BA454A5B
:10531000454F1368002B0CBF012300234FF0010001
:105320001360206040F00E86034664222A606420E9
:10533000FEF78BBF3D4ADFE73D4ADDE701233D48ED
:105340002360FBF7D9FA3C4A23681060EDE73B4A3B
:10535000D2E73B4AD0E70123236005F0B7F90028E4
:1053600000F32E85374B1A68042AC4BF02221A6044
:1053700064232B602368DAE7284ED6F8A030B3FA0E
:1053800083F35B0901226420C6F8A0302260286004
:10539000FFF79EBA214E96F8C13001225340642097
:1053A00086F8C13022602860FFF792BA264AA3E748
:1053B00005F08CF900280DDD1748184E05F07EFE2B
:1053C00007F03EF8214907F043F9012262233062D9
:1053D00022602B6005F07AF900280EDD0E480F4E92
:1053E00005F06CFE07F02CF8184907F031F901229E
:1053F0006223C6F8BC0022602B6005F067F9002824
:1054000040F3DE830448054E05F058FE0122622376
:10541000B06622602B601DE0DC87FF1F6093FF1FDA
:105420001495FF1FD094FF1FC494FF1FFC94FF1F0F
:105430001C95FF1F8495FF1FBC94FF1F3493FF1F13
:105440000493FF1F5C87FF1FA894FF1F00007A448E
:1054500005F000F905F03AF905460028F8D1C248F0
:1054600005F09AFCC04805F097FCBF4805F094FC95
:10547000BD4805F091FCBC4805F08EFC1521BB48E9
:1054800005F04EF9B84805F087FC1421B84805F03E
:1054900047F9B54805F080FC1B21B64805F040F9F6
:1054A000B14805F079FC1321B34805F039F9AE484D
:1054B00005F072FCAC4805F06FFCAB4805F06CFCE5
:1054C0002021AE4805F02CF9F068AD4907F00CF842
:1054D00006F060FB009502460B46A34805F0B4FCBD
:1054E0000221A84805F01CF90221A74805F018F987
:1054F0009D4805F051FC2121A44805F011F93069BF
:105500009F4906F0F1FF06F045FB009502460B4669
:10551000954805F099FC02219A4805F001F902210D
:10552000994805F0FDF8904805F036FC1F21984891
:1055300005F0F6F8B06A06F02DFB022702460B468E
:105540000097894805F080FC0121924805F0E8F8B1
:1055500039468D4805F0E4F8834805F01DFC20210C
:105560008D4805F0DDF8F06A06F014FB009702465E
:105570000B467D4805F068FC0121864805F0D0F80F
:105580003946814805F0CCF8774805F005FC232121
:10559000824805F0C5F8B06C794906F0A5FF06F021
:1055A000F9FA009502460B466F4805F04DFC394666
:1055B000744805F0B5F83946734805F0B1F86A4803
:1055C00005F0EAFB1F21764805F0AAF8F06C6C495B
:1055D00006F08AFF06F0DEFA009502460B466248A6
:1055E00005F032FC3946674805F09AF839466648B6
:1055F00005F096F85C4805F0CFFB1921694805F0E5
:105600008FF8B16D584805F017FC3946664805F02B
:1056100087F839465C4805F083F8534805F0BCFB31
:105620001821624805F07CF8706E06F009FF6049A9
:1056300006F05AFF06F0AEFA009702460B464A48BB
:1056400005F002FC01215B4805F06AF839464E4836
:1056500005F066F8444805F09FFB2B21564805F0FD
:105660005FF8B069464906F03FFF06F093FA0095EF
:1056700002460B463C4805F0E7FB3946414805F039
:105680004FF83946404805F04BF8374805F084FBA1
:105690001F214A4805F044F8716D334805F0CCFBF2
:1056A0003946394805F03CF82F4805F075FB2021B4
:1056B000434805F035F8316D2B4805F0BDFB394600
:1056C000314805F02DF8284805F066FB10213D48CB
:1056D00005F026F8B16E244805F0AEFB394629489E
:1056E00005F01EF83946284805F01AF81E4805F05E
:1056F00053FB1321344805F013F8F16E1A4805F0F6
:105700009BFB0121314805F00BF839461E4805F096
:1057100007F8154805F040FB10212D4805F000F86A
:10572000316F114805F088FB3946164804F0F8FF40
:105730003946154804F0F4FF0B4805F02DFB142101
:10574000244804F0EDFF716F074805F075FB012157
:105750001E4804F0E5FF39460B4804F0E1FF02481B
:1057600005F01AFB162137E0DC87FF1F001B010044
:10577000181B0100301B0100F41401004C1B010038
:1057800000007A44501501000C130100701B010049
:10579000941B0100B41B0100B81B0100DC1B0100BD
:1057A000001C0100201C01003C1C0100401C0100E9
:1057B000CDCCCC3D941A01005C1C0100881C01007A
:1057C000A81C0100CC1C0100E01C0100F41C01001D
:1057D000F81C01000C1D0100BB4804F0A1FF306A59
:1057E000BA4906F081FE06F0D5F9009502460B464F
:1057F000B74805F029FB3946B64804F091FF394611
:10580000B54804F08DFFB24805F0C6FA2421B3482C
:1058100004F086FFD6F8BC00AC4906F065FE06F041
:10582000B9F900950B460246A94805F00DFB39462B
:10583000A84804F075FF3946A74804F071FFA44852
:1058400005F0AAFAA24805F0A7FA03232360FEF7A1
:1058500018BEFCF71FF802219F48A14E04F060FF1C
:105860009B4805F099FA02219B4804F059FF98489B
:1058700005F092FA0221984804F052FF944805F08E
:105880008BFA1721974804F04BFF914805F084FAF2
:105890000221914804F044FF8D4805F07DFA012271
:1058A000622322602B60D5E58F4B8B488C4E002203
:1058B00002211A6004F034FF854805F06DFA0B21CF
:1058C0008A4804F02DFFE3E70022732322602B6057
:1058D000FEF76FBD04F0FAFE002840F371817C48AA
:1058E0007F4E05F0EBFB01226223B06522602B6046
:1058F000B0E504F0EBFE002840F362817448784E76
:1059000005F0DCFB00EB800043000121622273669E
:1059100021602A609EE504F0D9FE002840F3508102
:105920006B486F4E05F0CAFB06F08AFD674906F02A
:105930008FFE01226223B06122602B608AE504F0B1
:10594000C5FE002840F33C816148654E05F0B6FB7A
:1059500001226223306522602B607BE504F0B6FEF5
:10596000002840F32D815A485D4E05F0A7FB012227
:105970006223306722602B606CE504F0A7FE0028EC
:1059800040F31E815248564E05F098FB01226223D7
:10599000706722602B605DE504F098FE002840F3FC
:1059A0000F814B484E4E05F089FB01226223F066C1
:1059B00022602B604EE504F089FE002840F3008150
:1059C0004348474E05F07AFB06F03AFD0122622378
:1059D000B06222602B603DE504F078FE002840F3C1
:1059E000EF803B483E4E05F069FB06F029FD0122A1
:1059F0006223F06222602B602CE504F067FE002831
:105A000040F3DE803248364E05F058FB06F018FDB4
:105A10002E4906F01DFE01226223B06422602B6035
:105A200018E504F053FE002840F3CA8028482C4EA5
:105A300005F044FB06F004FD244906F009FE0122AE
:105A40006223F06422602B6004E504F03FFE00282E
:105A500040F3B6801E48224E05F030FB06F0F0FC05
:105A60001A4906F0F5FD01226223F06022602B60E6
:105A7000F0E404F02BFE002840F3A2801448184EF6
:105A800005F01CFB06F0DCFC104906F0E1FD0122EC
:105A90006223306122602B60DCE4154B154A1A60EA
:105AA000FEF7EFBCD02200210D4802F0C5FC2868AB
:105AB000114AA0F1730001210023B0FA80F04009DF
:105AC00011602360FEF773BC241D010000007A44BE
:105AD000DC87FF1F501501000C1301003C1D010065
