:1000000000800020BD010000D18400008984000030
:1000100089840000898400008984000089840000AC
:10002000898400008984000089840000D184000054
:10003000D1840000898400004DA9000051AA00006D
:10004000D1840000D1840000D1840000D18400005C
:10005000D1840000D1840000D1840000D18400004C
:10006000D1840000D1840000D1840000D18400003C
:10007000D1840000D1840000D1840000D18400002C
:10008000D1840000D1840000D1840000D18400001C
:10009000D1840000D1840000D1840000D18400000C
:1000A000D1840000D1840000D1840000D1840000FC
:1000B000D1840000617700006D7700007177000047
:1000C0007D7700008177000085770000D1840000F3
:1000D000D1840000D1840000D1840000D1840000CC
:1000E000D1840000D1840000D1840000D1840000BC
:1000F000D1840000A5B20000D184000071910000FD
:10010000D1840000F5960000D1840000D184000065
:10011000D1840000D1840000D1840000D18400008B
:10012000D1840000D1840000D1840000D18400007B
:10013000D1840000D1840000D1840000D18400006B
:10014000D1840000D1840000D1840000D18400005B
:10015000D1840000D1840000D1840000D18400004B
:10016000D184000081990000D1840000D184000076
:10017000D1840000D1840000D1840000D18400002B
:10018000D1840000D1840000D1840000D18400001B
:10019000D1840000D1840000D1840000D18400000B
:1001A000D1840000D1840000D1840000D1840000FB
:1001B000D1840000D1840000D1840000564B4CF261
:1001C000205210B51A804DF628121A8000BF00BFC9
:1001D00008F082F9514B4FF010621A60504A9A6051
:1001E000504ADA60504A136813F4807304D14F49BF
:1001F0000B604FF4A85313604D4B1A78110703D5C9
:100200001A7842F008021A704A4B4B492A221A7097
:100210004A4A4B4B8B4204D252F8040F43F8040B6A
:10022000F8E7484B484900228B4202D243F8042B9E
:10023000FAE74649464A002352F8230041F82300D2
:1002400001336F2BF8D1434B434A802103F8011B44
:100250009342FBD1414B3D4A1A60414B8A221A70AE
:10026000A3F5805324225A70A0221A709A7992071B
:10027000FCD59A79D406FCD43A4A937903F00C035E
:10028000082B384BF9D103221A7140225A719A79FE
:100290009006FCD5334A9179324B4906FBD5324A58
:1002A000324911600221516020221A709A7902F0BD
:1002B0000C020C2AFAD12E4B2E4A1A602E4B2F4AD2
:1002C0001A6000225A60072243F8042C2C4AC3F813
:1002D0000C2D62B608F0B6FB144B1B68DA0705D587
:1002E000284808F093F9284B284A1A60284B1B78B5
:1002F0005B0609D5244C254B22689A4204D121483B
:1003000008F084F9002323600CF0B0FA08F0EAF852
:100310000AF088FEFEE700BF0E2005403080044052
:10032000823F04000100002B10D0034014D0034092
:1003300002D0074000E007403892FF1FB4250100BB
:100340002087FF1F3892FF1F48BAFF1F0082FF1F40
:100350000000000000E400E05FE400E008ED00E0E1
:100360000050064000400640448004400000030165
:1003700004800440C010050014E000E0FF76010096
:1003800000002020ACAFC95E1CE00340A5C3945A16
:1003900000F00740FFFFFFFFFFFFFFFFFFFFFFFF32
:1003A000FFFFFFFFFFFFFFFFFFFFFFFFFFFFFFFF5D
:1003B000FFFFFFFFFFFFFFFFFFFFFFFFFFFFFFFF4D
:1003C000FFFFFFFFFFFFFFFFFFFFFFFFFFFFFFFF3D
:1003D000FFFFFFFFFFFFFFFFFFFFFFFFFFFFFFFF2D
:1003E000FFFFFFFFFFFFFFFFFFFFFFFFFFFFFFFF1D
:1003F000FFFFFFFFFFFFFFFFFFFFFFFFFFFFFFFF0D
:10040000FFFFFFFFFFFFFFFFFFFFFFFFDEF9FFFF23
:1004100010B5054C237833B9044B13B10448AFF33E
:1004200000800123237010BD3892FF1F00000000E0
:10043000B0250100084B10B51BB108490848AFF3BF
:1004400000800848036803B910BD074B002BFBD0A0
:10045000BDE81040184700BF000000003C92FF1F9D
:10046000B02501003892FF1F00000000F0B4154FC6
:100470000024031F00F1800100F5827200F17C0668
:1004800043F8044FB34241F8047F4FF0000542F8AF
:10049000044FF5D100230C4A0C49C0F88C51C0F828
:1004A0009051C0F8B051C0F8A421C0F8AC21C0F8F8
:1004B000A81180F8B83180F8B93180F8D031F0BC9B
:1004C000704700BF0000A040000048430000C8C2C1
:1004D00038B590F8D0310B2B0546144607D8702953
:1004E00066D0E02931D0602900F09B8038BD7029AA
:1004F0003AD0E02929D06029F8D1137A507A1B022A
:1005000003F47063181805D00BF04AFF63490BF031
:100510009BFF6860A37AE07A1B0203F470631818EB
:1005200005D00BF03DFF5D490BF08EFFA860237BEB
:10053000607B1B0203F470631818D7D00BF030FFF8
:1005400056490BF081FFE86038BDE37BA07B03EBED
:1005500000200BF025FF52490BF076FF51490BF0BC
:100560006BFEC5F8900138BD137A507A1B0203F474
:10057000FE43181805D00BF013FF48490BF064FF39
:100580006861A07AE37A13EB002005D00BF008FF36
:1005900042490BF059FFA861207B637B13EB0020DD
:1005A000A4D00BF0FDFE3D490BF04EFFE86138BDD5
:1005B000137A507A1B0203F47063181805D00BF0FD
:1005C000EFFE36490BF040FF6861A37AE07A1B0228
:1005D000C34208D003F4706318440BF0E1FE2F49C6
:1005E0000BF032FFA861237B607B1B02C34208D063
:1005F00003F4706318440BF0D3FE28490BF024FF7A
:10060000E861A37BE07B1B02C3423FF46FAF03F4BE
:10061000706318440BF0C4FE20490BF015FF2862EC
:1006200038BD137A507A1B0203F4FE42C24208D04E
:1006300003F4706318440BF0B3FE18490BF004FF89
:100640006860A37AE07A1B02C34208D003F47063A7
:1006500018440BF0A5FE11490BF0F6FEA860237BB1
:10066000607B1B02C34208D003F4706318440BF094
:1006700097FE0A490BF0E8FEE860A37BE07B1B02D3
:10068000C3423FF433AF03F4706318440BF088FEA9
:1006900002490BF0D9FE286138BD00BF0AD7A33A42
:1006A000DDB504BD00001643D0F8DC01704700BF83
:1006B00090F8C001704700BF90F8BC01704700BFC0
:1006C00090F8C401704700BF90F8C801704700BFA0
:1006D000202994BF50F82100002070472DE9F041F7
:1006E0000B4E8046041F00F17C0754F8045F31462E
:1006F00028460CF047F830B1D8F8B41128460CF071
:100700005FF800B12E46BC42EFD13046BDE8F08123
:10071000000020412DE9F041D0F8B4714FF00008FD
:10072000041F00F17C0654F8045F394628460CF09B
:1007300047F8084948B128460CF024F8414620B152
:1007400028460CF03DF800B1A846B442EBD1404633
:10075000BDE8F0810000A0402DE9F0470023D0F86B
:10076000B471C0F8DC3182461C464FF0000998464F
:10077000061F56F8045F384629460CF003F80E4968
:1007800060B128460BF0FEFF40B1484629460BF009
:1007900053FD08F101088146CAF8DC410134202CE0
:1007A000E7D1CAF8D48140460BF0FAFD014648462D
:1007B0000BF0FEFEBDE8F08700007042D0F8D401D7
:1007C000704700BFD0F89001704700BFD0F890018B
:1007D000704700BFD0F89001704700BF2DE9F84383
:1007E0004FF00008D0F8B471C0F88C818146041F26
:1007F00000F17C0654F8045F394628460BF0E0FF10
:10080000084950B128460BF0BDFF30B1404629469B
:100810000BF012FD8046C9F88C01B442EAD1404683
:10082000BDE8F8830000704202299ABF643150F895
:1008300021000020704700BF102998BF80F8D01118
:10084000704700BF90F8B801704700BFC0F8CC11E6
:10085000704700BF80F8B811704700BF80F8B91129
:10086000704700BF30B5C0F8B41183B008460BF034
:1008700041F9074C022502460B46009520460AF036
:1008800093FA204603B0BDE830400AF035BA00BF05
:10089000DC87FF1F70B500F500550646183500F1DE
:1008A0003804204604F5F074FFF7E0FDAC42F8D1BF
:1008B00006F50675012428460021FFF7CBFF2146E7
:1008C00028460134FFF7B8FF112C05F5F075F2D179
:1008D00042F2200400250548054A064B3555002103
:1008E00030627162B262F362304670BD00007A44D9
:1008F000000048430000C8C242F224032DE9F04141
:10090000002200F5F15500F500578046C250183519
:10091000243700F5067403E004F5F074AC420ED001
:100920002046FFF78FFF0028F6D020463E68FFF7ED
:1009300045FF04F5F0743044AC423860F0D142F227
:10094000240358F80300BDE8F08100BF70B50E46DF
:100950000121356805F00F040C44C4EB041400EBCE
:10096000441000F138042046FFF774FF20460121AF
:10097000FFF774FF3246204605F0F001BDE87040F5
:10098000FFF7A6BD70B5002300F5005605460361CC
:10099000183600F5067403E004F5F074A64223D07F
:1009A0002046FFF74FFF0028F6D02046FFF716FF3E
:1009B000014628690BF040FC28612046FFF702FF42
:1009C000A96A0BF0DFFE20BB2046FFF7FFFEE96AB5
:1009D0000BF0F6FE0028DFD02046FFF7F7FE04F507
:1009E000F074A642E862DBD168690BF0D9FC0146DD
:1009F00028690BF0DDFD696A286104460BF0E0FE12
:100A000000B16C62296A20460BF0BCFE00B12C627A
:100A100070BD2046FFF7D6FEA862D5E770B5124B31
:100A2000836100F500550646183500F5067403E0AD
:100A300004F5F074AC4214D02046FFF703FF002801
:100A4000F6D02046FFF74AFEB1690BF09BFE002866
:100A5000EED02046FFF742FE04F5F074AC42B061E0
:100A6000EAD1B06970BD00BF0000A04070B500239E
:100A700000F500550646C361183500F5067403E01D
:100A800004F5F074AC4214D02046FFF7DBFE0028DA
:100A9000F6D02046FFF73EFEF1690BF091FE0028EC
:100AA000EED02046FFF736FE04F5F074AC42F0615C
:100AB000EAD1F06970BD00BF0069704741617047BD
:100AC000F8B50F46164600F50674012504E0013519
:100AD000112D04F5F0741BD02046FFF7B3FE00285B
:100AE000F5D029460B480AF057F90A480AF004F9EC
:100AF000782009F049FE20463946FFF7A7FE013568
:100B000020463146FFF7AEFE112D04F5F074E3D117
:100B1000F8BD00BFDC87FF1F42F21C032DE9F04146
:100B2000002200F50055C2502F46274A274B42634A
:100B300006464FF00008036318351C3700F50674AD
:100B400003E004F5F074AC422ED02046FFF77AFEA5
:100B50000028F6D02046FFF73DFE00210BF030FEC6
:100B60000028EED03B6801333B602046FFF732FEA1
:100B7000014640460BF060FB80462046FFF726FE0C
:100B8000316B0BF01DFED0B92046FFF71BFE716BD9
:100B90000BF0F8FD0028D4D02046FFF713FE04F533
:100BA000F074AC427063D0D142F21C03F0580BF0E9
:100BB000F7FB014640460BF0FBFCBDE8F081204608
:100BC000FFF704FE3063DFE700C0794400C079C45A
:100BD000006B7047406B7047F8B500F5005507464D
:100BE0000026183500F5067403E004F5F074AC42F5
:100BF00010D02046FFF726FE0028F6D02046FFF74B
:100C0000ABFD014630460BF017FB04F5F074AC4227
:100C10000646EED142F21C03F8580BF0C1FB014628
:100C200030460BF0C5FCF8BD2DE9F04F93B00446FB
:100C30000F91002A40F0D78115461046C84900F0B0
:100C4000E5FDC749284600F0E1FDC549284600F00A
:100C5000DDFD42F21C03204654F803B0FFF74CFEC2
:100C60008146206966690AF045FFCDE910012046FA
:100C7000FFF7B2FF82462046A769D4F81C80FFF731
:100C80004BFF0AF037FFCDE90C01394640460BF027
:100C9000D1FAB4490BF0D8FB0AF02CFFCDE90A01D8
:100CA00040460AF027FFCDE9080138460AF022FF46
:100CB000CDE9060150460AF01DFFDDE91023CDE91C
:100CC0000401CDE90223A84900964B465A4628461E
:100CD00000F09CFDA249284600F098FD04F506743A
:100CE0004FF0010ADDF83C9007E00AF1010ABAF181
:100CF000100F04F5F07400F0F7802046FFF7A2FD16
:100D00000028F2D02046FFF7D3FC2046FFF7D4FCA2
:100D10002046FFF7D5FC2046FFF7D6FC0821934874
:100D200009F0AEFC514692480AF036F8BAF1090FC4
:100D300003DC01218F4809F0A3FC02218E4809F051
:100D40009FFC2046FFF74AFD0AF0D4FE5FFA89F8BF
:100D500002460B46CDF8008085480AF025F80121AF
:100D6000864809F08DFC2046FFF79EFC0C2800F316
:100D7000BE8001261EE00621814809F081FC29463B
:100D80007B480AF009F802217E4809F079FC3146D7
:100D90002046FFF79DFC0AF0ADFECDF8008002462C
:100DA0000B4673480AF000F8012174483D460E4492
:100DB00009F066FC2046FFF777FC864205F1010743
:100DC0006BDC092DD7DC01216A4809F059FCD2E718
:100DD0002046FFF769FC172800F3BE8035460D2634
:100DE0001CE009F04DFC2946614809F0D5FF0221BD
:100DF000644809F045FC31462046FFF769FC0AF0DB
:100E000079FECDF8008002460B46594809F0CCFF28
:100E100001215A483D460E4409F032FC2046FFF7B6
:100E200043FC86424FF00601554805F10107D8DD25
:100E30000F21554809F024FC4D4809F05DFF20467C
:100E4000FFF732FC192828DD19261CE009F018FCF0
:100E50002946474809F0A0FF02214A4809F010FC42
:100E600031462046FFF734FC0AF044FECDF80080FE
:100E700002460B463E4809F097FF01213F483D4698
:100E80000E4409F0FDFB2046FFF70EFC86424FF0B2
:100E900006013B4805F10107D8DD0F213A4809F06A
:100EA000EFFB334809F028FF0921384809F0E8FB37
:100EB00000212046FFF7B8FC0AF01CFE022602467D
:100EC0000B4600962A4809F06FFF0F212E4809F0C3
:100ED000D7FB0AF1010A264809F00EFFBAF1100FFC
:100EE00004F5F0747FF409AF13B0BDE8F08F2F461E
:100EF000012620E00621224809F0C2FB39461C48A1
:100F000009F04AFF02211F4809F0BAFB314620468A
:100F1000FFF7DEFB0AF0EEFDCDF8008002460B463F
:100F2000134809F041FF01360121144809F0A8FBDC
:100F30000C2E09D05F46092F07F1010BDADC0121E5
:100F40000C4809F09DFBD5E72046FFF7ADFB0C28C8
:100F500005F10B063FF73CAF16350D273AE000BF11
:100F6000781F010000007A44A00C0100400D010030
:100F7000DC87FF1F380F0100401201004C0D0100FB
:100F8000500D0100280F0100580D0100680D0100EF
:100F90000621BD4809F074FB3146BC4809F0FCFE4F
:100FA0000221BB4809F06CFB39462046FFF790FB55
:100FB0000AF0A0FDCDF8008002460B46B34809F0C8
:100FC000F3FE0121B3480F4409F05AFB5D453FF49D
:100FD0002FAF5E46092E06F1010BD9DC0121AE4888
:100FE00009F04EFBD4E7AD49012000F00FFCAB49FE
:100FF000012000F00BFCA949012000F007FC42F29F
:101000001C032046E2581092FFF776FC82462069C6
:1010100066690AF06FFD804620468946FFF7DCFDD1
:1010200083462046A569E769FFF776FD0AF062FD71
:10103000CDE90C01294638460BF0FCF898490BF035
:1010400003FA0AF057FDCDE90A0138460AF052FDCD
:10105000CDE9080128460AF04DFDCDE906015846C4
:101060000AF048FD5346CDE90401CDE90289109A02
:101070008C490096012000F0C9FB8849012000F04E
:10108000C5FB04F506744FF0010A0025DDF83C901D
:1010900007E00AF1010ABAF1100F04F5F0743FF409
:1010A00023AF2046FFF7CEFB0028F2D02046FFF703
:1010B000FFFA2046FFF700FB2046FFF701FB204622
:1010C000FFF702FB0821784807F04EFF51467748AA
:1010D00009F062FEBAF1090F03DC01216E4807F046
:1010E00043FF0221724807F03FFF2046FFF776FBDF
:1010F0000AF000FD5FFA89F802460B46CDF8008041
:101100006A4809F051FE0121624807F02DFF204690
:10111000FFF7CAFA0C2800F3B48001261EE006216E
:10112000594807F021FF2946604809F035FE0221A1
:10113000574807F019FF31462046FFF7C9FA0AF071
:10114000D9FCCDF8008002460B46584809F02CFE29
:10115000012150483D460E4407F006FF2046FFF7A8
:10116000A3FA864205F101076BDC092DD7DC0121CA
:10117000494807F0F9FED2E72046FFF795FA17280D
:1011800000F3CE8035460D261CE007F0EDFE294623
:10119000464809F001FE02213D4807F0E5FE3146D0
:1011A0002046FFF795FA0AF0A5FCCDF8008002462C
:1011B0000B463E4809F0F8FD012136483D460E44F5
:1011C00007F0D2FE2046FFF76FFA86424FF0060185
:1011D0002D4805F10107D8DD0F21364807F0C4FE80
:1011E000324809F089FD2046FFF75EFA192828DD0C
:1011F00019261CE007F0B8FE29462C4809F0CCFD62
:101200000221234807F0B0FE31462046FFF760FA7E
:101210000AF070FCCDF8008002460B46234809F026
:10122000C3FD01211B483D460E4407F09DFE2046AC
:10123000FFF73AFA86424FF00601134805F101071D
:10124000D8DD0F211B4807F08FFE184809F054FD28
:101250000921194807F088FE00212046FFF7E4FA2B
:101260000AF048FC022602460B4600960F4809F099
:101270009BFD0F210F4807F077FE0C4809F03CFD5D
:1012800007E72F4601263AE0500D0100DC87FF1FDB
:10129000280F01004C0D0100380F0100781F0100DC
:1012A00000007A44A00C0100400D0100BC87FF1F24
:1012B00040120100580D0100680D010006212F4861
:1012C00007F052FE39462E4809F066FD02212D48EE
:1012D00007F04AFE31462046FFF7FAF90AF00AFC09
:1012E000CDF8008002460B46254809F05DFD013629
:1012F0000121254807F038FE0C2E09D05F46092F42
:1013000007F1010BDADC0121204807F02DFED5E7BB
:101310002046FFF7C9F90C2805F10B063FF72CAF63
:1013200016350D2721E00621144807F01DFE314631
:10133000134809F031FD0221124807F015FE394625
:101340002046FFF7C5F90AF0D5FBCDF8008002462C
:101350000B460B4809F028FD01210B480F4407F00C
:1013600003FE5D453FF438AF5E46092E06F1010BE2
:10137000D9DC0121054807F0F7FDD4E7500D010045
:10138000BC87FF1F280F01004C0D0100380F010022
:101390002DE9F04F85B000F506758A4603929B460D
:1013A0002E464FF0010806E008F10108B8F13F0FA2
:1013B00006F5F0767BD03046FFF744FA0028F3D0EC
:1013C00000230A2251467D4809F0A6FC01217C48F1
:1013D00009F056F903980AF08DFB002302460093AA
:1013E00076480B4609F0E0FC0121754809F048F900
:1013F0005946724809F0D0FC0121714809F040F9C2
:1014000041466E4809F0C8FC01216D4809F038F9E1
:1014100000244FF0020921463046FFF759F90AF03F
:1014200069FBCDF8009002460B46644809F0BCFC0D
:1014300001340121624809F023F9082C4FF002071A
:10144000E9D100213046FFF7EFF90AF053FB00978E
:1014500002460B46594809F0A7FC0121584809F0FB
:101460000FF901213046FFF7DFF90AF043FB00973F
:1014700002460B46514809F097FC0121504809F0FB
:10148000FFF839463046FFF7CFF90AF033FB0097F3
:1014900002460B46494809F087FC08F10108474815
:1014A00009F02AFCB8F13F0F06F5F07683D1012749
:1014B0004FF0000904E001373F2F05F5F07579D0B2
:1014C0002846FFF7BFF90028F5D000230A2251462D
:1014D0003C4809F021FC0121394807F045FD0398FB
:1014E0000AF008FBCDF8009002460B46354809F09B
:1014F0005BFC0121324807F037FD5946314809F0BD
:101500004BFC01212E4807F02FFD39462D4809F0EC
:1015100043FC01212A4807F027FD00244FF0020870
:1015200021462846FFF7D4F80AF0E4FACDF8008007
:1015300002460B46234809F037FC013401212048BC
:1015400007F012FD082C4FF00206E9D100212846D1
:10155000FFF76AF90AF0CEFA009602460B461948E0
:1015600009F022FC0121164807F0FEFC0121284663
:10157000FFF75AF90AF0BEFA009602460B461148E8
:1015800009F012FC01210E4807F0EEFC3146284616
:10159000FFF74AF90AF0AEFA009602460B460948F0
:1015A00009F002FC0137074809F0A6FB3F2F05F5BB
:1015B000F07585D105B0BDE8F08F00BFDC87FF1F57
:1015C000740D0100BC87FF1F70B5044608460D4628
:1015D0000BF036FF23680246294620465B68BDE8CB
:1015E00070401847014B1870704700BF2087FF1FDD
:1015F000F0B51546027883B062B103460E46252A3F
:1016000016D018781C4685B909F0BEF86278631CBC
:10161000002AF4D1002D5CD0744803B0BDE8F0403E
:1016200009F06ABB1046002DEED007F045FCEDE74F
:1016300058785C1C0028EDD02528F3D073282FD0D3
:10164000642825D0692823D0662848D07A2853D02A
:1016500078285ED0582800F08580622800F09180BC
:10166000422866D06C2813D0632811D0742800F06B
:1016700098805428C7D133680436002D40F0A480E8
:10168000012B00F0A8800521594808F0F9FFBDE7BB
:10169000331D316885B957481E4609F07DFBB5E713
:1016A000371D3668304665B90BF0CAFE0146304634
:1016B0003E4608F0E5FFA9E74C481E4609F06CFBE2
:1016C000A4E70BF0BDFE014630463E4607F04CFC59
:1016D0009CE7484803B0BDE8F04009F00DBB073671
:1016E00026F007060321D6E90023009165B9414899
:1016F000083609F059FB89E7073626F00706D6E9D0
:10170000002385B1002100913848083609F04CFBD0
:101710007CE7371D3168F5B90023102235483E4675
:1017200009F0FAFA72E700953248083609F03CFBF6
:101730006CE7022130487DBB08F0A2FF3168371DFD
:101740002B4602222B483E4609F0E6FA5EE707F0F8
:101750000BFC3168371D0023102224483E4609F057
:10176000DBFA53E702212548002DF0D108F088FF6D
:10177000371D31681F482B4610223E4609F0CCFA2F
:1017800044E7371D3168002DDAD0002302221748C4
:101790003E4609F0C1FA39E707F0E6FB371D31682C
:1017A000F3E7316804363DB901290EBF14481548E6
:1017B000012108F065FF29E701290EBF10481148F3
:1017C000012107F0D1FB21E7012B09D005210848B1
:1017D00007F0CAFB1AE70C490648FFF7F5FE15E7C4
:1017E00009490248FFF7F0FE10E700BFBC87FF1F62
:1017F000B40D0100DC87FF1FA00D01009C0D01004E
:10180000A40D0100A80D0100AC0D01000EB400B53F
:1018100082B003A9024651F8040B0191FFF7E8FEDC
:1018200002B05DF804EB03B0704700BF30B4074D61
:10183000074C084900232B702360036543658365CB
:1018400080F85C300B6030BC704700BF5C92FF1FBB
:101850005892FF1F5492FF1F0A4A0B49906D536D17
:1018600003FB00F34FF47A7000FB03F0642310B520
:101870000B600AF095FD0549054C0AF099FE2060C1
:1018800010BD00BF6093FF1F3487FF1FE4388E3EFA
:101890002093FF1F2DE9F0414449454F454D464EE9
:1018A000464C0020FFF7B2FF454B464A46485A6077
:1018B000DF601222002745491A701861444A4548E2
:1018C0005D615E62444D9C614FF07C56434C1F63EA
:1018D000434F9962DA62434958630C2242489D6340
:1018E0005E6440F61C450A269C641F6241F20404B3
:1018F0003E4FD9641A6502210122C3F8B8009D66E3
:1019000000206425DE661C674FF496763224DF6182
:10191000DF635A27597059721A725A6583F840006A
:101920009D655E66DE651C665F67C3F89440C3F81C
:10193000A0408C244FF47A78DFF8B4C09867D96758
:10194000C3F88000DFF8ACE0C3F89C00FF27C3F8C1
:10195000A820C3F8AC10052641F28831C3F8B05076
:1019600083F8BC204FF4FA7583F8BD2083F8BE20BD
:101970004FF4964040F2D66283F8C840C3F898808E
:10198000C3F888C0C3F88CE0C3F8A470A3F8B660AD
:10199000A3F8C050C3F8C400C3F89010A3F8B41063
:1019A000A3F88420A3F88620BDE8F081BC0D0100D7
:1019B0006666864033338340CDCCCC3DCDCC4C40A5
:1019C0006093FF1F48E80100000040400000824291
:1019D000000020C1000020420000A0409A997940F8
:1019E000333373400AD7233D9A99993ECDCC4C3E70
:1019F0000000684200C02044F0B54FF47A6085B022
:101A000006F0D2FF0021112006F0A6FF00211020D1
:101A100006F0A2FF0021122006F09EFF00211320F5
:101A200006F09AFF01210B2006F096FF01210C2001
:101A300006F092FF0121142006F08EFF01211520EF
:101A400006F08AFF0121162006F086FF01211720EB
:101A500006F082FF0121052006F07EFF914C924D99
:101A60000121062006F078FF01210D2006F074FF09
:101A700020880AF091FC0146162006F0D7FE208847
:101A80000AF08AFC0146172006F0D0FE20880AF0F2
:101A900083FC0146052006F0C9FE20880AF07CFC84
:101AA00000240146062006F0C1FE009423467F4A2A
:101AB0007F49804805F0FCFAE6B232467A497D4813
:101AC00005F0A4FA2B7978497A486FF300030134C2
:101AD00032462B7105F090FA082CEDD10924E6B2BC
:101AE00032467149734805F091FA2B796E49714875
:101AF00043F00103013432462B7105F07DFA0D2CC1
:101B0000EDD16D4C23681021D3F8840005F0A2FFBD
:101B100023681021D3F8840006F030F823680221EE
:101B2000D3F8840005F0ECFE23680221D3F884008A
:101B300006F074F823680F21D3F8840006F05CF9EE
:101B40000C215E4808F09CFD5D4809F0D5F816218F
:101B50005C4808F095FD5A4809F0CEF840F28360E1
:101B600006F0E0FF564809F0C7F81721564808F07C
:101B700087FD534809F0C0F8544B1B789A0600F1D2
:101B8000BF80524B1B781B0700F1C6804F4B1B7860
:101B90005F0700F1CD804D4B1B789E0700F1D4808C
:101BA0004B4B1B781D0600F1DB80494B1B785C0614
:101BB00000F1E280464B1B78980600F1E980444B27
:101BC0001B78590700F1F080414B1B781A0700F190
:101BD000F7803F4B1B789B0700F1FE80384809F0E7
:101BE0008BF872B63B4A4CF220504DF6281110800B
:101BF00020231180013BFDD1374C38483849002360
:101C00004FF48055258003800B8032F80E3C9BB248
:101C100043F0D30322F80E3C62B618213148324D0E
:101C200008F02EFD264809F067F805F1CC062F468E
:101C30002C46601B06F096FB04F8010BA642F8D177
:101C40003B78122B01D0FFF725FED7F8C4004308DC
:101C500003F1B76303F55843B3FBF0F007F060FB03
:101C60000420FFF7BFFC214B002201210D201A6048
:101C700006F05EFE796D1E48FEF720FF7A6C97F83D
:101C800040101B48FEF71CFF1A4B1B491A680392B1
:101C900003981B680293029A184B08601A6005B0FB
:101CA000F0BD00BF2887FF1F3894FF1F44B7FF1FF8
:101CB00048E80100A8B5FF1FE494FF1FDC0D0100F8
:101CC000DC87FF1FEC0D0100040E010001F007404E
:101CD00000F007400E200540042005400620054086
:101CE00016200540080F01006093FF1F7092FF1F30
:101CF0008095FF1F50B7FF1F1495FF1F4094FF1FD3
:101D00002121394808F0BCFC384808F0F5FF384B71
:101D10001B781B077FF53AAF0C21364808F0B0FC62
:101D2000324808F0E9FF324B1B785F077FF533AF8D
:101D30000E21314808F0A4FC2C4808F0DDFF2C4BA4
:101D40001B789E077FF52CAF17212C4808F098FCD4
:101D5000264808F0D1FF2A4B1B781D067FF525AFDA
:101D60000E21284808F08CFC204808F0C5FF244BC1
:101D70001B785C067FF51EAF1221234808F080FC1B
:101D80001A4808F0B9FF1E4B1B7898067FF517AF6D
:101D900013211E4808F074FC144808F0ADFF184BDE
:101DA0001B7859077FF510AF1C21194808F068FC13
:101DB0000E4808F0A1FF124B1B781A077FF509AFF8
:101DC0001921144808F05CFC084808F095FF0C4BFA
:101DD0001B789B077FF502AF18210F4808F050FCD5
:101DE000024808F089FFF9E61C0E0100DC87FF1F9E
:101DF00001F00740400E0100500E0100600E01008E
:101E000000F00740780E0100880E01009C0E0100D2
:101E1000B00E0100D00E0100EC0E010070B5464C72
:101E2000464D4748E66800232B70FEF71FFE01462B
:101E300030460AF0A7FC08B104232B704048FEF797
:101E4000EDFD21690AF09EFC18B12B7843F01003D8
:101E50002B703B48FEF7BCFEA16A0AF0B1FC18B13A
:101E60002B7843F040032B70002335486B70FEF74E
:101E7000B1FEE16A314E0AF085FC08B101237370AE
:101E800000232F48EB70FEF7F1FD05462C482B4E42
:101E9000FEF7C4FD014628460AF0CCF9E16B0AF0D2
:101EA0008FFC08B10123F370264D254800232B70C9
:101EB000FEF7DCFD616A0646E0680AF0BBF9014600
:101EC00030460AF07DFC08B104232B701C48FEF755
:101ED000A5FD616A064620690AF0AEF90146304662
:101EE0000AF050FC18B12B7843F010032B70144803
:101EF000FEF76EFEA16B0646A06A0AF09BF901464A
:101F000030460AF05DFC18B12B7843F040032B708B
:101F100000230B486B70FEF75DFEA16B0546E06A7F
:101F2000084C0AF089F9014628460AF02BFC08B152
:101F30000123637070BD00BF6093FF1F5C93FF1FA0
:101F40008095FF1FD494FF1F2DE9F0417C4C23683E
:101F5000012B82B031D0022B00F0A880032B00F0BF
:101F6000C8803BBB774B784AD3F8A010D3F8A43095
:101F700012685B1A632B0EDD744803FB02F380FBCF
:101F80000302DB17C3EB62131944062002B0BDE85D
:101F9000F04106F04DBB6E4803FB022380FB0302B9
:101FA000DB17C3EB22121144062002B0BDE8F0415A
:101FB00006F03EBB02B0BDE8F081664E33680A33DE
:101FC000B3F57A7F00F3B780184633600AF0E8F97A
:101FD00061490AF039FA80465A4DD5F8A0000AF056
:101FE000DFF90746D5F8A4000AF0DAF939460AF015
:101FF00021F941460AF028FA58490AF0D9FA394637
:102000000AF01AF90AF0E6FB0146062006F010FB7A
:102010000221534808F034FB524808F06DFE0621B7
:10202000514808F02DFB30680AF0BAF94A490AF025
:102030000BFA09F05FFD022702460B46009749485C
:1020400008F0B2FE0D21494808F01AFBD5F8A000AF
:102050000AF0A6F9804630680AF0A2F93E490AF073
:10206000F3F90646D5F8A4000AF09AF941460AF0B9
:10207000E1F8014630460AF0E7F938490AF098FAE3
:1020800041460AF0D9F809F035FD00970B460246A3
:10209000344808F089FE3946314808F0F1FA3148F1
:1020A00008F02AFE2368022B7FF458AF294B254EF7
:1020B00000221A60D6F8A0000AF072F90546D6F898
:1020C000A4000AF06DF929460AF0B4F800210AF0DC
:1020D000BBF922490AF06CFA29460AF0ADF80AF079
:1020E00079FB0146062006F0A3FA2368032B7FF450
:1020F00038AF184B134E4FF47A721A60D6F8A0001E
:102100000AF04EF90546D6F8A4000AF049F9294626
:102110000AF090F811490AF097F910490AF048FAC4
:1021200029460AF089F80AF055FB0146062006F018
:102130007FFA236815E700234FF0000833604BE770
:102140003493FF1F6093FF1F3487FF1F1F85EB51E0
:10215000CBF08D287492FF1FCDCCCC3D0000C8423F
:1021600040120100DC87FF1F240F01002C0F01002B
:1021700070B5B848B84C08F0BFFDB64808F0BCFDD3
:10218000B44808F0B9FD0D21B44808F079FAD4F844
:102190009C30012B11D0B24CAE48217800230A228A
:1021A00008F0BAFD2378052B67D8DFE813F00B01A0
:1021B000100115011A011F0101010921A94808F0A8
:1021C0005FFAA948FEF72AFC21690AF0DBFA18B188
:1021D0000F21A64808F054FAA348FEF747FCE1682F
:1021E0000AF0EEFA18B10E21A14808F049FA9E480B
:1021F000FEF73CFC05469C48FEF710FC01462846CD
:102200000AF018F8E16B0AF0DBFA18B111219948CD
:1022100008F036FA9448FEF77FFCA16A0AF0D0FA7B
:1022200018B10C21944808F02BFA8F48FEF774FC83
:10223000E16A0AF0A7FA18B10D21904808F020FAD7
:102240008F4B89481B68012B00F0ED80FEF7E6FB01
:102250002169814D0AF0B4FA78B18348FEF706FC93
:10226000E9680AF08FFA40B17D4B1B78052B00F02E
:10227000EB800821834808F003FA0221824808F025
:10228000FFF9122006F05AFB012800F0B48011205B
:1022900006F054FB012800F0B8807C4B1B68012B32
:1022A00000F0BC8002217848794C08F0E9F9794BBC
:1022B0006848196808F070FD664808F01DFD0421A3
:1022C000754808F0DDF90B2006F038FB00230146C5
:1022D0000A22604808F020FD0C2006F02FFB0023A6
:1022E00001460A225B4808F017FD142006F026FB81
:1022F000002301460A22574808F00EFD152006F07B
:102300001DFB0A2200230146524808F005FD062164
:10231000624808F0B5F92368DD074FF001014CBFB2
:102320005F48604808F0ACF9236898074FF0010156
:102330004CBF5B485B4808F0A3F923685A074FF08D
:1023400001014CBF5648574808F09AF923681B070B
:102350004CBF53485348012108F092F904215248D8
:1023600008F08EF9112006F0E9FA002301460A224E
:10237000384808F0D1FC102006F0E0FA00230146AE
:102380000A22344808F0C8FC122006F0D7FA0023CD
:1023900001460A222F4808F0BFFC132006F0CEFAAF
:1023A000002301460A222B48BDE8704008F0B4BC67
:1023B00007213E4808F064F93D4B2648196808F0AB
:1023C000EBFC5AE706213B4808F05AF955E707218C
:1023D000394808F055F950E70721384808F050F916
:1023E0004BE70821364808F04BF946E70B21354802
:1023F00008F046F941E70E21334808F041F9112071
:1024000006F09CFA01287FF448AF0A212F4808F013
:1024100037F91E4B1B68012B7FF444AF11212C4868
:1024200008F02EF93EE7FEF7F9FA216A0AF0C8F93A
:1024300000283FF41EAF1621264808F021F90A2192
:10244000254808F01DF918E70A21234808F018F973
:1024500013E700BFDC87FF1F6093FF1F3C0F0100E5
:10246000D094FF1F4C0F01008095FF1F580F0100F3
:10247000680F0100780F01008C0F01009C0F010014
:102480000093FF1FD00F010040120100EC94FF1FCA
:102490002C94FF1FB894FF1F441001004C10010042
:1024A00054100100541E0100581001000C100100CE
:1024B000F094FF1FDC0F0100E40F0100F80F010092
:1024C00000100100EC0F01001410010024100100A5
:1024D00030100100AC0F0100C40F01002DE9F04FD6
:1024E000964CE56F012D8DB000F05081032D00F06A
:1024F0009E80934F934E944DA36F9448012B09BF38
:102500002968296801F10041296005F0F1FC336870
:10251000002B48D18D4805F0C1FCE36F3860012BDA
:1025200006464DD08A490AF04BF9B8B98949304678
:102530000AF028F990B9884A884B12680B920B9AD6
:102540001A60D4F8A80009F02BFF314609F07CFF8F
:10255000002338602B600DB0BDE8F08FDFF8F8A1E4
:10256000DFF8F881DAF800300A930A98D8F80030DA
:10257000DFF80C92C01A09F00FFF314609F064FF32
:1025800077490AF015F876490AF012F8D9F80010E0
:1025900009F052FEDAF800300993099BC9F80000EF
:1025A000C8F80030CDE7694805F078FC09F0A2FAD8
:1025B000022602460B4600966A4808F0F5FBA9E79A
:1025C000694B1B68012B00F0C181022BB9D167490F
:1025D0000AF0F6F830B9664930460AF0D3F8002818
:1025E00000F0E981DFF870A1DFF87081DAF80030DF
:1025F00007930798D8F80030DFF88491C01A09F0E3
:10260000CBFE314609F020FF554909F0D1FF54496E
:1026100009F0CEFFD9F8001009F00EFEDAF800300C
:102620000693069BC9F80000C8F8003089E7DFF878
:1026300054814D4ED8F80030414FD3F884000F211B
:102640000123336005F0D8FB33683E4E012B33681D
:1026500000F0BC80002B40F04081D8F80030DFF85B
:102660002891D3F88400436B19698DB2C9F80050E2
:1026700005F044F9B4F8862040F6E44303FB05F185
:10268000B1FBF0F0801A00B209F08AFE39492E4DF4
:102690008246D4F8880009F0D7FE0146504609F07A
:1026A00087FFD9F800302860632BDFF8DCA000F347
:1026B000078100232B603368002B3FF41DAF0221FC
:1026C0002D4807F0DDFFD8F80030D9F80020D3F806
:1026D000840040F6E44303FB02F805F00FF9B8FB71
:1026E000F0F009F059FE8046B4F8860009F058FE73
:1026F0000146404609F09EFD09F0FCF94FF0020842
:1027000002460B46CDF80080164808F04DFB4146C6
:10271000194807F0B5FF286809F0ECF9CDF80080FA
:1027200002460B460F4808F03FFB4146134807F0AE
:10273000A7FF4146104807F0A3FFDDE66093FF1FA7
:102740001493FF1F1095FF1F7C92FF1F3893FF1FEC
:102750000000FA430000FAC350B7FF1FE094FF1FC8
:1027600000007A44DC87FF1F5087FF1F00C82F48F6
:1027700000A08CC617B7D138401201009C10010090
:102780002093FF1FE494FF1F5893FF1FB14FB249DE
:102790003E68DFF80483304609F0F4FF30B130467C
:1027A000AE490AF00DF8002840F00C81D8F800205E
:1027B000AB4ED2F8840002230E21336005F01CFBDF
:1027C0003368A84E012B33687FF444AF002B40F0F0
:1027D0000381D8F80030DFF8D092D3F88400436B3F
:1027E00019691FFA81FBC9F800B005F087F8B4F841
:1027F00084309D4D40F6E44A0AFB0BFBBBFBF0F036
:10280000C01A00B209F0CCFD98498346D4F88C0078
:1028100009F01AFE0146584609F0CAFED8F8002011
:10282000D9F800302860D2F884000AFB03FA05F0DA
:1028300065F8B4F88430BAFBF0F00FFA80FAC3EB15
:102840000A03002BB4F8B620B8BF5B429342BCBF6A
:1028500000232B603368002B3FF44EAE02218448E6
:1028600007F00EFFD8F80030D9F80020D3F8840024
:1028700040F6E44303FB02F805F040F8B4F8841096
:10288000B8FBF0F000B2411A7A4808F085FA02214C
:10289000774807F0F5FE286809F02CF94FF0020898
:1028A00002460B46CDF80080724808F07DFA0321FD
:1028B000714807F0E5FE41466D4807F0E1FE1BE672
:1028C000D8F80030D3F8840005F018F8DAF80030B2
:1028D00064389842FFF4EDAEEDE66648DFF8C89143
:1028E000DFF8B4A108F008FA0C21644807F0C8FE2C
:1028F0000C21634807F0C4FED8F800203368D2F8F2
:102900008400426B11698DB2C9F80050002B3FF46E
:10291000AFAE04F0F3FF40F6E44100230A2201FBCE
:1029200005F1B1FBF0F1534808F0F6F902215048E7
:1029300007F0A6FEB4F886104E4808F02DFADAF833
:102940000030D9F80050D3F8840091E64D4909F0E1
:1029500037FF58B94C49304609F014FF30B94B4A9B
:102960004B4B12680592059A1A60EAE5DFF81CA144
:10297000DFF81C81DAF8003004930498D8F80030AE
:10298000DFF82891C01A09F007FD314609F05CFD17
:10299000404909F00DFE3F4909F00AFED9F8001040
:1029A00009F04AFCDAF800300393039BC9F80000F1
:1029B000C8F80030C5E5354A354B12680892089AC8
:1029C0001A60BEE5D8F80030254ED3F88400356093
:1029D0000F2105F011FA37E62648DFF8CC902E4D8E
:1029E00008F08AF9E36F012B4FF00B010CBF2B4865
:1029F0002B4807F045FE0C21214807F041FED8F88E
:102A000000203368D2F88400426B11691FFA81FB01
:102A1000C9F800B0002B3FF4E8AE04F06FFF40F6B9
:102A2000E44100230A2201FB0BF1B1FBF0F1114854
:102A300008F072F901211B4807F022FEB4F8841057
:102A40000C4808F0A9F92B68D9F800B0D3F8840035
:102A5000CBE600BF1493FF1F00709446007094C62D
:102A60005087FF1F1095FF1F7C92FF1F17B7D138AB
:102A700040120100DC87FF1F881001008C1001004C
:102A8000781001000000FA430000FAC350B7FF1F9E
:102A9000E094FF1F00007A44E494FF1F60100100DF
:102AA0006C100100380F01005893FF1F2093FF1F87
:102AB0002DE9F04F994C236885B0002B7BD0984DC1
:102AC000DFF86482974FDFF8A892D5F88030944EF3
:102AD000012B00F08B80D7F800A0D6F858B0746DA9
:102AE000914E04FB0BF44FF47A7000FB04F009F0F4
:102AF00057FC8E490446504609F0A6FC214609F0D1
:102B000057FD8B4909F0A0FC09F064FE6328C8F862
:102B100000004BDD2046854909F04AFD64233860FA
:102B20003360D9F80030002B3DD0EB6F7C4C012B8B
:102B300000F08A80032B00F0DF80022B00F0E2809F
:102B400002217C4807F09CFD7B4B186808F0D2FFFF
:102B5000022402460B460094784808F025F92146E5
:102B6000774807F08DFD2146724807F089FDD8F8B7
:102B70000010724808F010F90621724807F080FD35
:102B800038686A4909F060FC08F0B4FF0094024616
:102B90000B466A4808F008F903216B4807F070FDFE
:102BA000664808F0A9F805B0BDE8F08F0028BCBF62
:102BB00000233360B5E7654E594D33680293029A9E
:102BC00042F228339A424BD833680393039A42F275
:102BD00010739A424BD8D5F88030DFF84C81514FB2
:102BE000DFF88C914E4E012B7FF475AF5848FDF7FE
:102BF000F3FF5849D6F868A0F46E09F025FC09F0F7
:102C00000FFE326F736FD5F858B0CAEB02021B1B70
:102C100080B29A42CAEB0000C6BF03FB000001323B
:102C2000584390FBF2F020446C6D00FB0BF004FB6A
:102C300000F000EB8000400009F0B2FB3B4909F0D6
:102C4000B7FC824638604BE7434B1B68012B4FF0C3
:102C50000A010CBF4148424807F012FDE36F69E7E3
:102C60003B486A6C95F84010FDF72AFFACE73848FE
:102C7000FDF7B2FF3749AF6EEE6E09F0E5FB09F0E4
:102C8000CFFD2A6F6B6FD21B9B1B80B29A42A0EBC9
:102C900007003CDD03FB0000531C90FBF3F31E44D4
:102CA000A86D6B6DDFF88080DFF8C490C8F8006015
:102CB00000FB06F003FB00F000EB8000400009F091
:102CC0006FFB1A49174F09F073FCD9F800303860D0
:102CD00001222260002B3FF4F8AE0221154807F0D4
:102CE000CFFC164808F008F859211E4807F0C8FC28
:102CF000124808F001F8E8E610211B4807F0C0FC74
:102D0000EB6F1AE70721194807F0BAFC18E703FB35
:102D100000F393FBF2F31E44C2E700BF7892FF1F5B
:102D20006093FF1F2093FF1F3487FF1FE4388E3E00
:102D30000000C842401201001493FF1FDC87FF1FF0
:102D40009C100100301101003811010050B7FF1F25
:102D50008095FF1F00007A445087FF1FFC10010080
:102D600008110100A0100100141101002811010038
:102D70003C87FF1FF0B5112083B005F0DFFD01286F
:102D800013D000210B2005F0D3FD00210C2005F00D
:102D9000CFFD0021152005F0CBFD1D491D4B012065
:102DA000002208701A6003B0F0BD014604461520E9
:102DB00005F0BEFD1849194A194B09680191D2F86E
:102DC00090001B680199134D034402268B422E602C
:102DD00017D8D2F8980009F0E3FA124B196809F0F5
:102DE000D1FC074668B921460B2005F0A1FD084A31
:102DF000032339460C2016702B6005F099FD03B0B3
:102E0000F0BD01210C2005F093FD03B0F0BD00BF23
:102E1000D094FF1F0C95FF1F50B7FF1F6093FF1F3B
:102E20001495FF1F1493FF1FF0B56D4E6D4D346860
:102E30002B689C4287B03AD014F0010156D014F0B0
:102E400002014AD014F004013ED0E3070FD52B68ED
:102E5000DF070CD4644F3A68002A00F09E80634B71
:102E60001B680193019B934200F289803468A0079C
:102E70000DD52B6899070AD45D4F3A68002A3ED0D9
:102E80005A4B1B680393039B93425AD834686207DA
:102E90000DD52B685B070BD4564F3A68002A3FD0FC
:102EA000524B1B680593059B934258D834680CB16C
:102EB00007B0F0BD2146162005F0BAFB21461720C9
:102EC00005F0B6FB07B0F0BD052005F0B1FB2B689F
:102ED000346803F0FB032B60B7E7172005F0A8FB6D
:102EE0002B68346803F0FD032B60ABE7162005F078
:102EF0009FFB2B68346803F0FE032B609FE73E4B7B
:102F00001B68002B56D1FF21172005F091FB374B92
:102F10003A4A19680291029912680A443A60B0E785
:102F2000354B1B68002B50D1FF21052005F080FB9D
:102F30002E4B324A19680491049912680A443A6087
:102F4000AFE72F4B1720D3F8941005F071FB2B68D7
:102F5000346843F0020300222B603A6097E7284B65
:102F60000520D3F8941005F063FB2B68346843F018
:102F7000040300222B603A60002C99D19AE7204B81
:102F80001620D3F8941005F053FB2B68346843F0F7
:102F9000010300222B603A6069E7FF21162005F04B
:102FA00047FB124B154A19680091009912680A44B0
:102FB0003A6055E7134807F09FFE0C21124807F0CE
:102FC0005FFB104807F098FE9DE70E4807F094FE5F
:102FD0000C210E4807F054FB0A4807F08DFEA3E7CA
:102FE0000C95FF1F2C94FF1FA894FF1F50B7FF1FC5
:102FF000AC94FF1FB094FF1F3C87FF1F6887FF1F23
:103000006093FF1FDC87FF1F3C1101004C11010082
:103010002DE9F047534EDFF870813368DFF86C918B
:10302000D3F88400504D0F2104F0E6FE0023012266
:1030300022214E48C8F80030C9F8002007F020FBD4
:10304000D8F80030132B20DC40F6E4473368B5F89D
:1030500084A0D3F88400436B1C6904F04FFCA4B235
:10306000012107FB04F4B4FBF0F441485444A5F8F3
:10307000844007F005FB642005F096FCD8F800308A
:103080000133132BC8F80030E0DDB5F88430394A3D
:103090003948A2FB03129B1A02EB5303C3F30F132D
:1030A0001946A5F8843007F077FE1D21334807F054
:1030B000E7FA0221324807F0E3FA2F4807F01CFE36
:1030C00000231A460E213068C8F8003004F090FB47
:1030D000022322212548C9F8003007F0D1FAD8F898
:1030E0000030132B20DC40F6E4473368B5F88690B7
:1030F000D3F88400436B1C6904F000FCA4B20121E6
:1031000007FB04F4B4FBF0F419484C44A5F88640DE
:1031100007F0B6FA642005F047FCD8F80030013318
:10312000132BC8F80030E0DDB5F88630114A12489C
:10313000A2FB03129B1A02EB5303C3F30F131946AE
:10314000A5F8863007F028FE1D210E4807F098FAF2
:1031500002210B4807F094FA0748BDE8F04707F052
:10316000CBBD00BFE494FF1F6093FF1F5C11010003
:10317000A011010087611886DC87FF1F8011010004
:1031800040120100A4110100BC94FF1F5087FF1FD3
:10319000A64B2DE9F0411B68A54CA64D40F25131DC
:1031A00008222160E271286D002B40F0EE8009F0CA
:1031B000F7F86969064609F047F99F499D4F09F0FC
:1031C00043F909F02DFB80B2031263729B4A9C4BBA
:1031D00012681B68A969A37215121B12E37222738D
:1031E00020726573304609F02FF99349904D09F02C
:1031F0002BF909F015FB83B21A1229469148A373E3
:10320000E27304F04DF9904B904A1B681288A27249
:10321000DEB206EB8601267203EB8306490046F315
:10322000D71640F2553E12124FF000081B122173C0
:103230006673294608268348C4F800E0E272637288
:10324000E67184F80E8084F80F8004F029F940F2CA
:1032500056337F482360E671FDF72EFC7D4909F067
:10326000F3F809F0DDFA20727948FDF725FC794979
:1032700009F0EAF809F0D4FA774A7649C0F307234F
:103280006372106809F094F909F0A4FA40FA06F2A2
:1032900003466F48E272A372FDF73EFC664909F0EF
:1032A000D3F809F097FA20736948FDF735FC6249B5
:1032B00009F0CAF809F08EFA294640F3072361485D
:1032C000637384F80E8084F80F8004F0E9F802201C
:1032D00005F06AFB614A624B107851782072907851
:1032E0006172D2781978A072987893F801E0E2724E
:1032F0002173DA78A07340F25A332946514884F892
:103300000DE0E2732360E67104F0CAF8554B4D48B6
:103310001A785978227261729A78D978A272E17219
:103320001A79597993F806E022736173DA7984F88F
:103330000EE040F25E332946E2732360E67104F04A
:10334000AFF8022005F030FB474B3E481A78597819
:10335000227261729A78D978A272E1721A795979D7
:1033600093F806E022736173DA79E6714FF45C73C7
:103370002946236084F80EE0E27304F091F83B4B99
:103380001B68012B06D0BDE8F08109F009F8296A15
:10339000064610E72E48FDF741FBF96C08F04CFF9C
:1033A00080462B48FDF762FB0146404609F0EAF9EA
:1033B0000028E8D040F2C3332548EE712B60FDF7BA
:1033C0002DFBBE6C314609F0DDF9C8B12849304605
:1033D00009F03AF809F024FA80B2031268722B72ED
:1033E0000023012604250322A672E572227363736B
:1033F000A373E3730E491348BDE8F04104F050B8DD
:103400001348FDF70BFB1A4909F01EF809F008FAFA
:10341000C0F307230E482B72FDF700FB144909F097
:1034200013F809F0FDF96872DAE700BF0093FF1F97
:10343000FC94FF1F6093FF1F00002041DC94FF1FDE
:103440006492FF1FA8B5FF1F3487FF1F3887FF1F37
:103450008095FF1F0000C8421493FF1F5C93FF1F5D
:10346000D494FF1F2C87FF1F5487FF1FEC94FF1F6E
:1034700000007A4438B5164C164A2368101D12F81D
:10348000011F904241EA0323F9D12360124C03F15A
:1034900000432360114BDB6F022B11D0104B1B68D4
:1034A000012B00D038BD0F4807F026FC21680D48DD
:1034B00007F072FC03210C48BDE8384007F0E0B883
:1034C00020680A4D08F06CFF2860FFF707F8E5E771
:1034D000B494FF1F2B93FF1FD894FF1F6093FF1F0F
:1034E000A494FF1FDC87FF1FD01101007C92FF1FF7
:1034F00030B53C4C3C4883B0214603F0C9FE2368FC
:1035000040F2C232934252D0A3F58C621F2A48D9AE
:10351000A3F5FC630F2B3FD9344B1B68012B01D063
:1035200003B030BD324B1B68012BF9D1314B32480F
:103530001B6801930A220023019907F0EDFB226822
:10354000284B002ADB7945DB2C492D4809F044FF44
:103550002B4809F075FF0146294807F091F82568C6
:10356000204B15F0804526D1DB798BB163192549B5
:103570001A7A234809F030FF214809F061FF01461B
:103580001F4807F07DF80135E379EDB2AB42EDD885
:10359000194807F0B1FBC3E712491B48FDF7D6F9FC
:1035A000BAE710491848FDF7D1F92368B0E7FFF7EB
:1035B00061FF2368A8E7154D114C0FCD0FC495E8A6
:1035C000030044F8040B204620F81419152107F0D5
:1035D00057F8DDE70E490A4822F0604209F0FCFE88
:1035E000B6E700BF2493FF1FA8B5FF1F3C87FF1F4E
:1035F000A494FF1F50B7FF1FDC87FF1FFC110100C1
:103600008092FF1F281201008095FF1F10120100F9
:10361000D4110100A24B1B78052B00F0A1802DE9ED
:10362000F04FA04CA04EA14D626EE36DA0483260F9
:1036300083B02B60FDF7CEFAE16A09F0A3F808B178
:1036400000232B609A48FDF7C3FAA16A09F0B8F885
:1036500010B1002333602B609548FDF707FAE1684D
:1036600009F0AEF808B100232B609148FDF7FEF990
:10367000E16809F0A5F808B100232B608C48894F58
:10368000FDF7CCF9216909F07DF800286ED0002300
:1036900033602B68854F002B53DD8548DFF80482AB
:1036A000FDF796FA216B09F06DF8002840F0C48010
:1036B000804B7F481B687B4F012B00F0FD80FDF79E
:1036C000D5F9E1698046606908F0B4FD01464046DD
:1036D00009F076F8002834D0286808F061FE8246A8
:1036E0007348FDF7C3F9D7F814808346F96940465B
:1036F00008F0A0FD8146386E08F052FE0446F86DD1
:1037000008F04EFE214608F095FD4946074658460A
:1037100008F090FD0146384608F096FE49460746F7
:10372000404608F087FD0146384608F041FF214633
:1037300008F082FD0146504608F07CFD09F04AF889
:1037400028603368584A002BAFBF2B682B680021D4
:103750001160002B01DA00232B6003B0BDE8F08F6D
:103760005149524A00230B60136070475048FDF7DF
:1037700055F9B96909F006F8002888D13368DFF8EF
:103780002891002B85DD4A48FDF724FA796B09F072
:1037900017F8002840F0B3804548424FFDF73EF946
:1037A000216909F00DF8002800F09F804048DFF8FB
:1037B000F480FDF733F9D4F8B8100746A06908F093
:1037C0003BFD0146384608F0DDFF00283FF461AFBD
:1037D000306808F0E5FD82463548FDF71FF983465D
:1037E000D8F86400D8F8187008F0DAFD3946814638
:1037F000584608F01FFD49468346002008F01AFD90
:103800000146584608F020FED8F8B81083463846DE
:1038100008F012FD394608F00DFD0146584608F043
:10382000C7FE494608F008FD0146504608F002FD73
:1038300008F0D0FF30602CE7386808F0B1FD83460F
:103840001B48FDF7C5F90190D8F85C00D8F82CA00A
:1038500008F0A6FD019B81465146184608F0EAFC97
:1038600049460190002008F0E5FC019B01461846FE
:1038700008F0EAFD51460190D8F8300008F0DAFC73
:10388000019B0146184608F093FE494608F0D4FC17
:103890000146584608F0CEFC08F09CFF386007E768
:1038A000D094FF1F6093FF1FDC94FF1F6492FF1FE3
:1038B0008095FF1F0093FF1FFDF7D8F8E169804650
:1038C000206A08F0B7FC0146404608F079FF00285E
:1038D0003FF437AF286808F063FD82461E48FDF7C5
:1038E000C5F8D7F82080834600E71B48FDF796F817
:1038F000B96908F065FF00287FF458AFC9E6D9F828
:10390000000008F04DFD82461348FDF763F9019071
:10391000786ED7F8348008F043FD019B834641461A
:10392000184608F087FC0146584608F08DFD4146D0
:103930008346B86A08F07EFC0146584608F038FE17
:10394000002108F079FC0146504608F073FC08F0AD
:1039500041FFC9F800001FE78095FF1F08B5274801
:1039600007F0CAF90721264806F08AFE112004F064
:10397000E5FF0621F8B1234806F082FE122004F08C
:10398000DDFF062100B3204806F07AFE122004F085
:10399000D5FF062108B31D4806F072FE132004F07F
:1039A000CDFF062110BB1A4806F06AFE1348BDE899
:1039B000084007F0A1B9174806F062FE122004F093
:1039C000BDFF06210028DED1134806F059FE122063
:1039D00004F0B4FF06210028DDD1104806F050FEA7
:1039E000132004F0ABFF06210028DCD00C4806F0C1
:1039F00047FE0248BDE8084007F07EB9DC87FF1F9C
:103A0000341201003C1201004C1201005C12010052
:103A100074120100441201005412010064120100EA
:103A20006C12010010B5254C2368042B27DC012102
:103A30000B2004F07DFF01210C2004F079FF01210F
:103A4000142004F075FF0121152004F071FFFF21FF
:103A5000162004F0EDFDFF21172004F0E9FDFF2101
:103A6000052004F0E5FDFF21062004F0E1FD2368B8
:103A700001330A2B2360C4BF0023236010BD002143
:103A80000B2004F055FF00210C2004F051FF002111
:103A9000142004F04DFF0021152004F049FF0021FF
:103AA000162004F0C5FD0021172004F0C1FD0021FF
:103AB000052004F0BDFD0021D6E700BFF494FF1FF0
:103AC00010B5092182B09B4805F04EFA222005F07E
:103AD000F3F9994BD3F89C30012B984B1B7809D004
:103AE000052B10D8DFE813F007010C0116011B01AC
:103AF00011010B00002B00F01781052B03D10721CA
:103B00008F4805F031FA222005F0D6F9FF2005F0A4
:103B1000D3F9FF2005F0D0F98A4CFF2005F0CCF94D
:103B20000821894805F020FA2168884807F034F90F
:103B3000FF2005F0C1F9FF2005F0BEF9FF2005F0D8
:103B4000BBF90921824805F00FFA21687F4807F088
:103B500023F9FF2005F0B0F9FF2005F0ADF9FF20B3
:103B600005F0AAF90C217B4805F0FEF97A4B7B4958
:103B7000186808F01DFD07F0BDFF002402460B4643
:103B80000094724807F010F9FF2005F095F9FF2026
:103B900005F092F9FF2005F08FF90921704805F032
:103BA000E3F97048FCF7B8FF07F0A4FF0094024661
:103BB0000B46664807F0F8F8FF2005F07DF9FF2076
:103BC00005F07AF9FF2005F077F90C21664805F039
:103BD000CBF96448FCF7FEFF07F08CFF0094024627
:103BE0000B465A4807F0E0F8FF2005F065F9FF2082
:103BF00005F062F9FF2005F05FF90D215B4805F043
:103C0000B3F95848FCF7E4FF07F074FF009402464C
:103C10000B464E4807F0C8F8FF2005F04DF9FF208D
:103C200005F04AF9FF2005F047F90921504805F051
:103C30009BF94C48FCF740FF4E4908F005FC07F0A3
:103C400059FF009402460B46404807F0ADF8FF20AC
:103C500005F032F9FF2005F02FF9FF2005F02CF9CF
:103C60000C21454805F080F93E48FCF7D7FE434952
:103C700008F0EAFB07F03EFF009402460B4633488B
:103C800007F092F8FF2005F017F9FF2005F014F96E
:103C9000FF2005F011F90D21394805F065F931488B
:103CA000FCF7E4FE354908F0CFFB07F023FF009452
:103CB00002460B46254807F077F8FF2005F0FCF890
:103CC000FF2005F0F9F8FF2005F0F6F809212D484E
:103CD00005F04AF92C4B1D48196807F05DF8FF20E4
:103CE00005F0EAF8FF2005F0E7F8FF2002B0BDE894
:103CF000104005F0E1B80621244805F035F902E747
:103D00000721234805F030F9FDE60B21214805F095
:103D10002BF9F8E60721204805F026F9F3E60821FB
:103D20001E4805F021F9EEE608211D4805F01CF9B2
:103D3000E9E600BF7C1201006093FF1FD094FF1FD3
:103D40000C1001003487FF1F94120100BC87FF1F75
:103D5000A0120100AC1201001493FF1F0000C84222
:103D6000BC1201008095FF1FC8120100D81201008B
:103D7000E812010000002041F412010000007A4422
:103D800004130100141301002487FF1FDC0F01003E
:103D9000E40F0100EC0F0100F80F0100001001001A
:103DA000881201002DE9F0418D4DD5F8AC30042B7F
:103DB0003ED0032B6ED0012B00F09880022B01D057
:103DC000BDE8F081874C8848237240F20E3201230F
:103DD00021462260E37103F063FB844B1B685B00A8
:103DE000FF2BC8BFFF23042140224FF44170206005
:103DF000E17122726372286D08F0D2FA696908F0E5
:103E000023FB7B49054608F0DBFC002800F0DE8040
:103E10002946284608F010FA08F002FD80B2031285
:103E2000E072A3726F497048BDE8F04103F038BBFF
:103E30006C4C704AA379226043F001030822E271BE
:103E4000A371286D08F0ACFA696908F0FDFA6A49B7
:103E500008F0FAFA08F0E4FC644B684A1B68126840
:103E600093FBF2F380B200261A1207126072214609
:103E70005D48E372A272277226736673A673E673B7
:103E800003F00EFBA279D5F8AC3066F30002032BE9
:103E9000A27190D1534C286DA3720122E82307210F
:103EA00040F2FF26227263722660E17108F078FA10
:103EB000696908F0C9FA504908F0C6FA08F0B0FC80
:103EC0004A4B4E4A1B68126893FBF2F382B21E12F1
:103ED0001712214644486373E2722773A67303F0F6
:103EE000DFFAD5F8AC30012B7FF468AF444B3D4C82
:103EF0001B682360072280231020E271237204F0E4
:103F00001DFD002869D13F4B1B68DFF8E0803B4F67
:103F1000286D344E03EB83035B001A12A3726272A6
:103F2000D8F800303A6893FBF2F31A126273A37365
:103F300008F036FA696908F087FA334B196808F017
:103F400079F92D4908F080FA08F06AFC80B2031272
:103F5000314620732448E37203F0A2FA022004F0F1
:103F600023FD2A4B1B682360072280231020E27167
:103F7000237204F0E3FC70BB224B1B68286D03EB3B
:103F800083035B001A127272B37208F009FA69694E
:103F900008F05AFA1E4B196808F04CF9164908F057
:103FA00053FA08F03DFC82B216123868D8F8003097
:103FB000227393FBF0F30B490B48A3731A12E672BA
:103FC000627303F06DFAD5F8AC30F7E60122902366
:103FD000A272E37226E70F4BCFE70E4B94E700BFC8
:103FE0006093FF1FFC94FF1FA8B5FF1F6492FF1F83
:103FF00000004843F4E50618000020414C87FF1FED
:104000006087FF1F4487FF1F3094FF1F6487FF1FD7
:104010001C93FF1F4887FF1F38B5164D164A1748D7
:10402000294603F0D1FF18B1154B1B68012B00D0B6
:1040300038BD12211348144C06F022FB296813489E
:104040000023102206F068FE104806F055FE04F129
:10405000080514F8011F0D4800230A2206F05CFE33
:10406000092006F091FBA542F3D10848BDE838408D
:1040700006F042BE0893FF1F0C93FF1F1C95FF1F05
:104080001895FF1F201301000B93FF1FDC87FF1FF4
:10409000FA2810B504461BD0B0F5FA7F0FD11021D5
:1040A000134804F057F8C8B10F21124806F0E8FA97
:1040B000114806F021FE114BA3F8C04010BD0F219E
:1040C0000F4806F0DDFA0C48BDE8104006F014BEBB
:1040D0000F21074804F03EF80028E5D111210948D6
:1040E00006F0CEFA0448BDE8104006F005BE00BF59
:1040F0001C95FF1F34130100DC87FF1F6093FF1F17
:10410000581301004413010010B501460446002372
:104110000A22324806F000FE304806F0EDFDB4F504
:10412000964F48D029D9B4F5164F14D0B4F5E13FD5
:1041300038D104212A4804F029F82A4BC3F8C44096
:1041400005F04CFA40F2413005F0EAF82448BDE8A9
:10415000104003F0EFBF0221214804F017F8214B73
:10416000C3F8C44005F03AFA40F6C41005F0D8F898
:104170001B48BDE8104003F0DDBFB4F5165F11D158
:104180000021174804F002F8164BC3F8C44005F0AC
:1041900025FA42F2107005F0C3F81148BDE810404E
:1041A00003F0C8BF0F21104806F06AFA0B48BDE8BB
:1041B000104006F0A1BD0121094803F0E7FF094BBB
:1041C000C3F8C44005F00AFA41F2883005F0A8F8B7
:1041D0000348BDE8104003F0ADBF00BFDC87FF1F00
:1041E0001C95FF1F6093FF1F68130100F0B56F4C13
:1041F0006F4D83B006F0DEF923682860042B00F0D1
:10420000D782022B21D0092B69D0082B7FD13228ED
:1042100000F0E683712800F0DA80312840F0DB807E
:1042200006F004FA002840F316876248624E06F052
:10423000F5FEC0B286F8400002288ABF0021014680
:1042400086F84010726C5D48DEE3A0F13102422A2C
:1042500000F2C180DFE812F08E079A07A807B507C1
:10426000FE070D08BF00BF00BF00BF00BF00BF00BA
:10427000BF00BF00BF00BF00BF00BF00BF00BF0046
:10428000BF00BF00BF00BF00BF00BF00BF00BF0036
:10429000BF00BF00BF00BF00BF00BF00BF00BF0026
:1042A000BF00BF00BF00BF00BF00BF00BF00BF0016
:1042B000BF00BF00BF00BF00BF00BF001A08BF00A3
:1042C000BF00BF00BF00BF00BF00BF00BF00BF00F6
:1042D000BF00BF00BF00BF00BB00BF008107332885
:1042E00001F05D8400F3F082312801F073843228FC
:1042F00071D10123236006F099F9002804DD2D48CF
:1043000006F08CFEFFF7C4FE782023682860072B98
:1043100040F0D580332801F04A8453DC312801F085
:104320002884322857D106F081F9002840F3C5804F
:104330002048214E06F072FE08F032F8204908F0BD
:1043400083F861230122F06322602B601846A0F1FC
:104350005203262B01F2FD83DFE813F0830BFB0BE6
:10436000FB0BFB0BFB0BFB0BFB0BFB0BFB0BFB0B1D
:10437000FB0BFB0BFB0BFB0BFB0B5F03C30D2705C1
:10438000C4054404FB0BFB0BFB0BD904FB0BC00D5A
:10439000FB0BFB0BFB0BFB0BFB0B710BFB0BFB0B77
:1043A000FB0BFB0BFB0BFB0BD30300BFC094FF1FEE
:1043B0006092FF1FDC87FF1F6093FF1F8095FF1F28
:1043C0006F12833A342801F01384712803D100233B
:1043D000732023602860732808BF002B0CBF0120C6
:1043E0000020002867D0DF4806F086FC0421DE4864
:1043F00006F046F9DB4806F07FFC1021DB4806F0AA
:104400003FF9D84806F078FC1321D94806F038F96E
:10441000D84BD448196806F0BFFCD24806F06CFCB3
:104420001421D54806F02CF9CE4806F065FC1E2173
:10443000D24806F025F9CB4806F05EFC1521D0489D
:1044400006F01EF9C74806F057FC1E21CD4806F0BD
:1044500017F9C44806F050FC2021CB4806F010F9AB
:10446000C04806F049FC1921C84806F009F9BD48C2
:1044700006F042FC1621C64806F002F9B94806F0DB
:104480003BFC1221C34806F0FBF8B64806F034FCAA
:104490000F21C14806F0F4F8B24806F02DFC0D21BA
:1044A000BE4806F0EDF8AF4806F026FCBC4A0021F5
:1044B00001231160236003B0F0BD23682868062B38
:1044C00040F08C80A0F13102402A84D801A151F83B
:1044D00022F000BFEF5000001B51000061500000AF
:1044E0008750000047510000AD500000D15000003F
:1044F000D7430000D7430000D7430000D743000054
:10450000D7430000D7430000D7430000D743000043
:10451000D7430000D7430000D7430000D743000033
:10452000D7430000D7430000D7430000D743000023
:10453000D7430000D7430000D7430000D743000013
:10454000D7430000D7430000D7430000D743000003
:10455000D7430000D7430000D7430000D7430000F3
:10456000D7430000D7430000D7430000D7430000E3
:10457000D7430000D7430000D7430000D7430000D3
:10458000D7430000D7430000D7430000D7430000C3
:10459000D7430000D7430000D7430000D7430000B3
:1045A000D7430000D7430000D7430000D7430000A3
:1045B000D7430000D7430000D7430000D743000093
:1045C000D7430000D7430000D7430000D743000083
:1045D000D7430000CF43000023682868052B15D17E
:1045E000332801F04C8340F38281352801F0398370
:1045F000C1F2108371287FF4EEAE6A4A0023732063
:10460000136023602860E6E623682868032B40F0E7
:10461000A480A0F13002422A3FF6DDAE01A151F89C
:1046200022F000BF3147000083590000AB59000061
:10463000D3590000F5590000175A000057580000E0
:104640007F580000375900005B590000D743000035
:10465000D7430000D7430000D7430000D7430000F2
:10466000D7430000D7430000D7430000D7430000E2
:10467000D7430000D7430000D7430000D7430000D2
:10468000D7430000D7430000D7430000D7430000C2
:10469000D7430000D7430000D7430000D7430000B2
:1046A000D7430000D7430000D7430000D7430000A2
:1046B000D7430000D7430000D7430000D743000092
:1046C000D7430000D7430000D7430000D743000082
:1046D000D7430000D7430000D7430000D743000072
:1046E000D7430000D7430000F75700009D53000058
:1046F0009D580000BB580000D9580000F758000032
:104700005353000077530000D7430000D743000005
:10471000D7430000D7430000D7430000D743000031
:10472000D7430000D743000015580000215800006F
:1047300005F07CFF002841F315820A481A4E06F066
:104740006DFC012703460146622218487365276005
:104750002A60FCF7B3F923682868012B7FF43BAE8D
:10476000F5E500BFDC87FF1F741C01007C1C010005
:10477000901C01002487FF1FA41C0100BC1C010029
:10478000DC1C0100F41C0100141D0100381D010097
:10479000541D01006C1D0100801D0100901D0100D1
:1047A0003C87FF1F3493FF1F6093FF1F8095FF1FFF
:1047B000A0F13002412A3FF60EAE01A151F822F0DD
:1047C0001D5300001953000015530000355300001D
:1047D00099520000B1520000CD520000E752000093
:1047E000EB520000EF520000D7430000D743000017
:1047F000D7430000D7430000D7430000D743000051
:10480000D7430000D7430000D7430000D743000040
:10481000D7430000D7430000D7430000D743000030
:10482000D7430000D7430000D7430000D743000020
:10483000D7430000D7430000D7430000D743000010
:10484000D7430000D7430000D7430000D743000000
:10485000D7430000D7430000D7430000D7430000F0
:10486000D7430000D7430000D7430000D7430000E0
:10487000D7430000D7430000D7430000D7430000D0
:10488000D743000011530000D7430000D743000076
:10489000D7430000D7430000D7430000D7430000B0
:1048A000D7430000D7430000D7430000D7430000A0
:1048B000D7430000D7430000D7430000D743000090
:1048C000D7430000CF43000034287FF47EAD01239E
:1048D000236005F0ABFE00287FF716ADA74806F071
:1048E0009DFB642303FB00F0FFF70EFC0CE5312871
:1048F00001F0A68132287FF46EAD05F097FE002806
:104900007FF782AE9D489E4E06F088FB01226B2306
:10491000C6F8980022602B6001E005F04BFE05F020
:1049200085FE0028F9D1954806F0E6F9934806F08F
:10493000E3F9924806F0E0F9904806F0DDF98F4877
:1049400006F0DAF921218F4805F09AFE8B4806F02F
:10495000D3F915218C4805F093FED6F890108748BE
:1049600006F01AFA0221894805F08AFE834806F00B
:10497000C3F91E21864805F083FED6F898107F48BB
:1049800006F00AFA0321834805F07AFE7B4806F018
:10499000B3F91E21804805F073FED6F894107748CD
:1049A00006F0FAF9754806F0A7F91D217B4805F0D5
:1049B00067FED6F8A010714806F0EEF96F4806F0D1
:1049C0009BF91E21764805F05BFED6F8A4106B48D3
:1049D00006F0E2F9694806F08FF9052323606AE5DD
:1049E00005F024FE002840F332836448644E06F04C
:1049F00015FB07F0D5FC6B4907F026FD96F8401033
:104A00000346024668487364FCF75AF8012369209C
:104A1000236028609BE405F0CDFD05F007FE054608
:104A20000028F8D15548564E06F066F9534806F06E
:104A300063F9524806F060F9504806F05DF94F48B6
:104A400006F05AF91F21594805F01AFE4B4806F0A6
:104A500053F91C21564805F013FE706A554907F0BA
:104A6000F3FC07F047F8009502460B46434806F072
:104A70009BF90221504805F003FE404806F03CF93E
:104A800023214E4805F0FCFDF06B4A4907F0DCFCA1
:104A900007F030F8009502460B46384806F084F9D6
:104AA0000221454805F0ECFD344806F025F91921AE
:104AB000434805F0E5FDB06B07F01CF802250B46F6
:104AC000024600952D4806F06FF929463D4805F04D
:104AD000D7FD2A4806F010F919213B4805F0D0FD12
:104AE000B6F8B410254806F057F90321374805F009
:104AF000C7FD224806F000F907232360DBE405F038
:104B000059FD05F093FD05460028F8D11B481C4EC1
:104B100006F0F2F8194806F0EFF8184806F0ECF83D
:104B2000164806F0E9F8154806F0E6F8122128487C
:104B300005F0A6FD114806F0DFF8104806F0DCF895
:104B40000E4806F0D9F81921224805F099FD96F88B
:104B5000BE30002B41F0BF8004211F4805F090FDBE
:104B6000064806F0C9F813211C4805F089FD0348E2
:104B700006F0C2F8092323609DE400BFDC87FF1F15
:104B80006093FF1F90160100B4160100A0150100EC
:104B9000CC16010088100100EC1601000C17010072
:104BA0002C1701006F12833A8095FF1FEC1501004E
:104BB0000C16010000007A44841401002C16010038
:104BC000501601006C160100701601008C160100D1
:104BD000581D01009C130100B813010028140100A6
:104BE00005F0E8FC05F022FD05460028F8D1A548AF
:104BF000A54E06F081F8A34806F07EF8A14806F01D
:104C00007BF8A04806F078F89E4806F075F8112168
:104C10009E4805F035FD9B4806F06EF828219C481B
:104C200005F02EFD70699B4907F00EFC06F062FF4F
:104C3000009502460B46934806F0B6F802219648C6
:104C400005F01EFD8F4806F057F81621934805F031
:104C500017FDF0698F4907F0F7FB06F04BFF009551
:104C60000B460246874806F09FF802218A4805F065
:104C700007FD844806F040F8D6F8AC30002B32DD52
:104C80001D21874805F0FCFCF06D07F089FB854984
:104C900007F0DAFB06F02EFF022502460B460095D0
:104CA000784806F081F801217F4805F0E9FC754855
:104CB00006F022F81F217D4805F0E2FC306E07F077
:104CC0006FFB784907F0C0FB06F014FF0095024621
:104CD0000B466C4806F068F80121734805F0D0FCDB
:104CE000684806F009F81121714805F0C9FCD6F8AA
:104CF000AC30062B00F2D886DFE813F02107260738
:104D00001C07170712070D07D20605F053FC05F024
:104D10008DFC05460028F8D15A485B4E05F0ECFFA3
:104D2000584805F0E9FF574805F0E6FF554805F0FB
:104D3000E3FF544805F0E0FF15215E4805F0A0FCB4
:104D4000504805F0D9FF18215B4805F099FC2B4627
:104D50000A2296F840104B4805F0DEFF494805F05E
:104D6000CBFF2821554805F08BFC706C494907F0B2
:104D70006BFB06F0BFFE00950B460246414806F06D
:104D800013F80221444805F07BFC3E4805F0B4FFCF
:104D900013214B4805F074FC3A4805F0ADFF082399
:104DA0002360FFF788BB05F005FC05F03FFC0028F9
:104DB000F9D13448344E05F09FFF324805F09CFF8E
:104DC000304805F099FF2F4805F096FF2D4805F073
:104DD00093FF1F213B4805F053FC2A4805F08CFF48
:104DE0001E21394805F04CFC264805F085FF1A21A4
:104DF000364805F045FCF36F022B01F03180032BA0
:104E000001F02580012B01F019800921304805F0BF
:104E100037FC1C4805F070FF14212E481A4F05F08E
:104E20002FFCB16F174805F0B7FF164805F064FF77
:104E30001C21294805F024FCD6F88010114805F003
:104E4000ABFF104805F058FF1C21244805F018FC62
:104E5000D6F8A8100B4805F09FFF0A4805F04CFF54
:104E6000F56F25F00205012D00F0B88713211448D5
:104E700005F006FC034805F03FFF02232360FFF71F
:104E80001ABB00BFDC87FF1F6093FF1FE01C0100FF
:104E90008814010000007A4484140100B414010055
:104EA000CC140100CDCCCC3DC8190100EC1401009C
:104EB0000C1501003C1D01003C14010058140100B8
:104EC0002814010088180100A8180100C818010062
:104ED000401901004C1901006419010084190100F6
:104EE00005F068FB05F0A2FB0028F9D1BE48BF4DD4
:104EF00005F002FFBC4805F0FFFEBB4805F0FCFED4
:104F0000B94805F0F9FEB84805F0F6FE1321B84897
:104F100005F0B6FBB44805F0EFFE0D21B54805F0ED
:104F2000AFFBB14805F0E8FE0F21B34805F0A8FB40
:104F3000B24BAD48196805F02FFFAB4805F0DCFE19
:104F40001321AF4805F09CFBAE4BA748196805F04C
:104F500023FFA54805F0D0FE1221AB4805F090FBD9
:104F6000AA4BA148196805F017FF9F4805F0C4FE39
:104F70001121A74805F084FBA64B9B48196805F052
:104F80000BFF994805F0B8FE0E21A34805F078FB09
:104F9000D5F89C10944805F0FFFE934805F0ACFE50
:104FA00019219E4805F06CFB9D4B8F48196805F050
:104FB000F3FE8D4805F0A0FE11219A4805F060FB34
:104FC000994B8948196805F0E7FE874805F094FE7B
:104FD0001021964805F054FB954B8348196805F05D
:104FE000DBFE814805F088FE1C21924805F048FB55
:104FF000914B7D48196805F0CFFE7B4805F07CFE9B
:105000001E218E4805F03CFB95F8BD30002B00F0CA
:1050100059860D218A4805F033FB734805F06CFE74
:105020001521884805F02CFB874B6F48196805F05F
:10503000B3FE6D4805F060FE1321844805F020FBA7
:10504000694805F059FE04232360FFF734BA23684A
:105050002868FFF75CB9654E96F84000FFF7ECB89A
:1050600005F0E4FA00287FF7B7AA5F485F4E05F025
:10507000D5FF00EB8000430001226520F36522602C
:105080002860FFF764B905F0D1FA00287FF7A4AAD9
:105090005548564E05F0C2FF00EB80004300012248
:1050A0006520336622602860FFF751B905F0BEFA2B
:1050B00000287FF791AA4C484C4E05F0AFFF6523BE
:1050C0000122C6F8B00022602B601846FFF73FB9F6
:1050D000464B93F8BC20002A00F0EF85002283F8AD
:1050E000BC200123652023602860FFF730B905F05C
:1050F0009DFA00287FF770AA3B483C4E05F08EFFD2
:1051000007F04EF9524907F053FA65230122706106
:1051100022602B601846FFF71AB905F087FA0028BD
:105120007FF75AAA3048314E05F078FF07F038F97A
:10513000474907F03DFA65230122F06122602B60A8
:105140001846FFF704B9294AD2F8AC300133052BD1
:10515000C8BF0023C2F8AC30C3E7244AD36F013381
:10516000032BC8BF0023D36701236320236028607B
:10517000FFF7EDB81D4EB36FB3FA83F35B0901225D
:105180006320B36722602860FFF7E1B8174ED6F8B6
:105190008030B3FA83F35B0901226320C6F88030C4
:1051A00022602860FFF7D3B80123236005F03EFAA0
:1051B0000028D9DD0C480D4E05F030FFC6F8A800D8
:1051C000D2E70123236005F031FA002807DD064805
:1051D000064E05F023FF07F0E3F8C6F88C006320C5
:1051E00028602368FFF711B8DC87FF1F6093FF1F5B
:1051F0004C1701006017010070170100A494FF1FF5
:10520000801701001095FF1F94170100CC94FF1F19
:10521000A8170100F894FF1FBC170100CC1701006C
:10522000B894FF1FE81701003493FF1FFC1701001B
:105230000493FF1F101801005C87FF1F3018010046
:1052400050180100701801001895FF1F2814010064
:1052500000007A440123236005F0E8F90028BEDD50
:105260005648574E05F0DAFE07F09AF8C6F888005F
:10527000B5E70123236005F0D9F90028AFDD4F48D9
:105280004F4E05F0CBFEA6F8B600A8E7FDF7C0FE2E
:1052900023682868FEF7B7BF4A4A1368B3FA83F356
:1052A0005B0901216420136021602860FFF74FB87B
:1052B000434ED6F89C30B3FA83F35B090122642095
:1052C000C6F89C3022602860FFF741B801233E48B1
:1052D0002360FBF711FB3D4A2368106064222A60BB
:1052E0006420FEF790BF3A4AD7E73A4AD5E7012350
:1052F000236005F09BF9002800F33385364B1A68CC
:10530000042AC4BF02221A6064232B602368E7E7E3
:10531000324AC2E7324AC0E7324ABEE7284E96F820
:10532000BD3001225340642086F8BD3022602860E1
:10533000FFF70DB82C4A2D4F1368002B0CBF01232B
:1053400000234FF001001360206040F09285034677
:10535000C4E705F06BF900280DDD1848184E05F07C
:105360005DFE07F01DF8224907F022F901226223B1
:10537000306222602B6005F059F900280EDD0F48DD
:105380000F4E05F04BFE07F00BF8194907F010F926
:1053900001226223C6F8B80022602B6005F046F9AE
:1053A000002840F3DF830548054E05F037FE012253
:1053B0006223B06622602B601EE000BFDC87FF1F07
:1053C0006093FF1FF894FF1F8095FF1FB894FF1F85
:1053D0003493FF1F0493FF1F5C87FF1F1895FF1F67
:1053E0001095FF1FA494FF1FCC94FF1FC094FF1FB4
:1053F00000007A4405F0DEF805F018F905460028AB
:10540000F8D1C24805F078FCC04805F075FCBF48EB
:1054100005F072FCBD4805F06FFCBC4805F06CFC63
:105420001521BB4805F02CF9B84805F065FC14219E
:10543000B84805F025F9B54805F05EFC1B21B648D3
:1054400005F01EF9B14805F057FC1321B34805F0EB
:1054500017F9AE4805F050FCAC4805F04DFCAB48E0
:1054600005F04AFC2021AE4805F00AF9F068AD4984
:1054700006F0EAFF06F03EFB009502460B46A34805
:1054800005F092FC0221A84805F0FAF80221A7488D
:1054900005F0F6F89D4805F02FFC2121A44805F001
:1054A000EFF830699F4906F0CFFF06F023FB009527
:1054B00002460B46954805F077FC02219A4805F014
:1054C000DFF80221994805F0DBF8904805F014FC5C
:1054D0001F21984805F0D4F8B06A06F00BFB0227AC
:1054E00002460B460097894805F05EFC0121924870
:1054F00005F0C6F839468D4805F0C2F8834805F036
:10550000FBFB20218D4805F0BBF8F06A06F0F2FAAB
:10551000009702460B467D4805F046FC012186486F
:1055200005F0AEF83946814805F0AAF8774805F04D
:10553000E3FB2321824805F0A3F8B06C794906F01B
:1055400083FF06F0D7FA009502460B466F4805F038
:105550002BFC3946744805F093F83946734805F03A
:105560008FF86A4805F0C8FB1F21764805F088F8D7
:10557000F06C6C4906F068FF06F0BCFA0095024634
:105580000B46624805F010FC3946674805F078F88C
:105590003946664805F074F85C4805F0ADFB192102
:1055A000694805F06DF8B16D584805F0F5FB3946CE
:1055B000664805F065F839465C4805F061F85348DF
:1055C00005F09AFB1821624805F05AF8706E06F053
:1055D000E7FE604906F038FF06F08CFA00970246B5
:1055E0000B464A4805F0E0FB01215B4805F048F80E
:1055F00039464E4805F044F8444805F07DFB2B2120
:10560000564805F03DF8B069464906F01DFF06F022
:1056100071FA009502460B463C4805F0C5FB394639
:10562000414805F02DF83946404805F029F837483B
:1056300005F062FB1F214A4805F022F8716D3348DE
:1056400005F0AAFB3946394805F01AF82F4805F04D
:1056500053FB2021434805F013F8316D2B4805F02A
:105660009BFB3946314805F00BF8284805F044FB10
:1056700010213D4805F004F8B16E244805F08CFB7C
:105680003946294804F0FCFF3946284804F0F8FF61
:105690001E4805F031FB1321344804F0F1FFF16E90
:1056A0001A4805F079FB0121314804F0E9FF394639
:1056B0001E4804F0E5FF154805F01EFB10212D489B
:1056C00004F0DEFF316F114805F066FB39461648DD
:1056D00004F0D6FF3946154804F0D2FF0B4805F018
:1056E0000BFB1421244804F0CBFF716F074805F031
:1056F00053FB01211E4804F0C3FF39460B4804F058
:10570000BFFF024805F0F8FA162137E0DC87FF1FDB
:10571000101A0100281A0100401A01002814010083
:105720005C1A010000007A44841401004012010058
:10573000801A0100A41A0100C41A0100C81A01004D
:10574000EC1A0100101B0100301B01004C1B010072
:10575000501B0100CDCCCC3DC81901006C1B0100D1
:10576000981B0100B81B0100DC1B0100F01B0100AD
:10577000041C0100081C01001C1C0100BB4804F0B3
:105780007FFF306ABA4906F05FFE06F0B3F9009574
:1057900002460B46B74805F007FB3946B64804F009
:1057A0006FFF3946B54804F06BFFB24805F0A4FA24
:1057B0002421B34804F064FFD6F8B800AC4906F0E1
:1057C00043FE06F097F900950B460246A94805F0FE
:1057D000EBFA3946A84804F053FF3946A74804F0CD
:1057E0004FFFA44805F088FAA24805F085FA032384
:1057F0002360FEF760BE04F019FF002840F3B28179
:105800009C48A04E05F00AFC01226223306522600C
:105810002B60F1E50022732322602B60FEF7E3BDCD
:10582000994B9648974E002202211A6004F028FFF7
:10583000904805F061FA0B21944804F021FF022101
:105840008E4804F01DFF8B4805F056FA01226223B2
:1058500022602B60D0E504F0E9FE002840F382814D
:105860008448884E05F0DAFB06F09AFD804906F080
:105870009FFE01226223F06422602B60BCE504F0ED
:10588000D5FE002840F36E817A487E4E05F0C6FBB7
:1058900001226223B06522602B60ADE504F0C6FEF4
:1058A000002840F35F817348764E05F0B7FB012274
:1058B0006223F06622602B609EE504F0B7FE0028AC
:1058C00040F350816B486F4E05F0A8FB0122622324
:1058D000306722602B608FE504F0A8FE002840F3BB
:1058E00041816448674E05F099FB0122622370678D
:1058F00022602B6080E5FBF7CDFF02215F48614EFF
:1059000004F0BEFE5B4805F0F7F902215B4804F0A5
:10591000B7FE584805F0F0F90221584804F0B0FEEF
:10592000544805F0E9F91721594804F0A9FE5148F7
:1059300005F0E2F983E704F079FE002840F31281D4
:105940004C48504E05F06AFB00EB800043000121FB
:105950006222736621602A604EE504F067FE00282B
:1059600040F300814348474E05F058FB06F018FD10
:105970003F4906F01DFE01226223B06122602B60C8
:105980003AE504F053FE002840F3EC8039483D4EE0
:1059900005F044FB06F004FD354906F009FE01223E
:1059A0006223F06022602B6026E504F03FFE0028B1
:1059B00040F3D8802F48334E05F030FB06F0F0FC62
:1059C0002B4906F0F5FD01226223306122602B6035
:1059D00012E504F02BFE002840F3C4802548294E30
:1059E00005F01CFB06F0DCFC01226223B0622260A1
:1059F0002B6001E504F01AFE002840F3B3801D4837
:105A0000204E05F00BFB06F0CBFC01226223F06276
:105A100022602B60F0E404F009FE002840F3A2802D
:105A20001448184E05F0FAFA06F0BAFC104906F0D0
:105A3000BFFD01226223B06422602B60DCE4CC2233
:105A40000021104802F0A8FC2868124AA0F1730057
:105A500001210023B0FA80F0400911602360FEF7B5
:105A6000C0BC0D4B0D4A1A60FEF725BD341C010069
:105A700000007A44DC87FF1F8414010040120100FB
:105A80004C1C01006093FF1F7892FF1F90130100D0
:105A9000781301003C87FF1F0CED00E00400FA05BD
:105AA0000421B44804F0ECFDB348B44D05F024F9EA
:105AB000D6F8AC30002B12DD1821B14804F0E0FD1F
:105AC000D5F8B010AC4805F067F90221AD4804F0F4
:105AD000D7FDA94805F010F9A74805F00DF91B21DD
